{
	"data": {
		"bytecode": {
			"linkReferences": {},
			"object": "6080604052348015600e575f80fd5b5060015f81905580546001600160a01b03191633179055611db6806100325f395ff3fe608060405234801561000f575f80fd5b5060043610610111575f3560e01c8063807198931161009e578063be6552e61161006e578063be6552e614610282578063d5f3948814610297578063ec4c2e5d146102aa578063eebed3a7146102b2578063fbe332dc146102c5575f80fd5b80638071989314610240578063a791edf814610253578063a7fee72214610266578063bc5aef9014610279575f80fd5b806322418460116100e457806322418460146101a657806329d5de01146101d15780632cf1366b146102055780636e5ecdff146102255780637b022fa21461022d575f80fd5b80630bcfc7171461011557806312c0c8c01461012a57806316c1076f146101685780631a83f4a31461017b575b5f80fd5b61012861012336600461171e565b6102d8565b005b6101556101383660046117e2565b805160208183018101805160078252928201919093012091525481565b6040519081526020015b60405180910390f35b61012861017636600461171e565b6103a4565b6101556101893660046117e2565b805160208183018101805160058252928201919093012091525481565b6101b96101b43660046117e2565b6104ec565b6040516001600160a01b03909116815260200161015f565b6101b96101df3660046117e2565b80516020818301810180516003825292820191909301209152546001600160a01b031681565b61021861021336600461181c565b6105ad565b60405161015f9190611861565b610128610653565b61021861023b36600461181c565b610e68565b61012861024e366004611873565b610e77565b6002546101b9906001600160a01b031681565b6102186102743660046118c2565b61108a565b61015560095481565b61028a6110c7565b60405161015f9190611963565b6001546101b9906001600160a01b031681565b61028a61119b565b6102186102c036600461181c565b611266565b6101286102d3366004611873565b611275565b6102e0611487565b6001546001600160a01b031633146103525760405162461bcd60e51b815260206004820152602a60248201527f7468652073656e6465722077617320657870656374656420746f20626520746860448201526932903232b83637bcb2b960b11b60648201526084015b60405180910390fd5b600280546001600160a01b0319166001600160a01b0383169081179091556040517fa16907e9030f7a27dd100153173e6b01401f940d851e6f7095937f2773e561b2905f90a26103a160015f55565b50565b6103ac611487565b600954156104125760405162461bcd60e51b815260206004820152602d60248201527f746865726520697320616c726561647920612070656e64696e6720757067726160448201526c646520696e2070726f6365737360981b6064820152608401610349565b6002546001600160a01b031661043a5760405162461bcd60e51b8152600401610349906119c6565b6002546040516316c1076f60e01b81526001600160a01b0383811660048301525f9216906316c1076f906024016020604051808303815f875af1158015610483573d5f803e3d5ffd5b505050506040513d601f19601f820116820180604052508101906104a79190611a09565b60098190556040519091506001600160a01b038316907f130bf33540470b3a07f23b1164785a20acd90a150a4a00e976740c8f941c71db905f90a2506103a160015f55565b5f806001600160a01b03166003836040516105079190611a37565b908152604051908190036020019020546001600160a01b03160361057e5760405162461bcd60e51b815260206004820152602860248201527f746865206b657920646f6573204e4f5420706f696e7420746f20616e7920646560448201526770656e64656e637960c01b6064820152608401610349565b60038260405161058e9190611a37565b908152604051908190036020019020546001600160a01b031692915050565b600881815481106105bc575f80fd5b905f5260205f20015f9150905080546105d490611a42565b80601f016020809104026020016040519081016040528092919081815260200182805461060090611a42565b801561064b5780601f106106225761010080835404028352916020019161064b565b820191905f5260205f20905b81548152906001019060200180831161062e57829003601f168201915b505050505081565b61065b611487565b6002546001600160a01b03166106835760405162461bcd60e51b8152600401610349906119c6565b6009541561079a5760025460095460405163156a8dcb60e11b815260048101919091525f91829182916001600160a01b031690632ad51b9690602401606060405180830381865afa1580156106da573d5f803e3d5ffd5b505050506040513d601f19601f820116820180604052508101906106fe9190611a8e565b925092509250811561070f575f6009555b8180156107195750805b15610752576040516001600160a01b038416907fe00a5b97742635032504f47f4c4ae13f19de32bab9db317d70cb5820cce02935905f90a25b81801561075d575080155b15610796576040516001600160a01b038416907f563bb4859f75835d1cd4855f062e12db76cc064572739370c11b20510e382d5b905f90a25b5050505b60085415610b24576008545b8015610b22575f6107b8600183611ae4565b90505f600882815481106107ce576107ce611af7565b905f5260205f200180546107e190611a42565b80601f016020809104026020016040519081016040528092919081815260200182805461080d90611a42565b80156108585780601f1061082f57610100808354040283529160200191610858565b820191905f5260205f20905b81548152906001019060200180831161083b57829003601f168201915b505050505090505f6007826040516108709190611a37565b9081526040519081900360200181205460025463b986f17960e01b83529092505f9182916001600160a01b03169063b986f179906108b690869060040190815260200190565b6040805180830381865afa1580156108d0573d5f803e3d5ffd5b505050506040513d601f19601f820116820180604052508101906108f49190611b0b565b9150915081610907575050505050610b10565b5f6003856040516109189190611a37565b908152604051908190036020019020546001600160a01b031690508115610a24576003856040516109499190611a37565b90815260405190819003602001902080546001600160a01b03191690556004805461097690600190611ae4565b8154811061098657610986611af7565b905f5260205f2001600487815481106109a1576109a1611af7565b905f5260205f200190816109b59190611b88565b5060048054806109c7576109c7611c60565b600190038181905f5260205f20015f6109e091906116c0565b9055806001600160a01b03167f82aa94d0384f3fe5d924376cf325afcff8195f30f42758ae710193c432f24ac186604051610a1b9190611861565b60405180910390a25b81610a6b57806001600160a01b03167f402a83bdad8cef946824820b268607aec7303de64e88533b0bd7ee57a577b95486604051610a629190611861565b60405180910390a25b600785604051610a7b9190611a37565b9081526040519081900360200190205f905560088054610a9d90600190611ae4565b81548110610aad57610aad611af7565b905f5260205f200160088781548110610ac857610ac8611af7565b905f5260205f20019081610adc9190611b88565b506008805480610aee57610aee611c60565b600190038181905f5260205f20015f610b0791906116c0565b90555050505050505b80610b1a81611c74565b9150506107a6565b505b60065415610e5d576006545b8015610e5b575f610b42600183611ae4565b90505f60068281548110610b5857610b58611af7565b905f5260205f20018054610b6b90611a42565b80601f0160208091040260200160405190810160405280929190818152602001828054610b9790611a42565b8015610be25780601f10610bb957610100808354040283529160200191610be2565b820191905f5260205f20905b815481529060010190602001808311610bc557829003601f168201915b505050505090505f600582604051610bfa9190611a37565b90815260405190819003602001812054600254634f6e1b2760e01b83529092505f91829182916001600160a01b0390911690634f6e1b2790610c4490879060040190815260200190565b606060405180830381865afa158015610c5f573d5f803e3d5ffd5b505050506040513d601f19601f82011682018060405250810190610c839190611a8e565b92509250925081610c9957505050505050610e49565b8015610d5d5782600386604051610cb09190611a37565b90815260405190819003602001902080546001600160a01b03929092166001600160a01b0319909216919091179055600480546001810182555f919091527f8a35acfbc15ff81a39ae7d344fd709f28e8600b4aa8c65c6b64bfe7fe36bd19b01610d1a8682611c89565b50826001600160a01b03167f8281f4653ea8e6ba47f1ebeeb1c7e17291003d7e8247666d4d1c46124920bfe686604051610d549190611861565b60405180910390a25b80610da457826001600160a01b03167fc4425eba3fdc6aaf1c08b8892b7b7b5fdca047f984a94148a7c547e0faac2bd386604051610d9b9190611861565b60405180910390a25b600585604051610db49190611a37565b9081526040519081900360200190205f905560068054610dd690600190611ae4565b81548110610de657610de6611af7565b905f5260205f200160068781548110610e0157610e01611af7565b905f5260205f20019081610e159190611b88565b506006805480610e2757610e27611c60565b600190038181905f5260205f20015f610e4091906116c0565b90555050505050505b80610e5381611c74565b915050610b30565b505b610e6660015f55565b565b600681815481106105bc575f80fd5b610e7f611487565b6002546001600160a01b0316610ea75760405162461bcd60e51b8152600401610349906119c6565b6001600160a01b038116610efd5760405162461bcd60e51b815260206004820152601f60248201527f74686520636f6e74726163742061646472657373206973206e6f7420736574006044820152606401610349565b600254604051630eacd1d560e11b81525f916001600160a01b031690631d59a3aa90610f2f9086908690600401611d3c565b6020604051808303815f875af1158015610f4b573d5f803e3d5ffd5b505050506040513d601f19601f82011682018060405250810190610f6f9190611a09565b9050600583604051610f819190611a37565b9081526020016040518091039020545f14610fde5760405162461bcd60e51b815260206004820181905260248201527f74686520646570656e64656e637920616c7265616479207265717565737465646044820152606401610349565b80600584604051610fef9190611a37565b90815260405190819003602001902055600680546001810182555f919091527ff652222313e28459528d920b65115c16c04f3efc82aaedc97be59f3f377c0d3f0161103a8482611c89565b50816001600160a01b03167f7a561791a5e256aac8e189115ca0e37a81457d0fc3faceceb7d1c4907dd55a3a846040516110749190611861565b60405180910390a25061108660015f55565b5050565b6060611094611487565b5f61109e856114af565b845160208601209091506110b3828286611541565b925050506110c060015f55565b9392505050565b60606006805480602002602001604051908101604052809291908181526020015f905b82821015611192578382905f5260205f2001805461110790611a42565b80601f016020809104026020016040519081016040528092919081815260200182805461113390611a42565b801561117e5780601f106111555761010080835404028352916020019161117e565b820191905f5260205f20905b81548152906001019060200180831161116157829003601f168201915b5050505050815260200190600101906110ea565b50505050905090565b60606004805480602002602001604051908101604052809291908181526020015f905b82821015611192578382905f5260205f200180546111db90611a42565b80601f016020809104026020016040519081016040528092919081815260200182805461120790611a42565b80156112525780601f1061122957610100808354040283529160200191611252565b820191905f5260205f20905b81548152906001019060200180831161123557829003601f168201915b5050505050815260200190600101906111be565b600481815481106105bc575f80fd5b61127d611487565b6002546001600160a01b03166112a55760405162461bcd60e51b8152600401610349906119c6565b6001600160a01b0381166112fb5760405162461bcd60e51b815260206004820152601f60248201527f74686520636f6e74726163742061646472657373206973206e6f7420736574006044820152606401610349565b6002546040516307ec404360e01b81525f916001600160a01b0316906307ec40439061132d9086908690600401611d3c565b6020604051808303815f875af1158015611349573d5f803e3d5ffd5b505050506040513d601f19601f8201168201806040525081019061136d9190611a09565b905060078360405161137f9190611a37565b9081526020016040518091039020545f146113f15760405162461bcd60e51b815260206004820152602c60248201527f74686520646570656e64656e637920616c72656164792072657175657374656460448201526b08199bdc881c995b5bdd985b60a21b6064820152608401610349565b806007846040516114029190611a37565b90815260405190819003602001902055600880546001810182555f919091527ff3f7a9fe364faab93b216da50a3214154f22a0a2b415b23a84c8169e8b636ee30161144d8482611c89565b50816001600160a01b03167f4591e03d87e58e2eff46633bca8adfb3336f94ced41a61a4e33d3e061fd0e960846040516110749190611861565b60025f54036114a957604051633ee5aeb560e01b815260040160405180910390fd5b60025f55565b5f806001600160a01b03166003836040516114ca9190611a37565b908152604051908190036020019020546001600160a01b03160361057e5760405162461bcd60e51b815260206004820152602860248201527f546865206b657920646f6573204e4f5420706f696e7420746f20616e7920646560448201526770656e64656e637960c01b6064820152608401610349565b60605f8383604051602001611557929190611d65565b60408051601f19818403018152919052905061157c6001600160a01b03861682611585565b95945050505050565b606061159283835f61159b565b90505b92915050565b6060814710156115c75760405163cf47918160e01b815247600482015260248101839052604401610349565b5f80856001600160a01b031684866040516115e29190611a37565b5f6040518083038185875af1925050503d805f811461161c576040519150601f19603f3d011682016040523d82523d5f602084013e611621565b606091505b509150915061163186838361163b565b9695505050505050565b6060826116505761164b82611697565b6110c0565b815115801561166757506001600160a01b0384163b155b1561169057604051639996b31560e01b81526001600160a01b0385166004820152602401610349565b50806110c0565b8051156116a75780518082602001fd5b60405163d6bda27560e01b815260040160405180910390fd5b5080546116cc90611a42565b5f825580601f106116db575050565b601f0160209004905f5260205f20908101906103a191905b80821115611706575f81556001016116f3565b5090565b6001600160a01b03811681146103a1575f80fd5b5f6020828403121561172e575f80fd5b81356110c08161170a565b634e487b7160e01b5f52604160045260245ffd5b5f8067ffffffffffffffff84111561176757611767611739565b50604051601f19601f85018116603f0116810181811067ffffffffffffffff8211171561179657611796611739565b6040528381529050808284018510156117ad575f80fd5b838360208301375f60208583010152509392505050565b5f82601f8301126117d3575f80fd5b6115928383356020850161174d565b5f602082840312156117f2575f80fd5b813567ffffffffffffffff811115611808575f80fd5b611814848285016117c4565b949350505050565b5f6020828403121561182c575f80fd5b5035919050565b5f81518084528060208401602086015e5f602082860101526020601f19601f83011685010191505092915050565b602081525f6115926020830184611833565b5f8060408385031215611884575f80fd5b823567ffffffffffffffff81111561189a575f80fd5b6118a6858286016117c4565b92505060208301356118b78161170a565b809150509250929050565b5f805f606084860312156118d4575f80fd5b833567ffffffffffffffff8111156118ea575f80fd5b6118f6868287016117c4565b935050602084013567ffffffffffffffff811115611912575f80fd5b61191e868287016117c4565b925050604084013567ffffffffffffffff81111561193a575f80fd5b8401601f8101861361194a575f80fd5b6119598682356020840161174d565b9150509250925092565b5f602082016020835280845180835260408501915060408160051b8601019250602086015f5b828110156119ba57603f198786030184526119a5858351611833565b94506020938401939190910190600101611989565b50929695505050505050565b60208082526023908201527f74686520646570656e64656e637920726571756573746572206973206e6f74206040820152621cd95d60ea1b606082015260800190565b5f60208284031215611a19575f80fd5b5051919050565b5f81518060208401855e5f93019283525090919050565b5f6115928284611a20565b600181811c90821680611a5657607f821691505b602082108103611a7457634e487b7160e01b5f52602260045260245ffd5b50919050565b80518015158114611a89575f80fd5b919050565b5f805f60608486031215611aa0575f80fd5b8351611aab8161170a565b9250611ab960208501611a7a565b9150611ac760408501611a7a565b90509250925092565b634e487b7160e01b5f52601160045260245ffd5b8181038181111561159557611595611ad0565b634e487b7160e01b5f52603260045260245ffd5b5f8060408385031215611b1c575f80fd5b611b2583611a7a565b9150611b3360208401611a7a565b90509250929050565b601f821115611b8357805f5260205f20601f840160051c81016020851015611b615750805b601f840160051c820191505b81811015611b80575f8155600101611b6d565b50505b505050565b818103611b93575050565b611b9d8254611a42565b67ffffffffffffffff811115611bb557611bb5611739565b611bc981611bc38454611a42565b84611b3c565b5f601f821160018114611bfd575f8315611be35750848201545b600184901b5f19600386901b1c198216175b855550611b80565b5f8581526020808220868352908220601f198616925b83811015611c335782860154825560019586019590910190602001611c13565b5085831015611c5057818501545f19600388901b60f8161c191681555b5050505050600190811b01905550565b634e487b7160e01b5f52603160045260245ffd5b5f81611c8257611c82611ad0565b505f190190565b815167ffffffffffffffff811115611ca357611ca3611739565b611cb181611bc38454611a42565b6020601f821160018114611ce1575f8315611be3575081850151600184901b5f19600386901b1c19821617611bf5565b5f84815260208120601f198516915b82811015611d105787850151825560209485019460019092019101611cf0565b5084821015611d2d57868401515f19600387901b60f8161c191681555b50505050600190811b01905550565b604081525f611d4e6040830185611833565b905060018060a01b03831660208301529392505050565b6001600160e01b0319831681525f6118146004830184611a2056fea2646970667358221220199bc70030b08cf5cbcfa3a8d6e8517e392cc67cd8f97ab5f11f4b36e982adae64736f6c634300081a0033",
			"opcodes": "PUSH1 0x80 PUSH1 0x40 MSTORE CALLVALUE DUP1 ISZERO PUSH1 0xE JUMPI PUSH0 DUP1 REVERT JUMPDEST POP PUSH1 0x1 PUSH0 DUP2 SWAP1 SSTORE DUP1 SLOAD PUSH1 0x1 PUSH1 0x1 PUSH1 0xA0 SHL SUB NOT AND CALLER OR SWAP1 SSTORE PUSH2 0x1DB6 DUP1 PUSH2 0x32 PUSH0 CODECOPY PUSH0 RETURN INVALID PUSH1 0x80 PUSH1 0x40 MSTORE CALLVALUE DUP1 ISZERO PUSH2 0xF JUMPI PUSH0 DUP1 REVERT JUMPDEST POP PUSH1 0x4 CALLDATASIZE LT PUSH2 0x111 JUMPI PUSH0 CALLDATALOAD PUSH1 0xE0 SHR DUP1 PUSH4 0x80719893 GT PUSH2 0x9E JUMPI DUP1 PUSH4 0xBE6552E6 GT PUSH2 0x6E JUMPI DUP1 PUSH4 0xBE6552E6 EQ PUSH2 0x282 JUMPI DUP1 PUSH4 0xD5F39488 EQ PUSH2 0x297 JUMPI DUP1 PUSH4 0xEC4C2E5D EQ PUSH2 0x2AA JUMPI DUP1 PUSH4 0xEEBED3A7 EQ PUSH2 0x2B2 JUMPI DUP1 PUSH4 0xFBE332DC EQ PUSH2 0x2C5 JUMPI PUSH0 DUP1 REVERT JUMPDEST DUP1 PUSH4 0x80719893 EQ PUSH2 0x240 JUMPI DUP1 PUSH4 0xA791EDF8 EQ PUSH2 0x253 JUMPI DUP1 PUSH4 0xA7FEE722 EQ PUSH2 0x266 JUMPI DUP1 PUSH4 0xBC5AEF90 EQ PUSH2 0x279 JUMPI PUSH0 DUP1 REVERT JUMPDEST DUP1 PUSH4 0x22418460 GT PUSH2 0xE4 JUMPI DUP1 PUSH4 0x22418460 EQ PUSH2 0x1A6 JUMPI DUP1 PUSH4 0x29D5DE01 EQ PUSH2 0x1D1 JUMPI DUP1 PUSH4 0x2CF1366B EQ PUSH2 0x205 JUMPI DUP1 PUSH4 0x6E5ECDFF EQ PUSH2 0x225 JUMPI DUP1 PUSH4 0x7B022FA2 EQ PUSH2 0x22D JUMPI PUSH0 DUP1 REVERT JUMPDEST DUP1 PUSH4 0xBCFC717 EQ PUSH2 0x115 JUMPI DUP1 PUSH4 0x12C0C8C0 EQ PUSH2 0x12A JUMPI DUP1 PUSH4 0x16C1076F EQ PUSH2 0x168 JUMPI DUP1 PUSH4 0x1A83F4A3 EQ PUSH2 0x17B JUMPI JUMPDEST PUSH0 DUP1 REVERT JUMPDEST PUSH2 0x128 PUSH2 0x123 CALLDATASIZE PUSH1 0x4 PUSH2 0x171E JUMP JUMPDEST PUSH2 0x2D8 JUMP JUMPDEST STOP JUMPDEST PUSH2 0x155 PUSH2 0x138 CALLDATASIZE PUSH1 0x4 PUSH2 0x17E2 JUMP JUMPDEST DUP1 MLOAD PUSH1 0x20 DUP2 DUP4 ADD DUP2 ADD DUP1 MLOAD PUSH1 0x7 DUP3 MSTORE SWAP3 DUP3 ADD SWAP2 SWAP1 SWAP4 ADD KECCAK256 SWAP2 MSTORE SLOAD DUP2 JUMP JUMPDEST PUSH1 0x40 MLOAD SWAP1 DUP2 MSTORE PUSH1 0x20 ADD JUMPDEST PUSH1 0x40 MLOAD DUP1 SWAP2 SUB SWAP1 RETURN JUMPDEST PUSH2 0x128 PUSH2 0x176 CALLDATASIZE PUSH1 0x4 PUSH2 0x171E JUMP JUMPDEST PUSH2 0x3A4 JUMP JUMPDEST PUSH2 0x155 PUSH2 0x189 CALLDATASIZE PUSH1 0x4 PUSH2 0x17E2 JUMP JUMPDEST DUP1 MLOAD PUSH1 0x20 DUP2 DUP4 ADD DUP2 ADD DUP1 MLOAD PUSH1 0x5 DUP3 MSTORE SWAP3 DUP3 ADD SWAP2 SWAP1 SWAP4 ADD KECCAK256 SWAP2 MSTORE SLOAD DUP2 JUMP JUMPDEST PUSH2 0x1B9 PUSH2 0x1B4 CALLDATASIZE PUSH1 0x4 PUSH2 0x17E2 JUMP JUMPDEST PUSH2 0x4EC JUMP JUMPDEST PUSH1 0x40 MLOAD PUSH1 0x1 PUSH1 0x1 PUSH1 0xA0 SHL SUB SWAP1 SWAP2 AND DUP2 MSTORE PUSH1 0x20 ADD PUSH2 0x15F JUMP JUMPDEST PUSH2 0x1B9 PUSH2 0x1DF CALLDATASIZE PUSH1 0x4 PUSH2 0x17E2 JUMP JUMPDEST DUP1 MLOAD PUSH1 0x20 DUP2 DUP4 ADD DUP2 ADD DUP1 MLOAD PUSH1 0x3 DUP3 MSTORE SWAP3 DUP3 ADD SWAP2 SWAP1 SWAP4 ADD KECCAK256 SWAP2 MSTORE SLOAD PUSH1 0x1 PUSH1 0x1 PUSH1 0xA0 SHL SUB AND DUP2 JUMP JUMPDEST PUSH2 0x218 PUSH2 0x213 CALLDATASIZE PUSH1 0x4 PUSH2 0x181C JUMP JUMPDEST PUSH2 0x5AD JUMP JUMPDEST PUSH1 0x40 MLOAD PUSH2 0x15F SWAP2 SWAP1 PUSH2 0x1861 JUMP JUMPDEST PUSH2 0x128 PUSH2 0x653 JUMP JUMPDEST PUSH2 0x218 PUSH2 0x23B CALLDATASIZE PUSH1 0x4 PUSH2 0x181C JUMP JUMPDEST PUSH2 0xE68 JUMP JUMPDEST PUSH2 0x128 PUSH2 0x24E CALLDATASIZE PUSH1 0x4 PUSH2 0x1873 JUMP JUMPDEST PUSH2 0xE77 JUMP JUMPDEST PUSH1 0x2 SLOAD PUSH2 0x1B9 SWAP1 PUSH1 0x1 PUSH1 0x1 PUSH1 0xA0 SHL SUB AND DUP2 JUMP JUMPDEST PUSH2 0x218 PUSH2 0x274 CALLDATASIZE PUSH1 0x4 PUSH2 0x18C2 JUMP JUMPDEST PUSH2 0x108A JUMP JUMPDEST PUSH2 0x155 PUSH1 0x9 SLOAD DUP2 JUMP JUMPDEST PUSH2 0x28A PUSH2 0x10C7 JUMP JUMPDEST PUSH1 0x40 MLOAD PUSH2 0x15F SWAP2 SWAP1 PUSH2 0x1963 JUMP JUMPDEST PUSH1 0x1 SLOAD PUSH2 0x1B9 SWAP1 PUSH1 0x1 PUSH1 0x1 PUSH1 0xA0 SHL SUB AND DUP2 JUMP JUMPDEST PUSH2 0x28A PUSH2 0x119B JUMP JUMPDEST PUSH2 0x218 PUSH2 0x2C0 CALLDATASIZE PUSH1 0x4 PUSH2 0x181C JUMP JUMPDEST PUSH2 0x1266 JUMP JUMPDEST PUSH2 0x128 PUSH2 0x2D3 CALLDATASIZE PUSH1 0x4 PUSH2 0x1873 JUMP JUMPDEST PUSH2 0x1275 JUMP JUMPDEST PUSH2 0x2E0 PUSH2 0x1487 JUMP JUMPDEST PUSH1 0x1 SLOAD PUSH1 0x1 PUSH1 0x1 PUSH1 0xA0 SHL SUB AND CALLER EQ PUSH2 0x352 JUMPI PUSH1 0x40 MLOAD PUSH3 0x461BCD PUSH1 0xE5 SHL DUP2 MSTORE PUSH1 0x20 PUSH1 0x4 DUP3 ADD MSTORE PUSH1 0x2A PUSH1 0x24 DUP3 ADD MSTORE PUSH32 0x7468652073656E6465722077617320657870656374656420746F206265207468 PUSH1 0x44 DUP3 ADD MSTORE PUSH10 0x32903232B83637BCB2B9 PUSH1 0xB1 SHL PUSH1 0x64 DUP3 ADD MSTORE PUSH1 0x84 ADD JUMPDEST PUSH1 0x40 MLOAD DUP1 SWAP2 SUB SWAP1 REVERT JUMPDEST PUSH1 0x2 DUP1 SLOAD PUSH1 0x1 PUSH1 0x1 PUSH1 0xA0 SHL SUB NOT AND PUSH1 0x1 PUSH1 0x1 PUSH1 0xA0 SHL SUB DUP4 AND SWAP1 DUP2 OR SWAP1 SWAP2 SSTORE PUSH1 0x40 MLOAD PUSH32 0xA16907E9030F7A27DD100153173E6B01401F940D851E6F7095937F2773E561B2 SWAP1 PUSH0 SWAP1 LOG2 PUSH2 0x3A1 PUSH1 0x1 PUSH0 SSTORE JUMP JUMPDEST POP JUMP JUMPDEST PUSH2 0x3AC PUSH2 0x1487 JUMP JUMPDEST PUSH1 0x9 SLOAD ISZERO PUSH2 0x412 JUMPI PUSH1 0x40 MLOAD PUSH3 0x461BCD PUSH1 0xE5 SHL DUP2 MSTORE PUSH1 0x20 PUSH1 0x4 DUP3 ADD MSTORE PUSH1 0x2D PUSH1 0x24 DUP3 ADD MSTORE PUSH32 0x746865726520697320616C726561647920612070656E64696E67207570677261 PUSH1 0x44 DUP3 ADD MSTORE PUSH13 0x646520696E2070726F63657373 PUSH1 0x98 SHL PUSH1 0x64 DUP3 ADD MSTORE PUSH1 0x84 ADD PUSH2 0x349 JUMP JUMPDEST PUSH1 0x2 SLOAD PUSH1 0x1 PUSH1 0x1 PUSH1 0xA0 SHL SUB AND PUSH2 0x43A JUMPI PUSH1 0x40 MLOAD PUSH3 0x461BCD PUSH1 0xE5 SHL DUP2 MSTORE PUSH1 0x4 ADD PUSH2 0x349 SWAP1 PUSH2 0x19C6 JUMP JUMPDEST PUSH1 0x2 SLOAD PUSH1 0x40 MLOAD PUSH4 0x16C1076F PUSH1 0xE0 SHL DUP2 MSTORE PUSH1 0x1 PUSH1 0x1 PUSH1 0xA0 SHL SUB DUP4 DUP2 AND PUSH1 0x4 DUP4 ADD MSTORE PUSH0 SWAP3 AND SWAP1 PUSH4 0x16C1076F SWAP1 PUSH1 0x24 ADD PUSH1 0x20 PUSH1 0x40 MLOAD DUP1 DUP4 SUB DUP2 PUSH0 DUP8 GAS CALL ISZERO DUP1 ISZERO PUSH2 0x483 JUMPI RETURNDATASIZE PUSH0 DUP1 RETURNDATACOPY RETURNDATASIZE PUSH0 REVERT JUMPDEST POP POP POP POP PUSH1 0x40 MLOAD RETURNDATASIZE PUSH1 0x1F NOT PUSH1 0x1F DUP3 ADD AND DUP3 ADD DUP1 PUSH1 0x40 MSTORE POP DUP2 ADD SWAP1 PUSH2 0x4A7 SWAP2 SWAP1 PUSH2 0x1A09 JUMP JUMPDEST PUSH1 0x9 DUP2 SWAP1 SSTORE PUSH1 0x40 MLOAD SWAP1 SWAP2 POP PUSH1 0x1 PUSH1 0x1 PUSH1 0xA0 SHL SUB DUP4 AND SWAP1 PUSH32 0x130BF33540470B3A07F23B1164785A20ACD90A150A4A00E976740C8F941C71DB SWAP1 PUSH0 SWAP1 LOG2 POP PUSH2 0x3A1 PUSH1 0x1 PUSH0 SSTORE JUMP JUMPDEST PUSH0 DUP1 PUSH1 0x1 PUSH1 0x1 PUSH1 0xA0 SHL SUB AND PUSH1 0x3 DUP4 PUSH1 0x40 MLOAD PUSH2 0x507 SWAP2 SWAP1 PUSH2 0x1A37 JUMP JUMPDEST SWAP1 DUP2 MSTORE PUSH1 0x40 MLOAD SWAP1 DUP2 SWAP1 SUB PUSH1 0x20 ADD SWAP1 KECCAK256 SLOAD PUSH1 0x1 PUSH1 0x1 PUSH1 0xA0 SHL SUB AND SUB PUSH2 0x57E JUMPI PUSH1 0x40 MLOAD PUSH3 0x461BCD PUSH1 0xE5 SHL DUP2 MSTORE PUSH1 0x20 PUSH1 0x4 DUP3 ADD MSTORE PUSH1 0x28 PUSH1 0x24 DUP3 ADD MSTORE PUSH32 0x746865206B657920646F6573204E4F5420706F696E7420746F20616E79206465 PUSH1 0x44 DUP3 ADD MSTORE PUSH8 0x70656E64656E6379 PUSH1 0xC0 SHL PUSH1 0x64 DUP3 ADD MSTORE PUSH1 0x84 ADD PUSH2 0x349 JUMP JUMPDEST PUSH1 0x3 DUP3 PUSH1 0x40 MLOAD PUSH2 0x58E SWAP2 SWAP1 PUSH2 0x1A37 JUMP JUMPDEST SWAP1 DUP2 MSTORE PUSH1 0x40 MLOAD SWAP1 DUP2 SWAP1 SUB PUSH1 0x20 ADD SWAP1 KECCAK256 SLOAD PUSH1 0x1 PUSH1 0x1 PUSH1 0xA0 SHL SUB AND SWAP3 SWAP2 POP POP JUMP JUMPDEST PUSH1 0x8 DUP2 DUP2 SLOAD DUP2 LT PUSH2 0x5BC JUMPI PUSH0 DUP1 REVERT JUMPDEST SWAP1 PUSH0 MSTORE PUSH1 0x20 PUSH0 KECCAK256 ADD PUSH0 SWAP2 POP SWAP1 POP DUP1 SLOAD PUSH2 0x5D4 SWAP1 PUSH2 0x1A42 JUMP JUMPDEST DUP1 PUSH1 0x1F ADD PUSH1 0x20 DUP1 SWAP2 DIV MUL PUSH1 0x20 ADD PUSH1 0x40 MLOAD SWAP1 DUP2 ADD PUSH1 0x40 MSTORE DUP1 SWAP3 SWAP2 SWAP1 DUP2 DUP2 MSTORE PUSH1 0x20 ADD DUP3 DUP1 SLOAD PUSH2 0x600 SWAP1 PUSH2 0x1A42 JUMP JUMPDEST DUP1 ISZERO PUSH2 0x64B JUMPI DUP1 PUSH1 0x1F LT PUSH2 0x622 JUMPI PUSH2 0x100 DUP1 DUP4 SLOAD DIV MUL DUP4 MSTORE SWAP2 PUSH1 0x20 ADD SWAP2 PUSH2 0x64B JUMP JUMPDEST DUP3 ADD SWAP2 SWAP1 PUSH0 MSTORE PUSH1 0x20 PUSH0 KECCAK256 SWAP1 JUMPDEST DUP2 SLOAD DUP2 MSTORE SWAP1 PUSH1 0x1 ADD SWAP1 PUSH1 0x20 ADD DUP1 DUP4 GT PUSH2 0x62E JUMPI DUP3 SWAP1 SUB PUSH1 0x1F AND DUP3 ADD SWAP2 JUMPDEST POP POP POP POP POP DUP2 JUMP JUMPDEST PUSH2 0x65B PUSH2 0x1487 JUMP JUMPDEST PUSH1 0x2 SLOAD PUSH1 0x1 PUSH1 0x1 PUSH1 0xA0 SHL SUB AND PUSH2 0x683 JUMPI PUSH1 0x40 MLOAD PUSH3 0x461BCD PUSH1 0xE5 SHL DUP2 MSTORE PUSH1 0x4 ADD PUSH2 0x349 SWAP1 PUSH2 0x19C6 JUMP JUMPDEST PUSH1 0x9 SLOAD ISZERO PUSH2 0x79A JUMPI PUSH1 0x2 SLOAD PUSH1 0x9 SLOAD PUSH1 0x40 MLOAD PUSH4 0x156A8DCB PUSH1 0xE1 SHL DUP2 MSTORE PUSH1 0x4 DUP2 ADD SWAP2 SWAP1 SWAP2 MSTORE PUSH0 SWAP2 DUP3 SWAP2 DUP3 SWAP2 PUSH1 0x1 PUSH1 0x1 PUSH1 0xA0 SHL SUB AND SWAP1 PUSH4 0x2AD51B96 SWAP1 PUSH1 0x24 ADD PUSH1 0x60 PUSH1 0x40 MLOAD DUP1 DUP4 SUB DUP2 DUP7 GAS STATICCALL ISZERO DUP1 ISZERO PUSH2 0x6DA JUMPI RETURNDATASIZE PUSH0 DUP1 RETURNDATACOPY RETURNDATASIZE PUSH0 REVERT JUMPDEST POP POP POP POP PUSH1 0x40 MLOAD RETURNDATASIZE PUSH1 0x1F NOT PUSH1 0x1F DUP3 ADD AND DUP3 ADD DUP1 PUSH1 0x40 MSTORE POP DUP2 ADD SWAP1 PUSH2 0x6FE SWAP2 SWAP1 PUSH2 0x1A8E JUMP JUMPDEST SWAP3 POP SWAP3 POP SWAP3 POP DUP2 ISZERO PUSH2 0x70F JUMPI PUSH0 PUSH1 0x9 SSTORE JUMPDEST DUP2 DUP1 ISZERO PUSH2 0x719 JUMPI POP DUP1 JUMPDEST ISZERO PUSH2 0x752 JUMPI PUSH1 0x40 MLOAD PUSH1 0x1 PUSH1 0x1 PUSH1 0xA0 SHL SUB DUP5 AND SWAP1 PUSH32 0xE00A5B97742635032504F47F4C4AE13F19DE32BAB9DB317D70CB5820CCE02935 SWAP1 PUSH0 SWAP1 LOG2 JUMPDEST DUP2 DUP1 ISZERO PUSH2 0x75D JUMPI POP DUP1 ISZERO JUMPDEST ISZERO PUSH2 0x796 JUMPI PUSH1 0x40 MLOAD PUSH1 0x1 PUSH1 0x1 PUSH1 0xA0 SHL SUB DUP5 AND SWAP1 PUSH32 0x563BB4859F75835D1CD4855F062E12DB76CC064572739370C11B20510E382D5B SWAP1 PUSH0 SWAP1 LOG2 JUMPDEST POP POP POP JUMPDEST PUSH1 0x8 SLOAD ISZERO PUSH2 0xB24 JUMPI PUSH1 0x8 SLOAD JUMPDEST DUP1 ISZERO PUSH2 0xB22 JUMPI PUSH0 PUSH2 0x7B8 PUSH1 0x1 DUP4 PUSH2 0x1AE4 JUMP JUMPDEST SWAP1 POP PUSH0 PUSH1 0x8 DUP3 DUP2 SLOAD DUP2 LT PUSH2 0x7CE JUMPI PUSH2 0x7CE PUSH2 0x1AF7 JUMP JUMPDEST SWAP1 PUSH0 MSTORE PUSH1 0x20 PUSH0 KECCAK256 ADD DUP1 SLOAD PUSH2 0x7E1 SWAP1 PUSH2 0x1A42 JUMP JUMPDEST DUP1 PUSH1 0x1F ADD PUSH1 0x20 DUP1 SWAP2 DIV MUL PUSH1 0x20 ADD PUSH1 0x40 MLOAD SWAP1 DUP2 ADD PUSH1 0x40 MSTORE DUP1 SWAP3 SWAP2 SWAP1 DUP2 DUP2 MSTORE PUSH1 0x20 ADD DUP3 DUP1 SLOAD PUSH2 0x80D SWAP1 PUSH2 0x1A42 JUMP JUMPDEST DUP1 ISZERO PUSH2 0x858 JUMPI DUP1 PUSH1 0x1F LT PUSH2 0x82F JUMPI PUSH2 0x100 DUP1 DUP4 SLOAD DIV MUL DUP4 MSTORE SWAP2 PUSH1 0x20 ADD SWAP2 PUSH2 0x858 JUMP JUMPDEST DUP3 ADD SWAP2 SWAP1 PUSH0 MSTORE PUSH1 0x20 PUSH0 KECCAK256 SWAP1 JUMPDEST DUP2 SLOAD DUP2 MSTORE SWAP1 PUSH1 0x1 ADD SWAP1 PUSH1 0x20 ADD DUP1 DUP4 GT PUSH2 0x83B JUMPI DUP3 SWAP1 SUB PUSH1 0x1F AND DUP3 ADD SWAP2 JUMPDEST POP POP POP POP POP SWAP1 POP PUSH0 PUSH1 0x7 DUP3 PUSH1 0x40 MLOAD PUSH2 0x870 SWAP2 SWAP1 PUSH2 0x1A37 JUMP JUMPDEST SWAP1 DUP2 MSTORE PUSH1 0x40 MLOAD SWAP1 DUP2 SWAP1 SUB PUSH1 0x20 ADD DUP2 KECCAK256 SLOAD PUSH1 0x2 SLOAD PUSH4 0xB986F179 PUSH1 0xE0 SHL DUP4 MSTORE SWAP1 SWAP3 POP PUSH0 SWAP2 DUP3 SWAP2 PUSH1 0x1 PUSH1 0x1 PUSH1 0xA0 SHL SUB AND SWAP1 PUSH4 0xB986F179 SWAP1 PUSH2 0x8B6 SWAP1 DUP7 SWAP1 PUSH1 0x4 ADD SWAP1 DUP2 MSTORE PUSH1 0x20 ADD SWAP1 JUMP JUMPDEST PUSH1 0x40 DUP1 MLOAD DUP1 DUP4 SUB DUP2 DUP7 GAS STATICCALL ISZERO DUP1 ISZERO PUSH2 0x8D0 JUMPI RETURNDATASIZE PUSH0 DUP1 RETURNDATACOPY RETURNDATASIZE PUSH0 REVERT JUMPDEST POP POP POP POP PUSH1 0x40 MLOAD RETURNDATASIZE PUSH1 0x1F NOT PUSH1 0x1F DUP3 ADD AND DUP3 ADD DUP1 PUSH1 0x40 MSTORE POP DUP2 ADD SWAP1 PUSH2 0x8F4 SWAP2 SWAP1 PUSH2 0x1B0B JUMP JUMPDEST SWAP2 POP SWAP2 POP DUP2 PUSH2 0x907 JUMPI POP POP POP POP POP PUSH2 0xB10 JUMP JUMPDEST PUSH0 PUSH1 0x3 DUP6 PUSH1 0x40 MLOAD PUSH2 0x918 SWAP2 SWAP1 PUSH2 0x1A37 JUMP JUMPDEST SWAP1 DUP2 MSTORE PUSH1 0x40 MLOAD SWAP1 DUP2 SWAP1 SUB PUSH1 0x20 ADD SWAP1 KECCAK256 SLOAD PUSH1 0x1 PUSH1 0x1 PUSH1 0xA0 SHL SUB AND SWAP1 POP DUP2 ISZERO PUSH2 0xA24 JUMPI PUSH1 0x3 DUP6 PUSH1 0x40 MLOAD PUSH2 0x949 SWAP2 SWAP1 PUSH2 0x1A37 JUMP JUMPDEST SWAP1 DUP2 MSTORE PUSH1 0x40 MLOAD SWAP1 DUP2 SWAP1 SUB PUSH1 0x20 ADD SWAP1 KECCAK256 DUP1 SLOAD PUSH1 0x1 PUSH1 0x1 PUSH1 0xA0 SHL SUB NOT AND SWAP1 SSTORE PUSH1 0x4 DUP1 SLOAD PUSH2 0x976 SWAP1 PUSH1 0x1 SWAP1 PUSH2 0x1AE4 JUMP JUMPDEST DUP2 SLOAD DUP2 LT PUSH2 0x986 JUMPI PUSH2 0x986 PUSH2 0x1AF7 JUMP JUMPDEST SWAP1 PUSH0 MSTORE PUSH1 0x20 PUSH0 KECCAK256 ADD PUSH1 0x4 DUP8 DUP2 SLOAD DUP2 LT PUSH2 0x9A1 JUMPI PUSH2 0x9A1 PUSH2 0x1AF7 JUMP JUMPDEST SWAP1 PUSH0 MSTORE PUSH1 0x20 PUSH0 KECCAK256 ADD SWAP1 DUP2 PUSH2 0x9B5 SWAP2 SWAP1 PUSH2 0x1B88 JUMP JUMPDEST POP PUSH1 0x4 DUP1 SLOAD DUP1 PUSH2 0x9C7 JUMPI PUSH2 0x9C7 PUSH2 0x1C60 JUMP JUMPDEST PUSH1 0x1 SWAP1 SUB DUP2 DUP2 SWAP1 PUSH0 MSTORE PUSH1 0x20 PUSH0 KECCAK256 ADD PUSH0 PUSH2 0x9E0 SWAP2 SWAP1 PUSH2 0x16C0 JUMP JUMPDEST SWAP1 SSTORE DUP1 PUSH1 0x1 PUSH1 0x1 PUSH1 0xA0 SHL SUB AND PUSH32 0x82AA94D0384F3FE5D924376CF325AFCFF8195F30F42758AE710193C432F24AC1 DUP7 PUSH1 0x40 MLOAD PUSH2 0xA1B SWAP2 SWAP1 PUSH2 0x1861 JUMP JUMPDEST PUSH1 0x40 MLOAD DUP1 SWAP2 SUB SWAP1 LOG2 JUMPDEST DUP2 PUSH2 0xA6B JUMPI DUP1 PUSH1 0x1 PUSH1 0x1 PUSH1 0xA0 SHL SUB AND PUSH32 0x402A83BDAD8CEF946824820B268607AEC7303DE64E88533B0BD7EE57A577B954 DUP7 PUSH1 0x40 MLOAD PUSH2 0xA62 SWAP2 SWAP1 PUSH2 0x1861 JUMP JUMPDEST PUSH1 0x40 MLOAD DUP1 SWAP2 SUB SWAP1 LOG2 JUMPDEST PUSH1 0x7 DUP6 PUSH1 0x40 MLOAD PUSH2 0xA7B SWAP2 SWAP1 PUSH2 0x1A37 JUMP JUMPDEST SWAP1 DUP2 MSTORE PUSH1 0x40 MLOAD SWAP1 DUP2 SWAP1 SUB PUSH1 0x20 ADD SWAP1 KECCAK256 PUSH0 SWAP1 SSTORE PUSH1 0x8 DUP1 SLOAD PUSH2 0xA9D SWAP1 PUSH1 0x1 SWAP1 PUSH2 0x1AE4 JUMP JUMPDEST DUP2 SLOAD DUP2 LT PUSH2 0xAAD JUMPI PUSH2 0xAAD PUSH2 0x1AF7 JUMP JUMPDEST SWAP1 PUSH0 MSTORE PUSH1 0x20 PUSH0 KECCAK256 ADD PUSH1 0x8 DUP8 DUP2 SLOAD DUP2 LT PUSH2 0xAC8 JUMPI PUSH2 0xAC8 PUSH2 0x1AF7 JUMP JUMPDEST SWAP1 PUSH0 MSTORE PUSH1 0x20 PUSH0 KECCAK256 ADD SWAP1 DUP2 PUSH2 0xADC SWAP2 SWAP1 PUSH2 0x1B88 JUMP JUMPDEST POP PUSH1 0x8 DUP1 SLOAD DUP1 PUSH2 0xAEE JUMPI PUSH2 0xAEE PUSH2 0x1C60 JUMP JUMPDEST PUSH1 0x1 SWAP1 SUB DUP2 DUP2 SWAP1 PUSH0 MSTORE PUSH1 0x20 PUSH0 KECCAK256 ADD PUSH0 PUSH2 0xB07 SWAP2 SWAP1 PUSH2 0x16C0 JUMP JUMPDEST SWAP1 SSTORE POP POP POP POP POP POP JUMPDEST DUP1 PUSH2 0xB1A DUP2 PUSH2 0x1C74 JUMP JUMPDEST SWAP2 POP POP PUSH2 0x7A6 JUMP JUMPDEST POP JUMPDEST PUSH1 0x6 SLOAD ISZERO PUSH2 0xE5D JUMPI PUSH1 0x6 SLOAD JUMPDEST DUP1 ISZERO PUSH2 0xE5B JUMPI PUSH0 PUSH2 0xB42 PUSH1 0x1 DUP4 PUSH2 0x1AE4 JUMP JUMPDEST SWAP1 POP PUSH0 PUSH1 0x6 DUP3 DUP2 SLOAD DUP2 LT PUSH2 0xB58 JUMPI PUSH2 0xB58 PUSH2 0x1AF7 JUMP JUMPDEST SWAP1 PUSH0 MSTORE PUSH1 0x20 PUSH0 KECCAK256 ADD DUP1 SLOAD PUSH2 0xB6B SWAP1 PUSH2 0x1A42 JUMP JUMPDEST DUP1 PUSH1 0x1F ADD PUSH1 0x20 DUP1 SWAP2 DIV MUL PUSH1 0x20 ADD PUSH1 0x40 MLOAD SWAP1 DUP2 ADD PUSH1 0x40 MSTORE DUP1 SWAP3 SWAP2 SWAP1 DUP2 DUP2 MSTORE PUSH1 0x20 ADD DUP3 DUP1 SLOAD PUSH2 0xB97 SWAP1 PUSH2 0x1A42 JUMP JUMPDEST DUP1 ISZERO PUSH2 0xBE2 JUMPI DUP1 PUSH1 0x1F LT PUSH2 0xBB9 JUMPI PUSH2 0x100 DUP1 DUP4 SLOAD DIV MUL DUP4 MSTORE SWAP2 PUSH1 0x20 ADD SWAP2 PUSH2 0xBE2 JUMP JUMPDEST DUP3 ADD SWAP2 SWAP1 PUSH0 MSTORE PUSH1 0x20 PUSH0 KECCAK256 SWAP1 JUMPDEST DUP2 SLOAD DUP2 MSTORE SWAP1 PUSH1 0x1 ADD SWAP1 PUSH1 0x20 ADD DUP1 DUP4 GT PUSH2 0xBC5 JUMPI DUP3 SWAP1 SUB PUSH1 0x1F AND DUP3 ADD SWAP2 JUMPDEST POP POP POP POP POP SWAP1 POP PUSH0 PUSH1 0x5 DUP3 PUSH1 0x40 MLOAD PUSH2 0xBFA SWAP2 SWAP1 PUSH2 0x1A37 JUMP JUMPDEST SWAP1 DUP2 MSTORE PUSH1 0x40 MLOAD SWAP1 DUP2 SWAP1 SUB PUSH1 0x20 ADD DUP2 KECCAK256 SLOAD PUSH1 0x2 SLOAD PUSH4 0x4F6E1B27 PUSH1 0xE0 SHL DUP4 MSTORE SWAP1 SWAP3 POP PUSH0 SWAP2 DUP3 SWAP2 DUP3 SWAP2 PUSH1 0x1 PUSH1 0x1 PUSH1 0xA0 SHL SUB SWAP1 SWAP2 AND SWAP1 PUSH4 0x4F6E1B27 SWAP1 PUSH2 0xC44 SWAP1 DUP8 SWAP1 PUSH1 0x4 ADD SWAP1 DUP2 MSTORE PUSH1 0x20 ADD SWAP1 JUMP JUMPDEST PUSH1 0x60 PUSH1 0x40 MLOAD DUP1 DUP4 SUB DUP2 DUP7 GAS STATICCALL ISZERO DUP1 ISZERO PUSH2 0xC5F JUMPI RETURNDATASIZE PUSH0 DUP1 RETURNDATACOPY RETURNDATASIZE PUSH0 REVERT JUMPDEST POP POP POP POP PUSH1 0x40 MLOAD RETURNDATASIZE PUSH1 0x1F NOT PUSH1 0x1F DUP3 ADD AND DUP3 ADD DUP1 PUSH1 0x40 MSTORE POP DUP2 ADD SWAP1 PUSH2 0xC83 SWAP2 SWAP1 PUSH2 0x1A8E JUMP JUMPDEST SWAP3 POP SWAP3 POP SWAP3 POP DUP2 PUSH2 0xC99 JUMPI POP POP POP POP POP POP PUSH2 0xE49 JUMP JUMPDEST DUP1 ISZERO PUSH2 0xD5D JUMPI DUP3 PUSH1 0x3 DUP7 PUSH1 0x40 MLOAD PUSH2 0xCB0 SWAP2 SWAP1 PUSH2 0x1A37 JUMP JUMPDEST SWAP1 DUP2 MSTORE PUSH1 0x40 MLOAD SWAP1 DUP2 SWAP1 SUB PUSH1 0x20 ADD SWAP1 KECCAK256 DUP1 SLOAD PUSH1 0x1 PUSH1 0x1 PUSH1 0xA0 SHL SUB SWAP3 SWAP1 SWAP3 AND PUSH1 0x1 PUSH1 0x1 PUSH1 0xA0 SHL SUB NOT SWAP1 SWAP3 AND SWAP2 SWAP1 SWAP2 OR SWAP1 SSTORE PUSH1 0x4 DUP1 SLOAD PUSH1 0x1 DUP2 ADD DUP3 SSTORE PUSH0 SWAP2 SWAP1 SWAP2 MSTORE PUSH32 0x8A35ACFBC15FF81A39AE7D344FD709F28E8600B4AA8C65C6B64BFE7FE36BD19B ADD PUSH2 0xD1A DUP7 DUP3 PUSH2 0x1C89 JUMP JUMPDEST POP DUP3 PUSH1 0x1 PUSH1 0x1 PUSH1 0xA0 SHL SUB AND PUSH32 0x8281F4653EA8E6BA47F1EBEEB1C7E17291003D7E8247666D4D1C46124920BFE6 DUP7 PUSH1 0x40 MLOAD PUSH2 0xD54 SWAP2 SWAP1 PUSH2 0x1861 JUMP JUMPDEST PUSH1 0x40 MLOAD DUP1 SWAP2 SUB SWAP1 LOG2 JUMPDEST DUP1 PUSH2 0xDA4 JUMPI DUP3 PUSH1 0x1 PUSH1 0x1 PUSH1 0xA0 SHL SUB AND PUSH32 0xC4425EBA3FDC6AAF1C08B8892B7B7B5FDCA047F984A94148A7C547E0FAAC2BD3 DUP7 PUSH1 0x40 MLOAD PUSH2 0xD9B SWAP2 SWAP1 PUSH2 0x1861 JUMP JUMPDEST PUSH1 0x40 MLOAD DUP1 SWAP2 SUB SWAP1 LOG2 JUMPDEST PUSH1 0x5 DUP6 PUSH1 0x40 MLOAD PUSH2 0xDB4 SWAP2 SWAP1 PUSH2 0x1A37 JUMP JUMPDEST SWAP1 DUP2 MSTORE PUSH1 0x40 MLOAD SWAP1 DUP2 SWAP1 SUB PUSH1 0x20 ADD SWAP1 KECCAK256 PUSH0 SWAP1 SSTORE PUSH1 0x6 DUP1 SLOAD PUSH2 0xDD6 SWAP1 PUSH1 0x1 SWAP1 PUSH2 0x1AE4 JUMP JUMPDEST DUP2 SLOAD DUP2 LT PUSH2 0xDE6 JUMPI PUSH2 0xDE6 PUSH2 0x1AF7 JUMP JUMPDEST SWAP1 PUSH0 MSTORE PUSH1 0x20 PUSH0 KECCAK256 ADD PUSH1 0x6 DUP8 DUP2 SLOAD DUP2 LT PUSH2 0xE01 JUMPI PUSH2 0xE01 PUSH2 0x1AF7 JUMP JUMPDEST SWAP1 PUSH0 MSTORE PUSH1 0x20 PUSH0 KECCAK256 ADD SWAP1 DUP2 PUSH2 0xE15 SWAP2 SWAP1 PUSH2 0x1B88 JUMP JUMPDEST POP PUSH1 0x6 DUP1 SLOAD DUP1 PUSH2 0xE27 JUMPI PUSH2 0xE27 PUSH2 0x1C60 JUMP JUMPDEST PUSH1 0x1 SWAP1 SUB DUP2 DUP2 SWAP1 PUSH0 MSTORE PUSH1 0x20 PUSH0 KECCAK256 ADD PUSH0 PUSH2 0xE40 SWAP2 SWAP1 PUSH2 0x16C0 JUMP JUMPDEST SWAP1 SSTORE POP POP POP POP POP POP JUMPDEST DUP1 PUSH2 0xE53 DUP2 PUSH2 0x1C74 JUMP JUMPDEST SWAP2 POP POP PUSH2 0xB30 JUMP JUMPDEST POP JUMPDEST PUSH2 0xE66 PUSH1 0x1 PUSH0 SSTORE JUMP JUMPDEST JUMP JUMPDEST PUSH1 0x6 DUP2 DUP2 SLOAD DUP2 LT PUSH2 0x5BC JUMPI PUSH0 DUP1 REVERT JUMPDEST PUSH2 0xE7F PUSH2 0x1487 JUMP JUMPDEST PUSH1 0x2 SLOAD PUSH1 0x1 PUSH1 0x1 PUSH1 0xA0 SHL SUB AND PUSH2 0xEA7 JUMPI PUSH1 0x40 MLOAD PUSH3 0x461BCD PUSH1 0xE5 SHL DUP2 MSTORE PUSH1 0x4 ADD PUSH2 0x349 SWAP1 PUSH2 0x19C6 JUMP JUMPDEST PUSH1 0x1 PUSH1 0x1 PUSH1 0xA0 SHL SUB DUP2 AND PUSH2 0xEFD JUMPI PUSH1 0x40 MLOAD PUSH3 0x461BCD PUSH1 0xE5 SHL DUP2 MSTORE PUSH1 0x20 PUSH1 0x4 DUP3 ADD MSTORE PUSH1 0x1F PUSH1 0x24 DUP3 ADD MSTORE PUSH32 0x74686520636F6E74726163742061646472657373206973206E6F742073657400 PUSH1 0x44 DUP3 ADD MSTORE PUSH1 0x64 ADD PUSH2 0x349 JUMP JUMPDEST PUSH1 0x2 SLOAD PUSH1 0x40 MLOAD PUSH4 0xEACD1D5 PUSH1 0xE1 SHL DUP2 MSTORE PUSH0 SWAP2 PUSH1 0x1 PUSH1 0x1 PUSH1 0xA0 SHL SUB AND SWAP1 PUSH4 0x1D59A3AA SWAP1 PUSH2 0xF2F SWAP1 DUP7 SWAP1 DUP7 SWAP1 PUSH1 0x4 ADD PUSH2 0x1D3C JUMP JUMPDEST PUSH1 0x20 PUSH1 0x40 MLOAD DUP1 DUP4 SUB DUP2 PUSH0 DUP8 GAS CALL ISZERO DUP1 ISZERO PUSH2 0xF4B JUMPI RETURNDATASIZE PUSH0 DUP1 RETURNDATACOPY RETURNDATASIZE PUSH0 REVERT JUMPDEST POP POP POP POP PUSH1 0x40 MLOAD RETURNDATASIZE PUSH1 0x1F NOT PUSH1 0x1F DUP3 ADD AND DUP3 ADD DUP1 PUSH1 0x40 MSTORE POP DUP2 ADD SWAP1 PUSH2 0xF6F SWAP2 SWAP1 PUSH2 0x1A09 JUMP JUMPDEST SWAP1 POP PUSH1 0x5 DUP4 PUSH1 0x40 MLOAD PUSH2 0xF81 SWAP2 SWAP1 PUSH2 0x1A37 JUMP JUMPDEST SWAP1 DUP2 MSTORE PUSH1 0x20 ADD PUSH1 0x40 MLOAD DUP1 SWAP2 SUB SWAP1 KECCAK256 SLOAD PUSH0 EQ PUSH2 0xFDE JUMPI PUSH1 0x40 MLOAD PUSH3 0x461BCD PUSH1 0xE5 SHL DUP2 MSTORE PUSH1 0x20 PUSH1 0x4 DUP3 ADD DUP2 SWAP1 MSTORE PUSH1 0x24 DUP3 ADD MSTORE PUSH32 0x74686520646570656E64656E637920616C726561647920726571756573746564 PUSH1 0x44 DUP3 ADD MSTORE PUSH1 0x64 ADD PUSH2 0x349 JUMP JUMPDEST DUP1 PUSH1 0x5 DUP5 PUSH1 0x40 MLOAD PUSH2 0xFEF SWAP2 SWAP1 PUSH2 0x1A37 JUMP JUMPDEST SWAP1 DUP2 MSTORE PUSH1 0x40 MLOAD SWAP1 DUP2 SWAP1 SUB PUSH1 0x20 ADD SWAP1 KECCAK256 SSTORE PUSH1 0x6 DUP1 SLOAD PUSH1 0x1 DUP2 ADD DUP3 SSTORE PUSH0 SWAP2 SWAP1 SWAP2 MSTORE PUSH32 0xF652222313E28459528D920B65115C16C04F3EFC82AAEDC97BE59F3F377C0D3F ADD PUSH2 0x103A DUP5 DUP3 PUSH2 0x1C89 JUMP JUMPDEST POP DUP2 PUSH1 0x1 PUSH1 0x1 PUSH1 0xA0 SHL SUB AND PUSH32 0x7A561791A5E256AAC8E189115CA0E37A81457D0FC3FACECEB7D1C4907DD55A3A DUP5 PUSH1 0x40 MLOAD PUSH2 0x1074 SWAP2 SWAP1 PUSH2 0x1861 JUMP JUMPDEST PUSH1 0x40 MLOAD DUP1 SWAP2 SUB SWAP1 LOG2 POP PUSH2 0x1086 PUSH1 0x1 PUSH0 SSTORE JUMP JUMPDEST POP POP JUMP JUMPDEST PUSH1 0x60 PUSH2 0x1094 PUSH2 0x1487 JUMP JUMPDEST PUSH0 PUSH2 0x109E DUP6 PUSH2 0x14AF JUMP JUMPDEST DUP5 MLOAD PUSH1 0x20 DUP7 ADD KECCAK256 SWAP1 SWAP2 POP PUSH2 0x10B3 DUP3 DUP3 DUP7 PUSH2 0x1541 JUMP JUMPDEST SWAP3 POP POP POP PUSH2 0x10C0 PUSH1 0x1 PUSH0 SSTORE JUMP JUMPDEST SWAP4 SWAP3 POP POP POP JUMP JUMPDEST PUSH1 0x60 PUSH1 0x6 DUP1 SLOAD DUP1 PUSH1 0x20 MUL PUSH1 0x20 ADD PUSH1 0x40 MLOAD SWAP1 DUP2 ADD PUSH1 0x40 MSTORE DUP1 SWAP3 SWAP2 SWAP1 DUP2 DUP2 MSTORE PUSH1 0x20 ADD PUSH0 SWAP1 JUMPDEST DUP3 DUP3 LT ISZERO PUSH2 0x1192 JUMPI DUP4 DUP3 SWAP1 PUSH0 MSTORE PUSH1 0x20 PUSH0 KECCAK256 ADD DUP1 SLOAD PUSH2 0x1107 SWAP1 PUSH2 0x1A42 JUMP JUMPDEST DUP1 PUSH1 0x1F ADD PUSH1 0x20 DUP1 SWAP2 DIV MUL PUSH1 0x20 ADD PUSH1 0x40 MLOAD SWAP1 DUP2 ADD PUSH1 0x40 MSTORE DUP1 SWAP3 SWAP2 SWAP1 DUP2 DUP2 MSTORE PUSH1 0x20 ADD DUP3 DUP1 SLOAD PUSH2 0x1133 SWAP1 PUSH2 0x1A42 JUMP JUMPDEST DUP1 ISZERO PUSH2 0x117E JUMPI DUP1 PUSH1 0x1F LT PUSH2 0x1155 JUMPI PUSH2 0x100 DUP1 DUP4 SLOAD DIV MUL DUP4 MSTORE SWAP2 PUSH1 0x20 ADD SWAP2 PUSH2 0x117E JUMP JUMPDEST DUP3 ADD SWAP2 SWAP1 PUSH0 MSTORE PUSH1 0x20 PUSH0 KECCAK256 SWAP1 JUMPDEST DUP2 SLOAD DUP2 MSTORE SWAP1 PUSH1 0x1 ADD SWAP1 PUSH1 0x20 ADD DUP1 DUP4 GT PUSH2 0x1161 JUMPI DUP3 SWAP1 SUB PUSH1 0x1F AND DUP3 ADD SWAP2 JUMPDEST POP POP POP POP POP DUP2 MSTORE PUSH1 0x20 ADD SWAP1 PUSH1 0x1 ADD SWAP1 PUSH2 0x10EA JUMP JUMPDEST POP POP POP POP SWAP1 POP SWAP1 JUMP JUMPDEST PUSH1 0x60 PUSH1 0x4 DUP1 SLOAD DUP1 PUSH1 0x20 MUL PUSH1 0x20 ADD PUSH1 0x40 MLOAD SWAP1 DUP2 ADD PUSH1 0x40 MSTORE DUP1 SWAP3 SWAP2 SWAP1 DUP2 DUP2 MSTORE PUSH1 0x20 ADD PUSH0 SWAP1 JUMPDEST DUP3 DUP3 LT ISZERO PUSH2 0x1192 JUMPI DUP4 DUP3 SWAP1 PUSH0 MSTORE PUSH1 0x20 PUSH0 KECCAK256 ADD DUP1 SLOAD PUSH2 0x11DB SWAP1 PUSH2 0x1A42 JUMP JUMPDEST DUP1 PUSH1 0x1F ADD PUSH1 0x20 DUP1 SWAP2 DIV MUL PUSH1 0x20 ADD PUSH1 0x40 MLOAD SWAP1 DUP2 ADD PUSH1 0x40 MSTORE DUP1 SWAP3 SWAP2 SWAP1 DUP2 DUP2 MSTORE PUSH1 0x20 ADD DUP3 DUP1 SLOAD PUSH2 0x1207 SWAP1 PUSH2 0x1A42 JUMP JUMPDEST DUP1 ISZERO PUSH2 0x1252 JUMPI DUP1 PUSH1 0x1F LT PUSH2 0x1229 JUMPI PUSH2 0x100 DUP1 DUP4 SLOAD DIV MUL DUP4 MSTORE SWAP2 PUSH1 0x20 ADD SWAP2 PUSH2 0x1252 JUMP JUMPDEST DUP3 ADD SWAP2 SWAP1 PUSH0 MSTORE PUSH1 0x20 PUSH0 KECCAK256 SWAP1 JUMPDEST DUP2 SLOAD DUP2 MSTORE SWAP1 PUSH1 0x1 ADD SWAP1 PUSH1 0x20 ADD DUP1 DUP4 GT PUSH2 0x1235 JUMPI DUP3 SWAP1 SUB PUSH1 0x1F AND DUP3 ADD SWAP2 JUMPDEST POP POP POP POP POP DUP2 MSTORE PUSH1 0x20 ADD SWAP1 PUSH1 0x1 ADD SWAP1 PUSH2 0x11BE JUMP JUMPDEST PUSH1 0x4 DUP2 DUP2 SLOAD DUP2 LT PUSH2 0x5BC JUMPI PUSH0 DUP1 REVERT JUMPDEST PUSH2 0x127D PUSH2 0x1487 JUMP JUMPDEST PUSH1 0x2 SLOAD PUSH1 0x1 PUSH1 0x1 PUSH1 0xA0 SHL SUB AND PUSH2 0x12A5 JUMPI PUSH1 0x40 MLOAD PUSH3 0x461BCD PUSH1 0xE5 SHL DUP2 MSTORE PUSH1 0x4 ADD PUSH2 0x349 SWAP1 PUSH2 0x19C6 JUMP JUMPDEST PUSH1 0x1 PUSH1 0x1 PUSH1 0xA0 SHL SUB DUP2 AND PUSH2 0x12FB JUMPI PUSH1 0x40 MLOAD PUSH3 0x461BCD PUSH1 0xE5 SHL DUP2 MSTORE PUSH1 0x20 PUSH1 0x4 DUP3 ADD MSTORE PUSH1 0x1F PUSH1 0x24 DUP3 ADD MSTORE PUSH32 0x74686520636F6E74726163742061646472657373206973206E6F742073657400 PUSH1 0x44 DUP3 ADD MSTORE PUSH1 0x64 ADD PUSH2 0x349 JUMP JUMPDEST PUSH1 0x2 SLOAD PUSH1 0x40 MLOAD PUSH4 0x7EC4043 PUSH1 0xE0 SHL DUP2 MSTORE PUSH0 SWAP2 PUSH1 0x1 PUSH1 0x1 PUSH1 0xA0 SHL SUB AND SWAP1 PUSH4 0x7EC4043 SWAP1 PUSH2 0x132D SWAP1 DUP7 SWAP1 DUP7 SWAP1 PUSH1 0x4 ADD PUSH2 0x1D3C JUMP JUMPDEST PUSH1 0x20 PUSH1 0x40 MLOAD DUP1 DUP4 SUB DUP2 PUSH0 DUP8 GAS CALL ISZERO DUP1 ISZERO PUSH2 0x1349 JUMPI RETURNDATASIZE PUSH0 DUP1 RETURNDATACOPY RETURNDATASIZE PUSH0 REVERT JUMPDEST POP POP POP POP PUSH1 0x40 MLOAD RETURNDATASIZE PUSH1 0x1F NOT PUSH1 0x1F DUP3 ADD AND DUP3 ADD DUP1 PUSH1 0x40 MSTORE POP DUP2 ADD SWAP1 PUSH2 0x136D SWAP2 SWAP1 PUSH2 0x1A09 JUMP JUMPDEST SWAP1 POP PUSH1 0x7 DUP4 PUSH1 0x40 MLOAD PUSH2 0x137F SWAP2 SWAP1 PUSH2 0x1A37 JUMP JUMPDEST SWAP1 DUP2 MSTORE PUSH1 0x20 ADD PUSH1 0x40 MLOAD DUP1 SWAP2 SUB SWAP1 KECCAK256 SLOAD PUSH0 EQ PUSH2 0x13F1 JUMPI PUSH1 0x40 MLOAD PUSH3 0x461BCD PUSH1 0xE5 SHL DUP2 MSTORE PUSH1 0x20 PUSH1 0x4 DUP3 ADD MSTORE PUSH1 0x2C PUSH1 0x24 DUP3 ADD MSTORE PUSH32 0x74686520646570656E64656E637920616C726561647920726571756573746564 PUSH1 0x44 DUP3 ADD MSTORE PUSH12 0x8199BDC881C995B5BDD985B PUSH1 0xA2 SHL PUSH1 0x64 DUP3 ADD MSTORE PUSH1 0x84 ADD PUSH2 0x349 JUMP JUMPDEST DUP1 PUSH1 0x7 DUP5 PUSH1 0x40 MLOAD PUSH2 0x1402 SWAP2 SWAP1 PUSH2 0x1A37 JUMP JUMPDEST SWAP1 DUP2 MSTORE PUSH1 0x40 MLOAD SWAP1 DUP2 SWAP1 SUB PUSH1 0x20 ADD SWAP1 KECCAK256 SSTORE PUSH1 0x8 DUP1 SLOAD PUSH1 0x1 DUP2 ADD DUP3 SSTORE PUSH0 SWAP2 SWAP1 SWAP2 MSTORE PUSH32 0xF3F7A9FE364FAAB93B216DA50A3214154F22A0A2B415B23A84C8169E8B636EE3 ADD PUSH2 0x144D DUP5 DUP3 PUSH2 0x1C89 JUMP JUMPDEST POP DUP2 PUSH1 0x1 PUSH1 0x1 PUSH1 0xA0 SHL SUB AND PUSH32 0x4591E03D87E58E2EFF46633BCA8ADFB3336F94CED41A61A4E33D3E061FD0E960 DUP5 PUSH1 0x40 MLOAD PUSH2 0x1074 SWAP2 SWAP1 PUSH2 0x1861 JUMP JUMPDEST PUSH1 0x2 PUSH0 SLOAD SUB PUSH2 0x14A9 JUMPI PUSH1 0x40 MLOAD PUSH4 0x3EE5AEB5 PUSH1 0xE0 SHL DUP2 MSTORE PUSH1 0x4 ADD PUSH1 0x40 MLOAD DUP1 SWAP2 SUB SWAP1 REVERT JUMPDEST PUSH1 0x2 PUSH0 SSTORE JUMP JUMPDEST PUSH0 DUP1 PUSH1 0x1 PUSH1 0x1 PUSH1 0xA0 SHL SUB AND PUSH1 0x3 DUP4 PUSH1 0x40 MLOAD PUSH2 0x14CA SWAP2 SWAP1 PUSH2 0x1A37 JUMP JUMPDEST SWAP1 DUP2 MSTORE PUSH1 0x40 MLOAD SWAP1 DUP2 SWAP1 SUB PUSH1 0x20 ADD SWAP1 KECCAK256 SLOAD PUSH1 0x1 PUSH1 0x1 PUSH1 0xA0 SHL SUB AND SUB PUSH2 0x57E JUMPI PUSH1 0x40 MLOAD PUSH3 0x461BCD PUSH1 0xE5 SHL DUP2 MSTORE PUSH1 0x20 PUSH1 0x4 DUP3 ADD MSTORE PUSH1 0x28 PUSH1 0x24 DUP3 ADD MSTORE PUSH32 0x546865206B657920646F6573204E4F5420706F696E7420746F20616E79206465 PUSH1 0x44 DUP3 ADD MSTORE PUSH8 0x70656E64656E6379 PUSH1 0xC0 SHL PUSH1 0x64 DUP3 ADD MSTORE PUSH1 0x84 ADD PUSH2 0x349 JUMP JUMPDEST PUSH1 0x60 PUSH0 DUP4 DUP4 PUSH1 0x40 MLOAD PUSH1 0x20 ADD PUSH2 0x1557 SWAP3 SWAP2 SWAP1 PUSH2 0x1D65 JUMP JUMPDEST PUSH1 0x40 DUP1 MLOAD PUSH1 0x1F NOT DUP2 DUP5 SUB ADD DUP2 MSTORE SWAP2 SWAP1 MSTORE SWAP1 POP PUSH2 0x157C PUSH1 0x1 PUSH1 0x1 PUSH1 0xA0 SHL SUB DUP7 AND DUP3 PUSH2 0x1585 JUMP JUMPDEST SWAP6 SWAP5 POP POP POP POP POP JUMP JUMPDEST PUSH1 0x60 PUSH2 0x1592 DUP4 DUP4 PUSH0 PUSH2 0x159B JUMP JUMPDEST SWAP1 POP JUMPDEST SWAP3 SWAP2 POP POP JUMP JUMPDEST PUSH1 0x60 DUP2 SELFBALANCE LT ISZERO PUSH2 0x15C7 JUMPI PUSH1 0x40 MLOAD PUSH4 0xCF479181 PUSH1 0xE0 SHL DUP2 MSTORE SELFBALANCE PUSH1 0x4 DUP3 ADD MSTORE PUSH1 0x24 DUP2 ADD DUP4 SWAP1 MSTORE PUSH1 0x44 ADD PUSH2 0x349 JUMP JUMPDEST PUSH0 DUP1 DUP6 PUSH1 0x1 PUSH1 0x1 PUSH1 0xA0 SHL SUB AND DUP5 DUP7 PUSH1 0x40 MLOAD PUSH2 0x15E2 SWAP2 SWAP1 PUSH2 0x1A37 JUMP JUMPDEST PUSH0 PUSH1 0x40 MLOAD DUP1 DUP4 SUB DUP2 DUP6 DUP8 GAS CALL SWAP3 POP POP POP RETURNDATASIZE DUP1 PUSH0 DUP2 EQ PUSH2 0x161C JUMPI PUSH1 0x40 MLOAD SWAP2 POP PUSH1 0x1F NOT PUSH1 0x3F RETURNDATASIZE ADD AND DUP3 ADD PUSH1 0x40 MSTORE RETURNDATASIZE DUP3 MSTORE RETURNDATASIZE PUSH0 PUSH1 0x20 DUP5 ADD RETURNDATACOPY PUSH2 0x1621 JUMP JUMPDEST PUSH1 0x60 SWAP2 POP JUMPDEST POP SWAP2 POP SWAP2 POP PUSH2 0x1631 DUP7 DUP4 DUP4 PUSH2 0x163B JUMP JUMPDEST SWAP7 SWAP6 POP POP POP POP POP POP JUMP JUMPDEST PUSH1 0x60 DUP3 PUSH2 0x1650 JUMPI PUSH2 0x164B DUP3 PUSH2 0x1697 JUMP JUMPDEST PUSH2 0x10C0 JUMP JUMPDEST DUP2 MLOAD ISZERO DUP1 ISZERO PUSH2 0x1667 JUMPI POP PUSH1 0x1 PUSH1 0x1 PUSH1 0xA0 SHL SUB DUP5 AND EXTCODESIZE ISZERO JUMPDEST ISZERO PUSH2 0x1690 JUMPI PUSH1 0x40 MLOAD PUSH4 0x9996B315 PUSH1 0xE0 SHL DUP2 MSTORE PUSH1 0x1 PUSH1 0x1 PUSH1 0xA0 SHL SUB DUP6 AND PUSH1 0x4 DUP3 ADD MSTORE PUSH1 0x24 ADD PUSH2 0x349 JUMP JUMPDEST POP DUP1 PUSH2 0x10C0 JUMP JUMPDEST DUP1 MLOAD ISZERO PUSH2 0x16A7 JUMPI DUP1 MLOAD DUP1 DUP3 PUSH1 0x20 ADD REVERT JUMPDEST PUSH1 0x40 MLOAD PUSH4 0xD6BDA275 PUSH1 0xE0 SHL DUP2 MSTORE PUSH1 0x4 ADD PUSH1 0x40 MLOAD DUP1 SWAP2 SUB SWAP1 REVERT JUMPDEST POP DUP1 SLOAD PUSH2 0x16CC SWAP1 PUSH2 0x1A42 JUMP JUMPDEST PUSH0 DUP3 SSTORE DUP1 PUSH1 0x1F LT PUSH2 0x16DB JUMPI POP POP JUMP JUMPDEST PUSH1 0x1F ADD PUSH1 0x20 SWAP1 DIV SWAP1 PUSH0 MSTORE PUSH1 0x20 PUSH0 KECCAK256 SWAP1 DUP2 ADD SWAP1 PUSH2 0x3A1 SWAP2 SWAP1 JUMPDEST DUP1 DUP3 GT ISZERO PUSH2 0x1706 JUMPI PUSH0 DUP2 SSTORE PUSH1 0x1 ADD PUSH2 0x16F3 JUMP JUMPDEST POP SWAP1 JUMP JUMPDEST PUSH1 0x1 PUSH1 0x1 PUSH1 0xA0 SHL SUB DUP2 AND DUP2 EQ PUSH2 0x3A1 JUMPI PUSH0 DUP1 REVERT JUMPDEST PUSH0 PUSH1 0x20 DUP3 DUP5 SUB SLT ISZERO PUSH2 0x172E JUMPI PUSH0 DUP1 REVERT JUMPDEST DUP2 CALLDATALOAD PUSH2 0x10C0 DUP2 PUSH2 0x170A JUMP JUMPDEST PUSH4 0x4E487B71 PUSH1 0xE0 SHL PUSH0 MSTORE PUSH1 0x41 PUSH1 0x4 MSTORE PUSH1 0x24 PUSH0 REVERT JUMPDEST PUSH0 DUP1 PUSH8 0xFFFFFFFFFFFFFFFF DUP5 GT ISZERO PUSH2 0x1767 JUMPI PUSH2 0x1767 PUSH2 0x1739 JUMP JUMPDEST POP PUSH1 0x40 MLOAD PUSH1 0x1F NOT PUSH1 0x1F DUP6 ADD DUP2 AND PUSH1 0x3F ADD AND DUP2 ADD DUP2 DUP2 LT PUSH8 0xFFFFFFFFFFFFFFFF DUP3 GT OR ISZERO PUSH2 0x1796 JUMPI PUSH2 0x1796 PUSH2 0x1739 JUMP JUMPDEST PUSH1 0x40 MSTORE DUP4 DUP2 MSTORE SWAP1 POP DUP1 DUP3 DUP5 ADD DUP6 LT ISZERO PUSH2 0x17AD JUMPI PUSH0 DUP1 REVERT JUMPDEST DUP4 DUP4 PUSH1 0x20 DUP4 ADD CALLDATACOPY PUSH0 PUSH1 0x20 DUP6 DUP4 ADD ADD MSTORE POP SWAP4 SWAP3 POP POP POP JUMP JUMPDEST PUSH0 DUP3 PUSH1 0x1F DUP4 ADD SLT PUSH2 0x17D3 JUMPI PUSH0 DUP1 REVERT JUMPDEST PUSH2 0x1592 DUP4 DUP4 CALLDATALOAD PUSH1 0x20 DUP6 ADD PUSH2 0x174D JUMP JUMPDEST PUSH0 PUSH1 0x20 DUP3 DUP5 SUB SLT ISZERO PUSH2 0x17F2 JUMPI PUSH0 DUP1 REVERT JUMPDEST DUP2 CALLDATALOAD PUSH8 0xFFFFFFFFFFFFFFFF DUP2 GT ISZERO PUSH2 0x1808 JUMPI PUSH0 DUP1 REVERT JUMPDEST PUSH2 0x1814 DUP5 DUP3 DUP6 ADD PUSH2 0x17C4 JUMP JUMPDEST SWAP5 SWAP4 POP POP POP POP JUMP JUMPDEST PUSH0 PUSH1 0x20 DUP3 DUP5 SUB SLT ISZERO PUSH2 0x182C JUMPI PUSH0 DUP1 REVERT JUMPDEST POP CALLDATALOAD SWAP2 SWAP1 POP JUMP JUMPDEST PUSH0 DUP2 MLOAD DUP1 DUP5 MSTORE DUP1 PUSH1 0x20 DUP5 ADD PUSH1 0x20 DUP7 ADD MCOPY PUSH0 PUSH1 0x20 DUP3 DUP7 ADD ADD MSTORE PUSH1 0x20 PUSH1 0x1F NOT PUSH1 0x1F DUP4 ADD AND DUP6 ADD ADD SWAP2 POP POP SWAP3 SWAP2 POP POP JUMP JUMPDEST PUSH1 0x20 DUP2 MSTORE PUSH0 PUSH2 0x1592 PUSH1 0x20 DUP4 ADD DUP5 PUSH2 0x1833 JUMP JUMPDEST PUSH0 DUP1 PUSH1 0x40 DUP4 DUP6 SUB SLT ISZERO PUSH2 0x1884 JUMPI PUSH0 DUP1 REVERT JUMPDEST DUP3 CALLDATALOAD PUSH8 0xFFFFFFFFFFFFFFFF DUP2 GT ISZERO PUSH2 0x189A JUMPI PUSH0 DUP1 REVERT JUMPDEST PUSH2 0x18A6 DUP6 DUP3 DUP7 ADD PUSH2 0x17C4 JUMP JUMPDEST SWAP3 POP POP PUSH1 0x20 DUP4 ADD CALLDATALOAD PUSH2 0x18B7 DUP2 PUSH2 0x170A JUMP JUMPDEST DUP1 SWAP2 POP POP SWAP3 POP SWAP3 SWAP1 POP JUMP JUMPDEST PUSH0 DUP1 PUSH0 PUSH1 0x60 DUP5 DUP7 SUB SLT ISZERO PUSH2 0x18D4 JUMPI PUSH0 DUP1 REVERT JUMPDEST DUP4 CALLDATALOAD PUSH8 0xFFFFFFFFFFFFFFFF DUP2 GT ISZERO PUSH2 0x18EA JUMPI PUSH0 DUP1 REVERT JUMPDEST PUSH2 0x18F6 DUP7 DUP3 DUP8 ADD PUSH2 0x17C4 JUMP JUMPDEST SWAP4 POP POP PUSH1 0x20 DUP5 ADD CALLDATALOAD PUSH8 0xFFFFFFFFFFFFFFFF DUP2 GT ISZERO PUSH2 0x1912 JUMPI PUSH0 DUP1 REVERT JUMPDEST PUSH2 0x191E DUP7 DUP3 DUP8 ADD PUSH2 0x17C4 JUMP JUMPDEST SWAP3 POP POP PUSH1 0x40 DUP5 ADD CALLDATALOAD PUSH8 0xFFFFFFFFFFFFFFFF DUP2 GT ISZERO PUSH2 0x193A JUMPI PUSH0 DUP1 REVERT JUMPDEST DUP5 ADD PUSH1 0x1F DUP2 ADD DUP7 SGT PUSH2 0x194A JUMPI PUSH0 DUP1 REVERT JUMPDEST PUSH2 0x1959 DUP7 DUP3 CALLDATALOAD PUSH1 0x20 DUP5 ADD PUSH2 0x174D JUMP JUMPDEST SWAP2 POP POP SWAP3 POP SWAP3 POP SWAP3 JUMP JUMPDEST PUSH0 PUSH1 0x20 DUP3 ADD PUSH1 0x20 DUP4 MSTORE DUP1 DUP5 MLOAD DUP1 DUP4 MSTORE PUSH1 0x40 DUP6 ADD SWAP2 POP PUSH1 0x40 DUP2 PUSH1 0x5 SHL DUP7 ADD ADD SWAP3 POP PUSH1 0x20 DUP7 ADD PUSH0 JUMPDEST DUP3 DUP2 LT ISZERO PUSH2 0x19BA JUMPI PUSH1 0x3F NOT DUP8 DUP7 SUB ADD DUP5 MSTORE PUSH2 0x19A5 DUP6 DUP4 MLOAD PUSH2 0x1833 JUMP JUMPDEST SWAP5 POP PUSH1 0x20 SWAP4 DUP5 ADD SWAP4 SWAP2 SWAP1 SWAP2 ADD SWAP1 PUSH1 0x1 ADD PUSH2 0x1989 JUMP JUMPDEST POP SWAP3 SWAP7 SWAP6 POP POP POP POP POP POP JUMP JUMPDEST PUSH1 0x20 DUP1 DUP3 MSTORE PUSH1 0x23 SWAP1 DUP3 ADD MSTORE PUSH32 0x74686520646570656E64656E637920726571756573746572206973206E6F7420 PUSH1 0x40 DUP3 ADD MSTORE PUSH3 0x1CD95D PUSH1 0xEA SHL PUSH1 0x60 DUP3 ADD MSTORE PUSH1 0x80 ADD SWAP1 JUMP JUMPDEST PUSH0 PUSH1 0x20 DUP3 DUP5 SUB SLT ISZERO PUSH2 0x1A19 JUMPI PUSH0 DUP1 REVERT JUMPDEST POP MLOAD SWAP2 SWAP1 POP JUMP JUMPDEST PUSH0 DUP2 MLOAD DUP1 PUSH1 0x20 DUP5 ADD DUP6 MCOPY PUSH0 SWAP4 ADD SWAP3 DUP4 MSTORE POP SWAP1 SWAP2 SWAP1 POP JUMP JUMPDEST PUSH0 PUSH2 0x1592 DUP3 DUP5 PUSH2 0x1A20 JUMP JUMPDEST PUSH1 0x1 DUP2 DUP2 SHR SWAP1 DUP3 AND DUP1 PUSH2 0x1A56 JUMPI PUSH1 0x7F DUP3 AND SWAP2 POP JUMPDEST PUSH1 0x20 DUP3 LT DUP2 SUB PUSH2 0x1A74 JUMPI PUSH4 0x4E487B71 PUSH1 0xE0 SHL PUSH0 MSTORE PUSH1 0x22 PUSH1 0x4 MSTORE PUSH1 0x24 PUSH0 REVERT JUMPDEST POP SWAP2 SWAP1 POP JUMP JUMPDEST DUP1 MLOAD DUP1 ISZERO ISZERO DUP2 EQ PUSH2 0x1A89 JUMPI PUSH0 DUP1 REVERT JUMPDEST SWAP2 SWAP1 POP JUMP JUMPDEST PUSH0 DUP1 PUSH0 PUSH1 0x60 DUP5 DUP7 SUB SLT ISZERO PUSH2 0x1AA0 JUMPI PUSH0 DUP1 REVERT JUMPDEST DUP4 MLOAD PUSH2 0x1AAB DUP2 PUSH2 0x170A JUMP JUMPDEST SWAP3 POP PUSH2 0x1AB9 PUSH1 0x20 DUP6 ADD PUSH2 0x1A7A JUMP JUMPDEST SWAP2 POP PUSH2 0x1AC7 PUSH1 0x40 DUP6 ADD PUSH2 0x1A7A JUMP JUMPDEST SWAP1 POP SWAP3 POP SWAP3 POP SWAP3 JUMP JUMPDEST PUSH4 0x4E487B71 PUSH1 0xE0 SHL PUSH0 MSTORE PUSH1 0x11 PUSH1 0x4 MSTORE PUSH1 0x24 PUSH0 REVERT JUMPDEST DUP2 DUP2 SUB DUP2 DUP2 GT ISZERO PUSH2 0x1595 JUMPI PUSH2 0x1595 PUSH2 0x1AD0 JUMP JUMPDEST PUSH4 0x4E487B71 PUSH1 0xE0 SHL PUSH0 MSTORE PUSH1 0x32 PUSH1 0x4 MSTORE PUSH1 0x24 PUSH0 REVERT JUMPDEST PUSH0 DUP1 PUSH1 0x40 DUP4 DUP6 SUB SLT ISZERO PUSH2 0x1B1C JUMPI PUSH0 DUP1 REVERT JUMPDEST PUSH2 0x1B25 DUP4 PUSH2 0x1A7A JUMP JUMPDEST SWAP2 POP PUSH2 0x1B33 PUSH1 0x20 DUP5 ADD PUSH2 0x1A7A JUMP JUMPDEST SWAP1 POP SWAP3 POP SWAP3 SWAP1 POP JUMP JUMPDEST PUSH1 0x1F DUP3 GT ISZERO PUSH2 0x1B83 JUMPI DUP1 PUSH0 MSTORE PUSH1 0x20 PUSH0 KECCAK256 PUSH1 0x1F DUP5 ADD PUSH1 0x5 SHR DUP2 ADD PUSH1 0x20 DUP6 LT ISZERO PUSH2 0x1B61 JUMPI POP DUP1 JUMPDEST PUSH1 0x1F DUP5 ADD PUSH1 0x5 SHR DUP3 ADD SWAP2 POP JUMPDEST DUP2 DUP2 LT ISZERO PUSH2 0x1B80 JUMPI PUSH0 DUP2 SSTORE PUSH1 0x1 ADD PUSH2 0x1B6D JUMP JUMPDEST POP POP JUMPDEST POP POP POP JUMP JUMPDEST DUP2 DUP2 SUB PUSH2 0x1B93 JUMPI POP POP JUMP JUMPDEST PUSH2 0x1B9D DUP3 SLOAD PUSH2 0x1A42 JUMP JUMPDEST PUSH8 0xFFFFFFFFFFFFFFFF DUP2 GT ISZERO PUSH2 0x1BB5 JUMPI PUSH2 0x1BB5 PUSH2 0x1739 JUMP JUMPDEST PUSH2 0x1BC9 DUP2 PUSH2 0x1BC3 DUP5 SLOAD PUSH2 0x1A42 JUMP JUMPDEST DUP5 PUSH2 0x1B3C JUMP JUMPDEST PUSH0 PUSH1 0x1F DUP3 GT PUSH1 0x1 DUP2 EQ PUSH2 0x1BFD JUMPI PUSH0 DUP4 ISZERO PUSH2 0x1BE3 JUMPI POP DUP5 DUP3 ADD SLOAD JUMPDEST PUSH1 0x1 DUP5 SWAP1 SHL PUSH0 NOT PUSH1 0x3 DUP7 SWAP1 SHL SHR NOT DUP3 AND OR JUMPDEST DUP6 SSTORE POP PUSH2 0x1B80 JUMP JUMPDEST PUSH0 DUP6 DUP2 MSTORE PUSH1 0x20 DUP1 DUP3 KECCAK256 DUP7 DUP4 MSTORE SWAP1 DUP3 KECCAK256 PUSH1 0x1F NOT DUP7 AND SWAP3 JUMPDEST DUP4 DUP2 LT ISZERO PUSH2 0x1C33 JUMPI DUP3 DUP7 ADD SLOAD DUP3 SSTORE PUSH1 0x1 SWAP6 DUP7 ADD SWAP6 SWAP1 SWAP2 ADD SWAP1 PUSH1 0x20 ADD PUSH2 0x1C13 JUMP JUMPDEST POP DUP6 DUP4 LT ISZERO PUSH2 0x1C50 JUMPI DUP2 DUP6 ADD SLOAD PUSH0 NOT PUSH1 0x3 DUP9 SWAP1 SHL PUSH1 0xF8 AND SHR NOT AND DUP2 SSTORE JUMPDEST POP POP POP POP POP PUSH1 0x1 SWAP1 DUP2 SHL ADD SWAP1 SSTORE POP JUMP JUMPDEST PUSH4 0x4E487B71 PUSH1 0xE0 SHL PUSH0 MSTORE PUSH1 0x31 PUSH1 0x4 MSTORE PUSH1 0x24 PUSH0 REVERT JUMPDEST PUSH0 DUP2 PUSH2 0x1C82 JUMPI PUSH2 0x1C82 PUSH2 0x1AD0 JUMP JUMPDEST POP PUSH0 NOT ADD SWAP1 JUMP JUMPDEST DUP2 MLOAD PUSH8 0xFFFFFFFFFFFFFFFF DUP2 GT ISZERO PUSH2 0x1CA3 JUMPI PUSH2 0x1CA3 PUSH2 0x1739 JUMP JUMPDEST PUSH2 0x1CB1 DUP2 PUSH2 0x1BC3 DUP5 SLOAD PUSH2 0x1A42 JUMP JUMPDEST PUSH1 0x20 PUSH1 0x1F DUP3 GT PUSH1 0x1 DUP2 EQ PUSH2 0x1CE1 JUMPI PUSH0 DUP4 ISZERO PUSH2 0x1BE3 JUMPI POP DUP2 DUP6 ADD MLOAD PUSH1 0x1 DUP5 SWAP1 SHL PUSH0 NOT PUSH1 0x3 DUP7 SWAP1 SHL SHR NOT DUP3 AND OR PUSH2 0x1BF5 JUMP JUMPDEST PUSH0 DUP5 DUP2 MSTORE PUSH1 0x20 DUP2 KECCAK256 PUSH1 0x1F NOT DUP6 AND SWAP2 JUMPDEST DUP3 DUP2 LT ISZERO PUSH2 0x1D10 JUMPI DUP8 DUP6 ADD MLOAD DUP3 SSTORE PUSH1 0x20 SWAP5 DUP6 ADD SWAP5 PUSH1 0x1 SWAP1 SWAP3 ADD SWAP2 ADD PUSH2 0x1CF0 JUMP JUMPDEST POP DUP5 DUP3 LT ISZERO PUSH2 0x1D2D JUMPI DUP7 DUP5 ADD MLOAD PUSH0 NOT PUSH1 0x3 DUP8 SWAP1 SHL PUSH1 0xF8 AND SHR NOT AND DUP2 SSTORE JUMPDEST POP POP POP POP PUSH1 0x1 SWAP1 DUP2 SHL ADD SWAP1 SSTORE POP JUMP JUMPDEST PUSH1 0x40 DUP2 MSTORE PUSH0 PUSH2 0x1D4E PUSH1 0x40 DUP4 ADD DUP6 PUSH2 0x1833 JUMP JUMPDEST SWAP1 POP PUSH1 0x1 DUP1 PUSH1 0xA0 SHL SUB DUP4 AND PUSH1 0x20 DUP4 ADD MSTORE SWAP4 SWAP3 POP POP POP JUMP JUMPDEST PUSH1 0x1 PUSH1 0x1 PUSH1 0xE0 SHL SUB NOT DUP4 AND DUP2 MSTORE PUSH0 PUSH2 0x1814 PUSH1 0x4 DUP4 ADD DUP5 PUSH2 0x1A20 JUMP INVALID LOG2 PUSH5 0x6970667358 0x22 SLT KECCAK256 NOT SWAP12 0xC7 STOP ADDRESS 0xB0 DUP13 CREATE2 0xCB 0xCF LOG3 0xA8 0xD6 0xE8 MLOAD PUSH31 0x392CC67CD8F97AB5F11F4B36E982ADAE64736F6C634300081A003300000000 "
		},
		"gasEstimates": {
			"creation": {
				"codeDepositCost": "1521200",
				"executionCost": "47930",
				"totalCost": "1569130"
			},
			"external": {
				"addDependencyRequester(address)": "infinite",
				"approvedDependencies(string)": "infinite",
				"approvedDependenciesKeys(uint256)": "infinite",
				"callFunction(string,string,bytes)": "infinite",
				"dependencyRequester()": "2381",
				"deployer()": "2380",
				"getDependencyAddress(string)": "infinite",
				"getDependencyKeys()": "infinite",
				"getPendingAprovalDependencyKeys()": "infinite",
				"pendingApprovalDependencies(string)": "infinite",
				"pendingApprovalDependenciesKeys(uint256)": "infinite",
				"pendingRemovalDependencies(string)": "infinite",
				"pendingRemovalDependenciesKeys(uint256)": "infinite",
				"pendingUpgradeForItself()": "2372",
				"requestDependencyAddition(string,address)": "infinite",
				"requestDependencyRemoval(string,address)": "infinite",
				"requestUpgradeDependencyRequester(address)": "infinite",
				"updateDependencies()": "infinite"
			},
			"internal": {
				"_callFunctionOnDependency(address,bytes4,bytes memory)": "infinite",
				"_getAddress(string memory)": "infinite",
				"_getSelector(string memory)": "infinite"
			}
		},
		"methodIdentifiers": {
			"addDependencyRequester(address)": "0bcfc717",
			"approvedDependencies(string)": "29d5de01",
			"approvedDependenciesKeys(uint256)": "eebed3a7",
			"callFunction(string,string,bytes)": "a7fee722",
			"dependencyRequester()": "a791edf8",
			"deployer()": "d5f39488",
			"getDependencyAddress(string)": "22418460",
			"getDependencyKeys()": "ec4c2e5d",
			"getPendingAprovalDependencyKeys()": "be6552e6",
			"pendingApprovalDependencies(string)": "1a83f4a3",
			"pendingApprovalDependenciesKeys(uint256)": "7b022fa2",
			"pendingRemovalDependencies(string)": "12c0c8c0",
			"pendingRemovalDependenciesKeys(uint256)": "2cf1366b",
			"pendingUpgradeForItself()": "bc5aef90",
			"requestDependencyAddition(string,address)": "80719893",
			"requestDependencyRemoval(string,address)": "fbe332dc",
			"requestUpgradeDependencyRequester(address)": "16c1076f",
			"updateDependencies()": "6e5ecdff"
		}
	},
	"abi": [
		{
			"inputs": [],
			"stateMutability": "nonpayable",
			"type": "constructor"
		},
		{
			"inputs": [
				{
					"internalType": "address",
					"name": "target",
					"type": "address"
				}
			],
			"name": "AddressEmptyCode",
			"type": "error"
		},
		{
			"inputs": [],
			"name": "FailedCall",
			"type": "error"
		},
		{
			"inputs": [
				{
					"internalType": "uint256",
					"name": "balance",
					"type": "uint256"
				},
				{
					"internalType": "uint256",
					"name": "needed",
					"type": "uint256"
				}
			],
			"name": "InsufficientBalance",
			"type": "error"
		},
		{
			"inputs": [],
			"name": "ReentrancyGuardReentrantCall",
			"type": "error"
		},
		{
			"anonymous": false,
			"inputs": [
				{
					"indexed": false,
					"internalType": "string",
					"name": "dependencyKey",
					"type": "string"
				},
				{
					"indexed": true,
					"internalType": "address",
					"name": "contractAddress",
					"type": "address"
				}
			],
			"name": "DependencyAdded",
			"type": "event"
		},
		{
			"anonymous": false,
			"inputs": [
				{
					"indexed": false,
					"internalType": "string",
					"name": "dependencyKey",
					"type": "string"
				},
				{
					"indexed": true,
					"internalType": "address",
					"name": "contractAddress",
					"type": "address"
				}
			],
			"name": "DependencyAdditionFailed",
			"type": "event"
		},
		{
			"anonymous": false,
			"inputs": [
				{
					"indexed": false,
					"internalType": "string",
					"name": "dependencyKey",
					"type": "string"
				},
				{
					"indexed": true,
					"internalType": "address",
					"name": "contractAddress",
					"type": "address"
				}
			],
			"name": "DependencyAdditionRequested",
			"type": "event"
		},
		{
			"anonymous": false,
			"inputs": [
				{
					"indexed": false,
					"internalType": "string",
					"name": "dependencyKey",
					"type": "string"
				},
				{
					"indexed": true,
					"internalType": "address",
					"name": "contractAddress",
					"type": "address"
				}
			],
			"name": "DependencyRemovalFailed",
			"type": "event"
		},
		{
			"anonymous": false,
			"inputs": [
				{
					"indexed": false,
					"internalType": "string",
					"name": "dependencyKey",
					"type": "string"
				},
				{
					"indexed": true,
					"internalType": "address",
					"name": "contractAddress",
					"type": "address"
				}
			],
			"name": "DependencyRemovalRequested",
			"type": "event"
		},
		{
			"anonymous": false,
			"inputs": [
				{
					"indexed": false,
					"internalType": "string",
					"name": "dependencyKey",
					"type": "string"
				},
				{
					"indexed": true,
					"internalType": "address",
					"name": "contractAddress",
					"type": "address"
				}
			],
			"name": "DependencyRemoved",
			"type": "event"
		},
		{
			"anonymous": false,
			"inputs": [
				{
					"indexed": true,
					"internalType": "contract IDependencyRequester",
					"name": "contractAddress",
					"type": "address"
				}
			],
			"name": "DependencyRequesterAdded",
			"type": "event"
		},
		{
			"anonymous": false,
			"inputs": [
				{
					"indexed": true,
					"internalType": "contract IDependencyRequester",
					"name": "contractAddress",
					"type": "address"
				}
			],
			"name": "DependencyRequesterUpgradeFailed",
			"type": "event"
		},
		{
			"anonymous": false,
			"inputs": [
				{
					"indexed": true,
					"internalType": "contract IDependencyRequester",
					"name": "contractInstance",
					"type": "address"
				}
			],
			"name": "DependencyRequesterUpgradeRequested",
			"type": "event"
		},
		{
			"anonymous": false,
			"inputs": [
				{
					"indexed": true,
					"internalType": "contract IDependencyRequester",
					"name": "contractInstance",
					"type": "address"
				}
			],
			"name": "DependencyRequesterUpgraded",
			"type": "event"
		},
		{
			"inputs": [
				{
					"internalType": "contract IDependencyRequester",
					"name": "dependency",
					"type": "address"
				}
			],
			"name": "addDependencyRequester",
			"outputs": [],
			"stateMutability": "nonpayable",
			"type": "function"
		},
		{
			"inputs": [
				{
					"internalType": "string",
					"name": "",
					"type": "string"
				}
			],
			"name": "approvedDependencies",
			"outputs": [
				{
					"internalType": "address",
					"name": "",
					"type": "address"
				}
			],
			"stateMutability": "view",
			"type": "function"
		},
		{
			"inputs": [
				{
					"internalType": "uint256",
					"name": "",
					"type": "uint256"
				}
			],
			"name": "approvedDependenciesKeys",
			"outputs": [
				{
					"internalType": "string",
					"name": "",
					"type": "string"
				}
			],
			"stateMutability": "view",
			"type": "function"
		},
		{
			"inputs": [
				{
					"internalType": "string",
					"name": "dependencyKey",
					"type": "string"
				},
				{
					"internalType": "string",
					"name": "functionSignature",
					"type": "string"
				},
				{
					"internalType": "bytes",
					"name": "data",
					"type": "bytes"
				}
			],
			"name": "callFunction",
			"outputs": [
				{
					"internalType": "bytes",
					"name": "",
					"type": "bytes"
				}
			],
			"stateMutability": "nonpayable",
			"type": "function"
		},
		{
			"inputs": [],
			"name": "dependencyRequester",
			"outputs": [
				{
					"internalType": "contract IDependencyRequester",
					"name": "",
					"type": "address"
				}
			],
			"stateMutability": "view",
			"type": "function"
		},
		{
			"inputs": [],
			"name": "deployer",
			"outputs": [
				{
					"internalType": "address",
					"name": "",
					"type": "address"
				}
			],
			"stateMutability": "view",
			"type": "function"
		},
		{
			"inputs": [
				{
					"internalType": "string",
					"name": "keyname",
					"type": "string"
				}
			],
			"name": "getDependencyAddress",
			"outputs": [
				{
					"internalType": "address",
					"name": "",
					"type": "address"
				}
			],
			"stateMutability": "view",
			"type": "function"
		},
		{
			"inputs": [],
			"name": "getDependencyKeys",
			"outputs": [
				{
					"internalType": "string[]",
					"name": "",
					"type": "string[]"
				}
			],
			"stateMutability": "view",
			"type": "function"
		},
		{
			"inputs": [],
			"name": "getPendingAprovalDependencyKeys",
			"outputs": [
				{
					"internalType": "string[]",
					"name": "",
					"type": "string[]"
				}
			],
			"stateMutability": "view",
			"type": "function"
		},
		{
			"inputs": [
				{
					"internalType": "string",
					"name": "",
					"type": "string"
				}
			],
			"name": "pendingApprovalDependencies",
			"outputs": [
				{
					"internalType": "uint256",
					"name": "",
					"type": "uint256"
				}
			],
			"stateMutability": "view",
			"type": "function"
		},
		{
			"inputs": [
				{
					"internalType": "uint256",
					"name": "",
					"type": "uint256"
				}
			],
			"name": "pendingApprovalDependenciesKeys",
			"outputs": [
				{
					"internalType": "string",
					"name": "",
					"type": "string"
				}
			],
			"stateMutability": "view",
			"type": "function"
		},
		{
			"inputs": [
				{
					"internalType": "string",
					"name": "",
					"type": "string"
				}
			],
			"name": "pendingRemovalDependencies",
			"outputs": [
				{
					"internalType": "uint256",
					"name": "",
					"type": "uint256"
				}
			],
			"stateMutability": "view",
			"type": "function"
		},
		{
			"inputs": [
				{
					"internalType": "uint256",
					"name": "",
					"type": "uint256"
				}
			],
			"name": "pendingRemovalDependenciesKeys",
			"outputs": [
				{
					"internalType": "string",
					"name": "",
					"type": "string"
				}
			],
			"stateMutability": "view",
			"type": "function"
		},
		{
			"inputs": [],
			"name": "pendingUpgradeForItself",
			"outputs": [
				{
					"internalType": "uint256",
					"name": "",
					"type": "uint256"
				}
			],
			"stateMutability": "view",
			"type": "function"
		},
		{
			"inputs": [
				{
					"internalType": "string",
					"name": "dependencyKey",
					"type": "string"
				},
				{
					"internalType": "address",
					"name": "contractAddress",
					"type": "address"
				}
			],
			"name": "requestDependencyAddition",
			"outputs": [],
			"stateMutability": "nonpayable",
			"type": "function"
		},
		{
			"inputs": [
				{
					"internalType": "string",
					"name": "dependencyKey",
					"type": "string"
				},
				{
					"internalType": "address",
					"name": "contractAddress",
					"type": "address"
				}
			],
			"name": "requestDependencyRemoval",
			"outputs": [],
			"stateMutability": "nonpayable",
			"type": "function"
		},
		{
			"inputs": [
				{
					"internalType": "contract IDependencyRequester",
					"name": "upgradedDependencyRequester",
					"type": "address"
				}
			],
			"name": "requestUpgradeDependencyRequester",
			"outputs": [],
			"stateMutability": "nonpayable",
			"type": "function"
		},
		{
			"inputs": [],
			"name": "updateDependencies",
			"outputs": [],
			"stateMutability": "nonpayable",
			"type": "function"
		}
	]
}