{
	"data": {
		"bytecode": {
			"linkReferences": {},
			"object": "6080604052348015600e575f80fd5b5060015f81905580546001600160a01b03191633179055611e78806100325f395ff3fe608060405234801561000f575f80fd5b5060043610610111575f3560e01c8063807198931161009e578063be6552e61161006e578063be6552e614610282578063d5f3948814610297578063ec4c2e5d146102aa578063eebed3a7146102b2578063fbe332dc146102c5575f80fd5b80638071989314610240578063a791edf814610253578063a7fee72214610266578063bc5aef9014610279575f80fd5b806322418460116100e457806322418460146101a657806329d5de01146101d15780632cf1366b146102055780636e5ecdff146102255780637b022fa21461022d575f80fd5b80630bcfc7171461011557806312c0c8c01461012a57806316c1076f146101685780631a83f4a31461017b575b5f80fd5b6101286101233660046117e0565b6102d8565b005b6101556101383660046118a4565b805160208183018101805160078252928201919093012091525481565b6040519081526020015b60405180910390f35b6101286101763660046117e0565b610466565b6101556101893660046118a4565b805160208183018101805160058252928201919093012091525481565b6101b96101b43660046118a4565b6105ae565b6040516001600160a01b03909116815260200161015f565b6101b96101df3660046118a4565b80516020818301810180516003825292820191909301209152546001600160a01b031681565b6102186102133660046118de565b61066f565b60405161015f9190611923565b610128610715565b61021861023b3660046118de565b610f2a565b61012861024e366004611935565b610f39565b6002546101b9906001600160a01b031681565b610218610274366004611984565b61114c565b61015560095481565b61028a611189565b60405161015f9190611a25565b6001546101b9906001600160a01b031681565b61028a61125d565b6102186102c03660046118de565b611328565b6101286102d3366004611935565b611337565b6102e0611549565b6001546001600160a01b031633146103525760405162461bcd60e51b815260206004820152602a60248201527f7468652073656e6465722077617320657870656374656420746f20626520746860448201526932903232b83637bcb2b960b11b60648201526084015b60405180910390fd5b6002546001600160a01b0316156104145760405162461bcd60e51b815260206004820152607460248201527f74686520646570656e64656e6379207265717565737465722068617320616c7260448201527f65616479206265656e207365742c20757365207265717565737455706772616460648201527f65446570656e64656e6379526571756573746572282920696e206f7264657220608482015273746f206368616e676520697420627920766f746560601b60a482015260c401610349565b600280546001600160a01b0319166001600160a01b0383169081179091556040517fa16907e9030f7a27dd100153173e6b01401f940d851e6f7095937f2773e561b2905f90a261046360015f55565b50565b61046e611549565b600954156104d45760405162461bcd60e51b815260206004820152602d60248201527f746865726520697320616c726561647920612070656e64696e6720757067726160448201526c646520696e2070726f6365737360981b6064820152608401610349565b6002546001600160a01b03166104fc5760405162461bcd60e51b815260040161034990611a88565b6002546040516316c1076f60e01b81526001600160a01b0383811660048301525f9216906316c1076f906024016020604051808303815f875af1158015610545573d5f803e3d5ffd5b505050506040513d601f19601f820116820180604052508101906105699190611acb565b60098190556040519091506001600160a01b038316907f130bf33540470b3a07f23b1164785a20acd90a150a4a00e976740c8f941c71db905f90a25061046360015f55565b5f806001600160a01b03166003836040516105c99190611af9565b908152604051908190036020019020546001600160a01b0316036106405760405162461bcd60e51b815260206004820152602860248201527f746865206b657920646f6573204e4f5420706f696e7420746f20616e7920646560448201526770656e64656e637960c01b6064820152608401610349565b6003826040516106509190611af9565b908152604051908190036020019020546001600160a01b031692915050565b6008818154811061067e575f80fd5b905f5260205f20015f91509050805461069690611b04565b80601f01602080910402602001604051908101604052809291908181526020018280546106c290611b04565b801561070d5780601f106106e45761010080835404028352916020019161070d565b820191905f5260205f20905b8154815290600101906020018083116106f057829003601f168201915b505050505081565b61071d611549565b6002546001600160a01b03166107455760405162461bcd60e51b815260040161034990611a88565b6009541561085c5760025460095460405163156a8dcb60e11b815260048101919091525f91829182916001600160a01b031690632ad51b9690602401606060405180830381865afa15801561079c573d5f803e3d5ffd5b505050506040513d601f19601f820116820180604052508101906107c09190611b50565b92509250925081156107d1575f6009555b8180156107db5750805b15610814576040516001600160a01b038416907fe00a5b97742635032504f47f4c4ae13f19de32bab9db317d70cb5820cce02935905f90a25b81801561081f575080155b15610858576040516001600160a01b038416907f563bb4859f75835d1cd4855f062e12db76cc064572739370c11b20510e382d5b905f90a25b5050505b60085415610be6576008545b8015610be4575f61087a600183611ba6565b90505f6008828154811061089057610890611bb9565b905f5260205f200180546108a390611b04565b80601f01602080910402602001604051908101604052809291908181526020018280546108cf90611b04565b801561091a5780601f106108f15761010080835404028352916020019161091a565b820191905f5260205f20905b8154815290600101906020018083116108fd57829003601f168201915b505050505090505f6007826040516109329190611af9565b9081526040519081900360200181205460025463b986f17960e01b83529092505f9182916001600160a01b03169063b986f1799061097890869060040190815260200190565b6040805180830381865afa158015610992573d5f803e3d5ffd5b505050506040513d601f19601f820116820180604052508101906109b69190611bcd565b91509150816109c9575050505050610bd2565b5f6003856040516109da9190611af9565b908152604051908190036020019020546001600160a01b031690508115610ae657600385604051610a0b9190611af9565b90815260405190819003602001902080546001600160a01b031916905560048054610a3890600190611ba6565b81548110610a4857610a48611bb9565b905f5260205f200160048781548110610a6357610a63611bb9565b905f5260205f20019081610a779190611c4a565b506004805480610a8957610a89611d22565b600190038181905f5260205f20015f610aa29190611782565b9055806001600160a01b03167f82aa94d0384f3fe5d924376cf325afcff8195f30f42758ae710193c432f24ac186604051610add9190611923565b60405180910390a25b81610b2d57806001600160a01b03167f402a83bdad8cef946824820b268607aec7303de64e88533b0bd7ee57a577b95486604051610b249190611923565b60405180910390a25b600785604051610b3d9190611af9565b9081526040519081900360200190205f905560088054610b5f90600190611ba6565b81548110610b6f57610b6f611bb9565b905f5260205f200160088781548110610b8a57610b8a611bb9565b905f5260205f20019081610b9e9190611c4a565b506008805480610bb057610bb0611d22565b600190038181905f5260205f20015f610bc99190611782565b90555050505050505b80610bdc81611d36565b915050610868565b505b60065415610f1f576006545b8015610f1d575f610c04600183611ba6565b90505f60068281548110610c1a57610c1a611bb9565b905f5260205f20018054610c2d90611b04565b80601f0160208091040260200160405190810160405280929190818152602001828054610c5990611b04565b8015610ca45780601f10610c7b57610100808354040283529160200191610ca4565b820191905f5260205f20905b815481529060010190602001808311610c8757829003601f168201915b505050505090505f600582604051610cbc9190611af9565b90815260405190819003602001812054600254634f6e1b2760e01b83529092505f91829182916001600160a01b0390911690634f6e1b2790610d0690879060040190815260200190565b606060405180830381865afa158015610d21573d5f803e3d5ffd5b505050506040513d601f19601f82011682018060405250810190610d459190611b50565b92509250925081610d5b57505050505050610f0b565b8015610e1f5782600386604051610d729190611af9565b90815260405190819003602001902080546001600160a01b03929092166001600160a01b0319909216919091179055600480546001810182555f919091527f8a35acfbc15ff81a39ae7d344fd709f28e8600b4aa8c65c6b64bfe7fe36bd19b01610ddc8682611d4b565b50826001600160a01b03167f8281f4653ea8e6ba47f1ebeeb1c7e17291003d7e8247666d4d1c46124920bfe686604051610e169190611923565b60405180910390a25b80610e6657826001600160a01b03167fc4425eba3fdc6aaf1c08b8892b7b7b5fdca047f984a94148a7c547e0faac2bd386604051610e5d9190611923565b60405180910390a25b600585604051610e769190611af9565b9081526040519081900360200190205f905560068054610e9890600190611ba6565b81548110610ea857610ea8611bb9565b905f5260205f200160068781548110610ec357610ec3611bb9565b905f5260205f20019081610ed79190611c4a565b506006805480610ee957610ee9611d22565b600190038181905f5260205f20015f610f029190611782565b90555050505050505b80610f1581611d36565b915050610bf2565b505b610f2860015f55565b565b6006818154811061067e575f80fd5b610f41611549565b6002546001600160a01b0316610f695760405162461bcd60e51b815260040161034990611a88565b6001600160a01b038116610fbf5760405162461bcd60e51b815260206004820152601f60248201527f74686520636f6e74726163742061646472657373206973206e6f7420736574006044820152606401610349565b600254604051630eacd1d560e11b81525f916001600160a01b031690631d59a3aa90610ff19086908690600401611dfe565b6020604051808303815f875af115801561100d573d5f803e3d5ffd5b505050506040513d601f19601f820116820180604052508101906110319190611acb565b90506005836040516110439190611af9565b9081526020016040518091039020545f146110a05760405162461bcd60e51b815260206004820181905260248201527f74686520646570656e64656e637920616c7265616479207265717565737465646044820152606401610349565b806005846040516110b19190611af9565b90815260405190819003602001902055600680546001810182555f919091527ff652222313e28459528d920b65115c16c04f3efc82aaedc97be59f3f377c0d3f016110fc8482611d4b565b50816001600160a01b03167f7a561791a5e256aac8e189115ca0e37a81457d0fc3faceceb7d1c4907dd55a3a846040516111369190611923565b60405180910390a25061114860015f55565b5050565b6060611156611549565b5f61116085611571565b84516020860120909150611175828286611603565b9250505061118260015f55565b9392505050565b60606006805480602002602001604051908101604052809291908181526020015f905b82821015611254578382905f5260205f200180546111c990611b04565b80601f01602080910402602001604051908101604052809291908181526020018280546111f590611b04565b80156112405780601f1061121757610100808354040283529160200191611240565b820191905f5260205f20905b81548152906001019060200180831161122357829003601f168201915b5050505050815260200190600101906111ac565b50505050905090565b60606004805480602002602001604051908101604052809291908181526020015f905b82821015611254578382905f5260205f2001805461129d90611b04565b80601f01602080910402602001604051908101604052809291908181526020018280546112c990611b04565b80156113145780601f106112eb57610100808354040283529160200191611314565b820191905f5260205f20905b8154815290600101906020018083116112f757829003601f168201915b505050505081526020019060010190611280565b6004818154811061067e575f80fd5b61133f611549565b6002546001600160a01b03166113675760405162461bcd60e51b815260040161034990611a88565b6001600160a01b0381166113bd5760405162461bcd60e51b815260206004820152601f60248201527f74686520636f6e74726163742061646472657373206973206e6f7420736574006044820152606401610349565b6002546040516307ec404360e01b81525f916001600160a01b0316906307ec4043906113ef9086908690600401611dfe565b6020604051808303815f875af115801561140b573d5f803e3d5ffd5b505050506040513d601f19601f8201168201806040525081019061142f9190611acb565b90506007836040516114419190611af9565b9081526020016040518091039020545f146114b35760405162461bcd60e51b815260206004820152602c60248201527f74686520646570656e64656e637920616c72656164792072657175657374656460448201526b08199bdc881c995b5bdd985b60a21b6064820152608401610349565b806007846040516114c49190611af9565b90815260405190819003602001902055600880546001810182555f919091527ff3f7a9fe364faab93b216da50a3214154f22a0a2b415b23a84c8169e8b636ee30161150f8482611d4b565b50816001600160a01b03167f4591e03d87e58e2eff46633bca8adfb3336f94ced41a61a4e33d3e061fd0e960846040516111369190611923565b60025f540361156b57604051633ee5aeb560e01b815260040160405180910390fd5b60025f55565b5f806001600160a01b031660038360405161158c9190611af9565b908152604051908190036020019020546001600160a01b0316036106405760405162461bcd60e51b815260206004820152602860248201527f546865206b657920646f6573204e4f5420706f696e7420746f20616e7920646560448201526770656e64656e637960c01b6064820152608401610349565b60605f8383604051602001611619929190611e27565b60408051601f19818403018152919052905061163e6001600160a01b03861682611647565b95945050505050565b606061165483835f61165d565b90505b92915050565b6060814710156116895760405163cf47918160e01b815247600482015260248101839052604401610349565b5f80856001600160a01b031684866040516116a49190611af9565b5f6040518083038185875af1925050503d805f81146116de576040519150601f19603f3d011682016040523d82523d5f602084013e6116e3565b606091505b50915091506116f38683836116fd565b9695505050505050565b6060826117125761170d82611759565b611182565b815115801561172957506001600160a01b0384163b155b1561175257604051639996b31560e01b81526001600160a01b0385166004820152602401610349565b5080611182565b8051156117695780518082602001fd5b60405163d6bda27560e01b815260040160405180910390fd5b50805461178e90611b04565b5f825580601f1061179d575050565b601f0160209004905f5260205f209081019061046391905b808211156117c8575f81556001016117b5565b5090565b6001600160a01b0381168114610463575f80fd5b5f602082840312156117f0575f80fd5b8135611182816117cc565b634e487b7160e01b5f52604160045260245ffd5b5f8067ffffffffffffffff841115611829576118296117fb565b50604051601f19601f85018116603f0116810181811067ffffffffffffffff82111715611858576118586117fb565b60405283815290508082840185101561186f575f80fd5b838360208301375f60208583010152509392505050565b5f82601f830112611895575f80fd5b6116548383356020850161180f565b5f602082840312156118b4575f80fd5b813567ffffffffffffffff8111156118ca575f80fd5b6118d684828501611886565b949350505050565b5f602082840312156118ee575f80fd5b5035919050565b5f81518084528060208401602086015e5f602082860101526020601f19601f83011685010191505092915050565b602081525f61165460208301846118f5565b5f8060408385031215611946575f80fd5b823567ffffffffffffffff81111561195c575f80fd5b61196885828601611886565b9250506020830135611979816117cc565b809150509250929050565b5f805f60608486031215611996575f80fd5b833567ffffffffffffffff8111156119ac575f80fd5b6119b886828701611886565b935050602084013567ffffffffffffffff8111156119d4575f80fd5b6119e086828701611886565b925050604084013567ffffffffffffffff8111156119fc575f80fd5b8401601f81018613611a0c575f80fd5b611a1b8682356020840161180f565b9150509250925092565b5f602082016020835280845180835260408501915060408160051b8601019250602086015f5b82811015611a7c57603f19878603018452611a678583516118f5565b94506020938401939190910190600101611a4b565b50929695505050505050565b60208082526023908201527f74686520646570656e64656e637920726571756573746572206973206e6f74206040820152621cd95d60ea1b606082015260800190565b5f60208284031215611adb575f80fd5b5051919050565b5f81518060208401855e5f93019283525090919050565b5f6116548284611ae2565b600181811c90821680611b1857607f821691505b602082108103611b3657634e487b7160e01b5f52602260045260245ffd5b50919050565b80518015158114611b4b575f80fd5b919050565b5f805f60608486031215611b62575f80fd5b8351611b6d816117cc565b9250611b7b60208501611b3c565b9150611b8960408501611b3c565b90509250925092565b634e487b7160e01b5f52601160045260245ffd5b8181038181111561165757611657611b92565b634e487b7160e01b5f52603260045260245ffd5b5f8060408385031215611bde575f80fd5b611be783611b3c565b9150611bf560208401611b3c565b90509250929050565b601f821115611c4557805f5260205f20601f840160051c81016020851015611c235750805b601f840160051c820191505b81811015611c42575f8155600101611c2f565b50505b505050565b818103611c55575050565b611c5f8254611b04565b67ffffffffffffffff811115611c7757611c776117fb565b611c8b81611c858454611b04565b84611bfe565b5f601f821160018114611cbf575f8315611ca55750848201545b600184901b5f19600386901b1c198216175b855550611c42565b5f8581526020808220868352908220601f198616925b83811015611cf55782860154825560019586019590910190602001611cd5565b5085831015611d1257818501545f19600388901b60f8161c191681555b5050505050600190811b01905550565b634e487b7160e01b5f52603160045260245ffd5b5f81611d4457611d44611b92565b505f190190565b815167ffffffffffffffff811115611d6557611d656117fb565b611d7381611c858454611b04565b6020601f821160018114611da3575f8315611ca5575081850151600184901b5f19600386901b1c19821617611cb7565b5f84815260208120601f198516915b82811015611dd25787850151825560209485019460019092019101611db2565b5084821015611def57868401515f19600387901b60f8161c191681555b50505050600190811b01905550565b604081525f611e1060408301856118f5565b905060018060a01b03831660208301529392505050565b6001600160e01b0319831681525f6118d66004830184611ae256fea2646970667358221220820fb1b1aa5b6098866406259b5d2ae623d2cae7080f2e50be3a31ad7cffd88e64736f6c634300081a0033",
			"opcodes": "PUSH1 0x80 PUSH1 0x40 MSTORE CALLVALUE DUP1 ISZERO PUSH1 0xE JUMPI PUSH0 DUP1 REVERT JUMPDEST POP PUSH1 0x1 PUSH0 DUP2 SWAP1 SSTORE DUP1 SLOAD PUSH1 0x1 PUSH1 0x1 PUSH1 0xA0 SHL SUB NOT AND CALLER OR SWAP1 SSTORE PUSH2 0x1E78 DUP1 PUSH2 0x32 PUSH0 CODECOPY PUSH0 RETURN INVALID PUSH1 0x80 PUSH1 0x40 MSTORE CALLVALUE DUP1 ISZERO PUSH2 0xF JUMPI PUSH0 DUP1 REVERT JUMPDEST POP PUSH1 0x4 CALLDATASIZE LT PUSH2 0x111 JUMPI PUSH0 CALLDATALOAD PUSH1 0xE0 SHR DUP1 PUSH4 0x80719893 GT PUSH2 0x9E JUMPI DUP1 PUSH4 0xBE6552E6 GT PUSH2 0x6E JUMPI DUP1 PUSH4 0xBE6552E6 EQ PUSH2 0x282 JUMPI DUP1 PUSH4 0xD5F39488 EQ PUSH2 0x297 JUMPI DUP1 PUSH4 0xEC4C2E5D EQ PUSH2 0x2AA JUMPI DUP1 PUSH4 0xEEBED3A7 EQ PUSH2 0x2B2 JUMPI DUP1 PUSH4 0xFBE332DC EQ PUSH2 0x2C5 JUMPI PUSH0 DUP1 REVERT JUMPDEST DUP1 PUSH4 0x80719893 EQ PUSH2 0x240 JUMPI DUP1 PUSH4 0xA791EDF8 EQ PUSH2 0x253 JUMPI DUP1 PUSH4 0xA7FEE722 EQ PUSH2 0x266 JUMPI DUP1 PUSH4 0xBC5AEF90 EQ PUSH2 0x279 JUMPI PUSH0 DUP1 REVERT JUMPDEST DUP1 PUSH4 0x22418460 GT PUSH2 0xE4 JUMPI DUP1 PUSH4 0x22418460 EQ PUSH2 0x1A6 JUMPI DUP1 PUSH4 0x29D5DE01 EQ PUSH2 0x1D1 JUMPI DUP1 PUSH4 0x2CF1366B EQ PUSH2 0x205 JUMPI DUP1 PUSH4 0x6E5ECDFF EQ PUSH2 0x225 JUMPI DUP1 PUSH4 0x7B022FA2 EQ PUSH2 0x22D JUMPI PUSH0 DUP1 REVERT JUMPDEST DUP1 PUSH4 0xBCFC717 EQ PUSH2 0x115 JUMPI DUP1 PUSH4 0x12C0C8C0 EQ PUSH2 0x12A JUMPI DUP1 PUSH4 0x16C1076F EQ PUSH2 0x168 JUMPI DUP1 PUSH4 0x1A83F4A3 EQ PUSH2 0x17B JUMPI JUMPDEST PUSH0 DUP1 REVERT JUMPDEST PUSH2 0x128 PUSH2 0x123 CALLDATASIZE PUSH1 0x4 PUSH2 0x17E0 JUMP JUMPDEST PUSH2 0x2D8 JUMP JUMPDEST STOP JUMPDEST PUSH2 0x155 PUSH2 0x138 CALLDATASIZE PUSH1 0x4 PUSH2 0x18A4 JUMP JUMPDEST DUP1 MLOAD PUSH1 0x20 DUP2 DUP4 ADD DUP2 ADD DUP1 MLOAD PUSH1 0x7 DUP3 MSTORE SWAP3 DUP3 ADD SWAP2 SWAP1 SWAP4 ADD KECCAK256 SWAP2 MSTORE SLOAD DUP2 JUMP JUMPDEST PUSH1 0x40 MLOAD SWAP1 DUP2 MSTORE PUSH1 0x20 ADD JUMPDEST PUSH1 0x40 MLOAD DUP1 SWAP2 SUB SWAP1 RETURN JUMPDEST PUSH2 0x128 PUSH2 0x176 CALLDATASIZE PUSH1 0x4 PUSH2 0x17E0 JUMP JUMPDEST PUSH2 0x466 JUMP JUMPDEST PUSH2 0x155 PUSH2 0x189 CALLDATASIZE PUSH1 0x4 PUSH2 0x18A4 JUMP JUMPDEST DUP1 MLOAD PUSH1 0x20 DUP2 DUP4 ADD DUP2 ADD DUP1 MLOAD PUSH1 0x5 DUP3 MSTORE SWAP3 DUP3 ADD SWAP2 SWAP1 SWAP4 ADD KECCAK256 SWAP2 MSTORE SLOAD DUP2 JUMP JUMPDEST PUSH2 0x1B9 PUSH2 0x1B4 CALLDATASIZE PUSH1 0x4 PUSH2 0x18A4 JUMP JUMPDEST PUSH2 0x5AE JUMP JUMPDEST PUSH1 0x40 MLOAD PUSH1 0x1 PUSH1 0x1 PUSH1 0xA0 SHL SUB SWAP1 SWAP2 AND DUP2 MSTORE PUSH1 0x20 ADD PUSH2 0x15F JUMP JUMPDEST PUSH2 0x1B9 PUSH2 0x1DF CALLDATASIZE PUSH1 0x4 PUSH2 0x18A4 JUMP JUMPDEST DUP1 MLOAD PUSH1 0x20 DUP2 DUP4 ADD DUP2 ADD DUP1 MLOAD PUSH1 0x3 DUP3 MSTORE SWAP3 DUP3 ADD SWAP2 SWAP1 SWAP4 ADD KECCAK256 SWAP2 MSTORE SLOAD PUSH1 0x1 PUSH1 0x1 PUSH1 0xA0 SHL SUB AND DUP2 JUMP JUMPDEST PUSH2 0x218 PUSH2 0x213 CALLDATASIZE PUSH1 0x4 PUSH2 0x18DE JUMP JUMPDEST PUSH2 0x66F JUMP JUMPDEST PUSH1 0x40 MLOAD PUSH2 0x15F SWAP2 SWAP1 PUSH2 0x1923 JUMP JUMPDEST PUSH2 0x128 PUSH2 0x715 JUMP JUMPDEST PUSH2 0x218 PUSH2 0x23B CALLDATASIZE PUSH1 0x4 PUSH2 0x18DE JUMP JUMPDEST PUSH2 0xF2A JUMP JUMPDEST PUSH2 0x128 PUSH2 0x24E CALLDATASIZE PUSH1 0x4 PUSH2 0x1935 JUMP JUMPDEST PUSH2 0xF39 JUMP JUMPDEST PUSH1 0x2 SLOAD PUSH2 0x1B9 SWAP1 PUSH1 0x1 PUSH1 0x1 PUSH1 0xA0 SHL SUB AND DUP2 JUMP JUMPDEST PUSH2 0x218 PUSH2 0x274 CALLDATASIZE PUSH1 0x4 PUSH2 0x1984 JUMP JUMPDEST PUSH2 0x114C JUMP JUMPDEST PUSH2 0x155 PUSH1 0x9 SLOAD DUP2 JUMP JUMPDEST PUSH2 0x28A PUSH2 0x1189 JUMP JUMPDEST PUSH1 0x40 MLOAD PUSH2 0x15F SWAP2 SWAP1 PUSH2 0x1A25 JUMP JUMPDEST PUSH1 0x1 SLOAD PUSH2 0x1B9 SWAP1 PUSH1 0x1 PUSH1 0x1 PUSH1 0xA0 SHL SUB AND DUP2 JUMP JUMPDEST PUSH2 0x28A PUSH2 0x125D JUMP JUMPDEST PUSH2 0x218 PUSH2 0x2C0 CALLDATASIZE PUSH1 0x4 PUSH2 0x18DE JUMP JUMPDEST PUSH2 0x1328 JUMP JUMPDEST PUSH2 0x128 PUSH2 0x2D3 CALLDATASIZE PUSH1 0x4 PUSH2 0x1935 JUMP JUMPDEST PUSH2 0x1337 JUMP JUMPDEST PUSH2 0x2E0 PUSH2 0x1549 JUMP JUMPDEST PUSH1 0x1 SLOAD PUSH1 0x1 PUSH1 0x1 PUSH1 0xA0 SHL SUB AND CALLER EQ PUSH2 0x352 JUMPI PUSH1 0x40 MLOAD PUSH3 0x461BCD PUSH1 0xE5 SHL DUP2 MSTORE PUSH1 0x20 PUSH1 0x4 DUP3 ADD MSTORE PUSH1 0x2A PUSH1 0x24 DUP3 ADD MSTORE PUSH32 0x7468652073656E6465722077617320657870656374656420746F206265207468 PUSH1 0x44 DUP3 ADD MSTORE PUSH10 0x32903232B83637BCB2B9 PUSH1 0xB1 SHL PUSH1 0x64 DUP3 ADD MSTORE PUSH1 0x84 ADD JUMPDEST PUSH1 0x40 MLOAD DUP1 SWAP2 SUB SWAP1 REVERT JUMPDEST PUSH1 0x2 SLOAD PUSH1 0x1 PUSH1 0x1 PUSH1 0xA0 SHL SUB AND ISZERO PUSH2 0x414 JUMPI PUSH1 0x40 MLOAD PUSH3 0x461BCD PUSH1 0xE5 SHL DUP2 MSTORE PUSH1 0x20 PUSH1 0x4 DUP3 ADD MSTORE PUSH1 0x74 PUSH1 0x24 DUP3 ADD MSTORE PUSH32 0x74686520646570656E64656E6379207265717565737465722068617320616C72 PUSH1 0x44 DUP3 ADD MSTORE PUSH32 0x65616479206265656E207365742C207573652072657175657374557067726164 PUSH1 0x64 DUP3 ADD MSTORE PUSH32 0x65446570656E64656E6379526571756573746572282920696E206F7264657220 PUSH1 0x84 DUP3 ADD MSTORE PUSH20 0x746F206368616E676520697420627920766F7465 PUSH1 0x60 SHL PUSH1 0xA4 DUP3 ADD MSTORE PUSH1 0xC4 ADD PUSH2 0x349 JUMP JUMPDEST PUSH1 0x2 DUP1 SLOAD PUSH1 0x1 PUSH1 0x1 PUSH1 0xA0 SHL SUB NOT AND PUSH1 0x1 PUSH1 0x1 PUSH1 0xA0 SHL SUB DUP4 AND SWAP1 DUP2 OR SWAP1 SWAP2 SSTORE PUSH1 0x40 MLOAD PUSH32 0xA16907E9030F7A27DD100153173E6B01401F940D851E6F7095937F2773E561B2 SWAP1 PUSH0 SWAP1 LOG2 PUSH2 0x463 PUSH1 0x1 PUSH0 SSTORE JUMP JUMPDEST POP JUMP JUMPDEST PUSH2 0x46E PUSH2 0x1549 JUMP JUMPDEST PUSH1 0x9 SLOAD ISZERO PUSH2 0x4D4 JUMPI PUSH1 0x40 MLOAD PUSH3 0x461BCD PUSH1 0xE5 SHL DUP2 MSTORE PUSH1 0x20 PUSH1 0x4 DUP3 ADD MSTORE PUSH1 0x2D PUSH1 0x24 DUP3 ADD MSTORE PUSH32 0x746865726520697320616C726561647920612070656E64696E67207570677261 PUSH1 0x44 DUP3 ADD MSTORE PUSH13 0x646520696E2070726F63657373 PUSH1 0x98 SHL PUSH1 0x64 DUP3 ADD MSTORE PUSH1 0x84 ADD PUSH2 0x349 JUMP JUMPDEST PUSH1 0x2 SLOAD PUSH1 0x1 PUSH1 0x1 PUSH1 0xA0 SHL SUB AND PUSH2 0x4FC JUMPI PUSH1 0x40 MLOAD PUSH3 0x461BCD PUSH1 0xE5 SHL DUP2 MSTORE PUSH1 0x4 ADD PUSH2 0x349 SWAP1 PUSH2 0x1A88 JUMP JUMPDEST PUSH1 0x2 SLOAD PUSH1 0x40 MLOAD PUSH4 0x16C1076F PUSH1 0xE0 SHL DUP2 MSTORE PUSH1 0x1 PUSH1 0x1 PUSH1 0xA0 SHL SUB DUP4 DUP2 AND PUSH1 0x4 DUP4 ADD MSTORE PUSH0 SWAP3 AND SWAP1 PUSH4 0x16C1076F SWAP1 PUSH1 0x24 ADD PUSH1 0x20 PUSH1 0x40 MLOAD DUP1 DUP4 SUB DUP2 PUSH0 DUP8 GAS CALL ISZERO DUP1 ISZERO PUSH2 0x545 JUMPI RETURNDATASIZE PUSH0 DUP1 RETURNDATACOPY RETURNDATASIZE PUSH0 REVERT JUMPDEST POP POP POP POP PUSH1 0x40 MLOAD RETURNDATASIZE PUSH1 0x1F NOT PUSH1 0x1F DUP3 ADD AND DUP3 ADD DUP1 PUSH1 0x40 MSTORE POP DUP2 ADD SWAP1 PUSH2 0x569 SWAP2 SWAP1 PUSH2 0x1ACB JUMP JUMPDEST PUSH1 0x9 DUP2 SWAP1 SSTORE PUSH1 0x40 MLOAD SWAP1 SWAP2 POP PUSH1 0x1 PUSH1 0x1 PUSH1 0xA0 SHL SUB DUP4 AND SWAP1 PUSH32 0x130BF33540470B3A07F23B1164785A20ACD90A150A4A00E976740C8F941C71DB SWAP1 PUSH0 SWAP1 LOG2 POP PUSH2 0x463 PUSH1 0x1 PUSH0 SSTORE JUMP JUMPDEST PUSH0 DUP1 PUSH1 0x1 PUSH1 0x1 PUSH1 0xA0 SHL SUB AND PUSH1 0x3 DUP4 PUSH1 0x40 MLOAD PUSH2 0x5C9 SWAP2 SWAP1 PUSH2 0x1AF9 JUMP JUMPDEST SWAP1 DUP2 MSTORE PUSH1 0x40 MLOAD SWAP1 DUP2 SWAP1 SUB PUSH1 0x20 ADD SWAP1 KECCAK256 SLOAD PUSH1 0x1 PUSH1 0x1 PUSH1 0xA0 SHL SUB AND SUB PUSH2 0x640 JUMPI PUSH1 0x40 MLOAD PUSH3 0x461BCD PUSH1 0xE5 SHL DUP2 MSTORE PUSH1 0x20 PUSH1 0x4 DUP3 ADD MSTORE PUSH1 0x28 PUSH1 0x24 DUP3 ADD MSTORE PUSH32 0x746865206B657920646F6573204E4F5420706F696E7420746F20616E79206465 PUSH1 0x44 DUP3 ADD MSTORE PUSH8 0x70656E64656E6379 PUSH1 0xC0 SHL PUSH1 0x64 DUP3 ADD MSTORE PUSH1 0x84 ADD PUSH2 0x349 JUMP JUMPDEST PUSH1 0x3 DUP3 PUSH1 0x40 MLOAD PUSH2 0x650 SWAP2 SWAP1 PUSH2 0x1AF9 JUMP JUMPDEST SWAP1 DUP2 MSTORE PUSH1 0x40 MLOAD SWAP1 DUP2 SWAP1 SUB PUSH1 0x20 ADD SWAP1 KECCAK256 SLOAD PUSH1 0x1 PUSH1 0x1 PUSH1 0xA0 SHL SUB AND SWAP3 SWAP2 POP POP JUMP JUMPDEST PUSH1 0x8 DUP2 DUP2 SLOAD DUP2 LT PUSH2 0x67E JUMPI PUSH0 DUP1 REVERT JUMPDEST SWAP1 PUSH0 MSTORE PUSH1 0x20 PUSH0 KECCAK256 ADD PUSH0 SWAP2 POP SWAP1 POP DUP1 SLOAD PUSH2 0x696 SWAP1 PUSH2 0x1B04 JUMP JUMPDEST DUP1 PUSH1 0x1F ADD PUSH1 0x20 DUP1 SWAP2 DIV MUL PUSH1 0x20 ADD PUSH1 0x40 MLOAD SWAP1 DUP2 ADD PUSH1 0x40 MSTORE DUP1 SWAP3 SWAP2 SWAP1 DUP2 DUP2 MSTORE PUSH1 0x20 ADD DUP3 DUP1 SLOAD PUSH2 0x6C2 SWAP1 PUSH2 0x1B04 JUMP JUMPDEST DUP1 ISZERO PUSH2 0x70D JUMPI DUP1 PUSH1 0x1F LT PUSH2 0x6E4 JUMPI PUSH2 0x100 DUP1 DUP4 SLOAD DIV MUL DUP4 MSTORE SWAP2 PUSH1 0x20 ADD SWAP2 PUSH2 0x70D JUMP JUMPDEST DUP3 ADD SWAP2 SWAP1 PUSH0 MSTORE PUSH1 0x20 PUSH0 KECCAK256 SWAP1 JUMPDEST DUP2 SLOAD DUP2 MSTORE SWAP1 PUSH1 0x1 ADD SWAP1 PUSH1 0x20 ADD DUP1 DUP4 GT PUSH2 0x6F0 JUMPI DUP3 SWAP1 SUB PUSH1 0x1F AND DUP3 ADD SWAP2 JUMPDEST POP POP POP POP POP DUP2 JUMP JUMPDEST PUSH2 0x71D PUSH2 0x1549 JUMP JUMPDEST PUSH1 0x2 SLOAD PUSH1 0x1 PUSH1 0x1 PUSH1 0xA0 SHL SUB AND PUSH2 0x745 JUMPI PUSH1 0x40 MLOAD PUSH3 0x461BCD PUSH1 0xE5 SHL DUP2 MSTORE PUSH1 0x4 ADD PUSH2 0x349 SWAP1 PUSH2 0x1A88 JUMP JUMPDEST PUSH1 0x9 SLOAD ISZERO PUSH2 0x85C JUMPI PUSH1 0x2 SLOAD PUSH1 0x9 SLOAD PUSH1 0x40 MLOAD PUSH4 0x156A8DCB PUSH1 0xE1 SHL DUP2 MSTORE PUSH1 0x4 DUP2 ADD SWAP2 SWAP1 SWAP2 MSTORE PUSH0 SWAP2 DUP3 SWAP2 DUP3 SWAP2 PUSH1 0x1 PUSH1 0x1 PUSH1 0xA0 SHL SUB AND SWAP1 PUSH4 0x2AD51B96 SWAP1 PUSH1 0x24 ADD PUSH1 0x60 PUSH1 0x40 MLOAD DUP1 DUP4 SUB DUP2 DUP7 GAS STATICCALL ISZERO DUP1 ISZERO PUSH2 0x79C JUMPI RETURNDATASIZE PUSH0 DUP1 RETURNDATACOPY RETURNDATASIZE PUSH0 REVERT JUMPDEST POP POP POP POP PUSH1 0x40 MLOAD RETURNDATASIZE PUSH1 0x1F NOT PUSH1 0x1F DUP3 ADD AND DUP3 ADD DUP1 PUSH1 0x40 MSTORE POP DUP2 ADD SWAP1 PUSH2 0x7C0 SWAP2 SWAP1 PUSH2 0x1B50 JUMP JUMPDEST SWAP3 POP SWAP3 POP SWAP3 POP DUP2 ISZERO PUSH2 0x7D1 JUMPI PUSH0 PUSH1 0x9 SSTORE JUMPDEST DUP2 DUP1 ISZERO PUSH2 0x7DB JUMPI POP DUP1 JUMPDEST ISZERO PUSH2 0x814 JUMPI PUSH1 0x40 MLOAD PUSH1 0x1 PUSH1 0x1 PUSH1 0xA0 SHL SUB DUP5 AND SWAP1 PUSH32 0xE00A5B97742635032504F47F4C4AE13F19DE32BAB9DB317D70CB5820CCE02935 SWAP1 PUSH0 SWAP1 LOG2 JUMPDEST DUP2 DUP1 ISZERO PUSH2 0x81F JUMPI POP DUP1 ISZERO JUMPDEST ISZERO PUSH2 0x858 JUMPI PUSH1 0x40 MLOAD PUSH1 0x1 PUSH1 0x1 PUSH1 0xA0 SHL SUB DUP5 AND SWAP1 PUSH32 0x563BB4859F75835D1CD4855F062E12DB76CC064572739370C11B20510E382D5B SWAP1 PUSH0 SWAP1 LOG2 JUMPDEST POP POP POP JUMPDEST PUSH1 0x8 SLOAD ISZERO PUSH2 0xBE6 JUMPI PUSH1 0x8 SLOAD JUMPDEST DUP1 ISZERO PUSH2 0xBE4 JUMPI PUSH0 PUSH2 0x87A PUSH1 0x1 DUP4 PUSH2 0x1BA6 JUMP JUMPDEST SWAP1 POP PUSH0 PUSH1 0x8 DUP3 DUP2 SLOAD DUP2 LT PUSH2 0x890 JUMPI PUSH2 0x890 PUSH2 0x1BB9 JUMP JUMPDEST SWAP1 PUSH0 MSTORE PUSH1 0x20 PUSH0 KECCAK256 ADD DUP1 SLOAD PUSH2 0x8A3 SWAP1 PUSH2 0x1B04 JUMP JUMPDEST DUP1 PUSH1 0x1F ADD PUSH1 0x20 DUP1 SWAP2 DIV MUL PUSH1 0x20 ADD PUSH1 0x40 MLOAD SWAP1 DUP2 ADD PUSH1 0x40 MSTORE DUP1 SWAP3 SWAP2 SWAP1 DUP2 DUP2 MSTORE PUSH1 0x20 ADD DUP3 DUP1 SLOAD PUSH2 0x8CF SWAP1 PUSH2 0x1B04 JUMP JUMPDEST DUP1 ISZERO PUSH2 0x91A JUMPI DUP1 PUSH1 0x1F LT PUSH2 0x8F1 JUMPI PUSH2 0x100 DUP1 DUP4 SLOAD DIV MUL DUP4 MSTORE SWAP2 PUSH1 0x20 ADD SWAP2 PUSH2 0x91A JUMP JUMPDEST DUP3 ADD SWAP2 SWAP1 PUSH0 MSTORE PUSH1 0x20 PUSH0 KECCAK256 SWAP1 JUMPDEST DUP2 SLOAD DUP2 MSTORE SWAP1 PUSH1 0x1 ADD SWAP1 PUSH1 0x20 ADD DUP1 DUP4 GT PUSH2 0x8FD JUMPI DUP3 SWAP1 SUB PUSH1 0x1F AND DUP3 ADD SWAP2 JUMPDEST POP POP POP POP POP SWAP1 POP PUSH0 PUSH1 0x7 DUP3 PUSH1 0x40 MLOAD PUSH2 0x932 SWAP2 SWAP1 PUSH2 0x1AF9 JUMP JUMPDEST SWAP1 DUP2 MSTORE PUSH1 0x40 MLOAD SWAP1 DUP2 SWAP1 SUB PUSH1 0x20 ADD DUP2 KECCAK256 SLOAD PUSH1 0x2 SLOAD PUSH4 0xB986F179 PUSH1 0xE0 SHL DUP4 MSTORE SWAP1 SWAP3 POP PUSH0 SWAP2 DUP3 SWAP2 PUSH1 0x1 PUSH1 0x1 PUSH1 0xA0 SHL SUB AND SWAP1 PUSH4 0xB986F179 SWAP1 PUSH2 0x978 SWAP1 DUP7 SWAP1 PUSH1 0x4 ADD SWAP1 DUP2 MSTORE PUSH1 0x20 ADD SWAP1 JUMP JUMPDEST PUSH1 0x40 DUP1 MLOAD DUP1 DUP4 SUB DUP2 DUP7 GAS STATICCALL ISZERO DUP1 ISZERO PUSH2 0x992 JUMPI RETURNDATASIZE PUSH0 DUP1 RETURNDATACOPY RETURNDATASIZE PUSH0 REVERT JUMPDEST POP POP POP POP PUSH1 0x40 MLOAD RETURNDATASIZE PUSH1 0x1F NOT PUSH1 0x1F DUP3 ADD AND DUP3 ADD DUP1 PUSH1 0x40 MSTORE POP DUP2 ADD SWAP1 PUSH2 0x9B6 SWAP2 SWAP1 PUSH2 0x1BCD JUMP JUMPDEST SWAP2 POP SWAP2 POP DUP2 PUSH2 0x9C9 JUMPI POP POP POP POP POP PUSH2 0xBD2 JUMP JUMPDEST PUSH0 PUSH1 0x3 DUP6 PUSH1 0x40 MLOAD PUSH2 0x9DA SWAP2 SWAP1 PUSH2 0x1AF9 JUMP JUMPDEST SWAP1 DUP2 MSTORE PUSH1 0x40 MLOAD SWAP1 DUP2 SWAP1 SUB PUSH1 0x20 ADD SWAP1 KECCAK256 SLOAD PUSH1 0x1 PUSH1 0x1 PUSH1 0xA0 SHL SUB AND SWAP1 POP DUP2 ISZERO PUSH2 0xAE6 JUMPI PUSH1 0x3 DUP6 PUSH1 0x40 MLOAD PUSH2 0xA0B SWAP2 SWAP1 PUSH2 0x1AF9 JUMP JUMPDEST SWAP1 DUP2 MSTORE PUSH1 0x40 MLOAD SWAP1 DUP2 SWAP1 SUB PUSH1 0x20 ADD SWAP1 KECCAK256 DUP1 SLOAD PUSH1 0x1 PUSH1 0x1 PUSH1 0xA0 SHL SUB NOT AND SWAP1 SSTORE PUSH1 0x4 DUP1 SLOAD PUSH2 0xA38 SWAP1 PUSH1 0x1 SWAP1 PUSH2 0x1BA6 JUMP JUMPDEST DUP2 SLOAD DUP2 LT PUSH2 0xA48 JUMPI PUSH2 0xA48 PUSH2 0x1BB9 JUMP JUMPDEST SWAP1 PUSH0 MSTORE PUSH1 0x20 PUSH0 KECCAK256 ADD PUSH1 0x4 DUP8 DUP2 SLOAD DUP2 LT PUSH2 0xA63 JUMPI PUSH2 0xA63 PUSH2 0x1BB9 JUMP JUMPDEST SWAP1 PUSH0 MSTORE PUSH1 0x20 PUSH0 KECCAK256 ADD SWAP1 DUP2 PUSH2 0xA77 SWAP2 SWAP1 PUSH2 0x1C4A JUMP JUMPDEST POP PUSH1 0x4 DUP1 SLOAD DUP1 PUSH2 0xA89 JUMPI PUSH2 0xA89 PUSH2 0x1D22 JUMP JUMPDEST PUSH1 0x1 SWAP1 SUB DUP2 DUP2 SWAP1 PUSH0 MSTORE PUSH1 0x20 PUSH0 KECCAK256 ADD PUSH0 PUSH2 0xAA2 SWAP2 SWAP1 PUSH2 0x1782 JUMP JUMPDEST SWAP1 SSTORE DUP1 PUSH1 0x1 PUSH1 0x1 PUSH1 0xA0 SHL SUB AND PUSH32 0x82AA94D0384F3FE5D924376CF325AFCFF8195F30F42758AE710193C432F24AC1 DUP7 PUSH1 0x40 MLOAD PUSH2 0xADD SWAP2 SWAP1 PUSH2 0x1923 JUMP JUMPDEST PUSH1 0x40 MLOAD DUP1 SWAP2 SUB SWAP1 LOG2 JUMPDEST DUP2 PUSH2 0xB2D JUMPI DUP1 PUSH1 0x1 PUSH1 0x1 PUSH1 0xA0 SHL SUB AND PUSH32 0x402A83BDAD8CEF946824820B268607AEC7303DE64E88533B0BD7EE57A577B954 DUP7 PUSH1 0x40 MLOAD PUSH2 0xB24 SWAP2 SWAP1 PUSH2 0x1923 JUMP JUMPDEST PUSH1 0x40 MLOAD DUP1 SWAP2 SUB SWAP1 LOG2 JUMPDEST PUSH1 0x7 DUP6 PUSH1 0x40 MLOAD PUSH2 0xB3D SWAP2 SWAP1 PUSH2 0x1AF9 JUMP JUMPDEST SWAP1 DUP2 MSTORE PUSH1 0x40 MLOAD SWAP1 DUP2 SWAP1 SUB PUSH1 0x20 ADD SWAP1 KECCAK256 PUSH0 SWAP1 SSTORE PUSH1 0x8 DUP1 SLOAD PUSH2 0xB5F SWAP1 PUSH1 0x1 SWAP1 PUSH2 0x1BA6 JUMP JUMPDEST DUP2 SLOAD DUP2 LT PUSH2 0xB6F JUMPI PUSH2 0xB6F PUSH2 0x1BB9 JUMP JUMPDEST SWAP1 PUSH0 MSTORE PUSH1 0x20 PUSH0 KECCAK256 ADD PUSH1 0x8 DUP8 DUP2 SLOAD DUP2 LT PUSH2 0xB8A JUMPI PUSH2 0xB8A PUSH2 0x1BB9 JUMP JUMPDEST SWAP1 PUSH0 MSTORE PUSH1 0x20 PUSH0 KECCAK256 ADD SWAP1 DUP2 PUSH2 0xB9E SWAP2 SWAP1 PUSH2 0x1C4A JUMP JUMPDEST POP PUSH1 0x8 DUP1 SLOAD DUP1 PUSH2 0xBB0 JUMPI PUSH2 0xBB0 PUSH2 0x1D22 JUMP JUMPDEST PUSH1 0x1 SWAP1 SUB DUP2 DUP2 SWAP1 PUSH0 MSTORE PUSH1 0x20 PUSH0 KECCAK256 ADD PUSH0 PUSH2 0xBC9 SWAP2 SWAP1 PUSH2 0x1782 JUMP JUMPDEST SWAP1 SSTORE POP POP POP POP POP POP JUMPDEST DUP1 PUSH2 0xBDC DUP2 PUSH2 0x1D36 JUMP JUMPDEST SWAP2 POP POP PUSH2 0x868 JUMP JUMPDEST POP JUMPDEST PUSH1 0x6 SLOAD ISZERO PUSH2 0xF1F JUMPI PUSH1 0x6 SLOAD JUMPDEST DUP1 ISZERO PUSH2 0xF1D JUMPI PUSH0 PUSH2 0xC04 PUSH1 0x1 DUP4 PUSH2 0x1BA6 JUMP JUMPDEST SWAP1 POP PUSH0 PUSH1 0x6 DUP3 DUP2 SLOAD DUP2 LT PUSH2 0xC1A JUMPI PUSH2 0xC1A PUSH2 0x1BB9 JUMP JUMPDEST SWAP1 PUSH0 MSTORE PUSH1 0x20 PUSH0 KECCAK256 ADD DUP1 SLOAD PUSH2 0xC2D SWAP1 PUSH2 0x1B04 JUMP JUMPDEST DUP1 PUSH1 0x1F ADD PUSH1 0x20 DUP1 SWAP2 DIV MUL PUSH1 0x20 ADD PUSH1 0x40 MLOAD SWAP1 DUP2 ADD PUSH1 0x40 MSTORE DUP1 SWAP3 SWAP2 SWAP1 DUP2 DUP2 MSTORE PUSH1 0x20 ADD DUP3 DUP1 SLOAD PUSH2 0xC59 SWAP1 PUSH2 0x1B04 JUMP JUMPDEST DUP1 ISZERO PUSH2 0xCA4 JUMPI DUP1 PUSH1 0x1F LT PUSH2 0xC7B JUMPI PUSH2 0x100 DUP1 DUP4 SLOAD DIV MUL DUP4 MSTORE SWAP2 PUSH1 0x20 ADD SWAP2 PUSH2 0xCA4 JUMP JUMPDEST DUP3 ADD SWAP2 SWAP1 PUSH0 MSTORE PUSH1 0x20 PUSH0 KECCAK256 SWAP1 JUMPDEST DUP2 SLOAD DUP2 MSTORE SWAP1 PUSH1 0x1 ADD SWAP1 PUSH1 0x20 ADD DUP1 DUP4 GT PUSH2 0xC87 JUMPI DUP3 SWAP1 SUB PUSH1 0x1F AND DUP3 ADD SWAP2 JUMPDEST POP POP POP POP POP SWAP1 POP PUSH0 PUSH1 0x5 DUP3 PUSH1 0x40 MLOAD PUSH2 0xCBC SWAP2 SWAP1 PUSH2 0x1AF9 JUMP JUMPDEST SWAP1 DUP2 MSTORE PUSH1 0x40 MLOAD SWAP1 DUP2 SWAP1 SUB PUSH1 0x20 ADD DUP2 KECCAK256 SLOAD PUSH1 0x2 SLOAD PUSH4 0x4F6E1B27 PUSH1 0xE0 SHL DUP4 MSTORE SWAP1 SWAP3 POP PUSH0 SWAP2 DUP3 SWAP2 DUP3 SWAP2 PUSH1 0x1 PUSH1 0x1 PUSH1 0xA0 SHL SUB SWAP1 SWAP2 AND SWAP1 PUSH4 0x4F6E1B27 SWAP1 PUSH2 0xD06 SWAP1 DUP8 SWAP1 PUSH1 0x4 ADD SWAP1 DUP2 MSTORE PUSH1 0x20 ADD SWAP1 JUMP JUMPDEST PUSH1 0x60 PUSH1 0x40 MLOAD DUP1 DUP4 SUB DUP2 DUP7 GAS STATICCALL ISZERO DUP1 ISZERO PUSH2 0xD21 JUMPI RETURNDATASIZE PUSH0 DUP1 RETURNDATACOPY RETURNDATASIZE PUSH0 REVERT JUMPDEST POP POP POP POP PUSH1 0x40 MLOAD RETURNDATASIZE PUSH1 0x1F NOT PUSH1 0x1F DUP3 ADD AND DUP3 ADD DUP1 PUSH1 0x40 MSTORE POP DUP2 ADD SWAP1 PUSH2 0xD45 SWAP2 SWAP1 PUSH2 0x1B50 JUMP JUMPDEST SWAP3 POP SWAP3 POP SWAP3 POP DUP2 PUSH2 0xD5B JUMPI POP POP POP POP POP POP PUSH2 0xF0B JUMP JUMPDEST DUP1 ISZERO PUSH2 0xE1F JUMPI DUP3 PUSH1 0x3 DUP7 PUSH1 0x40 MLOAD PUSH2 0xD72 SWAP2 SWAP1 PUSH2 0x1AF9 JUMP JUMPDEST SWAP1 DUP2 MSTORE PUSH1 0x40 MLOAD SWAP1 DUP2 SWAP1 SUB PUSH1 0x20 ADD SWAP1 KECCAK256 DUP1 SLOAD PUSH1 0x1 PUSH1 0x1 PUSH1 0xA0 SHL SUB SWAP3 SWAP1 SWAP3 AND PUSH1 0x1 PUSH1 0x1 PUSH1 0xA0 SHL SUB NOT SWAP1 SWAP3 AND SWAP2 SWAP1 SWAP2 OR SWAP1 SSTORE PUSH1 0x4 DUP1 SLOAD PUSH1 0x1 DUP2 ADD DUP3 SSTORE PUSH0 SWAP2 SWAP1 SWAP2 MSTORE PUSH32 0x8A35ACFBC15FF81A39AE7D344FD709F28E8600B4AA8C65C6B64BFE7FE36BD19B ADD PUSH2 0xDDC DUP7 DUP3 PUSH2 0x1D4B JUMP JUMPDEST POP DUP3 PUSH1 0x1 PUSH1 0x1 PUSH1 0xA0 SHL SUB AND PUSH32 0x8281F4653EA8E6BA47F1EBEEB1C7E17291003D7E8247666D4D1C46124920BFE6 DUP7 PUSH1 0x40 MLOAD PUSH2 0xE16 SWAP2 SWAP1 PUSH2 0x1923 JUMP JUMPDEST PUSH1 0x40 MLOAD DUP1 SWAP2 SUB SWAP1 LOG2 JUMPDEST DUP1 PUSH2 0xE66 JUMPI DUP3 PUSH1 0x1 PUSH1 0x1 PUSH1 0xA0 SHL SUB AND PUSH32 0xC4425EBA3FDC6AAF1C08B8892B7B7B5FDCA047F984A94148A7C547E0FAAC2BD3 DUP7 PUSH1 0x40 MLOAD PUSH2 0xE5D SWAP2 SWAP1 PUSH2 0x1923 JUMP JUMPDEST PUSH1 0x40 MLOAD DUP1 SWAP2 SUB SWAP1 LOG2 JUMPDEST PUSH1 0x5 DUP6 PUSH1 0x40 MLOAD PUSH2 0xE76 SWAP2 SWAP1 PUSH2 0x1AF9 JUMP JUMPDEST SWAP1 DUP2 MSTORE PUSH1 0x40 MLOAD SWAP1 DUP2 SWAP1 SUB PUSH1 0x20 ADD SWAP1 KECCAK256 PUSH0 SWAP1 SSTORE PUSH1 0x6 DUP1 SLOAD PUSH2 0xE98 SWAP1 PUSH1 0x1 SWAP1 PUSH2 0x1BA6 JUMP JUMPDEST DUP2 SLOAD DUP2 LT PUSH2 0xEA8 JUMPI PUSH2 0xEA8 PUSH2 0x1BB9 JUMP JUMPDEST SWAP1 PUSH0 MSTORE PUSH1 0x20 PUSH0 KECCAK256 ADD PUSH1 0x6 DUP8 DUP2 SLOAD DUP2 LT PUSH2 0xEC3 JUMPI PUSH2 0xEC3 PUSH2 0x1BB9 JUMP JUMPDEST SWAP1 PUSH0 MSTORE PUSH1 0x20 PUSH0 KECCAK256 ADD SWAP1 DUP2 PUSH2 0xED7 SWAP2 SWAP1 PUSH2 0x1C4A JUMP JUMPDEST POP PUSH1 0x6 DUP1 SLOAD DUP1 PUSH2 0xEE9 JUMPI PUSH2 0xEE9 PUSH2 0x1D22 JUMP JUMPDEST PUSH1 0x1 SWAP1 SUB DUP2 DUP2 SWAP1 PUSH0 MSTORE PUSH1 0x20 PUSH0 KECCAK256 ADD PUSH0 PUSH2 0xF02 SWAP2 SWAP1 PUSH2 0x1782 JUMP JUMPDEST SWAP1 SSTORE POP POP POP POP POP POP JUMPDEST DUP1 PUSH2 0xF15 DUP2 PUSH2 0x1D36 JUMP JUMPDEST SWAP2 POP POP PUSH2 0xBF2 JUMP JUMPDEST POP JUMPDEST PUSH2 0xF28 PUSH1 0x1 PUSH0 SSTORE JUMP JUMPDEST JUMP JUMPDEST PUSH1 0x6 DUP2 DUP2 SLOAD DUP2 LT PUSH2 0x67E JUMPI PUSH0 DUP1 REVERT JUMPDEST PUSH2 0xF41 PUSH2 0x1549 JUMP JUMPDEST PUSH1 0x2 SLOAD PUSH1 0x1 PUSH1 0x1 PUSH1 0xA0 SHL SUB AND PUSH2 0xF69 JUMPI PUSH1 0x40 MLOAD PUSH3 0x461BCD PUSH1 0xE5 SHL DUP2 MSTORE PUSH1 0x4 ADD PUSH2 0x349 SWAP1 PUSH2 0x1A88 JUMP JUMPDEST PUSH1 0x1 PUSH1 0x1 PUSH1 0xA0 SHL SUB DUP2 AND PUSH2 0xFBF JUMPI PUSH1 0x40 MLOAD PUSH3 0x461BCD PUSH1 0xE5 SHL DUP2 MSTORE PUSH1 0x20 PUSH1 0x4 DUP3 ADD MSTORE PUSH1 0x1F PUSH1 0x24 DUP3 ADD MSTORE PUSH32 0x74686520636F6E74726163742061646472657373206973206E6F742073657400 PUSH1 0x44 DUP3 ADD MSTORE PUSH1 0x64 ADD PUSH2 0x349 JUMP JUMPDEST PUSH1 0x2 SLOAD PUSH1 0x40 MLOAD PUSH4 0xEACD1D5 PUSH1 0xE1 SHL DUP2 MSTORE PUSH0 SWAP2 PUSH1 0x1 PUSH1 0x1 PUSH1 0xA0 SHL SUB AND SWAP1 PUSH4 0x1D59A3AA SWAP1 PUSH2 0xFF1 SWAP1 DUP7 SWAP1 DUP7 SWAP1 PUSH1 0x4 ADD PUSH2 0x1DFE JUMP JUMPDEST PUSH1 0x20 PUSH1 0x40 MLOAD DUP1 DUP4 SUB DUP2 PUSH0 DUP8 GAS CALL ISZERO DUP1 ISZERO PUSH2 0x100D JUMPI RETURNDATASIZE PUSH0 DUP1 RETURNDATACOPY RETURNDATASIZE PUSH0 REVERT JUMPDEST POP POP POP POP PUSH1 0x40 MLOAD RETURNDATASIZE PUSH1 0x1F NOT PUSH1 0x1F DUP3 ADD AND DUP3 ADD DUP1 PUSH1 0x40 MSTORE POP DUP2 ADD SWAP1 PUSH2 0x1031 SWAP2 SWAP1 PUSH2 0x1ACB JUMP JUMPDEST SWAP1 POP PUSH1 0x5 DUP4 PUSH1 0x40 MLOAD PUSH2 0x1043 SWAP2 SWAP1 PUSH2 0x1AF9 JUMP JUMPDEST SWAP1 DUP2 MSTORE PUSH1 0x20 ADD PUSH1 0x40 MLOAD DUP1 SWAP2 SUB SWAP1 KECCAK256 SLOAD PUSH0 EQ PUSH2 0x10A0 JUMPI PUSH1 0x40 MLOAD PUSH3 0x461BCD PUSH1 0xE5 SHL DUP2 MSTORE PUSH1 0x20 PUSH1 0x4 DUP3 ADD DUP2 SWAP1 MSTORE PUSH1 0x24 DUP3 ADD MSTORE PUSH32 0x74686520646570656E64656E637920616C726561647920726571756573746564 PUSH1 0x44 DUP3 ADD MSTORE PUSH1 0x64 ADD PUSH2 0x349 JUMP JUMPDEST DUP1 PUSH1 0x5 DUP5 PUSH1 0x40 MLOAD PUSH2 0x10B1 SWAP2 SWAP1 PUSH2 0x1AF9 JUMP JUMPDEST SWAP1 DUP2 MSTORE PUSH1 0x40 MLOAD SWAP1 DUP2 SWAP1 SUB PUSH1 0x20 ADD SWAP1 KECCAK256 SSTORE PUSH1 0x6 DUP1 SLOAD PUSH1 0x1 DUP2 ADD DUP3 SSTORE PUSH0 SWAP2 SWAP1 SWAP2 MSTORE PUSH32 0xF652222313E28459528D920B65115C16C04F3EFC82AAEDC97BE59F3F377C0D3F ADD PUSH2 0x10FC DUP5 DUP3 PUSH2 0x1D4B JUMP JUMPDEST POP DUP2 PUSH1 0x1 PUSH1 0x1 PUSH1 0xA0 SHL SUB AND PUSH32 0x7A561791A5E256AAC8E189115CA0E37A81457D0FC3FACECEB7D1C4907DD55A3A DUP5 PUSH1 0x40 MLOAD PUSH2 0x1136 SWAP2 SWAP1 PUSH2 0x1923 JUMP JUMPDEST PUSH1 0x40 MLOAD DUP1 SWAP2 SUB SWAP1 LOG2 POP PUSH2 0x1148 PUSH1 0x1 PUSH0 SSTORE JUMP JUMPDEST POP POP JUMP JUMPDEST PUSH1 0x60 PUSH2 0x1156 PUSH2 0x1549 JUMP JUMPDEST PUSH0 PUSH2 0x1160 DUP6 PUSH2 0x1571 JUMP JUMPDEST DUP5 MLOAD PUSH1 0x20 DUP7 ADD KECCAK256 SWAP1 SWAP2 POP PUSH2 0x1175 DUP3 DUP3 DUP7 PUSH2 0x1603 JUMP JUMPDEST SWAP3 POP POP POP PUSH2 0x1182 PUSH1 0x1 PUSH0 SSTORE JUMP JUMPDEST SWAP4 SWAP3 POP POP POP JUMP JUMPDEST PUSH1 0x60 PUSH1 0x6 DUP1 SLOAD DUP1 PUSH1 0x20 MUL PUSH1 0x20 ADD PUSH1 0x40 MLOAD SWAP1 DUP2 ADD PUSH1 0x40 MSTORE DUP1 SWAP3 SWAP2 SWAP1 DUP2 DUP2 MSTORE PUSH1 0x20 ADD PUSH0 SWAP1 JUMPDEST DUP3 DUP3 LT ISZERO PUSH2 0x1254 JUMPI DUP4 DUP3 SWAP1 PUSH0 MSTORE PUSH1 0x20 PUSH0 KECCAK256 ADD DUP1 SLOAD PUSH2 0x11C9 SWAP1 PUSH2 0x1B04 JUMP JUMPDEST DUP1 PUSH1 0x1F ADD PUSH1 0x20 DUP1 SWAP2 DIV MUL PUSH1 0x20 ADD PUSH1 0x40 MLOAD SWAP1 DUP2 ADD PUSH1 0x40 MSTORE DUP1 SWAP3 SWAP2 SWAP1 DUP2 DUP2 MSTORE PUSH1 0x20 ADD DUP3 DUP1 SLOAD PUSH2 0x11F5 SWAP1 PUSH2 0x1B04 JUMP JUMPDEST DUP1 ISZERO PUSH2 0x1240 JUMPI DUP1 PUSH1 0x1F LT PUSH2 0x1217 JUMPI PUSH2 0x100 DUP1 DUP4 SLOAD DIV MUL DUP4 MSTORE SWAP2 PUSH1 0x20 ADD SWAP2 PUSH2 0x1240 JUMP JUMPDEST DUP3 ADD SWAP2 SWAP1 PUSH0 MSTORE PUSH1 0x20 PUSH0 KECCAK256 SWAP1 JUMPDEST DUP2 SLOAD DUP2 MSTORE SWAP1 PUSH1 0x1 ADD SWAP1 PUSH1 0x20 ADD DUP1 DUP4 GT PUSH2 0x1223 JUMPI DUP3 SWAP1 SUB PUSH1 0x1F AND DUP3 ADD SWAP2 JUMPDEST POP POP POP POP POP DUP2 MSTORE PUSH1 0x20 ADD SWAP1 PUSH1 0x1 ADD SWAP1 PUSH2 0x11AC JUMP JUMPDEST POP POP POP POP SWAP1 POP SWAP1 JUMP JUMPDEST PUSH1 0x60 PUSH1 0x4 DUP1 SLOAD DUP1 PUSH1 0x20 MUL PUSH1 0x20 ADD PUSH1 0x40 MLOAD SWAP1 DUP2 ADD PUSH1 0x40 MSTORE DUP1 SWAP3 SWAP2 SWAP1 DUP2 DUP2 MSTORE PUSH1 0x20 ADD PUSH0 SWAP1 JUMPDEST DUP3 DUP3 LT ISZERO PUSH2 0x1254 JUMPI DUP4 DUP3 SWAP1 PUSH0 MSTORE PUSH1 0x20 PUSH0 KECCAK256 ADD DUP1 SLOAD PUSH2 0x129D SWAP1 PUSH2 0x1B04 JUMP JUMPDEST DUP1 PUSH1 0x1F ADD PUSH1 0x20 DUP1 SWAP2 DIV MUL PUSH1 0x20 ADD PUSH1 0x40 MLOAD SWAP1 DUP2 ADD PUSH1 0x40 MSTORE DUP1 SWAP3 SWAP2 SWAP1 DUP2 DUP2 MSTORE PUSH1 0x20 ADD DUP3 DUP1 SLOAD PUSH2 0x12C9 SWAP1 PUSH2 0x1B04 JUMP JUMPDEST DUP1 ISZERO PUSH2 0x1314 JUMPI DUP1 PUSH1 0x1F LT PUSH2 0x12EB JUMPI PUSH2 0x100 DUP1 DUP4 SLOAD DIV MUL DUP4 MSTORE SWAP2 PUSH1 0x20 ADD SWAP2 PUSH2 0x1314 JUMP JUMPDEST DUP3 ADD SWAP2 SWAP1 PUSH0 MSTORE PUSH1 0x20 PUSH0 KECCAK256 SWAP1 JUMPDEST DUP2 SLOAD DUP2 MSTORE SWAP1 PUSH1 0x1 ADD SWAP1 PUSH1 0x20 ADD DUP1 DUP4 GT PUSH2 0x12F7 JUMPI DUP3 SWAP1 SUB PUSH1 0x1F AND DUP3 ADD SWAP2 JUMPDEST POP POP POP POP POP DUP2 MSTORE PUSH1 0x20 ADD SWAP1 PUSH1 0x1 ADD SWAP1 PUSH2 0x1280 JUMP JUMPDEST PUSH1 0x4 DUP2 DUP2 SLOAD DUP2 LT PUSH2 0x67E JUMPI PUSH0 DUP1 REVERT JUMPDEST PUSH2 0x133F PUSH2 0x1549 JUMP JUMPDEST PUSH1 0x2 SLOAD PUSH1 0x1 PUSH1 0x1 PUSH1 0xA0 SHL SUB AND PUSH2 0x1367 JUMPI PUSH1 0x40 MLOAD PUSH3 0x461BCD PUSH1 0xE5 SHL DUP2 MSTORE PUSH1 0x4 ADD PUSH2 0x349 SWAP1 PUSH2 0x1A88 JUMP JUMPDEST PUSH1 0x1 PUSH1 0x1 PUSH1 0xA0 SHL SUB DUP2 AND PUSH2 0x13BD JUMPI PUSH1 0x40 MLOAD PUSH3 0x461BCD PUSH1 0xE5 SHL DUP2 MSTORE PUSH1 0x20 PUSH1 0x4 DUP3 ADD MSTORE PUSH1 0x1F PUSH1 0x24 DUP3 ADD MSTORE PUSH32 0x74686520636F6E74726163742061646472657373206973206E6F742073657400 PUSH1 0x44 DUP3 ADD MSTORE PUSH1 0x64 ADD PUSH2 0x349 JUMP JUMPDEST PUSH1 0x2 SLOAD PUSH1 0x40 MLOAD PUSH4 0x7EC4043 PUSH1 0xE0 SHL DUP2 MSTORE PUSH0 SWAP2 PUSH1 0x1 PUSH1 0x1 PUSH1 0xA0 SHL SUB AND SWAP1 PUSH4 0x7EC4043 SWAP1 PUSH2 0x13EF SWAP1 DUP7 SWAP1 DUP7 SWAP1 PUSH1 0x4 ADD PUSH2 0x1DFE JUMP JUMPDEST PUSH1 0x20 PUSH1 0x40 MLOAD DUP1 DUP4 SUB DUP2 PUSH0 DUP8 GAS CALL ISZERO DUP1 ISZERO PUSH2 0x140B JUMPI RETURNDATASIZE PUSH0 DUP1 RETURNDATACOPY RETURNDATASIZE PUSH0 REVERT JUMPDEST POP POP POP POP PUSH1 0x40 MLOAD RETURNDATASIZE PUSH1 0x1F NOT PUSH1 0x1F DUP3 ADD AND DUP3 ADD DUP1 PUSH1 0x40 MSTORE POP DUP2 ADD SWAP1 PUSH2 0x142F SWAP2 SWAP1 PUSH2 0x1ACB JUMP JUMPDEST SWAP1 POP PUSH1 0x7 DUP4 PUSH1 0x40 MLOAD PUSH2 0x1441 SWAP2 SWAP1 PUSH2 0x1AF9 JUMP JUMPDEST SWAP1 DUP2 MSTORE PUSH1 0x20 ADD PUSH1 0x40 MLOAD DUP1 SWAP2 SUB SWAP1 KECCAK256 SLOAD PUSH0 EQ PUSH2 0x14B3 JUMPI PUSH1 0x40 MLOAD PUSH3 0x461BCD PUSH1 0xE5 SHL DUP2 MSTORE PUSH1 0x20 PUSH1 0x4 DUP3 ADD MSTORE PUSH1 0x2C PUSH1 0x24 DUP3 ADD MSTORE PUSH32 0x74686520646570656E64656E637920616C726561647920726571756573746564 PUSH1 0x44 DUP3 ADD MSTORE PUSH12 0x8199BDC881C995B5BDD985B PUSH1 0xA2 SHL PUSH1 0x64 DUP3 ADD MSTORE PUSH1 0x84 ADD PUSH2 0x349 JUMP JUMPDEST DUP1 PUSH1 0x7 DUP5 PUSH1 0x40 MLOAD PUSH2 0x14C4 SWAP2 SWAP1 PUSH2 0x1AF9 JUMP JUMPDEST SWAP1 DUP2 MSTORE PUSH1 0x40 MLOAD SWAP1 DUP2 SWAP1 SUB PUSH1 0x20 ADD SWAP1 KECCAK256 SSTORE PUSH1 0x8 DUP1 SLOAD PUSH1 0x1 DUP2 ADD DUP3 SSTORE PUSH0 SWAP2 SWAP1 SWAP2 MSTORE PUSH32 0xF3F7A9FE364FAAB93B216DA50A3214154F22A0A2B415B23A84C8169E8B636EE3 ADD PUSH2 0x150F DUP5 DUP3 PUSH2 0x1D4B JUMP JUMPDEST POP DUP2 PUSH1 0x1 PUSH1 0x1 PUSH1 0xA0 SHL SUB AND PUSH32 0x4591E03D87E58E2EFF46633BCA8ADFB3336F94CED41A61A4E33D3E061FD0E960 DUP5 PUSH1 0x40 MLOAD PUSH2 0x1136 SWAP2 SWAP1 PUSH2 0x1923 JUMP JUMPDEST PUSH1 0x2 PUSH0 SLOAD SUB PUSH2 0x156B JUMPI PUSH1 0x40 MLOAD PUSH4 0x3EE5AEB5 PUSH1 0xE0 SHL DUP2 MSTORE PUSH1 0x4 ADD PUSH1 0x40 MLOAD DUP1 SWAP2 SUB SWAP1 REVERT JUMPDEST PUSH1 0x2 PUSH0 SSTORE JUMP JUMPDEST PUSH0 DUP1 PUSH1 0x1 PUSH1 0x1 PUSH1 0xA0 SHL SUB AND PUSH1 0x3 DUP4 PUSH1 0x40 MLOAD PUSH2 0x158C SWAP2 SWAP1 PUSH2 0x1AF9 JUMP JUMPDEST SWAP1 DUP2 MSTORE PUSH1 0x40 MLOAD SWAP1 DUP2 SWAP1 SUB PUSH1 0x20 ADD SWAP1 KECCAK256 SLOAD PUSH1 0x1 PUSH1 0x1 PUSH1 0xA0 SHL SUB AND SUB PUSH2 0x640 JUMPI PUSH1 0x40 MLOAD PUSH3 0x461BCD PUSH1 0xE5 SHL DUP2 MSTORE PUSH1 0x20 PUSH1 0x4 DUP3 ADD MSTORE PUSH1 0x28 PUSH1 0x24 DUP3 ADD MSTORE PUSH32 0x546865206B657920646F6573204E4F5420706F696E7420746F20616E79206465 PUSH1 0x44 DUP3 ADD MSTORE PUSH8 0x70656E64656E6379 PUSH1 0xC0 SHL PUSH1 0x64 DUP3 ADD MSTORE PUSH1 0x84 ADD PUSH2 0x349 JUMP JUMPDEST PUSH1 0x60 PUSH0 DUP4 DUP4 PUSH1 0x40 MLOAD PUSH1 0x20 ADD PUSH2 0x1619 SWAP3 SWAP2 SWAP1 PUSH2 0x1E27 JUMP JUMPDEST PUSH1 0x40 DUP1 MLOAD PUSH1 0x1F NOT DUP2 DUP5 SUB ADD DUP2 MSTORE SWAP2 SWAP1 MSTORE SWAP1 POP PUSH2 0x163E PUSH1 0x1 PUSH1 0x1 PUSH1 0xA0 SHL SUB DUP7 AND DUP3 PUSH2 0x1647 JUMP JUMPDEST SWAP6 SWAP5 POP POP POP POP POP JUMP JUMPDEST PUSH1 0x60 PUSH2 0x1654 DUP4 DUP4 PUSH0 PUSH2 0x165D JUMP JUMPDEST SWAP1 POP JUMPDEST SWAP3 SWAP2 POP POP JUMP JUMPDEST PUSH1 0x60 DUP2 SELFBALANCE LT ISZERO PUSH2 0x1689 JUMPI PUSH1 0x40 MLOAD PUSH4 0xCF479181 PUSH1 0xE0 SHL DUP2 MSTORE SELFBALANCE PUSH1 0x4 DUP3 ADD MSTORE PUSH1 0x24 DUP2 ADD DUP4 SWAP1 MSTORE PUSH1 0x44 ADD PUSH2 0x349 JUMP JUMPDEST PUSH0 DUP1 DUP6 PUSH1 0x1 PUSH1 0x1 PUSH1 0xA0 SHL SUB AND DUP5 DUP7 PUSH1 0x40 MLOAD PUSH2 0x16A4 SWAP2 SWAP1 PUSH2 0x1AF9 JUMP JUMPDEST PUSH0 PUSH1 0x40 MLOAD DUP1 DUP4 SUB DUP2 DUP6 DUP8 GAS CALL SWAP3 POP POP POP RETURNDATASIZE DUP1 PUSH0 DUP2 EQ PUSH2 0x16DE JUMPI PUSH1 0x40 MLOAD SWAP2 POP PUSH1 0x1F NOT PUSH1 0x3F RETURNDATASIZE ADD AND DUP3 ADD PUSH1 0x40 MSTORE RETURNDATASIZE DUP3 MSTORE RETURNDATASIZE PUSH0 PUSH1 0x20 DUP5 ADD RETURNDATACOPY PUSH2 0x16E3 JUMP JUMPDEST PUSH1 0x60 SWAP2 POP JUMPDEST POP SWAP2 POP SWAP2 POP PUSH2 0x16F3 DUP7 DUP4 DUP4 PUSH2 0x16FD JUMP JUMPDEST SWAP7 SWAP6 POP POP POP POP POP POP JUMP JUMPDEST PUSH1 0x60 DUP3 PUSH2 0x1712 JUMPI PUSH2 0x170D DUP3 PUSH2 0x1759 JUMP JUMPDEST PUSH2 0x1182 JUMP JUMPDEST DUP2 MLOAD ISZERO DUP1 ISZERO PUSH2 0x1729 JUMPI POP PUSH1 0x1 PUSH1 0x1 PUSH1 0xA0 SHL SUB DUP5 AND EXTCODESIZE ISZERO JUMPDEST ISZERO PUSH2 0x1752 JUMPI PUSH1 0x40 MLOAD PUSH4 0x9996B315 PUSH1 0xE0 SHL DUP2 MSTORE PUSH1 0x1 PUSH1 0x1 PUSH1 0xA0 SHL SUB DUP6 AND PUSH1 0x4 DUP3 ADD MSTORE PUSH1 0x24 ADD PUSH2 0x349 JUMP JUMPDEST POP DUP1 PUSH2 0x1182 JUMP JUMPDEST DUP1 MLOAD ISZERO PUSH2 0x1769 JUMPI DUP1 MLOAD DUP1 DUP3 PUSH1 0x20 ADD REVERT JUMPDEST PUSH1 0x40 MLOAD PUSH4 0xD6BDA275 PUSH1 0xE0 SHL DUP2 MSTORE PUSH1 0x4 ADD PUSH1 0x40 MLOAD DUP1 SWAP2 SUB SWAP1 REVERT JUMPDEST POP DUP1 SLOAD PUSH2 0x178E SWAP1 PUSH2 0x1B04 JUMP JUMPDEST PUSH0 DUP3 SSTORE DUP1 PUSH1 0x1F LT PUSH2 0x179D JUMPI POP POP JUMP JUMPDEST PUSH1 0x1F ADD PUSH1 0x20 SWAP1 DIV SWAP1 PUSH0 MSTORE PUSH1 0x20 PUSH0 KECCAK256 SWAP1 DUP2 ADD SWAP1 PUSH2 0x463 SWAP2 SWAP1 JUMPDEST DUP1 DUP3 GT ISZERO PUSH2 0x17C8 JUMPI PUSH0 DUP2 SSTORE PUSH1 0x1 ADD PUSH2 0x17B5 JUMP JUMPDEST POP SWAP1 JUMP JUMPDEST PUSH1 0x1 PUSH1 0x1 PUSH1 0xA0 SHL SUB DUP2 AND DUP2 EQ PUSH2 0x463 JUMPI PUSH0 DUP1 REVERT JUMPDEST PUSH0 PUSH1 0x20 DUP3 DUP5 SUB SLT ISZERO PUSH2 0x17F0 JUMPI PUSH0 DUP1 REVERT JUMPDEST DUP2 CALLDATALOAD PUSH2 0x1182 DUP2 PUSH2 0x17CC JUMP JUMPDEST PUSH4 0x4E487B71 PUSH1 0xE0 SHL PUSH0 MSTORE PUSH1 0x41 PUSH1 0x4 MSTORE PUSH1 0x24 PUSH0 REVERT JUMPDEST PUSH0 DUP1 PUSH8 0xFFFFFFFFFFFFFFFF DUP5 GT ISZERO PUSH2 0x1829 JUMPI PUSH2 0x1829 PUSH2 0x17FB JUMP JUMPDEST POP PUSH1 0x40 MLOAD PUSH1 0x1F NOT PUSH1 0x1F DUP6 ADD DUP2 AND PUSH1 0x3F ADD AND DUP2 ADD DUP2 DUP2 LT PUSH8 0xFFFFFFFFFFFFFFFF DUP3 GT OR ISZERO PUSH2 0x1858 JUMPI PUSH2 0x1858 PUSH2 0x17FB JUMP JUMPDEST PUSH1 0x40 MSTORE DUP4 DUP2 MSTORE SWAP1 POP DUP1 DUP3 DUP5 ADD DUP6 LT ISZERO PUSH2 0x186F JUMPI PUSH0 DUP1 REVERT JUMPDEST DUP4 DUP4 PUSH1 0x20 DUP4 ADD CALLDATACOPY PUSH0 PUSH1 0x20 DUP6 DUP4 ADD ADD MSTORE POP SWAP4 SWAP3 POP POP POP JUMP JUMPDEST PUSH0 DUP3 PUSH1 0x1F DUP4 ADD SLT PUSH2 0x1895 JUMPI PUSH0 DUP1 REVERT JUMPDEST PUSH2 0x1654 DUP4 DUP4 CALLDATALOAD PUSH1 0x20 DUP6 ADD PUSH2 0x180F JUMP JUMPDEST PUSH0 PUSH1 0x20 DUP3 DUP5 SUB SLT ISZERO PUSH2 0x18B4 JUMPI PUSH0 DUP1 REVERT JUMPDEST DUP2 CALLDATALOAD PUSH8 0xFFFFFFFFFFFFFFFF DUP2 GT ISZERO PUSH2 0x18CA JUMPI PUSH0 DUP1 REVERT JUMPDEST PUSH2 0x18D6 DUP5 DUP3 DUP6 ADD PUSH2 0x1886 JUMP JUMPDEST SWAP5 SWAP4 POP POP POP POP JUMP JUMPDEST PUSH0 PUSH1 0x20 DUP3 DUP5 SUB SLT ISZERO PUSH2 0x18EE JUMPI PUSH0 DUP1 REVERT JUMPDEST POP CALLDATALOAD SWAP2 SWAP1 POP JUMP JUMPDEST PUSH0 DUP2 MLOAD DUP1 DUP5 MSTORE DUP1 PUSH1 0x20 DUP5 ADD PUSH1 0x20 DUP7 ADD MCOPY PUSH0 PUSH1 0x20 DUP3 DUP7 ADD ADD MSTORE PUSH1 0x20 PUSH1 0x1F NOT PUSH1 0x1F DUP4 ADD AND DUP6 ADD ADD SWAP2 POP POP SWAP3 SWAP2 POP POP JUMP JUMPDEST PUSH1 0x20 DUP2 MSTORE PUSH0 PUSH2 0x1654 PUSH1 0x20 DUP4 ADD DUP5 PUSH2 0x18F5 JUMP JUMPDEST PUSH0 DUP1 PUSH1 0x40 DUP4 DUP6 SUB SLT ISZERO PUSH2 0x1946 JUMPI PUSH0 DUP1 REVERT JUMPDEST DUP3 CALLDATALOAD PUSH8 0xFFFFFFFFFFFFFFFF DUP2 GT ISZERO PUSH2 0x195C JUMPI PUSH0 DUP1 REVERT JUMPDEST PUSH2 0x1968 DUP6 DUP3 DUP7 ADD PUSH2 0x1886 JUMP JUMPDEST SWAP3 POP POP PUSH1 0x20 DUP4 ADD CALLDATALOAD PUSH2 0x1979 DUP2 PUSH2 0x17CC JUMP JUMPDEST DUP1 SWAP2 POP POP SWAP3 POP SWAP3 SWAP1 POP JUMP JUMPDEST PUSH0 DUP1 PUSH0 PUSH1 0x60 DUP5 DUP7 SUB SLT ISZERO PUSH2 0x1996 JUMPI PUSH0 DUP1 REVERT JUMPDEST DUP4 CALLDATALOAD PUSH8 0xFFFFFFFFFFFFFFFF DUP2 GT ISZERO PUSH2 0x19AC JUMPI PUSH0 DUP1 REVERT JUMPDEST PUSH2 0x19B8 DUP7 DUP3 DUP8 ADD PUSH2 0x1886 JUMP JUMPDEST SWAP4 POP POP PUSH1 0x20 DUP5 ADD CALLDATALOAD PUSH8 0xFFFFFFFFFFFFFFFF DUP2 GT ISZERO PUSH2 0x19D4 JUMPI PUSH0 DUP1 REVERT JUMPDEST PUSH2 0x19E0 DUP7 DUP3 DUP8 ADD PUSH2 0x1886 JUMP JUMPDEST SWAP3 POP POP PUSH1 0x40 DUP5 ADD CALLDATALOAD PUSH8 0xFFFFFFFFFFFFFFFF DUP2 GT ISZERO PUSH2 0x19FC JUMPI PUSH0 DUP1 REVERT JUMPDEST DUP5 ADD PUSH1 0x1F DUP2 ADD DUP7 SGT PUSH2 0x1A0C JUMPI PUSH0 DUP1 REVERT JUMPDEST PUSH2 0x1A1B DUP7 DUP3 CALLDATALOAD PUSH1 0x20 DUP5 ADD PUSH2 0x180F JUMP JUMPDEST SWAP2 POP POP SWAP3 POP SWAP3 POP SWAP3 JUMP JUMPDEST PUSH0 PUSH1 0x20 DUP3 ADD PUSH1 0x20 DUP4 MSTORE DUP1 DUP5 MLOAD DUP1 DUP4 MSTORE PUSH1 0x40 DUP6 ADD SWAP2 POP PUSH1 0x40 DUP2 PUSH1 0x5 SHL DUP7 ADD ADD SWAP3 POP PUSH1 0x20 DUP7 ADD PUSH0 JUMPDEST DUP3 DUP2 LT ISZERO PUSH2 0x1A7C JUMPI PUSH1 0x3F NOT DUP8 DUP7 SUB ADD DUP5 MSTORE PUSH2 0x1A67 DUP6 DUP4 MLOAD PUSH2 0x18F5 JUMP JUMPDEST SWAP5 POP PUSH1 0x20 SWAP4 DUP5 ADD SWAP4 SWAP2 SWAP1 SWAP2 ADD SWAP1 PUSH1 0x1 ADD PUSH2 0x1A4B JUMP JUMPDEST POP SWAP3 SWAP7 SWAP6 POP POP POP POP POP POP JUMP JUMPDEST PUSH1 0x20 DUP1 DUP3 MSTORE PUSH1 0x23 SWAP1 DUP3 ADD MSTORE PUSH32 0x74686520646570656E64656E637920726571756573746572206973206E6F7420 PUSH1 0x40 DUP3 ADD MSTORE PUSH3 0x1CD95D PUSH1 0xEA SHL PUSH1 0x60 DUP3 ADD MSTORE PUSH1 0x80 ADD SWAP1 JUMP JUMPDEST PUSH0 PUSH1 0x20 DUP3 DUP5 SUB SLT ISZERO PUSH2 0x1ADB JUMPI PUSH0 DUP1 REVERT JUMPDEST POP MLOAD SWAP2 SWAP1 POP JUMP JUMPDEST PUSH0 DUP2 MLOAD DUP1 PUSH1 0x20 DUP5 ADD DUP6 MCOPY PUSH0 SWAP4 ADD SWAP3 DUP4 MSTORE POP SWAP1 SWAP2 SWAP1 POP JUMP JUMPDEST PUSH0 PUSH2 0x1654 DUP3 DUP5 PUSH2 0x1AE2 JUMP JUMPDEST PUSH1 0x1 DUP2 DUP2 SHR SWAP1 DUP3 AND DUP1 PUSH2 0x1B18 JUMPI PUSH1 0x7F DUP3 AND SWAP2 POP JUMPDEST PUSH1 0x20 DUP3 LT DUP2 SUB PUSH2 0x1B36 JUMPI PUSH4 0x4E487B71 PUSH1 0xE0 SHL PUSH0 MSTORE PUSH1 0x22 PUSH1 0x4 MSTORE PUSH1 0x24 PUSH0 REVERT JUMPDEST POP SWAP2 SWAP1 POP JUMP JUMPDEST DUP1 MLOAD DUP1 ISZERO ISZERO DUP2 EQ PUSH2 0x1B4B JUMPI PUSH0 DUP1 REVERT JUMPDEST SWAP2 SWAP1 POP JUMP JUMPDEST PUSH0 DUP1 PUSH0 PUSH1 0x60 DUP5 DUP7 SUB SLT ISZERO PUSH2 0x1B62 JUMPI PUSH0 DUP1 REVERT JUMPDEST DUP4 MLOAD PUSH2 0x1B6D DUP2 PUSH2 0x17CC JUMP JUMPDEST SWAP3 POP PUSH2 0x1B7B PUSH1 0x20 DUP6 ADD PUSH2 0x1B3C JUMP JUMPDEST SWAP2 POP PUSH2 0x1B89 PUSH1 0x40 DUP6 ADD PUSH2 0x1B3C JUMP JUMPDEST SWAP1 POP SWAP3 POP SWAP3 POP SWAP3 JUMP JUMPDEST PUSH4 0x4E487B71 PUSH1 0xE0 SHL PUSH0 MSTORE PUSH1 0x11 PUSH1 0x4 MSTORE PUSH1 0x24 PUSH0 REVERT JUMPDEST DUP2 DUP2 SUB DUP2 DUP2 GT ISZERO PUSH2 0x1657 JUMPI PUSH2 0x1657 PUSH2 0x1B92 JUMP JUMPDEST PUSH4 0x4E487B71 PUSH1 0xE0 SHL PUSH0 MSTORE PUSH1 0x32 PUSH1 0x4 MSTORE PUSH1 0x24 PUSH0 REVERT JUMPDEST PUSH0 DUP1 PUSH1 0x40 DUP4 DUP6 SUB SLT ISZERO PUSH2 0x1BDE JUMPI PUSH0 DUP1 REVERT JUMPDEST PUSH2 0x1BE7 DUP4 PUSH2 0x1B3C JUMP JUMPDEST SWAP2 POP PUSH2 0x1BF5 PUSH1 0x20 DUP5 ADD PUSH2 0x1B3C JUMP JUMPDEST SWAP1 POP SWAP3 POP SWAP3 SWAP1 POP JUMP JUMPDEST PUSH1 0x1F DUP3 GT ISZERO PUSH2 0x1C45 JUMPI DUP1 PUSH0 MSTORE PUSH1 0x20 PUSH0 KECCAK256 PUSH1 0x1F DUP5 ADD PUSH1 0x5 SHR DUP2 ADD PUSH1 0x20 DUP6 LT ISZERO PUSH2 0x1C23 JUMPI POP DUP1 JUMPDEST PUSH1 0x1F DUP5 ADD PUSH1 0x5 SHR DUP3 ADD SWAP2 POP JUMPDEST DUP2 DUP2 LT ISZERO PUSH2 0x1C42 JUMPI PUSH0 DUP2 SSTORE PUSH1 0x1 ADD PUSH2 0x1C2F JUMP JUMPDEST POP POP JUMPDEST POP POP POP JUMP JUMPDEST DUP2 DUP2 SUB PUSH2 0x1C55 JUMPI POP POP JUMP JUMPDEST PUSH2 0x1C5F DUP3 SLOAD PUSH2 0x1B04 JUMP JUMPDEST PUSH8 0xFFFFFFFFFFFFFFFF DUP2 GT ISZERO PUSH2 0x1C77 JUMPI PUSH2 0x1C77 PUSH2 0x17FB JUMP JUMPDEST PUSH2 0x1C8B DUP2 PUSH2 0x1C85 DUP5 SLOAD PUSH2 0x1B04 JUMP JUMPDEST DUP5 PUSH2 0x1BFE JUMP JUMPDEST PUSH0 PUSH1 0x1F DUP3 GT PUSH1 0x1 DUP2 EQ PUSH2 0x1CBF JUMPI PUSH0 DUP4 ISZERO PUSH2 0x1CA5 JUMPI POP DUP5 DUP3 ADD SLOAD JUMPDEST PUSH1 0x1 DUP5 SWAP1 SHL PUSH0 NOT PUSH1 0x3 DUP7 SWAP1 SHL SHR NOT DUP3 AND OR JUMPDEST DUP6 SSTORE POP PUSH2 0x1C42 JUMP JUMPDEST PUSH0 DUP6 DUP2 MSTORE PUSH1 0x20 DUP1 DUP3 KECCAK256 DUP7 DUP4 MSTORE SWAP1 DUP3 KECCAK256 PUSH1 0x1F NOT DUP7 AND SWAP3 JUMPDEST DUP4 DUP2 LT ISZERO PUSH2 0x1CF5 JUMPI DUP3 DUP7 ADD SLOAD DUP3 SSTORE PUSH1 0x1 SWAP6 DUP7 ADD SWAP6 SWAP1 SWAP2 ADD SWAP1 PUSH1 0x20 ADD PUSH2 0x1CD5 JUMP JUMPDEST POP DUP6 DUP4 LT ISZERO PUSH2 0x1D12 JUMPI DUP2 DUP6 ADD SLOAD PUSH0 NOT PUSH1 0x3 DUP9 SWAP1 SHL PUSH1 0xF8 AND SHR NOT AND DUP2 SSTORE JUMPDEST POP POP POP POP POP PUSH1 0x1 SWAP1 DUP2 SHL ADD SWAP1 SSTORE POP JUMP JUMPDEST PUSH4 0x4E487B71 PUSH1 0xE0 SHL PUSH0 MSTORE PUSH1 0x31 PUSH1 0x4 MSTORE PUSH1 0x24 PUSH0 REVERT JUMPDEST PUSH0 DUP2 PUSH2 0x1D44 JUMPI PUSH2 0x1D44 PUSH2 0x1B92 JUMP JUMPDEST POP PUSH0 NOT ADD SWAP1 JUMP JUMPDEST DUP2 MLOAD PUSH8 0xFFFFFFFFFFFFFFFF DUP2 GT ISZERO PUSH2 0x1D65 JUMPI PUSH2 0x1D65 PUSH2 0x17FB JUMP JUMPDEST PUSH2 0x1D73 DUP2 PUSH2 0x1C85 DUP5 SLOAD PUSH2 0x1B04 JUMP JUMPDEST PUSH1 0x20 PUSH1 0x1F DUP3 GT PUSH1 0x1 DUP2 EQ PUSH2 0x1DA3 JUMPI PUSH0 DUP4 ISZERO PUSH2 0x1CA5 JUMPI POP DUP2 DUP6 ADD MLOAD PUSH1 0x1 DUP5 SWAP1 SHL PUSH0 NOT PUSH1 0x3 DUP7 SWAP1 SHL SHR NOT DUP3 AND OR PUSH2 0x1CB7 JUMP JUMPDEST PUSH0 DUP5 DUP2 MSTORE PUSH1 0x20 DUP2 KECCAK256 PUSH1 0x1F NOT DUP6 AND SWAP2 JUMPDEST DUP3 DUP2 LT ISZERO PUSH2 0x1DD2 JUMPI DUP8 DUP6 ADD MLOAD DUP3 SSTORE PUSH1 0x20 SWAP5 DUP6 ADD SWAP5 PUSH1 0x1 SWAP1 SWAP3 ADD SWAP2 ADD PUSH2 0x1DB2 JUMP JUMPDEST POP DUP5 DUP3 LT ISZERO PUSH2 0x1DEF JUMPI DUP7 DUP5 ADD MLOAD PUSH0 NOT PUSH1 0x3 DUP8 SWAP1 SHL PUSH1 0xF8 AND SHR NOT AND DUP2 SSTORE JUMPDEST POP POP POP POP PUSH1 0x1 SWAP1 DUP2 SHL ADD SWAP1 SSTORE POP JUMP JUMPDEST PUSH1 0x40 DUP2 MSTORE PUSH0 PUSH2 0x1E10 PUSH1 0x40 DUP4 ADD DUP6 PUSH2 0x18F5 JUMP JUMPDEST SWAP1 POP PUSH1 0x1 DUP1 PUSH1 0xA0 SHL SUB DUP4 AND PUSH1 0x20 DUP4 ADD MSTORE SWAP4 SWAP3 POP POP POP JUMP JUMPDEST PUSH1 0x1 PUSH1 0x1 PUSH1 0xE0 SHL SUB NOT DUP4 AND DUP2 MSTORE PUSH0 PUSH2 0x18D6 PUSH1 0x4 DUP4 ADD DUP5 PUSH2 0x1AE2 JUMP INVALID LOG2 PUSH5 0x6970667358 0x22 SLT KECCAK256 DUP3 0xF 0xB1 0xB1 0xAA JUMPDEST PUSH1 0x98 DUP7 PUSH5 0x6259B5D2A 0xE6 0x23 0xD2 0xCA 0xE7 ADDMOD 0xF 0x2E POP 0xBE GASPRICE BALANCE 0xAD PUSH29 0xFFD88E64736F6C634300081A0033000000000000000000000000000000 "
		},
		"gasEstimates": {
			"creation": {
				"codeDepositCost": "1560000",
				"executionCost": "47972",
				"totalCost": "1607972"
			},
			"external": {
				"addDependencyRequester(address)": "infinite",
				"approvedDependencies(string)": "infinite",
				"approvedDependenciesKeys(uint256)": "infinite",
				"callFunction(string,string,bytes)": "infinite",
				"dependencyRequester()": "2381",
				"deployer()": "2380",
				"getDependencyAddress(string)": "infinite",
				"getDependencyKeys()": "infinite",
				"getPendingAprovalDependencyKeys()": "infinite",
				"pendingApprovalDependencies(string)": "infinite",
				"pendingApprovalDependenciesKeys(uint256)": "infinite",
				"pendingRemovalDependencies(string)": "infinite",
				"pendingRemovalDependenciesKeys(uint256)": "infinite",
				"pendingUpgradeForItself()": "2372",
				"requestDependencyAddition(string,address)": "infinite",
				"requestDependencyRemoval(string,address)": "infinite",
				"requestUpgradeDependencyRequester(address)": "infinite",
				"updateDependencies()": "infinite"
			},
			"internal": {
				"_callFunctionOnDependency(address,bytes4,bytes memory)": "infinite",
				"_getAddress(string memory)": "infinite",
				"_getSelector(string memory)": "infinite"
			}
		},
		"methodIdentifiers": {
			"addDependencyRequester(address)": "0bcfc717",
			"approvedDependencies(string)": "29d5de01",
			"approvedDependenciesKeys(uint256)": "eebed3a7",
			"callFunction(string,string,bytes)": "a7fee722",
			"dependencyRequester()": "a791edf8",
			"deployer()": "d5f39488",
			"getDependencyAddress(string)": "22418460",
			"getDependencyKeys()": "ec4c2e5d",
			"getPendingAprovalDependencyKeys()": "be6552e6",
			"pendingApprovalDependencies(string)": "1a83f4a3",
			"pendingApprovalDependenciesKeys(uint256)": "7b022fa2",
			"pendingRemovalDependencies(string)": "12c0c8c0",
			"pendingRemovalDependenciesKeys(uint256)": "2cf1366b",
			"pendingUpgradeForItself()": "bc5aef90",
			"requestDependencyAddition(string,address)": "80719893",
			"requestDependencyRemoval(string,address)": "fbe332dc",
			"requestUpgradeDependencyRequester(address)": "16c1076f",
			"updateDependencies()": "6e5ecdff"
		}
	},
	"abi": [
		{
			"inputs": [],
			"stateMutability": "nonpayable",
			"type": "constructor"
		},
		{
			"inputs": [
				{
					"internalType": "address",
					"name": "target",
					"type": "address"
				}
			],
			"name": "AddressEmptyCode",
			"type": "error"
		},
		{
			"inputs": [],
			"name": "FailedCall",
			"type": "error"
		},
		{
			"inputs": [
				{
					"internalType": "uint256",
					"name": "balance",
					"type": "uint256"
				},
				{
					"internalType": "uint256",
					"name": "needed",
					"type": "uint256"
				}
			],
			"name": "InsufficientBalance",
			"type": "error"
		},
		{
			"inputs": [],
			"name": "ReentrancyGuardReentrantCall",
			"type": "error"
		},
		{
			"anonymous": false,
			"inputs": [
				{
					"indexed": false,
					"internalType": "string",
					"name": "dependencyKey",
					"type": "string"
				},
				{
					"indexed": true,
					"internalType": "address",
					"name": "contractAddress",
					"type": "address"
				}
			],
			"name": "DependencyAdded",
			"type": "event"
		},
		{
			"anonymous": false,
			"inputs": [
				{
					"indexed": false,
					"internalType": "string",
					"name": "dependencyKey",
					"type": "string"
				},
				{
					"indexed": true,
					"internalType": "address",
					"name": "contractAddress",
					"type": "address"
				}
			],
			"name": "DependencyAdditionFailed",
			"type": "event"
		},
		{
			"anonymous": false,
			"inputs": [
				{
					"indexed": false,
					"internalType": "string",
					"name": "dependencyKey",
					"type": "string"
				},
				{
					"indexed": true,
					"internalType": "address",
					"name": "contractAddress",
					"type": "address"
				}
			],
			"name": "DependencyAdditionRequested",
			"type": "event"
		},
		{
			"anonymous": false,
			"inputs": [
				{
					"indexed": false,
					"internalType": "string",
					"name": "dependencyKey",
					"type": "string"
				},
				{
					"indexed": true,
					"internalType": "address",
					"name": "contractAddress",
					"type": "address"
				}
			],
			"name": "DependencyRemovalFailed",
			"type": "event"
		},
		{
			"anonymous": false,
			"inputs": [
				{
					"indexed": false,
					"internalType": "string",
					"name": "dependencyKey",
					"type": "string"
				},
				{
					"indexed": true,
					"internalType": "address",
					"name": "contractAddress",
					"type": "address"
				}
			],
			"name": "DependencyRemovalRequested",
			"type": "event"
		},
		{
			"anonymous": false,
			"inputs": [
				{
					"indexed": false,
					"internalType": "string",
					"name": "dependencyKey",
					"type": "string"
				},
				{
					"indexed": true,
					"internalType": "address",
					"name": "contractAddress",
					"type": "address"
				}
			],
			"name": "DependencyRemoved",
			"type": "event"
		},
		{
			"anonymous": false,
			"inputs": [
				{
					"indexed": true,
					"internalType": "contract IDependencyRequester",
					"name": "contractAddress",
					"type": "address"
				}
			],
			"name": "DependencyRequesterAdded",
			"type": "event"
		},
		{
			"anonymous": false,
			"inputs": [
				{
					"indexed": true,
					"internalType": "contract IDependencyRequester",
					"name": "contractAddress",
					"type": "address"
				}
			],
			"name": "DependencyRequesterUpgradeFailed",
			"type": "event"
		},
		{
			"anonymous": false,
			"inputs": [
				{
					"indexed": true,
					"internalType": "contract IDependencyRequester",
					"name": "contractInstance",
					"type": "address"
				}
			],
			"name": "DependencyRequesterUpgradeRequested",
			"type": "event"
		},
		{
			"anonymous": false,
			"inputs": [
				{
					"indexed": true,
					"internalType": "contract IDependencyRequester",
					"name": "contractInstance",
					"type": "address"
				}
			],
			"name": "DependencyRequesterUpgraded",
			"type": "event"
		},
		{
			"inputs": [
				{
					"internalType": "contract IDependencyRequester",
					"name": "dependency",
					"type": "address"
				}
			],
			"name": "addDependencyRequester",
			"outputs": [],
			"stateMutability": "nonpayable",
			"type": "function"
		},
		{
			"inputs": [
				{
					"internalType": "string",
					"name": "",
					"type": "string"
				}
			],
			"name": "approvedDependencies",
			"outputs": [
				{
					"internalType": "address",
					"name": "",
					"type": "address"
				}
			],
			"stateMutability": "view",
			"type": "function"
		},
		{
			"inputs": [
				{
					"internalType": "uint256",
					"name": "",
					"type": "uint256"
				}
			],
			"name": "approvedDependenciesKeys",
			"outputs": [
				{
					"internalType": "string",
					"name": "",
					"type": "string"
				}
			],
			"stateMutability": "view",
			"type": "function"
		},
		{
			"inputs": [
				{
					"internalType": "string",
					"name": "dependencyKey",
					"type": "string"
				},
				{
					"internalType": "string",
					"name": "functionSignature",
					"type": "string"
				},
				{
					"internalType": "bytes",
					"name": "data",
					"type": "bytes"
				}
			],
			"name": "callFunction",
			"outputs": [
				{
					"internalType": "bytes",
					"name": "",
					"type": "bytes"
				}
			],
			"stateMutability": "nonpayable",
			"type": "function"
		},
		{
			"inputs": [],
			"name": "dependencyRequester",
			"outputs": [
				{
					"internalType": "contract IDependencyRequester",
					"name": "",
					"type": "address"
				}
			],
			"stateMutability": "view",
			"type": "function"
		},
		{
			"inputs": [],
			"name": "deployer",
			"outputs": [
				{
					"internalType": "address",
					"name": "",
					"type": "address"
				}
			],
			"stateMutability": "view",
			"type": "function"
		},
		{
			"inputs": [
				{
					"internalType": "string",
					"name": "keyname",
					"type": "string"
				}
			],
			"name": "getDependencyAddress",
			"outputs": [
				{
					"internalType": "address",
					"name": "",
					"type": "address"
				}
			],
			"stateMutability": "view",
			"type": "function"
		},
		{
			"inputs": [],
			"name": "getDependencyKeys",
			"outputs": [
				{
					"internalType": "string[]",
					"name": "",
					"type": "string[]"
				}
			],
			"stateMutability": "view",
			"type": "function"
		},
		{
			"inputs": [],
			"name": "getPendingAprovalDependencyKeys",
			"outputs": [
				{
					"internalType": "string[]",
					"name": "",
					"type": "string[]"
				}
			],
			"stateMutability": "view",
			"type": "function"
		},
		{
			"inputs": [
				{
					"internalType": "string",
					"name": "",
					"type": "string"
				}
			],
			"name": "pendingApprovalDependencies",
			"outputs": [
				{
					"internalType": "uint256",
					"name": "",
					"type": "uint256"
				}
			],
			"stateMutability": "view",
			"type": "function"
		},
		{
			"inputs": [
				{
					"internalType": "uint256",
					"name": "",
					"type": "uint256"
				}
			],
			"name": "pendingApprovalDependenciesKeys",
			"outputs": [
				{
					"internalType": "string",
					"name": "",
					"type": "string"
				}
			],
			"stateMutability": "view",
			"type": "function"
		},
		{
			"inputs": [
				{
					"internalType": "string",
					"name": "",
					"type": "string"
				}
			],
			"name": "pendingRemovalDependencies",
			"outputs": [
				{
					"internalType": "uint256",
					"name": "",
					"type": "uint256"
				}
			],
			"stateMutability": "view",
			"type": "function"
		},
		{
			"inputs": [
				{
					"internalType": "uint256",
					"name": "",
					"type": "uint256"
				}
			],
			"name": "pendingRemovalDependenciesKeys",
			"outputs": [
				{
					"internalType": "string",
					"name": "",
					"type": "string"
				}
			],
			"stateMutability": "view",
			"type": "function"
		},
		{
			"inputs": [],
			"name": "pendingUpgradeForItself",
			"outputs": [
				{
					"internalType": "uint256",
					"name": "",
					"type": "uint256"
				}
			],
			"stateMutability": "view",
			"type": "function"
		},
		{
			"inputs": [
				{
					"internalType": "string",
					"name": "dependencyKey",
					"type": "string"
				},
				{
					"internalType": "address",
					"name": "contractAddress",
					"type": "address"
				}
			],
			"name": "requestDependencyAddition",
			"outputs": [],
			"stateMutability": "nonpayable",
			"type": "function"
		},
		{
			"inputs": [
				{
					"internalType": "string",
					"name": "dependencyKey",
					"type": "string"
				},
				{
					"internalType": "address",
					"name": "contractAddress",
					"type": "address"
				}
			],
			"name": "requestDependencyRemoval",
			"outputs": [],
			"stateMutability": "nonpayable",
			"type": "function"
		},
		{
			"inputs": [
				{
					"internalType": "contract IDependencyRequester",
					"name": "upgradedDependencyRequester",
					"type": "address"
				}
			],
			"name": "requestUpgradeDependencyRequester",
			"outputs": [],
			"stateMutability": "nonpayable",
			"type": "function"
		},
		{
			"inputs": [],
			"name": "updateDependencies",
			"outputs": [],
			"stateMutability": "nonpayable",
			"type": "function"
		}
	]
}