{
	"data": {
		"bytecode": {
			"linkReferences": {
				"remix_accounts.sol": {
					"TestsAccounts": [
						{
							"length": 20,
							"start": 804
						}
					]
				},
				"remix_tests.sol": {
					"Assert": [
						{
							"length": 20,
							"start": 237
						},
						{
							"length": 20,
							"start": 411
						},
						{
							"length": 20,
							"start": 585
						},
						{
							"length": 20,
							"start": 774
						},
						{
							"length": 20,
							"start": 1108
						}
					]
				}
			},
			"object": "6080604052348015600e575f80fd5b506141098061001c5f395ff3fe60806040526004361061003e575f3560e01c8063011e64921461004257806312d487ea146100585780637fea0d4b146100785780639074416d1461008c575b5f80fd5b34801561004d575f80fd5b50610056610094565b005b348015610063575f80fd5b50604080516001815290519081900360200190f35b348015610083575f80fd5b5061005661028d565b6100566102d4565b604080516339df137f60e01b8152600160048201526024810191909152600e60448201526d73686f756c64206265207472756560901b606482015273__$acbfb1c35000d78352310b16a054a6b106$__906339df137f90608401602060405180830381865af4158015610109573d5f803e3d5ffd5b505050506040513d601f19601f8201168201806040525081019061012d9190610467565b5060405163a079f1a360e01b8152600260048201526001602482015260606044820152601d60648201527f322073686f756c642062652067726561746572207468616e20746f2031000000608482015273__$acbfb1c35000d78352310b16a054a6b106$__9063a079f1a39060a401602060405180830381865af41580156101b7573d5f803e3d5ffd5b505050506040513d601f19601f820116820180604052508101906101db9190610467565b5060405163575444a960e11b8152600260048201526003602482015260606044820152601c60648201527f322073686f756c64206265206c6573736572207468616e20746f203300000000608482015273__$acbfb1c35000d78352310b16a054a6b106$__9063aea889529060a4015b602060405180830381865af4158015610266573d5f803e3d5ffd5b505050506040513d601f19601f8201168201806040525081019061028a9190610467565b50565b6040516102999061045a565b604051809103905ff0801580156102b2573d5f803e3d5ffd5b505f80546001600160a01b0319166001600160a01b0392909216919091179055565b60405163ce88b14560e01b81526001600482015273__$acbfb1c35000d78352310b16a054a6b106$__9063bfba5dd690339073__$1068a87eb54ed04c4e435de35b2ebf536f$__9063ce88b14590602401602060405180830381865af4158015610340573d5f803e3d5ffd5b505050506040513d601f19601f82011682018060405250810190610364919061048d565b6040516001600160e01b031960e085901b1681526001600160a01b0392831660048201529116602482015260606044820152600e60648201526d24b73b30b634b21039b2b73232b960911b608482015260a401602060405180830381865af41580156103d2573d5f803e3d5ffd5b505050506040513d601f19601f820116820180604052508101906103f69190610467565b5060405163055e6bcb60e51b815234600482015260646024820181905260606044830152600d908201526c496e76616c69642076616c756560981b608482015273__$acbfb1c35000d78352310b16a054a6b106$__9063abcd79609060a40161024b565b613c20806104b483390190565b5f60208284031215610477575f80fd5b81518015158114610486575f80fd5b9392505050565b5f6020828403121561049d575f80fd5b81516001600160a01b0381168114610486575f80fdfe60a060405230608052348015610013575f80fd5b5061001c610021565b6100d3565b7ff0c57e16840df040f15088dc2f81fe391c3923bec73e23a9662efc9c229c6a00805468010000000000000000900460ff16156100715760405163f92ee8a960e01b815260040160405180910390fd5b80546001600160401b03908116146100d05780546001600160401b0319166001600160401b0390811782556040519081527fc7f505b2f371ae2175ee4913f4499e1f2633a7b5936321eed1cdaeb6115181d29060200160405180910390a15b50565b608051613b276100f95f395f81816115c2015281816115eb015261174e0152613b275ff3fe60806040526004361061025f575f3560e01c806370a082311161013f578063ad3cb1cc116100b3578063d539139311610078578063d539139314610760578063d547741f14610793578063e63ab1e9146107b2578063e985e9c5146107d2578063f72c0d8b146107f1578063f8c8765e14610824575f80fd5b8063ad3cb1cc146106b4578063b88d4fde146106e4578063c3cda52014610703578063c87b56dd14610722578063d204c45e14610741575f80fd5b806391d148541161010457806391d148541461060e57806391ddadf41461062d57806395d89b411461064f5780639ab24eb014610663578063a217fddf14610682578063a22cb46514610695575f80fd5b806370a08231146105425780637ecebe00146105615780638456cb59146105b457806384b0196e146105c85780638e539e8c146105ef575f80fd5b80633f4ba83a116101d65780634f6ccce71161019b5780634f6ccce71461048f57806352d1902d146104ae578063587cde1e146104c25780635c19a95c146104e15780635c975abb146105005780636352211e14610523575f80fd5b80633f4ba83a146103f457806342842e0e1461040857806342966c68146104275780634bf5d7e9146104465780634f1ef2861461047c575f80fd5b806323b872dd1161022757806323b872dd1461033a578063248a9ca3146103595780632f2ff15d146103785780632f745c591461039757806336568abe146103b65780633a46b1a8146103d5575f80fd5b806301ffc9a71461026357806306fdde0314610297578063081812fc146102b8578063095ea7b3146102ef57806318160ddd14610310575b5f80fd5b34801561026e575f80fd5b5061028261027d366004613276565b610843565b60405190151581526020015b60405180910390f35b3480156102a2575f80fd5b506102ab610853565b60405161028e91906132bf565b3480156102c3575f80fd5b506102d76102d23660046132d1565b6108f4565b6040516001600160a01b03909116815260200161028e565b3480156102fa575f80fd5b5061030e610309366004613303565b610908565b005b34801561031b575f80fd5b505f80516020613a92833981519152545b60405190815260200161028e565b348015610345575f80fd5b5061030e61035436600461332b565b610917565b348015610364575f80fd5b5061032c6103733660046132d1565b6109a5565b348015610383575f80fd5b5061030e610392366004613365565b6109c5565b3480156103a2575f80fd5b5061032c6103b1366004613303565b6109e1565b3480156103c1575f80fd5b5061030e6103d0366004613365565b610a52565b3480156103e0575f80fd5b5061032c6103ef366004613303565b610a8a565b3480156103ff575f80fd5b5061030e610b10565b348015610413575f80fd5b5061030e61042236600461332b565b610b32565b348015610432575f80fd5b5061030e6104413660046132d1565b610b4c565b348015610451575f80fd5b5060408051808201909152600e81526d06d6f64653d74696d657374616d760941b60208201526102ab565b61030e61048a366004613438565b610b57565b34801561049a575f80fd5b5061032c6104a93660046132d1565b610b72565b3480156104b9575f80fd5b5061032c610be4565b3480156104cd575f80fd5b506102d76104dc366004613483565b610bff565b3480156104ec575f80fd5b5061030e6104fb366004613483565b610c28565b34801561050b575f80fd5b505f80516020613ad28339815191525460ff16610282565b34801561052e575f80fd5b506102d761053d3660046132d1565b610c33565b34801561054d575f80fd5b5061032c61055c366004613483565b610c3d565b34801561056c575f80fd5b5061032c61057b366004613483565b6001600160a01b03165f9081527f5ab42ced628888259c08ac98db1eb0cf702fc1501344311d8b100cd1bfe4bb00602052604090205490565b3480156105bf575f80fd5b5061030e610c95565b3480156105d3575f80fd5b506105dc610cb4565b60405161028e979695949392919061349c565b3480156105fa575f80fd5b5061032c6106093660046132d1565b610d5d565b348015610619575f80fd5b50610282610628366004613365565b610dcd565b348015610638575f80fd5b5060405165ffffffffffff4216815260200161028e565b34801561065a575f80fd5b506102ab610e03565b34801561066e575f80fd5b5061032c61067d366004613483565b610e41565b34801561068d575f80fd5b5061032c5f81565b3480156106a0575f80fd5b5061030e6106af366004613532565b610e9f565b3480156106bf575f80fd5b506102ab604051806040016040528060058152602001640352e302e360dc1b81525081565b3480156106ef575f80fd5b5061030e6106fe36600461356b565b610eaa565b34801561070e575f80fd5b5061030e61071d3660046135cf565b610ec2565b34801561072d575f80fd5b506102ab61073c3660046132d1565b610f7e565b34801561074c575f80fd5b5061030e61075b36600461362a565b610f89565b34801561076b575f80fd5b5061032c7f9f2df0fed2c77648de5860a4cc508cd0818c85b8b8a1ab4ceeef8d981c8956a681565b34801561079e575f80fd5b5061030e6107ad366004613365565b610fdb565b3480156107bd575f80fd5b5061032c5f80516020613a7283398151915281565b3480156107dd575f80fd5b506102826107ec36600461367e565b610ff7565b3480156107fc575f80fd5b5061032c7f189ab7a9244df0848122154315af71fe140f3db0fe014031783b0946b8c9d2e381565b34801561082f575f80fd5b5061030e61083e3660046136a6565b611043565b5f61084d82611297565b92915050565b5f80516020613a128339815191528054606091908190610872906136f7565b80601f016020809104026020016040519081016040528092919081815260200182805461089e906136f7565b80156108e95780601f106108c0576101008083540402835291602001916108e9565b820191905f5260205f20905b8154815290600101906020018083116108cc57829003601f168201915b505050505091505090565b5f6108fe826112bb565b5061084d826112f2565b61091382823361132b565b5050565b6001600160a01b03821661094557604051633250574960e11b81525f60048201526024015b60405180910390fd5b5f610951838333611338565b9050836001600160a01b0316816001600160a01b03161461099f576040516364283d7b60e01b81526001600160a01b038086166004830152602482018490528216604482015260640161093c565b50505050565b5f9081525f80516020613ab2833981519152602052604090206001015490565b6109ce826109a5565b6109d78161134e565b61099f8383611358565b5f5f805160206139f28339815191526109f984610c3d565b8310610a2a5760405163295f44f760e21b81526001600160a01b03851660048201526024810184905260440161093c565b6001600160a01b0384165f908152602091825260408082208583529092522054905092915050565b6001600160a01b0381163314610a7b5760405163334bd91960e11b815260040160405180910390fd5b610a8582826113f9565b505050565b5f5f805160206139d28339815191524265ffffffffffff81168410610ad357604051637669fc0f60e11b81526004810185905265ffffffffffff8216602482015260440161093c565b610afe610adf85611472565b6001600160a01b0387165f9081526001850160205260409020906114a8565b6001600160d01b031695945050505050565b5f80516020613a72833981519152610b278161134e565b610b2f611558565b50565b610a8583838360405180602001604052805f815250610eaa565b6109135f8233611338565b610b5f6115b7565b610b688261165d565b6109138282611687565b5f5f805160206139f2833981519152610b965f80516020613a928339815191525490565b8310610bbe5760405163295f44f760e21b81525f60048201526024810184905260440161093c565b806002018381548110610bd357610bd361372f565b905f5260205f200154915050919050565b5f610bed611743565b505f80516020613a5283398151915290565b6001600160a01b039081165f9081525f805160206139d283398151915260205260409020541690565b33610913818361178c565b5f61084d826112bb565b5f5f80516020613a128339815191526001600160a01b038316610c75576040516322718ad960e21b81525f600482015260240161093c565b6001600160a01b039092165f908152600390920160205250604090205490565b5f80516020613a72833981519152610cac8161134e565b610b2f611813565b5f60608082808083815f80516020613a328339815191528054909150158015610cdf57506001810154155b610d235760405162461bcd60e51b81526020600482015260156024820152741152540dcc4c8e88155b9a5b9a5d1a585b1a5e9959605a1b604482015260640161093c565b610d2b61185b565b610d33611899565b604080515f80825260208201909252600f60f81b9c939b5091995046985030975095509350915050565b5f5f805160206139d28339815191524265ffffffffffff81168410610da657604051637669fc0f60e11b81526004810185905265ffffffffffff8216602482015260440161093c565b610dbc610db285611472565b60028401906114a8565b6001600160d01b0316949350505050565b5f9182525f80516020613ab2833981519152602090815260408084206001600160a01b0393909316845291905290205460ff1690565b7f80bb2b638cc20bc4d0a60d66940f3ab4a00c1d7b313497ca82fb0b4ab007930180546060915f80516020613a1283398151915291610872906136f7565b6001600160a01b0381165f9081527fe8b26c30fad74198956032a3533d903385d56dd795af560196f9c78d4af40d01602052604081205f805160206139d283398151915290610e8f906118d7565b6001600160d01b03169392505050565b61091333838361190e565b610eb5848484610917565b61099f33858585856119bd565b83421115610ee657604051632341d78760e11b81526004810185905260240161093c565b604080517fe48329057bfd03d55e49b547132e39cffd9c1820ad7b9d4c5307691425d15adf60208201526001600160a01b0388169181019190915260608101869052608081018590525f90610f5f90610f579060a00160405160208183030381529060405280519060200120611ae5565b858585611b11565b9050610f6b8187611b3d565b610f75818861178c565b50505050505050565b606061084d82611bae565b7f9f2df0fed2c77648de5860a4cc508cd0818c85b8b8a1ab4ceeef8d981c8956a6610fb38161134e565b5f80548180610fc183613757565b919050559050610fd18482611d03565b61099f8184611d1c565b610fe4826109a5565b610fed8161134e565b61099f83836113f9565b6001600160a01b039182165f9081527f80bb2b638cc20bc4d0a60d66940f3ab4a00c1d7b313497ca82fb0b4ab00793056020908152604080832093909416825291909152205460ff1690565b7ff0c57e16840df040f15088dc2f81fe391c3923bec73e23a9662efc9c229c6a008054600160401b810460ff16159067ffffffffffffffff165f811580156110885750825b90505f8267ffffffffffffffff1660011480156110a45750303b155b9050811580156110b2575080155b156110d05760405163f92ee8a960e01b815260040160405180910390fd5b845467ffffffffffffffff1916600117855583156110fa57845460ff60401b1916600160401b1785555b61114c6040518060400160405280600e81526020016d29ba32bb32a1b0b932aa37b5b2b760911b8152506040518060400160405280600a8152602001695354455645432d544f4b60b01b815250611d8e565b611154611da0565b61115c611da0565b611164611da8565b61116c611da0565b611174611da0565b6111bd6040518060400160405280600e81526020016d29ba32bb32a1b0b932aa37b5b2b760911b815250604051806040016040528060018152602001603160f81b815250611db8565b6111c5611da0565b6111cd611da0565b6111d75f8a611358565b506111ef5f80516020613a7283398151915289611358565b5061121a7f9f2df0fed2c77648de5860a4cc508cd0818c85b8b8a1ab4ceeef8d981c8956a688611358565b506112457f189ab7a9244df0848122154315af71fe140f3db0fe014031783b0946b8c9d2e387611358565b50831561128c57845460ff60401b19168555604051600181527fc7f505b2f371ae2175ee4913f4499e1f2633a7b5936321eed1cdaeb6115181d29060200160405180910390a15b505050505050505050565b5f6001600160e01b03198216637965db0b60e01b148061084d575061084d82611dca565b5f806112c683611dee565b90506001600160a01b03811661084d57604051637e27328960e01b81526004810184905260240161093c565b5f9081527f80bb2b638cc20bc4d0a60d66940f3ab4a00c1d7b313497ca82fb0b4ab007930460205260409020546001600160a01b031690565b610a858383836001611e27565b5f611344848484611f3a565b90505b9392505050565b610b2f8133611f55565b5f5f80516020613ab28339815191526113718484610dcd565b6113f0575f848152602082815260408083206001600160a01b03871684529091529020805460ff191660011790556113a63390565b6001600160a01b0316836001600160a01b0316857f2f8788117e7eff1d82e926ec794901d17c78024a50270940304540a733656f0d60405160405180910390a4600191505061084d565b5f91505061084d565b5f5f80516020613ab28339815191526114128484610dcd565b156113f0575f848152602082815260408083206001600160a01b0387168085529252808320805460ff1916905551339287917ff6391f5c32d9c69d2a47ea670b442974b53935d1edc7fd64eb21e047a839171b9190a4600191505061084d565b5f65ffffffffffff8211156114a4576040516306dfcc6560e41b8152603060048201526024810183905260440161093c565b5090565b81545f9081816005811115611504575f6114c184611f8e565b6114cb908561376f565b5f8881526020902090915081015465ffffffffffff90811690871610156114f457809150611502565b6114ff816001613782565b92505b505b5f611511878785856120e1565b9050801561154b576115358761152860018461376f565b5f91825260209091200190565b54600160301b90046001600160d01b031661154d565b5f5b979650505050505050565b611560612140565b5f80516020613ad2833981519152805460ff191681557f5db9ee0a495bf2e6ff9c91a7834c1ba4fdd244a5e8aa4e537bd38aeae4b073aa335b6040516001600160a01b03909116815260200160405180910390a150565b306001600160a01b037f000000000000000000000000000000000000000000000000000000000000000016148061163d57507f00000000000000000000000000000000000000000000000000000000000000006001600160a01b03166116315f80516020613a52833981519152546001600160a01b031690565b6001600160a01b031614155b1561165b5760405163703e46dd60e11b815260040160405180910390fd5b565b7f189ab7a9244df0848122154315af71fe140f3db0fe014031783b0946b8c9d2e36109138161134e565b816001600160a01b03166352d1902d6040518163ffffffff1660e01b8152600401602060405180830381865afa9250505080156116e1575060408051601f3d908101601f191682019092526116de91810190613795565b60015b61170957604051634c9c8ce360e01b81526001600160a01b038316600482015260240161093c565b5f80516020613a52833981519152811461173957604051632a87526960e21b81526004810182905260240161093c565b610a85838361216f565b306001600160a01b037f0000000000000000000000000000000000000000000000000000000000000000161461165b5760405163703e46dd60e11b815260040160405180910390fd5b5f805160206139d28339815191525f6117a484610bff565b6001600160a01b038581165f8181526020869052604080822080546001600160a01b031916898616908117909155905194955093928516927f3134e8a2e6d97e929a7e54011ea5485d7d196dd5f0ba4d4ef95803e8e3fc257f9190a461099f818461180e876121c4565b6121ce565b61181b612344565b5f80516020613ad2833981519152805460ff191660011781557f62e78cea01bee320cd4e420270b5ea74000d11b0c9f74754ebdbfc544b05a25833611599565b7fa16a46d94261c7517cc8ff89f61c0ce93598e3c849801011dee649a6a557d10280546060915f80516020613a3283398151915291610872906136f7565b7fa16a46d94261c7517cc8ff89f61c0ce93598e3c849801011dee649a6a557d10380546060915f80516020613a3283398151915291610872906136f7565b80545f908015611906576118f08361152860018461376f565b54600160301b90046001600160d01b0316611347565b5f9392505050565b5f80516020613a128339815191526001600160a01b03831661194e57604051630b61174360e31b81526001600160a01b038416600482015260240161093c565b6001600160a01b038481165f818152600584016020908152604080832094881680845294825291829020805460ff191687151590811790915591519182527f17307eab39ab6107e8899845ad3d59bd9653f200f220920489ca2b5937696c31910160405180910390a350505050565b6001600160a01b0383163b15611ade57604051630a85bd0160e11b81526001600160a01b0384169063150b7a02906119ff9088908890879087906004016137ac565b6020604051808303815f875af1925050508015611a39575060408051601f3d908101601f19168201909252611a36918101906137e8565b60015b611aa0573d808015611a66576040519150601f19603f3d011682016040523d82523d5f602084013e611a6b565b606091505b5080515f03611a9857604051633250574960e11b81526001600160a01b038516600482015260240161093c565b805181602001fd5b6001600160e01b03198116630a85bd0160e11b14611adc57604051633250574960e11b81526001600160a01b038516600482015260240161093c565b505b5050505050565b5f61084d611af1612374565b8360405161190160f01b8152600281019290925260228201526042902090565b5f805f80611b2188888888612382565b925092509250611b31828261244a565b50909695505050505050565b6001600160a01b0382165f9081527f5ab42ced628888259c08ac98db1eb0cf702fc1501344311d8b100cd1bfe4bb0060205260409020805460018101909155818114610a85576040516301d4b62360e61b81526001600160a01b03841660048201526024810182905260440161093c565b60607f0542a41881ee128a365a727b282c86fa859579490b9bb45aab8503648c8e7900611bda836112bb565b505f8381526020829052604081208054611bf3906136f7565b80601f0160208091040260200160405190810160405280929190818152602001828054611c1f906136f7565b8015611c6a5780601f10611c4157610100808354040283529160200191611c6a565b820191905f5260205f20905b815481529060010190602001808311611c4d57829003601f168201915b505050505090505f611cac6040805180820190915260208082527f68747470733a2f2f796f75725f626173655f75726c2e636f6d2f746f6b656e739082015290565b905080515f03611cbe57509392505050565b815115611cf1578082604051602001611cd892919061381a565b6040516020818303038152906040529350505050919050565b611cfa85612502565b95945050505050565b610913828260405180602001604052805f815250612598565b5f8281527f0542a41881ee128a365a727b282c86fa859579490b9bb45aab8503648c8e790060208190526040909120611d558382613872565b506040518381527ff8e1a15aba9398e019f0b49df1a4fde98ee17ae345cb5f6b5e2c27f5033e8ce79060200160405180910390a1505050565b611d966125af565b61091382826125f8565b61165b6125af565b611db06125af565b61165b612628565b611dc06125af565b6109138282612648565b5f6001600160e01b03198216632483248360e11b148061084d575061084d826126a7565b5f9081527f80bb2b638cc20bc4d0a60d66940f3ab4a00c1d7b313497ca82fb0b4ab007930260205260409020546001600160a01b031690565b5f80516020613a128339815191528180611e4957506001600160a01b03831615155b15611f0a575f611e58856112bb565b90506001600160a01b03841615801590611e845750836001600160a01b0316816001600160a01b031614155b8015611e975750611e958185610ff7565b155b15611ec05760405163a9fbf51f60e01b81526001600160a01b038516600482015260240161093c565b8215611f085784866001600160a01b0316826001600160a01b03167f8c5be1e5ebec7d5bd14f71427d1e84f3dd0314c0f7b2291e5b200ac8c7c3b92560405160405180910390a45b505b5f93845260040160205250506040902080546001600160a01b0319166001600160a01b0392909216919091179055565b5f80611f478585856126cb565b9050611344818660016126df565b611f5f8282610dcd565b6109135760405163e2517d3f60e01b81526001600160a01b03821660048201526024810183905260440161093c565b5f60018211611f9b575090565b816001600160801b8210611fb45760809190911c9060401b5b600160401b8210611fca5760409190911c9060201b5b6401000000008210611fe15760209190911c9060101b5b620100008210611ff65760109190911c9060081b5b610100821061200a5760089190911c9060041b5b6010821061201d5760049190911c9060021b5b600482106120295760011b5b600302600190811c908185816120415761204161392d565b048201901c905060018185816120595761205961392d565b048201901c905060018185816120715761207161392d565b048201901c905060018185816120895761208961392d565b048201901c905060018185816120a1576120a161392d565b048201901c905060018185816120b9576120b961392d565b048201901c90506120d88185816120d2576120d261392d565b04821190565b90039392505050565b5f5b81831015612138575f6120f68484612750565b5f8781526020902090915065ffffffffffff86169082015465ffffffffffff16111561212457809250612132565b61212f816001613782565b93505b506120e3565b509392505050565b5f80516020613ad28339815191525460ff1661165b57604051638dfc202b60e01b815260040160405180910390fd5b6121788261276a565b6040516001600160a01b038316907fbc7cd75a20ee27fd9adebab32041f755214dbc6bffa90cc0225b39da2e5c2d3b905f90a28051156121bc57610a8582826127cd565b610913612836565b5f61084d82610c3d565b5f805160206139d28339815191526001600160a01b03848116908416148015906121f757505f82115b1561099f576001600160a01b038416156122a0576001600160a01b0384165f9081526001820160205260408120819061223b9061285561223687612860565b612893565b6001600160d01b031691506001600160d01b03169150856001600160a01b03167fdec2bacdd2f05b59de34da9b523dff8be42e5e38e818c82fdb0bae774387a7248383604051612295929190918252602082015260400190565b60405180910390a250505b6001600160a01b0383161561099f576001600160a01b0383165f908152600182016020526040812081906122da906128c461223687612860565b6001600160d01b031691506001600160d01b03169150846001600160a01b03167fdec2bacdd2f05b59de34da9b523dff8be42e5e38e818c82fdb0bae774387a7248383604051612334929190918252602082015260400190565b60405180910390a2505050505050565b5f80516020613ad28339815191525460ff161561165b5760405163d93c066560e01b815260040160405180910390fd5b5f61237d6128cf565b905090565b5f80807f7fffffffffffffffffffffffffffffff5d576e7357a4501ddfe92f46681b20a08411156123bb57505f91506003905082612440565b604080515f808252602082018084528a905260ff891692820192909252606081018790526080810186905260019060a0016020604051602081039080840390855afa15801561240c573d5f803e3d5ffd5b5050604051601f1901519150506001600160a01b03811661243757505f925060019150829050612440565b92505f91508190505b9450945094915050565b5f82600381111561245d5761245d613941565b03612466575050565b600182600381111561247a5761247a613941565b036124985760405163f645eedf60e01b815260040160405180910390fd5b60028260038111156124ac576124ac613941565b036124cd5760405163fce698f760e01b81526004810182905260240161093c565b60038260038111156124e1576124e1613941565b03610913576040516335e2f38360e21b81526004810182905260240161093c565b606061250d826112bb565b505f6125496040805180820190915260208082527f68747470733a2f2f796f75725f626173655f75726c2e636f6d2f746f6b656e739082015290565b90505f8151116125675760405180602001604052805f815250611347565b8061257184612942565b60405160200161258292919061381a565b6040516020818303038152906040529392505050565b6125a283836129d2565b610a85335f8585856119bd565b7ff0c57e16840df040f15088dc2f81fe391c3923bec73e23a9662efc9c229c6a0054600160401b900460ff1661165b57604051631afcd79f60e31b815260040160405180910390fd5b6126006125af565b5f80516020613a12833981519152806126198482613872565b506001810161099f8382613872565b6126306125af565b5f80516020613ad2833981519152805460ff19169055565b6126506125af565b5f80516020613a328339815191527fa16a46d94261c7517cc8ff89f61c0ce93598e3c849801011dee649a6a557d1026126898482613872565b50600381016126988382613872565b505f8082556001909101555050565b5f6001600160e01b0319821663780e9d6360e01b148061084d575061084d82612a33565b5f6126d4612344565b611344848484612a82565b5f805160206139d28339815191526001600160a01b0384166127115761270e816002016128c461223685612860565b50505b6001600160a01b038316612735576127328160020161285561223685612860565b50505b61099f61274185610bff565b61274a85610bff565b846121ce565b5f61275e6002848418613955565b61134790848416613782565b806001600160a01b03163b5f0361279f57604051634c9c8ce360e01b81526001600160a01b038216600482015260240161093c565b5f80516020613a5283398151915280546001600160a01b0319166001600160a01b0392909216919091179055565b60605f80846001600160a01b0316846040516127e99190613974565b5f60405180830381855af49150503d805f8114612821576040519150601f19603f3d011682016040523d82523d5f602084013e612826565b606091505b5091509150611cfa858383612b78565b341561165b5760405163b398979f60e01b815260040160405180910390fd5b5f611347828461397f565b5f6001600160d01b038211156114a4576040516306dfcc6560e41b815260d060048201526024810183905260440161093c565b5f806128b7426128af6128a5886118d7565b868863ffffffff16565b879190612bd4565b915091505b935093915050565b5f611347828461399e565b5f7f8b73c3c69bb8fe3d512ecc4cf759cc79239f7b179b0ffacaa9a75d522b39400f6128f9612be1565b612901612c49565b60408051602081019490945283019190915260608201524660808201523060a082015260c00160405160208183030381529060405280519060200120905090565b60605f61294e83612c8b565b60010190505f8167ffffffffffffffff81111561296d5761296d61338f565b6040519080825280601f01601f191660200182016040528015612997576020820181803683370190505b5090508181016020015b5f19016f181899199a1a9b1b9c1cb0b131b232b360811b600a86061a8153600a85049450846129a157509392505050565b6001600160a01b0382166129fb57604051633250574960e11b81525f600482015260240161093c565b5f612a0783835f611338565b90506001600160a01b03811615610a85576040516339e3563760e11b81525f600482015260240161093c565b5f6001600160e01b031982166380ac58cd60e01b1480612a6357506001600160e01b03198216635b5e139f60e01b145b8061084d57506301ffc9a760e01b6001600160e01b031983161461084d565b5f80612a8f858585612d62565b90506001600160a01b038116612b1657612b11845f80516020613a9283398151915280545f8381527f645e039705490088daad89bae25049a34f4a9072d398537b1ab2425f24cbed0360205260408120829055600182018355919091527fa42f15e5d656f8155fd7419d740a6073999f19cd6e061449ce4a257150545bf20155565b612b39565b846001600160a01b0316816001600160a01b031614612b3957612b398185612e64565b6001600160a01b038516612b5557612b5084612efb565b611344565b846001600160a01b0316816001600160a01b031614611344576113448585612fc8565b606082612b8d57612b8882613020565b611347565b8151158015612ba457506001600160a01b0384163b155b15612bcd57604051639996b31560e01b81526001600160a01b038516600482015260240161093c565b5080611347565b5f806128b7858585613049565b5f5f80516020613a3283398151915281612bf961185b565b805190915015612c1157805160209091012092915050565b81548015612c20579392505050565b7fc5d2460186f7233c927e7db2dcc703c0e500b653ca82273b7bfad8045d85a470935050505090565b5f5f80516020613a3283398151915281612c61611899565b805190915015612c7957805160209091012092915050565b60018201548015612c20579392505050565b5f8072184f03e93ff9f4daa797ed6e38ed64bf6a1f0160401b8310612cc95772184f03e93ff9f4daa797ed6e38ed64bf6a1f0160401b830492506040015b6d04ee2d6d415b85acef81000000008310612cf5576d04ee2d6d415b85acef8100000000830492506020015b662386f26fc100008310612d1357662386f26fc10000830492506010015b6305f5e1008310612d2b576305f5e100830492506008015b6127108310612d3f57612710830492506004015b60648310612d51576064830492506002015b600a831061084d5760010192915050565b5f5f80516020613a1283398151915281612d7b85611dee565b90506001600160a01b03841615612d9757612d97818587613199565b6001600160a01b03811615612dd357612db25f865f80611e27565b6001600160a01b0381165f908152600383016020526040902080545f190190555b6001600160a01b03861615612e03576001600160a01b0386165f9081526003830160205260409020805460010190555b5f85815260028301602052604080822080546001600160a01b0319166001600160a01b038a811691821790925591518893918516917fddf252ad1be2c89b69c2b068fc378daa952ba7f163c4a11628f55a4df523b3ef91a495945050505050565b5f805160206139f28339815191525f612e7c84610c3d565b5f8481526001840160209081526040808320546001600160a01b03891684529186905290912091925090818314612ed4575f838152602082815260408083205485845281842081905583526001870190915290208290555b5f948552600190930160209081526040808620869055928552929092528220919091555050565b5f80516020613a92833981519152545f805160206139f2833981519152905f90612f279060019061376f565b5f848152600384016020526040812054600285018054939450909284908110612f5257612f5261372f565b905f5260205f200154905080846002018381548110612f7357612f7361372f565b5f91825260208083209091019290925582815260038601909152604080822084905586825281205560028401805480612fae57612fae6139bd565b600190038181905f5260205f20015f905590555050505050565b5f805160206139f28339815191525f6001612fe285610c3d565b612fec919061376f565b6001600160a01b039094165f9081526020838152604080832087845282528083208690559482526001909301909252502055565b8051156130305780518082602001fd5b60405163d6bda27560e01b815260040160405180910390fd5b82545f908190801561313f575f6130658761152860018561376f565b805490915065ffffffffffff80821691600160301b90046001600160d01b03169088168211156130a857604051632520601d60e01b815260040160405180910390fd5b8765ffffffffffff168265ffffffffffff16036130e157825465ffffffffffff16600160301b6001600160d01b03891602178355613131565b6040805180820190915265ffffffffffff808a1682526001600160d01b03808a1660208085019182528d54600181018f555f8f81529190912094519151909216600160301b029216919091179101555b94508593506128bc92505050565b50506040805180820190915265ffffffffffff80851682526001600160d01b0380851660208085019182528854600181018a555f8a815291822095519251909316600160301b0291909316179201919091559050816128bc565b6131a48383836131fd565b610a85576001600160a01b0383166131d257604051637e27328960e01b81526004810182905260240161093c565b60405163177e802f60e01b81526001600160a01b03831660048201526024810182905260440161093c565b5f6001600160a01b038316158015906113445750826001600160a01b0316846001600160a01b0316148061323657506132368484610ff7565b806113445750826001600160a01b031661324f836112f2565b6001600160a01b031614949350505050565b6001600160e01b031981168114610b2f575f80fd5b5f60208284031215613286575f80fd5b813561134781613261565b5f81518084528060208401602086015e5f602082860101526020601f19601f83011685010191505092915050565b602081525f6113476020830184613291565b5f602082840312156132e1575f80fd5b5035919050565b80356001600160a01b03811681146132fe575f80fd5b919050565b5f8060408385031215613314575f80fd5b61331d836132e8565b946020939093013593505050565b5f805f6060848603121561333d575f80fd5b613346846132e8565b9250613354602085016132e8565b929592945050506040919091013590565b5f8060408385031215613376575f80fd5b82359150613386602084016132e8565b90509250929050565b634e487b7160e01b5f52604160045260245ffd5b5f8067ffffffffffffffff8411156133bd576133bd61338f565b50604051601f19601f85018116603f0116810181811067ffffffffffffffff821117156133ec576133ec61338f565b604052838152905080828401851015613403575f80fd5b838360208301375f60208583010152509392505050565b5f82601f830112613429575f80fd5b611347838335602085016133a3565b5f8060408385031215613449575f80fd5b613452836132e8565b9150602083013567ffffffffffffffff81111561346d575f80fd5b6134798582860161341a565b9150509250929050565b5f60208284031215613493575f80fd5b611347826132e8565b60ff60f81b8816815260e060208201525f6134ba60e0830189613291565b82810360408401526134cc8189613291565b606084018890526001600160a01b038716608085015260a0840186905283810360c0850152845180825260208087019350909101905f5b81811015613521578351835260209384019390920191600101613503565b50909b9a5050505050505050505050565b5f8060408385031215613543575f80fd5b61354c836132e8565b915060208301358015158114613560575f80fd5b809150509250929050565b5f805f806080858703121561357e575f80fd5b613587856132e8565b9350613595602086016132e8565b925060408501359150606085013567ffffffffffffffff8111156135b7575f80fd5b6135c38782880161341a565b91505092959194509250565b5f805f805f8060c087890312156135e4575f80fd5b6135ed876132e8565b95506020870135945060408701359350606087013560ff81168114613610575f80fd5b9598949750929560808101359460a0909101359350915050565b5f806040838503121561363b575f80fd5b613644836132e8565b9150602083013567ffffffffffffffff81111561365f575f80fd5b8301601f8101851361366f575f80fd5b613479858235602084016133a3565b5f806040838503121561368f575f80fd5b613698836132e8565b9150613386602084016132e8565b5f805f80608085870312156136b9575f80fd5b6136c2856132e8565b93506136d0602086016132e8565b92506136de604086016132e8565b91506136ec606086016132e8565b905092959194509250565b600181811c9082168061370b57607f821691505b60208210810361372957634e487b7160e01b5f52602260045260245ffd5b50919050565b634e487b7160e01b5f52603260045260245ffd5b634e487b7160e01b5f52601160045260245ffd5b5f6001820161376857613768613743565b5060010190565b8181038181111561084d5761084d613743565b8082018082111561084d5761084d613743565b5f602082840312156137a5575f80fd5b5051919050565b6001600160a01b03858116825284166020820152604081018390526080606082018190525f906137de90830184613291565b9695505050505050565b5f602082840312156137f8575f80fd5b815161134781613261565b5f81518060208401855e5f93019283525090919050565b5f6113446138288386613803565b84613803565b601f821115610a8557805f5260205f20601f840160051c810160208510156138535750805b601f840160051c820191505b81811015611ade575f815560010161385f565b815167ffffffffffffffff81111561388c5761388c61338f565b6138a08161389a84546136f7565b8461382e565b6020601f8211600181146138d2575f83156138bb5750848201515b5f19600385901b1c1916600184901b178455611ade565b5f84815260208120601f198516915b8281101561390157878501518255602094850194600190920191016138e1565b508482101561391e57868401515f19600387901b60f8161c191681555b50505050600190811b01905550565b634e487b7160e01b5f52601260045260245ffd5b634e487b7160e01b5f52602160045260245ffd5b5f8261396f57634e487b7160e01b5f52601260045260245ffd5b500490565b5f6113478284613803565b6001600160d01b03828116828216039081111561084d5761084d613743565b6001600160d01b03818116838216019081111561084d5761084d613743565b634e487b7160e01b5f52603160045260245ffdfee8b26c30fad74198956032a3533d903385d56dd795af560196f9c78d4af40d00645e039705490088daad89bae25049a34f4a9072d398537b1ab2425f24cbed0080bb2b638cc20bc4d0a60d66940f3ab4a00c1d7b313497ca82fb0b4ab0079300a16a46d94261c7517cc8ff89f61c0ce93598e3c849801011dee649a6a557d100360894a13ba1a3210667c828492db98dca3e2076cc3735a920a3ca505d382bbc65d7a28e3265b37a6474929f336521b332c1681b933f6cb9f3376673440d862a645e039705490088daad89bae25049a34f4a9072d398537b1ab2425f24cbed0202dd7bc7dec4dceedda775e58dd541e08a116c6c53815c0bd028192f7b626800cd5ed15c6e187e77e9aee88184c21f4f2182ab5827cb3b7e07fbedcd63f03300a264697066735822122043eb94e7a8d4cebdc3deb68cdbc1cfcea2d43a97715043b1778c310d743921ae64736f6c634300081a0033a2646970667358221220e0c6099e84050f0f3bc958b78c8cffa707bc363303c6d7f1f93973b2a3abc9b064736f6c634300081a0033",
			"opcodes": "PUSH1 0x80 PUSH1 0x40 MSTORE CALLVALUE DUP1 ISZERO PUSH1 0xE JUMPI PUSH0 DUP1 REVERT JUMPDEST POP PUSH2 0x4109 DUP1 PUSH2 0x1C PUSH0 CODECOPY PUSH0 RETURN INVALID PUSH1 0x80 PUSH1 0x40 MSTORE PUSH1 0x4 CALLDATASIZE LT PUSH2 0x3E JUMPI PUSH0 CALLDATALOAD PUSH1 0xE0 SHR DUP1 PUSH4 0x11E6492 EQ PUSH2 0x42 JUMPI DUP1 PUSH4 0x12D487EA EQ PUSH2 0x58 JUMPI DUP1 PUSH4 0x7FEA0D4B EQ PUSH2 0x78 JUMPI DUP1 PUSH4 0x9074416D EQ PUSH2 0x8C JUMPI JUMPDEST PUSH0 DUP1 REVERT JUMPDEST CALLVALUE DUP1 ISZERO PUSH2 0x4D JUMPI PUSH0 DUP1 REVERT JUMPDEST POP PUSH2 0x56 PUSH2 0x94 JUMP JUMPDEST STOP JUMPDEST CALLVALUE DUP1 ISZERO PUSH2 0x63 JUMPI PUSH0 DUP1 REVERT JUMPDEST POP PUSH1 0x40 DUP1 MLOAD PUSH1 0x1 DUP2 MSTORE SWAP1 MLOAD SWAP1 DUP2 SWAP1 SUB PUSH1 0x20 ADD SWAP1 RETURN JUMPDEST CALLVALUE DUP1 ISZERO PUSH2 0x83 JUMPI PUSH0 DUP1 REVERT JUMPDEST POP PUSH2 0x56 PUSH2 0x28D JUMP JUMPDEST PUSH2 0x56 PUSH2 0x2D4 JUMP JUMPDEST PUSH1 0x40 DUP1 MLOAD PUSH4 0x39DF137F PUSH1 0xE0 SHL DUP2 MSTORE PUSH1 0x1 PUSH1 0x4 DUP3 ADD MSTORE PUSH1 0x24 DUP2 ADD SWAP2 SWAP1 SWAP2 MSTORE PUSH1 0xE PUSH1 0x44 DUP3 ADD MSTORE PUSH14 0x73686F756C642062652074727565 PUSH1 0x90 SHL PUSH1 0x64 DUP3 ADD MSTORE PUSH20 0x0 SWAP1 PUSH4 0x39DF137F SWAP1 PUSH1 0x84 ADD PUSH1 0x20 PUSH1 0x40 MLOAD DUP1 DUP4 SUB DUP2 DUP7 GAS DELEGATECALL ISZERO DUP1 ISZERO PUSH2 0x109 JUMPI RETURNDATASIZE PUSH0 DUP1 RETURNDATACOPY RETURNDATASIZE PUSH0 REVERT JUMPDEST POP POP POP POP PUSH1 0x40 MLOAD RETURNDATASIZE PUSH1 0x1F NOT PUSH1 0x1F DUP3 ADD AND DUP3 ADD DUP1 PUSH1 0x40 MSTORE POP DUP2 ADD SWAP1 PUSH2 0x12D SWAP2 SWAP1 PUSH2 0x467 JUMP JUMPDEST POP PUSH1 0x40 MLOAD PUSH4 0xA079F1A3 PUSH1 0xE0 SHL DUP2 MSTORE PUSH1 0x2 PUSH1 0x4 DUP3 ADD MSTORE PUSH1 0x1 PUSH1 0x24 DUP3 ADD MSTORE PUSH1 0x60 PUSH1 0x44 DUP3 ADD MSTORE PUSH1 0x1D PUSH1 0x64 DUP3 ADD MSTORE PUSH32 0x322073686F756C642062652067726561746572207468616E20746F2031000000 PUSH1 0x84 DUP3 ADD MSTORE PUSH20 0x0 SWAP1 PUSH4 0xA079F1A3 SWAP1 PUSH1 0xA4 ADD PUSH1 0x20 PUSH1 0x40 MLOAD DUP1 DUP4 SUB DUP2 DUP7 GAS DELEGATECALL ISZERO DUP1 ISZERO PUSH2 0x1B7 JUMPI RETURNDATASIZE PUSH0 DUP1 RETURNDATACOPY RETURNDATASIZE PUSH0 REVERT JUMPDEST POP POP POP POP PUSH1 0x40 MLOAD RETURNDATASIZE PUSH1 0x1F NOT PUSH1 0x1F DUP3 ADD AND DUP3 ADD DUP1 PUSH1 0x40 MSTORE POP DUP2 ADD SWAP1 PUSH2 0x1DB SWAP2 SWAP1 PUSH2 0x467 JUMP JUMPDEST POP PUSH1 0x40 MLOAD PUSH4 0x575444A9 PUSH1 0xE1 SHL DUP2 MSTORE PUSH1 0x2 PUSH1 0x4 DUP3 ADD MSTORE PUSH1 0x3 PUSH1 0x24 DUP3 ADD MSTORE PUSH1 0x60 PUSH1 0x44 DUP3 ADD MSTORE PUSH1 0x1C PUSH1 0x64 DUP3 ADD MSTORE PUSH32 0x322073686F756C64206265206C6573736572207468616E20746F203300000000 PUSH1 0x84 DUP3 ADD MSTORE PUSH20 0x0 SWAP1 PUSH4 0xAEA88952 SWAP1 PUSH1 0xA4 ADD JUMPDEST PUSH1 0x20 PUSH1 0x40 MLOAD DUP1 DUP4 SUB DUP2 DUP7 GAS DELEGATECALL ISZERO DUP1 ISZERO PUSH2 0x266 JUMPI RETURNDATASIZE PUSH0 DUP1 RETURNDATACOPY RETURNDATASIZE PUSH0 REVERT JUMPDEST POP POP POP POP PUSH1 0x40 MLOAD RETURNDATASIZE PUSH1 0x1F NOT PUSH1 0x1F DUP3 ADD AND DUP3 ADD DUP1 PUSH1 0x40 MSTORE POP DUP2 ADD SWAP1 PUSH2 0x28A SWAP2 SWAP1 PUSH2 0x467 JUMP JUMPDEST POP JUMP JUMPDEST PUSH1 0x40 MLOAD PUSH2 0x299 SWAP1 PUSH2 0x45A JUMP JUMPDEST PUSH1 0x40 MLOAD DUP1 SWAP2 SUB SWAP1 PUSH0 CREATE DUP1 ISZERO DUP1 ISZERO PUSH2 0x2B2 JUMPI RETURNDATASIZE PUSH0 DUP1 RETURNDATACOPY RETURNDATASIZE PUSH0 REVERT JUMPDEST POP PUSH0 DUP1 SLOAD PUSH1 0x1 PUSH1 0x1 PUSH1 0xA0 SHL SUB NOT AND PUSH1 0x1 PUSH1 0x1 PUSH1 0xA0 SHL SUB SWAP3 SWAP1 SWAP3 AND SWAP2 SWAP1 SWAP2 OR SWAP1 SSTORE JUMP JUMPDEST PUSH1 0x40 MLOAD PUSH4 0xCE88B145 PUSH1 0xE0 SHL DUP2 MSTORE PUSH1 0x1 PUSH1 0x4 DUP3 ADD MSTORE PUSH20 0x0 SWAP1 PUSH4 0xBFBA5DD6 SWAP1 CALLER SWAP1 PUSH20 0x0 SWAP1 PUSH4 0xCE88B145 SWAP1 PUSH1 0x24 ADD PUSH1 0x20 PUSH1 0x40 MLOAD DUP1 DUP4 SUB DUP2 DUP7 GAS DELEGATECALL ISZERO DUP1 ISZERO PUSH2 0x340 JUMPI RETURNDATASIZE PUSH0 DUP1 RETURNDATACOPY RETURNDATASIZE PUSH0 REVERT JUMPDEST POP POP POP POP PUSH1 0x40 MLOAD RETURNDATASIZE PUSH1 0x1F NOT PUSH1 0x1F DUP3 ADD AND DUP3 ADD DUP1 PUSH1 0x40 MSTORE POP DUP2 ADD SWAP1 PUSH2 0x364 SWAP2 SWAP1 PUSH2 0x48D JUMP JUMPDEST PUSH1 0x40 MLOAD PUSH1 0x1 PUSH1 0x1 PUSH1 0xE0 SHL SUB NOT PUSH1 0xE0 DUP6 SWAP1 SHL AND DUP2 MSTORE PUSH1 0x1 PUSH1 0x1 PUSH1 0xA0 SHL SUB SWAP3 DUP4 AND PUSH1 0x4 DUP3 ADD MSTORE SWAP2 AND PUSH1 0x24 DUP3 ADD MSTORE PUSH1 0x60 PUSH1 0x44 DUP3 ADD MSTORE PUSH1 0xE PUSH1 0x64 DUP3 ADD MSTORE PUSH14 0x24B73B30B634B21039B2B73232B9 PUSH1 0x91 SHL PUSH1 0x84 DUP3 ADD MSTORE PUSH1 0xA4 ADD PUSH1 0x20 PUSH1 0x40 MLOAD DUP1 DUP4 SUB DUP2 DUP7 GAS DELEGATECALL ISZERO DUP1 ISZERO PUSH2 0x3D2 JUMPI RETURNDATASIZE PUSH0 DUP1 RETURNDATACOPY RETURNDATASIZE PUSH0 REVERT JUMPDEST POP POP POP POP PUSH1 0x40 MLOAD RETURNDATASIZE PUSH1 0x1F NOT PUSH1 0x1F DUP3 ADD AND DUP3 ADD DUP1 PUSH1 0x40 MSTORE POP DUP2 ADD SWAP1 PUSH2 0x3F6 SWAP2 SWAP1 PUSH2 0x467 JUMP JUMPDEST POP PUSH1 0x40 MLOAD PUSH4 0x55E6BCB PUSH1 0xE5 SHL DUP2 MSTORE CALLVALUE PUSH1 0x4 DUP3 ADD MSTORE PUSH1 0x64 PUSH1 0x24 DUP3 ADD DUP2 SWAP1 MSTORE PUSH1 0x60 PUSH1 0x44 DUP4 ADD MSTORE PUSH1 0xD SWAP1 DUP3 ADD MSTORE PUSH13 0x496E76616C69642076616C7565 PUSH1 0x98 SHL PUSH1 0x84 DUP3 ADD MSTORE PUSH20 0x0 SWAP1 PUSH4 0xABCD7960 SWAP1 PUSH1 0xA4 ADD PUSH2 0x24B JUMP JUMPDEST PUSH2 0x3C20 DUP1 PUSH2 0x4B4 DUP4 CODECOPY ADD SWAP1 JUMP JUMPDEST PUSH0 PUSH1 0x20 DUP3 DUP5 SUB SLT ISZERO PUSH2 0x477 JUMPI PUSH0 DUP1 REVERT JUMPDEST DUP2 MLOAD DUP1 ISZERO ISZERO DUP2 EQ PUSH2 0x486 JUMPI PUSH0 DUP1 REVERT JUMPDEST SWAP4 SWAP3 POP POP POP JUMP JUMPDEST PUSH0 PUSH1 0x20 DUP3 DUP5 SUB SLT ISZERO PUSH2 0x49D JUMPI PUSH0 DUP1 REVERT JUMPDEST DUP2 MLOAD PUSH1 0x1 PUSH1 0x1 PUSH1 0xA0 SHL SUB DUP2 AND DUP2 EQ PUSH2 0x486 JUMPI PUSH0 DUP1 REVERT INVALID PUSH1 0xA0 PUSH1 0x40 MSTORE ADDRESS PUSH1 0x80 MSTORE CALLVALUE DUP1 ISZERO PUSH2 0x13 JUMPI PUSH0 DUP1 REVERT JUMPDEST POP PUSH2 0x1C PUSH2 0x21 JUMP JUMPDEST PUSH2 0xD3 JUMP JUMPDEST PUSH32 0xF0C57E16840DF040F15088DC2F81FE391C3923BEC73E23A9662EFC9C229C6A00 DUP1 SLOAD PUSH9 0x10000000000000000 SWAP1 DIV PUSH1 0xFF AND ISZERO PUSH2 0x71 JUMPI PUSH1 0x40 MLOAD PUSH4 0xF92EE8A9 PUSH1 0xE0 SHL DUP2 MSTORE PUSH1 0x4 ADD PUSH1 0x40 MLOAD DUP1 SWAP2 SUB SWAP1 REVERT JUMPDEST DUP1 SLOAD PUSH1 0x1 PUSH1 0x1 PUSH1 0x40 SHL SUB SWAP1 DUP2 AND EQ PUSH2 0xD0 JUMPI DUP1 SLOAD PUSH1 0x1 PUSH1 0x1 PUSH1 0x40 SHL SUB NOT AND PUSH1 0x1 PUSH1 0x1 PUSH1 0x40 SHL SUB SWAP1 DUP2 OR DUP3 SSTORE PUSH1 0x40 MLOAD SWAP1 DUP2 MSTORE PUSH32 0xC7F505B2F371AE2175EE4913F4499E1F2633A7B5936321EED1CDAEB6115181D2 SWAP1 PUSH1 0x20 ADD PUSH1 0x40 MLOAD DUP1 SWAP2 SUB SWAP1 LOG1 JUMPDEST POP JUMP JUMPDEST PUSH1 0x80 MLOAD PUSH2 0x3B27 PUSH2 0xF9 PUSH0 CODECOPY PUSH0 DUP2 DUP2 PUSH2 0x15C2 ADD MSTORE DUP2 DUP2 PUSH2 0x15EB ADD MSTORE PUSH2 0x174E ADD MSTORE PUSH2 0x3B27 PUSH0 RETURN INVALID PUSH1 0x80 PUSH1 0x40 MSTORE PUSH1 0x4 CALLDATASIZE LT PUSH2 0x25F JUMPI PUSH0 CALLDATALOAD PUSH1 0xE0 SHR DUP1 PUSH4 0x70A08231 GT PUSH2 0x13F JUMPI DUP1 PUSH4 0xAD3CB1CC GT PUSH2 0xB3 JUMPI DUP1 PUSH4 0xD5391393 GT PUSH2 0x78 JUMPI DUP1 PUSH4 0xD5391393 EQ PUSH2 0x760 JUMPI DUP1 PUSH4 0xD547741F EQ PUSH2 0x793 JUMPI DUP1 PUSH4 0xE63AB1E9 EQ PUSH2 0x7B2 JUMPI DUP1 PUSH4 0xE985E9C5 EQ PUSH2 0x7D2 JUMPI DUP1 PUSH4 0xF72C0D8B EQ PUSH2 0x7F1 JUMPI DUP1 PUSH4 0xF8C8765E EQ PUSH2 0x824 JUMPI PUSH0 DUP1 REVERT JUMPDEST DUP1 PUSH4 0xAD3CB1CC EQ PUSH2 0x6B4 JUMPI DUP1 PUSH4 0xB88D4FDE EQ PUSH2 0x6E4 JUMPI DUP1 PUSH4 0xC3CDA520 EQ PUSH2 0x703 JUMPI DUP1 PUSH4 0xC87B56DD EQ PUSH2 0x722 JUMPI DUP1 PUSH4 0xD204C45E EQ PUSH2 0x741 JUMPI PUSH0 DUP1 REVERT JUMPDEST DUP1 PUSH4 0x91D14854 GT PUSH2 0x104 JUMPI DUP1 PUSH4 0x91D14854 EQ PUSH2 0x60E JUMPI DUP1 PUSH4 0x91DDADF4 EQ PUSH2 0x62D JUMPI DUP1 PUSH4 0x95D89B41 EQ PUSH2 0x64F JUMPI DUP1 PUSH4 0x9AB24EB0 EQ PUSH2 0x663 JUMPI DUP1 PUSH4 0xA217FDDF EQ PUSH2 0x682 JUMPI DUP1 PUSH4 0xA22CB465 EQ PUSH2 0x695 JUMPI PUSH0 DUP1 REVERT JUMPDEST DUP1 PUSH4 0x70A08231 EQ PUSH2 0x542 JUMPI DUP1 PUSH4 0x7ECEBE00 EQ PUSH2 0x561 JUMPI DUP1 PUSH4 0x8456CB59 EQ PUSH2 0x5B4 JUMPI DUP1 PUSH4 0x84B0196E EQ PUSH2 0x5C8 JUMPI DUP1 PUSH4 0x8E539E8C EQ PUSH2 0x5EF JUMPI PUSH0 DUP1 REVERT JUMPDEST DUP1 PUSH4 0x3F4BA83A GT PUSH2 0x1D6 JUMPI DUP1 PUSH4 0x4F6CCCE7 GT PUSH2 0x19B JUMPI DUP1 PUSH4 0x4F6CCCE7 EQ PUSH2 0x48F JUMPI DUP1 PUSH4 0x52D1902D EQ PUSH2 0x4AE JUMPI DUP1 PUSH4 0x587CDE1E EQ PUSH2 0x4C2 JUMPI DUP1 PUSH4 0x5C19A95C EQ PUSH2 0x4E1 JUMPI DUP1 PUSH4 0x5C975ABB EQ PUSH2 0x500 JUMPI DUP1 PUSH4 0x6352211E EQ PUSH2 0x523 JUMPI PUSH0 DUP1 REVERT JUMPDEST DUP1 PUSH4 0x3F4BA83A EQ PUSH2 0x3F4 JUMPI DUP1 PUSH4 0x42842E0E EQ PUSH2 0x408 JUMPI DUP1 PUSH4 0x42966C68 EQ PUSH2 0x427 JUMPI DUP1 PUSH4 0x4BF5D7E9 EQ PUSH2 0x446 JUMPI DUP1 PUSH4 0x4F1EF286 EQ PUSH2 0x47C JUMPI PUSH0 DUP1 REVERT JUMPDEST DUP1 PUSH4 0x23B872DD GT PUSH2 0x227 JUMPI DUP1 PUSH4 0x23B872DD EQ PUSH2 0x33A JUMPI DUP1 PUSH4 0x248A9CA3 EQ PUSH2 0x359 JUMPI DUP1 PUSH4 0x2F2FF15D EQ PUSH2 0x378 JUMPI DUP1 PUSH4 0x2F745C59 EQ PUSH2 0x397 JUMPI DUP1 PUSH4 0x36568ABE EQ PUSH2 0x3B6 JUMPI DUP1 PUSH4 0x3A46B1A8 EQ PUSH2 0x3D5 JUMPI PUSH0 DUP1 REVERT JUMPDEST DUP1 PUSH4 0x1FFC9A7 EQ PUSH2 0x263 JUMPI DUP1 PUSH4 0x6FDDE03 EQ PUSH2 0x297 JUMPI DUP1 PUSH4 0x81812FC EQ PUSH2 0x2B8 JUMPI DUP1 PUSH4 0x95EA7B3 EQ PUSH2 0x2EF JUMPI DUP1 PUSH4 0x18160DDD EQ PUSH2 0x310 JUMPI JUMPDEST PUSH0 DUP1 REVERT JUMPDEST CALLVALUE DUP1 ISZERO PUSH2 0x26E JUMPI PUSH0 DUP1 REVERT JUMPDEST POP PUSH2 0x282 PUSH2 0x27D CALLDATASIZE PUSH1 0x4 PUSH2 0x3276 JUMP JUMPDEST PUSH2 0x843 JUMP JUMPDEST PUSH1 0x40 MLOAD SWAP1 ISZERO ISZERO DUP2 MSTORE PUSH1 0x20 ADD JUMPDEST PUSH1 0x40 MLOAD DUP1 SWAP2 SUB SWAP1 RETURN JUMPDEST CALLVALUE DUP1 ISZERO PUSH2 0x2A2 JUMPI PUSH0 DUP1 REVERT JUMPDEST POP PUSH2 0x2AB PUSH2 0x853 JUMP JUMPDEST PUSH1 0x40 MLOAD PUSH2 0x28E SWAP2 SWAP1 PUSH2 0x32BF JUMP JUMPDEST CALLVALUE DUP1 ISZERO PUSH2 0x2C3 JUMPI PUSH0 DUP1 REVERT JUMPDEST POP PUSH2 0x2D7 PUSH2 0x2D2 CALLDATASIZE PUSH1 0x4 PUSH2 0x32D1 JUMP JUMPDEST PUSH2 0x8F4 JUMP JUMPDEST PUSH1 0x40 MLOAD PUSH1 0x1 PUSH1 0x1 PUSH1 0xA0 SHL SUB SWAP1 SWAP2 AND DUP2 MSTORE PUSH1 0x20 ADD PUSH2 0x28E JUMP JUMPDEST CALLVALUE DUP1 ISZERO PUSH2 0x2FA JUMPI PUSH0 DUP1 REVERT JUMPDEST POP PUSH2 0x30E PUSH2 0x309 CALLDATASIZE PUSH1 0x4 PUSH2 0x3303 JUMP JUMPDEST PUSH2 0x908 JUMP JUMPDEST STOP JUMPDEST CALLVALUE DUP1 ISZERO PUSH2 0x31B JUMPI PUSH0 DUP1 REVERT JUMPDEST POP PUSH0 DUP1 MLOAD PUSH1 0x20 PUSH2 0x3A92 DUP4 CODECOPY DUP2 MLOAD SWAP2 MSTORE SLOAD JUMPDEST PUSH1 0x40 MLOAD SWAP1 DUP2 MSTORE PUSH1 0x20 ADD PUSH2 0x28E JUMP JUMPDEST CALLVALUE DUP1 ISZERO PUSH2 0x345 JUMPI PUSH0 DUP1 REVERT JUMPDEST POP PUSH2 0x30E PUSH2 0x354 CALLDATASIZE PUSH1 0x4 PUSH2 0x332B JUMP JUMPDEST PUSH2 0x917 JUMP JUMPDEST CALLVALUE DUP1 ISZERO PUSH2 0x364 JUMPI PUSH0 DUP1 REVERT JUMPDEST POP PUSH2 0x32C PUSH2 0x373 CALLDATASIZE PUSH1 0x4 PUSH2 0x32D1 JUMP JUMPDEST PUSH2 0x9A5 JUMP JUMPDEST CALLVALUE DUP1 ISZERO PUSH2 0x383 JUMPI PUSH0 DUP1 REVERT JUMPDEST POP PUSH2 0x30E PUSH2 0x392 CALLDATASIZE PUSH1 0x4 PUSH2 0x3365 JUMP JUMPDEST PUSH2 0x9C5 JUMP JUMPDEST CALLVALUE DUP1 ISZERO PUSH2 0x3A2 JUMPI PUSH0 DUP1 REVERT JUMPDEST POP PUSH2 0x32C PUSH2 0x3B1 CALLDATASIZE PUSH1 0x4 PUSH2 0x3303 JUMP JUMPDEST PUSH2 0x9E1 JUMP JUMPDEST CALLVALUE DUP1 ISZERO PUSH2 0x3C1 JUMPI PUSH0 DUP1 REVERT JUMPDEST POP PUSH2 0x30E PUSH2 0x3D0 CALLDATASIZE PUSH1 0x4 PUSH2 0x3365 JUMP JUMPDEST PUSH2 0xA52 JUMP JUMPDEST CALLVALUE DUP1 ISZERO PUSH2 0x3E0 JUMPI PUSH0 DUP1 REVERT JUMPDEST POP PUSH2 0x32C PUSH2 0x3EF CALLDATASIZE PUSH1 0x4 PUSH2 0x3303 JUMP JUMPDEST PUSH2 0xA8A JUMP JUMPDEST CALLVALUE DUP1 ISZERO PUSH2 0x3FF JUMPI PUSH0 DUP1 REVERT JUMPDEST POP PUSH2 0x30E PUSH2 0xB10 JUMP JUMPDEST CALLVALUE DUP1 ISZERO PUSH2 0x413 JUMPI PUSH0 DUP1 REVERT JUMPDEST POP PUSH2 0x30E PUSH2 0x422 CALLDATASIZE PUSH1 0x4 PUSH2 0x332B JUMP JUMPDEST PUSH2 0xB32 JUMP JUMPDEST CALLVALUE DUP1 ISZERO PUSH2 0x432 JUMPI PUSH0 DUP1 REVERT JUMPDEST POP PUSH2 0x30E PUSH2 0x441 CALLDATASIZE PUSH1 0x4 PUSH2 0x32D1 JUMP JUMPDEST PUSH2 0xB4C JUMP JUMPDEST CALLVALUE DUP1 ISZERO PUSH2 0x451 JUMPI PUSH0 DUP1 REVERT JUMPDEST POP PUSH1 0x40 DUP1 MLOAD DUP1 DUP3 ADD SWAP1 SWAP2 MSTORE PUSH1 0xE DUP2 MSTORE PUSH14 0x6D6F64653D74696D657374616D7 PUSH1 0x94 SHL PUSH1 0x20 DUP3 ADD MSTORE PUSH2 0x2AB JUMP JUMPDEST PUSH2 0x30E PUSH2 0x48A CALLDATASIZE PUSH1 0x4 PUSH2 0x3438 JUMP JUMPDEST PUSH2 0xB57 JUMP JUMPDEST CALLVALUE DUP1 ISZERO PUSH2 0x49A JUMPI PUSH0 DUP1 REVERT JUMPDEST POP PUSH2 0x32C PUSH2 0x4A9 CALLDATASIZE PUSH1 0x4 PUSH2 0x32D1 JUMP JUMPDEST PUSH2 0xB72 JUMP JUMPDEST CALLVALUE DUP1 ISZERO PUSH2 0x4B9 JUMPI PUSH0 DUP1 REVERT JUMPDEST POP PUSH2 0x32C PUSH2 0xBE4 JUMP JUMPDEST CALLVALUE DUP1 ISZERO PUSH2 0x4CD JUMPI PUSH0 DUP1 REVERT JUMPDEST POP PUSH2 0x2D7 PUSH2 0x4DC CALLDATASIZE PUSH1 0x4 PUSH2 0x3483 JUMP JUMPDEST PUSH2 0xBFF JUMP JUMPDEST CALLVALUE DUP1 ISZERO PUSH2 0x4EC JUMPI PUSH0 DUP1 REVERT JUMPDEST POP PUSH2 0x30E PUSH2 0x4FB CALLDATASIZE PUSH1 0x4 PUSH2 0x3483 JUMP JUMPDEST PUSH2 0xC28 JUMP JUMPDEST CALLVALUE DUP1 ISZERO PUSH2 0x50B JUMPI PUSH0 DUP1 REVERT JUMPDEST POP PUSH0 DUP1 MLOAD PUSH1 0x20 PUSH2 0x3AD2 DUP4 CODECOPY DUP2 MLOAD SWAP2 MSTORE SLOAD PUSH1 0xFF AND PUSH2 0x282 JUMP JUMPDEST CALLVALUE DUP1 ISZERO PUSH2 0x52E JUMPI PUSH0 DUP1 REVERT JUMPDEST POP PUSH2 0x2D7 PUSH2 0x53D CALLDATASIZE PUSH1 0x4 PUSH2 0x32D1 JUMP JUMPDEST PUSH2 0xC33 JUMP JUMPDEST CALLVALUE DUP1 ISZERO PUSH2 0x54D JUMPI PUSH0 DUP1 REVERT JUMPDEST POP PUSH2 0x32C PUSH2 0x55C CALLDATASIZE PUSH1 0x4 PUSH2 0x3483 JUMP JUMPDEST PUSH2 0xC3D JUMP JUMPDEST CALLVALUE DUP1 ISZERO PUSH2 0x56C JUMPI PUSH0 DUP1 REVERT JUMPDEST POP PUSH2 0x32C PUSH2 0x57B CALLDATASIZE PUSH1 0x4 PUSH2 0x3483 JUMP JUMPDEST PUSH1 0x1 PUSH1 0x1 PUSH1 0xA0 SHL SUB AND PUSH0 SWAP1 DUP2 MSTORE PUSH32 0x5AB42CED628888259C08AC98DB1EB0CF702FC1501344311D8B100CD1BFE4BB00 PUSH1 0x20 MSTORE PUSH1 0x40 SWAP1 KECCAK256 SLOAD SWAP1 JUMP JUMPDEST CALLVALUE DUP1 ISZERO PUSH2 0x5BF JUMPI PUSH0 DUP1 REVERT JUMPDEST POP PUSH2 0x30E PUSH2 0xC95 JUMP JUMPDEST CALLVALUE DUP1 ISZERO PUSH2 0x5D3 JUMPI PUSH0 DUP1 REVERT JUMPDEST POP PUSH2 0x5DC PUSH2 0xCB4 JUMP JUMPDEST PUSH1 0x40 MLOAD PUSH2 0x28E SWAP8 SWAP7 SWAP6 SWAP5 SWAP4 SWAP3 SWAP2 SWAP1 PUSH2 0x349C JUMP JUMPDEST CALLVALUE DUP1 ISZERO PUSH2 0x5FA JUMPI PUSH0 DUP1 REVERT JUMPDEST POP PUSH2 0x32C PUSH2 0x609 CALLDATASIZE PUSH1 0x4 PUSH2 0x32D1 JUMP JUMPDEST PUSH2 0xD5D JUMP JUMPDEST CALLVALUE DUP1 ISZERO PUSH2 0x619 JUMPI PUSH0 DUP1 REVERT JUMPDEST POP PUSH2 0x282 PUSH2 0x628 CALLDATASIZE PUSH1 0x4 PUSH2 0x3365 JUMP JUMPDEST PUSH2 0xDCD JUMP JUMPDEST CALLVALUE DUP1 ISZERO PUSH2 0x638 JUMPI PUSH0 DUP1 REVERT JUMPDEST POP PUSH1 0x40 MLOAD PUSH6 0xFFFFFFFFFFFF TIMESTAMP AND DUP2 MSTORE PUSH1 0x20 ADD PUSH2 0x28E JUMP JUMPDEST CALLVALUE DUP1 ISZERO PUSH2 0x65A JUMPI PUSH0 DUP1 REVERT JUMPDEST POP PUSH2 0x2AB PUSH2 0xE03 JUMP JUMPDEST CALLVALUE DUP1 ISZERO PUSH2 0x66E JUMPI PUSH0 DUP1 REVERT JUMPDEST POP PUSH2 0x32C PUSH2 0x67D CALLDATASIZE PUSH1 0x4 PUSH2 0x3483 JUMP JUMPDEST PUSH2 0xE41 JUMP JUMPDEST CALLVALUE DUP1 ISZERO PUSH2 0x68D JUMPI PUSH0 DUP1 REVERT JUMPDEST POP PUSH2 0x32C PUSH0 DUP2 JUMP JUMPDEST CALLVALUE DUP1 ISZERO PUSH2 0x6A0 JUMPI PUSH0 DUP1 REVERT JUMPDEST POP PUSH2 0x30E PUSH2 0x6AF CALLDATASIZE PUSH1 0x4 PUSH2 0x3532 JUMP JUMPDEST PUSH2 0xE9F JUMP JUMPDEST CALLVALUE DUP1 ISZERO PUSH2 0x6BF JUMPI PUSH0 DUP1 REVERT JUMPDEST POP PUSH2 0x2AB PUSH1 0x40 MLOAD DUP1 PUSH1 0x40 ADD PUSH1 0x40 MSTORE DUP1 PUSH1 0x5 DUP2 MSTORE PUSH1 0x20 ADD PUSH5 0x352E302E3 PUSH1 0xDC SHL DUP2 MSTORE POP DUP2 JUMP JUMPDEST CALLVALUE DUP1 ISZERO PUSH2 0x6EF JUMPI PUSH0 DUP1 REVERT JUMPDEST POP PUSH2 0x30E PUSH2 0x6FE CALLDATASIZE PUSH1 0x4 PUSH2 0x356B JUMP JUMPDEST PUSH2 0xEAA JUMP JUMPDEST CALLVALUE DUP1 ISZERO PUSH2 0x70E JUMPI PUSH0 DUP1 REVERT JUMPDEST POP PUSH2 0x30E PUSH2 0x71D CALLDATASIZE PUSH1 0x4 PUSH2 0x35CF JUMP JUMPDEST PUSH2 0xEC2 JUMP JUMPDEST CALLVALUE DUP1 ISZERO PUSH2 0x72D JUMPI PUSH0 DUP1 REVERT JUMPDEST POP PUSH2 0x2AB PUSH2 0x73C CALLDATASIZE PUSH1 0x4 PUSH2 0x32D1 JUMP JUMPDEST PUSH2 0xF7E JUMP JUMPDEST CALLVALUE DUP1 ISZERO PUSH2 0x74C JUMPI PUSH0 DUP1 REVERT JUMPDEST POP PUSH2 0x30E PUSH2 0x75B CALLDATASIZE PUSH1 0x4 PUSH2 0x362A JUMP JUMPDEST PUSH2 0xF89 JUMP JUMPDEST CALLVALUE DUP1 ISZERO PUSH2 0x76B JUMPI PUSH0 DUP1 REVERT JUMPDEST POP PUSH2 0x32C PUSH32 0x9F2DF0FED2C77648DE5860A4CC508CD0818C85B8B8A1AB4CEEEF8D981C8956A6 DUP2 JUMP JUMPDEST CALLVALUE DUP1 ISZERO PUSH2 0x79E JUMPI PUSH0 DUP1 REVERT JUMPDEST POP PUSH2 0x30E PUSH2 0x7AD CALLDATASIZE PUSH1 0x4 PUSH2 0x3365 JUMP JUMPDEST PUSH2 0xFDB JUMP JUMPDEST CALLVALUE DUP1 ISZERO PUSH2 0x7BD JUMPI PUSH0 DUP1 REVERT JUMPDEST POP PUSH2 0x32C PUSH0 DUP1 MLOAD PUSH1 0x20 PUSH2 0x3A72 DUP4 CODECOPY DUP2 MLOAD SWAP2 MSTORE DUP2 JUMP JUMPDEST CALLVALUE DUP1 ISZERO PUSH2 0x7DD JUMPI PUSH0 DUP1 REVERT JUMPDEST POP PUSH2 0x282 PUSH2 0x7EC CALLDATASIZE PUSH1 0x4 PUSH2 0x367E JUMP JUMPDEST PUSH2 0xFF7 JUMP JUMPDEST CALLVALUE DUP1 ISZERO PUSH2 0x7FC JUMPI PUSH0 DUP1 REVERT JUMPDEST POP PUSH2 0x32C PUSH32 0x189AB7A9244DF0848122154315AF71FE140F3DB0FE014031783B0946B8C9D2E3 DUP2 JUMP JUMPDEST CALLVALUE DUP1 ISZERO PUSH2 0x82F JUMPI PUSH0 DUP1 REVERT JUMPDEST POP PUSH2 0x30E PUSH2 0x83E CALLDATASIZE PUSH1 0x4 PUSH2 0x36A6 JUMP JUMPDEST PUSH2 0x1043 JUMP JUMPDEST PUSH0 PUSH2 0x84D DUP3 PUSH2 0x1297 JUMP JUMPDEST SWAP3 SWAP2 POP POP JUMP JUMPDEST PUSH0 DUP1 MLOAD PUSH1 0x20 PUSH2 0x3A12 DUP4 CODECOPY DUP2 MLOAD SWAP2 MSTORE DUP1 SLOAD PUSH1 0x60 SWAP2 SWAP1 DUP2 SWAP1 PUSH2 0x872 SWAP1 PUSH2 0x36F7 JUMP JUMPDEST DUP1 PUSH1 0x1F ADD PUSH1 0x20 DUP1 SWAP2 DIV MUL PUSH1 0x20 ADD PUSH1 0x40 MLOAD SWAP1 DUP2 ADD PUSH1 0x40 MSTORE DUP1 SWAP3 SWAP2 SWAP1 DUP2 DUP2 MSTORE PUSH1 0x20 ADD DUP3 DUP1 SLOAD PUSH2 0x89E SWAP1 PUSH2 0x36F7 JUMP JUMPDEST DUP1 ISZERO PUSH2 0x8E9 JUMPI DUP1 PUSH1 0x1F LT PUSH2 0x8C0 JUMPI PUSH2 0x100 DUP1 DUP4 SLOAD DIV MUL DUP4 MSTORE SWAP2 PUSH1 0x20 ADD SWAP2 PUSH2 0x8E9 JUMP JUMPDEST DUP3 ADD SWAP2 SWAP1 PUSH0 MSTORE PUSH1 0x20 PUSH0 KECCAK256 SWAP1 JUMPDEST DUP2 SLOAD DUP2 MSTORE SWAP1 PUSH1 0x1 ADD SWAP1 PUSH1 0x20 ADD DUP1 DUP4 GT PUSH2 0x8CC JUMPI DUP3 SWAP1 SUB PUSH1 0x1F AND DUP3 ADD SWAP2 JUMPDEST POP POP POP POP POP SWAP2 POP POP SWAP1 JUMP JUMPDEST PUSH0 PUSH2 0x8FE DUP3 PUSH2 0x12BB JUMP JUMPDEST POP PUSH2 0x84D DUP3 PUSH2 0x12F2 JUMP JUMPDEST PUSH2 0x913 DUP3 DUP3 CALLER PUSH2 0x132B JUMP JUMPDEST POP POP JUMP JUMPDEST PUSH1 0x1 PUSH1 0x1 PUSH1 0xA0 SHL SUB DUP3 AND PUSH2 0x945 JUMPI PUSH1 0x40 MLOAD PUSH4 0x32505749 PUSH1 0xE1 SHL DUP2 MSTORE PUSH0 PUSH1 0x4 DUP3 ADD MSTORE PUSH1 0x24 ADD JUMPDEST PUSH1 0x40 MLOAD DUP1 SWAP2 SUB SWAP1 REVERT JUMPDEST PUSH0 PUSH2 0x951 DUP4 DUP4 CALLER PUSH2 0x1338 JUMP JUMPDEST SWAP1 POP DUP4 PUSH1 0x1 PUSH1 0x1 PUSH1 0xA0 SHL SUB AND DUP2 PUSH1 0x1 PUSH1 0x1 PUSH1 0xA0 SHL SUB AND EQ PUSH2 0x99F JUMPI PUSH1 0x40 MLOAD PUSH4 0x64283D7B PUSH1 0xE0 SHL DUP2 MSTORE PUSH1 0x1 PUSH1 0x1 PUSH1 0xA0 SHL SUB DUP1 DUP7 AND PUSH1 0x4 DUP4 ADD MSTORE PUSH1 0x24 DUP3 ADD DUP5 SWAP1 MSTORE DUP3 AND PUSH1 0x44 DUP3 ADD MSTORE PUSH1 0x64 ADD PUSH2 0x93C JUMP JUMPDEST POP POP POP POP JUMP JUMPDEST PUSH0 SWAP1 DUP2 MSTORE PUSH0 DUP1 MLOAD PUSH1 0x20 PUSH2 0x3AB2 DUP4 CODECOPY DUP2 MLOAD SWAP2 MSTORE PUSH1 0x20 MSTORE PUSH1 0x40 SWAP1 KECCAK256 PUSH1 0x1 ADD SLOAD SWAP1 JUMP JUMPDEST PUSH2 0x9CE DUP3 PUSH2 0x9A5 JUMP JUMPDEST PUSH2 0x9D7 DUP2 PUSH2 0x134E JUMP JUMPDEST PUSH2 0x99F DUP4 DUP4 PUSH2 0x1358 JUMP JUMPDEST PUSH0 PUSH0 DUP1 MLOAD PUSH1 0x20 PUSH2 0x39F2 DUP4 CODECOPY DUP2 MLOAD SWAP2 MSTORE PUSH2 0x9F9 DUP5 PUSH2 0xC3D JUMP JUMPDEST DUP4 LT PUSH2 0xA2A JUMPI PUSH1 0x40 MLOAD PUSH4 0x295F44F7 PUSH1 0xE2 SHL DUP2 MSTORE PUSH1 0x1 PUSH1 0x1 PUSH1 0xA0 SHL SUB DUP6 AND PUSH1 0x4 DUP3 ADD MSTORE PUSH1 0x24 DUP2 ADD DUP5 SWAP1 MSTORE PUSH1 0x44 ADD PUSH2 0x93C JUMP JUMPDEST PUSH1 0x1 PUSH1 0x1 PUSH1 0xA0 SHL SUB DUP5 AND PUSH0 SWAP1 DUP2 MSTORE PUSH1 0x20 SWAP2 DUP3 MSTORE PUSH1 0x40 DUP1 DUP3 KECCAK256 DUP6 DUP4 MSTORE SWAP1 SWAP3 MSTORE KECCAK256 SLOAD SWAP1 POP SWAP3 SWAP2 POP POP JUMP JUMPDEST PUSH1 0x1 PUSH1 0x1 PUSH1 0xA0 SHL SUB DUP2 AND CALLER EQ PUSH2 0xA7B JUMPI PUSH1 0x40 MLOAD PUSH4 0x334BD919 PUSH1 0xE1 SHL DUP2 MSTORE PUSH1 0x4 ADD PUSH1 0x40 MLOAD DUP1 SWAP2 SUB SWAP1 REVERT JUMPDEST PUSH2 0xA85 DUP3 DUP3 PUSH2 0x13F9 JUMP JUMPDEST POP POP POP JUMP JUMPDEST PUSH0 PUSH0 DUP1 MLOAD PUSH1 0x20 PUSH2 0x39D2 DUP4 CODECOPY DUP2 MLOAD SWAP2 MSTORE TIMESTAMP PUSH6 0xFFFFFFFFFFFF DUP2 AND DUP5 LT PUSH2 0xAD3 JUMPI PUSH1 0x40 MLOAD PUSH4 0x7669FC0F PUSH1 0xE1 SHL DUP2 MSTORE PUSH1 0x4 DUP2 ADD DUP6 SWAP1 MSTORE PUSH6 0xFFFFFFFFFFFF DUP3 AND PUSH1 0x24 DUP3 ADD MSTORE PUSH1 0x44 ADD PUSH2 0x93C JUMP JUMPDEST PUSH2 0xAFE PUSH2 0xADF DUP6 PUSH2 0x1472 JUMP JUMPDEST PUSH1 0x1 PUSH1 0x1 PUSH1 0xA0 SHL SUB DUP8 AND PUSH0 SWAP1 DUP2 MSTORE PUSH1 0x1 DUP6 ADD PUSH1 0x20 MSTORE PUSH1 0x40 SWAP1 KECCAK256 SWAP1 PUSH2 0x14A8 JUMP JUMPDEST PUSH1 0x1 PUSH1 0x1 PUSH1 0xD0 SHL SUB AND SWAP6 SWAP5 POP POP POP POP POP JUMP JUMPDEST PUSH0 DUP1 MLOAD PUSH1 0x20 PUSH2 0x3A72 DUP4 CODECOPY DUP2 MLOAD SWAP2 MSTORE PUSH2 0xB27 DUP2 PUSH2 0x134E JUMP JUMPDEST PUSH2 0xB2F PUSH2 0x1558 JUMP JUMPDEST POP JUMP JUMPDEST PUSH2 0xA85 DUP4 DUP4 DUP4 PUSH1 0x40 MLOAD DUP1 PUSH1 0x20 ADD PUSH1 0x40 MSTORE DUP1 PUSH0 DUP2 MSTORE POP PUSH2 0xEAA JUMP JUMPDEST PUSH2 0x913 PUSH0 DUP3 CALLER PUSH2 0x1338 JUMP JUMPDEST PUSH2 0xB5F PUSH2 0x15B7 JUMP JUMPDEST PUSH2 0xB68 DUP3 PUSH2 0x165D JUMP JUMPDEST PUSH2 0x913 DUP3 DUP3 PUSH2 0x1687 JUMP JUMPDEST PUSH0 PUSH0 DUP1 MLOAD PUSH1 0x20 PUSH2 0x39F2 DUP4 CODECOPY DUP2 MLOAD SWAP2 MSTORE PUSH2 0xB96 PUSH0 DUP1 MLOAD PUSH1 0x20 PUSH2 0x3A92 DUP4 CODECOPY DUP2 MLOAD SWAP2 MSTORE SLOAD SWAP1 JUMP JUMPDEST DUP4 LT PUSH2 0xBBE JUMPI PUSH1 0x40 MLOAD PUSH4 0x295F44F7 PUSH1 0xE2 SHL DUP2 MSTORE PUSH0 PUSH1 0x4 DUP3 ADD MSTORE PUSH1 0x24 DUP2 ADD DUP5 SWAP1 MSTORE PUSH1 0x44 ADD PUSH2 0x93C JUMP JUMPDEST DUP1 PUSH1 0x2 ADD DUP4 DUP2 SLOAD DUP2 LT PUSH2 0xBD3 JUMPI PUSH2 0xBD3 PUSH2 0x372F JUMP JUMPDEST SWAP1 PUSH0 MSTORE PUSH1 0x20 PUSH0 KECCAK256 ADD SLOAD SWAP2 POP POP SWAP2 SWAP1 POP JUMP JUMPDEST PUSH0 PUSH2 0xBED PUSH2 0x1743 JUMP JUMPDEST POP PUSH0 DUP1 MLOAD PUSH1 0x20 PUSH2 0x3A52 DUP4 CODECOPY DUP2 MLOAD SWAP2 MSTORE SWAP1 JUMP JUMPDEST PUSH1 0x1 PUSH1 0x1 PUSH1 0xA0 SHL SUB SWAP1 DUP2 AND PUSH0 SWAP1 DUP2 MSTORE PUSH0 DUP1 MLOAD PUSH1 0x20 PUSH2 0x39D2 DUP4 CODECOPY DUP2 MLOAD SWAP2 MSTORE PUSH1 0x20 MSTORE PUSH1 0x40 SWAP1 KECCAK256 SLOAD AND SWAP1 JUMP JUMPDEST CALLER PUSH2 0x913 DUP2 DUP4 PUSH2 0x178C JUMP JUMPDEST PUSH0 PUSH2 0x84D DUP3 PUSH2 0x12BB JUMP JUMPDEST PUSH0 PUSH0 DUP1 MLOAD PUSH1 0x20 PUSH2 0x3A12 DUP4 CODECOPY DUP2 MLOAD SWAP2 MSTORE PUSH1 0x1 PUSH1 0x1 PUSH1 0xA0 SHL SUB DUP4 AND PUSH2 0xC75 JUMPI PUSH1 0x40 MLOAD PUSH4 0x22718AD9 PUSH1 0xE2 SHL DUP2 MSTORE PUSH0 PUSH1 0x4 DUP3 ADD MSTORE PUSH1 0x24 ADD PUSH2 0x93C JUMP JUMPDEST PUSH1 0x1 PUSH1 0x1 PUSH1 0xA0 SHL SUB SWAP1 SWAP3 AND PUSH0 SWAP1 DUP2 MSTORE PUSH1 0x3 SWAP1 SWAP3 ADD PUSH1 0x20 MSTORE POP PUSH1 0x40 SWAP1 KECCAK256 SLOAD SWAP1 JUMP JUMPDEST PUSH0 DUP1 MLOAD PUSH1 0x20 PUSH2 0x3A72 DUP4 CODECOPY DUP2 MLOAD SWAP2 MSTORE PUSH2 0xCAC DUP2 PUSH2 0x134E JUMP JUMPDEST PUSH2 0xB2F PUSH2 0x1813 JUMP JUMPDEST PUSH0 PUSH1 0x60 DUP1 DUP3 DUP1 DUP1 DUP4 DUP2 PUSH0 DUP1 MLOAD PUSH1 0x20 PUSH2 0x3A32 DUP4 CODECOPY DUP2 MLOAD SWAP2 MSTORE DUP1 SLOAD SWAP1 SWAP2 POP ISZERO DUP1 ISZERO PUSH2 0xCDF JUMPI POP PUSH1 0x1 DUP2 ADD SLOAD ISZERO JUMPDEST PUSH2 0xD23 JUMPI PUSH1 0x40 MLOAD PUSH3 0x461BCD PUSH1 0xE5 SHL DUP2 MSTORE PUSH1 0x20 PUSH1 0x4 DUP3 ADD MSTORE PUSH1 0x15 PUSH1 0x24 DUP3 ADD MSTORE PUSH21 0x1152540DCC4C8E88155B9A5B9A5D1A585B1A5E9959 PUSH1 0x5A SHL PUSH1 0x44 DUP3 ADD MSTORE PUSH1 0x64 ADD PUSH2 0x93C JUMP JUMPDEST PUSH2 0xD2B PUSH2 0x185B JUMP JUMPDEST PUSH2 0xD33 PUSH2 0x1899 JUMP JUMPDEST PUSH1 0x40 DUP1 MLOAD PUSH0 DUP1 DUP3 MSTORE PUSH1 0x20 DUP3 ADD SWAP1 SWAP3 MSTORE PUSH1 0xF PUSH1 0xF8 SHL SWAP13 SWAP4 SWAP12 POP SWAP2 SWAP10 POP CHAINID SWAP9 POP ADDRESS SWAP8 POP SWAP6 POP SWAP4 POP SWAP2 POP POP JUMP JUMPDEST PUSH0 PUSH0 DUP1 MLOAD PUSH1 0x20 PUSH2 0x39D2 DUP4 CODECOPY DUP2 MLOAD SWAP2 MSTORE TIMESTAMP PUSH6 0xFFFFFFFFFFFF DUP2 AND DUP5 LT PUSH2 0xDA6 JUMPI PUSH1 0x40 MLOAD PUSH4 0x7669FC0F PUSH1 0xE1 SHL DUP2 MSTORE PUSH1 0x4 DUP2 ADD DUP6 SWAP1 MSTORE PUSH6 0xFFFFFFFFFFFF DUP3 AND PUSH1 0x24 DUP3 ADD MSTORE PUSH1 0x44 ADD PUSH2 0x93C JUMP JUMPDEST PUSH2 0xDBC PUSH2 0xDB2 DUP6 PUSH2 0x1472 JUMP JUMPDEST PUSH1 0x2 DUP5 ADD SWAP1 PUSH2 0x14A8 JUMP JUMPDEST PUSH1 0x1 PUSH1 0x1 PUSH1 0xD0 SHL SUB AND SWAP5 SWAP4 POP POP POP POP JUMP JUMPDEST PUSH0 SWAP2 DUP3 MSTORE PUSH0 DUP1 MLOAD PUSH1 0x20 PUSH2 0x3AB2 DUP4 CODECOPY DUP2 MLOAD SWAP2 MSTORE PUSH1 0x20 SWAP1 DUP2 MSTORE PUSH1 0x40 DUP1 DUP5 KECCAK256 PUSH1 0x1 PUSH1 0x1 PUSH1 0xA0 SHL SUB SWAP4 SWAP1 SWAP4 AND DUP5 MSTORE SWAP2 SWAP1 MSTORE SWAP1 KECCAK256 SLOAD PUSH1 0xFF AND SWAP1 JUMP JUMPDEST PUSH32 0x80BB2B638CC20BC4D0A60D66940F3AB4A00C1D7B313497CA82FB0B4AB0079301 DUP1 SLOAD PUSH1 0x60 SWAP2 PUSH0 DUP1 MLOAD PUSH1 0x20 PUSH2 0x3A12 DUP4 CODECOPY DUP2 MLOAD SWAP2 MSTORE SWAP2 PUSH2 0x872 SWAP1 PUSH2 0x36F7 JUMP JUMPDEST PUSH1 0x1 PUSH1 0x1 PUSH1 0xA0 SHL SUB DUP2 AND PUSH0 SWAP1 DUP2 MSTORE PUSH32 0xE8B26C30FAD74198956032A3533D903385D56DD795AF560196F9C78D4AF40D01 PUSH1 0x20 MSTORE PUSH1 0x40 DUP2 KECCAK256 PUSH0 DUP1 MLOAD PUSH1 0x20 PUSH2 0x39D2 DUP4 CODECOPY DUP2 MLOAD SWAP2 MSTORE SWAP1 PUSH2 0xE8F SWAP1 PUSH2 0x18D7 JUMP JUMPDEST PUSH1 0x1 PUSH1 0x1 PUSH1 0xD0 SHL SUB AND SWAP4 SWAP3 POP POP POP JUMP JUMPDEST PUSH2 0x913 CALLER DUP4 DUP4 PUSH2 0x190E JUMP JUMPDEST PUSH2 0xEB5 DUP5 DUP5 DUP5 PUSH2 0x917 JUMP JUMPDEST PUSH2 0x99F CALLER DUP6 DUP6 DUP6 DUP6 PUSH2 0x19BD JUMP JUMPDEST DUP4 TIMESTAMP GT ISZERO PUSH2 0xEE6 JUMPI PUSH1 0x40 MLOAD PUSH4 0x2341D787 PUSH1 0xE1 SHL DUP2 MSTORE PUSH1 0x4 DUP2 ADD DUP6 SWAP1 MSTORE PUSH1 0x24 ADD PUSH2 0x93C JUMP JUMPDEST PUSH1 0x40 DUP1 MLOAD PUSH32 0xE48329057BFD03D55E49B547132E39CFFD9C1820AD7B9D4C5307691425D15ADF PUSH1 0x20 DUP3 ADD MSTORE PUSH1 0x1 PUSH1 0x1 PUSH1 0xA0 SHL SUB DUP9 AND SWAP2 DUP2 ADD SWAP2 SWAP1 SWAP2 MSTORE PUSH1 0x60 DUP2 ADD DUP7 SWAP1 MSTORE PUSH1 0x80 DUP2 ADD DUP6 SWAP1 MSTORE PUSH0 SWAP1 PUSH2 0xF5F SWAP1 PUSH2 0xF57 SWAP1 PUSH1 0xA0 ADD PUSH1 0x40 MLOAD PUSH1 0x20 DUP2 DUP4 SUB SUB DUP2 MSTORE SWAP1 PUSH1 0x40 MSTORE DUP1 MLOAD SWAP1 PUSH1 0x20 ADD KECCAK256 PUSH2 0x1AE5 JUMP JUMPDEST DUP6 DUP6 DUP6 PUSH2 0x1B11 JUMP JUMPDEST SWAP1 POP PUSH2 0xF6B DUP2 DUP8 PUSH2 0x1B3D JUMP JUMPDEST PUSH2 0xF75 DUP2 DUP9 PUSH2 0x178C JUMP JUMPDEST POP POP POP POP POP POP POP JUMP JUMPDEST PUSH1 0x60 PUSH2 0x84D DUP3 PUSH2 0x1BAE JUMP JUMPDEST PUSH32 0x9F2DF0FED2C77648DE5860A4CC508CD0818C85B8B8A1AB4CEEEF8D981C8956A6 PUSH2 0xFB3 DUP2 PUSH2 0x134E JUMP JUMPDEST PUSH0 DUP1 SLOAD DUP2 DUP1 PUSH2 0xFC1 DUP4 PUSH2 0x3757 JUMP JUMPDEST SWAP2 SWAP1 POP SSTORE SWAP1 POP PUSH2 0xFD1 DUP5 DUP3 PUSH2 0x1D03 JUMP JUMPDEST PUSH2 0x99F DUP2 DUP5 PUSH2 0x1D1C JUMP JUMPDEST PUSH2 0xFE4 DUP3 PUSH2 0x9A5 JUMP JUMPDEST PUSH2 0xFED DUP2 PUSH2 0x134E JUMP JUMPDEST PUSH2 0x99F DUP4 DUP4 PUSH2 0x13F9 JUMP JUMPDEST PUSH1 0x1 PUSH1 0x1 PUSH1 0xA0 SHL SUB SWAP2 DUP3 AND PUSH0 SWAP1 DUP2 MSTORE PUSH32 0x80BB2B638CC20BC4D0A60D66940F3AB4A00C1D7B313497CA82FB0B4AB0079305 PUSH1 0x20 SWAP1 DUP2 MSTORE PUSH1 0x40 DUP1 DUP4 KECCAK256 SWAP4 SWAP1 SWAP5 AND DUP3 MSTORE SWAP2 SWAP1 SWAP2 MSTORE KECCAK256 SLOAD PUSH1 0xFF AND SWAP1 JUMP JUMPDEST PUSH32 0xF0C57E16840DF040F15088DC2F81FE391C3923BEC73E23A9662EFC9C229C6A00 DUP1 SLOAD PUSH1 0x1 PUSH1 0x40 SHL DUP2 DIV PUSH1 0xFF AND ISZERO SWAP1 PUSH8 0xFFFFFFFFFFFFFFFF AND PUSH0 DUP2 ISZERO DUP1 ISZERO PUSH2 0x1088 JUMPI POP DUP3 JUMPDEST SWAP1 POP PUSH0 DUP3 PUSH8 0xFFFFFFFFFFFFFFFF AND PUSH1 0x1 EQ DUP1 ISZERO PUSH2 0x10A4 JUMPI POP ADDRESS EXTCODESIZE ISZERO JUMPDEST SWAP1 POP DUP2 ISZERO DUP1 ISZERO PUSH2 0x10B2 JUMPI POP DUP1 ISZERO JUMPDEST ISZERO PUSH2 0x10D0 JUMPI PUSH1 0x40 MLOAD PUSH4 0xF92EE8A9 PUSH1 0xE0 SHL DUP2 MSTORE PUSH1 0x4 ADD PUSH1 0x40 MLOAD DUP1 SWAP2 SUB SWAP1 REVERT JUMPDEST DUP5 SLOAD PUSH8 0xFFFFFFFFFFFFFFFF NOT AND PUSH1 0x1 OR DUP6 SSTORE DUP4 ISZERO PUSH2 0x10FA JUMPI DUP5 SLOAD PUSH1 0xFF PUSH1 0x40 SHL NOT AND PUSH1 0x1 PUSH1 0x40 SHL OR DUP6 SSTORE JUMPDEST PUSH2 0x114C PUSH1 0x40 MLOAD DUP1 PUSH1 0x40 ADD PUSH1 0x40 MSTORE DUP1 PUSH1 0xE DUP2 MSTORE PUSH1 0x20 ADD PUSH14 0x29BA32BB32A1B0B932AA37B5B2B7 PUSH1 0x91 SHL DUP2 MSTORE POP PUSH1 0x40 MLOAD DUP1 PUSH1 0x40 ADD PUSH1 0x40 MSTORE DUP1 PUSH1 0xA DUP2 MSTORE PUSH1 0x20 ADD PUSH10 0x5354455645432D544F4B PUSH1 0xB0 SHL DUP2 MSTORE POP PUSH2 0x1D8E JUMP JUMPDEST PUSH2 0x1154 PUSH2 0x1DA0 JUMP JUMPDEST PUSH2 0x115C PUSH2 0x1DA0 JUMP JUMPDEST PUSH2 0x1164 PUSH2 0x1DA8 JUMP JUMPDEST PUSH2 0x116C PUSH2 0x1DA0 JUMP JUMPDEST PUSH2 0x1174 PUSH2 0x1DA0 JUMP JUMPDEST PUSH2 0x11BD PUSH1 0x40 MLOAD DUP1 PUSH1 0x40 ADD PUSH1 0x40 MSTORE DUP1 PUSH1 0xE DUP2 MSTORE PUSH1 0x20 ADD PUSH14 0x29BA32BB32A1B0B932AA37B5B2B7 PUSH1 0x91 SHL DUP2 MSTORE POP PUSH1 0x40 MLOAD DUP1 PUSH1 0x40 ADD PUSH1 0x40 MSTORE DUP1 PUSH1 0x1 DUP2 MSTORE PUSH1 0x20 ADD PUSH1 0x31 PUSH1 0xF8 SHL DUP2 MSTORE POP PUSH2 0x1DB8 JUMP JUMPDEST PUSH2 0x11C5 PUSH2 0x1DA0 JUMP JUMPDEST PUSH2 0x11CD PUSH2 0x1DA0 JUMP JUMPDEST PUSH2 0x11D7 PUSH0 DUP11 PUSH2 0x1358 JUMP JUMPDEST POP PUSH2 0x11EF PUSH0 DUP1 MLOAD PUSH1 0x20 PUSH2 0x3A72 DUP4 CODECOPY DUP2 MLOAD SWAP2 MSTORE DUP10 PUSH2 0x1358 JUMP JUMPDEST POP PUSH2 0x121A PUSH32 0x9F2DF0FED2C77648DE5860A4CC508CD0818C85B8B8A1AB4CEEEF8D981C8956A6 DUP9 PUSH2 0x1358 JUMP JUMPDEST POP PUSH2 0x1245 PUSH32 0x189AB7A9244DF0848122154315AF71FE140F3DB0FE014031783B0946B8C9D2E3 DUP8 PUSH2 0x1358 JUMP JUMPDEST POP DUP4 ISZERO PUSH2 0x128C JUMPI DUP5 SLOAD PUSH1 0xFF PUSH1 0x40 SHL NOT AND DUP6 SSTORE PUSH1 0x40 MLOAD PUSH1 0x1 DUP2 MSTORE PUSH32 0xC7F505B2F371AE2175EE4913F4499E1F2633A7B5936321EED1CDAEB6115181D2 SWAP1 PUSH1 0x20 ADD PUSH1 0x40 MLOAD DUP1 SWAP2 SUB SWAP1 LOG1 JUMPDEST POP POP POP POP POP POP POP POP POP JUMP JUMPDEST PUSH0 PUSH1 0x1 PUSH1 0x1 PUSH1 0xE0 SHL SUB NOT DUP3 AND PUSH4 0x7965DB0B PUSH1 0xE0 SHL EQ DUP1 PUSH2 0x84D JUMPI POP PUSH2 0x84D DUP3 PUSH2 0x1DCA JUMP JUMPDEST PUSH0 DUP1 PUSH2 0x12C6 DUP4 PUSH2 0x1DEE JUMP JUMPDEST SWAP1 POP PUSH1 0x1 PUSH1 0x1 PUSH1 0xA0 SHL SUB DUP2 AND PUSH2 0x84D JUMPI PUSH1 0x40 MLOAD PUSH4 0x7E273289 PUSH1 0xE0 SHL DUP2 MSTORE PUSH1 0x4 DUP2 ADD DUP5 SWAP1 MSTORE PUSH1 0x24 ADD PUSH2 0x93C JUMP JUMPDEST PUSH0 SWAP1 DUP2 MSTORE PUSH32 0x80BB2B638CC20BC4D0A60D66940F3AB4A00C1D7B313497CA82FB0B4AB0079304 PUSH1 0x20 MSTORE PUSH1 0x40 SWAP1 KECCAK256 SLOAD PUSH1 0x1 PUSH1 0x1 PUSH1 0xA0 SHL SUB AND SWAP1 JUMP JUMPDEST PUSH2 0xA85 DUP4 DUP4 DUP4 PUSH1 0x1 PUSH2 0x1E27 JUMP JUMPDEST PUSH0 PUSH2 0x1344 DUP5 DUP5 DUP5 PUSH2 0x1F3A JUMP JUMPDEST SWAP1 POP JUMPDEST SWAP4 SWAP3 POP POP POP JUMP JUMPDEST PUSH2 0xB2F DUP2 CALLER PUSH2 0x1F55 JUMP JUMPDEST PUSH0 PUSH0 DUP1 MLOAD PUSH1 0x20 PUSH2 0x3AB2 DUP4 CODECOPY DUP2 MLOAD SWAP2 MSTORE PUSH2 0x1371 DUP5 DUP5 PUSH2 0xDCD JUMP JUMPDEST PUSH2 0x13F0 JUMPI PUSH0 DUP5 DUP2 MSTORE PUSH1 0x20 DUP3 DUP2 MSTORE PUSH1 0x40 DUP1 DUP4 KECCAK256 PUSH1 0x1 PUSH1 0x1 PUSH1 0xA0 SHL SUB DUP8 AND DUP5 MSTORE SWAP1 SWAP2 MSTORE SWAP1 KECCAK256 DUP1 SLOAD PUSH1 0xFF NOT AND PUSH1 0x1 OR SWAP1 SSTORE PUSH2 0x13A6 CALLER SWAP1 JUMP JUMPDEST PUSH1 0x1 PUSH1 0x1 PUSH1 0xA0 SHL SUB AND DUP4 PUSH1 0x1 PUSH1 0x1 PUSH1 0xA0 SHL SUB AND DUP6 PUSH32 0x2F8788117E7EFF1D82E926EC794901D17C78024A50270940304540A733656F0D PUSH1 0x40 MLOAD PUSH1 0x40 MLOAD DUP1 SWAP2 SUB SWAP1 LOG4 PUSH1 0x1 SWAP2 POP POP PUSH2 0x84D JUMP JUMPDEST PUSH0 SWAP2 POP POP PUSH2 0x84D JUMP JUMPDEST PUSH0 PUSH0 DUP1 MLOAD PUSH1 0x20 PUSH2 0x3AB2 DUP4 CODECOPY DUP2 MLOAD SWAP2 MSTORE PUSH2 0x1412 DUP5 DUP5 PUSH2 0xDCD JUMP JUMPDEST ISZERO PUSH2 0x13F0 JUMPI PUSH0 DUP5 DUP2 MSTORE PUSH1 0x20 DUP3 DUP2 MSTORE PUSH1 0x40 DUP1 DUP4 KECCAK256 PUSH1 0x1 PUSH1 0x1 PUSH1 0xA0 SHL SUB DUP8 AND DUP1 DUP6 MSTORE SWAP3 MSTORE DUP1 DUP4 KECCAK256 DUP1 SLOAD PUSH1 0xFF NOT AND SWAP1 SSTORE MLOAD CALLER SWAP3 DUP8 SWAP2 PUSH32 0xF6391F5C32D9C69D2A47EA670B442974B53935D1EDC7FD64EB21E047A839171B SWAP2 SWAP1 LOG4 PUSH1 0x1 SWAP2 POP POP PUSH2 0x84D JUMP JUMPDEST PUSH0 PUSH6 0xFFFFFFFFFFFF DUP3 GT ISZERO PUSH2 0x14A4 JUMPI PUSH1 0x40 MLOAD PUSH4 0x6DFCC65 PUSH1 0xE4 SHL DUP2 MSTORE PUSH1 0x30 PUSH1 0x4 DUP3 ADD MSTORE PUSH1 0x24 DUP2 ADD DUP4 SWAP1 MSTORE PUSH1 0x44 ADD PUSH2 0x93C JUMP JUMPDEST POP SWAP1 JUMP JUMPDEST DUP2 SLOAD PUSH0 SWAP1 DUP2 DUP2 PUSH1 0x5 DUP2 GT ISZERO PUSH2 0x1504 JUMPI PUSH0 PUSH2 0x14C1 DUP5 PUSH2 0x1F8E JUMP JUMPDEST PUSH2 0x14CB SWAP1 DUP6 PUSH2 0x376F JUMP JUMPDEST PUSH0 DUP9 DUP2 MSTORE PUSH1 0x20 SWAP1 KECCAK256 SWAP1 SWAP2 POP DUP2 ADD SLOAD PUSH6 0xFFFFFFFFFFFF SWAP1 DUP2 AND SWAP1 DUP8 AND LT ISZERO PUSH2 0x14F4 JUMPI DUP1 SWAP2 POP PUSH2 0x1502 JUMP JUMPDEST PUSH2 0x14FF DUP2 PUSH1 0x1 PUSH2 0x3782 JUMP JUMPDEST SWAP3 POP JUMPDEST POP JUMPDEST PUSH0 PUSH2 0x1511 DUP8 DUP8 DUP6 DUP6 PUSH2 0x20E1 JUMP JUMPDEST SWAP1 POP DUP1 ISZERO PUSH2 0x154B JUMPI PUSH2 0x1535 DUP8 PUSH2 0x1528 PUSH1 0x1 DUP5 PUSH2 0x376F JUMP JUMPDEST PUSH0 SWAP2 DUP3 MSTORE PUSH1 0x20 SWAP1 SWAP2 KECCAK256 ADD SWAP1 JUMP JUMPDEST SLOAD PUSH1 0x1 PUSH1 0x30 SHL SWAP1 DIV PUSH1 0x1 PUSH1 0x1 PUSH1 0xD0 SHL SUB AND PUSH2 0x154D JUMP JUMPDEST PUSH0 JUMPDEST SWAP8 SWAP7 POP POP POP POP POP POP POP JUMP JUMPDEST PUSH2 0x1560 PUSH2 0x2140 JUMP JUMPDEST PUSH0 DUP1 MLOAD PUSH1 0x20 PUSH2 0x3AD2 DUP4 CODECOPY DUP2 MLOAD SWAP2 MSTORE DUP1 SLOAD PUSH1 0xFF NOT AND DUP2 SSTORE PUSH32 0x5DB9EE0A495BF2E6FF9C91A7834C1BA4FDD244A5E8AA4E537BD38AEAE4B073AA CALLER JUMPDEST PUSH1 0x40 MLOAD PUSH1 0x1 PUSH1 0x1 PUSH1 0xA0 SHL SUB SWAP1 SWAP2 AND DUP2 MSTORE PUSH1 0x20 ADD PUSH1 0x40 MLOAD DUP1 SWAP2 SUB SWAP1 LOG1 POP JUMP JUMPDEST ADDRESS PUSH1 0x1 PUSH1 0x1 PUSH1 0xA0 SHL SUB PUSH32 0x0 AND EQ DUP1 PUSH2 0x163D JUMPI POP PUSH32 0x0 PUSH1 0x1 PUSH1 0x1 PUSH1 0xA0 SHL SUB AND PUSH2 0x1631 PUSH0 DUP1 MLOAD PUSH1 0x20 PUSH2 0x3A52 DUP4 CODECOPY DUP2 MLOAD SWAP2 MSTORE SLOAD PUSH1 0x1 PUSH1 0x1 PUSH1 0xA0 SHL SUB AND SWAP1 JUMP JUMPDEST PUSH1 0x1 PUSH1 0x1 PUSH1 0xA0 SHL SUB AND EQ ISZERO JUMPDEST ISZERO PUSH2 0x165B JUMPI PUSH1 0x40 MLOAD PUSH4 0x703E46DD PUSH1 0xE1 SHL DUP2 MSTORE PUSH1 0x4 ADD PUSH1 0x40 MLOAD DUP1 SWAP2 SUB SWAP1 REVERT JUMPDEST JUMP JUMPDEST PUSH32 0x189AB7A9244DF0848122154315AF71FE140F3DB0FE014031783B0946B8C9D2E3 PUSH2 0x913 DUP2 PUSH2 0x134E JUMP JUMPDEST DUP2 PUSH1 0x1 PUSH1 0x1 PUSH1 0xA0 SHL SUB AND PUSH4 0x52D1902D PUSH1 0x40 MLOAD DUP2 PUSH4 0xFFFFFFFF AND PUSH1 0xE0 SHL DUP2 MSTORE PUSH1 0x4 ADD PUSH1 0x20 PUSH1 0x40 MLOAD DUP1 DUP4 SUB DUP2 DUP7 GAS STATICCALL SWAP3 POP POP POP DUP1 ISZERO PUSH2 0x16E1 JUMPI POP PUSH1 0x40 DUP1 MLOAD PUSH1 0x1F RETURNDATASIZE SWAP1 DUP2 ADD PUSH1 0x1F NOT AND DUP3 ADD SWAP1 SWAP3 MSTORE PUSH2 0x16DE SWAP2 DUP2 ADD SWAP1 PUSH2 0x3795 JUMP JUMPDEST PUSH1 0x1 JUMPDEST PUSH2 0x1709 JUMPI PUSH1 0x40 MLOAD PUSH4 0x4C9C8CE3 PUSH1 0xE0 SHL DUP2 MSTORE PUSH1 0x1 PUSH1 0x1 PUSH1 0xA0 SHL SUB DUP4 AND PUSH1 0x4 DUP3 ADD MSTORE PUSH1 0x24 ADD PUSH2 0x93C JUMP JUMPDEST PUSH0 DUP1 MLOAD PUSH1 0x20 PUSH2 0x3A52 DUP4 CODECOPY DUP2 MLOAD SWAP2 MSTORE DUP2 EQ PUSH2 0x1739 JUMPI PUSH1 0x40 MLOAD PUSH4 0x2A875269 PUSH1 0xE2 SHL DUP2 MSTORE PUSH1 0x4 DUP2 ADD DUP3 SWAP1 MSTORE PUSH1 0x24 ADD PUSH2 0x93C JUMP JUMPDEST PUSH2 0xA85 DUP4 DUP4 PUSH2 0x216F JUMP JUMPDEST ADDRESS PUSH1 0x1 PUSH1 0x1 PUSH1 0xA0 SHL SUB PUSH32 0x0 AND EQ PUSH2 0x165B JUMPI PUSH1 0x40 MLOAD PUSH4 0x703E46DD PUSH1 0xE1 SHL DUP2 MSTORE PUSH1 0x4 ADD PUSH1 0x40 MLOAD DUP1 SWAP2 SUB SWAP1 REVERT JUMPDEST PUSH0 DUP1 MLOAD PUSH1 0x20 PUSH2 0x39D2 DUP4 CODECOPY DUP2 MLOAD SWAP2 MSTORE PUSH0 PUSH2 0x17A4 DUP5 PUSH2 0xBFF JUMP JUMPDEST PUSH1 0x1 PUSH1 0x1 PUSH1 0xA0 SHL SUB DUP6 DUP2 AND PUSH0 DUP2 DUP2 MSTORE PUSH1 0x20 DUP7 SWAP1 MSTORE PUSH1 0x40 DUP1 DUP3 KECCAK256 DUP1 SLOAD PUSH1 0x1 PUSH1 0x1 PUSH1 0xA0 SHL SUB NOT AND DUP10 DUP7 AND SWAP1 DUP2 OR SWAP1 SWAP2 SSTORE SWAP1 MLOAD SWAP5 SWAP6 POP SWAP4 SWAP3 DUP6 AND SWAP3 PUSH32 0x3134E8A2E6D97E929A7E54011EA5485D7D196DD5F0BA4D4EF95803E8E3FC257F SWAP2 SWAP1 LOG4 PUSH2 0x99F DUP2 DUP5 PUSH2 0x180E DUP8 PUSH2 0x21C4 JUMP JUMPDEST PUSH2 0x21CE JUMP JUMPDEST PUSH2 0x181B PUSH2 0x2344 JUMP JUMPDEST PUSH0 DUP1 MLOAD PUSH1 0x20 PUSH2 0x3AD2 DUP4 CODECOPY DUP2 MLOAD SWAP2 MSTORE DUP1 SLOAD PUSH1 0xFF NOT AND PUSH1 0x1 OR DUP2 SSTORE PUSH32 0x62E78CEA01BEE320CD4E420270B5EA74000D11B0C9F74754EBDBFC544B05A258 CALLER PUSH2 0x1599 JUMP JUMPDEST PUSH32 0xA16A46D94261C7517CC8FF89F61C0CE93598E3C849801011DEE649A6A557D102 DUP1 SLOAD PUSH1 0x60 SWAP2 PUSH0 DUP1 MLOAD PUSH1 0x20 PUSH2 0x3A32 DUP4 CODECOPY DUP2 MLOAD SWAP2 MSTORE SWAP2 PUSH2 0x872 SWAP1 PUSH2 0x36F7 JUMP JUMPDEST PUSH32 0xA16A46D94261C7517CC8FF89F61C0CE93598E3C849801011DEE649A6A557D103 DUP1 SLOAD PUSH1 0x60 SWAP2 PUSH0 DUP1 MLOAD PUSH1 0x20 PUSH2 0x3A32 DUP4 CODECOPY DUP2 MLOAD SWAP2 MSTORE SWAP2 PUSH2 0x872 SWAP1 PUSH2 0x36F7 JUMP JUMPDEST DUP1 SLOAD PUSH0 SWAP1 DUP1 ISZERO PUSH2 0x1906 JUMPI PUSH2 0x18F0 DUP4 PUSH2 0x1528 PUSH1 0x1 DUP5 PUSH2 0x376F JUMP JUMPDEST SLOAD PUSH1 0x1 PUSH1 0x30 SHL SWAP1 DIV PUSH1 0x1 PUSH1 0x1 PUSH1 0xD0 SHL SUB AND PUSH2 0x1347 JUMP JUMPDEST PUSH0 SWAP4 SWAP3 POP POP POP JUMP JUMPDEST PUSH0 DUP1 MLOAD PUSH1 0x20 PUSH2 0x3A12 DUP4 CODECOPY DUP2 MLOAD SWAP2 MSTORE PUSH1 0x1 PUSH1 0x1 PUSH1 0xA0 SHL SUB DUP4 AND PUSH2 0x194E JUMPI PUSH1 0x40 MLOAD PUSH4 0xB611743 PUSH1 0xE3 SHL DUP2 MSTORE PUSH1 0x1 PUSH1 0x1 PUSH1 0xA0 SHL SUB DUP5 AND PUSH1 0x4 DUP3 ADD MSTORE PUSH1 0x24 ADD PUSH2 0x93C JUMP JUMPDEST PUSH1 0x1 PUSH1 0x1 PUSH1 0xA0 SHL SUB DUP5 DUP2 AND PUSH0 DUP2 DUP2 MSTORE PUSH1 0x5 DUP5 ADD PUSH1 0x20 SWAP1 DUP2 MSTORE PUSH1 0x40 DUP1 DUP4 KECCAK256 SWAP5 DUP9 AND DUP1 DUP5 MSTORE SWAP5 DUP3 MSTORE SWAP2 DUP3 SWAP1 KECCAK256 DUP1 SLOAD PUSH1 0xFF NOT AND DUP8 ISZERO ISZERO SWAP1 DUP2 OR SWAP1 SWAP2 SSTORE SWAP2 MLOAD SWAP2 DUP3 MSTORE PUSH32 0x17307EAB39AB6107E8899845AD3D59BD9653F200F220920489CA2B5937696C31 SWAP2 ADD PUSH1 0x40 MLOAD DUP1 SWAP2 SUB SWAP1 LOG3 POP POP POP POP JUMP JUMPDEST PUSH1 0x1 PUSH1 0x1 PUSH1 0xA0 SHL SUB DUP4 AND EXTCODESIZE ISZERO PUSH2 0x1ADE JUMPI PUSH1 0x40 MLOAD PUSH4 0xA85BD01 PUSH1 0xE1 SHL DUP2 MSTORE PUSH1 0x1 PUSH1 0x1 PUSH1 0xA0 SHL SUB DUP5 AND SWAP1 PUSH4 0x150B7A02 SWAP1 PUSH2 0x19FF SWAP1 DUP9 SWAP1 DUP9 SWAP1 DUP8 SWAP1 DUP8 SWAP1 PUSH1 0x4 ADD PUSH2 0x37AC JUMP JUMPDEST PUSH1 0x20 PUSH1 0x40 MLOAD DUP1 DUP4 SUB DUP2 PUSH0 DUP8 GAS CALL SWAP3 POP POP POP DUP1 ISZERO PUSH2 0x1A39 JUMPI POP PUSH1 0x40 DUP1 MLOAD PUSH1 0x1F RETURNDATASIZE SWAP1 DUP2 ADD PUSH1 0x1F NOT AND DUP3 ADD SWAP1 SWAP3 MSTORE PUSH2 0x1A36 SWAP2 DUP2 ADD SWAP1 PUSH2 0x37E8 JUMP JUMPDEST PUSH1 0x1 JUMPDEST PUSH2 0x1AA0 JUMPI RETURNDATASIZE DUP1 DUP1 ISZERO PUSH2 0x1A66 JUMPI PUSH1 0x40 MLOAD SWAP2 POP PUSH1 0x1F NOT PUSH1 0x3F RETURNDATASIZE ADD AND DUP3 ADD PUSH1 0x40 MSTORE RETURNDATASIZE DUP3 MSTORE RETURNDATASIZE PUSH0 PUSH1 0x20 DUP5 ADD RETURNDATACOPY PUSH2 0x1A6B JUMP JUMPDEST PUSH1 0x60 SWAP2 POP JUMPDEST POP DUP1 MLOAD PUSH0 SUB PUSH2 0x1A98 JUMPI PUSH1 0x40 MLOAD PUSH4 0x32505749 PUSH1 0xE1 SHL DUP2 MSTORE PUSH1 0x1 PUSH1 0x1 PUSH1 0xA0 SHL SUB DUP6 AND PUSH1 0x4 DUP3 ADD MSTORE PUSH1 0x24 ADD PUSH2 0x93C JUMP JUMPDEST DUP1 MLOAD DUP2 PUSH1 0x20 ADD REVERT JUMPDEST PUSH1 0x1 PUSH1 0x1 PUSH1 0xE0 SHL SUB NOT DUP2 AND PUSH4 0xA85BD01 PUSH1 0xE1 SHL EQ PUSH2 0x1ADC JUMPI PUSH1 0x40 MLOAD PUSH4 0x32505749 PUSH1 0xE1 SHL DUP2 MSTORE PUSH1 0x1 PUSH1 0x1 PUSH1 0xA0 SHL SUB DUP6 AND PUSH1 0x4 DUP3 ADD MSTORE PUSH1 0x24 ADD PUSH2 0x93C JUMP JUMPDEST POP JUMPDEST POP POP POP POP POP JUMP JUMPDEST PUSH0 PUSH2 0x84D PUSH2 0x1AF1 PUSH2 0x2374 JUMP JUMPDEST DUP4 PUSH1 0x40 MLOAD PUSH2 0x1901 PUSH1 0xF0 SHL DUP2 MSTORE PUSH1 0x2 DUP2 ADD SWAP3 SWAP1 SWAP3 MSTORE PUSH1 0x22 DUP3 ADD MSTORE PUSH1 0x42 SWAP1 KECCAK256 SWAP1 JUMP JUMPDEST PUSH0 DUP1 PUSH0 DUP1 PUSH2 0x1B21 DUP9 DUP9 DUP9 DUP9 PUSH2 0x2382 JUMP JUMPDEST SWAP3 POP SWAP3 POP SWAP3 POP PUSH2 0x1B31 DUP3 DUP3 PUSH2 0x244A JUMP JUMPDEST POP SWAP1 SWAP7 SWAP6 POP POP POP POP POP POP JUMP JUMPDEST PUSH1 0x1 PUSH1 0x1 PUSH1 0xA0 SHL SUB DUP3 AND PUSH0 SWAP1 DUP2 MSTORE PUSH32 0x5AB42CED628888259C08AC98DB1EB0CF702FC1501344311D8B100CD1BFE4BB00 PUSH1 0x20 MSTORE PUSH1 0x40 SWAP1 KECCAK256 DUP1 SLOAD PUSH1 0x1 DUP2 ADD SWAP1 SWAP2 SSTORE DUP2 DUP2 EQ PUSH2 0xA85 JUMPI PUSH1 0x40 MLOAD PUSH4 0x1D4B623 PUSH1 0xE6 SHL DUP2 MSTORE PUSH1 0x1 PUSH1 0x1 PUSH1 0xA0 SHL SUB DUP5 AND PUSH1 0x4 DUP3 ADD MSTORE PUSH1 0x24 DUP2 ADD DUP3 SWAP1 MSTORE PUSH1 0x44 ADD PUSH2 0x93C JUMP JUMPDEST PUSH1 0x60 PUSH32 0x542A41881EE128A365A727B282C86FA859579490B9BB45AAB8503648C8E7900 PUSH2 0x1BDA DUP4 PUSH2 0x12BB JUMP JUMPDEST POP PUSH0 DUP4 DUP2 MSTORE PUSH1 0x20 DUP3 SWAP1 MSTORE PUSH1 0x40 DUP2 KECCAK256 DUP1 SLOAD PUSH2 0x1BF3 SWAP1 PUSH2 0x36F7 JUMP JUMPDEST DUP1 PUSH1 0x1F ADD PUSH1 0x20 DUP1 SWAP2 DIV MUL PUSH1 0x20 ADD PUSH1 0x40 MLOAD SWAP1 DUP2 ADD PUSH1 0x40 MSTORE DUP1 SWAP3 SWAP2 SWAP1 DUP2 DUP2 MSTORE PUSH1 0x20 ADD DUP3 DUP1 SLOAD PUSH2 0x1C1F SWAP1 PUSH2 0x36F7 JUMP JUMPDEST DUP1 ISZERO PUSH2 0x1C6A JUMPI DUP1 PUSH1 0x1F LT PUSH2 0x1C41 JUMPI PUSH2 0x100 DUP1 DUP4 SLOAD DIV MUL DUP4 MSTORE SWAP2 PUSH1 0x20 ADD SWAP2 PUSH2 0x1C6A JUMP JUMPDEST DUP3 ADD SWAP2 SWAP1 PUSH0 MSTORE PUSH1 0x20 PUSH0 KECCAK256 SWAP1 JUMPDEST DUP2 SLOAD DUP2 MSTORE SWAP1 PUSH1 0x1 ADD SWAP1 PUSH1 0x20 ADD DUP1 DUP4 GT PUSH2 0x1C4D JUMPI DUP3 SWAP1 SUB PUSH1 0x1F AND DUP3 ADD SWAP2 JUMPDEST POP POP POP POP POP SWAP1 POP PUSH0 PUSH2 0x1CAC PUSH1 0x40 DUP1 MLOAD DUP1 DUP3 ADD SWAP1 SWAP2 MSTORE PUSH1 0x20 DUP1 DUP3 MSTORE PUSH32 0x68747470733A2F2F796F75725F626173655F75726C2E636F6D2F746F6B656E73 SWAP1 DUP3 ADD MSTORE SWAP1 JUMP JUMPDEST SWAP1 POP DUP1 MLOAD PUSH0 SUB PUSH2 0x1CBE JUMPI POP SWAP4 SWAP3 POP POP POP JUMP JUMPDEST DUP2 MLOAD ISZERO PUSH2 0x1CF1 JUMPI DUP1 DUP3 PUSH1 0x40 MLOAD PUSH1 0x20 ADD PUSH2 0x1CD8 SWAP3 SWAP2 SWAP1 PUSH2 0x381A JUMP JUMPDEST PUSH1 0x40 MLOAD PUSH1 0x20 DUP2 DUP4 SUB SUB DUP2 MSTORE SWAP1 PUSH1 0x40 MSTORE SWAP4 POP POP POP POP SWAP2 SWAP1 POP JUMP JUMPDEST PUSH2 0x1CFA DUP6 PUSH2 0x2502 JUMP JUMPDEST SWAP6 SWAP5 POP POP POP POP POP JUMP JUMPDEST PUSH2 0x913 DUP3 DUP3 PUSH1 0x40 MLOAD DUP1 PUSH1 0x20 ADD PUSH1 0x40 MSTORE DUP1 PUSH0 DUP2 MSTORE POP PUSH2 0x2598 JUMP JUMPDEST PUSH0 DUP3 DUP2 MSTORE PUSH32 0x542A41881EE128A365A727B282C86FA859579490B9BB45AAB8503648C8E7900 PUSH1 0x20 DUP2 SWAP1 MSTORE PUSH1 0x40 SWAP1 SWAP2 KECCAK256 PUSH2 0x1D55 DUP4 DUP3 PUSH2 0x3872 JUMP JUMPDEST POP PUSH1 0x40 MLOAD DUP4 DUP2 MSTORE PUSH32 0xF8E1A15ABA9398E019F0B49DF1A4FDE98EE17AE345CB5F6B5E2C27F5033E8CE7 SWAP1 PUSH1 0x20 ADD PUSH1 0x40 MLOAD DUP1 SWAP2 SUB SWAP1 LOG1 POP POP POP JUMP JUMPDEST PUSH2 0x1D96 PUSH2 0x25AF JUMP JUMPDEST PUSH2 0x913 DUP3 DUP3 PUSH2 0x25F8 JUMP JUMPDEST PUSH2 0x165B PUSH2 0x25AF JUMP JUMPDEST PUSH2 0x1DB0 PUSH2 0x25AF JUMP JUMPDEST PUSH2 0x165B PUSH2 0x2628 JUMP JUMPDEST PUSH2 0x1DC0 PUSH2 0x25AF JUMP JUMPDEST PUSH2 0x913 DUP3 DUP3 PUSH2 0x2648 JUMP JUMPDEST PUSH0 PUSH1 0x1 PUSH1 0x1 PUSH1 0xE0 SHL SUB NOT DUP3 AND PUSH4 0x24832483 PUSH1 0xE1 SHL EQ DUP1 PUSH2 0x84D JUMPI POP PUSH2 0x84D DUP3 PUSH2 0x26A7 JUMP JUMPDEST PUSH0 SWAP1 DUP2 MSTORE PUSH32 0x80BB2B638CC20BC4D0A60D66940F3AB4A00C1D7B313497CA82FB0B4AB0079302 PUSH1 0x20 MSTORE PUSH1 0x40 SWAP1 KECCAK256 SLOAD PUSH1 0x1 PUSH1 0x1 PUSH1 0xA0 SHL SUB AND SWAP1 JUMP JUMPDEST PUSH0 DUP1 MLOAD PUSH1 0x20 PUSH2 0x3A12 DUP4 CODECOPY DUP2 MLOAD SWAP2 MSTORE DUP2 DUP1 PUSH2 0x1E49 JUMPI POP PUSH1 0x1 PUSH1 0x1 PUSH1 0xA0 SHL SUB DUP4 AND ISZERO ISZERO JUMPDEST ISZERO PUSH2 0x1F0A JUMPI PUSH0 PUSH2 0x1E58 DUP6 PUSH2 0x12BB JUMP JUMPDEST SWAP1 POP PUSH1 0x1 PUSH1 0x1 PUSH1 0xA0 SHL SUB DUP5 AND ISZERO DUP1 ISZERO SWAP1 PUSH2 0x1E84 JUMPI POP DUP4 PUSH1 0x1 PUSH1 0x1 PUSH1 0xA0 SHL SUB AND DUP2 PUSH1 0x1 PUSH1 0x1 PUSH1 0xA0 SHL SUB AND EQ ISZERO JUMPDEST DUP1 ISZERO PUSH2 0x1E97 JUMPI POP PUSH2 0x1E95 DUP2 DUP6 PUSH2 0xFF7 JUMP JUMPDEST ISZERO JUMPDEST ISZERO PUSH2 0x1EC0 JUMPI PUSH1 0x40 MLOAD PUSH4 0xA9FBF51F PUSH1 0xE0 SHL DUP2 MSTORE PUSH1 0x1 PUSH1 0x1 PUSH1 0xA0 SHL SUB DUP6 AND PUSH1 0x4 DUP3 ADD MSTORE PUSH1 0x24 ADD PUSH2 0x93C JUMP JUMPDEST DUP3 ISZERO PUSH2 0x1F08 JUMPI DUP5 DUP7 PUSH1 0x1 PUSH1 0x1 PUSH1 0xA0 SHL SUB AND DUP3 PUSH1 0x1 PUSH1 0x1 PUSH1 0xA0 SHL SUB AND PUSH32 0x8C5BE1E5EBEC7D5BD14F71427D1E84F3DD0314C0F7B2291E5B200AC8C7C3B925 PUSH1 0x40 MLOAD PUSH1 0x40 MLOAD DUP1 SWAP2 SUB SWAP1 LOG4 JUMPDEST POP JUMPDEST PUSH0 SWAP4 DUP5 MSTORE PUSH1 0x4 ADD PUSH1 0x20 MSTORE POP POP PUSH1 0x40 SWAP1 KECCAK256 DUP1 SLOAD PUSH1 0x1 PUSH1 0x1 PUSH1 0xA0 SHL SUB NOT AND PUSH1 0x1 PUSH1 0x1 PUSH1 0xA0 SHL SUB SWAP3 SWAP1 SWAP3 AND SWAP2 SWAP1 SWAP2 OR SWAP1 SSTORE JUMP JUMPDEST PUSH0 DUP1 PUSH2 0x1F47 DUP6 DUP6 DUP6 PUSH2 0x26CB JUMP JUMPDEST SWAP1 POP PUSH2 0x1344 DUP2 DUP7 PUSH1 0x1 PUSH2 0x26DF JUMP JUMPDEST PUSH2 0x1F5F DUP3 DUP3 PUSH2 0xDCD JUMP JUMPDEST PUSH2 0x913 JUMPI PUSH1 0x40 MLOAD PUSH4 0xE2517D3F PUSH1 0xE0 SHL DUP2 MSTORE PUSH1 0x1 PUSH1 0x1 PUSH1 0xA0 SHL SUB DUP3 AND PUSH1 0x4 DUP3 ADD MSTORE PUSH1 0x24 DUP2 ADD DUP4 SWAP1 MSTORE PUSH1 0x44 ADD PUSH2 0x93C JUMP JUMPDEST PUSH0 PUSH1 0x1 DUP3 GT PUSH2 0x1F9B JUMPI POP SWAP1 JUMP JUMPDEST DUP2 PUSH1 0x1 PUSH1 0x1 PUSH1 0x80 SHL DUP3 LT PUSH2 0x1FB4 JUMPI PUSH1 0x80 SWAP2 SWAP1 SWAP2 SHR SWAP1 PUSH1 0x40 SHL JUMPDEST PUSH1 0x1 PUSH1 0x40 SHL DUP3 LT PUSH2 0x1FCA JUMPI PUSH1 0x40 SWAP2 SWAP1 SWAP2 SHR SWAP1 PUSH1 0x20 SHL JUMPDEST PUSH5 0x100000000 DUP3 LT PUSH2 0x1FE1 JUMPI PUSH1 0x20 SWAP2 SWAP1 SWAP2 SHR SWAP1 PUSH1 0x10 SHL JUMPDEST PUSH3 0x10000 DUP3 LT PUSH2 0x1FF6 JUMPI PUSH1 0x10 SWAP2 SWAP1 SWAP2 SHR SWAP1 PUSH1 0x8 SHL JUMPDEST PUSH2 0x100 DUP3 LT PUSH2 0x200A JUMPI PUSH1 0x8 SWAP2 SWAP1 SWAP2 SHR SWAP1 PUSH1 0x4 SHL JUMPDEST PUSH1 0x10 DUP3 LT PUSH2 0x201D JUMPI PUSH1 0x4 SWAP2 SWAP1 SWAP2 SHR SWAP1 PUSH1 0x2 SHL JUMPDEST PUSH1 0x4 DUP3 LT PUSH2 0x2029 JUMPI PUSH1 0x1 SHL JUMPDEST PUSH1 0x3 MUL PUSH1 0x1 SWAP1 DUP2 SHR SWAP1 DUP2 DUP6 DUP2 PUSH2 0x2041 JUMPI PUSH2 0x2041 PUSH2 0x392D JUMP JUMPDEST DIV DUP3 ADD SWAP1 SHR SWAP1 POP PUSH1 0x1 DUP2 DUP6 DUP2 PUSH2 0x2059 JUMPI PUSH2 0x2059 PUSH2 0x392D JUMP JUMPDEST DIV DUP3 ADD SWAP1 SHR SWAP1 POP PUSH1 0x1 DUP2 DUP6 DUP2 PUSH2 0x2071 JUMPI PUSH2 0x2071 PUSH2 0x392D JUMP JUMPDEST DIV DUP3 ADD SWAP1 SHR SWAP1 POP PUSH1 0x1 DUP2 DUP6 DUP2 PUSH2 0x2089 JUMPI PUSH2 0x2089 PUSH2 0x392D JUMP JUMPDEST DIV DUP3 ADD SWAP1 SHR SWAP1 POP PUSH1 0x1 DUP2 DUP6 DUP2 PUSH2 0x20A1 JUMPI PUSH2 0x20A1 PUSH2 0x392D JUMP JUMPDEST DIV DUP3 ADD SWAP1 SHR SWAP1 POP PUSH1 0x1 DUP2 DUP6 DUP2 PUSH2 0x20B9 JUMPI PUSH2 0x20B9 PUSH2 0x392D JUMP JUMPDEST DIV DUP3 ADD SWAP1 SHR SWAP1 POP PUSH2 0x20D8 DUP2 DUP6 DUP2 PUSH2 0x20D2 JUMPI PUSH2 0x20D2 PUSH2 0x392D JUMP JUMPDEST DIV DUP3 GT SWAP1 JUMP JUMPDEST SWAP1 SUB SWAP4 SWAP3 POP POP POP JUMP JUMPDEST PUSH0 JUMPDEST DUP2 DUP4 LT ISZERO PUSH2 0x2138 JUMPI PUSH0 PUSH2 0x20F6 DUP5 DUP5 PUSH2 0x2750 JUMP JUMPDEST PUSH0 DUP8 DUP2 MSTORE PUSH1 0x20 SWAP1 KECCAK256 SWAP1 SWAP2 POP PUSH6 0xFFFFFFFFFFFF DUP7 AND SWAP1 DUP3 ADD SLOAD PUSH6 0xFFFFFFFFFFFF AND GT ISZERO PUSH2 0x2124 JUMPI DUP1 SWAP3 POP PUSH2 0x2132 JUMP JUMPDEST PUSH2 0x212F DUP2 PUSH1 0x1 PUSH2 0x3782 JUMP JUMPDEST SWAP4 POP JUMPDEST POP PUSH2 0x20E3 JUMP JUMPDEST POP SWAP4 SWAP3 POP POP POP JUMP JUMPDEST PUSH0 DUP1 MLOAD PUSH1 0x20 PUSH2 0x3AD2 DUP4 CODECOPY DUP2 MLOAD SWAP2 MSTORE SLOAD PUSH1 0xFF AND PUSH2 0x165B JUMPI PUSH1 0x40 MLOAD PUSH4 0x8DFC202B PUSH1 0xE0 SHL DUP2 MSTORE PUSH1 0x4 ADD PUSH1 0x40 MLOAD DUP1 SWAP2 SUB SWAP1 REVERT JUMPDEST PUSH2 0x2178 DUP3 PUSH2 0x276A JUMP JUMPDEST PUSH1 0x40 MLOAD PUSH1 0x1 PUSH1 0x1 PUSH1 0xA0 SHL SUB DUP4 AND SWAP1 PUSH32 0xBC7CD75A20EE27FD9ADEBAB32041F755214DBC6BFFA90CC0225B39DA2E5C2D3B SWAP1 PUSH0 SWAP1 LOG2 DUP1 MLOAD ISZERO PUSH2 0x21BC JUMPI PUSH2 0xA85 DUP3 DUP3 PUSH2 0x27CD JUMP JUMPDEST PUSH2 0x913 PUSH2 0x2836 JUMP JUMPDEST PUSH0 PUSH2 0x84D DUP3 PUSH2 0xC3D JUMP JUMPDEST PUSH0 DUP1 MLOAD PUSH1 0x20 PUSH2 0x39D2 DUP4 CODECOPY DUP2 MLOAD SWAP2 MSTORE PUSH1 0x1 PUSH1 0x1 PUSH1 0xA0 SHL SUB DUP5 DUP2 AND SWAP1 DUP5 AND EQ DUP1 ISZERO SWAP1 PUSH2 0x21F7 JUMPI POP PUSH0 DUP3 GT JUMPDEST ISZERO PUSH2 0x99F JUMPI PUSH1 0x1 PUSH1 0x1 PUSH1 0xA0 SHL SUB DUP5 AND ISZERO PUSH2 0x22A0 JUMPI PUSH1 0x1 PUSH1 0x1 PUSH1 0xA0 SHL SUB DUP5 AND PUSH0 SWAP1 DUP2 MSTORE PUSH1 0x1 DUP3 ADD PUSH1 0x20 MSTORE PUSH1 0x40 DUP2 KECCAK256 DUP2 SWAP1 PUSH2 0x223B SWAP1 PUSH2 0x2855 PUSH2 0x2236 DUP8 PUSH2 0x2860 JUMP JUMPDEST PUSH2 0x2893 JUMP JUMPDEST PUSH1 0x1 PUSH1 0x1 PUSH1 0xD0 SHL SUB AND SWAP2 POP PUSH1 0x1 PUSH1 0x1 PUSH1 0xD0 SHL SUB AND SWAP2 POP DUP6 PUSH1 0x1 PUSH1 0x1 PUSH1 0xA0 SHL SUB AND PUSH32 0xDEC2BACDD2F05B59DE34DA9B523DFF8BE42E5E38E818C82FDB0BAE774387A724 DUP4 DUP4 PUSH1 0x40 MLOAD PUSH2 0x2295 SWAP3 SWAP2 SWAP1 SWAP2 DUP3 MSTORE PUSH1 0x20 DUP3 ADD MSTORE PUSH1 0x40 ADD SWAP1 JUMP JUMPDEST PUSH1 0x40 MLOAD DUP1 SWAP2 SUB SWAP1 LOG2 POP POP JUMPDEST PUSH1 0x1 PUSH1 0x1 PUSH1 0xA0 SHL SUB DUP4 AND ISZERO PUSH2 0x99F JUMPI PUSH1 0x1 PUSH1 0x1 PUSH1 0xA0 SHL SUB DUP4 AND PUSH0 SWAP1 DUP2 MSTORE PUSH1 0x1 DUP3 ADD PUSH1 0x20 MSTORE PUSH1 0x40 DUP2 KECCAK256 DUP2 SWAP1 PUSH2 0x22DA SWAP1 PUSH2 0x28C4 PUSH2 0x2236 DUP8 PUSH2 0x2860 JUMP JUMPDEST PUSH1 0x1 PUSH1 0x1 PUSH1 0xD0 SHL SUB AND SWAP2 POP PUSH1 0x1 PUSH1 0x1 PUSH1 0xD0 SHL SUB AND SWAP2 POP DUP5 PUSH1 0x1 PUSH1 0x1 PUSH1 0xA0 SHL SUB AND PUSH32 0xDEC2BACDD2F05B59DE34DA9B523DFF8BE42E5E38E818C82FDB0BAE774387A724 DUP4 DUP4 PUSH1 0x40 MLOAD PUSH2 0x2334 SWAP3 SWAP2 SWAP1 SWAP2 DUP3 MSTORE PUSH1 0x20 DUP3 ADD MSTORE PUSH1 0x40 ADD SWAP1 JUMP JUMPDEST PUSH1 0x40 MLOAD DUP1 SWAP2 SUB SWAP1 LOG2 POP POP POP POP POP POP JUMP JUMPDEST PUSH0 DUP1 MLOAD PUSH1 0x20 PUSH2 0x3AD2 DUP4 CODECOPY DUP2 MLOAD SWAP2 MSTORE SLOAD PUSH1 0xFF AND ISZERO PUSH2 0x165B JUMPI PUSH1 0x40 MLOAD PUSH4 0xD93C0665 PUSH1 0xE0 SHL DUP2 MSTORE PUSH1 0x4 ADD PUSH1 0x40 MLOAD DUP1 SWAP2 SUB SWAP1 REVERT JUMPDEST PUSH0 PUSH2 0x237D PUSH2 0x28CF JUMP JUMPDEST SWAP1 POP SWAP1 JUMP JUMPDEST PUSH0 DUP1 DUP1 PUSH32 0x7FFFFFFFFFFFFFFFFFFFFFFFFFFFFFFF5D576E7357A4501DDFE92F46681B20A0 DUP5 GT ISZERO PUSH2 0x23BB JUMPI POP PUSH0 SWAP2 POP PUSH1 0x3 SWAP1 POP DUP3 PUSH2 0x2440 JUMP JUMPDEST PUSH1 0x40 DUP1 MLOAD PUSH0 DUP1 DUP3 MSTORE PUSH1 0x20 DUP3 ADD DUP1 DUP5 MSTORE DUP11 SWAP1 MSTORE PUSH1 0xFF DUP10 AND SWAP3 DUP3 ADD SWAP3 SWAP1 SWAP3 MSTORE PUSH1 0x60 DUP2 ADD DUP8 SWAP1 MSTORE PUSH1 0x80 DUP2 ADD DUP7 SWAP1 MSTORE PUSH1 0x1 SWAP1 PUSH1 0xA0 ADD PUSH1 0x20 PUSH1 0x40 MLOAD PUSH1 0x20 DUP2 SUB SWAP1 DUP1 DUP5 SUB SWAP1 DUP6 GAS STATICCALL ISZERO DUP1 ISZERO PUSH2 0x240C JUMPI RETURNDATASIZE PUSH0 DUP1 RETURNDATACOPY RETURNDATASIZE PUSH0 REVERT JUMPDEST POP POP PUSH1 0x40 MLOAD PUSH1 0x1F NOT ADD MLOAD SWAP2 POP POP PUSH1 0x1 PUSH1 0x1 PUSH1 0xA0 SHL SUB DUP2 AND PUSH2 0x2437 JUMPI POP PUSH0 SWAP3 POP PUSH1 0x1 SWAP2 POP DUP3 SWAP1 POP PUSH2 0x2440 JUMP JUMPDEST SWAP3 POP PUSH0 SWAP2 POP DUP2 SWAP1 POP JUMPDEST SWAP5 POP SWAP5 POP SWAP5 SWAP2 POP POP JUMP JUMPDEST PUSH0 DUP3 PUSH1 0x3 DUP2 GT ISZERO PUSH2 0x245D JUMPI PUSH2 0x245D PUSH2 0x3941 JUMP JUMPDEST SUB PUSH2 0x2466 JUMPI POP POP JUMP JUMPDEST PUSH1 0x1 DUP3 PUSH1 0x3 DUP2 GT ISZERO PUSH2 0x247A JUMPI PUSH2 0x247A PUSH2 0x3941 JUMP JUMPDEST SUB PUSH2 0x2498 JUMPI PUSH1 0x40 MLOAD PUSH4 0xF645EEDF PUSH1 0xE0 SHL DUP2 MSTORE PUSH1 0x4 ADD PUSH1 0x40 MLOAD DUP1 SWAP2 SUB SWAP1 REVERT JUMPDEST PUSH1 0x2 DUP3 PUSH1 0x3 DUP2 GT ISZERO PUSH2 0x24AC JUMPI PUSH2 0x24AC PUSH2 0x3941 JUMP JUMPDEST SUB PUSH2 0x24CD JUMPI PUSH1 0x40 MLOAD PUSH4 0xFCE698F7 PUSH1 0xE0 SHL DUP2 MSTORE PUSH1 0x4 DUP2 ADD DUP3 SWAP1 MSTORE PUSH1 0x24 ADD PUSH2 0x93C JUMP JUMPDEST PUSH1 0x3 DUP3 PUSH1 0x3 DUP2 GT ISZERO PUSH2 0x24E1 JUMPI PUSH2 0x24E1 PUSH2 0x3941 JUMP JUMPDEST SUB PUSH2 0x913 JUMPI PUSH1 0x40 MLOAD PUSH4 0x35E2F383 PUSH1 0xE2 SHL DUP2 MSTORE PUSH1 0x4 DUP2 ADD DUP3 SWAP1 MSTORE PUSH1 0x24 ADD PUSH2 0x93C JUMP JUMPDEST PUSH1 0x60 PUSH2 0x250D DUP3 PUSH2 0x12BB JUMP JUMPDEST POP PUSH0 PUSH2 0x2549 PUSH1 0x40 DUP1 MLOAD DUP1 DUP3 ADD SWAP1 SWAP2 MSTORE PUSH1 0x20 DUP1 DUP3 MSTORE PUSH32 0x68747470733A2F2F796F75725F626173655F75726C2E636F6D2F746F6B656E73 SWAP1 DUP3 ADD MSTORE SWAP1 JUMP JUMPDEST SWAP1 POP PUSH0 DUP2 MLOAD GT PUSH2 0x2567 JUMPI PUSH1 0x40 MLOAD DUP1 PUSH1 0x20 ADD PUSH1 0x40 MSTORE DUP1 PUSH0 DUP2 MSTORE POP PUSH2 0x1347 JUMP JUMPDEST DUP1 PUSH2 0x2571 DUP5 PUSH2 0x2942 JUMP JUMPDEST PUSH1 0x40 MLOAD PUSH1 0x20 ADD PUSH2 0x2582 SWAP3 SWAP2 SWAP1 PUSH2 0x381A JUMP JUMPDEST PUSH1 0x40 MLOAD PUSH1 0x20 DUP2 DUP4 SUB SUB DUP2 MSTORE SWAP1 PUSH1 0x40 MSTORE SWAP4 SWAP3 POP POP POP JUMP JUMPDEST PUSH2 0x25A2 DUP4 DUP4 PUSH2 0x29D2 JUMP JUMPDEST PUSH2 0xA85 CALLER PUSH0 DUP6 DUP6 DUP6 PUSH2 0x19BD JUMP JUMPDEST PUSH32 0xF0C57E16840DF040F15088DC2F81FE391C3923BEC73E23A9662EFC9C229C6A00 SLOAD PUSH1 0x1 PUSH1 0x40 SHL SWAP1 DIV PUSH1 0xFF AND PUSH2 0x165B JUMPI PUSH1 0x40 MLOAD PUSH4 0x1AFCD79F PUSH1 0xE3 SHL DUP2 MSTORE PUSH1 0x4 ADD PUSH1 0x40 MLOAD DUP1 SWAP2 SUB SWAP1 REVERT JUMPDEST PUSH2 0x2600 PUSH2 0x25AF JUMP JUMPDEST PUSH0 DUP1 MLOAD PUSH1 0x20 PUSH2 0x3A12 DUP4 CODECOPY DUP2 MLOAD SWAP2 MSTORE DUP1 PUSH2 0x2619 DUP5 DUP3 PUSH2 0x3872 JUMP JUMPDEST POP PUSH1 0x1 DUP2 ADD PUSH2 0x99F DUP4 DUP3 PUSH2 0x3872 JUMP JUMPDEST PUSH2 0x2630 PUSH2 0x25AF JUMP JUMPDEST PUSH0 DUP1 MLOAD PUSH1 0x20 PUSH2 0x3AD2 DUP4 CODECOPY DUP2 MLOAD SWAP2 MSTORE DUP1 SLOAD PUSH1 0xFF NOT AND SWAP1 SSTORE JUMP JUMPDEST PUSH2 0x2650 PUSH2 0x25AF JUMP JUMPDEST PUSH0 DUP1 MLOAD PUSH1 0x20 PUSH2 0x3A32 DUP4 CODECOPY DUP2 MLOAD SWAP2 MSTORE PUSH32 0xA16A46D94261C7517CC8FF89F61C0CE93598E3C849801011DEE649A6A557D102 PUSH2 0x2689 DUP5 DUP3 PUSH2 0x3872 JUMP JUMPDEST POP PUSH1 0x3 DUP2 ADD PUSH2 0x2698 DUP4 DUP3 PUSH2 0x3872 JUMP JUMPDEST POP PUSH0 DUP1 DUP3 SSTORE PUSH1 0x1 SWAP1 SWAP2 ADD SSTORE POP POP JUMP JUMPDEST PUSH0 PUSH1 0x1 PUSH1 0x1 PUSH1 0xE0 SHL SUB NOT DUP3 AND PUSH4 0x780E9D63 PUSH1 0xE0 SHL EQ DUP1 PUSH2 0x84D JUMPI POP PUSH2 0x84D DUP3 PUSH2 0x2A33 JUMP JUMPDEST PUSH0 PUSH2 0x26D4 PUSH2 0x2344 JUMP JUMPDEST PUSH2 0x1344 DUP5 DUP5 DUP5 PUSH2 0x2A82 JUMP JUMPDEST PUSH0 DUP1 MLOAD PUSH1 0x20 PUSH2 0x39D2 DUP4 CODECOPY DUP2 MLOAD SWAP2 MSTORE PUSH1 0x1 PUSH1 0x1 PUSH1 0xA0 SHL SUB DUP5 AND PUSH2 0x2711 JUMPI PUSH2 0x270E DUP2 PUSH1 0x2 ADD PUSH2 0x28C4 PUSH2 0x2236 DUP6 PUSH2 0x2860 JUMP JUMPDEST POP POP JUMPDEST PUSH1 0x1 PUSH1 0x1 PUSH1 0xA0 SHL SUB DUP4 AND PUSH2 0x2735 JUMPI PUSH2 0x2732 DUP2 PUSH1 0x2 ADD PUSH2 0x2855 PUSH2 0x2236 DUP6 PUSH2 0x2860 JUMP JUMPDEST POP POP JUMPDEST PUSH2 0x99F PUSH2 0x2741 DUP6 PUSH2 0xBFF JUMP JUMPDEST PUSH2 0x274A DUP6 PUSH2 0xBFF JUMP JUMPDEST DUP5 PUSH2 0x21CE JUMP JUMPDEST PUSH0 PUSH2 0x275E PUSH1 0x2 DUP5 DUP5 XOR PUSH2 0x3955 JUMP JUMPDEST PUSH2 0x1347 SWAP1 DUP5 DUP5 AND PUSH2 0x3782 JUMP JUMPDEST DUP1 PUSH1 0x1 PUSH1 0x1 PUSH1 0xA0 SHL SUB AND EXTCODESIZE PUSH0 SUB PUSH2 0x279F JUMPI PUSH1 0x40 MLOAD PUSH4 0x4C9C8CE3 PUSH1 0xE0 SHL DUP2 MSTORE PUSH1 0x1 PUSH1 0x1 PUSH1 0xA0 SHL SUB DUP3 AND PUSH1 0x4 DUP3 ADD MSTORE PUSH1 0x24 ADD PUSH2 0x93C JUMP JUMPDEST PUSH0 DUP1 MLOAD PUSH1 0x20 PUSH2 0x3A52 DUP4 CODECOPY DUP2 MLOAD SWAP2 MSTORE DUP1 SLOAD PUSH1 0x1 PUSH1 0x1 PUSH1 0xA0 SHL SUB NOT AND PUSH1 0x1 PUSH1 0x1 PUSH1 0xA0 SHL SUB SWAP3 SWAP1 SWAP3 AND SWAP2 SWAP1 SWAP2 OR SWAP1 SSTORE JUMP JUMPDEST PUSH1 0x60 PUSH0 DUP1 DUP5 PUSH1 0x1 PUSH1 0x1 PUSH1 0xA0 SHL SUB AND DUP5 PUSH1 0x40 MLOAD PUSH2 0x27E9 SWAP2 SWAP1 PUSH2 0x3974 JUMP JUMPDEST PUSH0 PUSH1 0x40 MLOAD DUP1 DUP4 SUB DUP2 DUP6 GAS DELEGATECALL SWAP2 POP POP RETURNDATASIZE DUP1 PUSH0 DUP2 EQ PUSH2 0x2821 JUMPI PUSH1 0x40 MLOAD SWAP2 POP PUSH1 0x1F NOT PUSH1 0x3F RETURNDATASIZE ADD AND DUP3 ADD PUSH1 0x40 MSTORE RETURNDATASIZE DUP3 MSTORE RETURNDATASIZE PUSH0 PUSH1 0x20 DUP5 ADD RETURNDATACOPY PUSH2 0x2826 JUMP JUMPDEST PUSH1 0x60 SWAP2 POP JUMPDEST POP SWAP2 POP SWAP2 POP PUSH2 0x1CFA DUP6 DUP4 DUP4 PUSH2 0x2B78 JUMP JUMPDEST CALLVALUE ISZERO PUSH2 0x165B JUMPI PUSH1 0x40 MLOAD PUSH4 0xB398979F PUSH1 0xE0 SHL DUP2 MSTORE PUSH1 0x4 ADD PUSH1 0x40 MLOAD DUP1 SWAP2 SUB SWAP1 REVERT JUMPDEST PUSH0 PUSH2 0x1347 DUP3 DUP5 PUSH2 0x397F JUMP JUMPDEST PUSH0 PUSH1 0x1 PUSH1 0x1 PUSH1 0xD0 SHL SUB DUP3 GT ISZERO PUSH2 0x14A4 JUMPI PUSH1 0x40 MLOAD PUSH4 0x6DFCC65 PUSH1 0xE4 SHL DUP2 MSTORE PUSH1 0xD0 PUSH1 0x4 DUP3 ADD MSTORE PUSH1 0x24 DUP2 ADD DUP4 SWAP1 MSTORE PUSH1 0x44 ADD PUSH2 0x93C JUMP JUMPDEST PUSH0 DUP1 PUSH2 0x28B7 TIMESTAMP PUSH2 0x28AF PUSH2 0x28A5 DUP9 PUSH2 0x18D7 JUMP JUMPDEST DUP7 DUP9 PUSH4 0xFFFFFFFF AND JUMP JUMPDEST DUP8 SWAP2 SWAP1 PUSH2 0x2BD4 JUMP JUMPDEST SWAP2 POP SWAP2 POP JUMPDEST SWAP4 POP SWAP4 SWAP2 POP POP JUMP JUMPDEST PUSH0 PUSH2 0x1347 DUP3 DUP5 PUSH2 0x399E JUMP JUMPDEST PUSH0 PUSH32 0x8B73C3C69BB8FE3D512ECC4CF759CC79239F7B179B0FFACAA9A75D522B39400F PUSH2 0x28F9 PUSH2 0x2BE1 JUMP JUMPDEST PUSH2 0x2901 PUSH2 0x2C49 JUMP JUMPDEST PUSH1 0x40 DUP1 MLOAD PUSH1 0x20 DUP2 ADD SWAP5 SWAP1 SWAP5 MSTORE DUP4 ADD SWAP2 SWAP1 SWAP2 MSTORE PUSH1 0x60 DUP3 ADD MSTORE CHAINID PUSH1 0x80 DUP3 ADD MSTORE ADDRESS PUSH1 0xA0 DUP3 ADD MSTORE PUSH1 0xC0 ADD PUSH1 0x40 MLOAD PUSH1 0x20 DUP2 DUP4 SUB SUB DUP2 MSTORE SWAP1 PUSH1 0x40 MSTORE DUP1 MLOAD SWAP1 PUSH1 0x20 ADD KECCAK256 SWAP1 POP SWAP1 JUMP JUMPDEST PUSH1 0x60 PUSH0 PUSH2 0x294E DUP4 PUSH2 0x2C8B JUMP JUMPDEST PUSH1 0x1 ADD SWAP1 POP PUSH0 DUP2 PUSH8 0xFFFFFFFFFFFFFFFF DUP2 GT ISZERO PUSH2 0x296D JUMPI PUSH2 0x296D PUSH2 0x338F JUMP JUMPDEST PUSH1 0x40 MLOAD SWAP1 DUP1 DUP3 MSTORE DUP1 PUSH1 0x1F ADD PUSH1 0x1F NOT AND PUSH1 0x20 ADD DUP3 ADD PUSH1 0x40 MSTORE DUP1 ISZERO PUSH2 0x2997 JUMPI PUSH1 0x20 DUP3 ADD DUP2 DUP1 CALLDATASIZE DUP4 CALLDATACOPY ADD SWAP1 POP JUMPDEST POP SWAP1 POP DUP2 DUP2 ADD PUSH1 0x20 ADD JUMPDEST PUSH0 NOT ADD PUSH16 0x181899199A1A9B1B9C1CB0B131B232B3 PUSH1 0x81 SHL PUSH1 0xA DUP7 MOD BYTE DUP2 MSTORE8 PUSH1 0xA DUP6 DIV SWAP5 POP DUP5 PUSH2 0x29A1 JUMPI POP SWAP4 SWAP3 POP POP POP JUMP JUMPDEST PUSH1 0x1 PUSH1 0x1 PUSH1 0xA0 SHL SUB DUP3 AND PUSH2 0x29FB JUMPI PUSH1 0x40 MLOAD PUSH4 0x32505749 PUSH1 0xE1 SHL DUP2 MSTORE PUSH0 PUSH1 0x4 DUP3 ADD MSTORE PUSH1 0x24 ADD PUSH2 0x93C JUMP JUMPDEST PUSH0 PUSH2 0x2A07 DUP4 DUP4 PUSH0 PUSH2 0x1338 JUMP JUMPDEST SWAP1 POP PUSH1 0x1 PUSH1 0x1 PUSH1 0xA0 SHL SUB DUP2 AND ISZERO PUSH2 0xA85 JUMPI PUSH1 0x40 MLOAD PUSH4 0x39E35637 PUSH1 0xE1 SHL DUP2 MSTORE PUSH0 PUSH1 0x4 DUP3 ADD MSTORE PUSH1 0x24 ADD PUSH2 0x93C JUMP JUMPDEST PUSH0 PUSH1 0x1 PUSH1 0x1 PUSH1 0xE0 SHL SUB NOT DUP3 AND PUSH4 0x80AC58CD PUSH1 0xE0 SHL EQ DUP1 PUSH2 0x2A63 JUMPI POP PUSH1 0x1 PUSH1 0x1 PUSH1 0xE0 SHL SUB NOT DUP3 AND PUSH4 0x5B5E139F PUSH1 0xE0 SHL EQ JUMPDEST DUP1 PUSH2 0x84D JUMPI POP PUSH4 0x1FFC9A7 PUSH1 0xE0 SHL PUSH1 0x1 PUSH1 0x1 PUSH1 0xE0 SHL SUB NOT DUP4 AND EQ PUSH2 0x84D JUMP JUMPDEST PUSH0 DUP1 PUSH2 0x2A8F DUP6 DUP6 DUP6 PUSH2 0x2D62 JUMP JUMPDEST SWAP1 POP PUSH1 0x1 PUSH1 0x1 PUSH1 0xA0 SHL SUB DUP2 AND PUSH2 0x2B16 JUMPI PUSH2 0x2B11 DUP5 PUSH0 DUP1 MLOAD PUSH1 0x20 PUSH2 0x3A92 DUP4 CODECOPY DUP2 MLOAD SWAP2 MSTORE DUP1 SLOAD PUSH0 DUP4 DUP2 MSTORE PUSH32 0x645E039705490088DAAD89BAE25049A34F4A9072D398537B1AB2425F24CBED03 PUSH1 0x20 MSTORE PUSH1 0x40 DUP2 KECCAK256 DUP3 SWAP1 SSTORE PUSH1 0x1 DUP3 ADD DUP4 SSTORE SWAP2 SWAP1 SWAP2 MSTORE PUSH32 0xA42F15E5D656F8155FD7419D740A6073999F19CD6E061449CE4A257150545BF2 ADD SSTORE JUMP JUMPDEST PUSH2 0x2B39 JUMP JUMPDEST DUP5 PUSH1 0x1 PUSH1 0x1 PUSH1 0xA0 SHL SUB AND DUP2 PUSH1 0x1 PUSH1 0x1 PUSH1 0xA0 SHL SUB AND EQ PUSH2 0x2B39 JUMPI PUSH2 0x2B39 DUP2 DUP6 PUSH2 0x2E64 JUMP JUMPDEST PUSH1 0x1 PUSH1 0x1 PUSH1 0xA0 SHL SUB DUP6 AND PUSH2 0x2B55 JUMPI PUSH2 0x2B50 DUP5 PUSH2 0x2EFB JUMP JUMPDEST PUSH2 0x1344 JUMP JUMPDEST DUP5 PUSH1 0x1 PUSH1 0x1 PUSH1 0xA0 SHL SUB AND DUP2 PUSH1 0x1 PUSH1 0x1 PUSH1 0xA0 SHL SUB AND EQ PUSH2 0x1344 JUMPI PUSH2 0x1344 DUP6 DUP6 PUSH2 0x2FC8 JUMP JUMPDEST PUSH1 0x60 DUP3 PUSH2 0x2B8D JUMPI PUSH2 0x2B88 DUP3 PUSH2 0x3020 JUMP JUMPDEST PUSH2 0x1347 JUMP JUMPDEST DUP2 MLOAD ISZERO DUP1 ISZERO PUSH2 0x2BA4 JUMPI POP PUSH1 0x1 PUSH1 0x1 PUSH1 0xA0 SHL SUB DUP5 AND EXTCODESIZE ISZERO JUMPDEST ISZERO PUSH2 0x2BCD JUMPI PUSH1 0x40 MLOAD PUSH4 0x9996B315 PUSH1 0xE0 SHL DUP2 MSTORE PUSH1 0x1 PUSH1 0x1 PUSH1 0xA0 SHL SUB DUP6 AND PUSH1 0x4 DUP3 ADD MSTORE PUSH1 0x24 ADD PUSH2 0x93C JUMP JUMPDEST POP DUP1 PUSH2 0x1347 JUMP JUMPDEST PUSH0 DUP1 PUSH2 0x28B7 DUP6 DUP6 DUP6 PUSH2 0x3049 JUMP JUMPDEST PUSH0 PUSH0 DUP1 MLOAD PUSH1 0x20 PUSH2 0x3A32 DUP4 CODECOPY DUP2 MLOAD SWAP2 MSTORE DUP2 PUSH2 0x2BF9 PUSH2 0x185B JUMP JUMPDEST DUP1 MLOAD SWAP1 SWAP2 POP ISZERO PUSH2 0x2C11 JUMPI DUP1 MLOAD PUSH1 0x20 SWAP1 SWAP2 ADD KECCAK256 SWAP3 SWAP2 POP POP JUMP JUMPDEST DUP2 SLOAD DUP1 ISZERO PUSH2 0x2C20 JUMPI SWAP4 SWAP3 POP POP POP JUMP JUMPDEST PUSH32 0xC5D2460186F7233C927E7DB2DCC703C0E500B653CA82273B7BFAD8045D85A470 SWAP4 POP POP POP POP SWAP1 JUMP JUMPDEST PUSH0 PUSH0 DUP1 MLOAD PUSH1 0x20 PUSH2 0x3A32 DUP4 CODECOPY DUP2 MLOAD SWAP2 MSTORE DUP2 PUSH2 0x2C61 PUSH2 0x1899 JUMP JUMPDEST DUP1 MLOAD SWAP1 SWAP2 POP ISZERO PUSH2 0x2C79 JUMPI DUP1 MLOAD PUSH1 0x20 SWAP1 SWAP2 ADD KECCAK256 SWAP3 SWAP2 POP POP JUMP JUMPDEST PUSH1 0x1 DUP3 ADD SLOAD DUP1 ISZERO PUSH2 0x2C20 JUMPI SWAP4 SWAP3 POP POP POP JUMP JUMPDEST PUSH0 DUP1 PUSH19 0x184F03E93FF9F4DAA797ED6E38ED64BF6A1F01 PUSH1 0x40 SHL DUP4 LT PUSH2 0x2CC9 JUMPI PUSH19 0x184F03E93FF9F4DAA797ED6E38ED64BF6A1F01 PUSH1 0x40 SHL DUP4 DIV SWAP3 POP PUSH1 0x40 ADD JUMPDEST PUSH14 0x4EE2D6D415B85ACEF8100000000 DUP4 LT PUSH2 0x2CF5 JUMPI PUSH14 0x4EE2D6D415B85ACEF8100000000 DUP4 DIV SWAP3 POP PUSH1 0x20 ADD JUMPDEST PUSH7 0x2386F26FC10000 DUP4 LT PUSH2 0x2D13 JUMPI PUSH7 0x2386F26FC10000 DUP4 DIV SWAP3 POP PUSH1 0x10 ADD JUMPDEST PUSH4 0x5F5E100 DUP4 LT PUSH2 0x2D2B JUMPI PUSH4 0x5F5E100 DUP4 DIV SWAP3 POP PUSH1 0x8 ADD JUMPDEST PUSH2 0x2710 DUP4 LT PUSH2 0x2D3F JUMPI PUSH2 0x2710 DUP4 DIV SWAP3 POP PUSH1 0x4 ADD JUMPDEST PUSH1 0x64 DUP4 LT PUSH2 0x2D51 JUMPI PUSH1 0x64 DUP4 DIV SWAP3 POP PUSH1 0x2 ADD JUMPDEST PUSH1 0xA DUP4 LT PUSH2 0x84D JUMPI PUSH1 0x1 ADD SWAP3 SWAP2 POP POP JUMP JUMPDEST PUSH0 PUSH0 DUP1 MLOAD PUSH1 0x20 PUSH2 0x3A12 DUP4 CODECOPY DUP2 MLOAD SWAP2 MSTORE DUP2 PUSH2 0x2D7B DUP6 PUSH2 0x1DEE JUMP JUMPDEST SWAP1 POP PUSH1 0x1 PUSH1 0x1 PUSH1 0xA0 SHL SUB DUP5 AND ISZERO PUSH2 0x2D97 JUMPI PUSH2 0x2D97 DUP2 DUP6 DUP8 PUSH2 0x3199 JUMP JUMPDEST PUSH1 0x1 PUSH1 0x1 PUSH1 0xA0 SHL SUB DUP2 AND ISZERO PUSH2 0x2DD3 JUMPI PUSH2 0x2DB2 PUSH0 DUP7 PUSH0 DUP1 PUSH2 0x1E27 JUMP JUMPDEST PUSH1 0x1 PUSH1 0x1 PUSH1 0xA0 SHL SUB DUP2 AND PUSH0 SWAP1 DUP2 MSTORE PUSH1 0x3 DUP4 ADD PUSH1 0x20 MSTORE PUSH1 0x40 SWAP1 KECCAK256 DUP1 SLOAD PUSH0 NOT ADD SWAP1 SSTORE JUMPDEST PUSH1 0x1 PUSH1 0x1 PUSH1 0xA0 SHL SUB DUP7 AND ISZERO PUSH2 0x2E03 JUMPI PUSH1 0x1 PUSH1 0x1 PUSH1 0xA0 SHL SUB DUP7 AND PUSH0 SWAP1 DUP2 MSTORE PUSH1 0x3 DUP4 ADD PUSH1 0x20 MSTORE PUSH1 0x40 SWAP1 KECCAK256 DUP1 SLOAD PUSH1 0x1 ADD SWAP1 SSTORE JUMPDEST PUSH0 DUP6 DUP2 MSTORE PUSH1 0x2 DUP4 ADD PUSH1 0x20 MSTORE PUSH1 0x40 DUP1 DUP3 KECCAK256 DUP1 SLOAD PUSH1 0x1 PUSH1 0x1 PUSH1 0xA0 SHL SUB NOT AND PUSH1 0x1 PUSH1 0x1 PUSH1 0xA0 SHL SUB DUP11 DUP2 AND SWAP2 DUP3 OR SWAP1 SWAP3 SSTORE SWAP2 MLOAD DUP9 SWAP4 SWAP2 DUP6 AND SWAP2 PUSH32 0xDDF252AD1BE2C89B69C2B068FC378DAA952BA7F163C4A11628F55A4DF523B3EF SWAP2 LOG4 SWAP6 SWAP5 POP POP POP POP POP JUMP JUMPDEST PUSH0 DUP1 MLOAD PUSH1 0x20 PUSH2 0x39F2 DUP4 CODECOPY DUP2 MLOAD SWAP2 MSTORE PUSH0 PUSH2 0x2E7C DUP5 PUSH2 0xC3D JUMP JUMPDEST PUSH0 DUP5 DUP2 MSTORE PUSH1 0x1 DUP5 ADD PUSH1 0x20 SWAP1 DUP2 MSTORE PUSH1 0x40 DUP1 DUP4 KECCAK256 SLOAD PUSH1 0x1 PUSH1 0x1 PUSH1 0xA0 SHL SUB DUP10 AND DUP5 MSTORE SWAP2 DUP7 SWAP1 MSTORE SWAP1 SWAP2 KECCAK256 SWAP2 SWAP3 POP SWAP1 DUP2 DUP4 EQ PUSH2 0x2ED4 JUMPI PUSH0 DUP4 DUP2 MSTORE PUSH1 0x20 DUP3 DUP2 MSTORE PUSH1 0x40 DUP1 DUP4 KECCAK256 SLOAD DUP6 DUP5 MSTORE DUP2 DUP5 KECCAK256 DUP2 SWAP1 SSTORE DUP4 MSTORE PUSH1 0x1 DUP8 ADD SWAP1 SWAP2 MSTORE SWAP1 KECCAK256 DUP3 SWAP1 SSTORE JUMPDEST PUSH0 SWAP5 DUP6 MSTORE PUSH1 0x1 SWAP1 SWAP4 ADD PUSH1 0x20 SWAP1 DUP2 MSTORE PUSH1 0x40 DUP1 DUP7 KECCAK256 DUP7 SWAP1 SSTORE SWAP3 DUP6 MSTORE SWAP3 SWAP1 SWAP3 MSTORE DUP3 KECCAK256 SWAP2 SWAP1 SWAP2 SSTORE POP POP JUMP JUMPDEST PUSH0 DUP1 MLOAD PUSH1 0x20 PUSH2 0x3A92 DUP4 CODECOPY DUP2 MLOAD SWAP2 MSTORE SLOAD PUSH0 DUP1 MLOAD PUSH1 0x20 PUSH2 0x39F2 DUP4 CODECOPY DUP2 MLOAD SWAP2 MSTORE SWAP1 PUSH0 SWAP1 PUSH2 0x2F27 SWAP1 PUSH1 0x1 SWAP1 PUSH2 0x376F JUMP JUMPDEST PUSH0 DUP5 DUP2 MSTORE PUSH1 0x3 DUP5 ADD PUSH1 0x20 MSTORE PUSH1 0x40 DUP2 KECCAK256 SLOAD PUSH1 0x2 DUP6 ADD DUP1 SLOAD SWAP4 SWAP5 POP SWAP1 SWAP3 DUP5 SWAP1 DUP2 LT PUSH2 0x2F52 JUMPI PUSH2 0x2F52 PUSH2 0x372F JUMP JUMPDEST SWAP1 PUSH0 MSTORE PUSH1 0x20 PUSH0 KECCAK256 ADD SLOAD SWAP1 POP DUP1 DUP5 PUSH1 0x2 ADD DUP4 DUP2 SLOAD DUP2 LT PUSH2 0x2F73 JUMPI PUSH2 0x2F73 PUSH2 0x372F JUMP JUMPDEST PUSH0 SWAP2 DUP3 MSTORE PUSH1 0x20 DUP1 DUP4 KECCAK256 SWAP1 SWAP2 ADD SWAP3 SWAP1 SWAP3 SSTORE DUP3 DUP2 MSTORE PUSH1 0x3 DUP7 ADD SWAP1 SWAP2 MSTORE PUSH1 0x40 DUP1 DUP3 KECCAK256 DUP5 SWAP1 SSTORE DUP7 DUP3 MSTORE DUP2 KECCAK256 SSTORE PUSH1 0x2 DUP5 ADD DUP1 SLOAD DUP1 PUSH2 0x2FAE JUMPI PUSH2 0x2FAE PUSH2 0x39BD JUMP JUMPDEST PUSH1 0x1 SWAP1 SUB DUP2 DUP2 SWAP1 PUSH0 MSTORE PUSH1 0x20 PUSH0 KECCAK256 ADD PUSH0 SWAP1 SSTORE SWAP1 SSTORE POP POP POP POP POP JUMP JUMPDEST PUSH0 DUP1 MLOAD PUSH1 0x20 PUSH2 0x39F2 DUP4 CODECOPY DUP2 MLOAD SWAP2 MSTORE PUSH0 PUSH1 0x1 PUSH2 0x2FE2 DUP6 PUSH2 0xC3D JUMP JUMPDEST PUSH2 0x2FEC SWAP2 SWAP1 PUSH2 0x376F JUMP JUMPDEST PUSH1 0x1 PUSH1 0x1 PUSH1 0xA0 SHL SUB SWAP1 SWAP5 AND PUSH0 SWAP1 DUP2 MSTORE PUSH1 0x20 DUP4 DUP2 MSTORE PUSH1 0x40 DUP1 DUP4 KECCAK256 DUP8 DUP5 MSTORE DUP3 MSTORE DUP1 DUP4 KECCAK256 DUP7 SWAP1 SSTORE SWAP5 DUP3 MSTORE PUSH1 0x1 SWAP1 SWAP4 ADD SWAP1 SWAP3 MSTORE POP KECCAK256 SSTORE JUMP JUMPDEST DUP1 MLOAD ISZERO PUSH2 0x3030 JUMPI DUP1 MLOAD DUP1 DUP3 PUSH1 0x20 ADD REVERT JUMPDEST PUSH1 0x40 MLOAD PUSH4 0xD6BDA275 PUSH1 0xE0 SHL DUP2 MSTORE PUSH1 0x4 ADD PUSH1 0x40 MLOAD DUP1 SWAP2 SUB SWAP1 REVERT JUMPDEST DUP3 SLOAD PUSH0 SWAP1 DUP2 SWAP1 DUP1 ISZERO PUSH2 0x313F JUMPI PUSH0 PUSH2 0x3065 DUP8 PUSH2 0x1528 PUSH1 0x1 DUP6 PUSH2 0x376F JUMP JUMPDEST DUP1 SLOAD SWAP1 SWAP2 POP PUSH6 0xFFFFFFFFFFFF DUP1 DUP3 AND SWAP2 PUSH1 0x1 PUSH1 0x30 SHL SWAP1 DIV PUSH1 0x1 PUSH1 0x1 PUSH1 0xD0 SHL SUB AND SWAP1 DUP9 AND DUP3 GT ISZERO PUSH2 0x30A8 JUMPI PUSH1 0x40 MLOAD PUSH4 0x2520601D PUSH1 0xE0 SHL DUP2 MSTORE PUSH1 0x4 ADD PUSH1 0x40 MLOAD DUP1 SWAP2 SUB SWAP1 REVERT JUMPDEST DUP8 PUSH6 0xFFFFFFFFFFFF AND DUP3 PUSH6 0xFFFFFFFFFFFF AND SUB PUSH2 0x30E1 JUMPI DUP3 SLOAD PUSH6 0xFFFFFFFFFFFF AND PUSH1 0x1 PUSH1 0x30 SHL PUSH1 0x1 PUSH1 0x1 PUSH1 0xD0 SHL SUB DUP10 AND MUL OR DUP4 SSTORE PUSH2 0x3131 JUMP JUMPDEST PUSH1 0x40 DUP1 MLOAD DUP1 DUP3 ADD SWAP1 SWAP2 MSTORE PUSH6 0xFFFFFFFFFFFF DUP1 DUP11 AND DUP3 MSTORE PUSH1 0x1 PUSH1 0x1 PUSH1 0xD0 SHL SUB DUP1 DUP11 AND PUSH1 0x20 DUP1 DUP6 ADD SWAP2 DUP3 MSTORE DUP14 SLOAD PUSH1 0x1 DUP2 ADD DUP16 SSTORE PUSH0 DUP16 DUP2 MSTORE SWAP2 SWAP1 SWAP2 KECCAK256 SWAP5 MLOAD SWAP2 MLOAD SWAP1 SWAP3 AND PUSH1 0x1 PUSH1 0x30 SHL MUL SWAP3 AND SWAP2 SWAP1 SWAP2 OR SWAP2 ADD SSTORE JUMPDEST SWAP5 POP DUP6 SWAP4 POP PUSH2 0x28BC SWAP3 POP POP POP JUMP JUMPDEST POP POP PUSH1 0x40 DUP1 MLOAD DUP1 DUP3 ADD SWAP1 SWAP2 MSTORE PUSH6 0xFFFFFFFFFFFF DUP1 DUP6 AND DUP3 MSTORE PUSH1 0x1 PUSH1 0x1 PUSH1 0xD0 SHL SUB DUP1 DUP6 AND PUSH1 0x20 DUP1 DUP6 ADD SWAP2 DUP3 MSTORE DUP9 SLOAD PUSH1 0x1 DUP2 ADD DUP11 SSTORE PUSH0 DUP11 DUP2 MSTORE SWAP2 DUP3 KECCAK256 SWAP6 MLOAD SWAP3 MLOAD SWAP1 SWAP4 AND PUSH1 0x1 PUSH1 0x30 SHL MUL SWAP2 SWAP1 SWAP4 AND OR SWAP3 ADD SWAP2 SWAP1 SWAP2 SSTORE SWAP1 POP DUP2 PUSH2 0x28BC JUMP JUMPDEST PUSH2 0x31A4 DUP4 DUP4 DUP4 PUSH2 0x31FD JUMP JUMPDEST PUSH2 0xA85 JUMPI PUSH1 0x1 PUSH1 0x1 PUSH1 0xA0 SHL SUB DUP4 AND PUSH2 0x31D2 JUMPI PUSH1 0x40 MLOAD PUSH4 0x7E273289 PUSH1 0xE0 SHL DUP2 MSTORE PUSH1 0x4 DUP2 ADD DUP3 SWAP1 MSTORE PUSH1 0x24 ADD PUSH2 0x93C JUMP JUMPDEST PUSH1 0x40 MLOAD PUSH4 0x177E802F PUSH1 0xE0 SHL DUP2 MSTORE PUSH1 0x1 PUSH1 0x1 PUSH1 0xA0 SHL SUB DUP4 AND PUSH1 0x4 DUP3 ADD MSTORE PUSH1 0x24 DUP2 ADD DUP3 SWAP1 MSTORE PUSH1 0x44 ADD PUSH2 0x93C JUMP JUMPDEST PUSH0 PUSH1 0x1 PUSH1 0x1 PUSH1 0xA0 SHL SUB DUP4 AND ISZERO DUP1 ISZERO SWAP1 PUSH2 0x1344 JUMPI POP DUP3 PUSH1 0x1 PUSH1 0x1 PUSH1 0xA0 SHL SUB AND DUP5 PUSH1 0x1 PUSH1 0x1 PUSH1 0xA0 SHL SUB AND EQ DUP1 PUSH2 0x3236 JUMPI POP PUSH2 0x3236 DUP5 DUP5 PUSH2 0xFF7 JUMP JUMPDEST DUP1 PUSH2 0x1344 JUMPI POP DUP3 PUSH1 0x1 PUSH1 0x1 PUSH1 0xA0 SHL SUB AND PUSH2 0x324F DUP4 PUSH2 0x12F2 JUMP JUMPDEST PUSH1 0x1 PUSH1 0x1 PUSH1 0xA0 SHL SUB AND EQ SWAP5 SWAP4 POP POP POP POP JUMP JUMPDEST PUSH1 0x1 PUSH1 0x1 PUSH1 0xE0 SHL SUB NOT DUP2 AND DUP2 EQ PUSH2 0xB2F JUMPI PUSH0 DUP1 REVERT JUMPDEST PUSH0 PUSH1 0x20 DUP3 DUP5 SUB SLT ISZERO PUSH2 0x3286 JUMPI PUSH0 DUP1 REVERT JUMPDEST DUP2 CALLDATALOAD PUSH2 0x1347 DUP2 PUSH2 0x3261 JUMP JUMPDEST PUSH0 DUP2 MLOAD DUP1 DUP5 MSTORE DUP1 PUSH1 0x20 DUP5 ADD PUSH1 0x20 DUP7 ADD MCOPY PUSH0 PUSH1 0x20 DUP3 DUP7 ADD ADD MSTORE PUSH1 0x20 PUSH1 0x1F NOT PUSH1 0x1F DUP4 ADD AND DUP6 ADD ADD SWAP2 POP POP SWAP3 SWAP2 POP POP JUMP JUMPDEST PUSH1 0x20 DUP2 MSTORE PUSH0 PUSH2 0x1347 PUSH1 0x20 DUP4 ADD DUP5 PUSH2 0x3291 JUMP JUMPDEST PUSH0 PUSH1 0x20 DUP3 DUP5 SUB SLT ISZERO PUSH2 0x32E1 JUMPI PUSH0 DUP1 REVERT JUMPDEST POP CALLDATALOAD SWAP2 SWAP1 POP JUMP JUMPDEST DUP1 CALLDATALOAD PUSH1 0x1 PUSH1 0x1 PUSH1 0xA0 SHL SUB DUP2 AND DUP2 EQ PUSH2 0x32FE JUMPI PUSH0 DUP1 REVERT JUMPDEST SWAP2 SWAP1 POP JUMP JUMPDEST PUSH0 DUP1 PUSH1 0x40 DUP4 DUP6 SUB SLT ISZERO PUSH2 0x3314 JUMPI PUSH0 DUP1 REVERT JUMPDEST PUSH2 0x331D DUP4 PUSH2 0x32E8 JUMP JUMPDEST SWAP5 PUSH1 0x20 SWAP4 SWAP1 SWAP4 ADD CALLDATALOAD SWAP4 POP POP POP JUMP JUMPDEST PUSH0 DUP1 PUSH0 PUSH1 0x60 DUP5 DUP7 SUB SLT ISZERO PUSH2 0x333D JUMPI PUSH0 DUP1 REVERT JUMPDEST PUSH2 0x3346 DUP5 PUSH2 0x32E8 JUMP JUMPDEST SWAP3 POP PUSH2 0x3354 PUSH1 0x20 DUP6 ADD PUSH2 0x32E8 JUMP JUMPDEST SWAP3 SWAP6 SWAP3 SWAP5 POP POP POP PUSH1 0x40 SWAP2 SWAP1 SWAP2 ADD CALLDATALOAD SWAP1 JUMP JUMPDEST PUSH0 DUP1 PUSH1 0x40 DUP4 DUP6 SUB SLT ISZERO PUSH2 0x3376 JUMPI PUSH0 DUP1 REVERT JUMPDEST DUP3 CALLDATALOAD SWAP2 POP PUSH2 0x3386 PUSH1 0x20 DUP5 ADD PUSH2 0x32E8 JUMP JUMPDEST SWAP1 POP SWAP3 POP SWAP3 SWAP1 POP JUMP JUMPDEST PUSH4 0x4E487B71 PUSH1 0xE0 SHL PUSH0 MSTORE PUSH1 0x41 PUSH1 0x4 MSTORE PUSH1 0x24 PUSH0 REVERT JUMPDEST PUSH0 DUP1 PUSH8 0xFFFFFFFFFFFFFFFF DUP5 GT ISZERO PUSH2 0x33BD JUMPI PUSH2 0x33BD PUSH2 0x338F JUMP JUMPDEST POP PUSH1 0x40 MLOAD PUSH1 0x1F NOT PUSH1 0x1F DUP6 ADD DUP2 AND PUSH1 0x3F ADD AND DUP2 ADD DUP2 DUP2 LT PUSH8 0xFFFFFFFFFFFFFFFF DUP3 GT OR ISZERO PUSH2 0x33EC JUMPI PUSH2 0x33EC PUSH2 0x338F JUMP JUMPDEST PUSH1 0x40 MSTORE DUP4 DUP2 MSTORE SWAP1 POP DUP1 DUP3 DUP5 ADD DUP6 LT ISZERO PUSH2 0x3403 JUMPI PUSH0 DUP1 REVERT JUMPDEST DUP4 DUP4 PUSH1 0x20 DUP4 ADD CALLDATACOPY PUSH0 PUSH1 0x20 DUP6 DUP4 ADD ADD MSTORE POP SWAP4 SWAP3 POP POP POP JUMP JUMPDEST PUSH0 DUP3 PUSH1 0x1F DUP4 ADD SLT PUSH2 0x3429 JUMPI PUSH0 DUP1 REVERT JUMPDEST PUSH2 0x1347 DUP4 DUP4 CALLDATALOAD PUSH1 0x20 DUP6 ADD PUSH2 0x33A3 JUMP JUMPDEST PUSH0 DUP1 PUSH1 0x40 DUP4 DUP6 SUB SLT ISZERO PUSH2 0x3449 JUMPI PUSH0 DUP1 REVERT JUMPDEST PUSH2 0x3452 DUP4 PUSH2 0x32E8 JUMP JUMPDEST SWAP2 POP PUSH1 0x20 DUP4 ADD CALLDATALOAD PUSH8 0xFFFFFFFFFFFFFFFF DUP2 GT ISZERO PUSH2 0x346D JUMPI PUSH0 DUP1 REVERT JUMPDEST PUSH2 0x3479 DUP6 DUP3 DUP7 ADD PUSH2 0x341A JUMP JUMPDEST SWAP2 POP POP SWAP3 POP SWAP3 SWAP1 POP JUMP JUMPDEST PUSH0 PUSH1 0x20 DUP3 DUP5 SUB SLT ISZERO PUSH2 0x3493 JUMPI PUSH0 DUP1 REVERT JUMPDEST PUSH2 0x1347 DUP3 PUSH2 0x32E8 JUMP JUMPDEST PUSH1 0xFF PUSH1 0xF8 SHL DUP9 AND DUP2 MSTORE PUSH1 0xE0 PUSH1 0x20 DUP3 ADD MSTORE PUSH0 PUSH2 0x34BA PUSH1 0xE0 DUP4 ADD DUP10 PUSH2 0x3291 JUMP JUMPDEST DUP3 DUP2 SUB PUSH1 0x40 DUP5 ADD MSTORE PUSH2 0x34CC DUP2 DUP10 PUSH2 0x3291 JUMP JUMPDEST PUSH1 0x60 DUP5 ADD DUP9 SWAP1 MSTORE PUSH1 0x1 PUSH1 0x1 PUSH1 0xA0 SHL SUB DUP8 AND PUSH1 0x80 DUP6 ADD MSTORE PUSH1 0xA0 DUP5 ADD DUP7 SWAP1 MSTORE DUP4 DUP2 SUB PUSH1 0xC0 DUP6 ADD MSTORE DUP5 MLOAD DUP1 DUP3 MSTORE PUSH1 0x20 DUP1 DUP8 ADD SWAP4 POP SWAP1 SWAP2 ADD SWAP1 PUSH0 JUMPDEST DUP2 DUP2 LT ISZERO PUSH2 0x3521 JUMPI DUP4 MLOAD DUP4 MSTORE PUSH1 0x20 SWAP4 DUP5 ADD SWAP4 SWAP1 SWAP3 ADD SWAP2 PUSH1 0x1 ADD PUSH2 0x3503 JUMP JUMPDEST POP SWAP1 SWAP12 SWAP11 POP POP POP POP POP POP POP POP POP POP POP JUMP JUMPDEST PUSH0 DUP1 PUSH1 0x40 DUP4 DUP6 SUB SLT ISZERO PUSH2 0x3543 JUMPI PUSH0 DUP1 REVERT JUMPDEST PUSH2 0x354C DUP4 PUSH2 0x32E8 JUMP JUMPDEST SWAP2 POP PUSH1 0x20 DUP4 ADD CALLDATALOAD DUP1 ISZERO ISZERO DUP2 EQ PUSH2 0x3560 JUMPI PUSH0 DUP1 REVERT JUMPDEST DUP1 SWAP2 POP POP SWAP3 POP SWAP3 SWAP1 POP JUMP JUMPDEST PUSH0 DUP1 PUSH0 DUP1 PUSH1 0x80 DUP6 DUP8 SUB SLT ISZERO PUSH2 0x357E JUMPI PUSH0 DUP1 REVERT JUMPDEST PUSH2 0x3587 DUP6 PUSH2 0x32E8 JUMP JUMPDEST SWAP4 POP PUSH2 0x3595 PUSH1 0x20 DUP7 ADD PUSH2 0x32E8 JUMP JUMPDEST SWAP3 POP PUSH1 0x40 DUP6 ADD CALLDATALOAD SWAP2 POP PUSH1 0x60 DUP6 ADD CALLDATALOAD PUSH8 0xFFFFFFFFFFFFFFFF DUP2 GT ISZERO PUSH2 0x35B7 JUMPI PUSH0 DUP1 REVERT JUMPDEST PUSH2 0x35C3 DUP8 DUP3 DUP9 ADD PUSH2 0x341A JUMP JUMPDEST SWAP2 POP POP SWAP3 SWAP6 SWAP2 SWAP5 POP SWAP3 POP JUMP JUMPDEST PUSH0 DUP1 PUSH0 DUP1 PUSH0 DUP1 PUSH1 0xC0 DUP8 DUP10 SUB SLT ISZERO PUSH2 0x35E4 JUMPI PUSH0 DUP1 REVERT JUMPDEST PUSH2 0x35ED DUP8 PUSH2 0x32E8 JUMP JUMPDEST SWAP6 POP PUSH1 0x20 DUP8 ADD CALLDATALOAD SWAP5 POP PUSH1 0x40 DUP8 ADD CALLDATALOAD SWAP4 POP PUSH1 0x60 DUP8 ADD CALLDATALOAD PUSH1 0xFF DUP2 AND DUP2 EQ PUSH2 0x3610 JUMPI PUSH0 DUP1 REVERT JUMPDEST SWAP6 SWAP9 SWAP5 SWAP8 POP SWAP3 SWAP6 PUSH1 0x80 DUP2 ADD CALLDATALOAD SWAP5 PUSH1 0xA0 SWAP1 SWAP2 ADD CALLDATALOAD SWAP4 POP SWAP2 POP POP JUMP JUMPDEST PUSH0 DUP1 PUSH1 0x40 DUP4 DUP6 SUB SLT ISZERO PUSH2 0x363B JUMPI PUSH0 DUP1 REVERT JUMPDEST PUSH2 0x3644 DUP4 PUSH2 0x32E8 JUMP JUMPDEST SWAP2 POP PUSH1 0x20 DUP4 ADD CALLDATALOAD PUSH8 0xFFFFFFFFFFFFFFFF DUP2 GT ISZERO PUSH2 0x365F JUMPI PUSH0 DUP1 REVERT JUMPDEST DUP4 ADD PUSH1 0x1F DUP2 ADD DUP6 SGT PUSH2 0x366F JUMPI PUSH0 DUP1 REVERT JUMPDEST PUSH2 0x3479 DUP6 DUP3 CALLDATALOAD PUSH1 0x20 DUP5 ADD PUSH2 0x33A3 JUMP JUMPDEST PUSH0 DUP1 PUSH1 0x40 DUP4 DUP6 SUB SLT ISZERO PUSH2 0x368F JUMPI PUSH0 DUP1 REVERT JUMPDEST PUSH2 0x3698 DUP4 PUSH2 0x32E8 JUMP JUMPDEST SWAP2 POP PUSH2 0x3386 PUSH1 0x20 DUP5 ADD PUSH2 0x32E8 JUMP JUMPDEST PUSH0 DUP1 PUSH0 DUP1 PUSH1 0x80 DUP6 DUP8 SUB SLT ISZERO PUSH2 0x36B9 JUMPI PUSH0 DUP1 REVERT JUMPDEST PUSH2 0x36C2 DUP6 PUSH2 0x32E8 JUMP JUMPDEST SWAP4 POP PUSH2 0x36D0 PUSH1 0x20 DUP7 ADD PUSH2 0x32E8 JUMP JUMPDEST SWAP3 POP PUSH2 0x36DE PUSH1 0x40 DUP7 ADD PUSH2 0x32E8 JUMP JUMPDEST SWAP2 POP PUSH2 0x36EC PUSH1 0x60 DUP7 ADD PUSH2 0x32E8 JUMP JUMPDEST SWAP1 POP SWAP3 SWAP6 SWAP2 SWAP5 POP SWAP3 POP JUMP JUMPDEST PUSH1 0x1 DUP2 DUP2 SHR SWAP1 DUP3 AND DUP1 PUSH2 0x370B JUMPI PUSH1 0x7F DUP3 AND SWAP2 POP JUMPDEST PUSH1 0x20 DUP3 LT DUP2 SUB PUSH2 0x3729 JUMPI PUSH4 0x4E487B71 PUSH1 0xE0 SHL PUSH0 MSTORE PUSH1 0x22 PUSH1 0x4 MSTORE PUSH1 0x24 PUSH0 REVERT JUMPDEST POP SWAP2 SWAP1 POP JUMP JUMPDEST PUSH4 0x4E487B71 PUSH1 0xE0 SHL PUSH0 MSTORE PUSH1 0x32 PUSH1 0x4 MSTORE PUSH1 0x24 PUSH0 REVERT JUMPDEST PUSH4 0x4E487B71 PUSH1 0xE0 SHL PUSH0 MSTORE PUSH1 0x11 PUSH1 0x4 MSTORE PUSH1 0x24 PUSH0 REVERT JUMPDEST PUSH0 PUSH1 0x1 DUP3 ADD PUSH2 0x3768 JUMPI PUSH2 0x3768 PUSH2 0x3743 JUMP JUMPDEST POP PUSH1 0x1 ADD SWAP1 JUMP JUMPDEST DUP2 DUP2 SUB DUP2 DUP2 GT ISZERO PUSH2 0x84D JUMPI PUSH2 0x84D PUSH2 0x3743 JUMP JUMPDEST DUP1 DUP3 ADD DUP1 DUP3 GT ISZERO PUSH2 0x84D JUMPI PUSH2 0x84D PUSH2 0x3743 JUMP JUMPDEST PUSH0 PUSH1 0x20 DUP3 DUP5 SUB SLT ISZERO PUSH2 0x37A5 JUMPI PUSH0 DUP1 REVERT JUMPDEST POP MLOAD SWAP2 SWAP1 POP JUMP JUMPDEST PUSH1 0x1 PUSH1 0x1 PUSH1 0xA0 SHL SUB DUP6 DUP2 AND DUP3 MSTORE DUP5 AND PUSH1 0x20 DUP3 ADD MSTORE PUSH1 0x40 DUP2 ADD DUP4 SWAP1 MSTORE PUSH1 0x80 PUSH1 0x60 DUP3 ADD DUP2 SWAP1 MSTORE PUSH0 SWAP1 PUSH2 0x37DE SWAP1 DUP4 ADD DUP5 PUSH2 0x3291 JUMP JUMPDEST SWAP7 SWAP6 POP POP POP POP POP POP JUMP JUMPDEST PUSH0 PUSH1 0x20 DUP3 DUP5 SUB SLT ISZERO PUSH2 0x37F8 JUMPI PUSH0 DUP1 REVERT JUMPDEST DUP2 MLOAD PUSH2 0x1347 DUP2 PUSH2 0x3261 JUMP JUMPDEST PUSH0 DUP2 MLOAD DUP1 PUSH1 0x20 DUP5 ADD DUP6 MCOPY PUSH0 SWAP4 ADD SWAP3 DUP4 MSTORE POP SWAP1 SWAP2 SWAP1 POP JUMP JUMPDEST PUSH0 PUSH2 0x1344 PUSH2 0x3828 DUP4 DUP7 PUSH2 0x3803 JUMP JUMPDEST DUP5 PUSH2 0x3803 JUMP JUMPDEST PUSH1 0x1F DUP3 GT ISZERO PUSH2 0xA85 JUMPI DUP1 PUSH0 MSTORE PUSH1 0x20 PUSH0 KECCAK256 PUSH1 0x1F DUP5 ADD PUSH1 0x5 SHR DUP2 ADD PUSH1 0x20 DUP6 LT ISZERO PUSH2 0x3853 JUMPI POP DUP1 JUMPDEST PUSH1 0x1F DUP5 ADD PUSH1 0x5 SHR DUP3 ADD SWAP2 POP JUMPDEST DUP2 DUP2 LT ISZERO PUSH2 0x1ADE JUMPI PUSH0 DUP2 SSTORE PUSH1 0x1 ADD PUSH2 0x385F JUMP JUMPDEST DUP2 MLOAD PUSH8 0xFFFFFFFFFFFFFFFF DUP2 GT ISZERO PUSH2 0x388C JUMPI PUSH2 0x388C PUSH2 0x338F JUMP JUMPDEST PUSH2 0x38A0 DUP2 PUSH2 0x389A DUP5 SLOAD PUSH2 0x36F7 JUMP JUMPDEST DUP5 PUSH2 0x382E JUMP JUMPDEST PUSH1 0x20 PUSH1 0x1F DUP3 GT PUSH1 0x1 DUP2 EQ PUSH2 0x38D2 JUMPI PUSH0 DUP4 ISZERO PUSH2 0x38BB JUMPI POP DUP5 DUP3 ADD MLOAD JUMPDEST PUSH0 NOT PUSH1 0x3 DUP6 SWAP1 SHL SHR NOT AND PUSH1 0x1 DUP5 SWAP1 SHL OR DUP5 SSTORE PUSH2 0x1ADE JUMP JUMPDEST PUSH0 DUP5 DUP2 MSTORE PUSH1 0x20 DUP2 KECCAK256 PUSH1 0x1F NOT DUP6 AND SWAP2 JUMPDEST DUP3 DUP2 LT ISZERO PUSH2 0x3901 JUMPI DUP8 DUP6 ADD MLOAD DUP3 SSTORE PUSH1 0x20 SWAP5 DUP6 ADD SWAP5 PUSH1 0x1 SWAP1 SWAP3 ADD SWAP2 ADD PUSH2 0x38E1 JUMP JUMPDEST POP DUP5 DUP3 LT ISZERO PUSH2 0x391E JUMPI DUP7 DUP5 ADD MLOAD PUSH0 NOT PUSH1 0x3 DUP8 SWAP1 SHL PUSH1 0xF8 AND SHR NOT AND DUP2 SSTORE JUMPDEST POP POP POP POP PUSH1 0x1 SWAP1 DUP2 SHL ADD SWAP1 SSTORE POP JUMP JUMPDEST PUSH4 0x4E487B71 PUSH1 0xE0 SHL PUSH0 MSTORE PUSH1 0x12 PUSH1 0x4 MSTORE PUSH1 0x24 PUSH0 REVERT JUMPDEST PUSH4 0x4E487B71 PUSH1 0xE0 SHL PUSH0 MSTORE PUSH1 0x21 PUSH1 0x4 MSTORE PUSH1 0x24 PUSH0 REVERT JUMPDEST PUSH0 DUP3 PUSH2 0x396F JUMPI PUSH4 0x4E487B71 PUSH1 0xE0 SHL PUSH0 MSTORE PUSH1 0x12 PUSH1 0x4 MSTORE PUSH1 0x24 PUSH0 REVERT JUMPDEST POP DIV SWAP1 JUMP JUMPDEST PUSH0 PUSH2 0x1347 DUP3 DUP5 PUSH2 0x3803 JUMP JUMPDEST PUSH1 0x1 PUSH1 0x1 PUSH1 0xD0 SHL SUB DUP3 DUP2 AND DUP3 DUP3 AND SUB SWAP1 DUP2 GT ISZERO PUSH2 0x84D JUMPI PUSH2 0x84D PUSH2 0x3743 JUMP JUMPDEST PUSH1 0x1 PUSH1 0x1 PUSH1 0xD0 SHL SUB DUP2 DUP2 AND DUP4 DUP3 AND ADD SWAP1 DUP2 GT ISZERO PUSH2 0x84D JUMPI PUSH2 0x84D PUSH2 0x3743 JUMP JUMPDEST PUSH4 0x4E487B71 PUSH1 0xE0 SHL PUSH0 MSTORE PUSH1 0x31 PUSH1 0x4 MSTORE PUSH1 0x24 PUSH0 REVERT INVALID 0xE8 0xB2 PUSH13 0x30FAD74198956032A3533D9033 DUP6 0xD5 PUSH14 0xD795AF560196F9C78D4AF40D0064 MCOPY SUB SWAP8 SDIV BLOBHASH STOP DUP9 0xDA 0xAD DUP10 0xBA 0xE2 POP BLOBHASH LOG3 0x4F BLOBBASEFEE SWAP1 PUSH19 0xD398537B1AB2425F24CBED0080BB2B638CC20B 0xC4 0xD0 0xA6 0xD PUSH7 0x940F3AB4A00C1D PUSH28 0x313497CA82FB0B4AB0079300A16A46D94261C7517CC8FF89F61C0CE9 CALLDATALOAD SWAP9 0xE3 0xC8 BLOBHASH DUP1 LT GT 0xDE 0xE6 BLOBHASH 0xA6 0xA5 JUMPI 0xD1 STOP CALLDATASIZE ADDMOD SWAP5 LOG1 EXTCODESIZE LOG1 LOG3 0x21 MOD PUSH8 0xC828492DB98DCA3E KECCAK256 PUSH23 0xCC3735A920A3CA505D382BBC65D7A28E3265B37A647492 SWAP16 CALLER PUSH6 0x21B332C1681B SWAP4 EXTCODEHASH PUSH13 0xB9F3376673440D862A645E0397 SDIV BLOBHASH STOP DUP9 0xDA 0xAD DUP10 0xBA 0xE2 POP BLOBHASH LOG3 0x4F BLOBBASEFEE SWAP1 PUSH19 0xD398537B1AB2425F24CBED0202DD7BC7DEC4DC 0xEE 0xDD 0xA7 PUSH22 0xE58DD541E08A116C6C53815C0BD028192F7B626800CD MCOPY 0xD1 TLOAD PUSH15 0x187E77E9AEE88184C21F4F2182AB58 0x27 0xCB EXTCODESIZE PUSH31 0x7FBEDCD63F03300A264697066735822122043EB94E7A8D4CEBDC3DEB68CDB 0xC1 0xCF 0xCE LOG2 0xD4 GASPRICE SWAP8 PUSH18 0x5043B1778C310D743921AE64736F6C634300 ADDMOD BYTE STOP CALLER LOG2 PUSH5 0x6970667358 0x22 SLT KECCAK256 0xE0 0xC6 MULMOD SWAP15 DUP5 SDIV 0xF 0xF EXTCODESIZE 0xC9 PC 0xB7 DUP13 DUP13 SELFDESTRUCT 0xA7 SMOD 0xBC CALLDATASIZE CALLER SUB 0xC6 0xD7 CALL 0xF9 CODECOPY PUSH20 0xB2A3ABC9B064736F6C634300081A003300000000 "
		},
		"gasEstimates": {
			"creation": {
				"codeDepositCost": "3329800",
				"executionCost": "3705",
				"totalCost": "3333505"
			},
			"external": {
				"beforeAll()": "infinite",
				"checkSenderAndValue()": "infinite",
				"checkSuccess()": "infinite",
				"checkSuccess2()": "170"
			}
		},
		"methodIdentifiers": {
			"beforeAll()": "7fea0d4b",
			"checkSenderAndValue()": "9074416d",
			"checkSuccess()": "011e6492",
			"checkSuccess2()": "12d487ea"
		}
	},
	"abi": [
		{
			"inputs": [],
			"name": "beforeAll",
			"outputs": [],
			"stateMutability": "nonpayable",
			"type": "function"
		},
		{
			"inputs": [],
			"name": "checkSenderAndValue",
			"outputs": [],
			"stateMutability": "payable",
			"type": "function"
		},
		{
			"inputs": [],
			"name": "checkSuccess",
			"outputs": [],
			"stateMutability": "nonpayable",
			"type": "function"
		},
		{
			"inputs": [],
			"name": "checkSuccess2",
			"outputs": [
				{
					"internalType": "bool",
					"name": "",
					"type": "bool"
				}
			],
			"stateMutability": "pure",
			"type": "function"
		}
	]
}