{
	"LegitDAO.sol": {
		"LegitDAO": {
			"abi": [
				{
					"inputs": [],
					"stateMutability": "nonpayable",
					"type": "constructor"
				},
				{
					"inputs": [
						{
							"internalType": "address",
							"name": "target",
							"type": "address"
						}
					],
					"name": "AddressEmptyCode",
					"type": "error"
				},
				{
					"inputs": [],
					"name": "FailedCall",
					"type": "error"
				},
				{
					"inputs": [
						{
							"internalType": "uint256",
							"name": "balance",
							"type": "uint256"
						},
						{
							"internalType": "uint256",
							"name": "needed",
							"type": "uint256"
						}
					],
					"name": "InsufficientBalance",
					"type": "error"
				},
				{
					"inputs": [],
					"name": "ReentrancyGuardReentrantCall",
					"type": "error"
				},
				{
					"anonymous": false,
					"inputs": [
						{
							"indexed": false,
							"internalType": "string",
							"name": "dependencyKey",
							"type": "string"
						},
						{
							"indexed": true,
							"internalType": "address",
							"name": "contractAddress",
							"type": "address"
						}
					],
					"name": "DependencyAdded",
					"type": "event"
				},
				{
					"anonymous": false,
					"inputs": [
						{
							"indexed": false,
							"internalType": "string",
							"name": "dependencyKey",
							"type": "string"
						},
						{
							"indexed": true,
							"internalType": "address",
							"name": "contractAddress",
							"type": "address"
						}
					],
					"name": "DependencyAdditionFailed",
					"type": "event"
				},
				{
					"anonymous": false,
					"inputs": [
						{
							"indexed": false,
							"internalType": "string",
							"name": "dependencyKey",
							"type": "string"
						},
						{
							"indexed": true,
							"internalType": "address",
							"name": "contractAddress",
							"type": "address"
						}
					],
					"name": "DependencyAdditionRequested",
					"type": "event"
				},
				{
					"anonymous": false,
					"inputs": [
						{
							"indexed": false,
							"internalType": "string",
							"name": "dependencyKey",
							"type": "string"
						},
						{
							"indexed": true,
							"internalType": "address",
							"name": "contractAddress",
							"type": "address"
						}
					],
					"name": "DependencyRemovalFailed",
					"type": "event"
				},
				{
					"anonymous": false,
					"inputs": [
						{
							"indexed": false,
							"internalType": "string",
							"name": "dependencyKey",
							"type": "string"
						},
						{
							"indexed": true,
							"internalType": "address",
							"name": "contractAddress",
							"type": "address"
						}
					],
					"name": "DependencyRemovalRequested",
					"type": "event"
				},
				{
					"anonymous": false,
					"inputs": [
						{
							"indexed": false,
							"internalType": "string",
							"name": "dependencyKey",
							"type": "string"
						},
						{
							"indexed": true,
							"internalType": "address",
							"name": "contractAddress",
							"type": "address"
						}
					],
					"name": "DependencyRemoved",
					"type": "event"
				},
				{
					"anonymous": false,
					"inputs": [
						{
							"indexed": true,
							"internalType": "contract IDependencyRequester",
							"name": "contractAddress",
							"type": "address"
						}
					],
					"name": "DependencyRequesterAdded",
					"type": "event"
				},
				{
					"anonymous": false,
					"inputs": [
						{
							"indexed": true,
							"internalType": "contract IDependencyRequester",
							"name": "contractAddress",
							"type": "address"
						}
					],
					"name": "DependencyRequesterUpgradeFailed",
					"type": "event"
				},
				{
					"anonymous": false,
					"inputs": [
						{
							"indexed": true,
							"internalType": "contract IDependencyRequester",
							"name": "contractInstance",
							"type": "address"
						}
					],
					"name": "DependencyRequesterUpgradeRequested",
					"type": "event"
				},
				{
					"anonymous": false,
					"inputs": [
						{
							"indexed": true,
							"internalType": "contract IDependencyRequester",
							"name": "contractInstance",
							"type": "address"
						}
					],
					"name": "DependencyRequesterUpgraded",
					"type": "event"
				},
				{
					"inputs": [
						{
							"internalType": "contract IDependencyRequester",
							"name": "dependency",
							"type": "address"
						}
					],
					"name": "addDependencyRequester",
					"outputs": [],
					"stateMutability": "nonpayable",
					"type": "function"
				},
				{
					"inputs": [
						{
							"internalType": "string",
							"name": "",
							"type": "string"
						}
					],
					"name": "approvedDependencies",
					"outputs": [
						{
							"internalType": "address",
							"name": "",
							"type": "address"
						}
					],
					"stateMutability": "view",
					"type": "function"
				},
				{
					"inputs": [
						{
							"internalType": "uint256",
							"name": "",
							"type": "uint256"
						}
					],
					"name": "approvedDependenciesKeys",
					"outputs": [
						{
							"internalType": "string",
							"name": "",
							"type": "string"
						}
					],
					"stateMutability": "view",
					"type": "function"
				},
				{
					"inputs": [
						{
							"internalType": "string",
							"name": "dependencyKey",
							"type": "string"
						},
						{
							"internalType": "string",
							"name": "functionSignature",
							"type": "string"
						},
						{
							"internalType": "bytes",
							"name": "data",
							"type": "bytes"
						}
					],
					"name": "callFunction",
					"outputs": [
						{
							"internalType": "bytes",
							"name": "",
							"type": "bytes"
						}
					],
					"stateMutability": "nonpayable",
					"type": "function"
				},
				{
					"inputs": [],
					"name": "dependencyRequester",
					"outputs": [
						{
							"internalType": "contract IDependencyRequester",
							"name": "",
							"type": "address"
						}
					],
					"stateMutability": "view",
					"type": "function"
				},
				{
					"inputs": [],
					"name": "deployer",
					"outputs": [
						{
							"internalType": "address",
							"name": "",
							"type": "address"
						}
					],
					"stateMutability": "view",
					"type": "function"
				},
				{
					"inputs": [
						{
							"internalType": "string",
							"name": "keyname",
							"type": "string"
						}
					],
					"name": "getDependencyAddress",
					"outputs": [
						{
							"internalType": "address",
							"name": "",
							"type": "address"
						}
					],
					"stateMutability": "view",
					"type": "function"
				},
				{
					"inputs": [],
					"name": "getDependencyKeys",
					"outputs": [
						{
							"internalType": "string[]",
							"name": "",
							"type": "string[]"
						}
					],
					"stateMutability": "view",
					"type": "function"
				},
				{
					"inputs": [],
					"name": "getPendingAprovalDependencyKeys",
					"outputs": [
						{
							"internalType": "string[]",
							"name": "",
							"type": "string[]"
						}
					],
					"stateMutability": "view",
					"type": "function"
				},
				{
					"inputs": [
						{
							"internalType": "string",
							"name": "",
							"type": "string"
						}
					],
					"name": "pendingApprovalDependencies",
					"outputs": [
						{
							"internalType": "uint256",
							"name": "",
							"type": "uint256"
						}
					],
					"stateMutability": "view",
					"type": "function"
				},
				{
					"inputs": [
						{
							"internalType": "uint256",
							"name": "",
							"type": "uint256"
						}
					],
					"name": "pendingApprovalDependenciesKeys",
					"outputs": [
						{
							"internalType": "string",
							"name": "",
							"type": "string"
						}
					],
					"stateMutability": "view",
					"type": "function"
				},
				{
					"inputs": [
						{
							"internalType": "string",
							"name": "",
							"type": "string"
						}
					],
					"name": "pendingRemovalDependencies",
					"outputs": [
						{
							"internalType": "uint256",
							"name": "",
							"type": "uint256"
						}
					],
					"stateMutability": "view",
					"type": "function"
				},
				{
					"inputs": [
						{
							"internalType": "uint256",
							"name": "",
							"type": "uint256"
						}
					],
					"name": "pendingRemovalDependenciesKeys",
					"outputs": [
						{
							"internalType": "string",
							"name": "",
							"type": "string"
						}
					],
					"stateMutability": "view",
					"type": "function"
				},
				{
					"inputs": [],
					"name": "pendingUpgradeForItself",
					"outputs": [
						{
							"internalType": "uint256",
							"name": "",
							"type": "uint256"
						}
					],
					"stateMutability": "view",
					"type": "function"
				},
				{
					"inputs": [
						{
							"internalType": "string",
							"name": "dependencyKey",
							"type": "string"
						},
						{
							"internalType": "address",
							"name": "contractAddress",
							"type": "address"
						}
					],
					"name": "requestDependencyAddition",
					"outputs": [],
					"stateMutability": "nonpayable",
					"type": "function"
				},
				{
					"inputs": [
						{
							"internalType": "string",
							"name": "dependencyKey",
							"type": "string"
						},
						{
							"internalType": "address",
							"name": "contractAddress",
							"type": "address"
						}
					],
					"name": "requestDependencyRemoval",
					"outputs": [],
					"stateMutability": "nonpayable",
					"type": "function"
				},
				{
					"inputs": [
						{
							"internalType": "contract IDependencyRequester",
							"name": "upgradedDependencyRequester",
							"type": "address"
						}
					],
					"name": "requestUpgradeDependencyRequester",
					"outputs": [],
					"stateMutability": "nonpayable",
					"type": "function"
				},
				{
					"inputs": [],
					"name": "updateDependencies",
					"outputs": [],
					"stateMutability": "nonpayable",
					"type": "function"
				}
			],
			"devdoc": {
				"custom:security-contact": "stev.rodr@gmail.com",
				"errors": {
					"AddressEmptyCode(address)": [
						{
							"details": "There's no code at `target` (it is not a contract)."
						}
					],
					"FailedCall()": [
						{
							"details": "A call to an address target failed. The target may have reverted."
						}
					],
					"InsufficientBalance(uint256,uint256)": [
						{
							"details": "The ETH balance of the account is not enough to perform the operation."
						}
					],
					"ReentrancyGuardReentrantCall()": [
						{
							"details": "Unauthorized reentrant call."
						}
					]
				},
				"kind": "dev",
				"methods": {},
				"version": 1
			},
			"evm": {
				"assembly": "    /* \"LegitDAO.sol\":283:8952  contract LegitDAO is ILegitDAO, ReentrancyGuard {... */\n  mstore(0x40, 0x80)\n    /* \"LegitDAO.sol\":968:1052  constructor() {... */\n  callvalue\n  dup1\n  iszero\n  tag_1\n  jumpi\n  0x00\n  dup1\n  revert\ntag_1:\n  pop\n    /* \"@openzeppelin/contracts/utils/ReentrancyGuard.sol\":1857:1858  1 */\n  0x01\n    /* \"@openzeppelin/contracts/utils/ReentrancyGuard.sol\":2061:2068  _status */\n  0x00\n    /* \"@openzeppelin/contracts/utils/ReentrancyGuard.sol\":2061:2082  _status = NOT_ENTERED */\n  dup2\n  swap1\n  sstore\n    /* \"LegitDAO.sol\":1024:1045  deployer = msg.sender */\n  dup1\n  sload\n  not(sub(shl(0xa0, 0x01), 0x01))\n  and\n    /* \"LegitDAO.sol\":1035:1045  msg.sender */\n  caller\n    /* \"LegitDAO.sol\":1024:1045  deployer = msg.sender */\n  or\n  swap1\n  sstore\n    /* \"LegitDAO.sol\":283:8952  contract LegitDAO is ILegitDAO, ReentrancyGuard {... */\n  dataSize(sub_0)\n  dup1\n  dataOffset(sub_0)\n  0x00\n  codecopy\n  0x00\n  return\nstop\n\nsub_0: assembly {\n        /* \"LegitDAO.sol\":283:8952  contract LegitDAO is ILegitDAO, ReentrancyGuard {... */\n      mstore(0x40, 0x80)\n      callvalue\n      dup1\n      iszero\n      tag_1\n      jumpi\n      0x00\n      dup1\n      revert\n    tag_1:\n      pop\n      jumpi(tag_2, lt(calldatasize, 0x04))\n      shr(0xe0, calldataload(0x00))\n      dup1\n      0x80719893\n      gt\n      tag_21\n      jumpi\n      dup1\n      0xbe6552e6\n      gt\n      tag_22\n      jumpi\n      dup1\n      0xbe6552e6\n      eq\n      tag_16\n      jumpi\n      dup1\n      0xd5f39488\n      eq\n      tag_17\n      jumpi\n      dup1\n      0xec4c2e5d\n      eq\n      tag_18\n      jumpi\n      dup1\n      0xeebed3a7\n      eq\n      tag_19\n      jumpi\n      dup1\n      0xfbe332dc\n      eq\n      tag_20\n      jumpi\n      0x00\n      dup1\n      revert\n    tag_22:\n      dup1\n      0x80719893\n      eq\n      tag_12\n      jumpi\n      dup1\n      0xa791edf8\n      eq\n      tag_13\n      jumpi\n      dup1\n      0xa7fee722\n      eq\n      tag_14\n      jumpi\n      dup1\n      0xbc5aef90\n      eq\n      tag_15\n      jumpi\n      0x00\n      dup1\n      revert\n    tag_21:\n      dup1\n      0x22418460\n      gt\n      tag_23\n      jumpi\n      dup1\n      0x22418460\n      eq\n      tag_7\n      jumpi\n      dup1\n      0x29d5de01\n      eq\n      tag_8\n      jumpi\n      dup1\n      0x2cf1366b\n      eq\n      tag_9\n      jumpi\n      dup1\n      0x6e5ecdff\n      eq\n      tag_10\n      jumpi\n      dup1\n      0x7b022fa2\n      eq\n      tag_11\n      jumpi\n      0x00\n      dup1\n      revert\n    tag_23:\n      dup1\n      0x0bcfc717\n      eq\n      tag_3\n      jumpi\n      dup1\n      0x12c0c8c0\n      eq\n      tag_4\n      jumpi\n      dup1\n      0x16c1076f\n      eq\n      tag_5\n      jumpi\n      dup1\n      0x1a83f4a3\n      eq\n      tag_6\n      jumpi\n    tag_2:\n      0x00\n      dup1\n      revert\n        /* \"LegitDAO.sol\":1815:2108  function addDependencyRequester(IDependencyRequester dependency) external override nonReentrant {... */\n    tag_3:\n      tag_24\n      tag_25\n      calldatasize\n      0x04\n      tag_26\n      jump\t// in\n    tag_25:\n      tag_27\n      jump\t// in\n    tag_24:\n      stop\n        /* \"LegitDAO.sol\":754:814  mapping(string => uint256) public pendingRemovalDependencies */\n    tag_4:\n      tag_28\n      tag_29\n      calldatasize\n      0x04\n      tag_30\n      jump\t// in\n    tag_29:\n      dup1\n      mload\n      0x20\n      dup2\n      dup4\n      add\n      dup2\n      add\n      dup1\n      mload\n      0x07\n      dup3\n      mstore\n      swap3\n      dup3\n      add\n      swap2\n      swap1\n      swap4\n      add\n      keccak256\n      swap2\n      mstore\n      sload\n      dup2\n      jump\n    tag_28:\n      mload(0x40)\n        /* \"#utility.yul\":2027:2052   */\n      swap1\n      dup2\n      mstore\n        /* \"#utility.yul\":2015:2017   */\n      0x20\n        /* \"#utility.yul\":2000:2018   */\n      add\n        /* \"LegitDAO.sol\":754:814  mapping(string => uint256) public pendingRemovalDependencies */\n    tag_32:\n      mload(0x40)\n      dup1\n      swap2\n      sub\n      swap1\n      return\n        /* \"LegitDAO.sol\":3740:4307  function requestUpgradeDependencyRequester(IDependencyRequester upgradedDependencyRequester) external override nonReentrant {... */\n    tag_5:\n      tag_24\n      tag_35\n      calldatasize\n      0x04\n      tag_26\n      jump\t// in\n    tag_35:\n      tag_36\n      jump\t// in\n        /* \"LegitDAO.sol\":596:657  mapping(string => uint256) public pendingApprovalDependencies */\n    tag_6:\n      tag_28\n      tag_38\n      calldatasize\n      0x04\n      tag_30\n      jump\t// in\n    tag_38:\n      dup1\n      mload\n      0x20\n      dup2\n      dup4\n      add\n      dup2\n      add\n      dup1\n      mload\n      0x05\n      dup3\n      mstore\n      swap3\n      dup3\n      add\n      swap2\n      swap1\n      swap4\n      add\n      keccak256\n      swap2\n      mstore\n      sload\n      dup2\n      jump\n        /* \"LegitDAO.sol\":1510:1763  function getDependencyAddress(string memory keyname) external view override returns (address) {... */\n    tag_7:\n      tag_41\n      tag_42\n      calldatasize\n      0x04\n      tag_30\n      jump\t// in\n    tag_42:\n      tag_43\n      jump\t// in\n    tag_41:\n      mload(0x40)\n      sub(shl(0xa0, 0x01), 0x01)\n        /* \"#utility.yul\":2227:2259   */\n      swap1\n      swap2\n      and\n        /* \"#utility.yul\":2209:2260   */\n      dup2\n      mstore\n        /* \"#utility.yul\":2197:2199   */\n      0x20\n        /* \"#utility.yul\":2182:2200   */\n      add\n        /* \"LegitDAO.sol\":1510:1763  function getDependencyAddress(string memory keyname) external view override returns (address) {... */\n      tag_32\n        /* \"#utility.yul\":2063:2266   */\n      jump\n        /* \"LegitDAO.sol\":451:505  mapping(string => address) public approvedDependencies */\n    tag_8:\n      tag_41\n      tag_47\n      calldatasize\n      0x04\n      tag_30\n      jump\t// in\n    tag_47:\n      dup1\n      mload\n      0x20\n      dup2\n      dup4\n      add\n      dup2\n      add\n      dup1\n      mload\n      0x03\n      dup3\n      mstore\n      swap3\n      dup3\n      add\n      swap2\n      swap1\n      swap4\n      add\n      keccak256\n      swap2\n      mstore\n      sload\n      sub(shl(0xa0, 0x01), 0x01)\n      and\n      dup2\n      jump\n        /* \"LegitDAO.sol\":820:866  string[] public pendingRemovalDependenciesKeys */\n    tag_9:\n      tag_50\n      tag_51\n      calldatasize\n      0x04\n      tag_52\n      jump\t// in\n    tag_51:\n      tag_53\n      jump\t// in\n    tag_50:\n      mload(0x40)\n      tag_32\n      swap2\n      swap1\n      tag_55\n      jump\t// in\n        /* \"LegitDAO.sol\":4352:7840  function updateDependencies() external override nonReentrant {... */\n    tag_10:\n      tag_24\n      tag_57\n      jump\t// in\n        /* \"LegitDAO.sol\":663:710  string[] public pendingApprovalDependenciesKeys */\n    tag_11:\n      tag_50\n      tag_59\n      calldatasize\n      0x04\n      tag_52\n      jump\t// in\n    tag_59:\n      tag_60\n      jump\t// in\n        /* \"LegitDAO.sol\":2163:2885  function requestDependencyAddition(string memory dependencyKey, address contractAddress) external override nonReentrant {... */\n    tag_12:\n      tag_24\n      tag_63\n      calldatasize\n      0x04\n      tag_64\n      jump\t// in\n    tag_63:\n      tag_65\n      jump\t// in\n        /* \"LegitDAO.sol\":398:445  IDependencyRequester public dependencyRequester */\n    tag_13:\n      sload(0x02)\n      tag_41\n      swap1\n      sub(shl(0xa0, 0x01), 0x01)\n      and\n      dup2\n      jump\n        /* \"LegitDAO.sol\":7919:8283  function callFunction(string memory dependencyKey, string memory functionSignature, bytes memory data) external override nonReentrant returns (bytes memory) {... */\n    tag_14:\n      tag_50\n      tag_71\n      calldatasize\n      0x04\n      tag_72\n      jump\t// in\n    tag_71:\n      tag_73\n      jump\t// in\n        /* \"LegitDAO.sol\":923:961  uint256 public pendingUpgradeForItself */\n    tag_15:\n      tag_28\n      sload(0x09)\n      dup2\n      jump\n        /* \"LegitDAO.sol\":1303:1450  function getPendingAprovalDependencyKeys() external view override returns (string[] memory) {... */\n    tag_16:\n      tag_79\n      tag_80\n      jump\t// in\n    tag_79:\n      mload(0x40)\n      tag_32\n      swap2\n      swap1\n      tag_82\n      jump\t// in\n        /* \"LegitDAO.sol\":369:392  address public deployer */\n    tag_17:\n      sload(0x01)\n      tag_41\n      swap1\n      sub(shl(0xa0, 0x01), 0x01)\n      and\n      dup2\n      jump\n        /* \"LegitDAO.sol\":1106:1232  function getDependencyKeys() external view override returns (string[] memory) {... */\n    tag_18:\n      tag_79\n      tag_87\n      jump\t// in\n        /* \"LegitDAO.sol\":511:551  string[] public approvedDependenciesKeys */\n    tag_19:\n      tag_50\n      tag_90\n      calldatasize\n      0x04\n      tag_52\n      jump\t// in\n    tag_90:\n      tag_91\n      jump\t// in\n        /* \"LegitDAO.sol\":2939:3667  function requestDependencyRemoval(string memory dependencyKey, address contractAddress) external override nonReentrant {... */\n    tag_20:\n      tag_24\n      tag_94\n      calldatasize\n      0x04\n      tag_64\n      jump\t// in\n    tag_94:\n      tag_95\n      jump\t// in\n        /* \"LegitDAO.sol\":1815:2108  function addDependencyRequester(IDependencyRequester dependency) external override nonReentrant {... */\n    tag_27:\n        /* \"@openzeppelin/contracts/utils/ReentrancyGuard.sol\":2500:2521  _nonReentrantBefore() */\n      tag_97\n        /* \"@openzeppelin/contracts/utils/ReentrancyGuard.sol\":2500:2519  _nonReentrantBefore */\n      tag_98\n        /* \"@openzeppelin/contracts/utils/ReentrancyGuard.sol\":2500:2521  _nonReentrantBefore() */\n      jump\t// in\n    tag_97:\n        /* \"LegitDAO.sol\":1943:1951  deployer */\n      and(sub(shl(0xa0, 0x01), 0x01), sload(0x01))\n        /* \"LegitDAO.sol\":1929:1939  msg.sender */\n      caller\n        /* \"LegitDAO.sol\":1929:1951  msg.sender == deployer */\n      eq\n        /* \"LegitDAO.sol\":1921:1998  require(msg.sender == deployer, \"the sender was expected to be the deployer\") */\n      tag_100\n      jumpi\n      mload(0x40)\n      shl(0xe5, 0x461bcd)\n      dup2\n      mstore\n        /* \"#utility.yul\":5838:5840   */\n      0x20\n        /* \"LegitDAO.sol\":1921:1998  require(msg.sender == deployer, \"the sender was expected to be the deployer\") */\n      0x04\n      dup3\n      add\n        /* \"#utility.yul\":5820:5841   */\n      mstore\n        /* \"#utility.yul\":5877:5879   */\n      0x2a\n        /* \"#utility.yul\":5857:5875   */\n      0x24\n      dup3\n      add\n        /* \"#utility.yul\":5850:5880   */\n      mstore\n        /* \"#utility.yul\":5916:5950   */\n      0x7468652073656e6465722077617320657870656374656420746f206265207468\n        /* \"#utility.yul\":5896:5914   */\n      0x44\n      dup3\n      add\n        /* \"#utility.yul\":5889:5951   */\n      mstore\n      shl(0xb1, 0x32903232b83637bcb2b9)\n        /* \"#utility.yul\":5967:5985   */\n      0x64\n      dup3\n      add\n        /* \"#utility.yul\":5960:6000   */\n      mstore\n        /* \"#utility.yul\":6017:6036   */\n      0x84\n      add\n        /* \"LegitDAO.sol\":1921:1998  require(msg.sender == deployer, \"the sender was expected to be the deployer\") */\n    tag_101:\n      mload(0x40)\n      dup1\n      swap2\n      sub\n      swap1\n      revert\n    tag_100:\n        /* \"LegitDAO.sol\":2009:2028  dependencyRequester */\n      0x02\n        /* \"LegitDAO.sol\":2009:2041  dependencyRequester = dependency */\n      dup1\n      sload\n      not(sub(shl(0xa0, 0x01), 0x01))\n      and\n      sub(shl(0xa0, 0x01), 0x01)\n      dup4\n      and\n      swap1\n      dup2\n      or\n      swap1\n      swap2\n      sstore\n        /* \"LegitDAO.sol\":2056:2101  DependencyRequesterAdded(dependencyRequester) */\n      mload(0x40)\n      0xa16907e9030f7a27dd100153173e6b01401f940d851e6f7095937f2773e561b2\n      swap1\n      0x00\n      swap1\n      log2\n        /* \"@openzeppelin/contracts/utils/ReentrancyGuard.sol\":2542:2562  _nonReentrantAfter() */\n      tag_103\n        /* \"@openzeppelin/contracts/utils/ReentrancyGuard.sol\":1857:1858  1 */\n      0x01\n        /* \"@openzeppelin/contracts/utils/ReentrancyGuard.sol\":3068:3075  _status */\n      0x00\n        /* \"@openzeppelin/contracts/utils/ReentrancyGuard.sol\":3068:3089  _status = NOT_ENTERED */\n      sstore\n        /* \"@openzeppelin/contracts/utils/ReentrancyGuard.sol\":2888:3096  function _nonReentrantAfter() private {... */\n      jump\n        /* \"@openzeppelin/contracts/utils/ReentrancyGuard.sol\":2542:2562  _nonReentrantAfter() */\n    tag_103:\n        /* \"LegitDAO.sol\":1815:2108  function addDependencyRequester(IDependencyRequester dependency) external override nonReentrant {... */\n      pop\n      jump\t// out\n        /* \"LegitDAO.sol\":3740:4307  function requestUpgradeDependencyRequester(IDependencyRequester upgradedDependencyRequester) external override nonReentrant {... */\n    tag_36:\n        /* \"@openzeppelin/contracts/utils/ReentrancyGuard.sol\":2500:2521  _nonReentrantBefore() */\n      tag_106\n        /* \"@openzeppelin/contracts/utils/ReentrancyGuard.sol\":2500:2519  _nonReentrantBefore */\n      tag_98\n        /* \"@openzeppelin/contracts/utils/ReentrancyGuard.sol\":2500:2521  _nonReentrantBefore() */\n      jump\t// in\n    tag_106:\n        /* \"LegitDAO.sol\":3882:3905  pendingUpgradeForItself */\n      sload(0x09)\n        /* \"LegitDAO.sol\":3882:3910  pendingUpgradeForItself == 0 */\n      iszero\n        /* \"LegitDAO.sol\":3874:3960  require(pendingUpgradeForItself == 0, \"there is already a pending upgrade in process\") */\n      tag_108\n      jumpi\n      mload(0x40)\n      shl(0xe5, 0x461bcd)\n      dup2\n      mstore\n        /* \"#utility.yul\":6249:6251   */\n      0x20\n        /* \"LegitDAO.sol\":3874:3960  require(pendingUpgradeForItself == 0, \"there is already a pending upgrade in process\") */\n      0x04\n      dup3\n      add\n        /* \"#utility.yul\":6231:6252   */\n      mstore\n        /* \"#utility.yul\":6288:6290   */\n      0x2d\n        /* \"#utility.yul\":6268:6286   */\n      0x24\n      dup3\n      add\n        /* \"#utility.yul\":6261:6291   */\n      mstore\n        /* \"#utility.yul\":6327:6361   */\n      0x746865726520697320616c726561647920612070656e64696e67207570677261\n        /* \"#utility.yul\":6307:6325   */\n      0x44\n      dup3\n      add\n        /* \"#utility.yul\":6300:6362   */\n      mstore\n      shl(0x98, 0x646520696e2070726f63657373)\n        /* \"#utility.yul\":6378:6396   */\n      0x64\n      dup3\n      add\n        /* \"#utility.yul\":6371:6414   */\n      mstore\n        /* \"#utility.yul\":6431:6450   */\n      0x84\n      add\n        /* \"LegitDAO.sol\":3874:3960  require(pendingUpgradeForItself == 0, \"there is already a pending upgrade in process\") */\n      tag_101\n        /* \"#utility.yul\":6047:6456   */\n      jump\n        /* \"LegitDAO.sol\":3874:3960  require(pendingUpgradeForItself == 0, \"there is already a pending upgrade in process\") */\n    tag_108:\n        /* \"LegitDAO.sol\":3986:4005  dependencyRequester */\n      and(sub(shl(0xa0, 0x01), 0x01), sload(0x02))\n        /* \"LegitDAO.sol\":3970:4060  require(address(dependencyRequester) != address(0), \"the dependency requester is not set\") */\n      tag_111\n      jumpi\n      mload(0x40)\n      shl(0xe5, 0x461bcd)\n      dup2\n      mstore\n      0x04\n      add\n      tag_101\n      swap1\n      tag_113\n      jump\t// in\n    tag_111:\n        /* \"LegitDAO.sol\":4092:4111  dependencyRequester */\n      sload(0x02)\n        /* \"LegitDAO.sol\":4092:4174  dependencyRequester.requestUpgradeDependencyRequester(upgradedDependencyRequester) */\n      mload(0x40)\n      shl(0xe0, 0x16c1076f)\n      dup2\n      mstore\n      sub(shl(0xa0, 0x01), 0x01)\n        /* \"#utility.yul\":2227:2259   */\n      dup4\n      dup2\n      and\n        /* \"LegitDAO.sol\":4092:4174  dependencyRequester.requestUpgradeDependencyRequester(upgradedDependencyRequester) */\n      0x04\n      dup4\n      add\n        /* \"#utility.yul\":2209:2260   */\n      mstore\n        /* \"LegitDAO.sol\":4071:4089  uint256 identifier */\n      0x00\n      swap3\n        /* \"LegitDAO.sol\":4092:4111  dependencyRequester */\n      and\n      swap1\n        /* \"LegitDAO.sol\":4092:4145  dependencyRequester.requestUpgradeDependencyRequester */\n      0x16c1076f\n      swap1\n        /* \"#utility.yul\":2182:2200   */\n      0x24\n      add\n        /* \"LegitDAO.sol\":4092:4174  dependencyRequester.requestUpgradeDependencyRequester(upgradedDependencyRequester) */\n      0x20\n      mload(0x40)\n      dup1\n      dup4\n      sub\n      dup2\n      0x00\n      dup8\n      gas\n      call\n      iszero\n      dup1\n      iszero\n      tag_116\n      jumpi\n      returndatasize\n      0x00\n      dup1\n      returndatacopy\n      revert(0x00, returndatasize)\n    tag_116:\n      pop\n      pop\n      pop\n      pop\n      mload(0x40)\n      returndatasize\n      not(0x1f)\n      0x1f\n      dup3\n      add\n      and\n      dup3\n      add\n      dup1\n      0x40\n      mstore\n      pop\n      dup2\n      add\n      swap1\n      tag_117\n      swap2\n      swap1\n      tag_118\n      jump\t// in\n    tag_117:\n        /* \"LegitDAO.sol\":4184:4207  pendingUpgradeForItself */\n      0x09\n        /* \"LegitDAO.sol\":4184:4220  pendingUpgradeForItself = identifier */\n      dup2\n      swap1\n      sstore\n        /* \"LegitDAO.sol\":4236:4300  DependencyRequesterUpgradeRequested(upgradedDependencyRequester) */\n      mload(0x40)\n        /* \"LegitDAO.sol\":4071:4174  uint256 identifier = dependencyRequester.requestUpgradeDependencyRequester(upgradedDependencyRequester) */\n      swap1\n      swap2\n      pop\n      sub(shl(0xa0, 0x01), 0x01)\n        /* \"LegitDAO.sol\":4236:4300  DependencyRequesterUpgradeRequested(upgradedDependencyRequester) */\n      dup4\n      and\n      swap1\n      0x130bf33540470b3a07f23b1164785a20acd90a150a4a00e976740c8f941c71db\n      swap1\n      0x00\n      swap1\n      log2\n        /* \"LegitDAO.sol\":3864:4307  {... */\n      pop\n        /* \"@openzeppelin/contracts/utils/ReentrancyGuard.sol\":2542:2562  _nonReentrantAfter() */\n      tag_103\n        /* \"@openzeppelin/contracts/utils/ReentrancyGuard.sol\":1857:1858  1 */\n      0x01\n        /* \"@openzeppelin/contracts/utils/ReentrancyGuard.sol\":3068:3075  _status */\n      0x00\n        /* \"@openzeppelin/contracts/utils/ReentrancyGuard.sol\":3068:3089  _status = NOT_ENTERED */\n      sstore\n        /* \"@openzeppelin/contracts/utils/ReentrancyGuard.sol\":2888:3096  function _nonReentrantAfter() private {... */\n      jump\n        /* \"LegitDAO.sol\":1510:1763  function getDependencyAddress(string memory keyname) external view override returns (address) {... */\n    tag_43:\n        /* \"LegitDAO.sol\":1595:1602  address */\n      0x00\n        /* \"LegitDAO.sol\":1663:1664  0 */\n      dup1\n      sub(shl(0xa0, 0x01), 0x01)\n        /* \"LegitDAO.sol\":1622:1665  approvedDependencies[keyname] != address(0) */\n      and\n        /* \"LegitDAO.sol\":1622:1642  approvedDependencies */\n      0x03\n        /* \"LegitDAO.sol\":1643:1650  keyname */\n      dup4\n        /* \"LegitDAO.sol\":1622:1651  approvedDependencies[keyname] */\n      mload(0x40)\n      tag_121\n      swap2\n      swap1\n      tag_122\n      jump\t// in\n    tag_121:\n      swap1\n      dup2\n      mstore\n      mload(0x40)\n      swap1\n      dup2\n      swap1\n      sub\n      0x20\n      add\n      swap1\n      keccak256\n      sload\n      sub(shl(0xa0, 0x01), 0x01)\n      and\n        /* \"LegitDAO.sol\":1622:1665  approvedDependencies[keyname] != address(0) */\n      sub\n        /* \"LegitDAO.sol\":1614:1710  require(approvedDependencies[keyname] != address(0), \"the key does NOT point to any dependency\") */\n      tag_123\n      jumpi\n      mload(0x40)\n      shl(0xe5, 0x461bcd)\n      dup2\n      mstore\n        /* \"#utility.yul\":7670:7672   */\n      0x20\n        /* \"LegitDAO.sol\":1614:1710  require(approvedDependencies[keyname] != address(0), \"the key does NOT point to any dependency\") */\n      0x04\n      dup3\n      add\n        /* \"#utility.yul\":7652:7673   */\n      mstore\n        /* \"#utility.yul\":7709:7711   */\n      0x28\n        /* \"#utility.yul\":7689:7707   */\n      0x24\n      dup3\n      add\n        /* \"#utility.yul\":7682:7712   */\n      mstore\n        /* \"#utility.yul\":7748:7782   */\n      0x746865206b657920646f6573204e4f5420706f696e7420746f20616e79206465\n        /* \"#utility.yul\":7728:7746   */\n      0x44\n      dup3\n      add\n        /* \"#utility.yul\":7721:7783   */\n      mstore\n      shl(0xc0, 0x70656e64656e6379)\n        /* \"#utility.yul\":7799:7817   */\n      0x64\n      dup3\n      add\n        /* \"#utility.yul\":7792:7830   */\n      mstore\n        /* \"#utility.yul\":7847:7866   */\n      0x84\n      add\n        /* \"LegitDAO.sol\":1614:1710  require(approvedDependencies[keyname] != address(0), \"the key does NOT point to any dependency\") */\n      tag_101\n        /* \"#utility.yul\":7468:7872   */\n      jump\n        /* \"LegitDAO.sol\":1614:1710  require(approvedDependencies[keyname] != address(0), \"the key does NOT point to any dependency\") */\n    tag_123:\n        /* \"LegitDAO.sol\":1727:1747  approvedDependencies */\n      0x03\n        /* \"LegitDAO.sol\":1748:1755  keyname */\n      dup3\n        /* \"LegitDAO.sol\":1727:1756  approvedDependencies[keyname] */\n      mload(0x40)\n      tag_126\n      swap2\n      swap1\n      tag_122\n      jump\t// in\n    tag_126:\n      swap1\n      dup2\n      mstore\n      mload(0x40)\n      swap1\n      dup2\n      swap1\n      sub\n      0x20\n      add\n      swap1\n      keccak256\n      sload\n      sub(shl(0xa0, 0x01), 0x01)\n      and\n      swap3\n        /* \"LegitDAO.sol\":1510:1763  function getDependencyAddress(string memory keyname) external view override returns (address) {... */\n      swap2\n      pop\n      pop\n      jump\t// out\n        /* \"LegitDAO.sol\":820:866  string[] public pendingRemovalDependenciesKeys */\n    tag_53:\n      0x08\n      dup2\n      dup2\n      sload\n      dup2\n      lt\n      tag_127\n      jumpi\n      0x00\n      dup1\n      revert\n    tag_127:\n      swap1\n      0x00\n      mstore\n      keccak256(0x00, 0x20)\n      add\n      0x00\n      swap2\n      pop\n      swap1\n      pop\n      dup1\n      sload\n      tag_129\n      swap1\n      tag_130\n      jump\t// in\n    tag_129:\n      dup1\n      0x1f\n      add\n      0x20\n      dup1\n      swap2\n      div\n      mul\n      0x20\n      add\n      mload(0x40)\n      swap1\n      dup2\n      add\n      0x40\n      mstore\n      dup1\n      swap3\n      swap2\n      swap1\n      dup2\n      dup2\n      mstore\n      0x20\n      add\n      dup3\n      dup1\n      sload\n      tag_131\n      swap1\n      tag_130\n      jump\t// in\n    tag_131:\n      dup1\n      iszero\n      tag_132\n      jumpi\n      dup1\n      0x1f\n      lt\n      tag_133\n      jumpi\n      0x0100\n      dup1\n      dup4\n      sload\n      div\n      mul\n      dup4\n      mstore\n      swap2\n      0x20\n      add\n      swap2\n      jump(tag_132)\n    tag_133:\n      dup3\n      add\n      swap2\n      swap1\n      0x00\n      mstore\n      keccak256(0x00, 0x20)\n      swap1\n    tag_134:\n      dup2\n      sload\n      dup2\n      mstore\n      swap1\n      0x01\n      add\n      swap1\n      0x20\n      add\n      dup1\n      dup4\n      gt\n      tag_134\n      jumpi\n      dup3\n      swap1\n      sub\n      0x1f\n      and\n      dup3\n      add\n      swap2\n    tag_132:\n      pop\n      pop\n      pop\n      pop\n      pop\n      dup2\n      jump\t// out\n        /* \"LegitDAO.sol\":4352:7840  function updateDependencies() external override nonReentrant {... */\n    tag_57:\n        /* \"@openzeppelin/contracts/utils/ReentrancyGuard.sol\":2500:2521  _nonReentrantBefore() */\n      tag_136\n        /* \"@openzeppelin/contracts/utils/ReentrancyGuard.sol\":2500:2519  _nonReentrantBefore */\n      tag_98\n        /* \"@openzeppelin/contracts/utils/ReentrancyGuard.sol\":2500:2521  _nonReentrantBefore() */\n      jump\t// in\n    tag_136:\n        /* \"LegitDAO.sol\":4439:4458  dependencyRequester */\n      and(sub(shl(0xa0, 0x01), 0x01), sload(0x02))\n        /* \"LegitDAO.sol\":4423:4513  require(address(dependencyRequester) != address(0), \"the dependency requester is not set\") */\n      tag_138\n      jumpi\n      mload(0x40)\n      shl(0xe5, 0x461bcd)\n      dup2\n      mstore\n      0x04\n      add\n      tag_101\n      swap1\n      tag_113\n      jump\t// in\n    tag_138:\n        /* \"LegitDAO.sol\":4575:4598  pendingUpgradeForItself */\n      sload(0x09)\n        /* \"LegitDAO.sol\":4575:4602  pendingUpgradeForItself > 0 */\n      iszero\n        /* \"LegitDAO.sol\":4571:5124  if (pendingUpgradeForItself > 0) {... */\n      tag_140\n      jumpi\n        /* \"LegitDAO.sol\":4693:4712  dependencyRequester */\n      sload(0x02)\n        /* \"LegitDAO.sol\":4738:4761  pendingUpgradeForItself */\n      sload(0x09)\n        /* \"LegitDAO.sol\":4693:4762  dependencyRequester.isRequestUpgradePositive(pendingUpgradeForItself) */\n      mload(0x40)\n      shl(0xe1, 0x156a8dcb)\n      dup2\n      mstore\n      0x04\n      dup2\n      add\n        /* \"#utility.yul\":2027:2052   */\n      swap2\n      swap1\n      swap2\n      mstore\n        /* \"LegitDAO.sol\":4619:4651  IDependencyRequester contractIns */\n      0x00\n      swap2\n      dup3\n      swap2\n      dup3\n      swap2\n      sub(shl(0xa0, 0x01), 0x01)\n        /* \"LegitDAO.sol\":4693:4712  dependencyRequester */\n      and\n      swap1\n        /* \"LegitDAO.sol\":4693:4737  dependencyRequester.isRequestUpgradePositive */\n      0x2ad51b96\n      swap1\n        /* \"#utility.yul\":2000:2018   */\n      0x24\n      add\n        /* \"LegitDAO.sol\":4693:4762  dependencyRequester.isRequestUpgradePositive(pendingUpgradeForItself) */\n      0x60\n      mload(0x40)\n      dup1\n      dup4\n      sub\n      dup2\n      dup7\n      gas\n      staticcall\n      iszero\n      dup1\n      iszero\n      tag_143\n      jumpi\n      returndatasize\n      0x00\n      dup1\n      returndatacopy\n      revert(0x00, returndatasize)\n    tag_143:\n      pop\n      pop\n      pop\n      pop\n      mload(0x40)\n      returndatasize\n      not(0x1f)\n      0x1f\n      dup3\n      add\n      and\n      dup3\n      add\n      dup1\n      0x40\n      mstore\n      pop\n      dup2\n      add\n      swap1\n      tag_144\n      swap2\n      swap1\n      tag_145\n      jump\t// in\n    tag_144:\n        /* \"LegitDAO.sol\":4618:4762  (IDependencyRequester contractIns, bool isVoteFinished, bool isApproved) = dependencyRequester.isRequestUpgradePositive(pendingUpgradeForItself) */\n      swap3\n      pop\n      swap3\n      pop\n      swap3\n      pop\n        /* \"LegitDAO.sol\":4780:4794  isVoteFinished */\n      dup2\n        /* \"LegitDAO.sol\":4776:4856  if (isVoteFinished) {... */\n      iszero\n      tag_146\n      jumpi\n        /* \"LegitDAO.sol\":4840:4841  0 */\n      0x00\n        /* \"LegitDAO.sol\":4814:4837  pendingUpgradeForItself */\n      0x09\n        /* \"LegitDAO.sol\":4814:4841  pendingUpgradeForItself = 0 */\n      sstore\n        /* \"LegitDAO.sol\":4776:4856  if (isVoteFinished) {... */\n    tag_146:\n        /* \"LegitDAO.sol\":4874:4888  isVoteFinished */\n      dup2\n        /* \"LegitDAO.sol\":4874:4902  isVoteFinished && isApproved */\n      dup1\n      iszero\n      tag_147\n      jumpi\n      pop\n        /* \"LegitDAO.sol\":4892:4902  isApproved */\n      dup1\n        /* \"LegitDAO.sol\":4874:4902  isVoteFinished && isApproved */\n    tag_147:\n        /* \"LegitDAO.sol\":4870:4982  if (isVoteFinished && isApproved) {... */\n      iszero\n      tag_148\n      jumpi\n        /* \"LegitDAO.sol\":4927:4967  DependencyRequesterUpgraded(contractIns) */\n      mload(0x40)\n      sub(shl(0xa0, 0x01), 0x01)\n      dup5\n      and\n      swap1\n      0xe00a5b97742635032504f47f4c4ae13f19de32bab9db317d70cb5820cce02935\n      swap1\n      0x00\n      swap1\n      log2\n        /* \"LegitDAO.sol\":4870:4982  if (isVoteFinished && isApproved) {... */\n    tag_148:\n        /* \"LegitDAO.sol\":5000:5014  isVoteFinished */\n      dup2\n        /* \"LegitDAO.sol\":5000:5029  isVoteFinished && !isApproved */\n      dup1\n      iszero\n      tag_149\n      jumpi\n      pop\n        /* \"LegitDAO.sol\":5019:5029  isApproved */\n      dup1\n        /* \"LegitDAO.sol\":5018:5029  !isApproved */\n      iszero\n        /* \"LegitDAO.sol\":5000:5029  isVoteFinished && !isApproved */\n    tag_149:\n        /* \"LegitDAO.sol\":4996:5114  if (isVoteFinished && !isApproved) {... */\n      iszero\n      tag_150\n      jumpi\n        /* \"LegitDAO.sol\":5054:5099  DependencyRequesterUpgradeFailed(contractIns) */\n      mload(0x40)\n      sub(shl(0xa0, 0x01), 0x01)\n      dup5\n      and\n      swap1\n      0x563bb4859f75835d1cd4855f062e12db76cc064572739370c11b20510e382d5b\n      swap1\n      0x00\n      swap1\n      log2\n        /* \"LegitDAO.sol\":4996:5114  if (isVoteFinished && !isApproved) {... */\n    tag_150:\n        /* \"LegitDAO.sol\":4604:5124  {... */\n      pop\n      pop\n      pop\n        /* \"LegitDAO.sol\":4571:5124  if (pendingUpgradeForItself > 0) {... */\n    tag_140:\n        /* \"LegitDAO.sol\":5174:5204  pendingRemovalDependenciesKeys */\n      0x08\n        /* \"LegitDAO.sol\":5174:5211  pendingRemovalDependenciesKeys.length */\n      sload\n        /* \"LegitDAO.sol\":5174:5215  pendingRemovalDependenciesKeys.length > 0 */\n      iszero\n        /* \"LegitDAO.sol\":5170:6620  if (pendingRemovalDependenciesKeys.length > 0) {... */\n      tag_151\n      jumpi\n        /* \"LegitDAO.sol\":5248:5278  pendingRemovalDependenciesKeys */\n      0x08\n        /* \"LegitDAO.sol\":5248:5285  pendingRemovalDependenciesKeys.length */\n      sload\n        /* \"LegitDAO.sol\":5231:6610  for (uint256 i = pendingRemovalDependenciesKeys.length; i > 0; i--) {... */\n    tag_152:\n        /* \"LegitDAO.sol\":5287:5292  i > 0 */\n      dup1\n      iszero\n        /* \"LegitDAO.sol\":5231:6610  for (uint256 i = pendingRemovalDependenciesKeys.length; i > 0; i--) {... */\n      tag_153\n      jumpi\n        /* \"LegitDAO.sol\":5317:5330  uint256 index */\n      0x00\n        /* \"LegitDAO.sol\":5333:5338  i - 1 */\n      tag_155\n        /* \"LegitDAO.sol\":5337:5338  1 */\n      0x01\n        /* \"LegitDAO.sol\":5333:5334  i */\n      dup4\n        /* \"LegitDAO.sol\":5333:5338  i - 1 */\n      tag_156\n      jump\t// in\n    tag_155:\n        /* \"LegitDAO.sol\":5317:5338  uint256 index = i - 1 */\n      swap1\n      pop\n        /* \"LegitDAO.sol\":5356:5377  string memory keyname */\n      0x00\n        /* \"LegitDAO.sol\":5380:5410  pendingRemovalDependenciesKeys */\n      0x08\n        /* \"LegitDAO.sol\":5411:5416  index */\n      dup3\n        /* \"LegitDAO.sol\":5380:5417  pendingRemovalDependenciesKeys[index] */\n      dup2\n      sload\n      dup2\n      lt\n      tag_158\n      jumpi\n      tag_158\n      tag_159\n      jump\t// in\n    tag_158:\n      swap1\n      0x00\n      mstore\n      keccak256(0x00, 0x20)\n      add\n        /* \"LegitDAO.sol\":5356:5417  string memory keyname = pendingRemovalDependenciesKeys[index] */\n      dup1\n      sload\n      tag_161\n      swap1\n      tag_130\n      jump\t// in\n    tag_161:\n      dup1\n      0x1f\n      add\n      0x20\n      dup1\n      swap2\n      div\n      mul\n      0x20\n      add\n      mload(0x40)\n      swap1\n      dup2\n      add\n      0x40\n      mstore\n      dup1\n      swap3\n      swap2\n      swap1\n      dup2\n      dup2\n      mstore\n      0x20\n      add\n      dup3\n      dup1\n      sload\n      tag_162\n      swap1\n      tag_130\n      jump\t// in\n    tag_162:\n      dup1\n      iszero\n      tag_163\n      jumpi\n      dup1\n      0x1f\n      lt\n      tag_164\n      jumpi\n      0x0100\n      dup1\n      dup4\n      sload\n      div\n      mul\n      dup4\n      mstore\n      swap2\n      0x20\n      add\n      swap2\n      jump(tag_163)\n    tag_164:\n      dup3\n      add\n      swap2\n      swap1\n      0x00\n      mstore\n      keccak256(0x00, 0x20)\n      swap1\n    tag_165:\n      dup2\n      sload\n      dup2\n      mstore\n      swap1\n      0x01\n      add\n      swap1\n      0x20\n      add\n      dup1\n      dup4\n      gt\n      tag_165\n      jumpi\n      dup3\n      swap1\n      sub\n      0x1f\n      and\n      dup3\n      add\n      swap2\n    tag_163:\n      pop\n      pop\n      pop\n      pop\n      pop\n      swap1\n      pop\n        /* \"LegitDAO.sol\":5435:5453  uint256 identifier */\n      0x00\n        /* \"LegitDAO.sol\":5456:5482  pendingRemovalDependencies */\n      0x07\n        /* \"LegitDAO.sol\":5483:5490  keyname */\n      dup3\n        /* \"LegitDAO.sol\":5456:5491  pendingRemovalDependencies[keyname] */\n      mload(0x40)\n      tag_166\n      swap2\n      swap1\n      tag_122\n      jump\t// in\n    tag_166:\n      swap1\n      dup2\n      mstore\n      mload(0x40)\n      swap1\n      dup2\n      swap1\n      sub\n      0x20\n      add\n      dup2\n      keccak256\n      sload\n        /* \"LegitDAO.sol\":5551:5570  dependencyRequester */\n      sload(0x02)\n      shl(0xe0, 0xb986f179)\n        /* \"LegitDAO.sol\":5551:5607  dependencyRequester.isRequestRemovalPositive(identifier) */\n      dup4\n      mstore\n        /* \"LegitDAO.sol\":5456:5491  pendingRemovalDependencies[keyname] */\n      swap1\n      swap3\n      pop\n        /* \"LegitDAO.sol\":5511:5530  bool isVoteFinished */\n      0x00\n      swap2\n      dup3\n      swap2\n      sub(shl(0xa0, 0x01), 0x01)\n        /* \"LegitDAO.sol\":5551:5570  dependencyRequester */\n      and\n      swap1\n        /* \"LegitDAO.sol\":5551:5595  dependencyRequester.isRequestRemovalPositive */\n      0xb986f179\n      swap1\n        /* \"LegitDAO.sol\":5551:5607  dependencyRequester.isRequestRemovalPositive(identifier) */\n      tag_167\n      swap1\n        /* \"LegitDAO.sol\":5456:5491  pendingRemovalDependencies[keyname] */\n      dup7\n      swap1\n        /* \"LegitDAO.sol\":5551:5607  dependencyRequester.isRequestRemovalPositive(identifier) */\n      0x04\n      add\n        /* \"#utility.yul\":2027:2052   */\n      swap1\n      dup2\n      mstore\n        /* \"#utility.yul\":2015:2017   */\n      0x20\n        /* \"#utility.yul\":2000:2018   */\n      add\n      swap1\n        /* \"#utility.yul\":1881:2058   */\n      jump\n        /* \"LegitDAO.sol\":5551:5607  dependencyRequester.isRequestRemovalPositive(identifier) */\n    tag_167:\n      0x40\n      dup1\n      mload\n      dup1\n      dup4\n      sub\n      dup2\n      dup7\n      gas\n      staticcall\n      iszero\n      dup1\n      iszero\n      tag_169\n      jumpi\n      returndatasize\n      0x00\n      dup1\n      returndatacopy\n      revert(0x00, returndatasize)\n    tag_169:\n      pop\n      pop\n      pop\n      pop\n      mload(0x40)\n      returndatasize\n      not(0x1f)\n      0x1f\n      dup3\n      add\n      and\n      dup3\n      add\n      dup1\n      0x40\n      mstore\n      pop\n      dup2\n      add\n      swap1\n      tag_170\n      swap2\n      swap1\n      tag_171\n      jump\t// in\n    tag_170:\n        /* \"LegitDAO.sol\":5510:5607  (bool isVoteFinished, bool isApproved) = dependencyRequester.isRequestRemovalPositive(identifier) */\n      swap2\n      pop\n      swap2\n      pop\n        /* \"LegitDAO.sol\":5630:5644  isVoteFinished */\n      dup2\n        /* \"LegitDAO.sol\":5625:5695  if (!isVoteFinished) {... */\n      tag_172\n      jumpi\n        /* \"LegitDAO.sol\":5668:5676  continue */\n      pop\n      pop\n      pop\n      pop\n      pop\n      jump(tag_154)\n        /* \"LegitDAO.sol\":5625:5695  if (!isVoteFinished) {... */\n    tag_172:\n        /* \"LegitDAO.sol\":5713:5738  address dependencyAddress */\n      0x00\n        /* \"LegitDAO.sol\":5741:5761  approvedDependencies */\n      0x03\n        /* \"LegitDAO.sol\":5762:5769  keyname */\n      dup6\n        /* \"LegitDAO.sol\":5741:5770  approvedDependencies[keyname] */\n      mload(0x40)\n      tag_173\n      swap2\n      swap1\n      tag_122\n      jump\t// in\n    tag_173:\n      swap1\n      dup2\n      mstore\n      mload(0x40)\n      swap1\n      dup2\n      swap1\n      sub\n      0x20\n      add\n      swap1\n      keccak256\n      sload\n      sub(shl(0xa0, 0x01), 0x01)\n      and\n      swap1\n      pop\n        /* \"LegitDAO.sol\":5788:6218  if (isApproved) {... */\n      dup2\n      iszero\n      tag_174\n      jumpi\n        /* \"LegitDAO.sol\":5833:5853  approvedDependencies */\n      0x03\n        /* \"LegitDAO.sol\":5854:5861  keyname */\n      dup6\n        /* \"LegitDAO.sol\":5833:5862  approvedDependencies[keyname] */\n      mload(0x40)\n      tag_175\n      swap2\n      swap1\n      tag_122\n      jump\t// in\n    tag_175:\n      swap1\n      dup2\n      mstore\n      mload(0x40)\n      swap1\n      dup2\n      swap1\n      sub\n      0x20\n      add\n      swap1\n      keccak256\n        /* \"LegitDAO.sol\":5826:5862  delete approvedDependencies[keyname] */\n      dup1\n      sload\n      not(sub(shl(0xa0, 0x01), 0x01))\n      and\n      swap1\n      sstore\n        /* \"LegitDAO.sol\":5974:5998  approvedDependenciesKeys */\n      0x04\n        /* \"LegitDAO.sol\":5999:6030  approvedDependenciesKeys.length */\n      dup1\n      sload\n        /* \"LegitDAO.sol\":5999:6034  approvedDependenciesKeys.length - 1 */\n      tag_176\n      swap1\n        /* \"LegitDAO.sol\":5826:5862  delete approvedDependencies[keyname] */\n      0x01\n      swap1\n        /* \"LegitDAO.sol\":5999:6034  approvedDependenciesKeys.length - 1 */\n      tag_156\n      jump\t// in\n    tag_176:\n        /* \"LegitDAO.sol\":5974:6035  approvedDependenciesKeys[approvedDependenciesKeys.length - 1] */\n      dup2\n      sload\n      dup2\n      lt\n      tag_178\n      jumpi\n      tag_178\n      tag_159\n      jump\t// in\n    tag_178:\n      swap1\n      0x00\n      mstore\n      keccak256(0x00, 0x20)\n      add\n        /* \"LegitDAO.sol\":5940:5964  approvedDependenciesKeys */\n      0x04\n        /* \"LegitDAO.sol\":5965:5970  index */\n      dup8\n        /* \"LegitDAO.sol\":5940:5971  approvedDependenciesKeys[index] */\n      dup2\n      sload\n      dup2\n      lt\n      tag_181\n      jumpi\n      tag_181\n      tag_159\n      jump\t// in\n    tag_181:\n      swap1\n      0x00\n      mstore\n      keccak256(0x00, 0x20)\n      add\n        /* \"LegitDAO.sol\":5940:6035  approvedDependenciesKeys[index] = approvedDependenciesKeys[approvedDependenciesKeys.length - 1] */\n      swap1\n      dup2\n      tag_183\n      swap2\n      swap1\n      tag_184\n      jump\t// in\n    tag_183:\n      pop\n        /* \"LegitDAO.sol\":6057:6081  approvedDependenciesKeys */\n      0x04\n        /* \"LegitDAO.sol\":6057:6087  approvedDependenciesKeys.pop() */\n      dup1\n      sload\n      dup1\n      tag_186\n      jumpi\n      tag_186\n      tag_187\n      jump\t// in\n    tag_186:\n      0x01\n      swap1\n      sub\n      dup2\n      dup2\n      swap1\n      0x00\n      mstore\n      keccak256(0x00, 0x20)\n      add\n      0x00\n      tag_189\n      swap2\n      swap1\n      tag_190\n      jump\t// in\n    tag_189:\n      swap1\n      sstore\n        /* \"LegitDAO.sol\":6181:6198  dependencyAddress */\n      dup1\n      sub(shl(0xa0, 0x01), 0x01)\n        /* \"LegitDAO.sol\":6154:6199  DependencyRemoved(keyname, dependencyAddress) */\n      and\n      0x82aa94d0384f3fe5d924376cf325afcff8195f30f42758ae710193c432f24ac1\n        /* \"LegitDAO.sol\":6172:6179  keyname */\n      dup7\n        /* \"LegitDAO.sol\":6154:6199  DependencyRemoved(keyname, dependencyAddress) */\n      mload(0x40)\n      tag_191\n      swap2\n      swap1\n      tag_55\n      jump\t// in\n    tag_191:\n      mload(0x40)\n      dup1\n      swap2\n      sub\n      swap1\n      log2\n        /* \"LegitDAO.sol\":5788:6218  if (isApproved) {... */\n    tag_174:\n        /* \"LegitDAO.sol\":6241:6251  isApproved */\n      dup2\n        /* \"LegitDAO.sol\":6236:6350  if (!isApproved) {... */\n      tag_192\n      jumpi\n        /* \"LegitDAO.sol\":6313:6330  dependencyAddress */\n      dup1\n      sub(shl(0xa0, 0x01), 0x01)\n        /* \"LegitDAO.sol\":6280:6331  DependencyRemovalFailed(keyname, dependencyAddress) */\n      and\n      0x402a83bdad8cef946824820b268607aec7303de64e88533b0bd7ee57a577b954\n        /* \"LegitDAO.sol\":6304:6311  keyname */\n      dup7\n        /* \"LegitDAO.sol\":6280:6331  DependencyRemovalFailed(keyname, dependencyAddress) */\n      mload(0x40)\n      tag_193\n      swap2\n      swap1\n      tag_55\n      jump\t// in\n    tag_193:\n      mload(0x40)\n      dup1\n      swap2\n      sub\n      swap1\n      log2\n        /* \"LegitDAO.sol\":6236:6350  if (!isApproved) {... */\n    tag_192:\n        /* \"LegitDAO.sol\":6375:6401  pendingRemovalDependencies */\n      0x07\n        /* \"LegitDAO.sol\":6402:6409  keyname */\n      dup6\n        /* \"LegitDAO.sol\":6375:6410  pendingRemovalDependencies[keyname] */\n      mload(0x40)\n      tag_194\n      swap2\n      swap1\n      tag_122\n      jump\t// in\n    tag_194:\n      swap1\n      dup2\n      mstore\n      mload(0x40)\n      swap1\n      dup2\n      swap1\n      sub\n      0x20\n      add\n      swap1\n      keccak256\n        /* \"LegitDAO.sol\":6368:6410  delete pendingRemovalDependencies[keyname] */\n      0x00\n      swap1\n      sstore\n        /* \"LegitDAO.sol\":6468:6498  pendingRemovalDependenciesKeys */\n      0x08\n        /* \"LegitDAO.sol\":6499:6536  pendingRemovalDependenciesKeys.length */\n      dup1\n      sload\n        /* \"LegitDAO.sol\":6499:6540  pendingRemovalDependenciesKeys.length - 1 */\n      tag_195\n      swap1\n        /* \"LegitDAO.sol\":6539:6540  1 */\n      0x01\n      swap1\n        /* \"LegitDAO.sol\":6499:6540  pendingRemovalDependenciesKeys.length - 1 */\n      tag_156\n      jump\t// in\n    tag_195:\n        /* \"LegitDAO.sol\":6468:6541  pendingRemovalDependenciesKeys[pendingRemovalDependenciesKeys.length - 1] */\n      dup2\n      sload\n      dup2\n      lt\n      tag_197\n      jumpi\n      tag_197\n      tag_159\n      jump\t// in\n    tag_197:\n      swap1\n      0x00\n      mstore\n      keccak256(0x00, 0x20)\n      add\n        /* \"LegitDAO.sol\":6428:6458  pendingRemovalDependenciesKeys */\n      0x08\n        /* \"LegitDAO.sol\":6459:6464  index */\n      dup8\n        /* \"LegitDAO.sol\":6428:6465  pendingRemovalDependenciesKeys[index] */\n      dup2\n      sload\n      dup2\n      lt\n      tag_200\n      jumpi\n      tag_200\n      tag_159\n      jump\t// in\n    tag_200:\n      swap1\n      0x00\n      mstore\n      keccak256(0x00, 0x20)\n      add\n        /* \"LegitDAO.sol\":6428:6541  pendingRemovalDependenciesKeys[index] = pendingRemovalDependenciesKeys[pendingRemovalDependenciesKeys.length - 1] */\n      swap1\n      dup2\n      tag_202\n      swap2\n      swap1\n      tag_184\n      jump\t// in\n    tag_202:\n      pop\n        /* \"LegitDAO.sol\":6559:6589  pendingRemovalDependenciesKeys */\n      0x08\n        /* \"LegitDAO.sol\":6559:6595  pendingRemovalDependenciesKeys.pop() */\n      dup1\n      sload\n      dup1\n      tag_204\n      jumpi\n      tag_204\n      tag_187\n      jump\t// in\n    tag_204:\n      0x01\n      swap1\n      sub\n      dup2\n      dup2\n      swap1\n      0x00\n      mstore\n      keccak256(0x00, 0x20)\n      add\n      0x00\n      tag_206\n      swap2\n      swap1\n      tag_190\n      jump\t// in\n    tag_206:\n      swap1\n      sstore\n        /* \"LegitDAO.sol\":5299:6610  {... */\n      pop\n      pop\n      pop\n      pop\n      pop\n      pop\n        /* \"LegitDAO.sol\":5231:6610  for (uint256 i = pendingRemovalDependenciesKeys.length; i > 0; i--) {... */\n    tag_154:\n        /* \"LegitDAO.sol\":5294:5297  i-- */\n      dup1\n      tag_207\n      dup2\n      tag_208\n      jump\t// in\n    tag_207:\n      swap2\n      pop\n      pop\n        /* \"LegitDAO.sol\":5231:6610  for (uint256 i = pendingRemovalDependenciesKeys.length; i > 0; i--) {... */\n      jump(tag_152)\n    tag_153:\n      pop\n        /* \"LegitDAO.sol\":5170:6620  if (pendingRemovalDependenciesKeys.length > 0) {... */\n    tag_151:\n        /* \"LegitDAO.sol\":6671:6702  pendingApprovalDependenciesKeys */\n      0x06\n        /* \"LegitDAO.sol\":6671:6709  pendingApprovalDependenciesKeys.length */\n      sload\n        /* \"LegitDAO.sol\":6671:6713  pendingApprovalDependenciesKeys.length > 0 */\n      iszero\n        /* \"LegitDAO.sol\":6667:7834  if (pendingApprovalDependenciesKeys.length > 0) {... */\n      tag_209\n      jumpi\n        /* \"LegitDAO.sol\":6746:6777  pendingApprovalDependenciesKeys */\n      0x06\n        /* \"LegitDAO.sol\":6746:6784  pendingApprovalDependenciesKeys.length */\n      sload\n        /* \"LegitDAO.sol\":6729:7824  for (uint256 i = pendingApprovalDependenciesKeys.length; i > 0; i--) {... */\n    tag_210:\n        /* \"LegitDAO.sol\":6786:6791  i > 0 */\n      dup1\n      iszero\n        /* \"LegitDAO.sol\":6729:7824  for (uint256 i = pendingApprovalDependenciesKeys.length; i > 0; i--) {... */\n      tag_211\n      jumpi\n        /* \"LegitDAO.sol\":6816:6829  uint256 index */\n      0x00\n        /* \"LegitDAO.sol\":6832:6837  i - 1 */\n      tag_213\n        /* \"LegitDAO.sol\":6836:6837  1 */\n      0x01\n        /* \"LegitDAO.sol\":6832:6833  i */\n      dup4\n        /* \"LegitDAO.sol\":6832:6837  i - 1 */\n      tag_156\n      jump\t// in\n    tag_213:\n        /* \"LegitDAO.sol\":6816:6837  uint256 index = i - 1 */\n      swap1\n      pop\n        /* \"LegitDAO.sol\":6855:6876  string memory keyname */\n      0x00\n        /* \"LegitDAO.sol\":6879:6910  pendingApprovalDependenciesKeys */\n      0x06\n        /* \"LegitDAO.sol\":6911:6916  index */\n      dup3\n        /* \"LegitDAO.sol\":6879:6917  pendingApprovalDependenciesKeys[index] */\n      dup2\n      sload\n      dup2\n      lt\n      tag_215\n      jumpi\n      tag_215\n      tag_159\n      jump\t// in\n    tag_215:\n      swap1\n      0x00\n      mstore\n      keccak256(0x00, 0x20)\n      add\n        /* \"LegitDAO.sol\":6855:6917  string memory keyname = pendingApprovalDependenciesKeys[index] */\n      dup1\n      sload\n      tag_217\n      swap1\n      tag_130\n      jump\t// in\n    tag_217:\n      dup1\n      0x1f\n      add\n      0x20\n      dup1\n      swap2\n      div\n      mul\n      0x20\n      add\n      mload(0x40)\n      swap1\n      dup2\n      add\n      0x40\n      mstore\n      dup1\n      swap3\n      swap2\n      swap1\n      dup2\n      dup2\n      mstore\n      0x20\n      add\n      dup3\n      dup1\n      sload\n      tag_218\n      swap1\n      tag_130\n      jump\t// in\n    tag_218:\n      dup1\n      iszero\n      tag_219\n      jumpi\n      dup1\n      0x1f\n      lt\n      tag_220\n      jumpi\n      0x0100\n      dup1\n      dup4\n      sload\n      div\n      mul\n      dup4\n      mstore\n      swap2\n      0x20\n      add\n      swap2\n      jump(tag_219)\n    tag_220:\n      dup3\n      add\n      swap2\n      swap1\n      0x00\n      mstore\n      keccak256(0x00, 0x20)\n      swap1\n    tag_221:\n      dup2\n      sload\n      dup2\n      mstore\n      swap1\n      0x01\n      add\n      swap1\n      0x20\n      add\n      dup1\n      dup4\n      gt\n      tag_221\n      jumpi\n      dup3\n      swap1\n      sub\n      0x1f\n      and\n      dup3\n      add\n      swap2\n    tag_219:\n      pop\n      pop\n      pop\n      pop\n      pop\n      swap1\n      pop\n        /* \"LegitDAO.sol\":6935:6953  uint256 identifier */\n      0x00\n        /* \"LegitDAO.sol\":6956:6983  pendingApprovalDependencies */\n      0x05\n        /* \"LegitDAO.sol\":6984:6991  keyname */\n      dup3\n        /* \"LegitDAO.sol\":6956:6992  pendingApprovalDependencies[keyname] */\n      mload(0x40)\n      tag_222\n      swap2\n      swap1\n      tag_122\n      jump\t// in\n    tag_222:\n      swap1\n      dup2\n      mstore\n      mload(0x40)\n      swap1\n      dup2\n      swap1\n      sub\n      0x20\n      add\n      dup2\n      keccak256\n      sload\n        /* \"LegitDAO.sol\":7066:7085  dependencyRequester */\n      sload(0x02)\n      shl(0xe0, 0x4f6e1b27)\n        /* \"LegitDAO.sol\":7066:7123  dependencyRequester.isRequestAdditionPositive(identifier) */\n      dup4\n      mstore\n        /* \"LegitDAO.sol\":6956:6992  pendingApprovalDependencies[keyname] */\n      swap1\n      swap3\n      pop\n        /* \"LegitDAO.sol\":7012:7024  address addr */\n      0x00\n      swap2\n      dup3\n      swap2\n      dup3\n      swap2\n      sub(shl(0xa0, 0x01), 0x01)\n        /* \"LegitDAO.sol\":7066:7085  dependencyRequester */\n      swap1\n      swap2\n      and\n      swap1\n        /* \"LegitDAO.sol\":7066:7111  dependencyRequester.isRequestAdditionPositive */\n      0x4f6e1b27\n      swap1\n        /* \"LegitDAO.sol\":7066:7123  dependencyRequester.isRequestAdditionPositive(identifier) */\n      tag_223\n      swap1\n        /* \"LegitDAO.sol\":6956:6992  pendingApprovalDependencies[keyname] */\n      dup8\n      swap1\n        /* \"LegitDAO.sol\":7066:7123  dependencyRequester.isRequestAdditionPositive(identifier) */\n      0x04\n      add\n        /* \"#utility.yul\":2027:2052   */\n      swap1\n      dup2\n      mstore\n        /* \"#utility.yul\":2015:2017   */\n      0x20\n        /* \"#utility.yul\":2000:2018   */\n      add\n      swap1\n        /* \"#utility.yul\":1881:2058   */\n      jump\n        /* \"LegitDAO.sol\":7066:7123  dependencyRequester.isRequestAdditionPositive(identifier) */\n    tag_223:\n      0x60\n      mload(0x40)\n      dup1\n      dup4\n      sub\n      dup2\n      dup7\n      gas\n      staticcall\n      iszero\n      dup1\n      iszero\n      tag_225\n      jumpi\n      returndatasize\n      0x00\n      dup1\n      returndatacopy\n      revert(0x00, returndatasize)\n    tag_225:\n      pop\n      pop\n      pop\n      pop\n      mload(0x40)\n      returndatasize\n      not(0x1f)\n      0x1f\n      dup3\n      add\n      and\n      dup3\n      add\n      dup1\n      0x40\n      mstore\n      pop\n      dup2\n      add\n      swap1\n      tag_226\n      swap2\n      swap1\n      tag_145\n      jump\t// in\n    tag_226:\n        /* \"LegitDAO.sol\":7011:7123  (address addr, bool isVoteFinished, bool isApproved) = dependencyRequester.isRequestAdditionPositive(identifier) */\n      swap3\n      pop\n      swap3\n      pop\n      swap3\n      pop\n        /* \"LegitDAO.sol\":7146:7160  isVoteFinished */\n      dup2\n        /* \"LegitDAO.sol\":7141:7211  if (!isVoteFinished) {... */\n      tag_228\n      jumpi\n        /* \"LegitDAO.sol\":7184:7192  continue */\n      pop\n      pop\n      pop\n      pop\n      pop\n      pop\n      jump(tag_212)\n        /* \"LegitDAO.sol\":7141:7211  if (!isVoteFinished) {... */\n    tag_228:\n        /* \"LegitDAO.sol\":7233:7243  isApproved */\n      dup1\n        /* \"LegitDAO.sol\":7229:7439  if (isApproved) {... */\n      iszero\n      tag_229\n      jumpi\n        /* \"LegitDAO.sol\":7299:7303  addr */\n      dup3\n        /* \"LegitDAO.sol\":7267:7287  approvedDependencies */\n      0x03\n        /* \"LegitDAO.sol\":7288:7295  keyname */\n      dup7\n        /* \"LegitDAO.sol\":7267:7296  approvedDependencies[keyname] */\n      mload(0x40)\n      tag_230\n      swap2\n      swap1\n      tag_122\n      jump\t// in\n    tag_230:\n      swap1\n      dup2\n      mstore\n      mload(0x40)\n      swap1\n      dup2\n      swap1\n      sub\n      0x20\n      add\n      swap1\n      keccak256\n        /* \"LegitDAO.sol\":7267:7303  approvedDependencies[keyname] = addr */\n      dup1\n      sload\n      sub(shl(0xa0, 0x01), 0x01)\n      swap3\n      swap1\n      swap3\n      and\n      not(sub(shl(0xa0, 0x01), 0x01))\n      swap1\n      swap3\n      and\n      swap2\n      swap1\n      swap2\n      or\n      swap1\n      sstore\n        /* \"LegitDAO.sol\":7325:7349  approvedDependenciesKeys */\n      0x04\n        /* \"LegitDAO.sol\":7325:7363  approvedDependenciesKeys.push(keyname) */\n      dup1\n      sload\n        /* \"LegitDAO.sol\":7267:7303  approvedDependencies[keyname] = addr */\n      0x01\n        /* \"LegitDAO.sol\":7325:7363  approvedDependenciesKeys.push(keyname) */\n      dup2\n      add\n      dup3\n      sstore\n        /* \"LegitDAO.sol\":7267:7296  approvedDependencies[keyname] */\n      0x00\n        /* \"LegitDAO.sol\":7325:7363  approvedDependenciesKeys.push(keyname) */\n      swap2\n      swap1\n      swap2\n      mstore\n      0x8a35acfbc15ff81a39ae7d344fd709f28e8600b4aa8c65c6b64bfe7fe36bd19b\n      add\n      tag_232\n        /* \"LegitDAO.sol\":7355:7362  keyname */\n      dup7\n        /* \"LegitDAO.sol\":7325:7363  approvedDependenciesKeys.push(keyname) */\n      dup3\n      tag_233\n      jump\t// in\n    tag_232:\n      pop\n        /* \"LegitDAO.sol\":7415:7419  addr */\n      dup3\n      sub(shl(0xa0, 0x01), 0x01)\n        /* \"LegitDAO.sol\":7390:7420  DependencyAdded(keyname, addr) */\n      and\n      0x8281f4653ea8e6ba47f1ebeeb1c7e17291003d7e8247666d4d1c46124920bfe6\n        /* \"LegitDAO.sol\":7406:7413  keyname */\n      dup7\n        /* \"LegitDAO.sol\":7390:7420  DependencyAdded(keyname, addr) */\n      mload(0x40)\n      tag_234\n      swap2\n      swap1\n      tag_55\n      jump\t// in\n    tag_234:\n      mload(0x40)\n      dup1\n      swap2\n      sub\n      swap1\n      log2\n        /* \"LegitDAO.sol\":7229:7439  if (isApproved) {... */\n    tag_229:\n        /* \"LegitDAO.sol\":7462:7472  isApproved */\n      dup1\n        /* \"LegitDAO.sol\":7457:7559  if (!isApproved) {... */\n      tag_235\n      jumpi\n        /* \"LegitDAO.sol\":7535:7539  addr */\n      dup3\n      sub(shl(0xa0, 0x01), 0x01)\n        /* \"LegitDAO.sol\":7501:7540  DependencyAdditionFailed(keyname, addr) */\n      and\n      0xc4425eba3fdc6aaf1c08b8892b7b7b5fdca047f984a94148a7c547e0faac2bd3\n        /* \"LegitDAO.sol\":7526:7533  keyname */\n      dup7\n        /* \"LegitDAO.sol\":7501:7540  DependencyAdditionFailed(keyname, addr) */\n      mload(0x40)\n      tag_236\n      swap2\n      swap1\n      tag_55\n      jump\t// in\n    tag_236:\n      mload(0x40)\n      dup1\n      swap2\n      sub\n      swap1\n      log2\n        /* \"LegitDAO.sol\":7457:7559  if (!isApproved) {... */\n    tag_235:\n        /* \"LegitDAO.sol\":7584:7611  pendingApprovalDependencies */\n      0x05\n        /* \"LegitDAO.sol\":7612:7619  keyname */\n      dup6\n        /* \"LegitDAO.sol\":7584:7620  pendingApprovalDependencies[keyname] */\n      mload(0x40)\n      tag_237\n      swap2\n      swap1\n      tag_122\n      jump\t// in\n    tag_237:\n      swap1\n      dup2\n      mstore\n      mload(0x40)\n      swap1\n      dup2\n      swap1\n      sub\n      0x20\n      add\n      swap1\n      keccak256\n        /* \"LegitDAO.sol\":7577:7620  delete pendingApprovalDependencies[keyname] */\n      0x00\n      swap1\n      sstore\n        /* \"LegitDAO.sol\":7679:7710  pendingApprovalDependenciesKeys */\n      0x06\n        /* \"LegitDAO.sol\":7711:7749  pendingApprovalDependenciesKeys.length */\n      dup1\n      sload\n        /* \"LegitDAO.sol\":7711:7753  pendingApprovalDependenciesKeys.length - 1 */\n      tag_238\n      swap1\n        /* \"LegitDAO.sol\":7752:7753  1 */\n      0x01\n      swap1\n        /* \"LegitDAO.sol\":7711:7753  pendingApprovalDependenciesKeys.length - 1 */\n      tag_156\n      jump\t// in\n    tag_238:\n        /* \"LegitDAO.sol\":7679:7754  pendingApprovalDependenciesKeys[pendingApprovalDependenciesKeys.length - 1] */\n      dup2\n      sload\n      dup2\n      lt\n      tag_240\n      jumpi\n      tag_240\n      tag_159\n      jump\t// in\n    tag_240:\n      swap1\n      0x00\n      mstore\n      keccak256(0x00, 0x20)\n      add\n        /* \"LegitDAO.sol\":7638:7669  pendingApprovalDependenciesKeys */\n      0x06\n        /* \"LegitDAO.sol\":7670:7675  index */\n      dup8\n        /* \"LegitDAO.sol\":7638:7676  pendingApprovalDependenciesKeys[index] */\n      dup2\n      sload\n      dup2\n      lt\n      tag_243\n      jumpi\n      tag_243\n      tag_159\n      jump\t// in\n    tag_243:\n      swap1\n      0x00\n      mstore\n      keccak256(0x00, 0x20)\n      add\n        /* \"LegitDAO.sol\":7638:7754  pendingApprovalDependenciesKeys[index] = pendingApprovalDependenciesKeys[pendingApprovalDependenciesKeys.length - 1] */\n      swap1\n      dup2\n      tag_245\n      swap2\n      swap1\n      tag_184\n      jump\t// in\n    tag_245:\n      pop\n        /* \"LegitDAO.sol\":7772:7803  pendingApprovalDependenciesKeys */\n      0x06\n        /* \"LegitDAO.sol\":7772:7809  pendingApprovalDependenciesKeys.pop() */\n      dup1\n      sload\n      dup1\n      tag_247\n      jumpi\n      tag_247\n      tag_187\n      jump\t// in\n    tag_247:\n      0x01\n      swap1\n      sub\n      dup2\n      dup2\n      swap1\n      0x00\n      mstore\n      keccak256(0x00, 0x20)\n      add\n      0x00\n      tag_249\n      swap2\n      swap1\n      tag_190\n      jump\t// in\n    tag_249:\n      swap1\n      sstore\n        /* \"LegitDAO.sol\":6798:7824  {... */\n      pop\n      pop\n      pop\n      pop\n      pop\n      pop\n        /* \"LegitDAO.sol\":6729:7824  for (uint256 i = pendingApprovalDependenciesKeys.length; i > 0; i--) {... */\n    tag_212:\n        /* \"LegitDAO.sol\":6793:6796  i-- */\n      dup1\n      tag_250\n      dup2\n      tag_208\n      jump\t// in\n    tag_250:\n      swap2\n      pop\n      pop\n        /* \"LegitDAO.sol\":6729:7824  for (uint256 i = pendingApprovalDependenciesKeys.length; i > 0; i--) {... */\n      jump(tag_210)\n    tag_211:\n      pop\n        /* \"LegitDAO.sol\":6667:7834  if (pendingApprovalDependenciesKeys.length > 0) {... */\n    tag_209:\n        /* \"@openzeppelin/contracts/utils/ReentrancyGuard.sol\":2542:2562  _nonReentrantAfter() */\n      tag_251\n        /* \"@openzeppelin/contracts/utils/ReentrancyGuard.sol\":1857:1858  1 */\n      0x01\n        /* \"@openzeppelin/contracts/utils/ReentrancyGuard.sol\":3068:3075  _status */\n      0x00\n        /* \"@openzeppelin/contracts/utils/ReentrancyGuard.sol\":3068:3089  _status = NOT_ENTERED */\n      sstore\n        /* \"@openzeppelin/contracts/utils/ReentrancyGuard.sol\":2888:3096  function _nonReentrantAfter() private {... */\n      jump\n        /* \"@openzeppelin/contracts/utils/ReentrancyGuard.sol\":2542:2562  _nonReentrantAfter() */\n    tag_251:\n        /* \"LegitDAO.sol\":4352:7840  function updateDependencies() external override nonReentrant {... */\n      jump\t// out\n        /* \"LegitDAO.sol\":663:710  string[] public pendingApprovalDependenciesKeys */\n    tag_60:\n      0x06\n      dup2\n      dup2\n      sload\n      dup2\n      lt\n      tag_127\n      jumpi\n      0x00\n      dup1\n      revert\n        /* \"LegitDAO.sol\":2163:2885  function requestDependencyAddition(string memory dependencyKey, address contractAddress) external override nonReentrant {... */\n    tag_65:\n        /* \"@openzeppelin/contracts/utils/ReentrancyGuard.sol\":2500:2521  _nonReentrantBefore() */\n      tag_260\n        /* \"@openzeppelin/contracts/utils/ReentrancyGuard.sol\":2500:2519  _nonReentrantBefore */\n      tag_98\n        /* \"@openzeppelin/contracts/utils/ReentrancyGuard.sol\":2500:2521  _nonReentrantBefore() */\n      jump\t// in\n    tag_260:\n        /* \"LegitDAO.sol\":2309:2328  dependencyRequester */\n      and(sub(shl(0xa0, 0x01), 0x01), sload(0x02))\n        /* \"LegitDAO.sol\":2293:2383  require(address(dependencyRequester) != address(0), \"the dependency requester is not set\") */\n      tag_262\n      jumpi\n      mload(0x40)\n      shl(0xe5, 0x461bcd)\n      dup2\n      mstore\n      0x04\n      add\n      tag_101\n      swap1\n      tag_113\n      jump\t// in\n    tag_262:\n      sub(shl(0xa0, 0x01), 0x01)\n        /* \"LegitDAO.sol\":2401:2439  address(contractAddress) != address(0) */\n      dup2\n      and\n        /* \"LegitDAO.sol\":2393:2475  require(address(contractAddress) != address(0), \"the contract address is not set\") */\n      tag_264\n      jumpi\n      mload(0x40)\n      shl(0xe5, 0x461bcd)\n      dup2\n      mstore\n        /* \"#utility.yul\":14015:14017   */\n      0x20\n        /* \"LegitDAO.sol\":2393:2475  require(address(contractAddress) != address(0), \"the contract address is not set\") */\n      0x04\n      dup3\n      add\n        /* \"#utility.yul\":13997:14018   */\n      mstore\n        /* \"#utility.yul\":14054:14056   */\n      0x1f\n        /* \"#utility.yul\":14034:14052   */\n      0x24\n      dup3\n      add\n        /* \"#utility.yul\":14027:14057   */\n      mstore\n        /* \"#utility.yul\":14093:14126   */\n      0x74686520636f6e74726163742061646472657373206973206e6f742073657400\n        /* \"#utility.yul\":14073:14091   */\n      0x44\n      dup3\n      add\n        /* \"#utility.yul\":14066:14127   */\n      mstore\n        /* \"#utility.yul\":14144:14162   */\n      0x64\n      add\n        /* \"LegitDAO.sol\":2393:2475  require(address(contractAddress) != address(0), \"the contract address is not set\") */\n      tag_101\n        /* \"#utility.yul\":13813:14168   */\n      jump\n        /* \"LegitDAO.sol\":2393:2475  require(address(contractAddress) != address(0), \"the contract address is not set\") */\n    tag_264:\n        /* \"LegitDAO.sol\":2506:2525  dependencyRequester */\n      sload(0x02)\n        /* \"LegitDAO.sol\":2506:2573  dependencyRequester.requestAddition(dependencyKey, contractAddress) */\n      mload(0x40)\n      shl(0xe1, 0x0eacd1d5)\n      dup2\n      mstore\n        /* \"LegitDAO.sol\":2485:2503  uint256 identifier */\n      0x00\n      swap2\n      sub(shl(0xa0, 0x01), 0x01)\n        /* \"LegitDAO.sol\":2506:2525  dependencyRequester */\n      and\n      swap1\n        /* \"LegitDAO.sol\":2506:2541  dependencyRequester.requestAddition */\n      0x1d59a3aa\n      swap1\n        /* \"LegitDAO.sol\":2506:2573  dependencyRequester.requestAddition(dependencyKey, contractAddress) */\n      tag_267\n      swap1\n        /* \"LegitDAO.sol\":2542:2555  dependencyKey */\n      dup7\n      swap1\n        /* \"LegitDAO.sol\":2557:2572  contractAddress */\n      dup7\n      swap1\n        /* \"LegitDAO.sol\":2506:2573  dependencyRequester.requestAddition(dependencyKey, contractAddress) */\n      0x04\n      add\n      tag_268\n      jump\t// in\n    tag_267:\n      0x20\n      mload(0x40)\n      dup1\n      dup4\n      sub\n      dup2\n      0x00\n      dup8\n      gas\n      call\n      iszero\n      dup1\n      iszero\n      tag_270\n      jumpi\n      returndatasize\n      0x00\n      dup1\n      returndatacopy\n      revert(0x00, returndatasize)\n    tag_270:\n      pop\n      pop\n      pop\n      pop\n      mload(0x40)\n      returndatasize\n      not(0x1f)\n      0x1f\n      dup3\n      add\n      and\n      dup3\n      add\n      dup1\n      0x40\n      mstore\n      pop\n      dup2\n      add\n      swap1\n      tag_271\n      swap2\n      swap1\n      tag_118\n      jump\t// in\n    tag_271:\n        /* \"LegitDAO.sol\":2485:2573  uint256 identifier = dependencyRequester.requestAddition(dependencyKey, contractAddress) */\n      swap1\n      pop\n        /* \"LegitDAO.sol\":2592:2619  pendingApprovalDependencies */\n      0x05\n        /* \"LegitDAO.sol\":2620:2633  dependencyKey */\n      dup4\n        /* \"LegitDAO.sol\":2592:2634  pendingApprovalDependencies[dependencyKey] */\n      mload(0x40)\n      tag_272\n      swap2\n      swap1\n      tag_122\n      jump\t// in\n    tag_272:\n      swap1\n      dup2\n      mstore\n      0x20\n      add\n      mload(0x40)\n      dup1\n      swap2\n      sub\n      swap1\n      keccak256\n      sload\n        /* \"LegitDAO.sol\":2638:2639  0 */\n      0x00\n        /* \"LegitDAO.sol\":2592:2639  pendingApprovalDependencies[dependencyKey] == 0 */\n      eq\n        /* \"LegitDAO.sol\":2584:2676  require(pendingApprovalDependencies[dependencyKey] == 0, \"the dependency already requested\") */\n      tag_273\n      jumpi\n      mload(0x40)\n      shl(0xe5, 0x461bcd)\n      dup2\n      mstore\n        /* \"#utility.yul\":14708:14710   */\n      0x20\n        /* \"LegitDAO.sol\":2584:2676  require(pendingApprovalDependencies[dependencyKey] == 0, \"the dependency already requested\") */\n      0x04\n      dup3\n      add\n        /* \"#utility.yul\":14690:14711   */\n      dup2\n      swap1\n      mstore\n        /* \"#utility.yul\":14727:14745   */\n      0x24\n      dup3\n      add\n        /* \"#utility.yul\":14720:14750   */\n      mstore\n        /* \"#utility.yul\":14786:14820   */\n      0x74686520646570656e64656e637920616c726561647920726571756573746564\n        /* \"#utility.yul\":14766:14784   */\n      0x44\n      dup3\n      add\n        /* \"#utility.yul\":14759:14821   */\n      mstore\n        /* \"#utility.yul\":14838:14856   */\n      0x64\n      add\n        /* \"LegitDAO.sol\":2584:2676  require(pendingApprovalDependencies[dependencyKey] == 0, \"the dependency already requested\") */\n      tag_101\n        /* \"#utility.yul\":14506:14862   */\n      jump\n        /* \"LegitDAO.sol\":2584:2676  require(pendingApprovalDependencies[dependencyKey] == 0, \"the dependency already requested\") */\n    tag_273:\n        /* \"LegitDAO.sol\":2732:2742  identifier */\n      dup1\n        /* \"LegitDAO.sol\":2687:2714  pendingApprovalDependencies */\n      0x05\n        /* \"LegitDAO.sol\":2715:2728  dependencyKey */\n      dup5\n        /* \"LegitDAO.sol\":2687:2729  pendingApprovalDependencies[dependencyKey] */\n      mload(0x40)\n      tag_276\n      swap2\n      swap1\n      tag_122\n      jump\t// in\n    tag_276:\n      swap1\n      dup2\n      mstore\n      mload(0x40)\n      swap1\n      dup2\n      swap1\n      sub\n      0x20\n      add\n      swap1\n      keccak256\n        /* \"LegitDAO.sol\":2687:2742  pendingApprovalDependencies[dependencyKey] = identifier */\n      sstore\n        /* \"LegitDAO.sol\":2752:2783  pendingApprovalDependenciesKeys */\n      0x06\n        /* \"LegitDAO.sol\":2752:2803  pendingApprovalDependenciesKeys.push(dependencyKey) */\n      dup1\n      sload\n      0x01\n      dup2\n      add\n      dup3\n      sstore\n      0x00\n      swap2\n      swap1\n      swap2\n      mstore\n      0xf652222313e28459528d920b65115c16c04f3efc82aaedc97be59f3f377c0d3f\n      add\n      tag_278\n        /* \"LegitDAO.sol\":2789:2802  dependencyKey */\n      dup5\n        /* \"LegitDAO.sol\":2752:2803  pendingApprovalDependenciesKeys.push(dependencyKey) */\n      dup3\n      tag_233\n      jump\t// in\n    tag_278:\n      pop\n        /* \"LegitDAO.sol\":2862:2877  contractAddress */\n      dup2\n      sub(shl(0xa0, 0x01), 0x01)\n        /* \"LegitDAO.sol\":2819:2878  DependencyAdditionRequested(dependencyKey, contractAddress) */\n      and\n      0x7a561791a5e256aac8e189115ca0e37a81457d0fc3faceceb7d1c4907dd55a3a\n        /* \"LegitDAO.sol\":2847:2860  dependencyKey */\n      dup5\n        /* \"LegitDAO.sol\":2819:2878  DependencyAdditionRequested(dependencyKey, contractAddress) */\n      mload(0x40)\n      tag_279\n      swap2\n      swap1\n      tag_55\n      jump\t// in\n    tag_279:\n      mload(0x40)\n      dup1\n      swap2\n      sub\n      swap1\n      log2\n        /* \"LegitDAO.sol\":2283:2885  {... */\n      pop\n        /* \"@openzeppelin/contracts/utils/ReentrancyGuard.sol\":2542:2562  _nonReentrantAfter() */\n      tag_280\n        /* \"@openzeppelin/contracts/utils/ReentrancyGuard.sol\":1857:1858  1 */\n      0x01\n        /* \"@openzeppelin/contracts/utils/ReentrancyGuard.sol\":3068:3075  _status */\n      0x00\n        /* \"@openzeppelin/contracts/utils/ReentrancyGuard.sol\":3068:3089  _status = NOT_ENTERED */\n      sstore\n        /* \"@openzeppelin/contracts/utils/ReentrancyGuard.sol\":2888:3096  function _nonReentrantAfter() private {... */\n      jump\n        /* \"@openzeppelin/contracts/utils/ReentrancyGuard.sol\":2542:2562  _nonReentrantAfter() */\n    tag_280:\n        /* \"LegitDAO.sol\":2163:2885  function requestDependencyAddition(string memory dependencyKey, address contractAddress) external override nonReentrant {... */\n      pop\n      pop\n      jump\t// out\n        /* \"LegitDAO.sol\":7919:8283  function callFunction(string memory dependencyKey, string memory functionSignature, bytes memory data) external override nonReentrant returns (bytes memory) {... */\n    tag_73:\n        /* \"LegitDAO.sol\":8062:8074  bytes memory */\n      0x60\n        /* \"@openzeppelin/contracts/utils/ReentrancyGuard.sol\":2500:2521  _nonReentrantBefore() */\n      tag_282\n        /* \"@openzeppelin/contracts/utils/ReentrancyGuard.sol\":2500:2519  _nonReentrantBefore */\n      tag_98\n        /* \"@openzeppelin/contracts/utils/ReentrancyGuard.sol\":2500:2521  _nonReentrantBefore() */\n      jump\t// in\n    tag_282:\n        /* \"LegitDAO.sol\":8086:8111  address dependencyAddress */\n      0x00\n        /* \"LegitDAO.sol\":8114:8140  _getAddress(dependencyKey) */\n      tag_284\n        /* \"LegitDAO.sol\":8126:8139  dependencyKey */\n      dup6\n        /* \"LegitDAO.sol\":8114:8125  _getAddress */\n      tag_285\n        /* \"LegitDAO.sol\":8114:8140  _getAddress(dependencyKey) */\n      jump\t// in\n    tag_284:\n        /* \"LegitDAO.sol\":8649:8684  keccak256(bytes(functionSignature)) */\n      dup5\n      mload\n      0x20\n      dup7\n      add\n      keccak256\n        /* \"LegitDAO.sol\":8086:8140  address dependencyAddress = _getAddress(dependencyKey) */\n      swap1\n      swap2\n      pop\n        /* \"LegitDAO.sol\":8216:8276  _callFunctionOnDependency(dependencyAddress, selector, data) */\n      tag_288\n        /* \"LegitDAO.sol\":8242:8259  dependencyAddress */\n      dup3\n        /* \"LegitDAO.sol\":8261:8269  selector */\n      dup3\n        /* \"LegitDAO.sol\":8271:8275  data */\n      dup7\n        /* \"LegitDAO.sol\":8216:8241  _callFunctionOnDependency */\n      tag_289\n        /* \"LegitDAO.sol\":8216:8276  _callFunctionOnDependency(dependencyAddress, selector, data) */\n      jump\t// in\n    tag_288:\n        /* \"LegitDAO.sol\":8209:8276  return _callFunctionOnDependency(dependencyAddress, selector, data) */\n      swap3\n      pop\n      pop\n      pop\n        /* \"@openzeppelin/contracts/utils/ReentrancyGuard.sol\":2542:2562  _nonReentrantAfter() */\n      tag_290\n        /* \"@openzeppelin/contracts/utils/ReentrancyGuard.sol\":1857:1858  1 */\n      0x01\n        /* \"@openzeppelin/contracts/utils/ReentrancyGuard.sol\":3068:3075  _status */\n      0x00\n        /* \"@openzeppelin/contracts/utils/ReentrancyGuard.sol\":3068:3089  _status = NOT_ENTERED */\n      sstore\n        /* \"@openzeppelin/contracts/utils/ReentrancyGuard.sol\":2888:3096  function _nonReentrantAfter() private {... */\n      jump\n        /* \"@openzeppelin/contracts/utils/ReentrancyGuard.sol\":2542:2562  _nonReentrantAfter() */\n    tag_290:\n        /* \"LegitDAO.sol\":7919:8283  function callFunction(string memory dependencyKey, string memory functionSignature, bytes memory data) external override nonReentrant returns (bytes memory) {... */\n      swap4\n      swap3\n      pop\n      pop\n      pop\n      jump\t// out\n        /* \"LegitDAO.sol\":1303:1450  function getPendingAprovalDependencyKeys() external view override returns (string[] memory) {... */\n    tag_80:\n        /* \"LegitDAO.sol\":1378:1393  string[] memory */\n      0x60\n        /* \"LegitDAO.sol\":1412:1443  pendingApprovalDependenciesKeys */\n      0x06\n        /* \"LegitDAO.sol\":1405:1443  return pendingApprovalDependenciesKeys */\n      dup1\n      sload\n      dup1\n      0x20\n      mul\n      0x20\n      add\n      mload(0x40)\n      swap1\n      dup2\n      add\n      0x40\n      mstore\n      dup1\n      swap3\n      swap2\n      swap1\n      dup2\n      dup2\n      mstore\n      0x20\n      add\n      0x00\n      swap1\n    tag_292:\n      dup3\n      dup3\n      lt\n      iszero\n      tag_293\n      jumpi\n      dup4\n      dup3\n      swap1\n      0x00\n      mstore\n      keccak256(0x00, 0x20)\n      add\n      dup1\n      sload\n      tag_295\n      swap1\n      tag_130\n      jump\t// in\n    tag_295:\n      dup1\n      0x1f\n      add\n      0x20\n      dup1\n      swap2\n      div\n      mul\n      0x20\n      add\n      mload(0x40)\n      swap1\n      dup2\n      add\n      0x40\n      mstore\n      dup1\n      swap3\n      swap2\n      swap1\n      dup2\n      dup2\n      mstore\n      0x20\n      add\n      dup3\n      dup1\n      sload\n      tag_296\n      swap1\n      tag_130\n      jump\t// in\n    tag_296:\n      dup1\n      iszero\n      tag_297\n      jumpi\n      dup1\n      0x1f\n      lt\n      tag_298\n      jumpi\n      0x0100\n      dup1\n      dup4\n      sload\n      div\n      mul\n      dup4\n      mstore\n      swap2\n      0x20\n      add\n      swap2\n      jump(tag_297)\n    tag_298:\n      dup3\n      add\n      swap2\n      swap1\n      0x00\n      mstore\n      keccak256(0x00, 0x20)\n      swap1\n    tag_299:\n      dup2\n      sload\n      dup2\n      mstore\n      swap1\n      0x01\n      add\n      swap1\n      0x20\n      add\n      dup1\n      dup4\n      gt\n      tag_299\n      jumpi\n      dup3\n      swap1\n      sub\n      0x1f\n      and\n      dup3\n      add\n      swap2\n    tag_297:\n      pop\n      pop\n      pop\n      pop\n      pop\n      dup2\n      mstore\n      0x20\n      add\n      swap1\n      0x01\n      add\n      swap1\n      jump(tag_292)\n    tag_293:\n      pop\n      pop\n      pop\n      pop\n      swap1\n      pop\n        /* \"LegitDAO.sol\":1303:1450  function getPendingAprovalDependencyKeys() external view override returns (string[] memory) {... */\n      swap1\n      jump\t// out\n        /* \"LegitDAO.sol\":1106:1232  function getDependencyKeys() external view override returns (string[] memory) {... */\n    tag_87:\n        /* \"LegitDAO.sol\":1167:1182  string[] memory */\n      0x60\n        /* \"LegitDAO.sol\":1201:1225  approvedDependenciesKeys */\n      0x04\n        /* \"LegitDAO.sol\":1194:1225  return approvedDependenciesKeys */\n      dup1\n      sload\n      dup1\n      0x20\n      mul\n      0x20\n      add\n      mload(0x40)\n      swap1\n      dup2\n      add\n      0x40\n      mstore\n      dup1\n      swap3\n      swap2\n      swap1\n      dup2\n      dup2\n      mstore\n      0x20\n      add\n      0x00\n      swap1\n    tag_301:\n      dup3\n      dup3\n      lt\n      iszero\n      tag_293\n      jumpi\n      dup4\n      dup3\n      swap1\n      0x00\n      mstore\n      keccak256(0x00, 0x20)\n      add\n      dup1\n      sload\n      tag_304\n      swap1\n      tag_130\n      jump\t// in\n    tag_304:\n      dup1\n      0x1f\n      add\n      0x20\n      dup1\n      swap2\n      div\n      mul\n      0x20\n      add\n      mload(0x40)\n      swap1\n      dup2\n      add\n      0x40\n      mstore\n      dup1\n      swap3\n      swap2\n      swap1\n      dup2\n      dup2\n      mstore\n      0x20\n      add\n      dup3\n      dup1\n      sload\n      tag_305\n      swap1\n      tag_130\n      jump\t// in\n    tag_305:\n      dup1\n      iszero\n      tag_306\n      jumpi\n      dup1\n      0x1f\n      lt\n      tag_307\n      jumpi\n      0x0100\n      dup1\n      dup4\n      sload\n      div\n      mul\n      dup4\n      mstore\n      swap2\n      0x20\n      add\n      swap2\n      jump(tag_306)\n    tag_307:\n      dup3\n      add\n      swap2\n      swap1\n      0x00\n      mstore\n      keccak256(0x00, 0x20)\n      swap1\n    tag_308:\n      dup2\n      sload\n      dup2\n      mstore\n      swap1\n      0x01\n      add\n      swap1\n      0x20\n      add\n      dup1\n      dup4\n      gt\n      tag_308\n      jumpi\n      dup3\n      swap1\n      sub\n      0x1f\n      and\n      dup3\n      add\n      swap2\n    tag_306:\n      pop\n      pop\n      pop\n      pop\n      pop\n      dup2\n      mstore\n      0x20\n      add\n      swap1\n      0x01\n      add\n      swap1\n      jump(tag_301)\n        /* \"LegitDAO.sol\":511:551  string[] public approvedDependenciesKeys */\n    tag_91:\n      0x04\n      dup2\n      dup2\n      sload\n      dup2\n      lt\n      tag_127\n      jumpi\n      0x00\n      dup1\n      revert\n        /* \"LegitDAO.sol\":2939:3667  function requestDependencyRemoval(string memory dependencyKey, address contractAddress) external override nonReentrant {... */\n    tag_95:\n        /* \"@openzeppelin/contracts/utils/ReentrancyGuard.sol\":2500:2521  _nonReentrantBefore() */\n      tag_317\n        /* \"@openzeppelin/contracts/utils/ReentrancyGuard.sol\":2500:2519  _nonReentrantBefore */\n      tag_98\n        /* \"@openzeppelin/contracts/utils/ReentrancyGuard.sol\":2500:2521  _nonReentrantBefore() */\n      jump\t// in\n    tag_317:\n        /* \"LegitDAO.sol\":3084:3103  dependencyRequester */\n      and(sub(shl(0xa0, 0x01), 0x01), sload(0x02))\n        /* \"LegitDAO.sol\":3068:3158  require(address(dependencyRequester) != address(0), \"the dependency requester is not set\") */\n      tag_319\n      jumpi\n      mload(0x40)\n      shl(0xe5, 0x461bcd)\n      dup2\n      mstore\n      0x04\n      add\n      tag_101\n      swap1\n      tag_113\n      jump\t// in\n    tag_319:\n      sub(shl(0xa0, 0x01), 0x01)\n        /* \"LegitDAO.sol\":3176:3214  address(contractAddress) != address(0) */\n      dup2\n      and\n        /* \"LegitDAO.sol\":3168:3250  require(address(contractAddress) != address(0), \"the contract address is not set\") */\n      tag_321\n      jumpi\n      mload(0x40)\n      shl(0xe5, 0x461bcd)\n      dup2\n      mstore\n        /* \"#utility.yul\":14015:14017   */\n      0x20\n        /* \"LegitDAO.sol\":3168:3250  require(address(contractAddress) != address(0), \"the contract address is not set\") */\n      0x04\n      dup3\n      add\n        /* \"#utility.yul\":13997:14018   */\n      mstore\n        /* \"#utility.yul\":14054:14056   */\n      0x1f\n        /* \"#utility.yul\":14034:14052   */\n      0x24\n      dup3\n      add\n        /* \"#utility.yul\":14027:14057   */\n      mstore\n        /* \"#utility.yul\":14093:14126   */\n      0x74686520636f6e74726163742061646472657373206973206e6f742073657400\n        /* \"#utility.yul\":14073:14091   */\n      0x44\n      dup3\n      add\n        /* \"#utility.yul\":14066:14127   */\n      mstore\n        /* \"#utility.yul\":14144:14162   */\n      0x64\n      add\n        /* \"LegitDAO.sol\":3168:3250  require(address(contractAddress) != address(0), \"the contract address is not set\") */\n      tag_101\n        /* \"#utility.yul\":13813:14168   */\n      jump\n        /* \"LegitDAO.sol\":3168:3250  require(address(contractAddress) != address(0), \"the contract address is not set\") */\n    tag_321:\n        /* \"LegitDAO.sol\":3281:3300  dependencyRequester */\n      sload(0x02)\n        /* \"LegitDAO.sol\":3281:3347  dependencyRequester.requestRemoval(dependencyKey, contractAddress) */\n      mload(0x40)\n      shl(0xe0, 0x07ec4043)\n      dup2\n      mstore\n        /* \"LegitDAO.sol\":3260:3278  uint256 identifier */\n      0x00\n      swap2\n      sub(shl(0xa0, 0x01), 0x01)\n        /* \"LegitDAO.sol\":3281:3300  dependencyRequester */\n      and\n      swap1\n        /* \"LegitDAO.sol\":3281:3315  dependencyRequester.requestRemoval */\n      0x07ec4043\n      swap1\n        /* \"LegitDAO.sol\":3281:3347  dependencyRequester.requestRemoval(dependencyKey, contractAddress) */\n      tag_323\n      swap1\n        /* \"LegitDAO.sol\":3316:3329  dependencyKey */\n      dup7\n      swap1\n        /* \"LegitDAO.sol\":3331:3346  contractAddress */\n      dup7\n      swap1\n        /* \"LegitDAO.sol\":3281:3347  dependencyRequester.requestRemoval(dependencyKey, contractAddress) */\n      0x04\n      add\n      tag_268\n      jump\t// in\n    tag_323:\n      0x20\n      mload(0x40)\n      dup1\n      dup4\n      sub\n      dup2\n      0x00\n      dup8\n      gas\n      call\n      iszero\n      dup1\n      iszero\n      tag_325\n      jumpi\n      returndatasize\n      0x00\n      dup1\n      returndatacopy\n      revert(0x00, returndatasize)\n    tag_325:\n      pop\n      pop\n      pop\n      pop\n      mload(0x40)\n      returndatasize\n      not(0x1f)\n      0x1f\n      dup3\n      add\n      and\n      dup3\n      add\n      dup1\n      0x40\n      mstore\n      pop\n      dup2\n      add\n      swap1\n      tag_326\n      swap2\n      swap1\n      tag_118\n      jump\t// in\n    tag_326:\n        /* \"LegitDAO.sol\":3260:3347  uint256 identifier = dependencyRequester.requestRemoval(dependencyKey, contractAddress) */\n      swap1\n      pop\n        /* \"LegitDAO.sol\":3366:3392  pendingRemovalDependencies */\n      0x07\n        /* \"LegitDAO.sol\":3393:3406  dependencyKey */\n      dup4\n        /* \"LegitDAO.sol\":3366:3407  pendingRemovalDependencies[dependencyKey] */\n      mload(0x40)\n      tag_327\n      swap2\n      swap1\n      tag_122\n      jump\t// in\n    tag_327:\n      swap1\n      dup2\n      mstore\n      0x20\n      add\n      mload(0x40)\n      dup1\n      swap2\n      sub\n      swap1\n      keccak256\n      sload\n        /* \"LegitDAO.sol\":3411:3412  0 */\n      0x00\n        /* \"LegitDAO.sol\":3366:3412  pendingRemovalDependencies[dependencyKey] == 0 */\n      eq\n        /* \"LegitDAO.sol\":3358:3461  require(pendingRemovalDependencies[dependencyKey] == 0, \"the dependency already requested for removal\") */\n      tag_328\n      jumpi\n      mload(0x40)\n      shl(0xe5, 0x461bcd)\n      dup2\n      mstore\n        /* \"#utility.yul\":15069:15071   */\n      0x20\n        /* \"LegitDAO.sol\":3358:3461  require(pendingRemovalDependencies[dependencyKey] == 0, \"the dependency already requested for removal\") */\n      0x04\n      dup3\n      add\n        /* \"#utility.yul\":15051:15072   */\n      mstore\n        /* \"#utility.yul\":15108:15110   */\n      0x2c\n        /* \"#utility.yul\":15088:15106   */\n      0x24\n      dup3\n      add\n        /* \"#utility.yul\":15081:15111   */\n      mstore\n        /* \"#utility.yul\":15147:15181   */\n      0x74686520646570656e64656e637920616c726561647920726571756573746564\n        /* \"#utility.yul\":15127:15145   */\n      0x44\n      dup3\n      add\n        /* \"#utility.yul\":15120:15182   */\n      mstore\n      shl(0xa2, 0x08199bdc881c995b5bdd985b)\n        /* \"#utility.yul\":15198:15216   */\n      0x64\n      dup3\n      add\n        /* \"#utility.yul\":15191:15233   */\n      mstore\n        /* \"#utility.yul\":15250:15269   */\n      0x84\n      add\n        /* \"LegitDAO.sol\":3358:3461  require(pendingRemovalDependencies[dependencyKey] == 0, \"the dependency already requested for removal\") */\n      tag_101\n        /* \"#utility.yul\":14867:15275   */\n      jump\n        /* \"LegitDAO.sol\":3358:3461  require(pendingRemovalDependencies[dependencyKey] == 0, \"the dependency already requested for removal\") */\n    tag_328:\n        /* \"LegitDAO.sol\":3516:3526  identifier */\n      dup1\n        /* \"LegitDAO.sol\":3472:3498  pendingRemovalDependencies */\n      0x07\n        /* \"LegitDAO.sol\":3499:3512  dependencyKey */\n      dup5\n        /* \"LegitDAO.sol\":3472:3513  pendingRemovalDependencies[dependencyKey] */\n      mload(0x40)\n      tag_331\n      swap2\n      swap1\n      tag_122\n      jump\t// in\n    tag_331:\n      swap1\n      dup2\n      mstore\n      mload(0x40)\n      swap1\n      dup2\n      swap1\n      sub\n      0x20\n      add\n      swap1\n      keccak256\n        /* \"LegitDAO.sol\":3472:3526  pendingRemovalDependencies[dependencyKey] = identifier */\n      sstore\n        /* \"LegitDAO.sol\":3536:3566  pendingRemovalDependenciesKeys */\n      0x08\n        /* \"LegitDAO.sol\":3536:3586  pendingRemovalDependenciesKeys.push(dependencyKey) */\n      dup1\n      sload\n      0x01\n      dup2\n      add\n      dup3\n      sstore\n      0x00\n      swap2\n      swap1\n      swap2\n      mstore\n      0xf3f7a9fe364faab93b216da50a3214154f22a0a2b415b23a84c8169e8b636ee3\n      add\n      tag_333\n        /* \"LegitDAO.sol\":3572:3585  dependencyKey */\n      dup5\n        /* \"LegitDAO.sol\":3536:3586  pendingRemovalDependenciesKeys.push(dependencyKey) */\n      dup3\n      tag_233\n      jump\t// in\n    tag_333:\n      pop\n        /* \"LegitDAO.sol\":3644:3659  contractAddress */\n      dup2\n      sub(shl(0xa0, 0x01), 0x01)\n        /* \"LegitDAO.sol\":3602:3660  DependencyRemovalRequested(dependencyKey, contractAddress) */\n      and\n      0x4591e03d87e58e2eff46633bca8adfb3336f94ced41a61a4e33d3e061fd0e960\n        /* \"LegitDAO.sol\":3629:3642  dependencyKey */\n      dup5\n        /* \"LegitDAO.sol\":3602:3660  DependencyRemovalRequested(dependencyKey, contractAddress) */\n      mload(0x40)\n      tag_279\n      swap2\n      swap1\n      tag_55\n      jump\t// in\n        /* \"@openzeppelin/contracts/utils/ReentrancyGuard.sol\":2575:2882  function _nonReentrantBefore() private {... */\n    tag_98:\n        /* \"@openzeppelin/contracts/utils/ReentrancyGuard.sol\":1899:1900  2 */\n      0x02\n        /* \"@openzeppelin/contracts/utils/ReentrancyGuard.sol\":2702:2709  _status */\n      sload(0x00)\n        /* \"@openzeppelin/contracts/utils/ReentrancyGuard.sol\":2702:2720  _status == ENTERED */\n      sub\n        /* \"@openzeppelin/contracts/utils/ReentrancyGuard.sol\":2698:2784  if (_status == ENTERED) {... */\n      tag_337\n      jumpi\n        /* \"@openzeppelin/contracts/utils/ReentrancyGuard.sol\":2743:2773  ReentrancyGuardReentrantCall() */\n      mload(0x40)\n      shl(0xe0, 0x3ee5aeb5)\n      dup2\n      mstore\n      0x04\n      add\n      mload(0x40)\n      dup1\n      swap2\n      sub\n      swap1\n      revert\n        /* \"@openzeppelin/contracts/utils/ReentrancyGuard.sol\":2698:2784  if (_status == ENTERED) {... */\n    tag_337:\n        /* \"@openzeppelin/contracts/utils/ReentrancyGuard.sol\":1899:1900  2 */\n      0x02\n        /* \"@openzeppelin/contracts/utils/ReentrancyGuard.sol\":2858:2865  _status */\n      0x00\n        /* \"@openzeppelin/contracts/utils/ReentrancyGuard.sol\":2858:2875  _status = ENTERED */\n      sstore\n        /* \"@openzeppelin/contracts/utils/ReentrancyGuard.sol\":2575:2882  function _nonReentrantBefore() private {... */\n      jump\t// out\n        /* \"LegitDAO.sol\":8698:8950  function _getAddress(string memory dependencyKey) private view returns (address) {... */\n    tag_285:\n        /* \"LegitDAO.sol\":8770:8777  address */\n      0x00\n        /* \"LegitDAO.sol\":8844:8845  0 */\n      dup1\n      sub(shl(0xa0, 0x01), 0x01)\n        /* \"LegitDAO.sol\":8797:8846  approvedDependencies[dependencyKey] != address(0) */\n      and\n        /* \"LegitDAO.sol\":8797:8817  approvedDependencies */\n      0x03\n        /* \"LegitDAO.sol\":8818:8831  dependencyKey */\n      dup4\n        /* \"LegitDAO.sol\":8797:8832  approvedDependencies[dependencyKey] */\n      mload(0x40)\n      tag_340\n      swap2\n      swap1\n      tag_122\n      jump\t// in\n    tag_340:\n      swap1\n      dup2\n      mstore\n      mload(0x40)\n      swap1\n      dup2\n      swap1\n      sub\n      0x20\n      add\n      swap1\n      keccak256\n      sload\n      sub(shl(0xa0, 0x01), 0x01)\n      and\n        /* \"LegitDAO.sol\":8797:8846  approvedDependencies[dependencyKey] != address(0) */\n      sub\n        /* \"LegitDAO.sol\":8789:8891  require(approvedDependencies[dependencyKey] != address(0), \"The key does NOT point to any dependency\") */\n      tag_123\n      jumpi\n      mload(0x40)\n      shl(0xe5, 0x461bcd)\n      dup2\n      mstore\n        /* \"#utility.yul\":15482:15484   */\n      0x20\n        /* \"LegitDAO.sol\":8789:8891  require(approvedDependencies[dependencyKey] != address(0), \"The key does NOT point to any dependency\") */\n      0x04\n      dup3\n      add\n        /* \"#utility.yul\":15464:15485   */\n      mstore\n        /* \"#utility.yul\":15521:15523   */\n      0x28\n        /* \"#utility.yul\":15501:15519   */\n      0x24\n      dup3\n      add\n        /* \"#utility.yul\":15494:15524   */\n      mstore\n        /* \"#utility.yul\":15560:15594   */\n      0x546865206b657920646f6573204e4f5420706f696e7420746f20616e79206465\n        /* \"#utility.yul\":15540:15558   */\n      0x44\n      dup3\n      add\n        /* \"#utility.yul\":15533:15595   */\n      mstore\n      shl(0xc0, 0x70656e64656e6379)\n        /* \"#utility.yul\":15611:15629   */\n      0x64\n      dup3\n      add\n        /* \"#utility.yul\":15604:15642   */\n      mstore\n        /* \"#utility.yul\":15659:15678   */\n      0x84\n      add\n        /* \"LegitDAO.sol\":8789:8891  require(approvedDependencies[dependencyKey] != address(0), \"The key does NOT point to any dependency\") */\n      tag_101\n        /* \"#utility.yul\":15280:15684   */\n      jump\n        /* \"LegitDAO.sol\":8289:8534  function _callFunctionOnDependency(address dependency, bytes4 selector, bytes memory data) private returns (bytes memory) {... */\n    tag_289:\n        /* \"LegitDAO.sol\":8397:8409  bytes memory */\n      0x60\n        /* \"LegitDAO.sol\":8421:8442  bytes memory callData */\n      0x00\n        /* \"LegitDAO.sol\":8462:8470  selector */\n      dup4\n        /* \"LegitDAO.sol\":8472:8476  data */\n      dup4\n        /* \"LegitDAO.sol\":8445:8477  abi.encodePacked(selector, data) */\n      add(0x20, mload(0x40))\n      tag_347\n      swap3\n      swap2\n      swap1\n      tag_348\n      jump\t// in\n    tag_347:\n      0x40\n      dup1\n      mload\n      not(0x1f)\n      dup2\n      dup5\n      sub\n      add\n      dup2\n      mstore\n      swap2\n      swap1\n      mstore\n      swap1\n      pop\n        /* \"LegitDAO.sol\":8494:8527  dependency.functionCall(callData) */\n      tag_349\n      sub(shl(0xa0, 0x01), 0x01)\n        /* \"LegitDAO.sol\":8494:8517  dependency.functionCall */\n      dup7\n      and\n        /* \"LegitDAO.sol\":8445:8477  abi.encodePacked(selector, data) */\n      dup3\n        /* \"LegitDAO.sol\":8494:8517  dependency.functionCall */\n      tag_350\n        /* \"LegitDAO.sol\":8494:8527  dependency.functionCall(callData) */\n      jump\t// in\n    tag_349:\n        /* \"LegitDAO.sol\":8487:8527  return dependency.functionCall(callData) */\n      swap6\n        /* \"LegitDAO.sol\":8289:8534  function _callFunctionOnDependency(address dependency, bytes4 selector, bytes memory data) private returns (bytes memory) {... */\n      swap5\n      pop\n      pop\n      pop\n      pop\n      pop\n      jump\t// out\n        /* \"@openzeppelin/contracts/utils/Address.sol\":2484:2635  function functionCall(address target, bytes memory data) internal returns (bytes memory) {... */\n    tag_350:\n        /* \"@openzeppelin/contracts/utils/Address.sol\":2559:2571  bytes memory */\n      0x60\n        /* \"@openzeppelin/contracts/utils/Address.sol\":2590:2628  functionCallWithValue(target, data, 0) */\n      tag_352\n        /* \"@openzeppelin/contracts/utils/Address.sol\":2612:2618  target */\n      dup4\n        /* \"@openzeppelin/contracts/utils/Address.sol\":2620:2624  data */\n      dup4\n        /* \"@openzeppelin/contracts/utils/Address.sol\":2626:2627  0 */\n      0x00\n        /* \"@openzeppelin/contracts/utils/Address.sol\":2590:2611  functionCallWithValue */\n      tag_353\n        /* \"@openzeppelin/contracts/utils/Address.sol\":2590:2628  functionCallWithValue(target, data, 0) */\n      jump\t// in\n    tag_352:\n        /* \"@openzeppelin/contracts/utils/Address.sol\":2583:2628  return functionCallWithValue(target, data, 0) */\n      swap1\n      pop\n        /* \"@openzeppelin/contracts/utils/Address.sol\":2484:2635  function functionCall(address target, bytes memory data) internal returns (bytes memory) {... */\n    tag_351:\n      swap3\n      swap2\n      pop\n      pop\n      jump\t// out\n        /* \"@openzeppelin/contracts/utils/Address.sol\":2959:3366  function functionCallWithValue(address target, bytes memory data, uint256 value) internal returns (bytes memory) {... */\n    tag_353:\n        /* \"@openzeppelin/contracts/utils/Address.sol\":3058:3070  bytes memory */\n      0x60\n        /* \"@openzeppelin/contracts/utils/Address.sol\":3110:3115  value */\n      dup2\n        /* \"@openzeppelin/contracts/utils/Address.sol\":3086:3107  address(this).balance */\n      selfbalance\n        /* \"@openzeppelin/contracts/utils/Address.sol\":3086:3115  address(this).balance < value */\n      lt\n        /* \"@openzeppelin/contracts/utils/Address.sol\":3082:3205  if (address(this).balance < value) {... */\n      iszero\n      tag_355\n      jumpi\n        /* \"@openzeppelin/contracts/utils/Address.sol\":3138:3194  Errors.InsufficientBalance(address(this).balance, value) */\n      mload(0x40)\n      shl(0xe0, 0xcf479181)\n      dup2\n      mstore\n        /* \"@openzeppelin/contracts/utils/Address.sol\":3165:3186  address(this).balance */\n      selfbalance\n        /* \"@openzeppelin/contracts/utils/Address.sol\":3138:3194  Errors.InsufficientBalance(address(this).balance, value) */\n      0x04\n      dup3\n      add\n        /* \"#utility.yul\":16147:16172   */\n      mstore\n        /* \"#utility.yul\":16188:16206   */\n      0x24\n      dup2\n      add\n        /* \"#utility.yul\":16181:16215   */\n      dup4\n      swap1\n      mstore\n        /* \"#utility.yul\":16120:16138   */\n      0x44\n      add\n        /* \"@openzeppelin/contracts/utils/Address.sol\":3138:3194  Errors.InsufficientBalance(address(this).balance, value) */\n      tag_101\n        /* \"#utility.yul\":15973:16221   */\n      jump\n        /* \"@openzeppelin/contracts/utils/Address.sol\":3082:3205  if (address(this).balance < value) {... */\n    tag_355:\n        /* \"@openzeppelin/contracts/utils/Address.sol\":3215:3227  bool success */\n      0x00\n        /* \"@openzeppelin/contracts/utils/Address.sol\":3229:3252  bytes memory returndata */\n      dup1\n        /* \"@openzeppelin/contracts/utils/Address.sol\":3256:3262  target */\n      dup6\n      sub(shl(0xa0, 0x01), 0x01)\n        /* \"@openzeppelin/contracts/utils/Address.sol\":3256:3267  target.call */\n      and\n        /* \"@openzeppelin/contracts/utils/Address.sol\":3275:3280  value */\n      dup5\n        /* \"@openzeppelin/contracts/utils/Address.sol\":3282:3286  data */\n      dup7\n        /* \"@openzeppelin/contracts/utils/Address.sol\":3256:3287  target.call{value: value}(data) */\n      mload(0x40)\n      tag_358\n      swap2\n      swap1\n      tag_122\n      jump\t// in\n    tag_358:\n      0x00\n      mload(0x40)\n      dup1\n      dup4\n      sub\n      dup2\n      dup6\n      dup8\n      gas\n      call\n      swap3\n      pop\n      pop\n      pop\n      returndatasize\n      dup1\n      0x00\n      dup2\n      eq\n      tag_362\n      jumpi\n      mload(0x40)\n      swap2\n      pop\n      and(add(returndatasize, 0x3f), not(0x1f))\n      dup3\n      add\n      0x40\n      mstore\n      returndatasize\n      dup3\n      mstore\n      returndatasize\n      0x00\n      0x20\n      dup5\n      add\n      returndatacopy\n      jump(tag_361)\n    tag_362:\n      0x60\n      swap2\n      pop\n    tag_361:\n      pop\n        /* \"@openzeppelin/contracts/utils/Address.sol\":3214:3287  (bool success, bytes memory returndata) = target.call{value: value}(data) */\n      swap2\n      pop\n      swap2\n      pop\n        /* \"@openzeppelin/contracts/utils/Address.sol\":3304:3359  verifyCallResultFromTarget(target, success, returndata) */\n      tag_363\n        /* \"@openzeppelin/contracts/utils/Address.sol\":3331:3337  target */\n      dup7\n        /* \"@openzeppelin/contracts/utils/Address.sol\":3339:3346  success */\n      dup4\n        /* \"@openzeppelin/contracts/utils/Address.sol\":3348:3358  returndata */\n      dup4\n        /* \"@openzeppelin/contracts/utils/Address.sol\":3304:3330  verifyCallResultFromTarget */\n      tag_364\n        /* \"@openzeppelin/contracts/utils/Address.sol\":3304:3359  verifyCallResultFromTarget(target, success, returndata) */\n      jump\t// in\n    tag_363:\n        /* \"@openzeppelin/contracts/utils/Address.sol\":3297:3359  return verifyCallResultFromTarget(target, success, returndata) */\n      swap7\n        /* \"@openzeppelin/contracts/utils/Address.sol\":2959:3366  function functionCallWithValue(address target, bytes memory data, uint256 value) internal returns (bytes memory) {... */\n      swap6\n      pop\n      pop\n      pop\n      pop\n      pop\n      pop\n      jump\t// out\n        /* \"@openzeppelin/contracts/utils/Address.sol\":4421:5003  function verifyCallResultFromTarget(... */\n    tag_364:\n        /* \"@openzeppelin/contracts/utils/Address.sol\":4565:4577  bytes memory */\n      0x60\n        /* \"@openzeppelin/contracts/utils/Address.sol\":4594:4601  success */\n      dup3\n        /* \"@openzeppelin/contracts/utils/Address.sol\":4589:4997  if (!success) {... */\n      tag_366\n      jumpi\n        /* \"@openzeppelin/contracts/utils/Address.sol\":4617:4636  _revert(returndata) */\n      tag_367\n        /* \"@openzeppelin/contracts/utils/Address.sol\":4625:4635  returndata */\n      dup3\n        /* \"@openzeppelin/contracts/utils/Address.sol\":4617:4624  _revert */\n      tag_368\n        /* \"@openzeppelin/contracts/utils/Address.sol\":4617:4636  _revert(returndata) */\n      jump\t// in\n    tag_367:\n        /* \"@openzeppelin/contracts/utils/Address.sol\":4589:4997  if (!success) {... */\n      jump(tag_290)\n    tag_366:\n        /* \"@openzeppelin/contracts/utils/Address.sol\":4841:4858  returndata.length */\n      dup2\n      mload\n        /* \"@openzeppelin/contracts/utils/Address.sol\":4841:4863  returndata.length == 0 */\n      iszero\n        /* \"@openzeppelin/contracts/utils/Address.sol\":4841:4890  returndata.length == 0 && target.code.length == 0 */\n      dup1\n      iszero\n      tag_370\n      jumpi\n      pop\n      sub(shl(0xa0, 0x01), 0x01)\n        /* \"@openzeppelin/contracts/utils/Address.sol\":4867:4885  target.code.length */\n      dup5\n      and\n      extcodesize\n        /* \"@openzeppelin/contracts/utils/Address.sol\":4867:4890  target.code.length == 0 */\n      iszero\n        /* \"@openzeppelin/contracts/utils/Address.sol\":4841:4890  returndata.length == 0 && target.code.length == 0 */\n    tag_370:\n        /* \"@openzeppelin/contracts/utils/Address.sol\":4837:4956  if (returndata.length == 0 && target.code.length == 0) {... */\n      iszero\n      tag_371\n      jumpi\n        /* \"@openzeppelin/contracts/utils/Address.sol\":4917:4941  AddressEmptyCode(target) */\n      mload(0x40)\n      shl(0xe0, 0x9996b315)\n      dup2\n      mstore\n      sub(shl(0xa0, 0x01), 0x01)\n        /* \"#utility.yul\":2227:2259   */\n      dup6\n      and\n        /* \"@openzeppelin/contracts/utils/Address.sol\":4917:4941  AddressEmptyCode(target) */\n      0x04\n      dup3\n      add\n        /* \"#utility.yul\":2209:2260   */\n      mstore\n        /* \"#utility.yul\":2182:2200   */\n      0x24\n      add\n        /* \"@openzeppelin/contracts/utils/Address.sol\":4917:4941  AddressEmptyCode(target) */\n      tag_101\n        /* \"#utility.yul\":2063:2266   */\n      jump\n        /* \"@openzeppelin/contracts/utils/Address.sol\":4837:4956  if (returndata.length == 0 && target.code.length == 0) {... */\n    tag_371:\n      pop\n        /* \"@openzeppelin/contracts/utils/Address.sol\":4976:4986  returndata */\n      dup1\n        /* \"@openzeppelin/contracts/utils/Address.sol\":4969:4986  return returndata */\n      jump(tag_290)\n        /* \"@openzeppelin/contracts/utils/Address.sol\":5543:6030  function _revert(bytes memory returndata) private pure {... */\n    tag_368:\n        /* \"@openzeppelin/contracts/utils/Address.sol\":5674:5691  returndata.length */\n      dup1\n      mload\n        /* \"@openzeppelin/contracts/utils/Address.sol\":5674:5695  returndata.length > 0 */\n      iszero\n        /* \"@openzeppelin/contracts/utils/Address.sol\":5670:6024  if (returndata.length > 0) {... */\n      tag_374\n      jumpi\n        /* \"@openzeppelin/contracts/utils/Address.sol\":5871:5881  returndata */\n      dup1\n        /* \"@openzeppelin/contracts/utils/Address.sol\":5865:5882  mload(returndata) */\n      mload\n        /* \"@openzeppelin/contracts/utils/Address.sol\":5927:5942  returndata_size */\n      dup1\n        /* \"@openzeppelin/contracts/utils/Address.sol\":5914:5924  returndata */\n      dup3\n        /* \"@openzeppelin/contracts/utils/Address.sol\":5910:5912  32 */\n      0x20\n        /* \"@openzeppelin/contracts/utils/Address.sol\":5906:5925  add(32, returndata) */\n      add\n        /* \"@openzeppelin/contracts/utils/Address.sol\":5899:5943  revert(add(32, returndata), returndata_size) */\n      revert\n        /* \"@openzeppelin/contracts/utils/Address.sol\":5670:6024  if (returndata.length > 0) {... */\n    tag_374:\n        /* \"@openzeppelin/contracts/utils/Address.sol\":5994:6013  Errors.FailedCall() */\n      mload(0x40)\n      shl(0xe0, 0xd6bda275)\n      dup2\n      mstore\n      0x04\n      add\n      mload(0x40)\n      dup1\n      swap2\n      sub\n      swap1\n      revert\n    tag_190:\n      pop\n      dup1\n      sload\n      tag_376\n      swap1\n      tag_130\n      jump\t// in\n    tag_376:\n      0x00\n      dup3\n      sstore\n      dup1\n      0x1f\n      lt\n      tag_378\n      jumpi\n      pop\n      pop\n      jump\t// out\n    tag_378:\n      0x1f\n      add\n      0x20\n      swap1\n      div\n      swap1\n      0x00\n      mstore\n      keccak256(0x00, 0x20)\n      swap1\n      dup2\n      add\n      swap1\n      tag_103\n      swap2\n      swap1\n    tag_381:\n      dup1\n      dup3\n      gt\n      iszero\n      tag_382\n      jumpi\n      0x00\n      dup2\n      sstore\n      0x01\n      add\n      jump(tag_381)\n    tag_382:\n      pop\n      swap1\n      jump\t// out\n        /* \"#utility.yul\":14:167   */\n    tag_383:\n      sub(shl(0xa0, 0x01), 0x01)\n        /* \"#utility.yul\":111:142   */\n      dup2\n      and\n        /* \"#utility.yul\":101:143   */\n      dup2\n      eq\n        /* \"#utility.yul\":91:161   */\n      tag_103\n      jumpi\n        /* \"#utility.yul\":157:158   */\n      0x00\n        /* \"#utility.yul\":154:155   */\n      dup1\n        /* \"#utility.yul\":147:159   */\n      revert\n        /* \"#utility.yul\":172:469   */\n    tag_26:\n        /* \"#utility.yul\":259:265   */\n      0x00\n        /* \"#utility.yul\":312:314   */\n      0x20\n        /* \"#utility.yul\":300:309   */\n      dup3\n        /* \"#utility.yul\":291:298   */\n      dup5\n        /* \"#utility.yul\":287:310   */\n      sub\n        /* \"#utility.yul\":283:315   */\n      slt\n        /* \"#utility.yul\":280:332   */\n      iszero\n      tag_398\n      jumpi\n        /* \"#utility.yul\":328:329   */\n      0x00\n        /* \"#utility.yul\":325:326   */\n      dup1\n        /* \"#utility.yul\":318:330   */\n      revert\n        /* \"#utility.yul\":280:332   */\n    tag_398:\n        /* \"#utility.yul\":367:376   */\n      dup2\n        /* \"#utility.yul\":354:377   */\n      calldataload\n        /* \"#utility.yul\":386:439   */\n      tag_290\n        /* \"#utility.yul\":433:438   */\n      dup2\n        /* \"#utility.yul\":386:439   */\n      tag_383\n      jump\t// in\n        /* \"#utility.yul\":474:601   */\n    tag_384:\n        /* \"#utility.yul\":535:545   */\n      0x4e487b71\n        /* \"#utility.yul\":530:533   */\n      0xe0\n        /* \"#utility.yul\":526:546   */\n      shl\n        /* \"#utility.yul\":523:524   */\n      0x00\n        /* \"#utility.yul\":516:547   */\n      mstore\n        /* \"#utility.yul\":566:570   */\n      0x41\n        /* \"#utility.yul\":563:564   */\n      0x04\n        /* \"#utility.yul\":556:571   */\n      mstore\n        /* \"#utility.yul\":590:594   */\n      0x24\n        /* \"#utility.yul\":587:588   */\n      0x00\n        /* \"#utility.yul\":580:595   */\n      revert\n        /* \"#utility.yul\":606:1322   */\n    tag_385:\n        /* \"#utility.yul\":671:676   */\n      0x00\n        /* \"#utility.yul\":703:704   */\n      dup1\n        /* \"#utility.yul\":727:745   */\n      0xffffffffffffffff\n        /* \"#utility.yul\":719:725   */\n      dup5\n        /* \"#utility.yul\":716:746   */\n      gt\n        /* \"#utility.yul\":713:769   */\n      iszero\n      tag_403\n      jumpi\n        /* \"#utility.yul\":749:767   */\n      tag_403\n      tag_384\n      jump\t// in\n    tag_403:\n      pop\n        /* \"#utility.yul\":904:906   */\n      0x40\n        /* \"#utility.yul\":898:907   */\n      mload\n      not(0x1f)\n        /* \"#utility.yul\":817:819   */\n      0x1f\n        /* \"#utility.yul\":796:811   */\n      dup6\n      add\n        /* \"#utility.yul\":792:821   */\n      dup2\n      and\n        /* \"#utility.yul\":962:964   */\n      0x3f\n        /* \"#utility.yul\":950:965   */\n      add\n        /* \"#utility.yul\":946:975   */\n      and\n        /* \"#utility.yul\":934:976   */\n      dup2\n      add\n        /* \"#utility.yul\":1027:1049   */\n      dup2\n      dup2\n      lt\n        /* \"#utility.yul\":1006:1024   */\n      0xffffffffffffffff\n        /* \"#utility.yul\":991:1025   */\n      dup3\n      gt\n        /* \"#utility.yul\":988:1050   */\n      or\n        /* \"#utility.yul\":985:1073   */\n      iszero\n      tag_405\n      jumpi\n        /* \"#utility.yul\":1053:1071   */\n      tag_405\n      tag_384\n      jump\t// in\n    tag_405:\n        /* \"#utility.yul\":1089:1091   */\n      0x40\n        /* \"#utility.yul\":1082:1104   */\n      mstore\n        /* \"#utility.yul\":1137:1159   */\n      dup4\n      dup2\n      mstore\n        /* \"#utility.yul\":1122:1128   */\n      swap1\n      pop\n      dup1\n        /* \"#utility.yul\":1174:1190   */\n      dup3\n      dup5\n      add\n        /* \"#utility.yul\":1171:1196   */\n      dup6\n      lt\n        /* \"#utility.yul\":1168:1213   */\n      iszero\n      tag_406\n      jumpi\n        /* \"#utility.yul\":1209:1210   */\n      0x00\n        /* \"#utility.yul\":1206:1207   */\n      dup1\n        /* \"#utility.yul\":1199:1211   */\n      revert\n        /* \"#utility.yul\":1168:1213   */\n    tag_406:\n        /* \"#utility.yul\":1259:1265   */\n      dup4\n        /* \"#utility.yul\":1254:1257   */\n      dup4\n        /* \"#utility.yul\":1247:1251   */\n      0x20\n        /* \"#utility.yul\":1239:1245   */\n      dup4\n        /* \"#utility.yul\":1235:1252   */\n      add\n        /* \"#utility.yul\":1222:1266   */\n      calldatacopy\n        /* \"#utility.yul\":1314:1315   */\n      0x00\n        /* \"#utility.yul\":1307:1311   */\n      0x20\n        /* \"#utility.yul\":1298:1304   */\n      dup6\n        /* \"#utility.yul\":1290:1296   */\n      dup4\n        /* \"#utility.yul\":1286:1305   */\n      add\n        /* \"#utility.yul\":1282:1312   */\n      add\n        /* \"#utility.yul\":1275:1316   */\n      mstore\n      pop\n        /* \"#utility.yul\":606:1322   */\n      swap4\n      swap3\n      pop\n      pop\n      pop\n      jump\t// out\n        /* \"#utility.yul\":1327:1549   */\n    tag_386:\n        /* \"#utility.yul\":1370:1375   */\n      0x00\n        /* \"#utility.yul\":1423:1426   */\n      dup3\n        /* \"#utility.yul\":1416:1420   */\n      0x1f\n        /* \"#utility.yul\":1408:1414   */\n      dup4\n        /* \"#utility.yul\":1404:1421   */\n      add\n        /* \"#utility.yul\":1400:1427   */\n      slt\n        /* \"#utility.yul\":1390:1445   */\n      tag_408\n      jumpi\n        /* \"#utility.yul\":1441:1442   */\n      0x00\n        /* \"#utility.yul\":1438:1439   */\n      dup1\n        /* \"#utility.yul\":1431:1443   */\n      revert\n        /* \"#utility.yul\":1390:1445   */\n    tag_408:\n        /* \"#utility.yul\":1463:1543   */\n      tag_352\n        /* \"#utility.yul\":1539:1542   */\n      dup4\n        /* \"#utility.yul\":1530:1536   */\n      dup4\n        /* \"#utility.yul\":1517:1537   */\n      calldataload\n        /* \"#utility.yul\":1510:1514   */\n      0x20\n        /* \"#utility.yul\":1502:1508   */\n      dup6\n        /* \"#utility.yul\":1498:1515   */\n      add\n        /* \"#utility.yul\":1463:1543   */\n      tag_385\n      jump\t// in\n        /* \"#utility.yul\":1554:1876   */\n    tag_30:\n        /* \"#utility.yul\":1623:1629   */\n      0x00\n        /* \"#utility.yul\":1676:1678   */\n      0x20\n        /* \"#utility.yul\":1664:1673   */\n      dup3\n        /* \"#utility.yul\":1655:1662   */\n      dup5\n        /* \"#utility.yul\":1651:1674   */\n      sub\n        /* \"#utility.yul\":1647:1679   */\n      slt\n        /* \"#utility.yul\":1644:1696   */\n      iszero\n      tag_411\n      jumpi\n        /* \"#utility.yul\":1692:1693   */\n      0x00\n        /* \"#utility.yul\":1689:1690   */\n      dup1\n        /* \"#utility.yul\":1682:1694   */\n      revert\n        /* \"#utility.yul\":1644:1696   */\n    tag_411:\n        /* \"#utility.yul\":1732:1741   */\n      dup2\n        /* \"#utility.yul\":1719:1742   */\n      calldataload\n        /* \"#utility.yul\":1765:1783   */\n      0xffffffffffffffff\n        /* \"#utility.yul\":1757:1763   */\n      dup2\n        /* \"#utility.yul\":1754:1784   */\n      gt\n        /* \"#utility.yul\":1751:1801   */\n      iszero\n      tag_412\n      jumpi\n        /* \"#utility.yul\":1797:1798   */\n      0x00\n        /* \"#utility.yul\":1794:1795   */\n      dup1\n        /* \"#utility.yul\":1787:1799   */\n      revert\n        /* \"#utility.yul\":1751:1801   */\n    tag_412:\n        /* \"#utility.yul\":1820:1870   */\n      tag_413\n        /* \"#utility.yul\":1862:1869   */\n      dup5\n        /* \"#utility.yul\":1853:1859   */\n      dup3\n        /* \"#utility.yul\":1842:1851   */\n      dup6\n        /* \"#utility.yul\":1838:1860   */\n      add\n        /* \"#utility.yul\":1820:1870   */\n      tag_386\n      jump\t// in\n    tag_413:\n        /* \"#utility.yul\":1810:1870   */\n      swap5\n        /* \"#utility.yul\":1554:1876   */\n      swap4\n      pop\n      pop\n      pop\n      pop\n      jump\t// out\n        /* \"#utility.yul\":2271:2451   */\n    tag_52:\n        /* \"#utility.yul\":2330:2336   */\n      0x00\n        /* \"#utility.yul\":2383:2385   */\n      0x20\n        /* \"#utility.yul\":2371:2380   */\n      dup3\n        /* \"#utility.yul\":2362:2369   */\n      dup5\n        /* \"#utility.yul\":2358:2381   */\n      sub\n        /* \"#utility.yul\":2354:2386   */\n      slt\n        /* \"#utility.yul\":2351:2403   */\n      iszero\n      tag_417\n      jumpi\n        /* \"#utility.yul\":2399:2400   */\n      0x00\n        /* \"#utility.yul\":2396:2397   */\n      dup1\n        /* \"#utility.yul\":2389:2401   */\n      revert\n        /* \"#utility.yul\":2351:2403   */\n    tag_417:\n      pop\n        /* \"#utility.yul\":2422:2445   */\n      calldataload\n      swap2\n        /* \"#utility.yul\":2271:2451   */\n      swap1\n      pop\n      jump\t// out\n        /* \"#utility.yul\":2456:2756   */\n    tag_387:\n        /* \"#utility.yul\":2509:2512   */\n      0x00\n        /* \"#utility.yul\":2547:2552   */\n      dup2\n        /* \"#utility.yul\":2541:2553   */\n      mload\n        /* \"#utility.yul\":2574:2580   */\n      dup1\n        /* \"#utility.yul\":2569:2572   */\n      dup5\n        /* \"#utility.yul\":2562:2581   */\n      mstore\n        /* \"#utility.yul\":2630:2636   */\n      dup1\n        /* \"#utility.yul\":2623:2627   */\n      0x20\n        /* \"#utility.yul\":2616:2621   */\n      dup5\n        /* \"#utility.yul\":2612:2628   */\n      add\n        /* \"#utility.yul\":2605:2609   */\n      0x20\n        /* \"#utility.yul\":2600:2603   */\n      dup7\n        /* \"#utility.yul\":2596:2610   */\n      add\n        /* \"#utility.yul\":2590:2637   */\n      mcopy\n        /* \"#utility.yul\":2682:2683   */\n      0x00\n        /* \"#utility.yul\":2675:2679   */\n      0x20\n        /* \"#utility.yul\":2666:2672   */\n      dup3\n        /* \"#utility.yul\":2661:2664   */\n      dup7\n        /* \"#utility.yul\":2657:2673   */\n      add\n        /* \"#utility.yul\":2653:2680   */\n      add\n        /* \"#utility.yul\":2646:2684   */\n      mstore\n        /* \"#utility.yul\":2745:2749   */\n      0x20\n        /* \"#utility.yul\":2738:2740   */\n      0x1f\n        /* \"#utility.yul\":2734:2741   */\n      not\n        /* \"#utility.yul\":2729:2731   */\n      0x1f\n        /* \"#utility.yul\":2721:2727   */\n      dup4\n        /* \"#utility.yul\":2717:2732   */\n      add\n        /* \"#utility.yul\":2713:2742   */\n      and\n        /* \"#utility.yul\":2708:2711   */\n      dup6\n        /* \"#utility.yul\":2704:2743   */\n      add\n        /* \"#utility.yul\":2700:2750   */\n      add\n        /* \"#utility.yul\":2693:2750   */\n      swap2\n      pop\n      pop\n        /* \"#utility.yul\":2456:2756   */\n      swap3\n      swap2\n      pop\n      pop\n      jump\t// out\n        /* \"#utility.yul\":2761:2992   */\n    tag_55:\n        /* \"#utility.yul\":2910:2912   */\n      0x20\n        /* \"#utility.yul\":2899:2908   */\n      dup2\n        /* \"#utility.yul\":2892:2913   */\n      mstore\n        /* \"#utility.yul\":2873:2877   */\n      0x00\n        /* \"#utility.yul\":2930:2986   */\n      tag_352\n        /* \"#utility.yul\":2982:2984   */\n      0x20\n        /* \"#utility.yul\":2971:2980   */\n      dup4\n        /* \"#utility.yul\":2967:2985   */\n      add\n        /* \"#utility.yul\":2959:2965   */\n      dup5\n        /* \"#utility.yul\":2930:2986   */\n      tag_387\n      jump\t// in\n        /* \"#utility.yul\":2997:3476   */\n    tag_64:\n        /* \"#utility.yul\":3075:3081   */\n      0x00\n        /* \"#utility.yul\":3083:3089   */\n      dup1\n        /* \"#utility.yul\":3136:3138   */\n      0x40\n        /* \"#utility.yul\":3124:3133   */\n      dup4\n        /* \"#utility.yul\":3115:3122   */\n      dup6\n        /* \"#utility.yul\":3111:3134   */\n      sub\n        /* \"#utility.yul\":3107:3139   */\n      slt\n        /* \"#utility.yul\":3104:3156   */\n      iszero\n      tag_422\n      jumpi\n        /* \"#utility.yul\":3152:3153   */\n      0x00\n        /* \"#utility.yul\":3149:3150   */\n      dup1\n        /* \"#utility.yul\":3142:3154   */\n      revert\n        /* \"#utility.yul\":3104:3156   */\n    tag_422:\n        /* \"#utility.yul\":3192:3201   */\n      dup3\n        /* \"#utility.yul\":3179:3202   */\n      calldataload\n        /* \"#utility.yul\":3225:3243   */\n      0xffffffffffffffff\n        /* \"#utility.yul\":3217:3223   */\n      dup2\n        /* \"#utility.yul\":3214:3244   */\n      gt\n        /* \"#utility.yul\":3211:3261   */\n      iszero\n      tag_423\n      jumpi\n        /* \"#utility.yul\":3257:3258   */\n      0x00\n        /* \"#utility.yul\":3254:3255   */\n      dup1\n        /* \"#utility.yul\":3247:3259   */\n      revert\n        /* \"#utility.yul\":3211:3261   */\n    tag_423:\n        /* \"#utility.yul\":3280:3330   */\n      tag_424\n        /* \"#utility.yul\":3322:3329   */\n      dup6\n        /* \"#utility.yul\":3313:3319   */\n      dup3\n        /* \"#utility.yul\":3302:3311   */\n      dup7\n        /* \"#utility.yul\":3298:3320   */\n      add\n        /* \"#utility.yul\":3280:3330   */\n      tag_386\n      jump\t// in\n    tag_424:\n        /* \"#utility.yul\":3270:3330   */\n      swap3\n      pop\n      pop\n        /* \"#utility.yul\":3380:3382   */\n      0x20\n        /* \"#utility.yul\":3369:3378   */\n      dup4\n        /* \"#utility.yul\":3365:3383   */\n      add\n        /* \"#utility.yul\":3352:3384   */\n      calldataload\n        /* \"#utility.yul\":3393:3446   */\n      tag_425\n        /* \"#utility.yul\":3440:3445   */\n      dup2\n        /* \"#utility.yul\":3393:3446   */\n      tag_383\n      jump\t// in\n    tag_425:\n        /* \"#utility.yul\":3465:3470   */\n      dup1\n        /* \"#utility.yul\":3455:3470   */\n      swap2\n      pop\n      pop\n        /* \"#utility.yul\":2997:3476   */\n      swap3\n      pop\n      swap3\n      swap1\n      pop\n      jump\t// out\n        /* \"#utility.yul\":3717:4599   */\n    tag_72:\n        /* \"#utility.yul\":3823:3829   */\n      0x00\n        /* \"#utility.yul\":3831:3837   */\n      dup1\n        /* \"#utility.yul\":3839:3845   */\n      0x00\n        /* \"#utility.yul\":3892:3894   */\n      0x60\n        /* \"#utility.yul\":3880:3889   */\n      dup5\n        /* \"#utility.yul\":3871:3878   */\n      dup7\n        /* \"#utility.yul\":3867:3890   */\n      sub\n        /* \"#utility.yul\":3863:3895   */\n      slt\n        /* \"#utility.yul\":3860:3912   */\n      iszero\n      tag_428\n      jumpi\n        /* \"#utility.yul\":3908:3909   */\n      0x00\n        /* \"#utility.yul\":3905:3906   */\n      dup1\n        /* \"#utility.yul\":3898:3910   */\n      revert\n        /* \"#utility.yul\":3860:3912   */\n    tag_428:\n        /* \"#utility.yul\":3948:3957   */\n      dup4\n        /* \"#utility.yul\":3935:3958   */\n      calldataload\n        /* \"#utility.yul\":3981:3999   */\n      0xffffffffffffffff\n        /* \"#utility.yul\":3973:3979   */\n      dup2\n        /* \"#utility.yul\":3970:4000   */\n      gt\n        /* \"#utility.yul\":3967:4017   */\n      iszero\n      tag_429\n      jumpi\n        /* \"#utility.yul\":4013:4014   */\n      0x00\n        /* \"#utility.yul\":4010:4011   */\n      dup1\n        /* \"#utility.yul\":4003:4015   */\n      revert\n        /* \"#utility.yul\":3967:4017   */\n    tag_429:\n        /* \"#utility.yul\":4036:4086   */\n      tag_430\n        /* \"#utility.yul\":4078:4085   */\n      dup7\n        /* \"#utility.yul\":4069:4075   */\n      dup3\n        /* \"#utility.yul\":4058:4067   */\n      dup8\n        /* \"#utility.yul\":4054:4076   */\n      add\n        /* \"#utility.yul\":4036:4086   */\n      tag_386\n      jump\t// in\n    tag_430:\n        /* \"#utility.yul\":4026:4086   */\n      swap4\n      pop\n      pop\n        /* \"#utility.yul\":4139:4141   */\n      0x20\n        /* \"#utility.yul\":4128:4137   */\n      dup5\n        /* \"#utility.yul\":4124:4142   */\n      add\n        /* \"#utility.yul\":4111:4143   */\n      calldataload\n        /* \"#utility.yul\":4168:4186   */\n      0xffffffffffffffff\n        /* \"#utility.yul\":4158:4166   */\n      dup2\n        /* \"#utility.yul\":4155:4187   */\n      gt\n        /* \"#utility.yul\":4152:4204   */\n      iszero\n      tag_431\n      jumpi\n        /* \"#utility.yul\":4200:4201   */\n      0x00\n        /* \"#utility.yul\":4197:4198   */\n      dup1\n        /* \"#utility.yul\":4190:4202   */\n      revert\n        /* \"#utility.yul\":4152:4204   */\n    tag_431:\n        /* \"#utility.yul\":4223:4275   */\n      tag_432\n        /* \"#utility.yul\":4267:4274   */\n      dup7\n        /* \"#utility.yul\":4256:4264   */\n      dup3\n        /* \"#utility.yul\":4245:4254   */\n      dup8\n        /* \"#utility.yul\":4241:4265   */\n      add\n        /* \"#utility.yul\":4223:4275   */\n      tag_386\n      jump\t// in\n    tag_432:\n        /* \"#utility.yul\":4213:4275   */\n      swap3\n      pop\n      pop\n        /* \"#utility.yul\":4328:4330   */\n      0x40\n        /* \"#utility.yul\":4317:4326   */\n      dup5\n        /* \"#utility.yul\":4313:4331   */\n      add\n        /* \"#utility.yul\":4300:4332   */\n      calldataload\n        /* \"#utility.yul\":4357:4375   */\n      0xffffffffffffffff\n        /* \"#utility.yul\":4347:4355   */\n      dup2\n        /* \"#utility.yul\":4344:4376   */\n      gt\n        /* \"#utility.yul\":4341:4393   */\n      iszero\n      tag_433\n      jumpi\n        /* \"#utility.yul\":4389:4390   */\n      0x00\n        /* \"#utility.yul\":4386:4387   */\n      dup1\n        /* \"#utility.yul\":4379:4391   */\n      revert\n        /* \"#utility.yul\":4341:4393   */\n    tag_433:\n        /* \"#utility.yul\":4412:4436   */\n      dup5\n      add\n        /* \"#utility.yul\":4467:4471   */\n      0x1f\n        /* \"#utility.yul\":4459:4472   */\n      dup2\n      add\n        /* \"#utility.yul\":4455:4482   */\n      dup7\n      sgt\n        /* \"#utility.yul\":4445:4500   */\n      tag_434\n      jumpi\n        /* \"#utility.yul\":4496:4497   */\n      0x00\n        /* \"#utility.yul\":4493:4494   */\n      dup1\n        /* \"#utility.yul\":4486:4498   */\n      revert\n        /* \"#utility.yul\":4445:4500   */\n    tag_434:\n        /* \"#utility.yul\":4519:4593   */\n      tag_435\n        /* \"#utility.yul\":4585:4592   */\n      dup7\n        /* \"#utility.yul\":4580:4582   */\n      dup3\n        /* \"#utility.yul\":4567:4583   */\n      calldataload\n        /* \"#utility.yul\":4562:4564   */\n      0x20\n        /* \"#utility.yul\":4558:4560   */\n      dup5\n        /* \"#utility.yul\":4554:4565   */\n      add\n        /* \"#utility.yul\":4519:4593   */\n      tag_385\n      jump\t// in\n    tag_435:\n        /* \"#utility.yul\":4509:4593   */\n      swap2\n      pop\n      pop\n        /* \"#utility.yul\":3717:4599   */\n      swap3\n      pop\n      swap3\n      pop\n      swap3\n      jump\t// out\n        /* \"#utility.yul\":4838:5631   */\n    tag_82:\n        /* \"#utility.yul\":5000:5004   */\n      0x00\n        /* \"#utility.yul\":5048:5050   */\n      0x20\n        /* \"#utility.yul\":5037:5046   */\n      dup3\n        /* \"#utility.yul\":5033:5051   */\n      add\n        /* \"#utility.yul\":5078:5080   */\n      0x20\n        /* \"#utility.yul\":5067:5076   */\n      dup4\n        /* \"#utility.yul\":5060:5081   */\n      mstore\n        /* \"#utility.yul\":5101:5107   */\n      dup1\n        /* \"#utility.yul\":5136:5142   */\n      dup5\n        /* \"#utility.yul\":5130:5143   */\n      mload\n        /* \"#utility.yul\":5167:5173   */\n      dup1\n        /* \"#utility.yul\":5159:5165   */\n      dup4\n        /* \"#utility.yul\":5152:5174   */\n      mstore\n        /* \"#utility.yul\":5205:5207   */\n      0x40\n        /* \"#utility.yul\":5194:5203   */\n      dup6\n        /* \"#utility.yul\":5190:5208   */\n      add\n        /* \"#utility.yul\":5183:5208   */\n      swap2\n      pop\n        /* \"#utility.yul\":5267:5269   */\n      0x40\n        /* \"#utility.yul\":5257:5263   */\n      dup2\n        /* \"#utility.yul\":5254:5255   */\n      0x05\n        /* \"#utility.yul\":5250:5264   */\n      shl\n        /* \"#utility.yul\":5239:5248   */\n      dup7\n        /* \"#utility.yul\":5235:5265   */\n      add\n        /* \"#utility.yul\":5231:5270   */\n      add\n        /* \"#utility.yul\":5217:5270   */\n      swap3\n      pop\n        /* \"#utility.yul\":5305:5307   */\n      0x20\n        /* \"#utility.yul\":5297:5303   */\n      dup7\n        /* \"#utility.yul\":5293:5308   */\n      add\n        /* \"#utility.yul\":5326:5327   */\n      0x00\n        /* \"#utility.yul\":5336:5602   */\n    tag_439:\n        /* \"#utility.yul\":5350:5356   */\n      dup3\n        /* \"#utility.yul\":5347:5348   */\n      dup2\n        /* \"#utility.yul\":5344:5357   */\n      lt\n        /* \"#utility.yul\":5336:5602   */\n      iszero\n      tag_441\n      jumpi\n        /* \"#utility.yul\":5443:5445   */\n      0x3f\n        /* \"#utility.yul\":5439:5446   */\n      not\n        /* \"#utility.yul\":5427:5436   */\n      dup8\n        /* \"#utility.yul\":5419:5425   */\n      dup7\n        /* \"#utility.yul\":5415:5437   */\n      sub\n        /* \"#utility.yul\":5411:5447   */\n      add\n        /* \"#utility.yul\":5406:5409   */\n      dup5\n        /* \"#utility.yul\":5399:5448   */\n      mstore\n        /* \"#utility.yul\":5471:5522   */\n      tag_442\n        /* \"#utility.yul\":5515:5521   */\n      dup6\n        /* \"#utility.yul\":5506:5512   */\n      dup4\n        /* \"#utility.yul\":5500:5513   */\n      mload\n        /* \"#utility.yul\":5471:5522   */\n      tag_387\n      jump\t// in\n    tag_442:\n        /* \"#utility.yul\":5461:5522   */\n      swap5\n      pop\n        /* \"#utility.yul\":5557:5559   */\n      0x20\n        /* \"#utility.yul\":5580:5592   */\n      swap4\n      dup5\n      add\n      swap4\n        /* \"#utility.yul\":5545:5560   */\n      swap2\n      swap1\n      swap2\n      add\n      swap1\n        /* \"#utility.yul\":5372:5373   */\n      0x01\n        /* \"#utility.yul\":5365:5374   */\n      add\n        /* \"#utility.yul\":5336:5602   */\n      jump(tag_439)\n    tag_441:\n      pop\n        /* \"#utility.yul\":5619:5625   */\n      swap3\n      swap7\n        /* \"#utility.yul\":4838:5631   */\n      swap6\n      pop\n      pop\n      pop\n      pop\n      pop\n      pop\n      jump\t// out\n        /* \"#utility.yul\":6461:6860   */\n    tag_113:\n        /* \"#utility.yul\":6663:6665   */\n      0x20\n        /* \"#utility.yul\":6645:6666   */\n      dup1\n      dup3\n      mstore\n        /* \"#utility.yul\":6702:6704   */\n      0x23\n        /* \"#utility.yul\":6682:6700   */\n      swap1\n      dup3\n      add\n        /* \"#utility.yul\":6675:6705   */\n      mstore\n        /* \"#utility.yul\":6741:6775   */\n      0x74686520646570656e64656e637920726571756573746572206973206e6f7420\n        /* \"#utility.yul\":6736:6738   */\n      0x40\n        /* \"#utility.yul\":6721:6739   */\n      dup3\n      add\n        /* \"#utility.yul\":6714:6776   */\n      mstore\n      shl(0xea, 0x1cd95d)\n        /* \"#utility.yul\":6807:6809   */\n      0x60\n        /* \"#utility.yul\":6792:6810   */\n      dup3\n      add\n        /* \"#utility.yul\":6785:6818   */\n      mstore\n        /* \"#utility.yul\":6850:6853   */\n      0x80\n        /* \"#utility.yul\":6835:6854   */\n      add\n      swap1\n        /* \"#utility.yul\":6461:6860   */\n      jump\t// out\n        /* \"#utility.yul\":6865:7049   */\n    tag_118:\n        /* \"#utility.yul\":6935:6941   */\n      0x00\n        /* \"#utility.yul\":6988:6990   */\n      0x20\n        /* \"#utility.yul\":6976:6985   */\n      dup3\n        /* \"#utility.yul\":6967:6974   */\n      dup5\n        /* \"#utility.yul\":6963:6986   */\n      sub\n        /* \"#utility.yul\":6959:6991   */\n      slt\n        /* \"#utility.yul\":6956:7008   */\n      iszero\n      tag_447\n      jumpi\n        /* \"#utility.yul\":7004:7005   */\n      0x00\n        /* \"#utility.yul\":7001:7002   */\n      dup1\n        /* \"#utility.yul\":6994:7006   */\n      revert\n        /* \"#utility.yul\":6956:7008   */\n    tag_447:\n      pop\n        /* \"#utility.yul\":7027:7043   */\n      mload\n      swap2\n        /* \"#utility.yul\":6865:7049   */\n      swap1\n      pop\n      jump\t// out\n        /* \"#utility.yul\":7054:7266   */\n    tag_388:\n        /* \"#utility.yul\":7096:7099   */\n      0x00\n        /* \"#utility.yul\":7134:7139   */\n      dup2\n        /* \"#utility.yul\":7128:7140   */\n      mload\n        /* \"#utility.yul\":7178:7184   */\n      dup1\n        /* \"#utility.yul\":7171:7175   */\n      0x20\n        /* \"#utility.yul\":7164:7169   */\n      dup5\n        /* \"#utility.yul\":7160:7176   */\n      add\n        /* \"#utility.yul\":7155:7158   */\n      dup6\n        /* \"#utility.yul\":7149:7185   */\n      mcopy\n        /* \"#utility.yul\":7240:7241   */\n      0x00\n        /* \"#utility.yul\":7204:7220   */\n      swap4\n      add\n        /* \"#utility.yul\":7229:7242   */\n      swap3\n      dup4\n      mstore\n      pop\n        /* \"#utility.yul\":7204:7220   */\n      swap1\n      swap2\n        /* \"#utility.yul\":7054:7266   */\n      swap1\n      pop\n      jump\t// out\n        /* \"#utility.yul\":7271:7463   */\n    tag_122:\n        /* \"#utility.yul\":7402:7405   */\n      0x00\n        /* \"#utility.yul\":7427:7457   */\n      tag_352\n        /* \"#utility.yul\":7453:7456   */\n      dup3\n        /* \"#utility.yul\":7445:7451   */\n      dup5\n        /* \"#utility.yul\":7427:7457   */\n      tag_388\n      jump\t// in\n        /* \"#utility.yul\":7877:8257   */\n    tag_130:\n        /* \"#utility.yul\":7956:7957   */\n      0x01\n        /* \"#utility.yul\":7952:7964   */\n      dup2\n      dup2\n      shr\n      swap1\n        /* \"#utility.yul\":7999:8011   */\n      dup3\n      and\n      dup1\n        /* \"#utility.yul\":8020:8081   */\n      tag_453\n      jumpi\n        /* \"#utility.yul\":8074:8078   */\n      0x7f\n        /* \"#utility.yul\":8066:8072   */\n      dup3\n        /* \"#utility.yul\":8062:8079   */\n      and\n        /* \"#utility.yul\":8052:8079   */\n      swap2\n      pop\n        /* \"#utility.yul\":8020:8081   */\n    tag_453:\n        /* \"#utility.yul\":8127:8129   */\n      0x20\n        /* \"#utility.yul\":8119:8125   */\n      dup3\n        /* \"#utility.yul\":8116:8130   */\n      lt\n        /* \"#utility.yul\":8096:8114   */\n      dup2\n        /* \"#utility.yul\":8093:8131   */\n      sub\n        /* \"#utility.yul\":8090:8251   */\n      tag_454\n      jumpi\n        /* \"#utility.yul\":8173:8183   */\n      0x4e487b71\n        /* \"#utility.yul\":8168:8171   */\n      0xe0\n        /* \"#utility.yul\":8164:8184   */\n      shl\n        /* \"#utility.yul\":8161:8162   */\n      0x00\n        /* \"#utility.yul\":8154:8185   */\n      mstore\n        /* \"#utility.yul\":8208:8212   */\n      0x22\n        /* \"#utility.yul\":8205:8206   */\n      0x04\n        /* \"#utility.yul\":8198:8213   */\n      mstore\n        /* \"#utility.yul\":8236:8240   */\n      0x24\n        /* \"#utility.yul\":8233:8234   */\n      0x00\n        /* \"#utility.yul\":8226:8241   */\n      revert\n        /* \"#utility.yul\":8090:8251   */\n    tag_454:\n      pop\n        /* \"#utility.yul\":7877:8257   */\n      swap2\n      swap1\n      pop\n      jump\t// out\n        /* \"#utility.yul\":8262:8426   */\n    tag_389:\n        /* \"#utility.yul\":8338:8351   */\n      dup1\n      mload\n        /* \"#utility.yul\":8387:8400   */\n      dup1\n      iszero\n        /* \"#utility.yul\":8380:8401   */\n      iszero\n        /* \"#utility.yul\":8370:8402   */\n      dup2\n      eq\n        /* \"#utility.yul\":8360:8420   */\n      tag_456\n      jumpi\n        /* \"#utility.yul\":8416:8417   */\n      0x00\n        /* \"#utility.yul\":8413:8414   */\n      dup1\n        /* \"#utility.yul\":8406:8418   */\n      revert\n        /* \"#utility.yul\":8360:8420   */\n    tag_456:\n        /* \"#utility.yul\":8262:8426   */\n      swap2\n      swap1\n      pop\n      jump\t// out\n        /* \"#utility.yul\":8431:8890   */\n    tag_145:\n        /* \"#utility.yul\":8541:8547   */\n      0x00\n        /* \"#utility.yul\":8549:8555   */\n      dup1\n        /* \"#utility.yul\":8557:8563   */\n      0x00\n        /* \"#utility.yul\":8610:8612   */\n      0x60\n        /* \"#utility.yul\":8598:8607   */\n      dup5\n        /* \"#utility.yul\":8589:8596   */\n      dup7\n        /* \"#utility.yul\":8585:8608   */\n      sub\n        /* \"#utility.yul\":8581:8613   */\n      slt\n        /* \"#utility.yul\":8578:8630   */\n      iszero\n      tag_458\n      jumpi\n        /* \"#utility.yul\":8626:8627   */\n      0x00\n        /* \"#utility.yul\":8623:8624   */\n      dup1\n        /* \"#utility.yul\":8616:8628   */\n      revert\n        /* \"#utility.yul\":8578:8630   */\n    tag_458:\n        /* \"#utility.yul\":8658:8667   */\n      dup4\n        /* \"#utility.yul\":8652:8668   */\n      mload\n        /* \"#utility.yul\":8677:8730   */\n      tag_459\n        /* \"#utility.yul\":8724:8729   */\n      dup2\n        /* \"#utility.yul\":8677:8730   */\n      tag_383\n      jump\t// in\n    tag_459:\n        /* \"#utility.yul\":8749:8754   */\n      swap3\n      pop\n        /* \"#utility.yul\":8773:8819   */\n      tag_460\n        /* \"#utility.yul\":8815:8817   */\n      0x20\n        /* \"#utility.yul\":8800:8818   */\n      dup6\n      add\n        /* \"#utility.yul\":8773:8819   */\n      tag_389\n      jump\t// in\n    tag_460:\n        /* \"#utility.yul\":8763:8819   */\n      swap2\n      pop\n        /* \"#utility.yul\":8838:8884   */\n      tag_461\n        /* \"#utility.yul\":8880:8882   */\n      0x40\n        /* \"#utility.yul\":8869:8878   */\n      dup6\n        /* \"#utility.yul\":8865:8883   */\n      add\n        /* \"#utility.yul\":8838:8884   */\n      tag_389\n      jump\t// in\n    tag_461:\n        /* \"#utility.yul\":8828:8884   */\n      swap1\n      pop\n        /* \"#utility.yul\":8431:8890   */\n      swap3\n      pop\n      swap3\n      pop\n      swap3\n      jump\t// out\n        /* \"#utility.yul\":8895:9022   */\n    tag_390:\n        /* \"#utility.yul\":8956:8966   */\n      0x4e487b71\n        /* \"#utility.yul\":8951:8954   */\n      0xe0\n        /* \"#utility.yul\":8947:8967   */\n      shl\n        /* \"#utility.yul\":8944:8945   */\n      0x00\n        /* \"#utility.yul\":8937:8968   */\n      mstore\n        /* \"#utility.yul\":8987:8991   */\n      0x11\n        /* \"#utility.yul\":8984:8985   */\n      0x04\n        /* \"#utility.yul\":8977:8992   */\n      mstore\n        /* \"#utility.yul\":9011:9015   */\n      0x24\n        /* \"#utility.yul\":9008:9009   */\n      0x00\n        /* \"#utility.yul\":9001:9016   */\n      revert\n        /* \"#utility.yul\":9027:9155   */\n    tag_156:\n        /* \"#utility.yul\":9094:9103   */\n      dup2\n      dup2\n      sub\n        /* \"#utility.yul\":9115:9126   */\n      dup2\n      dup2\n      gt\n        /* \"#utility.yul\":9112:9149   */\n      iszero\n      tag_351\n      jumpi\n        /* \"#utility.yul\":9129:9147   */\n      tag_351\n      tag_390\n      jump\t// in\n        /* \"#utility.yul\":9160:9287   */\n    tag_159:\n        /* \"#utility.yul\":9221:9231   */\n      0x4e487b71\n        /* \"#utility.yul\":9216:9219   */\n      0xe0\n        /* \"#utility.yul\":9212:9232   */\n      shl\n        /* \"#utility.yul\":9209:9210   */\n      0x00\n        /* \"#utility.yul\":9202:9233   */\n      mstore\n        /* \"#utility.yul\":9252:9256   */\n      0x32\n        /* \"#utility.yul\":9249:9250   */\n      0x04\n        /* \"#utility.yul\":9242:9257   */\n      mstore\n        /* \"#utility.yul\":9276:9280   */\n      0x24\n        /* \"#utility.yul\":9273:9274   */\n      0x00\n        /* \"#utility.yul\":9266:9281   */\n      revert\n        /* \"#utility.yul\":9292:9573   */\n    tag_171:\n        /* \"#utility.yul\":9365:9371   */\n      0x00\n        /* \"#utility.yul\":9373:9379   */\n      dup1\n        /* \"#utility.yul\":9426:9428   */\n      0x40\n        /* \"#utility.yul\":9414:9423   */\n      dup4\n        /* \"#utility.yul\":9405:9412   */\n      dup6\n        /* \"#utility.yul\":9401:9424   */\n      sub\n        /* \"#utility.yul\":9397:9429   */\n      slt\n        /* \"#utility.yul\":9394:9446   */\n      iszero\n      tag_468\n      jumpi\n        /* \"#utility.yul\":9442:9443   */\n      0x00\n        /* \"#utility.yul\":9439:9440   */\n      dup1\n        /* \"#utility.yul\":9432:9444   */\n      revert\n        /* \"#utility.yul\":9394:9446   */\n    tag_468:\n        /* \"#utility.yul\":9465:9502   */\n      tag_469\n        /* \"#utility.yul\":9492:9501   */\n      dup4\n        /* \"#utility.yul\":9465:9502   */\n      tag_389\n      jump\t// in\n    tag_469:\n        /* \"#utility.yul\":9455:9502   */\n      swap2\n      pop\n        /* \"#utility.yul\":9521:9567   */\n      tag_470\n        /* \"#utility.yul\":9563:9565   */\n      0x20\n        /* \"#utility.yul\":9552:9561   */\n      dup5\n        /* \"#utility.yul\":9548:9566   */\n      add\n        /* \"#utility.yul\":9521:9567   */\n      tag_389\n      jump\t// in\n    tag_470:\n        /* \"#utility.yul\":9511:9567   */\n      swap1\n      pop\n        /* \"#utility.yul\":9292:9573   */\n      swap3\n      pop\n      swap3\n      swap1\n      pop\n      jump\t// out\n        /* \"#utility.yul\":9704:10222   */\n    tag_392:\n        /* \"#utility.yul\":9806:9808   */\n      0x1f\n        /* \"#utility.yul\":9801:9804   */\n      dup3\n        /* \"#utility.yul\":9798:9809   */\n      gt\n        /* \"#utility.yul\":9795:10216   */\n      iszero\n      tag_473\n      jumpi\n        /* \"#utility.yul\":9842:9847   */\n      dup1\n        /* \"#utility.yul\":9839:9840   */\n      0x00\n        /* \"#utility.yul\":9832:9848   */\n      mstore\n        /* \"#utility.yul\":9886:9890   */\n      0x20\n        /* \"#utility.yul\":9883:9884   */\n      0x00\n        /* \"#utility.yul\":9873:9891   */\n      keccak256\n        /* \"#utility.yul\":9956:9958   */\n      0x1f\n        /* \"#utility.yul\":9944:9954   */\n      dup5\n        /* \"#utility.yul\":9940:9959   */\n      add\n        /* \"#utility.yul\":9937:9938   */\n      0x05\n        /* \"#utility.yul\":9933:9960   */\n      shr\n        /* \"#utility.yul\":9927:9931   */\n      dup2\n        /* \"#utility.yul\":9923:9961   */\n      add\n        /* \"#utility.yul\":9992:9996   */\n      0x20\n        /* \"#utility.yul\":9980:9990   */\n      dup6\n        /* \"#utility.yul\":9977:9997   */\n      lt\n        /* \"#utility.yul\":9974:10021   */\n      iszero\n      tag_474\n      jumpi\n      pop\n        /* \"#utility.yul\":10015:10019   */\n      dup1\n        /* \"#utility.yul\":9974:10021   */\n    tag_474:\n        /* \"#utility.yul\":10070:10072   */\n      0x1f\n        /* \"#utility.yul\":10065:10068   */\n      dup5\n        /* \"#utility.yul\":10061:10073   */\n      add\n        /* \"#utility.yul\":10058:10059   */\n      0x05\n        /* \"#utility.yul\":10054:10074   */\n      shr\n        /* \"#utility.yul\":10048:10052   */\n      dup3\n        /* \"#utility.yul\":10044:10075   */\n      add\n        /* \"#utility.yul\":10034:10075   */\n      swap2\n      pop\n        /* \"#utility.yul\":10125:10206   */\n    tag_475:\n        /* \"#utility.yul\":10143:10145   */\n      dup2\n        /* \"#utility.yul\":10136:10141   */\n      dup2\n        /* \"#utility.yul\":10133:10146   */\n      lt\n        /* \"#utility.yul\":10125:10206   */\n      iszero\n      tag_477\n      jumpi\n        /* \"#utility.yul\":10202:10203   */\n      0x00\n        /* \"#utility.yul\":10188:10204   */\n      dup2\n      sstore\n        /* \"#utility.yul\":10169:10170   */\n      0x01\n        /* \"#utility.yul\":10158:10171   */\n      add\n        /* \"#utility.yul\":10125:10206   */\n      jump(tag_475)\n    tag_477:\n        /* \"#utility.yul\":10129:10132   */\n      pop\n      pop\n        /* \"#utility.yul\":9795:10216   */\n    tag_473:\n        /* \"#utility.yul\":9704:10222   */\n      pop\n      pop\n      pop\n      jump\t// out\n        /* \"#utility.yul\":10398:11795   */\n    tag_184:\n        /* \"#utility.yul\":10517:10520   */\n      dup2\n        /* \"#utility.yul\":10511:10515   */\n      dup2\n        /* \"#utility.yul\":10508:10521   */\n      sub\n        /* \"#utility.yul\":10505:10531   */\n      tag_480\n      jumpi\n        /* \"#utility.yul\":10524:10529   */\n      pop\n      pop\n        /* \"#utility.yul\":10398:11795   */\n      jump\t// out\n        /* \"#utility.yul\":10505:10531   */\n    tag_480:\n        /* \"#utility.yul\":10554:10591   */\n      tag_481\n        /* \"#utility.yul\":10586:10589   */\n      dup3\n        /* \"#utility.yul\":10580:10590   */\n      sload\n        /* \"#utility.yul\":10554:10591   */\n      tag_130\n      jump\t// in\n    tag_481:\n        /* \"#utility.yul\":10614:10632   */\n      0xffffffffffffffff\n        /* \"#utility.yul\":10606:10612   */\n      dup2\n        /* \"#utility.yul\":10603:10633   */\n      gt\n        /* \"#utility.yul\":10600:10656   */\n      iszero\n      tag_483\n      jumpi\n        /* \"#utility.yul\":10636:10654   */\n      tag_483\n      tag_384\n      jump\t// in\n    tag_483:\n        /* \"#utility.yul\":10665:10762   */\n      tag_484\n        /* \"#utility.yul\":10755:10761   */\n      dup2\n        /* \"#utility.yul\":10715:10753   */\n      tag_485\n        /* \"#utility.yul\":10747:10751   */\n      dup5\n        /* \"#utility.yul\":10741:10752   */\n      sload\n        /* \"#utility.yul\":10715:10753   */\n      tag_130\n      jump\t// in\n    tag_485:\n        /* \"#utility.yul\":10709:10713   */\n      dup5\n        /* \"#utility.yul\":10665:10762   */\n      tag_392\n      jump\t// in\n    tag_484:\n        /* \"#utility.yul\":10788:10789   */\n      0x00\n        /* \"#utility.yul\":10816:10818   */\n      0x1f\n        /* \"#utility.yul\":10808:10814   */\n      dup3\n        /* \"#utility.yul\":10805:10819   */\n      gt\n        /* \"#utility.yul\":10833:10834   */\n      0x01\n        /* \"#utility.yul\":10828:11538   */\n      dup2\n      eq\n      tag_487\n      jumpi\n        /* \"#utility.yul\":11582:11583   */\n      0x00\n        /* \"#utility.yul\":11599:11605   */\n      dup4\n        /* \"#utility.yul\":11596:11685   */\n      iszero\n      tag_488\n      jumpi\n      pop\n        /* \"#utility.yul\":11651:11670   */\n      dup5\n      dup3\n      add\n        /* \"#utility.yul\":11645:11671   */\n      sload\n        /* \"#utility.yul\":11596:11685   */\n    tag_488:\n        /* \"#utility.yul\":10379:10380   */\n      0x01\n        /* \"#utility.yul\":10375:10386   */\n      dup5\n      swap1\n      shl\n      not(0x00)\n        /* \"#utility.yul\":10355:10356   */\n      0x03\n        /* \"#utility.yul\":10351:10362   */\n      dup7\n      swap1\n      shl\n        /* \"#utility.yul\":10347:10371   */\n      shr\n        /* \"#utility.yul\":10343:10372   */\n      not\n        /* \"#utility.yul\":10333:10373   */\n      dup3\n      and\n        /* \"#utility.yul\":10330:10387   */\n      or\n        /* \"#utility.yul\":11711:11778   */\n    tag_489:\n        /* \"#utility.yul\":11705:11709   */\n      dup6\n        /* \"#utility.yul\":11698:11779   */\n      sstore\n      pop\n        /* \"#utility.yul\":10798:11789   */\n      jump(tag_477)\n        /* \"#utility.yul\":10828:11538   */\n    tag_487:\n        /* \"#utility.yul\":9651:9652   */\n      0x00\n        /* \"#utility.yul\":9644:9658   */\n      dup6\n      dup2\n      mstore\n        /* \"#utility.yul\":9688:9692   */\n      0x20\n        /* \"#utility.yul\":9675:9693   */\n      dup1\n      dup3\n      keccak256\n        /* \"#utility.yul\":9644:9658   */\n      dup7\n      dup4\n      mstore\n        /* \"#utility.yul\":9675:9693   */\n      swap1\n      dup3\n      keccak256\n      not(0x1f)\n        /* \"#utility.yul\":10864:10884   */\n      dup7\n      and\n      swap3\n        /* \"#utility.yul\":11042:11263   */\n    tag_492:\n        /* \"#utility.yul\":11056:11063   */\n      dup4\n        /* \"#utility.yul\":11053:11054   */\n      dup2\n        /* \"#utility.yul\":11050:11064   */\n      lt\n        /* \"#utility.yul\":11042:11263   */\n      iszero\n      tag_494\n      jumpi\n        /* \"#utility.yul\":11138:11159   */\n      dup3\n      dup7\n      add\n        /* \"#utility.yul\":11132:11160   */\n      sload\n        /* \"#utility.yul\":11117:11161   */\n      dup3\n      sstore\n        /* \"#utility.yul\":11200:11201   */\n      0x01\n        /* \"#utility.yul\":11232:11249   */\n      swap6\n      dup7\n      add\n      swap6\n        /* \"#utility.yul\":11188:11202   */\n      swap1\n      swap2\n      add\n      swap1\n        /* \"#utility.yul\":11079:11083   */\n      0x20\n        /* \"#utility.yul\":11072:11084   */\n      add\n        /* \"#utility.yul\":11042:11263   */\n      jump(tag_492)\n    tag_494:\n        /* \"#utility.yul\":11046:11049   */\n      pop\n        /* \"#utility.yul\":11291:11297   */\n      dup6\n        /* \"#utility.yul\":11282:11289   */\n      dup4\n        /* \"#utility.yul\":11279:11298   */\n      lt\n        /* \"#utility.yul\":11276:11479   */\n      iszero\n      tag_495\n      jumpi\n        /* \"#utility.yul\":11352:11373   */\n      dup2\n      dup6\n      add\n        /* \"#utility.yul\":11346:11374   */\n      sload\n      not(0x00)\n        /* \"#utility.yul\":11437:11438   */\n      0x03\n        /* \"#utility.yul\":11433:11447   */\n      dup9\n      swap1\n      shl\n        /* \"#utility.yul\":11449:11452   */\n      0xf8\n        /* \"#utility.yul\":11429:11453   */\n      and\n        /* \"#utility.yul\":11425:11462   */\n      shr\n        /* \"#utility.yul\":11421:11463   */\n      not\n        /* \"#utility.yul\":11406:11464   */\n      and\n        /* \"#utility.yul\":11391:11465   */\n      dup2\n      sstore\n        /* \"#utility.yul\":11276:11479   */\n    tag_495:\n      pop\n      pop\n      pop\n      pop\n      pop\n        /* \"#utility.yul\":11525:11526   */\n      0x01\n        /* \"#utility.yul\":11509:11523   */\n      swap1\n      dup2\n      shl\n        /* \"#utility.yul\":11505:11527   */\n      add\n        /* \"#utility.yul\":11492:11528   */\n      swap1\n      sstore\n      pop\n        /* \"#utility.yul\":10398:11795   */\n      jump\t// out\n        /* \"#utility.yul\":11800:11927   */\n    tag_187:\n        /* \"#utility.yul\":11861:11871   */\n      0x4e487b71\n        /* \"#utility.yul\":11856:11859   */\n      0xe0\n        /* \"#utility.yul\":11852:11872   */\n      shl\n        /* \"#utility.yul\":11849:11850   */\n      0x00\n        /* \"#utility.yul\":11842:11873   */\n      mstore\n        /* \"#utility.yul\":11892:11896   */\n      0x31\n        /* \"#utility.yul\":11889:11890   */\n      0x04\n        /* \"#utility.yul\":11882:11897   */\n      mstore\n        /* \"#utility.yul\":11916:11920   */\n      0x24\n        /* \"#utility.yul\":11913:11914   */\n      0x00\n        /* \"#utility.yul\":11906:11921   */\n      revert\n        /* \"#utility.yul\":11932:12068   */\n    tag_208:\n        /* \"#utility.yul\":11971:11974   */\n      0x00\n        /* \"#utility.yul\":11999:12004   */\n      dup2\n        /* \"#utility.yul\":11989:12028   */\n      tag_499\n      jumpi\n        /* \"#utility.yul\":12008:12026   */\n      tag_499\n      tag_390\n      jump\t// in\n    tag_499:\n      pop\n      not(0x00)\n        /* \"#utility.yul\":12044:12062   */\n      add\n      swap1\n        /* \"#utility.yul\":11932:12068   */\n      jump\t// out\n        /* \"#utility.yul\":12509:13808   */\n    tag_233:\n        /* \"#utility.yul\":12635:12638   */\n      dup2\n        /* \"#utility.yul\":12629:12639   */\n      mload\n        /* \"#utility.yul\":12662:12680   */\n      0xffffffffffffffff\n        /* \"#utility.yul\":12654:12660   */\n      dup2\n        /* \"#utility.yul\":12651:12681   */\n      gt\n        /* \"#utility.yul\":12648:12704   */\n      iszero\n      tag_507\n      jumpi\n        /* \"#utility.yul\":12684:12702   */\n      tag_507\n      tag_384\n      jump\t// in\n    tag_507:\n        /* \"#utility.yul\":12713:12810   */\n      tag_508\n        /* \"#utility.yul\":12803:12809   */\n      dup2\n        /* \"#utility.yul\":12763:12801   */\n      tag_485\n        /* \"#utility.yul\":12795:12799   */\n      dup5\n        /* \"#utility.yul\":12789:12800   */\n      sload\n        /* \"#utility.yul\":12763:12801   */\n      tag_130\n      jump\t// in\n        /* \"#utility.yul\":12713:12810   */\n    tag_508:\n        /* \"#utility.yul\":12859:12863   */\n      0x20\n        /* \"#utility.yul\":12890:12892   */\n      0x1f\n        /* \"#utility.yul\":12879:12893   */\n      dup3\n      gt\n        /* \"#utility.yul\":12907:12908   */\n      0x01\n        /* \"#utility.yul\":12902:13551   */\n      dup2\n      eq\n      tag_511\n      jumpi\n        /* \"#utility.yul\":13595:13596   */\n      0x00\n        /* \"#utility.yul\":13612:13618   */\n      dup4\n        /* \"#utility.yul\":13609:13698   */\n      iszero\n      tag_488\n      jumpi\n      pop\n        /* \"#utility.yul\":13664:13683   */\n      dup2\n      dup6\n      add\n        /* \"#utility.yul\":13658:13684   */\n      mload\n        /* \"#utility.yul\":10379:10380   */\n      0x01\n        /* \"#utility.yul\":10375:10386   */\n      dup5\n      swap1\n      shl\n      not(0x00)\n        /* \"#utility.yul\":10355:10356   */\n      0x03\n        /* \"#utility.yul\":10351:10362   */\n      dup7\n      swap1\n      shl\n        /* \"#utility.yul\":10347:10371   */\n      shr\n        /* \"#utility.yul\":10343:10372   */\n      not\n        /* \"#utility.yul\":10333:10373   */\n      dup3\n      and\n        /* \"#utility.yul\":10330:10387   */\n      or\n        /* \"#utility.yul\":13724:13791   */\n      tag_489\n        /* \"#utility.yul\":10227:10393   */\n      jump\n        /* \"#utility.yul\":12902:13551   */\n    tag_511:\n        /* \"#utility.yul\":9651:9652   */\n      0x00\n        /* \"#utility.yul\":9644:9658   */\n      dup5\n      dup2\n      mstore\n        /* \"#utility.yul\":9688:9692   */\n      0x20\n        /* \"#utility.yul\":9675:9693   */\n      dup2\n      keccak256\n      not(0x1f)\n        /* \"#utility.yul\":12938:12958   */\n      dup6\n      and\n      swap2\n        /* \"#utility.yul\":13056:13278   */\n    tag_515:\n        /* \"#utility.yul\":13070:13077   */\n      dup3\n        /* \"#utility.yul\":13067:13068   */\n      dup2\n        /* \"#utility.yul\":13064:13078   */\n      lt\n        /* \"#utility.yul\":13056:13278   */\n      iszero\n      tag_517\n      jumpi\n        /* \"#utility.yul\":13152:13171   */\n      dup8\n      dup6\n      add\n        /* \"#utility.yul\":13146:13172   */\n      mload\n        /* \"#utility.yul\":13131:13173   */\n      dup3\n      sstore\n        /* \"#utility.yul\":13259:13263   */\n      0x20\n        /* \"#utility.yul\":13244:13264   */\n      swap5\n      dup6\n      add\n      swap5\n        /* \"#utility.yul\":13212:13213   */\n      0x01\n        /* \"#utility.yul\":13200:13214   */\n      swap1\n      swap3\n      add\n      swap2\n        /* \"#utility.yul\":13086:13098   */\n      add\n        /* \"#utility.yul\":13056:13278   */\n      jump(tag_515)\n    tag_517:\n        /* \"#utility.yul\":13060:13063   */\n      pop\n        /* \"#utility.yul\":13306:13312   */\n      dup5\n        /* \"#utility.yul\":13297:13304   */\n      dup3\n        /* \"#utility.yul\":13294:13313   */\n      lt\n        /* \"#utility.yul\":13291:13492   */\n      iszero\n      tag_518\n      jumpi\n        /* \"#utility.yul\":13367:13386   */\n      dup7\n      dup5\n      add\n        /* \"#utility.yul\":13361:13387   */\n      mload\n      not(0x00)\n        /* \"#utility.yul\":13450:13451   */\n      0x03\n        /* \"#utility.yul\":13446:13460   */\n      dup8\n      swap1\n      shl\n        /* \"#utility.yul\":13462:13465   */\n      0xf8\n        /* \"#utility.yul\":13442:13466   */\n      and\n        /* \"#utility.yul\":13438:13475   */\n      shr\n        /* \"#utility.yul\":13434:13476   */\n      not\n        /* \"#utility.yul\":13419:13477   */\n      and\n        /* \"#utility.yul\":13404:13478   */\n      dup2\n      sstore\n        /* \"#utility.yul\":13291:13492   */\n    tag_518:\n      pop\n      pop\n      pop\n      pop\n        /* \"#utility.yul\":13538:13539   */\n      0x01\n        /* \"#utility.yul\":13522:13536   */\n      swap1\n      dup2\n      shl\n        /* \"#utility.yul\":13518:13540   */\n      add\n        /* \"#utility.yul\":13505:13541   */\n      swap1\n      sstore\n      pop\n        /* \"#utility.yul\":12509:13808   */\n      jump\t// out\n        /* \"#utility.yul\":14173:14501   */\n    tag_268:\n        /* \"#utility.yul\":14350:14352   */\n      0x40\n        /* \"#utility.yul\":14339:14348   */\n      dup2\n        /* \"#utility.yul\":14332:14353   */\n      mstore\n        /* \"#utility.yul\":14313:14317   */\n      0x00\n        /* \"#utility.yul\":14370:14426   */\n      tag_521\n        /* \"#utility.yul\":14422:14424   */\n      0x40\n        /* \"#utility.yul\":14411:14420   */\n      dup4\n        /* \"#utility.yul\":14407:14425   */\n      add\n        /* \"#utility.yul\":14399:14405   */\n      dup6\n        /* \"#utility.yul\":14370:14426   */\n      tag_387\n      jump\t// in\n    tag_521:\n        /* \"#utility.yul\":14362:14426   */\n      swap1\n      pop\n        /* \"#utility.yul\":14491:14492   */\n      0x01\n        /* \"#utility.yul\":14487:14488   */\n      dup1\n        /* \"#utility.yul\":14482:14485   */\n      0xa0\n        /* \"#utility.yul\":14478:14489   */\n      shl\n        /* \"#utility.yul\":14474:14493   */\n      sub\n        /* \"#utility.yul\":14466:14472   */\n      dup4\n        /* \"#utility.yul\":14462:14494   */\n      and\n        /* \"#utility.yul\":14457:14459   */\n      0x20\n        /* \"#utility.yul\":14446:14455   */\n      dup4\n        /* \"#utility.yul\":14442:14460   */\n      add\n        /* \"#utility.yul\":14435:14495   */\n      mstore\n        /* \"#utility.yul\":14173:14501   */\n      swap4\n      swap3\n      pop\n      pop\n      pop\n      jump\t// out\n        /* \"#utility.yul\":15689:15968   */\n    tag_348:\n      not(sub(shl(0xe0, 0x01), 0x01))\n        /* \"#utility.yul\":15874:15907   */\n      dup4\n      and\n        /* \"#utility.yul\":15862:15908   */\n      dup2\n      mstore\n        /* \"#utility.yul\":15844:15847   */\n      0x00\n        /* \"#utility.yul\":15924:15962   */\n      tag_413\n        /* \"#utility.yul\":15959:15960   */\n      0x04\n        /* \"#utility.yul\":15950:15961   */\n      dup4\n      add\n        /* \"#utility.yul\":15942:15948   */\n      dup5\n        /* \"#utility.yul\":15924:15962   */\n      tag_388\n      jump\t// in\n\n    auxdata: 0xa2646970667358221220199bc70030b08cf5cbcfa3a8d6e8517e392cc67cd8f97ab5f11f4b36e982adae64736f6c634300081a0033\n}\n",
				"bytecode": {
					"linkReferences": {},
					"object": "6080604052348015600e575f80fd5b5060015f81905580546001600160a01b03191633179055611db6806100325f395ff3fe608060405234801561000f575f80fd5b5060043610610111575f3560e01c8063807198931161009e578063be6552e61161006e578063be6552e614610282578063d5f3948814610297578063ec4c2e5d146102aa578063eebed3a7146102b2578063fbe332dc146102c5575f80fd5b80638071989314610240578063a791edf814610253578063a7fee72214610266578063bc5aef9014610279575f80fd5b806322418460116100e457806322418460146101a657806329d5de01146101d15780632cf1366b146102055780636e5ecdff146102255780637b022fa21461022d575f80fd5b80630bcfc7171461011557806312c0c8c01461012a57806316c1076f146101685780631a83f4a31461017b575b5f80fd5b61012861012336600461171e565b6102d8565b005b6101556101383660046117e2565b805160208183018101805160078252928201919093012091525481565b6040519081526020015b60405180910390f35b61012861017636600461171e565b6103a4565b6101556101893660046117e2565b805160208183018101805160058252928201919093012091525481565b6101b96101b43660046117e2565b6104ec565b6040516001600160a01b03909116815260200161015f565b6101b96101df3660046117e2565b80516020818301810180516003825292820191909301209152546001600160a01b031681565b61021861021336600461181c565b6105ad565b60405161015f9190611861565b610128610653565b61021861023b36600461181c565b610e68565b61012861024e366004611873565b610e77565b6002546101b9906001600160a01b031681565b6102186102743660046118c2565b61108a565b61015560095481565b61028a6110c7565b60405161015f9190611963565b6001546101b9906001600160a01b031681565b61028a61119b565b6102186102c036600461181c565b611266565b6101286102d3366004611873565b611275565b6102e0611487565b6001546001600160a01b031633146103525760405162461bcd60e51b815260206004820152602a60248201527f7468652073656e6465722077617320657870656374656420746f20626520746860448201526932903232b83637bcb2b960b11b60648201526084015b60405180910390fd5b600280546001600160a01b0319166001600160a01b0383169081179091556040517fa16907e9030f7a27dd100153173e6b01401f940d851e6f7095937f2773e561b2905f90a26103a160015f55565b50565b6103ac611487565b600954156104125760405162461bcd60e51b815260206004820152602d60248201527f746865726520697320616c726561647920612070656e64696e6720757067726160448201526c646520696e2070726f6365737360981b6064820152608401610349565b6002546001600160a01b031661043a5760405162461bcd60e51b8152600401610349906119c6565b6002546040516316c1076f60e01b81526001600160a01b0383811660048301525f9216906316c1076f906024016020604051808303815f875af1158015610483573d5f803e3d5ffd5b505050506040513d601f19601f820116820180604052508101906104a79190611a09565b60098190556040519091506001600160a01b038316907f130bf33540470b3a07f23b1164785a20acd90a150a4a00e976740c8f941c71db905f90a2506103a160015f55565b5f806001600160a01b03166003836040516105079190611a37565b908152604051908190036020019020546001600160a01b03160361057e5760405162461bcd60e51b815260206004820152602860248201527f746865206b657920646f6573204e4f5420706f696e7420746f20616e7920646560448201526770656e64656e637960c01b6064820152608401610349565b60038260405161058e9190611a37565b908152604051908190036020019020546001600160a01b031692915050565b600881815481106105bc575f80fd5b905f5260205f20015f9150905080546105d490611a42565b80601f016020809104026020016040519081016040528092919081815260200182805461060090611a42565b801561064b5780601f106106225761010080835404028352916020019161064b565b820191905f5260205f20905b81548152906001019060200180831161062e57829003601f168201915b505050505081565b61065b611487565b6002546001600160a01b03166106835760405162461bcd60e51b8152600401610349906119c6565b6009541561079a5760025460095460405163156a8dcb60e11b815260048101919091525f91829182916001600160a01b031690632ad51b9690602401606060405180830381865afa1580156106da573d5f803e3d5ffd5b505050506040513d601f19601f820116820180604052508101906106fe9190611a8e565b925092509250811561070f575f6009555b8180156107195750805b15610752576040516001600160a01b038416907fe00a5b97742635032504f47f4c4ae13f19de32bab9db317d70cb5820cce02935905f90a25b81801561075d575080155b15610796576040516001600160a01b038416907f563bb4859f75835d1cd4855f062e12db76cc064572739370c11b20510e382d5b905f90a25b5050505b60085415610b24576008545b8015610b22575f6107b8600183611ae4565b90505f600882815481106107ce576107ce611af7565b905f5260205f200180546107e190611a42565b80601f016020809104026020016040519081016040528092919081815260200182805461080d90611a42565b80156108585780601f1061082f57610100808354040283529160200191610858565b820191905f5260205f20905b81548152906001019060200180831161083b57829003601f168201915b505050505090505f6007826040516108709190611a37565b9081526040519081900360200181205460025463b986f17960e01b83529092505f9182916001600160a01b03169063b986f179906108b690869060040190815260200190565b6040805180830381865afa1580156108d0573d5f803e3d5ffd5b505050506040513d601f19601f820116820180604052508101906108f49190611b0b565b9150915081610907575050505050610b10565b5f6003856040516109189190611a37565b908152604051908190036020019020546001600160a01b031690508115610a24576003856040516109499190611a37565b90815260405190819003602001902080546001600160a01b03191690556004805461097690600190611ae4565b8154811061098657610986611af7565b905f5260205f2001600487815481106109a1576109a1611af7565b905f5260205f200190816109b59190611b88565b5060048054806109c7576109c7611c60565b600190038181905f5260205f20015f6109e091906116c0565b9055806001600160a01b03167f82aa94d0384f3fe5d924376cf325afcff8195f30f42758ae710193c432f24ac186604051610a1b9190611861565b60405180910390a25b81610a6b57806001600160a01b03167f402a83bdad8cef946824820b268607aec7303de64e88533b0bd7ee57a577b95486604051610a629190611861565b60405180910390a25b600785604051610a7b9190611a37565b9081526040519081900360200190205f905560088054610a9d90600190611ae4565b81548110610aad57610aad611af7565b905f5260205f200160088781548110610ac857610ac8611af7565b905f5260205f20019081610adc9190611b88565b506008805480610aee57610aee611c60565b600190038181905f5260205f20015f610b0791906116c0565b90555050505050505b80610b1a81611c74565b9150506107a6565b505b60065415610e5d576006545b8015610e5b575f610b42600183611ae4565b90505f60068281548110610b5857610b58611af7565b905f5260205f20018054610b6b90611a42565b80601f0160208091040260200160405190810160405280929190818152602001828054610b9790611a42565b8015610be25780601f10610bb957610100808354040283529160200191610be2565b820191905f5260205f20905b815481529060010190602001808311610bc557829003601f168201915b505050505090505f600582604051610bfa9190611a37565b90815260405190819003602001812054600254634f6e1b2760e01b83529092505f91829182916001600160a01b0390911690634f6e1b2790610c4490879060040190815260200190565b606060405180830381865afa158015610c5f573d5f803e3d5ffd5b505050506040513d601f19601f82011682018060405250810190610c839190611a8e565b92509250925081610c9957505050505050610e49565b8015610d5d5782600386604051610cb09190611a37565b90815260405190819003602001902080546001600160a01b03929092166001600160a01b0319909216919091179055600480546001810182555f919091527f8a35acfbc15ff81a39ae7d344fd709f28e8600b4aa8c65c6b64bfe7fe36bd19b01610d1a8682611c89565b50826001600160a01b03167f8281f4653ea8e6ba47f1ebeeb1c7e17291003d7e8247666d4d1c46124920bfe686604051610d549190611861565b60405180910390a25b80610da457826001600160a01b03167fc4425eba3fdc6aaf1c08b8892b7b7b5fdca047f984a94148a7c547e0faac2bd386604051610d9b9190611861565b60405180910390a25b600585604051610db49190611a37565b9081526040519081900360200190205f905560068054610dd690600190611ae4565b81548110610de657610de6611af7565b905f5260205f200160068781548110610e0157610e01611af7565b905f5260205f20019081610e159190611b88565b506006805480610e2757610e27611c60565b600190038181905f5260205f20015f610e4091906116c0565b90555050505050505b80610e5381611c74565b915050610b30565b505b610e6660015f55565b565b600681815481106105bc575f80fd5b610e7f611487565b6002546001600160a01b0316610ea75760405162461bcd60e51b8152600401610349906119c6565b6001600160a01b038116610efd5760405162461bcd60e51b815260206004820152601f60248201527f74686520636f6e74726163742061646472657373206973206e6f7420736574006044820152606401610349565b600254604051630eacd1d560e11b81525f916001600160a01b031690631d59a3aa90610f2f9086908690600401611d3c565b6020604051808303815f875af1158015610f4b573d5f803e3d5ffd5b505050506040513d601f19601f82011682018060405250810190610f6f9190611a09565b9050600583604051610f819190611a37565b9081526020016040518091039020545f14610fde5760405162461bcd60e51b815260206004820181905260248201527f74686520646570656e64656e637920616c7265616479207265717565737465646044820152606401610349565b80600584604051610fef9190611a37565b90815260405190819003602001902055600680546001810182555f919091527ff652222313e28459528d920b65115c16c04f3efc82aaedc97be59f3f377c0d3f0161103a8482611c89565b50816001600160a01b03167f7a561791a5e256aac8e189115ca0e37a81457d0fc3faceceb7d1c4907dd55a3a846040516110749190611861565b60405180910390a25061108660015f55565b5050565b6060611094611487565b5f61109e856114af565b845160208601209091506110b3828286611541565b925050506110c060015f55565b9392505050565b60606006805480602002602001604051908101604052809291908181526020015f905b82821015611192578382905f5260205f2001805461110790611a42565b80601f016020809104026020016040519081016040528092919081815260200182805461113390611a42565b801561117e5780601f106111555761010080835404028352916020019161117e565b820191905f5260205f20905b81548152906001019060200180831161116157829003601f168201915b5050505050815260200190600101906110ea565b50505050905090565b60606004805480602002602001604051908101604052809291908181526020015f905b82821015611192578382905f5260205f200180546111db90611a42565b80601f016020809104026020016040519081016040528092919081815260200182805461120790611a42565b80156112525780601f1061122957610100808354040283529160200191611252565b820191905f5260205f20905b81548152906001019060200180831161123557829003601f168201915b5050505050815260200190600101906111be565b600481815481106105bc575f80fd5b61127d611487565b6002546001600160a01b03166112a55760405162461bcd60e51b8152600401610349906119c6565b6001600160a01b0381166112fb5760405162461bcd60e51b815260206004820152601f60248201527f74686520636f6e74726163742061646472657373206973206e6f7420736574006044820152606401610349565b6002546040516307ec404360e01b81525f916001600160a01b0316906307ec40439061132d9086908690600401611d3c565b6020604051808303815f875af1158015611349573d5f803e3d5ffd5b505050506040513d601f19601f8201168201806040525081019061136d9190611a09565b905060078360405161137f9190611a37565b9081526020016040518091039020545f146113f15760405162461bcd60e51b815260206004820152602c60248201527f74686520646570656e64656e637920616c72656164792072657175657374656460448201526b08199bdc881c995b5bdd985b60a21b6064820152608401610349565b806007846040516114029190611a37565b90815260405190819003602001902055600880546001810182555f919091527ff3f7a9fe364faab93b216da50a3214154f22a0a2b415b23a84c8169e8b636ee30161144d8482611c89565b50816001600160a01b03167f4591e03d87e58e2eff46633bca8adfb3336f94ced41a61a4e33d3e061fd0e960846040516110749190611861565b60025f54036114a957604051633ee5aeb560e01b815260040160405180910390fd5b60025f55565b5f806001600160a01b03166003836040516114ca9190611a37565b908152604051908190036020019020546001600160a01b03160361057e5760405162461bcd60e51b815260206004820152602860248201527f546865206b657920646f6573204e4f5420706f696e7420746f20616e7920646560448201526770656e64656e637960c01b6064820152608401610349565b60605f8383604051602001611557929190611d65565b60408051601f19818403018152919052905061157c6001600160a01b03861682611585565b95945050505050565b606061159283835f61159b565b90505b92915050565b6060814710156115c75760405163cf47918160e01b815247600482015260248101839052604401610349565b5f80856001600160a01b031684866040516115e29190611a37565b5f6040518083038185875af1925050503d805f811461161c576040519150601f19603f3d011682016040523d82523d5f602084013e611621565b606091505b509150915061163186838361163b565b9695505050505050565b6060826116505761164b82611697565b6110c0565b815115801561166757506001600160a01b0384163b155b1561169057604051639996b31560e01b81526001600160a01b0385166004820152602401610349565b50806110c0565b8051156116a75780518082602001fd5b60405163d6bda27560e01b815260040160405180910390fd5b5080546116cc90611a42565b5f825580601f106116db575050565b601f0160209004905f5260205f20908101906103a191905b80821115611706575f81556001016116f3565b5090565b6001600160a01b03811681146103a1575f80fd5b5f6020828403121561172e575f80fd5b81356110c08161170a565b634e487b7160e01b5f52604160045260245ffd5b5f8067ffffffffffffffff84111561176757611767611739565b50604051601f19601f85018116603f0116810181811067ffffffffffffffff8211171561179657611796611739565b6040528381529050808284018510156117ad575f80fd5b838360208301375f60208583010152509392505050565b5f82601f8301126117d3575f80fd5b6115928383356020850161174d565b5f602082840312156117f2575f80fd5b813567ffffffffffffffff811115611808575f80fd5b611814848285016117c4565b949350505050565b5f6020828403121561182c575f80fd5b5035919050565b5f81518084528060208401602086015e5f602082860101526020601f19601f83011685010191505092915050565b602081525f6115926020830184611833565b5f8060408385031215611884575f80fd5b823567ffffffffffffffff81111561189a575f80fd5b6118a6858286016117c4565b92505060208301356118b78161170a565b809150509250929050565b5f805f606084860312156118d4575f80fd5b833567ffffffffffffffff8111156118ea575f80fd5b6118f6868287016117c4565b935050602084013567ffffffffffffffff811115611912575f80fd5b61191e868287016117c4565b925050604084013567ffffffffffffffff81111561193a575f80fd5b8401601f8101861361194a575f80fd5b6119598682356020840161174d565b9150509250925092565b5f602082016020835280845180835260408501915060408160051b8601019250602086015f5b828110156119ba57603f198786030184526119a5858351611833565b94506020938401939190910190600101611989565b50929695505050505050565b60208082526023908201527f74686520646570656e64656e637920726571756573746572206973206e6f74206040820152621cd95d60ea1b606082015260800190565b5f60208284031215611a19575f80fd5b5051919050565b5f81518060208401855e5f93019283525090919050565b5f6115928284611a20565b600181811c90821680611a5657607f821691505b602082108103611a7457634e487b7160e01b5f52602260045260245ffd5b50919050565b80518015158114611a89575f80fd5b919050565b5f805f60608486031215611aa0575f80fd5b8351611aab8161170a565b9250611ab960208501611a7a565b9150611ac760408501611a7a565b90509250925092565b634e487b7160e01b5f52601160045260245ffd5b8181038181111561159557611595611ad0565b634e487b7160e01b5f52603260045260245ffd5b5f8060408385031215611b1c575f80fd5b611b2583611a7a565b9150611b3360208401611a7a565b90509250929050565b601f821115611b8357805f5260205f20601f840160051c81016020851015611b615750805b601f840160051c820191505b81811015611b80575f8155600101611b6d565b50505b505050565b818103611b93575050565b611b9d8254611a42565b67ffffffffffffffff811115611bb557611bb5611739565b611bc981611bc38454611a42565b84611b3c565b5f601f821160018114611bfd575f8315611be35750848201545b600184901b5f19600386901b1c198216175b855550611b80565b5f8581526020808220868352908220601f198616925b83811015611c335782860154825560019586019590910190602001611c13565b5085831015611c5057818501545f19600388901b60f8161c191681555b5050505050600190811b01905550565b634e487b7160e01b5f52603160045260245ffd5b5f81611c8257611c82611ad0565b505f190190565b815167ffffffffffffffff811115611ca357611ca3611739565b611cb181611bc38454611a42565b6020601f821160018114611ce1575f8315611be3575081850151600184901b5f19600386901b1c19821617611bf5565b5f84815260208120601f198516915b82811015611d105787850151825560209485019460019092019101611cf0565b5084821015611d2d57868401515f19600387901b60f8161c191681555b50505050600190811b01905550565b604081525f611d4e6040830185611833565b905060018060a01b03831660208301529392505050565b6001600160e01b0319831681525f6118146004830184611a2056fea2646970667358221220199bc70030b08cf5cbcfa3a8d6e8517e392cc67cd8f97ab5f11f4b36e982adae64736f6c634300081a0033",
					"opcodes": "PUSH1 0x80 PUSH1 0x40 MSTORE CALLVALUE DUP1 ISZERO PUSH1 0xE JUMPI PUSH0 DUP1 REVERT JUMPDEST POP PUSH1 0x1 PUSH0 DUP2 SWAP1 SSTORE DUP1 SLOAD PUSH1 0x1 PUSH1 0x1 PUSH1 0xA0 SHL SUB NOT AND CALLER OR SWAP1 SSTORE PUSH2 0x1DB6 DUP1 PUSH2 0x32 PUSH0 CODECOPY PUSH0 RETURN INVALID PUSH1 0x80 PUSH1 0x40 MSTORE CALLVALUE DUP1 ISZERO PUSH2 0xF JUMPI PUSH0 DUP1 REVERT JUMPDEST POP PUSH1 0x4 CALLDATASIZE LT PUSH2 0x111 JUMPI PUSH0 CALLDATALOAD PUSH1 0xE0 SHR DUP1 PUSH4 0x80719893 GT PUSH2 0x9E JUMPI DUP1 PUSH4 0xBE6552E6 GT PUSH2 0x6E JUMPI DUP1 PUSH4 0xBE6552E6 EQ PUSH2 0x282 JUMPI DUP1 PUSH4 0xD5F39488 EQ PUSH2 0x297 JUMPI DUP1 PUSH4 0xEC4C2E5D EQ PUSH2 0x2AA JUMPI DUP1 PUSH4 0xEEBED3A7 EQ PUSH2 0x2B2 JUMPI DUP1 PUSH4 0xFBE332DC EQ PUSH2 0x2C5 JUMPI PUSH0 DUP1 REVERT JUMPDEST DUP1 PUSH4 0x80719893 EQ PUSH2 0x240 JUMPI DUP1 PUSH4 0xA791EDF8 EQ PUSH2 0x253 JUMPI DUP1 PUSH4 0xA7FEE722 EQ PUSH2 0x266 JUMPI DUP1 PUSH4 0xBC5AEF90 EQ PUSH2 0x279 JUMPI PUSH0 DUP1 REVERT JUMPDEST DUP1 PUSH4 0x22418460 GT PUSH2 0xE4 JUMPI DUP1 PUSH4 0x22418460 EQ PUSH2 0x1A6 JUMPI DUP1 PUSH4 0x29D5DE01 EQ PUSH2 0x1D1 JUMPI DUP1 PUSH4 0x2CF1366B EQ PUSH2 0x205 JUMPI DUP1 PUSH4 0x6E5ECDFF EQ PUSH2 0x225 JUMPI DUP1 PUSH4 0x7B022FA2 EQ PUSH2 0x22D JUMPI PUSH0 DUP1 REVERT JUMPDEST DUP1 PUSH4 0xBCFC717 EQ PUSH2 0x115 JUMPI DUP1 PUSH4 0x12C0C8C0 EQ PUSH2 0x12A JUMPI DUP1 PUSH4 0x16C1076F EQ PUSH2 0x168 JUMPI DUP1 PUSH4 0x1A83F4A3 EQ PUSH2 0x17B JUMPI JUMPDEST PUSH0 DUP1 REVERT JUMPDEST PUSH2 0x128 PUSH2 0x123 CALLDATASIZE PUSH1 0x4 PUSH2 0x171E JUMP JUMPDEST PUSH2 0x2D8 JUMP JUMPDEST STOP JUMPDEST PUSH2 0x155 PUSH2 0x138 CALLDATASIZE PUSH1 0x4 PUSH2 0x17E2 JUMP JUMPDEST DUP1 MLOAD PUSH1 0x20 DUP2 DUP4 ADD DUP2 ADD DUP1 MLOAD PUSH1 0x7 DUP3 MSTORE SWAP3 DUP3 ADD SWAP2 SWAP1 SWAP4 ADD KECCAK256 SWAP2 MSTORE SLOAD DUP2 JUMP JUMPDEST PUSH1 0x40 MLOAD SWAP1 DUP2 MSTORE PUSH1 0x20 ADD JUMPDEST PUSH1 0x40 MLOAD DUP1 SWAP2 SUB SWAP1 RETURN JUMPDEST PUSH2 0x128 PUSH2 0x176 CALLDATASIZE PUSH1 0x4 PUSH2 0x171E JUMP JUMPDEST PUSH2 0x3A4 JUMP JUMPDEST PUSH2 0x155 PUSH2 0x189 CALLDATASIZE PUSH1 0x4 PUSH2 0x17E2 JUMP JUMPDEST DUP1 MLOAD PUSH1 0x20 DUP2 DUP4 ADD DUP2 ADD DUP1 MLOAD PUSH1 0x5 DUP3 MSTORE SWAP3 DUP3 ADD SWAP2 SWAP1 SWAP4 ADD KECCAK256 SWAP2 MSTORE SLOAD DUP2 JUMP JUMPDEST PUSH2 0x1B9 PUSH2 0x1B4 CALLDATASIZE PUSH1 0x4 PUSH2 0x17E2 JUMP JUMPDEST PUSH2 0x4EC JUMP JUMPDEST PUSH1 0x40 MLOAD PUSH1 0x1 PUSH1 0x1 PUSH1 0xA0 SHL SUB SWAP1 SWAP2 AND DUP2 MSTORE PUSH1 0x20 ADD PUSH2 0x15F JUMP JUMPDEST PUSH2 0x1B9 PUSH2 0x1DF CALLDATASIZE PUSH1 0x4 PUSH2 0x17E2 JUMP JUMPDEST DUP1 MLOAD PUSH1 0x20 DUP2 DUP4 ADD DUP2 ADD DUP1 MLOAD PUSH1 0x3 DUP3 MSTORE SWAP3 DUP3 ADD SWAP2 SWAP1 SWAP4 ADD KECCAK256 SWAP2 MSTORE SLOAD PUSH1 0x1 PUSH1 0x1 PUSH1 0xA0 SHL SUB AND DUP2 JUMP JUMPDEST PUSH2 0x218 PUSH2 0x213 CALLDATASIZE PUSH1 0x4 PUSH2 0x181C JUMP JUMPDEST PUSH2 0x5AD JUMP JUMPDEST PUSH1 0x40 MLOAD PUSH2 0x15F SWAP2 SWAP1 PUSH2 0x1861 JUMP JUMPDEST PUSH2 0x128 PUSH2 0x653 JUMP JUMPDEST PUSH2 0x218 PUSH2 0x23B CALLDATASIZE PUSH1 0x4 PUSH2 0x181C JUMP JUMPDEST PUSH2 0xE68 JUMP JUMPDEST PUSH2 0x128 PUSH2 0x24E CALLDATASIZE PUSH1 0x4 PUSH2 0x1873 JUMP JUMPDEST PUSH2 0xE77 JUMP JUMPDEST PUSH1 0x2 SLOAD PUSH2 0x1B9 SWAP1 PUSH1 0x1 PUSH1 0x1 PUSH1 0xA0 SHL SUB AND DUP2 JUMP JUMPDEST PUSH2 0x218 PUSH2 0x274 CALLDATASIZE PUSH1 0x4 PUSH2 0x18C2 JUMP JUMPDEST PUSH2 0x108A JUMP JUMPDEST PUSH2 0x155 PUSH1 0x9 SLOAD DUP2 JUMP JUMPDEST PUSH2 0x28A PUSH2 0x10C7 JUMP JUMPDEST PUSH1 0x40 MLOAD PUSH2 0x15F SWAP2 SWAP1 PUSH2 0x1963 JUMP JUMPDEST PUSH1 0x1 SLOAD PUSH2 0x1B9 SWAP1 PUSH1 0x1 PUSH1 0x1 PUSH1 0xA0 SHL SUB AND DUP2 JUMP JUMPDEST PUSH2 0x28A PUSH2 0x119B JUMP JUMPDEST PUSH2 0x218 PUSH2 0x2C0 CALLDATASIZE PUSH1 0x4 PUSH2 0x181C JUMP JUMPDEST PUSH2 0x1266 JUMP JUMPDEST PUSH2 0x128 PUSH2 0x2D3 CALLDATASIZE PUSH1 0x4 PUSH2 0x1873 JUMP JUMPDEST PUSH2 0x1275 JUMP JUMPDEST PUSH2 0x2E0 PUSH2 0x1487 JUMP JUMPDEST PUSH1 0x1 SLOAD PUSH1 0x1 PUSH1 0x1 PUSH1 0xA0 SHL SUB AND CALLER EQ PUSH2 0x352 JUMPI PUSH1 0x40 MLOAD PUSH3 0x461BCD PUSH1 0xE5 SHL DUP2 MSTORE PUSH1 0x20 PUSH1 0x4 DUP3 ADD MSTORE PUSH1 0x2A PUSH1 0x24 DUP3 ADD MSTORE PUSH32 0x7468652073656E6465722077617320657870656374656420746F206265207468 PUSH1 0x44 DUP3 ADD MSTORE PUSH10 0x32903232B83637BCB2B9 PUSH1 0xB1 SHL PUSH1 0x64 DUP3 ADD MSTORE PUSH1 0x84 ADD JUMPDEST PUSH1 0x40 MLOAD DUP1 SWAP2 SUB SWAP1 REVERT JUMPDEST PUSH1 0x2 DUP1 SLOAD PUSH1 0x1 PUSH1 0x1 PUSH1 0xA0 SHL SUB NOT AND PUSH1 0x1 PUSH1 0x1 PUSH1 0xA0 SHL SUB DUP4 AND SWAP1 DUP2 OR SWAP1 SWAP2 SSTORE PUSH1 0x40 MLOAD PUSH32 0xA16907E9030F7A27DD100153173E6B01401F940D851E6F7095937F2773E561B2 SWAP1 PUSH0 SWAP1 LOG2 PUSH2 0x3A1 PUSH1 0x1 PUSH0 SSTORE JUMP JUMPDEST POP JUMP JUMPDEST PUSH2 0x3AC PUSH2 0x1487 JUMP JUMPDEST PUSH1 0x9 SLOAD ISZERO PUSH2 0x412 JUMPI PUSH1 0x40 MLOAD PUSH3 0x461BCD PUSH1 0xE5 SHL DUP2 MSTORE PUSH1 0x20 PUSH1 0x4 DUP3 ADD MSTORE PUSH1 0x2D PUSH1 0x24 DUP3 ADD MSTORE PUSH32 0x746865726520697320616C726561647920612070656E64696E67207570677261 PUSH1 0x44 DUP3 ADD MSTORE PUSH13 0x646520696E2070726F63657373 PUSH1 0x98 SHL PUSH1 0x64 DUP3 ADD MSTORE PUSH1 0x84 ADD PUSH2 0x349 JUMP JUMPDEST PUSH1 0x2 SLOAD PUSH1 0x1 PUSH1 0x1 PUSH1 0xA0 SHL SUB AND PUSH2 0x43A JUMPI PUSH1 0x40 MLOAD PUSH3 0x461BCD PUSH1 0xE5 SHL DUP2 MSTORE PUSH1 0x4 ADD PUSH2 0x349 SWAP1 PUSH2 0x19C6 JUMP JUMPDEST PUSH1 0x2 SLOAD PUSH1 0x40 MLOAD PUSH4 0x16C1076F PUSH1 0xE0 SHL DUP2 MSTORE PUSH1 0x1 PUSH1 0x1 PUSH1 0xA0 SHL SUB DUP4 DUP2 AND PUSH1 0x4 DUP4 ADD MSTORE PUSH0 SWAP3 AND SWAP1 PUSH4 0x16C1076F SWAP1 PUSH1 0x24 ADD PUSH1 0x20 PUSH1 0x40 MLOAD DUP1 DUP4 SUB DUP2 PUSH0 DUP8 GAS CALL ISZERO DUP1 ISZERO PUSH2 0x483 JUMPI RETURNDATASIZE PUSH0 DUP1 RETURNDATACOPY RETURNDATASIZE PUSH0 REVERT JUMPDEST POP POP POP POP PUSH1 0x40 MLOAD RETURNDATASIZE PUSH1 0x1F NOT PUSH1 0x1F DUP3 ADD AND DUP3 ADD DUP1 PUSH1 0x40 MSTORE POP DUP2 ADD SWAP1 PUSH2 0x4A7 SWAP2 SWAP1 PUSH2 0x1A09 JUMP JUMPDEST PUSH1 0x9 DUP2 SWAP1 SSTORE PUSH1 0x40 MLOAD SWAP1 SWAP2 POP PUSH1 0x1 PUSH1 0x1 PUSH1 0xA0 SHL SUB DUP4 AND SWAP1 PUSH32 0x130BF33540470B3A07F23B1164785A20ACD90A150A4A00E976740C8F941C71DB SWAP1 PUSH0 SWAP1 LOG2 POP PUSH2 0x3A1 PUSH1 0x1 PUSH0 SSTORE JUMP JUMPDEST PUSH0 DUP1 PUSH1 0x1 PUSH1 0x1 PUSH1 0xA0 SHL SUB AND PUSH1 0x3 DUP4 PUSH1 0x40 MLOAD PUSH2 0x507 SWAP2 SWAP1 PUSH2 0x1A37 JUMP JUMPDEST SWAP1 DUP2 MSTORE PUSH1 0x40 MLOAD SWAP1 DUP2 SWAP1 SUB PUSH1 0x20 ADD SWAP1 KECCAK256 SLOAD PUSH1 0x1 PUSH1 0x1 PUSH1 0xA0 SHL SUB AND SUB PUSH2 0x57E JUMPI PUSH1 0x40 MLOAD PUSH3 0x461BCD PUSH1 0xE5 SHL DUP2 MSTORE PUSH1 0x20 PUSH1 0x4 DUP3 ADD MSTORE PUSH1 0x28 PUSH1 0x24 DUP3 ADD MSTORE PUSH32 0x746865206B657920646F6573204E4F5420706F696E7420746F20616E79206465 PUSH1 0x44 DUP3 ADD MSTORE PUSH8 0x70656E64656E6379 PUSH1 0xC0 SHL PUSH1 0x64 DUP3 ADD MSTORE PUSH1 0x84 ADD PUSH2 0x349 JUMP JUMPDEST PUSH1 0x3 DUP3 PUSH1 0x40 MLOAD PUSH2 0x58E SWAP2 SWAP1 PUSH2 0x1A37 JUMP JUMPDEST SWAP1 DUP2 MSTORE PUSH1 0x40 MLOAD SWAP1 DUP2 SWAP1 SUB PUSH1 0x20 ADD SWAP1 KECCAK256 SLOAD PUSH1 0x1 PUSH1 0x1 PUSH1 0xA0 SHL SUB AND SWAP3 SWAP2 POP POP JUMP JUMPDEST PUSH1 0x8 DUP2 DUP2 SLOAD DUP2 LT PUSH2 0x5BC JUMPI PUSH0 DUP1 REVERT JUMPDEST SWAP1 PUSH0 MSTORE PUSH1 0x20 PUSH0 KECCAK256 ADD PUSH0 SWAP2 POP SWAP1 POP DUP1 SLOAD PUSH2 0x5D4 SWAP1 PUSH2 0x1A42 JUMP JUMPDEST DUP1 PUSH1 0x1F ADD PUSH1 0x20 DUP1 SWAP2 DIV MUL PUSH1 0x20 ADD PUSH1 0x40 MLOAD SWAP1 DUP2 ADD PUSH1 0x40 MSTORE DUP1 SWAP3 SWAP2 SWAP1 DUP2 DUP2 MSTORE PUSH1 0x20 ADD DUP3 DUP1 SLOAD PUSH2 0x600 SWAP1 PUSH2 0x1A42 JUMP JUMPDEST DUP1 ISZERO PUSH2 0x64B JUMPI DUP1 PUSH1 0x1F LT PUSH2 0x622 JUMPI PUSH2 0x100 DUP1 DUP4 SLOAD DIV MUL DUP4 MSTORE SWAP2 PUSH1 0x20 ADD SWAP2 PUSH2 0x64B JUMP JUMPDEST DUP3 ADD SWAP2 SWAP1 PUSH0 MSTORE PUSH1 0x20 PUSH0 KECCAK256 SWAP1 JUMPDEST DUP2 SLOAD DUP2 MSTORE SWAP1 PUSH1 0x1 ADD SWAP1 PUSH1 0x20 ADD DUP1 DUP4 GT PUSH2 0x62E JUMPI DUP3 SWAP1 SUB PUSH1 0x1F AND DUP3 ADD SWAP2 JUMPDEST POP POP POP POP POP DUP2 JUMP JUMPDEST PUSH2 0x65B PUSH2 0x1487 JUMP JUMPDEST PUSH1 0x2 SLOAD PUSH1 0x1 PUSH1 0x1 PUSH1 0xA0 SHL SUB AND PUSH2 0x683 JUMPI PUSH1 0x40 MLOAD PUSH3 0x461BCD PUSH1 0xE5 SHL DUP2 MSTORE PUSH1 0x4 ADD PUSH2 0x349 SWAP1 PUSH2 0x19C6 JUMP JUMPDEST PUSH1 0x9 SLOAD ISZERO PUSH2 0x79A JUMPI PUSH1 0x2 SLOAD PUSH1 0x9 SLOAD PUSH1 0x40 MLOAD PUSH4 0x156A8DCB PUSH1 0xE1 SHL DUP2 MSTORE PUSH1 0x4 DUP2 ADD SWAP2 SWAP1 SWAP2 MSTORE PUSH0 SWAP2 DUP3 SWAP2 DUP3 SWAP2 PUSH1 0x1 PUSH1 0x1 PUSH1 0xA0 SHL SUB AND SWAP1 PUSH4 0x2AD51B96 SWAP1 PUSH1 0x24 ADD PUSH1 0x60 PUSH1 0x40 MLOAD DUP1 DUP4 SUB DUP2 DUP7 GAS STATICCALL ISZERO DUP1 ISZERO PUSH2 0x6DA JUMPI RETURNDATASIZE PUSH0 DUP1 RETURNDATACOPY RETURNDATASIZE PUSH0 REVERT JUMPDEST POP POP POP POP PUSH1 0x40 MLOAD RETURNDATASIZE PUSH1 0x1F NOT PUSH1 0x1F DUP3 ADD AND DUP3 ADD DUP1 PUSH1 0x40 MSTORE POP DUP2 ADD SWAP1 PUSH2 0x6FE SWAP2 SWAP1 PUSH2 0x1A8E JUMP JUMPDEST SWAP3 POP SWAP3 POP SWAP3 POP DUP2 ISZERO PUSH2 0x70F JUMPI PUSH0 PUSH1 0x9 SSTORE JUMPDEST DUP2 DUP1 ISZERO PUSH2 0x719 JUMPI POP DUP1 JUMPDEST ISZERO PUSH2 0x752 JUMPI PUSH1 0x40 MLOAD PUSH1 0x1 PUSH1 0x1 PUSH1 0xA0 SHL SUB DUP5 AND SWAP1 PUSH32 0xE00A5B97742635032504F47F4C4AE13F19DE32BAB9DB317D70CB5820CCE02935 SWAP1 PUSH0 SWAP1 LOG2 JUMPDEST DUP2 DUP1 ISZERO PUSH2 0x75D JUMPI POP DUP1 ISZERO JUMPDEST ISZERO PUSH2 0x796 JUMPI PUSH1 0x40 MLOAD PUSH1 0x1 PUSH1 0x1 PUSH1 0xA0 SHL SUB DUP5 AND SWAP1 PUSH32 0x563BB4859F75835D1CD4855F062E12DB76CC064572739370C11B20510E382D5B SWAP1 PUSH0 SWAP1 LOG2 JUMPDEST POP POP POP JUMPDEST PUSH1 0x8 SLOAD ISZERO PUSH2 0xB24 JUMPI PUSH1 0x8 SLOAD JUMPDEST DUP1 ISZERO PUSH2 0xB22 JUMPI PUSH0 PUSH2 0x7B8 PUSH1 0x1 DUP4 PUSH2 0x1AE4 JUMP JUMPDEST SWAP1 POP PUSH0 PUSH1 0x8 DUP3 DUP2 SLOAD DUP2 LT PUSH2 0x7CE JUMPI PUSH2 0x7CE PUSH2 0x1AF7 JUMP JUMPDEST SWAP1 PUSH0 MSTORE PUSH1 0x20 PUSH0 KECCAK256 ADD DUP1 SLOAD PUSH2 0x7E1 SWAP1 PUSH2 0x1A42 JUMP JUMPDEST DUP1 PUSH1 0x1F ADD PUSH1 0x20 DUP1 SWAP2 DIV MUL PUSH1 0x20 ADD PUSH1 0x40 MLOAD SWAP1 DUP2 ADD PUSH1 0x40 MSTORE DUP1 SWAP3 SWAP2 SWAP1 DUP2 DUP2 MSTORE PUSH1 0x20 ADD DUP3 DUP1 SLOAD PUSH2 0x80D SWAP1 PUSH2 0x1A42 JUMP JUMPDEST DUP1 ISZERO PUSH2 0x858 JUMPI DUP1 PUSH1 0x1F LT PUSH2 0x82F JUMPI PUSH2 0x100 DUP1 DUP4 SLOAD DIV MUL DUP4 MSTORE SWAP2 PUSH1 0x20 ADD SWAP2 PUSH2 0x858 JUMP JUMPDEST DUP3 ADD SWAP2 SWAP1 PUSH0 MSTORE PUSH1 0x20 PUSH0 KECCAK256 SWAP1 JUMPDEST DUP2 SLOAD DUP2 MSTORE SWAP1 PUSH1 0x1 ADD SWAP1 PUSH1 0x20 ADD DUP1 DUP4 GT PUSH2 0x83B JUMPI DUP3 SWAP1 SUB PUSH1 0x1F AND DUP3 ADD SWAP2 JUMPDEST POP POP POP POP POP SWAP1 POP PUSH0 PUSH1 0x7 DUP3 PUSH1 0x40 MLOAD PUSH2 0x870 SWAP2 SWAP1 PUSH2 0x1A37 JUMP JUMPDEST SWAP1 DUP2 MSTORE PUSH1 0x40 MLOAD SWAP1 DUP2 SWAP1 SUB PUSH1 0x20 ADD DUP2 KECCAK256 SLOAD PUSH1 0x2 SLOAD PUSH4 0xB986F179 PUSH1 0xE0 SHL DUP4 MSTORE SWAP1 SWAP3 POP PUSH0 SWAP2 DUP3 SWAP2 PUSH1 0x1 PUSH1 0x1 PUSH1 0xA0 SHL SUB AND SWAP1 PUSH4 0xB986F179 SWAP1 PUSH2 0x8B6 SWAP1 DUP7 SWAP1 PUSH1 0x4 ADD SWAP1 DUP2 MSTORE PUSH1 0x20 ADD SWAP1 JUMP JUMPDEST PUSH1 0x40 DUP1 MLOAD DUP1 DUP4 SUB DUP2 DUP7 GAS STATICCALL ISZERO DUP1 ISZERO PUSH2 0x8D0 JUMPI RETURNDATASIZE PUSH0 DUP1 RETURNDATACOPY RETURNDATASIZE PUSH0 REVERT JUMPDEST POP POP POP POP PUSH1 0x40 MLOAD RETURNDATASIZE PUSH1 0x1F NOT PUSH1 0x1F DUP3 ADD AND DUP3 ADD DUP1 PUSH1 0x40 MSTORE POP DUP2 ADD SWAP1 PUSH2 0x8F4 SWAP2 SWAP1 PUSH2 0x1B0B JUMP JUMPDEST SWAP2 POP SWAP2 POP DUP2 PUSH2 0x907 JUMPI POP POP POP POP POP PUSH2 0xB10 JUMP JUMPDEST PUSH0 PUSH1 0x3 DUP6 PUSH1 0x40 MLOAD PUSH2 0x918 SWAP2 SWAP1 PUSH2 0x1A37 JUMP JUMPDEST SWAP1 DUP2 MSTORE PUSH1 0x40 MLOAD SWAP1 DUP2 SWAP1 SUB PUSH1 0x20 ADD SWAP1 KECCAK256 SLOAD PUSH1 0x1 PUSH1 0x1 PUSH1 0xA0 SHL SUB AND SWAP1 POP DUP2 ISZERO PUSH2 0xA24 JUMPI PUSH1 0x3 DUP6 PUSH1 0x40 MLOAD PUSH2 0x949 SWAP2 SWAP1 PUSH2 0x1A37 JUMP JUMPDEST SWAP1 DUP2 MSTORE PUSH1 0x40 MLOAD SWAP1 DUP2 SWAP1 SUB PUSH1 0x20 ADD SWAP1 KECCAK256 DUP1 SLOAD PUSH1 0x1 PUSH1 0x1 PUSH1 0xA0 SHL SUB NOT AND SWAP1 SSTORE PUSH1 0x4 DUP1 SLOAD PUSH2 0x976 SWAP1 PUSH1 0x1 SWAP1 PUSH2 0x1AE4 JUMP JUMPDEST DUP2 SLOAD DUP2 LT PUSH2 0x986 JUMPI PUSH2 0x986 PUSH2 0x1AF7 JUMP JUMPDEST SWAP1 PUSH0 MSTORE PUSH1 0x20 PUSH0 KECCAK256 ADD PUSH1 0x4 DUP8 DUP2 SLOAD DUP2 LT PUSH2 0x9A1 JUMPI PUSH2 0x9A1 PUSH2 0x1AF7 JUMP JUMPDEST SWAP1 PUSH0 MSTORE PUSH1 0x20 PUSH0 KECCAK256 ADD SWAP1 DUP2 PUSH2 0x9B5 SWAP2 SWAP1 PUSH2 0x1B88 JUMP JUMPDEST POP PUSH1 0x4 DUP1 SLOAD DUP1 PUSH2 0x9C7 JUMPI PUSH2 0x9C7 PUSH2 0x1C60 JUMP JUMPDEST PUSH1 0x1 SWAP1 SUB DUP2 DUP2 SWAP1 PUSH0 MSTORE PUSH1 0x20 PUSH0 KECCAK256 ADD PUSH0 PUSH2 0x9E0 SWAP2 SWAP1 PUSH2 0x16C0 JUMP JUMPDEST SWAP1 SSTORE DUP1 PUSH1 0x1 PUSH1 0x1 PUSH1 0xA0 SHL SUB AND PUSH32 0x82AA94D0384F3FE5D924376CF325AFCFF8195F30F42758AE710193C432F24AC1 DUP7 PUSH1 0x40 MLOAD PUSH2 0xA1B SWAP2 SWAP1 PUSH2 0x1861 JUMP JUMPDEST PUSH1 0x40 MLOAD DUP1 SWAP2 SUB SWAP1 LOG2 JUMPDEST DUP2 PUSH2 0xA6B JUMPI DUP1 PUSH1 0x1 PUSH1 0x1 PUSH1 0xA0 SHL SUB AND PUSH32 0x402A83BDAD8CEF946824820B268607AEC7303DE64E88533B0BD7EE57A577B954 DUP7 PUSH1 0x40 MLOAD PUSH2 0xA62 SWAP2 SWAP1 PUSH2 0x1861 JUMP JUMPDEST PUSH1 0x40 MLOAD DUP1 SWAP2 SUB SWAP1 LOG2 JUMPDEST PUSH1 0x7 DUP6 PUSH1 0x40 MLOAD PUSH2 0xA7B SWAP2 SWAP1 PUSH2 0x1A37 JUMP JUMPDEST SWAP1 DUP2 MSTORE PUSH1 0x40 MLOAD SWAP1 DUP2 SWAP1 SUB PUSH1 0x20 ADD SWAP1 KECCAK256 PUSH0 SWAP1 SSTORE PUSH1 0x8 DUP1 SLOAD PUSH2 0xA9D SWAP1 PUSH1 0x1 SWAP1 PUSH2 0x1AE4 JUMP JUMPDEST DUP2 SLOAD DUP2 LT PUSH2 0xAAD JUMPI PUSH2 0xAAD PUSH2 0x1AF7 JUMP JUMPDEST SWAP1 PUSH0 MSTORE PUSH1 0x20 PUSH0 KECCAK256 ADD PUSH1 0x8 DUP8 DUP2 SLOAD DUP2 LT PUSH2 0xAC8 JUMPI PUSH2 0xAC8 PUSH2 0x1AF7 JUMP JUMPDEST SWAP1 PUSH0 MSTORE PUSH1 0x20 PUSH0 KECCAK256 ADD SWAP1 DUP2 PUSH2 0xADC SWAP2 SWAP1 PUSH2 0x1B88 JUMP JUMPDEST POP PUSH1 0x8 DUP1 SLOAD DUP1 PUSH2 0xAEE JUMPI PUSH2 0xAEE PUSH2 0x1C60 JUMP JUMPDEST PUSH1 0x1 SWAP1 SUB DUP2 DUP2 SWAP1 PUSH0 MSTORE PUSH1 0x20 PUSH0 KECCAK256 ADD PUSH0 PUSH2 0xB07 SWAP2 SWAP1 PUSH2 0x16C0 JUMP JUMPDEST SWAP1 SSTORE POP POP POP POP POP POP JUMPDEST DUP1 PUSH2 0xB1A DUP2 PUSH2 0x1C74 JUMP JUMPDEST SWAP2 POP POP PUSH2 0x7A6 JUMP JUMPDEST POP JUMPDEST PUSH1 0x6 SLOAD ISZERO PUSH2 0xE5D JUMPI PUSH1 0x6 SLOAD JUMPDEST DUP1 ISZERO PUSH2 0xE5B JUMPI PUSH0 PUSH2 0xB42 PUSH1 0x1 DUP4 PUSH2 0x1AE4 JUMP JUMPDEST SWAP1 POP PUSH0 PUSH1 0x6 DUP3 DUP2 SLOAD DUP2 LT PUSH2 0xB58 JUMPI PUSH2 0xB58 PUSH2 0x1AF7 JUMP JUMPDEST SWAP1 PUSH0 MSTORE PUSH1 0x20 PUSH0 KECCAK256 ADD DUP1 SLOAD PUSH2 0xB6B SWAP1 PUSH2 0x1A42 JUMP JUMPDEST DUP1 PUSH1 0x1F ADD PUSH1 0x20 DUP1 SWAP2 DIV MUL PUSH1 0x20 ADD PUSH1 0x40 MLOAD SWAP1 DUP2 ADD PUSH1 0x40 MSTORE DUP1 SWAP3 SWAP2 SWAP1 DUP2 DUP2 MSTORE PUSH1 0x20 ADD DUP3 DUP1 SLOAD PUSH2 0xB97 SWAP1 PUSH2 0x1A42 JUMP JUMPDEST DUP1 ISZERO PUSH2 0xBE2 JUMPI DUP1 PUSH1 0x1F LT PUSH2 0xBB9 JUMPI PUSH2 0x100 DUP1 DUP4 SLOAD DIV MUL DUP4 MSTORE SWAP2 PUSH1 0x20 ADD SWAP2 PUSH2 0xBE2 JUMP JUMPDEST DUP3 ADD SWAP2 SWAP1 PUSH0 MSTORE PUSH1 0x20 PUSH0 KECCAK256 SWAP1 JUMPDEST DUP2 SLOAD DUP2 MSTORE SWAP1 PUSH1 0x1 ADD SWAP1 PUSH1 0x20 ADD DUP1 DUP4 GT PUSH2 0xBC5 JUMPI DUP3 SWAP1 SUB PUSH1 0x1F AND DUP3 ADD SWAP2 JUMPDEST POP POP POP POP POP SWAP1 POP PUSH0 PUSH1 0x5 DUP3 PUSH1 0x40 MLOAD PUSH2 0xBFA SWAP2 SWAP1 PUSH2 0x1A37 JUMP JUMPDEST SWAP1 DUP2 MSTORE PUSH1 0x40 MLOAD SWAP1 DUP2 SWAP1 SUB PUSH1 0x20 ADD DUP2 KECCAK256 SLOAD PUSH1 0x2 SLOAD PUSH4 0x4F6E1B27 PUSH1 0xE0 SHL DUP4 MSTORE SWAP1 SWAP3 POP PUSH0 SWAP2 DUP3 SWAP2 DUP3 SWAP2 PUSH1 0x1 PUSH1 0x1 PUSH1 0xA0 SHL SUB SWAP1 SWAP2 AND SWAP1 PUSH4 0x4F6E1B27 SWAP1 PUSH2 0xC44 SWAP1 DUP8 SWAP1 PUSH1 0x4 ADD SWAP1 DUP2 MSTORE PUSH1 0x20 ADD SWAP1 JUMP JUMPDEST PUSH1 0x60 PUSH1 0x40 MLOAD DUP1 DUP4 SUB DUP2 DUP7 GAS STATICCALL ISZERO DUP1 ISZERO PUSH2 0xC5F JUMPI RETURNDATASIZE PUSH0 DUP1 RETURNDATACOPY RETURNDATASIZE PUSH0 REVERT JUMPDEST POP POP POP POP PUSH1 0x40 MLOAD RETURNDATASIZE PUSH1 0x1F NOT PUSH1 0x1F DUP3 ADD AND DUP3 ADD DUP1 PUSH1 0x40 MSTORE POP DUP2 ADD SWAP1 PUSH2 0xC83 SWAP2 SWAP1 PUSH2 0x1A8E JUMP JUMPDEST SWAP3 POP SWAP3 POP SWAP3 POP DUP2 PUSH2 0xC99 JUMPI POP POP POP POP POP POP PUSH2 0xE49 JUMP JUMPDEST DUP1 ISZERO PUSH2 0xD5D JUMPI DUP3 PUSH1 0x3 DUP7 PUSH1 0x40 MLOAD PUSH2 0xCB0 SWAP2 SWAP1 PUSH2 0x1A37 JUMP JUMPDEST SWAP1 DUP2 MSTORE PUSH1 0x40 MLOAD SWAP1 DUP2 SWAP1 SUB PUSH1 0x20 ADD SWAP1 KECCAK256 DUP1 SLOAD PUSH1 0x1 PUSH1 0x1 PUSH1 0xA0 SHL SUB SWAP3 SWAP1 SWAP3 AND PUSH1 0x1 PUSH1 0x1 PUSH1 0xA0 SHL SUB NOT SWAP1 SWAP3 AND SWAP2 SWAP1 SWAP2 OR SWAP1 SSTORE PUSH1 0x4 DUP1 SLOAD PUSH1 0x1 DUP2 ADD DUP3 SSTORE PUSH0 SWAP2 SWAP1 SWAP2 MSTORE PUSH32 0x8A35ACFBC15FF81A39AE7D344FD709F28E8600B4AA8C65C6B64BFE7FE36BD19B ADD PUSH2 0xD1A DUP7 DUP3 PUSH2 0x1C89 JUMP JUMPDEST POP DUP3 PUSH1 0x1 PUSH1 0x1 PUSH1 0xA0 SHL SUB AND PUSH32 0x8281F4653EA8E6BA47F1EBEEB1C7E17291003D7E8247666D4D1C46124920BFE6 DUP7 PUSH1 0x40 MLOAD PUSH2 0xD54 SWAP2 SWAP1 PUSH2 0x1861 JUMP JUMPDEST PUSH1 0x40 MLOAD DUP1 SWAP2 SUB SWAP1 LOG2 JUMPDEST DUP1 PUSH2 0xDA4 JUMPI DUP3 PUSH1 0x1 PUSH1 0x1 PUSH1 0xA0 SHL SUB AND PUSH32 0xC4425EBA3FDC6AAF1C08B8892B7B7B5FDCA047F984A94148A7C547E0FAAC2BD3 DUP7 PUSH1 0x40 MLOAD PUSH2 0xD9B SWAP2 SWAP1 PUSH2 0x1861 JUMP JUMPDEST PUSH1 0x40 MLOAD DUP1 SWAP2 SUB SWAP1 LOG2 JUMPDEST PUSH1 0x5 DUP6 PUSH1 0x40 MLOAD PUSH2 0xDB4 SWAP2 SWAP1 PUSH2 0x1A37 JUMP JUMPDEST SWAP1 DUP2 MSTORE PUSH1 0x40 MLOAD SWAP1 DUP2 SWAP1 SUB PUSH1 0x20 ADD SWAP1 KECCAK256 PUSH0 SWAP1 SSTORE PUSH1 0x6 DUP1 SLOAD PUSH2 0xDD6 SWAP1 PUSH1 0x1 SWAP1 PUSH2 0x1AE4 JUMP JUMPDEST DUP2 SLOAD DUP2 LT PUSH2 0xDE6 JUMPI PUSH2 0xDE6 PUSH2 0x1AF7 JUMP JUMPDEST SWAP1 PUSH0 MSTORE PUSH1 0x20 PUSH0 KECCAK256 ADD PUSH1 0x6 DUP8 DUP2 SLOAD DUP2 LT PUSH2 0xE01 JUMPI PUSH2 0xE01 PUSH2 0x1AF7 JUMP JUMPDEST SWAP1 PUSH0 MSTORE PUSH1 0x20 PUSH0 KECCAK256 ADD SWAP1 DUP2 PUSH2 0xE15 SWAP2 SWAP1 PUSH2 0x1B88 JUMP JUMPDEST POP PUSH1 0x6 DUP1 SLOAD DUP1 PUSH2 0xE27 JUMPI PUSH2 0xE27 PUSH2 0x1C60 JUMP JUMPDEST PUSH1 0x1 SWAP1 SUB DUP2 DUP2 SWAP1 PUSH0 MSTORE PUSH1 0x20 PUSH0 KECCAK256 ADD PUSH0 PUSH2 0xE40 SWAP2 SWAP1 PUSH2 0x16C0 JUMP JUMPDEST SWAP1 SSTORE POP POP POP POP POP POP JUMPDEST DUP1 PUSH2 0xE53 DUP2 PUSH2 0x1C74 JUMP JUMPDEST SWAP2 POP POP PUSH2 0xB30 JUMP JUMPDEST POP JUMPDEST PUSH2 0xE66 PUSH1 0x1 PUSH0 SSTORE JUMP JUMPDEST JUMP JUMPDEST PUSH1 0x6 DUP2 DUP2 SLOAD DUP2 LT PUSH2 0x5BC JUMPI PUSH0 DUP1 REVERT JUMPDEST PUSH2 0xE7F PUSH2 0x1487 JUMP JUMPDEST PUSH1 0x2 SLOAD PUSH1 0x1 PUSH1 0x1 PUSH1 0xA0 SHL SUB AND PUSH2 0xEA7 JUMPI PUSH1 0x40 MLOAD PUSH3 0x461BCD PUSH1 0xE5 SHL DUP2 MSTORE PUSH1 0x4 ADD PUSH2 0x349 SWAP1 PUSH2 0x19C6 JUMP JUMPDEST PUSH1 0x1 PUSH1 0x1 PUSH1 0xA0 SHL SUB DUP2 AND PUSH2 0xEFD JUMPI PUSH1 0x40 MLOAD PUSH3 0x461BCD PUSH1 0xE5 SHL DUP2 MSTORE PUSH1 0x20 PUSH1 0x4 DUP3 ADD MSTORE PUSH1 0x1F PUSH1 0x24 DUP3 ADD MSTORE PUSH32 0x74686520636F6E74726163742061646472657373206973206E6F742073657400 PUSH1 0x44 DUP3 ADD MSTORE PUSH1 0x64 ADD PUSH2 0x349 JUMP JUMPDEST PUSH1 0x2 SLOAD PUSH1 0x40 MLOAD PUSH4 0xEACD1D5 PUSH1 0xE1 SHL DUP2 MSTORE PUSH0 SWAP2 PUSH1 0x1 PUSH1 0x1 PUSH1 0xA0 SHL SUB AND SWAP1 PUSH4 0x1D59A3AA SWAP1 PUSH2 0xF2F SWAP1 DUP7 SWAP1 DUP7 SWAP1 PUSH1 0x4 ADD PUSH2 0x1D3C JUMP JUMPDEST PUSH1 0x20 PUSH1 0x40 MLOAD DUP1 DUP4 SUB DUP2 PUSH0 DUP8 GAS CALL ISZERO DUP1 ISZERO PUSH2 0xF4B JUMPI RETURNDATASIZE PUSH0 DUP1 RETURNDATACOPY RETURNDATASIZE PUSH0 REVERT JUMPDEST POP POP POP POP PUSH1 0x40 MLOAD RETURNDATASIZE PUSH1 0x1F NOT PUSH1 0x1F DUP3 ADD AND DUP3 ADD DUP1 PUSH1 0x40 MSTORE POP DUP2 ADD SWAP1 PUSH2 0xF6F SWAP2 SWAP1 PUSH2 0x1A09 JUMP JUMPDEST SWAP1 POP PUSH1 0x5 DUP4 PUSH1 0x40 MLOAD PUSH2 0xF81 SWAP2 SWAP1 PUSH2 0x1A37 JUMP JUMPDEST SWAP1 DUP2 MSTORE PUSH1 0x20 ADD PUSH1 0x40 MLOAD DUP1 SWAP2 SUB SWAP1 KECCAK256 SLOAD PUSH0 EQ PUSH2 0xFDE JUMPI PUSH1 0x40 MLOAD PUSH3 0x461BCD PUSH1 0xE5 SHL DUP2 MSTORE PUSH1 0x20 PUSH1 0x4 DUP3 ADD DUP2 SWAP1 MSTORE PUSH1 0x24 DUP3 ADD MSTORE PUSH32 0x74686520646570656E64656E637920616C726561647920726571756573746564 PUSH1 0x44 DUP3 ADD MSTORE PUSH1 0x64 ADD PUSH2 0x349 JUMP JUMPDEST DUP1 PUSH1 0x5 DUP5 PUSH1 0x40 MLOAD PUSH2 0xFEF SWAP2 SWAP1 PUSH2 0x1A37 JUMP JUMPDEST SWAP1 DUP2 MSTORE PUSH1 0x40 MLOAD SWAP1 DUP2 SWAP1 SUB PUSH1 0x20 ADD SWAP1 KECCAK256 SSTORE PUSH1 0x6 DUP1 SLOAD PUSH1 0x1 DUP2 ADD DUP3 SSTORE PUSH0 SWAP2 SWAP1 SWAP2 MSTORE PUSH32 0xF652222313E28459528D920B65115C16C04F3EFC82AAEDC97BE59F3F377C0D3F ADD PUSH2 0x103A DUP5 DUP3 PUSH2 0x1C89 JUMP JUMPDEST POP DUP2 PUSH1 0x1 PUSH1 0x1 PUSH1 0xA0 SHL SUB AND PUSH32 0x7A561791A5E256AAC8E189115CA0E37A81457D0FC3FACECEB7D1C4907DD55A3A DUP5 PUSH1 0x40 MLOAD PUSH2 0x1074 SWAP2 SWAP1 PUSH2 0x1861 JUMP JUMPDEST PUSH1 0x40 MLOAD DUP1 SWAP2 SUB SWAP1 LOG2 POP PUSH2 0x1086 PUSH1 0x1 PUSH0 SSTORE JUMP JUMPDEST POP POP JUMP JUMPDEST PUSH1 0x60 PUSH2 0x1094 PUSH2 0x1487 JUMP JUMPDEST PUSH0 PUSH2 0x109E DUP6 PUSH2 0x14AF JUMP JUMPDEST DUP5 MLOAD PUSH1 0x20 DUP7 ADD KECCAK256 SWAP1 SWAP2 POP PUSH2 0x10B3 DUP3 DUP3 DUP7 PUSH2 0x1541 JUMP JUMPDEST SWAP3 POP POP POP PUSH2 0x10C0 PUSH1 0x1 PUSH0 SSTORE JUMP JUMPDEST SWAP4 SWAP3 POP POP POP JUMP JUMPDEST PUSH1 0x60 PUSH1 0x6 DUP1 SLOAD DUP1 PUSH1 0x20 MUL PUSH1 0x20 ADD PUSH1 0x40 MLOAD SWAP1 DUP2 ADD PUSH1 0x40 MSTORE DUP1 SWAP3 SWAP2 SWAP1 DUP2 DUP2 MSTORE PUSH1 0x20 ADD PUSH0 SWAP1 JUMPDEST DUP3 DUP3 LT ISZERO PUSH2 0x1192 JUMPI DUP4 DUP3 SWAP1 PUSH0 MSTORE PUSH1 0x20 PUSH0 KECCAK256 ADD DUP1 SLOAD PUSH2 0x1107 SWAP1 PUSH2 0x1A42 JUMP JUMPDEST DUP1 PUSH1 0x1F ADD PUSH1 0x20 DUP1 SWAP2 DIV MUL PUSH1 0x20 ADD PUSH1 0x40 MLOAD SWAP1 DUP2 ADD PUSH1 0x40 MSTORE DUP1 SWAP3 SWAP2 SWAP1 DUP2 DUP2 MSTORE PUSH1 0x20 ADD DUP3 DUP1 SLOAD PUSH2 0x1133 SWAP1 PUSH2 0x1A42 JUMP JUMPDEST DUP1 ISZERO PUSH2 0x117E JUMPI DUP1 PUSH1 0x1F LT PUSH2 0x1155 JUMPI PUSH2 0x100 DUP1 DUP4 SLOAD DIV MUL DUP4 MSTORE SWAP2 PUSH1 0x20 ADD SWAP2 PUSH2 0x117E JUMP JUMPDEST DUP3 ADD SWAP2 SWAP1 PUSH0 MSTORE PUSH1 0x20 PUSH0 KECCAK256 SWAP1 JUMPDEST DUP2 SLOAD DUP2 MSTORE SWAP1 PUSH1 0x1 ADD SWAP1 PUSH1 0x20 ADD DUP1 DUP4 GT PUSH2 0x1161 JUMPI DUP3 SWAP1 SUB PUSH1 0x1F AND DUP3 ADD SWAP2 JUMPDEST POP POP POP POP POP DUP2 MSTORE PUSH1 0x20 ADD SWAP1 PUSH1 0x1 ADD SWAP1 PUSH2 0x10EA JUMP JUMPDEST POP POP POP POP SWAP1 POP SWAP1 JUMP JUMPDEST PUSH1 0x60 PUSH1 0x4 DUP1 SLOAD DUP1 PUSH1 0x20 MUL PUSH1 0x20 ADD PUSH1 0x40 MLOAD SWAP1 DUP2 ADD PUSH1 0x40 MSTORE DUP1 SWAP3 SWAP2 SWAP1 DUP2 DUP2 MSTORE PUSH1 0x20 ADD PUSH0 SWAP1 JUMPDEST DUP3 DUP3 LT ISZERO PUSH2 0x1192 JUMPI DUP4 DUP3 SWAP1 PUSH0 MSTORE PUSH1 0x20 PUSH0 KECCAK256 ADD DUP1 SLOAD PUSH2 0x11DB SWAP1 PUSH2 0x1A42 JUMP JUMPDEST DUP1 PUSH1 0x1F ADD PUSH1 0x20 DUP1 SWAP2 DIV MUL PUSH1 0x20 ADD PUSH1 0x40 MLOAD SWAP1 DUP2 ADD PUSH1 0x40 MSTORE DUP1 SWAP3 SWAP2 SWAP1 DUP2 DUP2 MSTORE PUSH1 0x20 ADD DUP3 DUP1 SLOAD PUSH2 0x1207 SWAP1 PUSH2 0x1A42 JUMP JUMPDEST DUP1 ISZERO PUSH2 0x1252 JUMPI DUP1 PUSH1 0x1F LT PUSH2 0x1229 JUMPI PUSH2 0x100 DUP1 DUP4 SLOAD DIV MUL DUP4 MSTORE SWAP2 PUSH1 0x20 ADD SWAP2 PUSH2 0x1252 JUMP JUMPDEST DUP3 ADD SWAP2 SWAP1 PUSH0 MSTORE PUSH1 0x20 PUSH0 KECCAK256 SWAP1 JUMPDEST DUP2 SLOAD DUP2 MSTORE SWAP1 PUSH1 0x1 ADD SWAP1 PUSH1 0x20 ADD DUP1 DUP4 GT PUSH2 0x1235 JUMPI DUP3 SWAP1 SUB PUSH1 0x1F AND DUP3 ADD SWAP2 JUMPDEST POP POP POP POP POP DUP2 MSTORE PUSH1 0x20 ADD SWAP1 PUSH1 0x1 ADD SWAP1 PUSH2 0x11BE JUMP JUMPDEST PUSH1 0x4 DUP2 DUP2 SLOAD DUP2 LT PUSH2 0x5BC JUMPI PUSH0 DUP1 REVERT JUMPDEST PUSH2 0x127D PUSH2 0x1487 JUMP JUMPDEST PUSH1 0x2 SLOAD PUSH1 0x1 PUSH1 0x1 PUSH1 0xA0 SHL SUB AND PUSH2 0x12A5 JUMPI PUSH1 0x40 MLOAD PUSH3 0x461BCD PUSH1 0xE5 SHL DUP2 MSTORE PUSH1 0x4 ADD PUSH2 0x349 SWAP1 PUSH2 0x19C6 JUMP JUMPDEST PUSH1 0x1 PUSH1 0x1 PUSH1 0xA0 SHL SUB DUP2 AND PUSH2 0x12FB JUMPI PUSH1 0x40 MLOAD PUSH3 0x461BCD PUSH1 0xE5 SHL DUP2 MSTORE PUSH1 0x20 PUSH1 0x4 DUP3 ADD MSTORE PUSH1 0x1F PUSH1 0x24 DUP3 ADD MSTORE PUSH32 0x74686520636F6E74726163742061646472657373206973206E6F742073657400 PUSH1 0x44 DUP3 ADD MSTORE PUSH1 0x64 ADD PUSH2 0x349 JUMP JUMPDEST PUSH1 0x2 SLOAD PUSH1 0x40 MLOAD PUSH4 0x7EC4043 PUSH1 0xE0 SHL DUP2 MSTORE PUSH0 SWAP2 PUSH1 0x1 PUSH1 0x1 PUSH1 0xA0 SHL SUB AND SWAP1 PUSH4 0x7EC4043 SWAP1 PUSH2 0x132D SWAP1 DUP7 SWAP1 DUP7 SWAP1 PUSH1 0x4 ADD PUSH2 0x1D3C JUMP JUMPDEST PUSH1 0x20 PUSH1 0x40 MLOAD DUP1 DUP4 SUB DUP2 PUSH0 DUP8 GAS CALL ISZERO DUP1 ISZERO PUSH2 0x1349 JUMPI RETURNDATASIZE PUSH0 DUP1 RETURNDATACOPY RETURNDATASIZE PUSH0 REVERT JUMPDEST POP POP POP POP PUSH1 0x40 MLOAD RETURNDATASIZE PUSH1 0x1F NOT PUSH1 0x1F DUP3 ADD AND DUP3 ADD DUP1 PUSH1 0x40 MSTORE POP DUP2 ADD SWAP1 PUSH2 0x136D SWAP2 SWAP1 PUSH2 0x1A09 JUMP JUMPDEST SWAP1 POP PUSH1 0x7 DUP4 PUSH1 0x40 MLOAD PUSH2 0x137F SWAP2 SWAP1 PUSH2 0x1A37 JUMP JUMPDEST SWAP1 DUP2 MSTORE PUSH1 0x20 ADD PUSH1 0x40 MLOAD DUP1 SWAP2 SUB SWAP1 KECCAK256 SLOAD PUSH0 EQ PUSH2 0x13F1 JUMPI PUSH1 0x40 MLOAD PUSH3 0x461BCD PUSH1 0xE5 SHL DUP2 MSTORE PUSH1 0x20 PUSH1 0x4 DUP3 ADD MSTORE PUSH1 0x2C PUSH1 0x24 DUP3 ADD MSTORE PUSH32 0x74686520646570656E64656E637920616C726561647920726571756573746564 PUSH1 0x44 DUP3 ADD MSTORE PUSH12 0x8199BDC881C995B5BDD985B PUSH1 0xA2 SHL PUSH1 0x64 DUP3 ADD MSTORE PUSH1 0x84 ADD PUSH2 0x349 JUMP JUMPDEST DUP1 PUSH1 0x7 DUP5 PUSH1 0x40 MLOAD PUSH2 0x1402 SWAP2 SWAP1 PUSH2 0x1A37 JUMP JUMPDEST SWAP1 DUP2 MSTORE PUSH1 0x40 MLOAD SWAP1 DUP2 SWAP1 SUB PUSH1 0x20 ADD SWAP1 KECCAK256 SSTORE PUSH1 0x8 DUP1 SLOAD PUSH1 0x1 DUP2 ADD DUP3 SSTORE PUSH0 SWAP2 SWAP1 SWAP2 MSTORE PUSH32 0xF3F7A9FE364FAAB93B216DA50A3214154F22A0A2B415B23A84C8169E8B636EE3 ADD PUSH2 0x144D DUP5 DUP3 PUSH2 0x1C89 JUMP JUMPDEST POP DUP2 PUSH1 0x1 PUSH1 0x1 PUSH1 0xA0 SHL SUB AND PUSH32 0x4591E03D87E58E2EFF46633BCA8ADFB3336F94CED41A61A4E33D3E061FD0E960 DUP5 PUSH1 0x40 MLOAD PUSH2 0x1074 SWAP2 SWAP1 PUSH2 0x1861 JUMP JUMPDEST PUSH1 0x2 PUSH0 SLOAD SUB PUSH2 0x14A9 JUMPI PUSH1 0x40 MLOAD PUSH4 0x3EE5AEB5 PUSH1 0xE0 SHL DUP2 MSTORE PUSH1 0x4 ADD PUSH1 0x40 MLOAD DUP1 SWAP2 SUB SWAP1 REVERT JUMPDEST PUSH1 0x2 PUSH0 SSTORE JUMP JUMPDEST PUSH0 DUP1 PUSH1 0x1 PUSH1 0x1 PUSH1 0xA0 SHL SUB AND PUSH1 0x3 DUP4 PUSH1 0x40 MLOAD PUSH2 0x14CA SWAP2 SWAP1 PUSH2 0x1A37 JUMP JUMPDEST SWAP1 DUP2 MSTORE PUSH1 0x40 MLOAD SWAP1 DUP2 SWAP1 SUB PUSH1 0x20 ADD SWAP1 KECCAK256 SLOAD PUSH1 0x1 PUSH1 0x1 PUSH1 0xA0 SHL SUB AND SUB PUSH2 0x57E JUMPI PUSH1 0x40 MLOAD PUSH3 0x461BCD PUSH1 0xE5 SHL DUP2 MSTORE PUSH1 0x20 PUSH1 0x4 DUP3 ADD MSTORE PUSH1 0x28 PUSH1 0x24 DUP3 ADD MSTORE PUSH32 0x546865206B657920646F6573204E4F5420706F696E7420746F20616E79206465 PUSH1 0x44 DUP3 ADD MSTORE PUSH8 0x70656E64656E6379 PUSH1 0xC0 SHL PUSH1 0x64 DUP3 ADD MSTORE PUSH1 0x84 ADD PUSH2 0x349 JUMP JUMPDEST PUSH1 0x60 PUSH0 DUP4 DUP4 PUSH1 0x40 MLOAD PUSH1 0x20 ADD PUSH2 0x1557 SWAP3 SWAP2 SWAP1 PUSH2 0x1D65 JUMP JUMPDEST PUSH1 0x40 DUP1 MLOAD PUSH1 0x1F NOT DUP2 DUP5 SUB ADD DUP2 MSTORE SWAP2 SWAP1 MSTORE SWAP1 POP PUSH2 0x157C PUSH1 0x1 PUSH1 0x1 PUSH1 0xA0 SHL SUB DUP7 AND DUP3 PUSH2 0x1585 JUMP JUMPDEST SWAP6 SWAP5 POP POP POP POP POP JUMP JUMPDEST PUSH1 0x60 PUSH2 0x1592 DUP4 DUP4 PUSH0 PUSH2 0x159B JUMP JUMPDEST SWAP1 POP JUMPDEST SWAP3 SWAP2 POP POP JUMP JUMPDEST PUSH1 0x60 DUP2 SELFBALANCE LT ISZERO PUSH2 0x15C7 JUMPI PUSH1 0x40 MLOAD PUSH4 0xCF479181 PUSH1 0xE0 SHL DUP2 MSTORE SELFBALANCE PUSH1 0x4 DUP3 ADD MSTORE PUSH1 0x24 DUP2 ADD DUP4 SWAP1 MSTORE PUSH1 0x44 ADD PUSH2 0x349 JUMP JUMPDEST PUSH0 DUP1 DUP6 PUSH1 0x1 PUSH1 0x1 PUSH1 0xA0 SHL SUB AND DUP5 DUP7 PUSH1 0x40 MLOAD PUSH2 0x15E2 SWAP2 SWAP1 PUSH2 0x1A37 JUMP JUMPDEST PUSH0 PUSH1 0x40 MLOAD DUP1 DUP4 SUB DUP2 DUP6 DUP8 GAS CALL SWAP3 POP POP POP RETURNDATASIZE DUP1 PUSH0 DUP2 EQ PUSH2 0x161C JUMPI PUSH1 0x40 MLOAD SWAP2 POP PUSH1 0x1F NOT PUSH1 0x3F RETURNDATASIZE ADD AND DUP3 ADD PUSH1 0x40 MSTORE RETURNDATASIZE DUP3 MSTORE RETURNDATASIZE PUSH0 PUSH1 0x20 DUP5 ADD RETURNDATACOPY PUSH2 0x1621 JUMP JUMPDEST PUSH1 0x60 SWAP2 POP JUMPDEST POP SWAP2 POP SWAP2 POP PUSH2 0x1631 DUP7 DUP4 DUP4 PUSH2 0x163B JUMP JUMPDEST SWAP7 SWAP6 POP POP POP POP POP POP JUMP JUMPDEST PUSH1 0x60 DUP3 PUSH2 0x1650 JUMPI PUSH2 0x164B DUP3 PUSH2 0x1697 JUMP JUMPDEST PUSH2 0x10C0 JUMP JUMPDEST DUP2 MLOAD ISZERO DUP1 ISZERO PUSH2 0x1667 JUMPI POP PUSH1 0x1 PUSH1 0x1 PUSH1 0xA0 SHL SUB DUP5 AND EXTCODESIZE ISZERO JUMPDEST ISZERO PUSH2 0x1690 JUMPI PUSH1 0x40 MLOAD PUSH4 0x9996B315 PUSH1 0xE0 SHL DUP2 MSTORE PUSH1 0x1 PUSH1 0x1 PUSH1 0xA0 SHL SUB DUP6 AND PUSH1 0x4 DUP3 ADD MSTORE PUSH1 0x24 ADD PUSH2 0x349 JUMP JUMPDEST POP DUP1 PUSH2 0x10C0 JUMP JUMPDEST DUP1 MLOAD ISZERO PUSH2 0x16A7 JUMPI DUP1 MLOAD DUP1 DUP3 PUSH1 0x20 ADD REVERT JUMPDEST PUSH1 0x40 MLOAD PUSH4 0xD6BDA275 PUSH1 0xE0 SHL DUP2 MSTORE PUSH1 0x4 ADD PUSH1 0x40 MLOAD DUP1 SWAP2 SUB SWAP1 REVERT JUMPDEST POP DUP1 SLOAD PUSH2 0x16CC SWAP1 PUSH2 0x1A42 JUMP JUMPDEST PUSH0 DUP3 SSTORE DUP1 PUSH1 0x1F LT PUSH2 0x16DB JUMPI POP POP JUMP JUMPDEST PUSH1 0x1F ADD PUSH1 0x20 SWAP1 DIV SWAP1 PUSH0 MSTORE PUSH1 0x20 PUSH0 KECCAK256 SWAP1 DUP2 ADD SWAP1 PUSH2 0x3A1 SWAP2 SWAP1 JUMPDEST DUP1 DUP3 GT ISZERO PUSH2 0x1706 JUMPI PUSH0 DUP2 SSTORE PUSH1 0x1 ADD PUSH2 0x16F3 JUMP JUMPDEST POP SWAP1 JUMP JUMPDEST PUSH1 0x1 PUSH1 0x1 PUSH1 0xA0 SHL SUB DUP2 AND DUP2 EQ PUSH2 0x3A1 JUMPI PUSH0 DUP1 REVERT JUMPDEST PUSH0 PUSH1 0x20 DUP3 DUP5 SUB SLT ISZERO PUSH2 0x172E JUMPI PUSH0 DUP1 REVERT JUMPDEST DUP2 CALLDATALOAD PUSH2 0x10C0 DUP2 PUSH2 0x170A JUMP JUMPDEST PUSH4 0x4E487B71 PUSH1 0xE0 SHL PUSH0 MSTORE PUSH1 0x41 PUSH1 0x4 MSTORE PUSH1 0x24 PUSH0 REVERT JUMPDEST PUSH0 DUP1 PUSH8 0xFFFFFFFFFFFFFFFF DUP5 GT ISZERO PUSH2 0x1767 JUMPI PUSH2 0x1767 PUSH2 0x1739 JUMP JUMPDEST POP PUSH1 0x40 MLOAD PUSH1 0x1F NOT PUSH1 0x1F DUP6 ADD DUP2 AND PUSH1 0x3F ADD AND DUP2 ADD DUP2 DUP2 LT PUSH8 0xFFFFFFFFFFFFFFFF DUP3 GT OR ISZERO PUSH2 0x1796 JUMPI PUSH2 0x1796 PUSH2 0x1739 JUMP JUMPDEST PUSH1 0x40 MSTORE DUP4 DUP2 MSTORE SWAP1 POP DUP1 DUP3 DUP5 ADD DUP6 LT ISZERO PUSH2 0x17AD JUMPI PUSH0 DUP1 REVERT JUMPDEST DUP4 DUP4 PUSH1 0x20 DUP4 ADD CALLDATACOPY PUSH0 PUSH1 0x20 DUP6 DUP4 ADD ADD MSTORE POP SWAP4 SWAP3 POP POP POP JUMP JUMPDEST PUSH0 DUP3 PUSH1 0x1F DUP4 ADD SLT PUSH2 0x17D3 JUMPI PUSH0 DUP1 REVERT JUMPDEST PUSH2 0x1592 DUP4 DUP4 CALLDATALOAD PUSH1 0x20 DUP6 ADD PUSH2 0x174D JUMP JUMPDEST PUSH0 PUSH1 0x20 DUP3 DUP5 SUB SLT ISZERO PUSH2 0x17F2 JUMPI PUSH0 DUP1 REVERT JUMPDEST DUP2 CALLDATALOAD PUSH8 0xFFFFFFFFFFFFFFFF DUP2 GT ISZERO PUSH2 0x1808 JUMPI PUSH0 DUP1 REVERT JUMPDEST PUSH2 0x1814 DUP5 DUP3 DUP6 ADD PUSH2 0x17C4 JUMP JUMPDEST SWAP5 SWAP4 POP POP POP POP JUMP JUMPDEST PUSH0 PUSH1 0x20 DUP3 DUP5 SUB SLT ISZERO PUSH2 0x182C JUMPI PUSH0 DUP1 REVERT JUMPDEST POP CALLDATALOAD SWAP2 SWAP1 POP JUMP JUMPDEST PUSH0 DUP2 MLOAD DUP1 DUP5 MSTORE DUP1 PUSH1 0x20 DUP5 ADD PUSH1 0x20 DUP7 ADD MCOPY PUSH0 PUSH1 0x20 DUP3 DUP7 ADD ADD MSTORE PUSH1 0x20 PUSH1 0x1F NOT PUSH1 0x1F DUP4 ADD AND DUP6 ADD ADD SWAP2 POP POP SWAP3 SWAP2 POP POP JUMP JUMPDEST PUSH1 0x20 DUP2 MSTORE PUSH0 PUSH2 0x1592 PUSH1 0x20 DUP4 ADD DUP5 PUSH2 0x1833 JUMP JUMPDEST PUSH0 DUP1 PUSH1 0x40 DUP4 DUP6 SUB SLT ISZERO PUSH2 0x1884 JUMPI PUSH0 DUP1 REVERT JUMPDEST DUP3 CALLDATALOAD PUSH8 0xFFFFFFFFFFFFFFFF DUP2 GT ISZERO PUSH2 0x189A JUMPI PUSH0 DUP1 REVERT JUMPDEST PUSH2 0x18A6 DUP6 DUP3 DUP7 ADD PUSH2 0x17C4 JUMP JUMPDEST SWAP3 POP POP PUSH1 0x20 DUP4 ADD CALLDATALOAD PUSH2 0x18B7 DUP2 PUSH2 0x170A JUMP JUMPDEST DUP1 SWAP2 POP POP SWAP3 POP SWAP3 SWAP1 POP JUMP JUMPDEST PUSH0 DUP1 PUSH0 PUSH1 0x60 DUP5 DUP7 SUB SLT ISZERO PUSH2 0x18D4 JUMPI PUSH0 DUP1 REVERT JUMPDEST DUP4 CALLDATALOAD PUSH8 0xFFFFFFFFFFFFFFFF DUP2 GT ISZERO PUSH2 0x18EA JUMPI PUSH0 DUP1 REVERT JUMPDEST PUSH2 0x18F6 DUP7 DUP3 DUP8 ADD PUSH2 0x17C4 JUMP JUMPDEST SWAP4 POP POP PUSH1 0x20 DUP5 ADD CALLDATALOAD PUSH8 0xFFFFFFFFFFFFFFFF DUP2 GT ISZERO PUSH2 0x1912 JUMPI PUSH0 DUP1 REVERT JUMPDEST PUSH2 0x191E DUP7 DUP3 DUP8 ADD PUSH2 0x17C4 JUMP JUMPDEST SWAP3 POP POP PUSH1 0x40 DUP5 ADD CALLDATALOAD PUSH8 0xFFFFFFFFFFFFFFFF DUP2 GT ISZERO PUSH2 0x193A JUMPI PUSH0 DUP1 REVERT JUMPDEST DUP5 ADD PUSH1 0x1F DUP2 ADD DUP7 SGT PUSH2 0x194A JUMPI PUSH0 DUP1 REVERT JUMPDEST PUSH2 0x1959 DUP7 DUP3 CALLDATALOAD PUSH1 0x20 DUP5 ADD PUSH2 0x174D JUMP JUMPDEST SWAP2 POP POP SWAP3 POP SWAP3 POP SWAP3 JUMP JUMPDEST PUSH0 PUSH1 0x20 DUP3 ADD PUSH1 0x20 DUP4 MSTORE DUP1 DUP5 MLOAD DUP1 DUP4 MSTORE PUSH1 0x40 DUP6 ADD SWAP2 POP PUSH1 0x40 DUP2 PUSH1 0x5 SHL DUP7 ADD ADD SWAP3 POP PUSH1 0x20 DUP7 ADD PUSH0 JUMPDEST DUP3 DUP2 LT ISZERO PUSH2 0x19BA JUMPI PUSH1 0x3F NOT DUP8 DUP7 SUB ADD DUP5 MSTORE PUSH2 0x19A5 DUP6 DUP4 MLOAD PUSH2 0x1833 JUMP JUMPDEST SWAP5 POP PUSH1 0x20 SWAP4 DUP5 ADD SWAP4 SWAP2 SWAP1 SWAP2 ADD SWAP1 PUSH1 0x1 ADD PUSH2 0x1989 JUMP JUMPDEST POP SWAP3 SWAP7 SWAP6 POP POP POP POP POP POP JUMP JUMPDEST PUSH1 0x20 DUP1 DUP3 MSTORE PUSH1 0x23 SWAP1 DUP3 ADD MSTORE PUSH32 0x74686520646570656E64656E637920726571756573746572206973206E6F7420 PUSH1 0x40 DUP3 ADD MSTORE PUSH3 0x1CD95D PUSH1 0xEA SHL PUSH1 0x60 DUP3 ADD MSTORE PUSH1 0x80 ADD SWAP1 JUMP JUMPDEST PUSH0 PUSH1 0x20 DUP3 DUP5 SUB SLT ISZERO PUSH2 0x1A19 JUMPI PUSH0 DUP1 REVERT JUMPDEST POP MLOAD SWAP2 SWAP1 POP JUMP JUMPDEST PUSH0 DUP2 MLOAD DUP1 PUSH1 0x20 DUP5 ADD DUP6 MCOPY PUSH0 SWAP4 ADD SWAP3 DUP4 MSTORE POP SWAP1 SWAP2 SWAP1 POP JUMP JUMPDEST PUSH0 PUSH2 0x1592 DUP3 DUP5 PUSH2 0x1A20 JUMP JUMPDEST PUSH1 0x1 DUP2 DUP2 SHR SWAP1 DUP3 AND DUP1 PUSH2 0x1A56 JUMPI PUSH1 0x7F DUP3 AND SWAP2 POP JUMPDEST PUSH1 0x20 DUP3 LT DUP2 SUB PUSH2 0x1A74 JUMPI PUSH4 0x4E487B71 PUSH1 0xE0 SHL PUSH0 MSTORE PUSH1 0x22 PUSH1 0x4 MSTORE PUSH1 0x24 PUSH0 REVERT JUMPDEST POP SWAP2 SWAP1 POP JUMP JUMPDEST DUP1 MLOAD DUP1 ISZERO ISZERO DUP2 EQ PUSH2 0x1A89 JUMPI PUSH0 DUP1 REVERT JUMPDEST SWAP2 SWAP1 POP JUMP JUMPDEST PUSH0 DUP1 PUSH0 PUSH1 0x60 DUP5 DUP7 SUB SLT ISZERO PUSH2 0x1AA0 JUMPI PUSH0 DUP1 REVERT JUMPDEST DUP4 MLOAD PUSH2 0x1AAB DUP2 PUSH2 0x170A JUMP JUMPDEST SWAP3 POP PUSH2 0x1AB9 PUSH1 0x20 DUP6 ADD PUSH2 0x1A7A JUMP JUMPDEST SWAP2 POP PUSH2 0x1AC7 PUSH1 0x40 DUP6 ADD PUSH2 0x1A7A JUMP JUMPDEST SWAP1 POP SWAP3 POP SWAP3 POP SWAP3 JUMP JUMPDEST PUSH4 0x4E487B71 PUSH1 0xE0 SHL PUSH0 MSTORE PUSH1 0x11 PUSH1 0x4 MSTORE PUSH1 0x24 PUSH0 REVERT JUMPDEST DUP2 DUP2 SUB DUP2 DUP2 GT ISZERO PUSH2 0x1595 JUMPI PUSH2 0x1595 PUSH2 0x1AD0 JUMP JUMPDEST PUSH4 0x4E487B71 PUSH1 0xE0 SHL PUSH0 MSTORE PUSH1 0x32 PUSH1 0x4 MSTORE PUSH1 0x24 PUSH0 REVERT JUMPDEST PUSH0 DUP1 PUSH1 0x40 DUP4 DUP6 SUB SLT ISZERO PUSH2 0x1B1C JUMPI PUSH0 DUP1 REVERT JUMPDEST PUSH2 0x1B25 DUP4 PUSH2 0x1A7A JUMP JUMPDEST SWAP2 POP PUSH2 0x1B33 PUSH1 0x20 DUP5 ADD PUSH2 0x1A7A JUMP JUMPDEST SWAP1 POP SWAP3 POP SWAP3 SWAP1 POP JUMP JUMPDEST PUSH1 0x1F DUP3 GT ISZERO PUSH2 0x1B83 JUMPI DUP1 PUSH0 MSTORE PUSH1 0x20 PUSH0 KECCAK256 PUSH1 0x1F DUP5 ADD PUSH1 0x5 SHR DUP2 ADD PUSH1 0x20 DUP6 LT ISZERO PUSH2 0x1B61 JUMPI POP DUP1 JUMPDEST PUSH1 0x1F DUP5 ADD PUSH1 0x5 SHR DUP3 ADD SWAP2 POP JUMPDEST DUP2 DUP2 LT ISZERO PUSH2 0x1B80 JUMPI PUSH0 DUP2 SSTORE PUSH1 0x1 ADD PUSH2 0x1B6D JUMP JUMPDEST POP POP JUMPDEST POP POP POP JUMP JUMPDEST DUP2 DUP2 SUB PUSH2 0x1B93 JUMPI POP POP JUMP JUMPDEST PUSH2 0x1B9D DUP3 SLOAD PUSH2 0x1A42 JUMP JUMPDEST PUSH8 0xFFFFFFFFFFFFFFFF DUP2 GT ISZERO PUSH2 0x1BB5 JUMPI PUSH2 0x1BB5 PUSH2 0x1739 JUMP JUMPDEST PUSH2 0x1BC9 DUP2 PUSH2 0x1BC3 DUP5 SLOAD PUSH2 0x1A42 JUMP JUMPDEST DUP5 PUSH2 0x1B3C JUMP JUMPDEST PUSH0 PUSH1 0x1F DUP3 GT PUSH1 0x1 DUP2 EQ PUSH2 0x1BFD JUMPI PUSH0 DUP4 ISZERO PUSH2 0x1BE3 JUMPI POP DUP5 DUP3 ADD SLOAD JUMPDEST PUSH1 0x1 DUP5 SWAP1 SHL PUSH0 NOT PUSH1 0x3 DUP7 SWAP1 SHL SHR NOT DUP3 AND OR JUMPDEST DUP6 SSTORE POP PUSH2 0x1B80 JUMP JUMPDEST PUSH0 DUP6 DUP2 MSTORE PUSH1 0x20 DUP1 DUP3 KECCAK256 DUP7 DUP4 MSTORE SWAP1 DUP3 KECCAK256 PUSH1 0x1F NOT DUP7 AND SWAP3 JUMPDEST DUP4 DUP2 LT ISZERO PUSH2 0x1C33 JUMPI DUP3 DUP7 ADD SLOAD DUP3 SSTORE PUSH1 0x1 SWAP6 DUP7 ADD SWAP6 SWAP1 SWAP2 ADD SWAP1 PUSH1 0x20 ADD PUSH2 0x1C13 JUMP JUMPDEST POP DUP6 DUP4 LT ISZERO PUSH2 0x1C50 JUMPI DUP2 DUP6 ADD SLOAD PUSH0 NOT PUSH1 0x3 DUP9 SWAP1 SHL PUSH1 0xF8 AND SHR NOT AND DUP2 SSTORE JUMPDEST POP POP POP POP POP PUSH1 0x1 SWAP1 DUP2 SHL ADD SWAP1 SSTORE POP JUMP JUMPDEST PUSH4 0x4E487B71 PUSH1 0xE0 SHL PUSH0 MSTORE PUSH1 0x31 PUSH1 0x4 MSTORE PUSH1 0x24 PUSH0 REVERT JUMPDEST PUSH0 DUP2 PUSH2 0x1C82 JUMPI PUSH2 0x1C82 PUSH2 0x1AD0 JUMP JUMPDEST POP PUSH0 NOT ADD SWAP1 JUMP JUMPDEST DUP2 MLOAD PUSH8 0xFFFFFFFFFFFFFFFF DUP2 GT ISZERO PUSH2 0x1CA3 JUMPI PUSH2 0x1CA3 PUSH2 0x1739 JUMP JUMPDEST PUSH2 0x1CB1 DUP2 PUSH2 0x1BC3 DUP5 SLOAD PUSH2 0x1A42 JUMP JUMPDEST PUSH1 0x20 PUSH1 0x1F DUP3 GT PUSH1 0x1 DUP2 EQ PUSH2 0x1CE1 JUMPI PUSH0 DUP4 ISZERO PUSH2 0x1BE3 JUMPI POP DUP2 DUP6 ADD MLOAD PUSH1 0x1 DUP5 SWAP1 SHL PUSH0 NOT PUSH1 0x3 DUP7 SWAP1 SHL SHR NOT DUP3 AND OR PUSH2 0x1BF5 JUMP JUMPDEST PUSH0 DUP5 DUP2 MSTORE PUSH1 0x20 DUP2 KECCAK256 PUSH1 0x1F NOT DUP6 AND SWAP2 JUMPDEST DUP3 DUP2 LT ISZERO PUSH2 0x1D10 JUMPI DUP8 DUP6 ADD MLOAD DUP3 SSTORE PUSH1 0x20 SWAP5 DUP6 ADD SWAP5 PUSH1 0x1 SWAP1 SWAP3 ADD SWAP2 ADD PUSH2 0x1CF0 JUMP JUMPDEST POP DUP5 DUP3 LT ISZERO PUSH2 0x1D2D JUMPI DUP7 DUP5 ADD MLOAD PUSH0 NOT PUSH1 0x3 DUP8 SWAP1 SHL PUSH1 0xF8 AND SHR NOT AND DUP2 SSTORE JUMPDEST POP POP POP POP PUSH1 0x1 SWAP1 DUP2 SHL ADD SWAP1 SSTORE POP JUMP JUMPDEST PUSH1 0x40 DUP2 MSTORE PUSH0 PUSH2 0x1D4E PUSH1 0x40 DUP4 ADD DUP6 PUSH2 0x1833 JUMP JUMPDEST SWAP1 POP PUSH1 0x1 DUP1 PUSH1 0xA0 SHL SUB DUP4 AND PUSH1 0x20 DUP4 ADD MSTORE SWAP4 SWAP3 POP POP POP JUMP JUMPDEST PUSH1 0x1 PUSH1 0x1 PUSH1 0xE0 SHL SUB NOT DUP4 AND DUP2 MSTORE PUSH0 PUSH2 0x1814 PUSH1 0x4 DUP4 ADD DUP5 PUSH2 0x1A20 JUMP INVALID LOG2 PUSH5 0x6970667358 0x22 SLT KECCAK256 NOT SWAP12 0xC7 STOP ADDRESS 0xB0 DUP13 CREATE2 0xCB 0xCF LOG3 0xA8 0xD6 0xE8 MLOAD PUSH31 0x392CC67CD8F97AB5F11F4B36E982ADAE64736F6C634300081A003300000000 "
				},
				"gasEstimates": {
					"creation": {
						"codeDepositCost": "1521200",
						"executionCost": "47930",
						"totalCost": "1569130"
					},
					"external": {
						"addDependencyRequester(address)": "infinite",
						"approvedDependencies(string)": "infinite",
						"approvedDependenciesKeys(uint256)": "infinite",
						"callFunction(string,string,bytes)": "infinite",
						"dependencyRequester()": "2381",
						"deployer()": "2380",
						"getDependencyAddress(string)": "infinite",
						"getDependencyKeys()": "infinite",
						"getPendingAprovalDependencyKeys()": "infinite",
						"pendingApprovalDependencies(string)": "infinite",
						"pendingApprovalDependenciesKeys(uint256)": "infinite",
						"pendingRemovalDependencies(string)": "infinite",
						"pendingRemovalDependenciesKeys(uint256)": "infinite",
						"pendingUpgradeForItself()": "2372",
						"requestDependencyAddition(string,address)": "infinite",
						"requestDependencyRemoval(string,address)": "infinite",
						"requestUpgradeDependencyRequester(address)": "infinite",
						"updateDependencies()": "infinite"
					},
					"internal": {
						"_callFunctionOnDependency(address,bytes4,bytes memory)": "infinite",
						"_getAddress(string memory)": "infinite",
						"_getSelector(string memory)": "infinite"
					}
				},
				"methodIdentifiers": {
					"addDependencyRequester(address)": "0bcfc717",
					"approvedDependencies(string)": "29d5de01",
					"approvedDependenciesKeys(uint256)": "eebed3a7",
					"callFunction(string,string,bytes)": "a7fee722",
					"dependencyRequester()": "a791edf8",
					"deployer()": "d5f39488",
					"getDependencyAddress(string)": "22418460",
					"getDependencyKeys()": "ec4c2e5d",
					"getPendingAprovalDependencyKeys()": "be6552e6",
					"pendingApprovalDependencies(string)": "1a83f4a3",
					"pendingApprovalDependenciesKeys(uint256)": "7b022fa2",
					"pendingRemovalDependencies(string)": "12c0c8c0",
					"pendingRemovalDependenciesKeys(uint256)": "2cf1366b",
					"pendingUpgradeForItself()": "bc5aef90",
					"requestDependencyAddition(string,address)": "80719893",
					"requestDependencyRemoval(string,address)": "fbe332dc",
					"requestUpgradeDependencyRequester(address)": "16c1076f",
					"updateDependencies()": "6e5ecdff"
				}
			},
			"storageLayout": {
				"storage": [
					{
						"astId": 291,
						"contract": "LegitDAO.sol:LegitDAO",
						"label": "_status",
						"offset": 0,
						"slot": "0",
						"type": "t_uint256"
					},
					{
						"astId": 546,
						"contract": "LegitDAO.sol:LegitDAO",
						"label": "deployer",
						"offset": 0,
						"slot": "1",
						"type": "t_address"
					},
					{
						"astId": 549,
						"contract": "LegitDAO.sol:LegitDAO",
						"label": "dependencyRequester",
						"offset": 0,
						"slot": "2",
						"type": "t_contract(IDependencyRequester)411"
					},
					{
						"astId": 553,
						"contract": "LegitDAO.sol:LegitDAO",
						"label": "approvedDependencies",
						"offset": 0,
						"slot": "3",
						"type": "t_mapping(t_string_memory_ptr,t_address)"
					},
					{
						"astId": 556,
						"contract": "LegitDAO.sol:LegitDAO",
						"label": "approvedDependenciesKeys",
						"offset": 0,
						"slot": "4",
						"type": "t_array(t_string_storage)dyn_storage"
					},
					{
						"astId": 560,
						"contract": "LegitDAO.sol:LegitDAO",
						"label": "pendingApprovalDependencies",
						"offset": 0,
						"slot": "5",
						"type": "t_mapping(t_string_memory_ptr,t_uint256)"
					},
					{
						"astId": 563,
						"contract": "LegitDAO.sol:LegitDAO",
						"label": "pendingApprovalDependenciesKeys",
						"offset": 0,
						"slot": "6",
						"type": "t_array(t_string_storage)dyn_storage"
					},
					{
						"astId": 567,
						"contract": "LegitDAO.sol:LegitDAO",
						"label": "pendingRemovalDependencies",
						"offset": 0,
						"slot": "7",
						"type": "t_mapping(t_string_memory_ptr,t_uint256)"
					},
					{
						"astId": 570,
						"contract": "LegitDAO.sol:LegitDAO",
						"label": "pendingRemovalDependenciesKeys",
						"offset": 0,
						"slot": "8",
						"type": "t_array(t_string_storage)dyn_storage"
					},
					{
						"astId": 572,
						"contract": "LegitDAO.sol:LegitDAO",
						"label": "pendingUpgradeForItself",
						"offset": 0,
						"slot": "9",
						"type": "t_uint256"
					}
				],
				"types": {
					"t_address": {
						"encoding": "inplace",
						"label": "address",
						"numberOfBytes": "20"
					},
					"t_array(t_string_storage)dyn_storage": {
						"base": "t_string_storage",
						"encoding": "dynamic_array",
						"label": "string[]",
						"numberOfBytes": "32"
					},
					"t_contract(IDependencyRequester)411": {
						"encoding": "inplace",
						"label": "contract IDependencyRequester",
						"numberOfBytes": "20"
					},
					"t_mapping(t_string_memory_ptr,t_address)": {
						"encoding": "mapping",
						"key": "t_string_memory_ptr",
						"label": "mapping(string => address)",
						"numberOfBytes": "32",
						"value": "t_address"
					},
					"t_mapping(t_string_memory_ptr,t_uint256)": {
						"encoding": "mapping",
						"key": "t_string_memory_ptr",
						"label": "mapping(string => uint256)",
						"numberOfBytes": "32",
						"value": "t_uint256"
					},
					"t_string_memory_ptr": {
						"encoding": "bytes",
						"label": "string",
						"numberOfBytes": "32"
					},
					"t_string_storage": {
						"encoding": "bytes",
						"label": "string",
						"numberOfBytes": "32"
					},
					"t_uint256": {
						"encoding": "inplace",
						"label": "uint256",
						"numberOfBytes": "32"
					}
				}
			},
			"userdoc": {
				"kind": "user",
				"methods": {},
				"version": 1
			}
		}
	}
}