{
	"tests/mocks/dependency.sol": {
		"MockDependency": {
			"abi": [
				{
					"inputs": [],
					"name": "getValue",
					"outputs": [
						{
							"internalType": "uint256",
							"name": "",
							"type": "uint256"
						}
					],
					"stateMutability": "view",
					"type": "function"
				}
			],
			"devdoc": {
				"kind": "dev",
				"methods": {},
				"version": 1
			},
			"evm": {
				"assembly": "    /* \"tests/mocks/dependency.sol\":80:223  contract MockDependency {... */\n  mstore(0x40, 0x80)\n    /* \"tests/mocks/dependency.sol\":135:136  1 */\n  0x01\n    /* \"tests/mocks/dependency.sol\":110:136  uint256 private _value = 1 */\n  0x00\n  sstore\n    /* \"tests/mocks/dependency.sol\":80:223  contract MockDependency {... */\n  callvalue\n  dup1\n  iszero\n  tag_1\n  jumpi\n  revert(0x00, 0x00)\ntag_1:\n  pop\n  dataSize(sub_0)\n  dup1\n  dataOffset(sub_0)\n  0x00\n  codecopy\n  0x00\n  return\nstop\n\nsub_0: assembly {\n        /* \"tests/mocks/dependency.sol\":80:223  contract MockDependency {... */\n      mstore(0x40, 0x80)\n      callvalue\n      dup1\n      iszero\n      tag_1\n      jumpi\n      revert(0x00, 0x00)\n    tag_1:\n      pop\n      jumpi(tag_2, lt(calldatasize, 0x04))\n      shr(0xe0, calldataload(0x00))\n      dup1\n      0x20965255\n      eq\n      tag_3\n      jumpi\n    tag_2:\n      revert(0x00, 0x00)\n        /* \"tests/mocks/dependency.sol\":142:221  function getValue() view public returns(uint256) {... */\n    tag_3:\n        /* \"tests/mocks/dependency.sol\":182:189  uint256 */\n      0x00\n        /* \"tests/mocks/dependency.sol\":208:214  _value */\n      sload\n        /* \"tests/mocks/dependency.sol\":142:221  function getValue() view public returns(uint256) {... */\n      mload(0x40)\n        /* \"#utility.yul\":160:185   */\n      swap1\n      dup2\n      mstore\n        /* \"#utility.yul\":148:150   */\n      0x20\n        /* \"#utility.yul\":133:151   */\n      add\n        /* \"tests/mocks/dependency.sol\":142:221  function getValue() view public returns(uint256) {... */\n      mload(0x40)\n      dup1\n      swap2\n      sub\n      swap1\n      return\n\n    auxdata: 0xa26469706673582212200bf580573efde5288d2fc69951f260333695e093d628be01d50dbfe65652810c64736f6c634300081c0033\n}\n",
				"bytecode": {
					"linkReferences": {},
					"object": "608060405260015f553480156012575f5ffd5b50607480601e5f395ff3fe6080604052348015600e575f5ffd5b50600436106026575f3560e01c80632096525514602a575b5f5ffd5b5f5460405190815260200160405180910390f3fea26469706673582212200bf580573efde5288d2fc69951f260333695e093d628be01d50dbfe65652810c64736f6c634300081c0033",
					"opcodes": "PUSH1 0x80 PUSH1 0x40 MSTORE PUSH1 0x1 PUSH0 SSTORE CALLVALUE DUP1 ISZERO PUSH1 0x12 JUMPI PUSH0 PUSH0 REVERT JUMPDEST POP PUSH1 0x74 DUP1 PUSH1 0x1E PUSH0 CODECOPY PUSH0 RETURN INVALID PUSH1 0x80 PUSH1 0x40 MSTORE CALLVALUE DUP1 ISZERO PUSH1 0xE JUMPI PUSH0 PUSH0 REVERT JUMPDEST POP PUSH1 0x4 CALLDATASIZE LT PUSH1 0x26 JUMPI PUSH0 CALLDATALOAD PUSH1 0xE0 SHR DUP1 PUSH4 0x20965255 EQ PUSH1 0x2A JUMPI JUMPDEST PUSH0 PUSH0 REVERT JUMPDEST PUSH0 SLOAD PUSH1 0x40 MLOAD SWAP1 DUP2 MSTORE PUSH1 0x20 ADD PUSH1 0x40 MLOAD DUP1 SWAP2 SUB SWAP1 RETURN INVALID LOG2 PUSH5 0x6970667358 0x22 SLT KECCAK256 SIGNEXTEND CREATE2 DUP1 JUMPI RETURNDATACOPY REVERT 0xE5 0x28 DUP14 0x2F 0xC6 SWAP10 MLOAD CALLCODE PUSH1 0x33 CALLDATASIZE SWAP6 0xE0 SWAP4 0xD6 0x28 0xBE ADD 0xD5 0xD 0xBF 0xE6 JUMP MSTORE DUP2 0xC PUSH5 0x736F6C6343 STOP ADDMOD SHR STOP CALLER "
				},
				"gasEstimates": {
					"creation": {
						"codeDepositCost": "23200",
						"executionCost": "22178",
						"totalCost": "45378"
					},
					"external": {
						"getValue()": "2244"
					}
				},
				"methodIdentifiers": {
					"getValue()": "20965255"
				}
			},
			"storageLayout": {
				"storage": [
					{
						"astId": 4,
						"contract": "tests/mocks/dependency.sol:MockDependency",
						"label": "_value",
						"offset": 0,
						"slot": "0",
						"type": "t_uint256"
					}
				],
				"types": {
					"t_uint256": {
						"encoding": "inplace",
						"label": "uint256",
						"numberOfBytes": "32"
					}
				}
			},
			"userdoc": {
				"kind": "user",
				"methods": {},
				"version": 1
			}
		}
	}
}