{
	"data": {
		"bytecode": {
			"linkReferences": {},
			"object": "6080604052348015600e575f5ffd5b506102908061001c5f395ff3fe608060405234801561000f575f5ffd5b5060043610610060575f3560e01c806307ec40431461006457806316c1076f1461008c5780631d59a3aa146100645780632ad51b961461009f5780634f6e1b27146100de578063b986f179146100f5575b5f5ffd5b61007961007236600461015d565b5f92915050565b6040519081526020015b60405180910390f35b61007961009a366004610221565b505f90565b6100b76100ad366004610243565b505f906001908190565b604080516001600160a01b0390941684529115156020840152151590820152606001610083565b6100b76100ec366004610243565b505f9081908190565b61010b610103366004610243565b506001908190565b604080519215158352901515602083015201610083565b634e487b7160e01b5f52604160045260245ffd5b6001600160a01b038116811461014a575f5ffd5b50565b803561015881610136565b919050565b5f5f6040838503121561016e575f5ffd5b823567ffffffffffffffff811115610184575f5ffd5b8301601f81018513610194575f5ffd5b803567ffffffffffffffff8111156101ae576101ae610122565b604051601f8201601f19908116603f0116810167ffffffffffffffff811182821017156101dd576101dd610122565b6040528181528282016020018710156101f4575f5ffd5b816020840160208301375f602083830101528094505050506102186020840161014d565b90509250929050565b5f60208284031215610231575f5ffd5b813561023c81610136565b9392505050565b5f60208284031215610253575f5ffd5b503591905056fea26469706673582212203d7ba861c03a6d809cf4d4957a04161c50751749da59deae9548e99575f0603664736f6c634300081c0033",
			"opcodes": "PUSH1 0x80 PUSH1 0x40 MSTORE CALLVALUE DUP1 ISZERO PUSH1 0xE JUMPI PUSH0 PUSH0 REVERT JUMPDEST POP PUSH2 0x290 DUP1 PUSH2 0x1C PUSH0 CODECOPY PUSH0 RETURN INVALID PUSH1 0x80 PUSH1 0x40 MSTORE CALLVALUE DUP1 ISZERO PUSH2 0xF JUMPI PUSH0 PUSH0 REVERT JUMPDEST POP PUSH1 0x4 CALLDATASIZE LT PUSH2 0x60 JUMPI PUSH0 CALLDATALOAD PUSH1 0xE0 SHR DUP1 PUSH4 0x7EC4043 EQ PUSH2 0x64 JUMPI DUP1 PUSH4 0x16C1076F EQ PUSH2 0x8C JUMPI DUP1 PUSH4 0x1D59A3AA EQ PUSH2 0x64 JUMPI DUP1 PUSH4 0x2AD51B96 EQ PUSH2 0x9F JUMPI DUP1 PUSH4 0x4F6E1B27 EQ PUSH2 0xDE JUMPI DUP1 PUSH4 0xB986F179 EQ PUSH2 0xF5 JUMPI JUMPDEST PUSH0 PUSH0 REVERT JUMPDEST PUSH2 0x79 PUSH2 0x72 CALLDATASIZE PUSH1 0x4 PUSH2 0x15D JUMP JUMPDEST PUSH0 SWAP3 SWAP2 POP POP JUMP JUMPDEST PUSH1 0x40 MLOAD SWAP1 DUP2 MSTORE PUSH1 0x20 ADD JUMPDEST PUSH1 0x40 MLOAD DUP1 SWAP2 SUB SWAP1 RETURN JUMPDEST PUSH2 0x79 PUSH2 0x9A CALLDATASIZE PUSH1 0x4 PUSH2 0x221 JUMP JUMPDEST POP PUSH0 SWAP1 JUMP JUMPDEST PUSH2 0xB7 PUSH2 0xAD CALLDATASIZE PUSH1 0x4 PUSH2 0x243 JUMP JUMPDEST POP PUSH0 SWAP1 PUSH1 0x1 SWAP1 DUP2 SWAP1 JUMP JUMPDEST PUSH1 0x40 DUP1 MLOAD PUSH1 0x1 PUSH1 0x1 PUSH1 0xA0 SHL SUB SWAP1 SWAP5 AND DUP5 MSTORE SWAP2 ISZERO ISZERO PUSH1 0x20 DUP5 ADD MSTORE ISZERO ISZERO SWAP1 DUP3 ADD MSTORE PUSH1 0x60 ADD PUSH2 0x83 JUMP JUMPDEST PUSH2 0xB7 PUSH2 0xEC CALLDATASIZE PUSH1 0x4 PUSH2 0x243 JUMP JUMPDEST POP PUSH0 SWAP1 DUP2 SWAP1 DUP2 SWAP1 JUMP JUMPDEST PUSH2 0x10B PUSH2 0x103 CALLDATASIZE PUSH1 0x4 PUSH2 0x243 JUMP JUMPDEST POP PUSH1 0x1 SWAP1 DUP2 SWAP1 JUMP JUMPDEST PUSH1 0x40 DUP1 MLOAD SWAP3 ISZERO ISZERO DUP4 MSTORE SWAP1 ISZERO ISZERO PUSH1 0x20 DUP4 ADD MSTORE ADD PUSH2 0x83 JUMP JUMPDEST PUSH4 0x4E487B71 PUSH1 0xE0 SHL PUSH0 MSTORE PUSH1 0x41 PUSH1 0x4 MSTORE PUSH1 0x24 PUSH0 REVERT JUMPDEST PUSH1 0x1 PUSH1 0x1 PUSH1 0xA0 SHL SUB DUP2 AND DUP2 EQ PUSH2 0x14A JUMPI PUSH0 PUSH0 REVERT JUMPDEST POP JUMP JUMPDEST DUP1 CALLDATALOAD PUSH2 0x158 DUP2 PUSH2 0x136 JUMP JUMPDEST SWAP2 SWAP1 POP JUMP JUMPDEST PUSH0 PUSH0 PUSH1 0x40 DUP4 DUP6 SUB SLT ISZERO PUSH2 0x16E JUMPI PUSH0 PUSH0 REVERT JUMPDEST DUP3 CALLDATALOAD PUSH8 0xFFFFFFFFFFFFFFFF DUP2 GT ISZERO PUSH2 0x184 JUMPI PUSH0 PUSH0 REVERT JUMPDEST DUP4 ADD PUSH1 0x1F DUP2 ADD DUP6 SGT PUSH2 0x194 JUMPI PUSH0 PUSH0 REVERT JUMPDEST DUP1 CALLDATALOAD PUSH8 0xFFFFFFFFFFFFFFFF DUP2 GT ISZERO PUSH2 0x1AE JUMPI PUSH2 0x1AE PUSH2 0x122 JUMP JUMPDEST PUSH1 0x40 MLOAD PUSH1 0x1F DUP3 ADD PUSH1 0x1F NOT SWAP1 DUP2 AND PUSH1 0x3F ADD AND DUP2 ADD PUSH8 0xFFFFFFFFFFFFFFFF DUP2 GT DUP3 DUP3 LT OR ISZERO PUSH2 0x1DD JUMPI PUSH2 0x1DD PUSH2 0x122 JUMP JUMPDEST PUSH1 0x40 MSTORE DUP2 DUP2 MSTORE DUP3 DUP3 ADD PUSH1 0x20 ADD DUP8 LT ISZERO PUSH2 0x1F4 JUMPI PUSH0 PUSH0 REVERT JUMPDEST DUP2 PUSH1 0x20 DUP5 ADD PUSH1 0x20 DUP4 ADD CALLDATACOPY PUSH0 PUSH1 0x20 DUP4 DUP4 ADD ADD MSTORE DUP1 SWAP5 POP POP POP POP PUSH2 0x218 PUSH1 0x20 DUP5 ADD PUSH2 0x14D JUMP JUMPDEST SWAP1 POP SWAP3 POP SWAP3 SWAP1 POP JUMP JUMPDEST PUSH0 PUSH1 0x20 DUP3 DUP5 SUB SLT ISZERO PUSH2 0x231 JUMPI PUSH0 PUSH0 REVERT JUMPDEST DUP2 CALLDATALOAD PUSH2 0x23C DUP2 PUSH2 0x136 JUMP JUMPDEST SWAP4 SWAP3 POP POP POP JUMP JUMPDEST PUSH0 PUSH1 0x20 DUP3 DUP5 SUB SLT ISZERO PUSH2 0x253 JUMPI PUSH0 PUSH0 REVERT JUMPDEST POP CALLDATALOAD SWAP2 SWAP1 POP JUMP INVALID LOG2 PUSH5 0x6970667358 0x22 SLT KECCAK256 RETURNDATASIZE PUSH28 0xA861C03A6D809CF4D4957A04161C50751749DA59DEAE9548E99575F0 PUSH1 0x36 PUSH5 0x736F6C6343 STOP ADDMOD SHR STOP CALLER "
		},
		"gasEstimates": {
			"creation": {
				"codeDepositCost": "131200",
				"executionCost": "175",
				"totalCost": "131375"
			},
			"external": {
				"isRequestAdditionPositive(uint256)": "418",
				"isRequestRemovalPositive(uint256)": "396",
				"isRequestUpgradePositive(uint256)": "396",
				"requestAddition(string,address)": "infinite",
				"requestRemoval(string,address)": "infinite",
				"requestUpgradeDependencyRequester(address)": "335"
			}
		},
		"methodIdentifiers": {
			"isRequestAdditionPositive(uint256)": "4f6e1b27",
			"isRequestRemovalPositive(uint256)": "b986f179",
			"isRequestUpgradePositive(uint256)": "2ad51b96",
			"requestAddition(string,address)": "1d59a3aa",
			"requestRemoval(string,address)": "07ec4043",
			"requestUpgradeDependencyRequester(address)": "16c1076f"
		}
	},
	"abi": [
		{
			"inputs": [],
			"stateMutability": "nonpayable",
			"type": "constructor"
		},
		{
			"inputs": [
				{
					"internalType": "uint256",
					"name": "identifier",
					"type": "uint256"
				}
			],
			"name": "isRequestAdditionPositive",
			"outputs": [
				{
					"internalType": "address",
					"name": "",
					"type": "address"
				},
				{
					"internalType": "bool",
					"name": "",
					"type": "bool"
				},
				{
					"internalType": "bool",
					"name": "",
					"type": "bool"
				}
			],
			"stateMutability": "pure",
			"type": "function"
		},
		{
			"inputs": [
				{
					"internalType": "uint256",
					"name": "identifier",
					"type": "uint256"
				}
			],
			"name": "isRequestRemovalPositive",
			"outputs": [
				{
					"internalType": "bool",
					"name": "",
					"type": "bool"
				},
				{
					"internalType": "bool",
					"name": "",
					"type": "bool"
				}
			],
			"stateMutability": "pure",
			"type": "function"
		},
		{
			"inputs": [
				{
					"internalType": "uint256",
					"name": "identifier",
					"type": "uint256"
				}
			],
			"name": "isRequestUpgradePositive",
			"outputs": [
				{
					"internalType": "address",
					"name": "",
					"type": "address"
				},
				{
					"internalType": "bool",
					"name": "",
					"type": "bool"
				},
				{
					"internalType": "bool",
					"name": "",
					"type": "bool"
				}
			],
			"stateMutability": "pure",
			"type": "function"
		},
		{
			"inputs": [
				{
					"internalType": "string",
					"name": "dependencyKey",
					"type": "string"
				},
				{
					"internalType": "address",
					"name": "dependencyAddress",
					"type": "address"
				}
			],
			"name": "requestAddition",
			"outputs": [
				{
					"internalType": "uint256",
					"name": "",
					"type": "uint256"
				}
			],
			"stateMutability": "pure",
			"type": "function"
		},
		{
			"inputs": [
				{
					"internalType": "string",
					"name": "dependencyKey",
					"type": "string"
				},
				{
					"internalType": "address",
					"name": "dependencyAddress",
					"type": "address"
				}
			],
			"name": "requestRemoval",
			"outputs": [
				{
					"internalType": "uint256",
					"name": "",
					"type": "uint256"
				}
			],
			"stateMutability": "pure",
			"type": "function"
		},
		{
			"inputs": [
				{
					"internalType": "contract IDependencyRequester",
					"name": "upgradedDependency",
					"type": "address"
				}
			],
			"name": "requestUpgradeDependencyRequester",
			"outputs": [
				{
					"internalType": "uint256",
					"name": "",
					"type": "uint256"
				}
			],
			"stateMutability": "pure",
			"type": "function"
		}
	]
}