{
	"data": {
		"bytecode": {
			"linkReferences": {
				"remix_tests.sol": {
					"Assert": [
						{
							"length": 20,
							"start": 923
						},
						{
							"length": 20,
							"start": 1154
						},
						{
							"length": 20,
							"start": 1596
						},
						{
							"length": 20,
							"start": 1749
						},
						{
							"length": 20,
							"start": 2205
						},
						{
							"length": 20,
							"start": 2617
						},
						{
							"length": 20,
							"start": 3006
						},
						{
							"length": 20,
							"start": 3314
						},
						{
							"length": 20,
							"start": 3621
						},
						{
							"length": 20,
							"start": 3964
						},
						{
							"length": 20,
							"start": 4582
						},
						{
							"length": 20,
							"start": 5001
						},
						{
							"length": 20,
							"start": 5444
						},
						{
							"length": 20,
							"start": 5904
						},
						{
							"length": 20,
							"start": 6738
						},
						{
							"length": 20,
							"start": 6873
						},
						{
							"length": 20,
							"start": 7305
						},
						{
							"length": 20,
							"start": 7459
						},
						{
							"length": 20,
							"start": 7588
						},
						{
							"length": 20,
							"start": 8178
						},
						{
							"length": 20,
							"start": 8331
						},
						{
							"length": 20,
							"start": 8711
						},
						{
							"length": 20,
							"start": 8864
						}
					]
				}
			},
			"object": "60c0604052601060809081526f53616d706c65446570656e64656e637960801b60a05260039061002f90826100d9565b5034801561003b575f80fd5b50610193565b634e487b7160e01b5f52604160045260245ffd5b600181811c9082168061006957607f821691505b60208210810361008757634e487b7160e01b5f52602260045260245ffd5b50919050565b601f8211156100d457805f5260205f20601f840160051c810160208510156100b25750805b601f840160051c820191505b818110156100d1575f81556001016100be565b50505b505050565b81516001600160401b038111156100f2576100f2610041565b610106816101008454610055565b8461008d565b6020601f821160018114610138575f83156101215750848201515b5f19600385901b1c1916600184901b1784556100d1565b5f84815260208120601f198516915b828110156101675787850151825560209485019460019092019101610147565b508482101561018457868401515f19600387901b60f8161c191681555b50505050600190811b01905550565b614fb2806101a05f395ff3fe608060405234801561000f575f80fd5b50600436106100e5575f3560e01c80636331e7d41161008857806371bcaed01161006357806371bcaed01461013b57806394d5a708146101435780639598d6011461014b578063ce17a0c314610153575f80fd5b80636331e7d4146101235780636880dcc11461012b57806371012c4a14610133575f80fd5b80632c39d569116100c35780632c39d569146101035780633d18d6091461010b5780633ef7830b1461011357806351348a431461011b575f80fd5b806302c7ec48146100e95780631101b77f146100f35780631b5ab94e146100fb575b5f80fd5b6100f161015b565b005b6100f1610342565b6100f1610557565b6100f1610e40565b6100f1611068565b6100f161120b565b6100f16113c6565b6100f1611592565b6100f16116ab565b6100f16118da565b6100f1611a45565b6100f1611ba5565b6100f1611d04565b6100f1611f0d565b600480546040516301120c2360e51b81526001600160a01b03909116916322418460916101889101612148565b602060405180830381865afa9250505080156101c1575060408051601f3d908101601f191682019092526101be9181019061218b565b60015b610270576101cd6121ad565b806308c379a00361026657506101e1612207565b806101ec5750610268565b604051637461658b60e11b815273__$acbfb1c35000d78352310b16a054a6b106$__9063e8c2cb16906102239084906004016122f4565b602060405180830381865af415801561023e573d5f803e3d5ffd5b505050506040513d601f19601f820116820180604052508101906102629190612368565b5050565b505b3d5f803e3d5ffd5b50604080516339df137f60e01b81525f60048201526024810191909152603e60448201527f53686f756c6420726576657274207768656e2067657474696e6720646570656e60648201527f64656e63792061646472657373207769746820696e76616c6964206b65790000608482015273__$acbfb1c35000d78352310b16a054a6b106$__906339df137f9060a4015b602060405180830381865af415801561031b573d5f803e3d5ffd5b505050506040513d601f19601f8201168201806040525081019061033f9190612368565b50565b600480545f54604051630bcfc71760e01b81526001600160a01b03918216938101939093521690630bcfc717906024015f604051808303815f87803b158015610389575f80fd5b505af115801561039b573d5f803e3d5ffd5b505060048054600154604051638071989360e01b81526001600160a01b039283169550638071989394506103d6936003939092169101612425565b5f604051808303815f87803b1580156103ed575f80fd5b505af11580156103ff573d5f803e3d5ffd5b505060048054600154604051638071989360e01b81526001600160a01b0392831695506380719893945061043a936003939092169101612425565b5f604051808303815f87803b158015610451575f80fd5b505af1925050508015610462575060015b6104c45761046e6121ad565b806308c379a0036102665750610482612207565b8061048d5750610268565b604051637461658b60e11b815273__$acbfb1c35000d78352310b16a054a6b106$__9063e8c2cb169061022390849060040161244e565b604080516339df137f60e01b81525f60048201526024810182905260448101919091527f53686f756c64206e6f742062652061626c6520746f207265717565737420746860648201527f652073616d6520646570656e64656e6379206164646974696f6e207477696365608482015273__$acbfb1c35000d78352310b16a054a6b106$__906339df137f9060a401610300565b600480545f54604051630bcfc71760e01b81526001600160a01b03918216938101939093521690630bcfc717906024015f604051808303815f87803b15801561059e575f80fd5b505af11580156105b0573d5f803e3d5ffd5b50505f54600180546040516354c82c3560e11b81526001600160a01b03938416955063a990586a94506105ed9390911690829081906004016124f1565b5f604051808303815f87803b158015610604575f80fd5b505af1158015610616573d5f803e3d5ffd5b505050505f60045f9054906101000a90046001600160a01b03166001600160a01b031663be6552e66040518163ffffffff1660e01b81526004015f60405180830381865afa15801561066a573d5f803e3d5ffd5b505050506040513d5f823e601f3d908101601f191682016040526106919190810190612579565b805160405163055e6bcb60e51b815260048101919091525f602482015260606044820152602d60648201527f50656e64696e67204170726f76616c20646570656e64656e63696573206b657960848201526c732073686f756c64206265203160981b60a482015290915073__$acbfb1c35000d78352310b16a054a6b106$__9063abcd79609060c401602060405180830381865af4158015610735573d5f803e3d5ffd5b505050506040513d601f19601f820116820180604052508101906107599190612368565b5060048054600154604051638071989360e01b81526001600160a01b03928316936380719893936107909360039391169101612425565b5f604051808303815f87803b1580156107a7575f80fd5b505af11580156107b9573d5f803e3d5ffd5b505050505f60045f9054906101000a90046001600160a01b03166001600160a01b031663ec4c2e5d6040518163ffffffff1660e01b81526004015f60405180830381865afa15801561080d573d5f803e3d5ffd5b505050506040513d5f823e601f3d908101601f191682016040526108349190810190612579565b805160405163055e6bcb60e51b815260048101919091525f602482015260606044820152602660648201527f417070726f76656420646570656e64656e63696573206b6579732073686f756c60848201526506420626520360d41b60a482015290915073__$acbfb1c35000d78352310b16a054a6b106$__9063abcd79609060c401602060405180830381865af41580156108d1573d5f803e3d5ffd5b505050506040513d601f19601f820116820180604052508101906108f59190612368565b506004805460408051636e5ecdff60e01b815290516001600160a01b0390921692636e5ecdff92828201925f929082900301818387803b158015610937575f80fd5b505af1158015610949573d5f803e3d5ffd5b5050600480546040805163ec4c2e5d60e01b815290516001600160a01b03909216945063ec4c2e5d9350808301925f92918290030181865afa158015610991573d5f803e3d5ffd5b505050506040513d5f823e601f3d908101601f191682016040526109b89190810190612579565b805160405163055e6bcb60e51b815260048101919091526001602482015260606044820152602660648201527f417070726f76656420646570656e64656e63696573206b6579732073686f756c60848201526564206265203160d01b60a482015290915073__$acbfb1c35000d78352310b16a054a6b106$__9063abcd79609060c401602060405180830381865af4158015610a56573d5f803e3d5ffd5b505050506040513d601f19601f82011682018060405250810190610a7a9190612368565b506004805460408051635f32a97360e11b815290516001600160a01b039092169263be6552e692828201925f92908290030181865afa158015610abf573d5f803e3d5ffd5b505050506040513d5f823e601f3d908101601f19168201604052610ae69190810190612579565b805160405163055e6bcb60e51b815260048101919091525f602482015260606044820152602d60648201527f50656e64696e67204170726f76616c20646570656e64656e63696573206b657960848201526c0732073686f756c64206265203609c1b60a482015290925073__$acbfb1c35000d78352310b16a054a6b106$__9063abcd79609060c401602060405180830381865af4158015610b8a573d5f803e3d5ffd5b505050506040513d601f19601f82011682018060405250810190610bae9190612368565b505f604051602001610bea9060408082526008908201526767657456616c756560c01b60608201526080602082018190525f9082015260a00190565b60408051601f1981840301815290829052600480546353ff739160e11b84529193505f926001600160a01b039092169163a7fee72291610c2f91600391879101612658565b5f604051808303815f875af1158015610c4a573d5f803e3d5ffd5b505050506040513d5f823e601f3d908101601f19168201604052610c7191908101906126b0565b8051604051632b080af160e11b815291925073__$acbfb1c35000d78352310b16a054a6b106$__9163561015e291610cad915f906004016126f5565b602060405180830381865af4158015610cc8573d5f803e3d5ffd5b505050506040513d601f19601f82011682018060405250810190610cec9190612368565b50600480546040516301120c2360e51b81525f926001600160a01b0390921691632241846091610d1f916003910161274b565b602060405180830381865afa158015610d3a573d5f803e3d5ffd5b505050506040513d601f19601f82011682018060405250810190610d5e919061218b565b600154604051635fdd2eeb60e11b81526001600160a01b038084166004830152909116602482015260606044820152603460648201527f446570656e64656e637920616464726573732073686f756c64206d6174636820608482015273746865206578706563746564206164647265737360601b60a482015290915073__$acbfb1c35000d78352310b16a054a6b106$__9063bfba5dd69060c401602060405180830381865af4158015610e14573d5f803e3d5ffd5b505050506040513d601f19601f82011682018060405250810190610e389190612368565b505050505050565b5f54600180546040516354c82c3560e11b81526001600160a01b039384169363a990586a93610e7a939092911690829081906004016124f1565b5f604051808303815f87803b158015610e91575f80fd5b505af1158015610ea3573d5f803e3d5ffd5b5050600480545f54604051630bcfc71760e01b81526001600160a01b0391821693810193909352169250630bcfc71791506024015f604051808303815f87803b158015610eee575f80fd5b505af1158015610f00573d5f803e3d5ffd5b505060048054600154604051638071989360e01b81526001600160a01b03928316955063807198939450610f3b936003939092169101612425565b5f604051808303815f87803b158015610f52575f80fd5b505af1158015610f64573d5f803e3d5ffd5b505060048054604051631a83f4a360e01b81525f94506001600160a01b039091169250631a83f4a391610f9a916003910161274b565b602060405180830381865afa158015610fb5573d5f803e3d5ffd5b505050506040513d601f19601f82011682018060405250810190610fd9919061275d565b604051632b080af160e11b8152600481018290525f602482015260606044820152603160648201527f4964656e7469666965722073686f756c64206265206e6f6e2d7a65726f20666f6084820152701c8818481d985b1a59081c995c5d595cdd607a1b60a482015290915073__$acbfb1c35000d78352310b16a054a6b106$__9063561015e29060c401610223565b600480545f54604051630bcfc71760e01b81526001600160a01b03918216938101939093521690630bcfc717906024015f604051808303815f87803b1580156110af575f80fd5b505af11580156110c1573d5f803e3d5ffd5b50506004805460408051636e5ecdff60e01b815290516001600160a01b039092169450636e5ecdff9350808301925f929182900301818387803b158015611106575f80fd5b505af1158015611118573d5f803e3d5ffd5b505050505f60045f9054906101000a90046001600160a01b03166001600160a01b031663ec4c2e5d6040518163ffffffff1660e01b81526004015f60405180830381865afa15801561116c573d5f803e3d5ffd5b505050506040513d5f823e601f3d908101601f191682016040526111939190810190612579565b805160405163055e6bcb60e51b815260048101919091525f602482015260606044820152601f60648201527f4e6f20646570656e64656e636965732073686f756c6420626520616464656400608482015290915073__$acbfb1c35000d78352310b16a054a6b106$__9063abcd79609060a401610223565b600480545f54604051630bcfc71760e01b81526001600160a01b03918216938101939093521690630bcfc717906024015f604051808303815f87803b158015611252575f80fd5b505af1158015611264573d5f803e3d5ffd5b5050600480546002546040516316c1076f60e01b81526001600160a01b03918216938101939093521692506316c1076f91506024015f604051808303815f87803b1580156112b0575f80fd5b505af11580156112c2573d5f803e3d5ffd5b505050505f60045f9054906101000a90046001600160a01b03166001600160a01b031663bc5aef906040518163ffffffff1660e01b8152600401602060405180830381865afa158015611317573d5f803e3d5ffd5b505050506040513d601f19601f8201168201806040525081019061133b919061275d565b604051632b080af160e11b8152600481018290525f602482015260606044820152602d60648201527f50656e64696e672075706772616465206964656e7469666965722073686f756c60848201526c64206265206e6f6e2d7a65726f60981b60a482015290915073__$acbfb1c35000d78352310b16a054a6b106$__9063561015e29060c401610223565b600480545f54604051630bcfc71760e01b81526001600160a01b03918216938101939093521690630bcfc717906024015f604051808303815f87803b15801561140d575f80fd5b505af115801561141f573d5f803e3d5ffd5b505060048054600154604051633ef8ccb760e21b81526001600160a01b03928316955063fbe332dc945061145a936003939092169101612425565b5f604051808303815f87803b158015611471575f80fd5b505af1158015611483573d5f803e3d5ffd5b505060048054604051624b032360e61b81525f94506001600160a01b0390911692506312c0c8c0916114b8916003910161274b565b602060405180830381865afa1580156114d3573d5f803e3d5ffd5b505050506040513d601f19601f820116820180604052508101906114f7919061275d565b604051632b080af160e11b8152600481018290525f602482015260606044820152603960648201527f4964656e7469666965722073686f756c64206265206e6f6e2d7a65726f20666f60848201527f7220612076616c69642072656d6f76616c20726571756573740000000000000060a482015290915073__$acbfb1c35000d78352310b16a054a6b106$__9063561015e29060c401610223565b60405161159e90612122565b604051809103905ff0801580156115b7573d5f803e3d5ffd5b505f80546001600160a01b0319166001600160a01b03929092169190911790556040516115e39061212f565b604051809103905ff0801580156115fc573d5f803e3d5ffd5b50600180546001600160a01b0319166001600160a01b039290921691909117905560405161162990612122565b604051809103905ff080158015611642573d5f803e3d5ffd5b50600280546001600160a01b0319166001600160a01b039290921691909117905560405161166f9061213b565b604051809103905ff080158015611688573d5f803e3d5ffd5b50600480546001600160a01b0319166001600160a01b0392909216919091179055565b5f54600180546040516354c82c3560e11b81526001600160a01b039384169363a990586a936116e5939092911690829081906004016124f1565b5f604051808303815f87803b1580156116fc575f80fd5b505af115801561170e573d5f803e3d5ffd5b5050600480545f54604051630bcfc71760e01b81526001600160a01b0391821693810193909352169250630bcfc71791506024015f604051808303815f87803b158015611759575f80fd5b505af115801561176b573d5f803e3d5ffd5b505060048054600154604051638071989360e01b81526001600160a01b039283169550638071989394506117a6936003939092169101612425565b5f604051808303815f87803b1580156117bd575f80fd5b505af11580156117cf573d5f803e3d5ffd5b50506004805460408051636e5ecdff60e01b815290516001600160a01b039092169450636e5ecdff9350808301925f929182900301818387803b158015611814575f80fd5b505af1158015611826573d5f803e3d5ffd5b5050600480546040516353ff739160e11b81525f94506001600160a01b03909116925063a7fee7229161185c9160039101612774565b5f604051808303815f875af1158015611877573d5f803e3d5ffd5b505050506040513d5f823e601f3d908101601f1916820160405261189e91908101906126b0565b8051604051632b080af160e11b815291925073__$acbfb1c35000d78352310b16a054a6b106$__9163561015e291610223915f906004016126f5565b600480545f54604051630bcfc71760e01b81526001600160a01b03918216938101939093521690630bcfc717906024015f604051808303815f87803b158015611921575f80fd5b505af1158015611933573d5f803e3d5ffd5b5050505073__$acbfb1c35000d78352310b16a054a6b106$__63bfba5dd660045f9054906101000a90046001600160a01b03166001600160a01b031663a791edf86040518163ffffffff1660e01b8152600401602060405180830381865afa1580156119a1573d5f803e3d5ffd5b505050506040513d601f19601f820116820180604052508101906119c5919061218b565b5f5460405160e084901b6001600160e01b03191681526001600160a01b0392831660048201529116602482015260606044820152602e60648201527f446570656e64656e6379207265717565737465722073686f756c64206265207360848201526d32ba10313c903232b83637bcb2b960911b60a482015260c401610300565b600480546040516353ff739160e11b81526001600160a01b039091169163a7fee72291611a7291016127c8565b5f604051808303815f875af1925050508015611aaf57506040513d5f823e601f3d908101601f19168201604052611aac91908101906126b0565b60015b611b1157611abb6121ad565b806308c379a0036102665750611acf612207565b80611ada5750610268565b604051637461658b60e11b815273__$acbfb1c35000d78352310b16a054a6b106$__9063e8c2cb1690610223908490600401612831565b50604080516339df137f60e01b81525f60048201526024810191909152603f60448201527f53686f756c6420726576657274207768656e2063616c6c696e672066756e637460648201527f696f6e207769746820696e76616c696420646570656e64656e6379206b657900608482015273__$acbfb1c35000d78352310b16a054a6b106$__906339df137f9060a401610300565b600480545f54604051630bcfc71760e01b81526001600160a01b03918216938101939093521690630bcfc717906024015f604051808303815f87803b158015611bec575f80fd5b505af1158015611bfe573d5f803e3d5ffd5b5050505073__$acbfb1c35000d78352310b16a054a6b106$__63bfba5dd660045f9054906101000a90046001600160a01b03166001600160a01b031663a791edf86040518163ffffffff1660e01b8152600401602060405180830381865afa158015611c6c573d5f803e3d5ffd5b505050506040513d601f19601f82011682018060405250810190611c90919061218b565b5f5460405160e084901b6001600160e01b03191681526001600160a01b0392831660048201529116602482015260606044820152602260648201527f446570656e64656e6379207265717565737465722073686f756c642062652073608482015261195d60f21b60a482015260c401610300565b600480545f54604051630bcfc71760e01b81526001600160a01b03918216938101939093521690630bcfc717906024015f604051808303815f87803b158015611d4b575f80fd5b505af1158015611d5d573d5f803e3d5ffd5b5050600480546002546040516316c1076f60e01b81526001600160a01b03918216938101939093521692506316c1076f91506024015f604051808303815f87803b158015611da9575f80fd5b505af1158015611dbb573d5f803e3d5ffd5b5050600480546002546040516316c1076f60e01b81526001600160a01b03918216938101939093521692506316c1076f91506024015f604051808303815f87803b158015611e07575f80fd5b505af1925050508015611e18575060015b611e7a57611e246121ad565b806308c379a0036102665750611e38612207565b80611e435750610268565b604051637461658b60e11b815273__$acbfb1c35000d78352310b16a054a6b106$__9063e8c2cb169061022390849060040161289d565b604080516339df137f60e01b81525f60048201526024810191909152603a60448201527f53686f756c64206e6f742062652061626c6520746f207265717565737420616e60648201527f2075706772616465206966206f6e652069732070656e64696e67000000000000608482015273__$acbfb1c35000d78352310b16a054a6b106$__906339df137f9060a401610300565b600480545f54604051630bcfc71760e01b81526001600160a01b03918216938101939093521690630bcfc717906024015f604051808303815f87803b158015611f54575f80fd5b505af1158015611f66573d5f803e3d5ffd5b505060048054600154604051633ef8ccb760e21b81526001600160a01b03928316955063fbe332dc9450611fa1936003939092169101612425565b5f604051808303815f87803b158015611fb8575f80fd5b505af1158015611fca573d5f803e3d5ffd5b505060048054600154604051633ef8ccb760e21b81526001600160a01b03928316955063fbe332dc9450612005936003939092169101612425565b5f604051808303815f87803b15801561201c575f80fd5b505af192505050801561202d575060015b61208f576120396121ad565b806308c379a003610266575061204d612207565b806120585750610268565b604051637461658b60e11b815273__$acbfb1c35000d78352310b16a054a6b106$__9063e8c2cb1690610223908490600401612955565b604080516339df137f60e01b81525f60048201526024810191909152603f60448201527f53686f756c64206e6f742062652061626c6520746f207265717565737420746860648201527f652073616d6520646570656e64656e63792072656d6f76616c20747769636500608482015273__$acbfb1c35000d78352310b16a054a6b106$__906339df137f9060a401610300565b61063480612a0d83390190565b60928061304183390190565b611eaa806130d383390190565b602081525f61217160208301600a815269496e76616c69644b657960b01b602082015260400190565b92915050565b6001600160a01b038116811461033f575f80fd5b5f6020828403121561219b575f80fd5b81516121a681612177565b9392505050565b5f60033d11156121c35760045f803e505f5160e01c5b90565b634e487b7160e01b5f52604160045260245ffd5b601f8201601f1916810167ffffffffffffffff81118282101715612200576122006121c6565b6040525050565b5f60443d10156122145790565b6040513d600319016004823e80513d602482011167ffffffffffffffff8211171561223e57505090565b808201805167ffffffffffffffff81111561225a575050505090565b3d8401600319018282016020011115612274575050505090565b612283602082850101856121da565b509392505050565b5f81518084528060208401602086015e5f602082860101526020601f19601f83011685010191505092915050565b602281527f45787065637465642072656a656374696f6e20666f7220696e76616c6964206b602082015261657960f01b604082015260600190565b606081525f612306606083018461228b565b828103806020850152602882527f746865206b657920646f6573204e4f5420706f696e7420746f20616e7920646560208301526770656e64656e637960c01b604083015260608101604085015250612360606082016122b9565b949350505050565b5f60208284031215612378575f80fd5b815180151581146121a6575f80fd5b80545f90600181811c9082168061239f57607f821691505b6020821081036123bd57634e487b7160e01b5f52602260045260245ffd5b818652602086018180156123d857600181146123ee5761241a565b60ff198516825283151560051b8201955061241a565b5f878152602090205f5b85811015612414578154848201526001909101906020016123f8565b83019650505b505050505092915050565b604081525f6124376040830185612387565b905060018060a01b03831660208301529392505050565b606081525f612460606083018461228b565b828103806020850152602082527f74686520646570656e64656e637920616c726561647920726571756573746564602083015260408101604085015250603160408201527f45787065637465642072656a656374696f6e20666f72206475706c6963617465606082015270081859191a5d1a5bdb881c995c5d595cdd607a1b608082015260a0810191505092915050565b9384526001600160a01b03929092166020840152151560408301521515606082015260800190565b5f8067ffffffffffffffff841115612533576125336121c6565b50604051601f8401601f19166020019061254d82826121da565b809250848152858585011115612561575f80fd5b8484602083015e5f6020868301015250509392505050565b5f60208284031215612589575f80fd5b815167ffffffffffffffff81111561259f575f80fd5b8201601f810184136125af575f80fd5b805167ffffffffffffffff8111156125c9576125c96121c6565b8060051b6040516125dd60208301826121da565b9182526020818401810192908101878411156125f7575f80fd5b6020850192505b8383101561264d57825167ffffffffffffffff81111561261c575f80fd5b8501603f8101891361262c575f80fd5b61263e89602083015160408401612519565b825250602092830192016125fe565b509695505050505050565b606081525f61266a6060830185612387565b828103602084015261269381600a81526967657456616c7565282960b01b602082015260400190565b905082810360408401526126a7818561228b565b95945050505050565b5f602082840312156126c0575f80fd5b815167ffffffffffffffff8111156126d6575f80fd5b8201601f810184136126e6575f80fd5b61236084825160208401612519565b9182526020820152606060408201819052602a908201527f46756e6374696f6e2063616c6c2073686f756c642072657475726e206e6f6e2d608082015269656d707479206461746160b01b60a082015260c00190565b602081525f6121a66020830184612387565b5f6020828403121561276d575f80fd5b5051919050565b606081525f6127866060830184612387565b82810360208401526127af81600a81526967657456616c7565282960b01b602082015260400190565b83810360409094019390935250505f8152602001919050565b606081525f6127f160608301600a815269496e76616c69644b657960b01b602082015260400190565b828103602084015261281a81600a81526967657456616c7565282960b01b602082015260400190565b83810360409094019390935250505f815260200190565b606081525f612843606083018461228b565b828103806020850152602882527f546865206b657920646f6573204e4f5420706f696e7420746f20616e7920646560208301526770656e64656e637960c01b604083015260608101604085015250612360606082016122b9565b606081525f6128af606083018461228b565b828103806020850152602d82527f746865726520697320616c726561647920612070656e64696e6720757067726160208301526c646520696e2070726f6365737360981b604083015260608101604085015250603060608201527f45787065637465642072656a656374696f6e20666f72206475706c696361746560808201526f081d5c19dc985919481c995c5d595cdd60821b60a082015260c0810191505092915050565b606081525f612967606083018461228b565b828103806020850152602c82527f74686520646570656e64656e637920616c72656164792072657175657374656460208301526b08199bdc881c995b5bdd985b60a21b604083015260608101604085015250603060608201527f45787065637465642072656a656374696f6e20666f72206475706c696361746560808201526f081c995b5bdd985b081c995c5d595cdd60821b60a082015260c081019150509291505056fe60806040525f6003555f6004555f600555348015601a575f80fd5b5061060c806100285f395ff3fe608060405234801561000f575f80fd5b5060043610610090575f3560e01c80632ad51b96116100635780632ad51b96146101635780633f301ae5146101ee5780634f6e1b271461026f578063a990586a146102d1578063b986f17914610351575f80fd5b806307ec40431461009457806316c1076f146100ba5780631aeb6c98146100cd5780631d59a3aa14610150575b5f80fd5b6100a76100a236600461045a565b6103c3565b6040519081526020015b60405180910390f35b6100a76100c836600461051e565b6103e2565b61014e6100db36600461054f565b604080516060810182526001600160a01b03948516815292151560208085019182529215158483019081525f9687526001909352942091518254945191511515600160a81b0260ff60a81b19921515600160a01b026001600160a81b031990961691909416179390931792909216179055565b005b6100a761015e36600461045a565b610400565b6101c761017136600461059b565b5f81815260026020908152604091829020825160608101845290546001600160a01b03811680835260ff600160a01b830481161515948401859052600160a81b9092049091161515919093018190529193909250565b604080516001600160a01b03909416845291151560208401521515908201526060016100b1565b61014e6101fc36600461054f565b604080516060810182526001600160a01b03948516815292151560208085019182529215158483019081525f9687526002909352942091518254945191511515600160a81b0260ff60a81b19921515600160a01b026001600160a81b031990961691909416179390931792909216179055565b6101c761027d36600461059b565b5f8181526020818152604091829020825160608101845290546001600160a01b03811680835260ff600160a01b830481161515948401859052600160a81b9092049091161515919093018190529193909250565b61014e6102df36600461054f565b604080516060810182526001600160a01b03948516815292151560208085019182529215158483019081525f96875292869052942091518254945191511515600160a81b0260ff60a81b19921515600160a01b026001600160a81b031990961691909416179390931792909216179055565b6103ac61035f36600461059b565b5f90815260016020908152604091829020825160608101845290546001600160a01b038116825260ff600160a01b820481161515938301849052600160a81b909104161515920182905291565b6040805192151583529015156020830152016100b1565b600480545f91826103d3836105b2565b90915550506004549392505050565b600580545f91826103f2836105b2565b909155505060055492915050565b600380545f9182610410836105b2565b90915550506003549392505050565b634e487b7160e01b5f52604160045260245ffd5b6001600160a01b0381168114610447575f80fd5b50565b803561045581610433565b919050565b5f806040838503121561046b575f80fd5b823567ffffffffffffffff811115610481575f80fd5b8301601f81018513610491575f80fd5b803567ffffffffffffffff8111156104ab576104ab61041f565b604051601f8201601f19908116603f0116810167ffffffffffffffff811182821017156104da576104da61041f565b6040528181528282016020018710156104f1575f80fd5b816020840160208301375f602083830101528094505050506105156020840161044a565b90509250929050565b5f6020828403121561052e575f80fd5b813561053981610433565b9392505050565b80358015158114610455575f80fd5b5f805f8060808587031215610562575f80fd5b84359350602085013561057481610433565b925061058260408601610540565b915061059060608601610540565b905092959194509250565b5f602082840312156105ab575f80fd5b5035919050565b5f600182016105cf57634e487b7160e01b5f52601160045260245ffd5b506001019056fea2646970667358221220d4d8853f991140cd1753cd3cbeef8a1edc9f09ef6d16a4e38dff598f9ad1205064736f6c634300081a0033608060405260015f553480156012575f80fd5b50607480601e5f395ff3fe6080604052348015600e575f80fd5b50600436106026575f3560e01c80632096525514602a575b5f80fd5b5f5460405190815260200160405180910390f3fea2646970667358221220dff8ae503113d9e37d2e43c726bb2dfe775d0be391949dcd8053c6b09545d4cd64736f6c634300081a00336080604052348015600e575f80fd5b5060015f81905580546001600160a01b03191633179055611e78806100325f395ff3fe608060405234801561000f575f80fd5b5060043610610111575f3560e01c8063807198931161009e578063be6552e61161006e578063be6552e614610282578063d5f3948814610297578063ec4c2e5d146102aa578063eebed3a7146102b2578063fbe332dc146102c5575f80fd5b80638071989314610240578063a791edf814610253578063a7fee72214610266578063bc5aef9014610279575f80fd5b806322418460116100e457806322418460146101a657806329d5de01146101d15780632cf1366b146102055780636e5ecdff146102255780637b022fa21461022d575f80fd5b80630bcfc7171461011557806312c0c8c01461012a57806316c1076f146101685780631a83f4a31461017b575b5f80fd5b6101286101233660046117e0565b6102d8565b005b6101556101383660046118a4565b805160208183018101805160078252928201919093012091525481565b6040519081526020015b60405180910390f35b6101286101763660046117e0565b610466565b6101556101893660046118a4565b805160208183018101805160058252928201919093012091525481565b6101b96101b43660046118a4565b6105ae565b6040516001600160a01b03909116815260200161015f565b6101b96101df3660046118a4565b80516020818301810180516003825292820191909301209152546001600160a01b031681565b6102186102133660046118de565b61066f565b60405161015f9190611923565b610128610715565b61021861023b3660046118de565b610f2a565b61012861024e366004611935565b610f39565b6002546101b9906001600160a01b031681565b610218610274366004611984565b61114c565b61015560095481565b61028a611189565b60405161015f9190611a25565b6001546101b9906001600160a01b031681565b61028a61125d565b6102186102c03660046118de565b611328565b6101286102d3366004611935565b611337565b6102e0611549565b6001546001600160a01b031633146103525760405162461bcd60e51b815260206004820152602a60248201527f7468652073656e6465722077617320657870656374656420746f20626520746860448201526932903232b83637bcb2b960b11b60648201526084015b60405180910390fd5b6002546001600160a01b0316156104145760405162461bcd60e51b815260206004820152607460248201527f74686520646570656e64656e6379207265717565737465722068617320616c7260448201527f65616479206265656e207365742c20757365207265717565737455706772616460648201527f65446570656e64656e6379526571756573746572282920696e206f7264657220608482015273746f206368616e676520697420627920766f746560601b60a482015260c401610349565b600280546001600160a01b0319166001600160a01b0383169081179091556040517fa16907e9030f7a27dd100153173e6b01401f940d851e6f7095937f2773e561b2905f90a261046360015f55565b50565b61046e611549565b600954156104d45760405162461bcd60e51b815260206004820152602d60248201527f746865726520697320616c726561647920612070656e64696e6720757067726160448201526c646520696e2070726f6365737360981b6064820152608401610349565b6002546001600160a01b03166104fc5760405162461bcd60e51b815260040161034990611a88565b6002546040516316c1076f60e01b81526001600160a01b0383811660048301525f9216906316c1076f906024016020604051808303815f875af1158015610545573d5f803e3d5ffd5b505050506040513d601f19601f820116820180604052508101906105699190611acb565b60098190556040519091506001600160a01b038316907f130bf33540470b3a07f23b1164785a20acd90a150a4a00e976740c8f941c71db905f90a25061046360015f55565b5f806001600160a01b03166003836040516105c99190611af9565b908152604051908190036020019020546001600160a01b0316036106405760405162461bcd60e51b815260206004820152602860248201527f746865206b657920646f6573204e4f5420706f696e7420746f20616e7920646560448201526770656e64656e637960c01b6064820152608401610349565b6003826040516106509190611af9565b908152604051908190036020019020546001600160a01b031692915050565b6008818154811061067e575f80fd5b905f5260205f20015f91509050805461069690611b04565b80601f01602080910402602001604051908101604052809291908181526020018280546106c290611b04565b801561070d5780601f106106e45761010080835404028352916020019161070d565b820191905f5260205f20905b8154815290600101906020018083116106f057829003601f168201915b505050505081565b61071d611549565b6002546001600160a01b03166107455760405162461bcd60e51b815260040161034990611a88565b6009541561085c5760025460095460405163156a8dcb60e11b815260048101919091525f91829182916001600160a01b031690632ad51b9690602401606060405180830381865afa15801561079c573d5f803e3d5ffd5b505050506040513d601f19601f820116820180604052508101906107c09190611b50565b92509250925081156107d1575f6009555b8180156107db5750805b15610814576040516001600160a01b038416907fe00a5b97742635032504f47f4c4ae13f19de32bab9db317d70cb5820cce02935905f90a25b81801561081f575080155b15610858576040516001600160a01b038416907f563bb4859f75835d1cd4855f062e12db76cc064572739370c11b20510e382d5b905f90a25b5050505b60085415610be6576008545b8015610be4575f61087a600183611ba6565b90505f6008828154811061089057610890611bb9565b905f5260205f200180546108a390611b04565b80601f01602080910402602001604051908101604052809291908181526020018280546108cf90611b04565b801561091a5780601f106108f15761010080835404028352916020019161091a565b820191905f5260205f20905b8154815290600101906020018083116108fd57829003601f168201915b505050505090505f6007826040516109329190611af9565b9081526040519081900360200181205460025463b986f17960e01b83529092505f9182916001600160a01b03169063b986f1799061097890869060040190815260200190565b6040805180830381865afa158015610992573d5f803e3d5ffd5b505050506040513d601f19601f820116820180604052508101906109b69190611bcd565b91509150816109c9575050505050610bd2565b5f6003856040516109da9190611af9565b908152604051908190036020019020546001600160a01b031690508115610ae657600385604051610a0b9190611af9565b90815260405190819003602001902080546001600160a01b031916905560048054610a3890600190611ba6565b81548110610a4857610a48611bb9565b905f5260205f200160048781548110610a6357610a63611bb9565b905f5260205f20019081610a779190611c4a565b506004805480610a8957610a89611d22565b600190038181905f5260205f20015f610aa29190611782565b9055806001600160a01b03167f82aa94d0384f3fe5d924376cf325afcff8195f30f42758ae710193c432f24ac186604051610add9190611923565b60405180910390a25b81610b2d57806001600160a01b03167f402a83bdad8cef946824820b268607aec7303de64e88533b0bd7ee57a577b95486604051610b249190611923565b60405180910390a25b600785604051610b3d9190611af9565b9081526040519081900360200190205f905560088054610b5f90600190611ba6565b81548110610b6f57610b6f611bb9565b905f5260205f200160088781548110610b8a57610b8a611bb9565b905f5260205f20019081610b9e9190611c4a565b506008805480610bb057610bb0611d22565b600190038181905f5260205f20015f610bc99190611782565b90555050505050505b80610bdc81611d36565b915050610868565b505b60065415610f1f576006545b8015610f1d575f610c04600183611ba6565b90505f60068281548110610c1a57610c1a611bb9565b905f5260205f20018054610c2d90611b04565b80601f0160208091040260200160405190810160405280929190818152602001828054610c5990611b04565b8015610ca45780601f10610c7b57610100808354040283529160200191610ca4565b820191905f5260205f20905b815481529060010190602001808311610c8757829003601f168201915b505050505090505f600582604051610cbc9190611af9565b90815260405190819003602001812054600254634f6e1b2760e01b83529092505f91829182916001600160a01b0390911690634f6e1b2790610d0690879060040190815260200190565b606060405180830381865afa158015610d21573d5f803e3d5ffd5b505050506040513d601f19601f82011682018060405250810190610d459190611b50565b92509250925081610d5b57505050505050610f0b565b8015610e1f5782600386604051610d729190611af9565b90815260405190819003602001902080546001600160a01b03929092166001600160a01b0319909216919091179055600480546001810182555f919091527f8a35acfbc15ff81a39ae7d344fd709f28e8600b4aa8c65c6b64bfe7fe36bd19b01610ddc8682611d4b565b50826001600160a01b03167f8281f4653ea8e6ba47f1ebeeb1c7e17291003d7e8247666d4d1c46124920bfe686604051610e169190611923565b60405180910390a25b80610e6657826001600160a01b03167fc4425eba3fdc6aaf1c08b8892b7b7b5fdca047f984a94148a7c547e0faac2bd386604051610e5d9190611923565b60405180910390a25b600585604051610e769190611af9565b9081526040519081900360200190205f905560068054610e9890600190611ba6565b81548110610ea857610ea8611bb9565b905f5260205f200160068781548110610ec357610ec3611bb9565b905f5260205f20019081610ed79190611c4a565b506006805480610ee957610ee9611d22565b600190038181905f5260205f20015f610f029190611782565b90555050505050505b80610f1581611d36565b915050610bf2565b505b610f2860015f55565b565b6006818154811061067e575f80fd5b610f41611549565b6002546001600160a01b0316610f695760405162461bcd60e51b815260040161034990611a88565b6001600160a01b038116610fbf5760405162461bcd60e51b815260206004820152601f60248201527f74686520636f6e74726163742061646472657373206973206e6f7420736574006044820152606401610349565b600254604051630eacd1d560e11b81525f916001600160a01b031690631d59a3aa90610ff19086908690600401611dfe565b6020604051808303815f875af115801561100d573d5f803e3d5ffd5b505050506040513d601f19601f820116820180604052508101906110319190611acb565b90506005836040516110439190611af9565b9081526020016040518091039020545f146110a05760405162461bcd60e51b815260206004820181905260248201527f74686520646570656e64656e637920616c7265616479207265717565737465646044820152606401610349565b806005846040516110b19190611af9565b90815260405190819003602001902055600680546001810182555f919091527ff652222313e28459528d920b65115c16c04f3efc82aaedc97be59f3f377c0d3f016110fc8482611d4b565b50816001600160a01b03167f7a561791a5e256aac8e189115ca0e37a81457d0fc3faceceb7d1c4907dd55a3a846040516111369190611923565b60405180910390a25061114860015f55565b5050565b6060611156611549565b5f61116085611571565b84516020860120909150611175828286611603565b9250505061118260015f55565b9392505050565b60606006805480602002602001604051908101604052809291908181526020015f905b82821015611254578382905f5260205f200180546111c990611b04565b80601f01602080910402602001604051908101604052809291908181526020018280546111f590611b04565b80156112405780601f1061121757610100808354040283529160200191611240565b820191905f5260205f20905b81548152906001019060200180831161122357829003601f168201915b5050505050815260200190600101906111ac565b50505050905090565b60606004805480602002602001604051908101604052809291908181526020015f905b82821015611254578382905f5260205f2001805461129d90611b04565b80601f01602080910402602001604051908101604052809291908181526020018280546112c990611b04565b80156113145780601f106112eb57610100808354040283529160200191611314565b820191905f5260205f20905b8154815290600101906020018083116112f757829003601f168201915b505050505081526020019060010190611280565b6004818154811061067e575f80fd5b61133f611549565b6002546001600160a01b03166113675760405162461bcd60e51b815260040161034990611a88565b6001600160a01b0381166113bd5760405162461bcd60e51b815260206004820152601f60248201527f74686520636f6e74726163742061646472657373206973206e6f7420736574006044820152606401610349565b6002546040516307ec404360e01b81525f916001600160a01b0316906307ec4043906113ef9086908690600401611dfe565b6020604051808303815f875af115801561140b573d5f803e3d5ffd5b505050506040513d601f19601f8201168201806040525081019061142f9190611acb565b90506007836040516114419190611af9565b9081526020016040518091039020545f146114b35760405162461bcd60e51b815260206004820152602c60248201527f74686520646570656e64656e637920616c72656164792072657175657374656460448201526b08199bdc881c995b5bdd985b60a21b6064820152608401610349565b806007846040516114c49190611af9565b90815260405190819003602001902055600880546001810182555f919091527ff3f7a9fe364faab93b216da50a3214154f22a0a2b415b23a84c8169e8b636ee30161150f8482611d4b565b50816001600160a01b03167f4591e03d87e58e2eff46633bca8adfb3336f94ced41a61a4e33d3e061fd0e960846040516111369190611923565b60025f540361156b57604051633ee5aeb560e01b815260040160405180910390fd5b60025f55565b5f806001600160a01b031660038360405161158c9190611af9565b908152604051908190036020019020546001600160a01b0316036106405760405162461bcd60e51b815260206004820152602860248201527f546865206b657920646f6573204e4f5420706f696e7420746f20616e7920646560448201526770656e64656e637960c01b6064820152608401610349565b60605f8383604051602001611619929190611e27565b60408051601f19818403018152919052905061163e6001600160a01b03861682611647565b95945050505050565b606061165483835f61165d565b90505b92915050565b6060814710156116895760405163cf47918160e01b815247600482015260248101839052604401610349565b5f80856001600160a01b031684866040516116a49190611af9565b5f6040518083038185875af1925050503d805f81146116de576040519150601f19603f3d011682016040523d82523d5f602084013e6116e3565b606091505b50915091506116f38683836116fd565b9695505050505050565b6060826117125761170d82611759565b611182565b815115801561172957506001600160a01b0384163b155b1561175257604051639996b31560e01b81526001600160a01b0385166004820152602401610349565b5080611182565b8051156117695780518082602001fd5b60405163d6bda27560e01b815260040160405180910390fd5b50805461178e90611b04565b5f825580601f1061179d575050565b601f0160209004905f5260205f209081019061046391905b808211156117c8575f81556001016117b5565b5090565b6001600160a01b0381168114610463575f80fd5b5f602082840312156117f0575f80fd5b8135611182816117cc565b634e487b7160e01b5f52604160045260245ffd5b5f8067ffffffffffffffff841115611829576118296117fb565b50604051601f19601f85018116603f0116810181811067ffffffffffffffff82111715611858576118586117fb565b60405283815290508082840185101561186f575f80fd5b838360208301375f60208583010152509392505050565b5f82601f830112611895575f80fd5b6116548383356020850161180f565b5f602082840312156118b4575f80fd5b813567ffffffffffffffff8111156118ca575f80fd5b6118d684828501611886565b949350505050565b5f602082840312156118ee575f80fd5b5035919050565b5f81518084528060208401602086015e5f602082860101526020601f19601f83011685010191505092915050565b602081525f61165460208301846118f5565b5f8060408385031215611946575f80fd5b823567ffffffffffffffff81111561195c575f80fd5b61196885828601611886565b9250506020830135611979816117cc565b809150509250929050565b5f805f60608486031215611996575f80fd5b833567ffffffffffffffff8111156119ac575f80fd5b6119b886828701611886565b935050602084013567ffffffffffffffff8111156119d4575f80fd5b6119e086828701611886565b925050604084013567ffffffffffffffff8111156119fc575f80fd5b8401601f81018613611a0c575f80fd5b611a1b8682356020840161180f565b9150509250925092565b5f602082016020835280845180835260408501915060408160051b8601019250602086015f5b82811015611a7c57603f19878603018452611a678583516118f5565b94506020938401939190910190600101611a4b565b50929695505050505050565b60208082526023908201527f74686520646570656e64656e637920726571756573746572206973206e6f74206040820152621cd95d60ea1b606082015260800190565b5f60208284031215611adb575f80fd5b5051919050565b5f81518060208401855e5f93019283525090919050565b5f6116548284611ae2565b600181811c90821680611b1857607f821691505b602082108103611b3657634e487b7160e01b5f52602260045260245ffd5b50919050565b80518015158114611b4b575f80fd5b919050565b5f805f60608486031215611b62575f80fd5b8351611b6d816117cc565b9250611b7b60208501611b3c565b9150611b8960408501611b3c565b90509250925092565b634e487b7160e01b5f52601160045260245ffd5b8181038181111561165757611657611b92565b634e487b7160e01b5f52603260045260245ffd5b5f8060408385031215611bde575f80fd5b611be783611b3c565b9150611bf560208401611b3c565b90509250929050565b601f821115611c4557805f5260205f20601f840160051c81016020851015611c235750805b601f840160051c820191505b81811015611c42575f8155600101611c2f565b50505b505050565b818103611c55575050565b611c5f8254611b04565b67ffffffffffffffff811115611c7757611c776117fb565b611c8b81611c858454611b04565b84611bfe565b5f601f821160018114611cbf575f8315611ca55750848201545b600184901b5f19600386901b1c198216175b855550611c42565b5f8581526020808220868352908220601f198616925b83811015611cf55782860154825560019586019590910190602001611cd5565b5085831015611d1257818501545f19600388901b60f8161c191681555b5050505050600190811b01905550565b634e487b7160e01b5f52603160045260245ffd5b5f81611d4457611d44611b92565b505f190190565b815167ffffffffffffffff811115611d6557611d656117fb565b611d7381611c858454611b04565b6020601f821160018114611da3575f8315611ca5575081850151600184901b5f19600386901b1c19821617611cb7565b5f84815260208120601f198516915b82811015611dd25787850151825560209485019460019092019101611db2565b5084821015611def57868401515f19600387901b60f8161c191681555b50505050600190811b01905550565b604081525f611e1060408301856118f5565b905060018060a01b03831660208301529392505050565b6001600160e01b0319831681525f6118d66004830184611ae256fea2646970667358221220820fb1b1aa5b6098866406259b5d2ae623d2cae7080f2e50be3a31ad7cffd88e64736f6c634300081a0033a264697066735822122053d75d00b7dccf218588a47992945f42624e7f77fd9333986fe56fd864a4edd364736f6c634300081a0033",
			"opcodes": "PUSH1 0xC0 PUSH1 0x40 MSTORE PUSH1 0x10 PUSH1 0x80 SWAP1 DUP2 MSTORE PUSH16 0x53616D706C65446570656E64656E6379 PUSH1 0x80 SHL PUSH1 0xA0 MSTORE PUSH1 0x3 SWAP1 PUSH2 0x2F SWAP1 DUP3 PUSH2 0xD9 JUMP JUMPDEST POP CALLVALUE DUP1 ISZERO PUSH2 0x3B JUMPI PUSH0 DUP1 REVERT JUMPDEST POP PUSH2 0x193 JUMP JUMPDEST PUSH4 0x4E487B71 PUSH1 0xE0 SHL PUSH0 MSTORE PUSH1 0x41 PUSH1 0x4 MSTORE PUSH1 0x24 PUSH0 REVERT JUMPDEST PUSH1 0x1 DUP2 DUP2 SHR SWAP1 DUP3 AND DUP1 PUSH2 0x69 JUMPI PUSH1 0x7F DUP3 AND SWAP2 POP JUMPDEST PUSH1 0x20 DUP3 LT DUP2 SUB PUSH2 0x87 JUMPI PUSH4 0x4E487B71 PUSH1 0xE0 SHL PUSH0 MSTORE PUSH1 0x22 PUSH1 0x4 MSTORE PUSH1 0x24 PUSH0 REVERT JUMPDEST POP SWAP2 SWAP1 POP JUMP JUMPDEST PUSH1 0x1F DUP3 GT ISZERO PUSH2 0xD4 JUMPI DUP1 PUSH0 MSTORE PUSH1 0x20 PUSH0 KECCAK256 PUSH1 0x1F DUP5 ADD PUSH1 0x5 SHR DUP2 ADD PUSH1 0x20 DUP6 LT ISZERO PUSH2 0xB2 JUMPI POP DUP1 JUMPDEST PUSH1 0x1F DUP5 ADD PUSH1 0x5 SHR DUP3 ADD SWAP2 POP JUMPDEST DUP2 DUP2 LT ISZERO PUSH2 0xD1 JUMPI PUSH0 DUP2 SSTORE PUSH1 0x1 ADD PUSH2 0xBE JUMP JUMPDEST POP POP JUMPDEST POP POP POP JUMP JUMPDEST DUP2 MLOAD PUSH1 0x1 PUSH1 0x1 PUSH1 0x40 SHL SUB DUP2 GT ISZERO PUSH2 0xF2 JUMPI PUSH2 0xF2 PUSH2 0x41 JUMP JUMPDEST PUSH2 0x106 DUP2 PUSH2 0x100 DUP5 SLOAD PUSH2 0x55 JUMP JUMPDEST DUP5 PUSH2 0x8D JUMP JUMPDEST PUSH1 0x20 PUSH1 0x1F DUP3 GT PUSH1 0x1 DUP2 EQ PUSH2 0x138 JUMPI PUSH0 DUP4 ISZERO PUSH2 0x121 JUMPI POP DUP5 DUP3 ADD MLOAD JUMPDEST PUSH0 NOT PUSH1 0x3 DUP6 SWAP1 SHL SHR NOT AND PUSH1 0x1 DUP5 SWAP1 SHL OR DUP5 SSTORE PUSH2 0xD1 JUMP JUMPDEST PUSH0 DUP5 DUP2 MSTORE PUSH1 0x20 DUP2 KECCAK256 PUSH1 0x1F NOT DUP6 AND SWAP2 JUMPDEST DUP3 DUP2 LT ISZERO PUSH2 0x167 JUMPI DUP8 DUP6 ADD MLOAD DUP3 SSTORE PUSH1 0x20 SWAP5 DUP6 ADD SWAP5 PUSH1 0x1 SWAP1 SWAP3 ADD SWAP2 ADD PUSH2 0x147 JUMP JUMPDEST POP DUP5 DUP3 LT ISZERO PUSH2 0x184 JUMPI DUP7 DUP5 ADD MLOAD PUSH0 NOT PUSH1 0x3 DUP8 SWAP1 SHL PUSH1 0xF8 AND SHR NOT AND DUP2 SSTORE JUMPDEST POP POP POP POP PUSH1 0x1 SWAP1 DUP2 SHL ADD SWAP1 SSTORE POP JUMP JUMPDEST PUSH2 0x4FB2 DUP1 PUSH2 0x1A0 PUSH0 CODECOPY PUSH0 RETURN INVALID PUSH1 0x80 PUSH1 0x40 MSTORE CALLVALUE DUP1 ISZERO PUSH2 0xF JUMPI PUSH0 DUP1 REVERT JUMPDEST POP PUSH1 0x4 CALLDATASIZE LT PUSH2 0xE5 JUMPI PUSH0 CALLDATALOAD PUSH1 0xE0 SHR DUP1 PUSH4 0x6331E7D4 GT PUSH2 0x88 JUMPI DUP1 PUSH4 0x71BCAED0 GT PUSH2 0x63 JUMPI DUP1 PUSH4 0x71BCAED0 EQ PUSH2 0x13B JUMPI DUP1 PUSH4 0x94D5A708 EQ PUSH2 0x143 JUMPI DUP1 PUSH4 0x9598D601 EQ PUSH2 0x14B JUMPI DUP1 PUSH4 0xCE17A0C3 EQ PUSH2 0x153 JUMPI PUSH0 DUP1 REVERT JUMPDEST DUP1 PUSH4 0x6331E7D4 EQ PUSH2 0x123 JUMPI DUP1 PUSH4 0x6880DCC1 EQ PUSH2 0x12B JUMPI DUP1 PUSH4 0x71012C4A EQ PUSH2 0x133 JUMPI PUSH0 DUP1 REVERT JUMPDEST DUP1 PUSH4 0x2C39D569 GT PUSH2 0xC3 JUMPI DUP1 PUSH4 0x2C39D569 EQ PUSH2 0x103 JUMPI DUP1 PUSH4 0x3D18D609 EQ PUSH2 0x10B JUMPI DUP1 PUSH4 0x3EF7830B EQ PUSH2 0x113 JUMPI DUP1 PUSH4 0x51348A43 EQ PUSH2 0x11B JUMPI PUSH0 DUP1 REVERT JUMPDEST DUP1 PUSH4 0x2C7EC48 EQ PUSH2 0xE9 JUMPI DUP1 PUSH4 0x1101B77F EQ PUSH2 0xF3 JUMPI DUP1 PUSH4 0x1B5AB94E EQ PUSH2 0xFB JUMPI JUMPDEST PUSH0 DUP1 REVERT JUMPDEST PUSH2 0xF1 PUSH2 0x15B JUMP JUMPDEST STOP JUMPDEST PUSH2 0xF1 PUSH2 0x342 JUMP JUMPDEST PUSH2 0xF1 PUSH2 0x557 JUMP JUMPDEST PUSH2 0xF1 PUSH2 0xE40 JUMP JUMPDEST PUSH2 0xF1 PUSH2 0x1068 JUMP JUMPDEST PUSH2 0xF1 PUSH2 0x120B JUMP JUMPDEST PUSH2 0xF1 PUSH2 0x13C6 JUMP JUMPDEST PUSH2 0xF1 PUSH2 0x1592 JUMP JUMPDEST PUSH2 0xF1 PUSH2 0x16AB JUMP JUMPDEST PUSH2 0xF1 PUSH2 0x18DA JUMP JUMPDEST PUSH2 0xF1 PUSH2 0x1A45 JUMP JUMPDEST PUSH2 0xF1 PUSH2 0x1BA5 JUMP JUMPDEST PUSH2 0xF1 PUSH2 0x1D04 JUMP JUMPDEST PUSH2 0xF1 PUSH2 0x1F0D JUMP JUMPDEST PUSH1 0x4 DUP1 SLOAD PUSH1 0x40 MLOAD PUSH4 0x1120C23 PUSH1 0xE5 SHL DUP2 MSTORE PUSH1 0x1 PUSH1 0x1 PUSH1 0xA0 SHL SUB SWAP1 SWAP2 AND SWAP2 PUSH4 0x22418460 SWAP2 PUSH2 0x188 SWAP2 ADD PUSH2 0x2148 JUMP JUMPDEST PUSH1 0x20 PUSH1 0x40 MLOAD DUP1 DUP4 SUB DUP2 DUP7 GAS STATICCALL SWAP3 POP POP POP DUP1 ISZERO PUSH2 0x1C1 JUMPI POP PUSH1 0x40 DUP1 MLOAD PUSH1 0x1F RETURNDATASIZE SWAP1 DUP2 ADD PUSH1 0x1F NOT AND DUP3 ADD SWAP1 SWAP3 MSTORE PUSH2 0x1BE SWAP2 DUP2 ADD SWAP1 PUSH2 0x218B JUMP JUMPDEST PUSH1 0x1 JUMPDEST PUSH2 0x270 JUMPI PUSH2 0x1CD PUSH2 0x21AD JUMP JUMPDEST DUP1 PUSH4 0x8C379A0 SUB PUSH2 0x266 JUMPI POP PUSH2 0x1E1 PUSH2 0x2207 JUMP JUMPDEST DUP1 PUSH2 0x1EC JUMPI POP PUSH2 0x268 JUMP JUMPDEST PUSH1 0x40 MLOAD PUSH4 0x7461658B PUSH1 0xE1 SHL DUP2 MSTORE PUSH20 0x0 SWAP1 PUSH4 0xE8C2CB16 SWAP1 PUSH2 0x223 SWAP1 DUP5 SWAP1 PUSH1 0x4 ADD PUSH2 0x22F4 JUMP JUMPDEST PUSH1 0x20 PUSH1 0x40 MLOAD DUP1 DUP4 SUB DUP2 DUP7 GAS DELEGATECALL ISZERO DUP1 ISZERO PUSH2 0x23E JUMPI RETURNDATASIZE PUSH0 DUP1 RETURNDATACOPY RETURNDATASIZE PUSH0 REVERT JUMPDEST POP POP POP POP PUSH1 0x40 MLOAD RETURNDATASIZE PUSH1 0x1F NOT PUSH1 0x1F DUP3 ADD AND DUP3 ADD DUP1 PUSH1 0x40 MSTORE POP DUP2 ADD SWAP1 PUSH2 0x262 SWAP2 SWAP1 PUSH2 0x2368 JUMP JUMPDEST POP POP JUMP JUMPDEST POP JUMPDEST RETURNDATASIZE PUSH0 DUP1 RETURNDATACOPY RETURNDATASIZE PUSH0 REVERT JUMPDEST POP PUSH1 0x40 DUP1 MLOAD PUSH4 0x39DF137F PUSH1 0xE0 SHL DUP2 MSTORE PUSH0 PUSH1 0x4 DUP3 ADD MSTORE PUSH1 0x24 DUP2 ADD SWAP2 SWAP1 SWAP2 MSTORE PUSH1 0x3E PUSH1 0x44 DUP3 ADD MSTORE PUSH32 0x53686F756C6420726576657274207768656E2067657474696E6720646570656E PUSH1 0x64 DUP3 ADD MSTORE PUSH32 0x64656E63792061646472657373207769746820696E76616C6964206B65790000 PUSH1 0x84 DUP3 ADD MSTORE PUSH20 0x0 SWAP1 PUSH4 0x39DF137F SWAP1 PUSH1 0xA4 ADD JUMPDEST PUSH1 0x20 PUSH1 0x40 MLOAD DUP1 DUP4 SUB DUP2 DUP7 GAS DELEGATECALL ISZERO DUP1 ISZERO PUSH2 0x31B JUMPI RETURNDATASIZE PUSH0 DUP1 RETURNDATACOPY RETURNDATASIZE PUSH0 REVERT JUMPDEST POP POP POP POP PUSH1 0x40 MLOAD RETURNDATASIZE PUSH1 0x1F NOT PUSH1 0x1F DUP3 ADD AND DUP3 ADD DUP1 PUSH1 0x40 MSTORE POP DUP2 ADD SWAP1 PUSH2 0x33F SWAP2 SWAP1 PUSH2 0x2368 JUMP JUMPDEST POP JUMP JUMPDEST PUSH1 0x4 DUP1 SLOAD PUSH0 SLOAD PUSH1 0x40 MLOAD PUSH4 0xBCFC717 PUSH1 0xE0 SHL DUP2 MSTORE PUSH1 0x1 PUSH1 0x1 PUSH1 0xA0 SHL SUB SWAP2 DUP3 AND SWAP4 DUP2 ADD SWAP4 SWAP1 SWAP4 MSTORE AND SWAP1 PUSH4 0xBCFC717 SWAP1 PUSH1 0x24 ADD PUSH0 PUSH1 0x40 MLOAD DUP1 DUP4 SUB DUP2 PUSH0 DUP8 DUP1 EXTCODESIZE ISZERO DUP1 ISZERO PUSH2 0x389 JUMPI PUSH0 DUP1 REVERT JUMPDEST POP GAS CALL ISZERO DUP1 ISZERO PUSH2 0x39B JUMPI RETURNDATASIZE PUSH0 DUP1 RETURNDATACOPY RETURNDATASIZE PUSH0 REVERT JUMPDEST POP POP PUSH1 0x4 DUP1 SLOAD PUSH1 0x1 SLOAD PUSH1 0x40 MLOAD PUSH4 0x80719893 PUSH1 0xE0 SHL DUP2 MSTORE PUSH1 0x1 PUSH1 0x1 PUSH1 0xA0 SHL SUB SWAP3 DUP4 AND SWAP6 POP PUSH4 0x80719893 SWAP5 POP PUSH2 0x3D6 SWAP4 PUSH1 0x3 SWAP4 SWAP1 SWAP3 AND SWAP2 ADD PUSH2 0x2425 JUMP JUMPDEST PUSH0 PUSH1 0x40 MLOAD DUP1 DUP4 SUB DUP2 PUSH0 DUP8 DUP1 EXTCODESIZE ISZERO DUP1 ISZERO PUSH2 0x3ED JUMPI PUSH0 DUP1 REVERT JUMPDEST POP GAS CALL ISZERO DUP1 ISZERO PUSH2 0x3FF JUMPI RETURNDATASIZE PUSH0 DUP1 RETURNDATACOPY RETURNDATASIZE PUSH0 REVERT JUMPDEST POP POP PUSH1 0x4 DUP1 SLOAD PUSH1 0x1 SLOAD PUSH1 0x40 MLOAD PUSH4 0x80719893 PUSH1 0xE0 SHL DUP2 MSTORE PUSH1 0x1 PUSH1 0x1 PUSH1 0xA0 SHL SUB SWAP3 DUP4 AND SWAP6 POP PUSH4 0x80719893 SWAP5 POP PUSH2 0x43A SWAP4 PUSH1 0x3 SWAP4 SWAP1 SWAP3 AND SWAP2 ADD PUSH2 0x2425 JUMP JUMPDEST PUSH0 PUSH1 0x40 MLOAD DUP1 DUP4 SUB DUP2 PUSH0 DUP8 DUP1 EXTCODESIZE ISZERO DUP1 ISZERO PUSH2 0x451 JUMPI PUSH0 DUP1 REVERT JUMPDEST POP GAS CALL SWAP3 POP POP POP DUP1 ISZERO PUSH2 0x462 JUMPI POP PUSH1 0x1 JUMPDEST PUSH2 0x4C4 JUMPI PUSH2 0x46E PUSH2 0x21AD JUMP JUMPDEST DUP1 PUSH4 0x8C379A0 SUB PUSH2 0x266 JUMPI POP PUSH2 0x482 PUSH2 0x2207 JUMP JUMPDEST DUP1 PUSH2 0x48D JUMPI POP PUSH2 0x268 JUMP JUMPDEST PUSH1 0x40 MLOAD PUSH4 0x7461658B PUSH1 0xE1 SHL DUP2 MSTORE PUSH20 0x0 SWAP1 PUSH4 0xE8C2CB16 SWAP1 PUSH2 0x223 SWAP1 DUP5 SWAP1 PUSH1 0x4 ADD PUSH2 0x244E JUMP JUMPDEST PUSH1 0x40 DUP1 MLOAD PUSH4 0x39DF137F PUSH1 0xE0 SHL DUP2 MSTORE PUSH0 PUSH1 0x4 DUP3 ADD MSTORE PUSH1 0x24 DUP2 ADD DUP3 SWAP1 MSTORE PUSH1 0x44 DUP2 ADD SWAP2 SWAP1 SWAP2 MSTORE PUSH32 0x53686F756C64206E6F742062652061626C6520746F2072657175657374207468 PUSH1 0x64 DUP3 ADD MSTORE PUSH32 0x652073616D6520646570656E64656E6379206164646974696F6E207477696365 PUSH1 0x84 DUP3 ADD MSTORE PUSH20 0x0 SWAP1 PUSH4 0x39DF137F SWAP1 PUSH1 0xA4 ADD PUSH2 0x300 JUMP JUMPDEST PUSH1 0x4 DUP1 SLOAD PUSH0 SLOAD PUSH1 0x40 MLOAD PUSH4 0xBCFC717 PUSH1 0xE0 SHL DUP2 MSTORE PUSH1 0x1 PUSH1 0x1 PUSH1 0xA0 SHL SUB SWAP2 DUP3 AND SWAP4 DUP2 ADD SWAP4 SWAP1 SWAP4 MSTORE AND SWAP1 PUSH4 0xBCFC717 SWAP1 PUSH1 0x24 ADD PUSH0 PUSH1 0x40 MLOAD DUP1 DUP4 SUB DUP2 PUSH0 DUP8 DUP1 EXTCODESIZE ISZERO DUP1 ISZERO PUSH2 0x59E JUMPI PUSH0 DUP1 REVERT JUMPDEST POP GAS CALL ISZERO DUP1 ISZERO PUSH2 0x5B0 JUMPI RETURNDATASIZE PUSH0 DUP1 RETURNDATACOPY RETURNDATASIZE PUSH0 REVERT JUMPDEST POP POP PUSH0 SLOAD PUSH1 0x1 DUP1 SLOAD PUSH1 0x40 MLOAD PUSH4 0x54C82C35 PUSH1 0xE1 SHL DUP2 MSTORE PUSH1 0x1 PUSH1 0x1 PUSH1 0xA0 SHL SUB SWAP4 DUP5 AND SWAP6 POP PUSH4 0xA990586A SWAP5 POP PUSH2 0x5ED SWAP4 SWAP1 SWAP2 AND SWAP1 DUP3 SWAP1 DUP2 SWAP1 PUSH1 0x4 ADD PUSH2 0x24F1 JUMP JUMPDEST PUSH0 PUSH1 0x40 MLOAD DUP1 DUP4 SUB DUP2 PUSH0 DUP8 DUP1 EXTCODESIZE ISZERO DUP1 ISZERO PUSH2 0x604 JUMPI PUSH0 DUP1 REVERT JUMPDEST POP GAS CALL ISZERO DUP1 ISZERO PUSH2 0x616 JUMPI RETURNDATASIZE PUSH0 DUP1 RETURNDATACOPY RETURNDATASIZE PUSH0 REVERT JUMPDEST POP POP POP POP PUSH0 PUSH1 0x4 PUSH0 SWAP1 SLOAD SWAP1 PUSH2 0x100 EXP SWAP1 DIV PUSH1 0x1 PUSH1 0x1 PUSH1 0xA0 SHL SUB AND PUSH1 0x1 PUSH1 0x1 PUSH1 0xA0 SHL SUB AND PUSH4 0xBE6552E6 PUSH1 0x40 MLOAD DUP2 PUSH4 0xFFFFFFFF AND PUSH1 0xE0 SHL DUP2 MSTORE PUSH1 0x4 ADD PUSH0 PUSH1 0x40 MLOAD DUP1 DUP4 SUB DUP2 DUP7 GAS STATICCALL ISZERO DUP1 ISZERO PUSH2 0x66A JUMPI RETURNDATASIZE PUSH0 DUP1 RETURNDATACOPY RETURNDATASIZE PUSH0 REVERT JUMPDEST POP POP POP POP PUSH1 0x40 MLOAD RETURNDATASIZE PUSH0 DUP3 RETURNDATACOPY PUSH1 0x1F RETURNDATASIZE SWAP1 DUP2 ADD PUSH1 0x1F NOT AND DUP3 ADD PUSH1 0x40 MSTORE PUSH2 0x691 SWAP2 SWAP1 DUP2 ADD SWAP1 PUSH2 0x2579 JUMP JUMPDEST DUP1 MLOAD PUSH1 0x40 MLOAD PUSH4 0x55E6BCB PUSH1 0xE5 SHL DUP2 MSTORE PUSH1 0x4 DUP2 ADD SWAP2 SWAP1 SWAP2 MSTORE PUSH0 PUSH1 0x24 DUP3 ADD MSTORE PUSH1 0x60 PUSH1 0x44 DUP3 ADD MSTORE PUSH1 0x2D PUSH1 0x64 DUP3 ADD MSTORE PUSH32 0x50656E64696E67204170726F76616C20646570656E64656E63696573206B6579 PUSH1 0x84 DUP3 ADD MSTORE PUSH13 0x732073686F756C642062652031 PUSH1 0x98 SHL PUSH1 0xA4 DUP3 ADD MSTORE SWAP1 SWAP2 POP PUSH20 0x0 SWAP1 PUSH4 0xABCD7960 SWAP1 PUSH1 0xC4 ADD PUSH1 0x20 PUSH1 0x40 MLOAD DUP1 DUP4 SUB DUP2 DUP7 GAS DELEGATECALL ISZERO DUP1 ISZERO PUSH2 0x735 JUMPI RETURNDATASIZE PUSH0 DUP1 RETURNDATACOPY RETURNDATASIZE PUSH0 REVERT JUMPDEST POP POP POP POP PUSH1 0x40 MLOAD RETURNDATASIZE PUSH1 0x1F NOT PUSH1 0x1F DUP3 ADD AND DUP3 ADD DUP1 PUSH1 0x40 MSTORE POP DUP2 ADD SWAP1 PUSH2 0x759 SWAP2 SWAP1 PUSH2 0x2368 JUMP JUMPDEST POP PUSH1 0x4 DUP1 SLOAD PUSH1 0x1 SLOAD PUSH1 0x40 MLOAD PUSH4 0x80719893 PUSH1 0xE0 SHL DUP2 MSTORE PUSH1 0x1 PUSH1 0x1 PUSH1 0xA0 SHL SUB SWAP3 DUP4 AND SWAP4 PUSH4 0x80719893 SWAP4 PUSH2 0x790 SWAP4 PUSH1 0x3 SWAP4 SWAP2 AND SWAP2 ADD PUSH2 0x2425 JUMP JUMPDEST PUSH0 PUSH1 0x40 MLOAD DUP1 DUP4 SUB DUP2 PUSH0 DUP8 DUP1 EXTCODESIZE ISZERO DUP1 ISZERO PUSH2 0x7A7 JUMPI PUSH0 DUP1 REVERT JUMPDEST POP GAS CALL ISZERO DUP1 ISZERO PUSH2 0x7B9 JUMPI RETURNDATASIZE PUSH0 DUP1 RETURNDATACOPY RETURNDATASIZE PUSH0 REVERT JUMPDEST POP POP POP POP PUSH0 PUSH1 0x4 PUSH0 SWAP1 SLOAD SWAP1 PUSH2 0x100 EXP SWAP1 DIV PUSH1 0x1 PUSH1 0x1 PUSH1 0xA0 SHL SUB AND PUSH1 0x1 PUSH1 0x1 PUSH1 0xA0 SHL SUB AND PUSH4 0xEC4C2E5D PUSH1 0x40 MLOAD DUP2 PUSH4 0xFFFFFFFF AND PUSH1 0xE0 SHL DUP2 MSTORE PUSH1 0x4 ADD PUSH0 PUSH1 0x40 MLOAD DUP1 DUP4 SUB DUP2 DUP7 GAS STATICCALL ISZERO DUP1 ISZERO PUSH2 0x80D JUMPI RETURNDATASIZE PUSH0 DUP1 RETURNDATACOPY RETURNDATASIZE PUSH0 REVERT JUMPDEST POP POP POP POP PUSH1 0x40 MLOAD RETURNDATASIZE PUSH0 DUP3 RETURNDATACOPY PUSH1 0x1F RETURNDATASIZE SWAP1 DUP2 ADD PUSH1 0x1F NOT AND DUP3 ADD PUSH1 0x40 MSTORE PUSH2 0x834 SWAP2 SWAP1 DUP2 ADD SWAP1 PUSH2 0x2579 JUMP JUMPDEST DUP1 MLOAD PUSH1 0x40 MLOAD PUSH4 0x55E6BCB PUSH1 0xE5 SHL DUP2 MSTORE PUSH1 0x4 DUP2 ADD SWAP2 SWAP1 SWAP2 MSTORE PUSH0 PUSH1 0x24 DUP3 ADD MSTORE PUSH1 0x60 PUSH1 0x44 DUP3 ADD MSTORE PUSH1 0x26 PUSH1 0x64 DUP3 ADD MSTORE PUSH32 0x417070726F76656420646570656E64656E63696573206B6579732073686F756C PUSH1 0x84 DUP3 ADD MSTORE PUSH6 0x64206265203 PUSH1 0xD4 SHL PUSH1 0xA4 DUP3 ADD MSTORE SWAP1 SWAP2 POP PUSH20 0x0 SWAP1 PUSH4 0xABCD7960 SWAP1 PUSH1 0xC4 ADD PUSH1 0x20 PUSH1 0x40 MLOAD DUP1 DUP4 SUB DUP2 DUP7 GAS DELEGATECALL ISZERO DUP1 ISZERO PUSH2 0x8D1 JUMPI RETURNDATASIZE PUSH0 DUP1 RETURNDATACOPY RETURNDATASIZE PUSH0 REVERT JUMPDEST POP POP POP POP PUSH1 0x40 MLOAD RETURNDATASIZE PUSH1 0x1F NOT PUSH1 0x1F DUP3 ADD AND DUP3 ADD DUP1 PUSH1 0x40 MSTORE POP DUP2 ADD SWAP1 PUSH2 0x8F5 SWAP2 SWAP1 PUSH2 0x2368 JUMP JUMPDEST POP PUSH1 0x4 DUP1 SLOAD PUSH1 0x40 DUP1 MLOAD PUSH4 0x6E5ECDFF PUSH1 0xE0 SHL DUP2 MSTORE SWAP1 MLOAD PUSH1 0x1 PUSH1 0x1 PUSH1 0xA0 SHL SUB SWAP1 SWAP3 AND SWAP3 PUSH4 0x6E5ECDFF SWAP3 DUP3 DUP3 ADD SWAP3 PUSH0 SWAP3 SWAP1 DUP3 SWAP1 SUB ADD DUP2 DUP4 DUP8 DUP1 EXTCODESIZE ISZERO DUP1 ISZERO PUSH2 0x937 JUMPI PUSH0 DUP1 REVERT JUMPDEST POP GAS CALL ISZERO DUP1 ISZERO PUSH2 0x949 JUMPI RETURNDATASIZE PUSH0 DUP1 RETURNDATACOPY RETURNDATASIZE PUSH0 REVERT JUMPDEST POP POP PUSH1 0x4 DUP1 SLOAD PUSH1 0x40 DUP1 MLOAD PUSH4 0xEC4C2E5D PUSH1 0xE0 SHL DUP2 MSTORE SWAP1 MLOAD PUSH1 0x1 PUSH1 0x1 PUSH1 0xA0 SHL SUB SWAP1 SWAP3 AND SWAP5 POP PUSH4 0xEC4C2E5D SWAP4 POP DUP1 DUP4 ADD SWAP3 PUSH0 SWAP3 SWAP2 DUP3 SWAP1 SUB ADD DUP2 DUP7 GAS STATICCALL ISZERO DUP1 ISZERO PUSH2 0x991 JUMPI RETURNDATASIZE PUSH0 DUP1 RETURNDATACOPY RETURNDATASIZE PUSH0 REVERT JUMPDEST POP POP POP POP PUSH1 0x40 MLOAD RETURNDATASIZE PUSH0 DUP3 RETURNDATACOPY PUSH1 0x1F RETURNDATASIZE SWAP1 DUP2 ADD PUSH1 0x1F NOT AND DUP3 ADD PUSH1 0x40 MSTORE PUSH2 0x9B8 SWAP2 SWAP1 DUP2 ADD SWAP1 PUSH2 0x2579 JUMP JUMPDEST DUP1 MLOAD PUSH1 0x40 MLOAD PUSH4 0x55E6BCB PUSH1 0xE5 SHL DUP2 MSTORE PUSH1 0x4 DUP2 ADD SWAP2 SWAP1 SWAP2 MSTORE PUSH1 0x1 PUSH1 0x24 DUP3 ADD MSTORE PUSH1 0x60 PUSH1 0x44 DUP3 ADD MSTORE PUSH1 0x26 PUSH1 0x64 DUP3 ADD MSTORE PUSH32 0x417070726F76656420646570656E64656E63696573206B6579732073686F756C PUSH1 0x84 DUP3 ADD MSTORE PUSH6 0x642062652031 PUSH1 0xD0 SHL PUSH1 0xA4 DUP3 ADD MSTORE SWAP1 SWAP2 POP PUSH20 0x0 SWAP1 PUSH4 0xABCD7960 SWAP1 PUSH1 0xC4 ADD PUSH1 0x20 PUSH1 0x40 MLOAD DUP1 DUP4 SUB DUP2 DUP7 GAS DELEGATECALL ISZERO DUP1 ISZERO PUSH2 0xA56 JUMPI RETURNDATASIZE PUSH0 DUP1 RETURNDATACOPY RETURNDATASIZE PUSH0 REVERT JUMPDEST POP POP POP POP PUSH1 0x40 MLOAD RETURNDATASIZE PUSH1 0x1F NOT PUSH1 0x1F DUP3 ADD AND DUP3 ADD DUP1 PUSH1 0x40 MSTORE POP DUP2 ADD SWAP1 PUSH2 0xA7A SWAP2 SWAP1 PUSH2 0x2368 JUMP JUMPDEST POP PUSH1 0x4 DUP1 SLOAD PUSH1 0x40 DUP1 MLOAD PUSH4 0x5F32A973 PUSH1 0xE1 SHL DUP2 MSTORE SWAP1 MLOAD PUSH1 0x1 PUSH1 0x1 PUSH1 0xA0 SHL SUB SWAP1 SWAP3 AND SWAP3 PUSH4 0xBE6552E6 SWAP3 DUP3 DUP3 ADD SWAP3 PUSH0 SWAP3 SWAP1 DUP3 SWAP1 SUB ADD DUP2 DUP7 GAS STATICCALL ISZERO DUP1 ISZERO PUSH2 0xABF JUMPI RETURNDATASIZE PUSH0 DUP1 RETURNDATACOPY RETURNDATASIZE PUSH0 REVERT JUMPDEST POP POP POP POP PUSH1 0x40 MLOAD RETURNDATASIZE PUSH0 DUP3 RETURNDATACOPY PUSH1 0x1F RETURNDATASIZE SWAP1 DUP2 ADD PUSH1 0x1F NOT AND DUP3 ADD PUSH1 0x40 MSTORE PUSH2 0xAE6 SWAP2 SWAP1 DUP2 ADD SWAP1 PUSH2 0x2579 JUMP JUMPDEST DUP1 MLOAD PUSH1 0x40 MLOAD PUSH4 0x55E6BCB PUSH1 0xE5 SHL DUP2 MSTORE PUSH1 0x4 DUP2 ADD SWAP2 SWAP1 SWAP2 MSTORE PUSH0 PUSH1 0x24 DUP3 ADD MSTORE PUSH1 0x60 PUSH1 0x44 DUP3 ADD MSTORE PUSH1 0x2D PUSH1 0x64 DUP3 ADD MSTORE PUSH32 0x50656E64696E67204170726F76616C20646570656E64656E63696573206B6579 PUSH1 0x84 DUP3 ADD MSTORE PUSH13 0x732073686F756C64206265203 PUSH1 0x9C SHL PUSH1 0xA4 DUP3 ADD MSTORE SWAP1 SWAP3 POP PUSH20 0x0 SWAP1 PUSH4 0xABCD7960 SWAP1 PUSH1 0xC4 ADD PUSH1 0x20 PUSH1 0x40 MLOAD DUP1 DUP4 SUB DUP2 DUP7 GAS DELEGATECALL ISZERO DUP1 ISZERO PUSH2 0xB8A JUMPI RETURNDATASIZE PUSH0 DUP1 RETURNDATACOPY RETURNDATASIZE PUSH0 REVERT JUMPDEST POP POP POP POP PUSH1 0x40 MLOAD RETURNDATASIZE PUSH1 0x1F NOT PUSH1 0x1F DUP3 ADD AND DUP3 ADD DUP1 PUSH1 0x40 MSTORE POP DUP2 ADD SWAP1 PUSH2 0xBAE SWAP2 SWAP1 PUSH2 0x2368 JUMP JUMPDEST POP PUSH0 PUSH1 0x40 MLOAD PUSH1 0x20 ADD PUSH2 0xBEA SWAP1 PUSH1 0x40 DUP1 DUP3 MSTORE PUSH1 0x8 SWAP1 DUP3 ADD MSTORE PUSH8 0x67657456616C7565 PUSH1 0xC0 SHL PUSH1 0x60 DUP3 ADD MSTORE PUSH1 0x80 PUSH1 0x20 DUP3 ADD DUP2 SWAP1 MSTORE PUSH0 SWAP1 DUP3 ADD MSTORE PUSH1 0xA0 ADD SWAP1 JUMP JUMPDEST PUSH1 0x40 DUP1 MLOAD PUSH1 0x1F NOT DUP2 DUP5 SUB ADD DUP2 MSTORE SWAP1 DUP3 SWAP1 MSTORE PUSH1 0x4 DUP1 SLOAD PUSH4 0x53FF7391 PUSH1 0xE1 SHL DUP5 MSTORE SWAP2 SWAP4 POP PUSH0 SWAP3 PUSH1 0x1 PUSH1 0x1 PUSH1 0xA0 SHL SUB SWAP1 SWAP3 AND SWAP2 PUSH4 0xA7FEE722 SWAP2 PUSH2 0xC2F SWAP2 PUSH1 0x3 SWAP2 DUP8 SWAP2 ADD PUSH2 0x2658 JUMP JUMPDEST PUSH0 PUSH1 0x40 MLOAD DUP1 DUP4 SUB DUP2 PUSH0 DUP8 GAS CALL ISZERO DUP1 ISZERO PUSH2 0xC4A JUMPI RETURNDATASIZE PUSH0 DUP1 RETURNDATACOPY RETURNDATASIZE PUSH0 REVERT JUMPDEST POP POP POP POP PUSH1 0x40 MLOAD RETURNDATASIZE PUSH0 DUP3 RETURNDATACOPY PUSH1 0x1F RETURNDATASIZE SWAP1 DUP2 ADD PUSH1 0x1F NOT AND DUP3 ADD PUSH1 0x40 MSTORE PUSH2 0xC71 SWAP2 SWAP1 DUP2 ADD SWAP1 PUSH2 0x26B0 JUMP JUMPDEST DUP1 MLOAD PUSH1 0x40 MLOAD PUSH4 0x2B080AF1 PUSH1 0xE1 SHL DUP2 MSTORE SWAP2 SWAP3 POP PUSH20 0x0 SWAP2 PUSH4 0x561015E2 SWAP2 PUSH2 0xCAD SWAP2 PUSH0 SWAP1 PUSH1 0x4 ADD PUSH2 0x26F5 JUMP JUMPDEST PUSH1 0x20 PUSH1 0x40 MLOAD DUP1 DUP4 SUB DUP2 DUP7 GAS DELEGATECALL ISZERO DUP1 ISZERO PUSH2 0xCC8 JUMPI RETURNDATASIZE PUSH0 DUP1 RETURNDATACOPY RETURNDATASIZE PUSH0 REVERT JUMPDEST POP POP POP POP PUSH1 0x40 MLOAD RETURNDATASIZE PUSH1 0x1F NOT PUSH1 0x1F DUP3 ADD AND DUP3 ADD DUP1 PUSH1 0x40 MSTORE POP DUP2 ADD SWAP1 PUSH2 0xCEC SWAP2 SWAP1 PUSH2 0x2368 JUMP JUMPDEST POP PUSH1 0x4 DUP1 SLOAD PUSH1 0x40 MLOAD PUSH4 0x1120C23 PUSH1 0xE5 SHL DUP2 MSTORE PUSH0 SWAP3 PUSH1 0x1 PUSH1 0x1 PUSH1 0xA0 SHL SUB SWAP1 SWAP3 AND SWAP2 PUSH4 0x22418460 SWAP2 PUSH2 0xD1F SWAP2 PUSH1 0x3 SWAP2 ADD PUSH2 0x274B JUMP JUMPDEST PUSH1 0x20 PUSH1 0x40 MLOAD DUP1 DUP4 SUB DUP2 DUP7 GAS STATICCALL ISZERO DUP1 ISZERO PUSH2 0xD3A JUMPI RETURNDATASIZE PUSH0 DUP1 RETURNDATACOPY RETURNDATASIZE PUSH0 REVERT JUMPDEST POP POP POP POP PUSH1 0x40 MLOAD RETURNDATASIZE PUSH1 0x1F NOT PUSH1 0x1F DUP3 ADD AND DUP3 ADD DUP1 PUSH1 0x40 MSTORE POP DUP2 ADD SWAP1 PUSH2 0xD5E SWAP2 SWAP1 PUSH2 0x218B JUMP JUMPDEST PUSH1 0x1 SLOAD PUSH1 0x40 MLOAD PUSH4 0x5FDD2EEB PUSH1 0xE1 SHL DUP2 MSTORE PUSH1 0x1 PUSH1 0x1 PUSH1 0xA0 SHL SUB DUP1 DUP5 AND PUSH1 0x4 DUP4 ADD MSTORE SWAP1 SWAP2 AND PUSH1 0x24 DUP3 ADD MSTORE PUSH1 0x60 PUSH1 0x44 DUP3 ADD MSTORE PUSH1 0x34 PUSH1 0x64 DUP3 ADD MSTORE PUSH32 0x446570656E64656E637920616464726573732073686F756C64206D6174636820 PUSH1 0x84 DUP3 ADD MSTORE PUSH20 0x7468652065787065637465642061646472657373 PUSH1 0x60 SHL PUSH1 0xA4 DUP3 ADD MSTORE SWAP1 SWAP2 POP PUSH20 0x0 SWAP1 PUSH4 0xBFBA5DD6 SWAP1 PUSH1 0xC4 ADD PUSH1 0x20 PUSH1 0x40 MLOAD DUP1 DUP4 SUB DUP2 DUP7 GAS DELEGATECALL ISZERO DUP1 ISZERO PUSH2 0xE14 JUMPI RETURNDATASIZE PUSH0 DUP1 RETURNDATACOPY RETURNDATASIZE PUSH0 REVERT JUMPDEST POP POP POP POP PUSH1 0x40 MLOAD RETURNDATASIZE PUSH1 0x1F NOT PUSH1 0x1F DUP3 ADD AND DUP3 ADD DUP1 PUSH1 0x40 MSTORE POP DUP2 ADD SWAP1 PUSH2 0xE38 SWAP2 SWAP1 PUSH2 0x2368 JUMP JUMPDEST POP POP POP POP POP POP JUMP JUMPDEST PUSH0 SLOAD PUSH1 0x1 DUP1 SLOAD PUSH1 0x40 MLOAD PUSH4 0x54C82C35 PUSH1 0xE1 SHL DUP2 MSTORE PUSH1 0x1 PUSH1 0x1 PUSH1 0xA0 SHL SUB SWAP4 DUP5 AND SWAP4 PUSH4 0xA990586A SWAP4 PUSH2 0xE7A SWAP4 SWAP1 SWAP3 SWAP2 AND SWAP1 DUP3 SWAP1 DUP2 SWAP1 PUSH1 0x4 ADD PUSH2 0x24F1 JUMP JUMPDEST PUSH0 PUSH1 0x40 MLOAD DUP1 DUP4 SUB DUP2 PUSH0 DUP8 DUP1 EXTCODESIZE ISZERO DUP1 ISZERO PUSH2 0xE91 JUMPI PUSH0 DUP1 REVERT JUMPDEST POP GAS CALL ISZERO DUP1 ISZERO PUSH2 0xEA3 JUMPI RETURNDATASIZE PUSH0 DUP1 RETURNDATACOPY RETURNDATASIZE PUSH0 REVERT JUMPDEST POP POP PUSH1 0x4 DUP1 SLOAD PUSH0 SLOAD PUSH1 0x40 MLOAD PUSH4 0xBCFC717 PUSH1 0xE0 SHL DUP2 MSTORE PUSH1 0x1 PUSH1 0x1 PUSH1 0xA0 SHL SUB SWAP2 DUP3 AND SWAP4 DUP2 ADD SWAP4 SWAP1 SWAP4 MSTORE AND SWAP3 POP PUSH4 0xBCFC717 SWAP2 POP PUSH1 0x24 ADD PUSH0 PUSH1 0x40 MLOAD DUP1 DUP4 SUB DUP2 PUSH0 DUP8 DUP1 EXTCODESIZE ISZERO DUP1 ISZERO PUSH2 0xEEE JUMPI PUSH0 DUP1 REVERT JUMPDEST POP GAS CALL ISZERO DUP1 ISZERO PUSH2 0xF00 JUMPI RETURNDATASIZE PUSH0 DUP1 RETURNDATACOPY RETURNDATASIZE PUSH0 REVERT JUMPDEST POP POP PUSH1 0x4 DUP1 SLOAD PUSH1 0x1 SLOAD PUSH1 0x40 MLOAD PUSH4 0x80719893 PUSH1 0xE0 SHL DUP2 MSTORE PUSH1 0x1 PUSH1 0x1 PUSH1 0xA0 SHL SUB SWAP3 DUP4 AND SWAP6 POP PUSH4 0x80719893 SWAP5 POP PUSH2 0xF3B SWAP4 PUSH1 0x3 SWAP4 SWAP1 SWAP3 AND SWAP2 ADD PUSH2 0x2425 JUMP JUMPDEST PUSH0 PUSH1 0x40 MLOAD DUP1 DUP4 SUB DUP2 PUSH0 DUP8 DUP1 EXTCODESIZE ISZERO DUP1 ISZERO PUSH2 0xF52 JUMPI PUSH0 DUP1 REVERT JUMPDEST POP GAS CALL ISZERO DUP1 ISZERO PUSH2 0xF64 JUMPI RETURNDATASIZE PUSH0 DUP1 RETURNDATACOPY RETURNDATASIZE PUSH0 REVERT JUMPDEST POP POP PUSH1 0x4 DUP1 SLOAD PUSH1 0x40 MLOAD PUSH4 0x1A83F4A3 PUSH1 0xE0 SHL DUP2 MSTORE PUSH0 SWAP5 POP PUSH1 0x1 PUSH1 0x1 PUSH1 0xA0 SHL SUB SWAP1 SWAP2 AND SWAP3 POP PUSH4 0x1A83F4A3 SWAP2 PUSH2 0xF9A SWAP2 PUSH1 0x3 SWAP2 ADD PUSH2 0x274B JUMP JUMPDEST PUSH1 0x20 PUSH1 0x40 MLOAD DUP1 DUP4 SUB DUP2 DUP7 GAS STATICCALL ISZERO DUP1 ISZERO PUSH2 0xFB5 JUMPI RETURNDATASIZE PUSH0 DUP1 RETURNDATACOPY RETURNDATASIZE PUSH0 REVERT JUMPDEST POP POP POP POP PUSH1 0x40 MLOAD RETURNDATASIZE PUSH1 0x1F NOT PUSH1 0x1F DUP3 ADD AND DUP3 ADD DUP1 PUSH1 0x40 MSTORE POP DUP2 ADD SWAP1 PUSH2 0xFD9 SWAP2 SWAP1 PUSH2 0x275D JUMP JUMPDEST PUSH1 0x40 MLOAD PUSH4 0x2B080AF1 PUSH1 0xE1 SHL DUP2 MSTORE PUSH1 0x4 DUP2 ADD DUP3 SWAP1 MSTORE PUSH0 PUSH1 0x24 DUP3 ADD MSTORE PUSH1 0x60 PUSH1 0x44 DUP3 ADD MSTORE PUSH1 0x31 PUSH1 0x64 DUP3 ADD MSTORE PUSH32 0x4964656E7469666965722073686F756C64206265206E6F6E2D7A65726F20666F PUSH1 0x84 DUP3 ADD MSTORE PUSH17 0x1C8818481D985B1A59081C995C5D595CDD PUSH1 0x7A SHL PUSH1 0xA4 DUP3 ADD MSTORE SWAP1 SWAP2 POP PUSH20 0x0 SWAP1 PUSH4 0x561015E2 SWAP1 PUSH1 0xC4 ADD PUSH2 0x223 JUMP JUMPDEST PUSH1 0x4 DUP1 SLOAD PUSH0 SLOAD PUSH1 0x40 MLOAD PUSH4 0xBCFC717 PUSH1 0xE0 SHL DUP2 MSTORE PUSH1 0x1 PUSH1 0x1 PUSH1 0xA0 SHL SUB SWAP2 DUP3 AND SWAP4 DUP2 ADD SWAP4 SWAP1 SWAP4 MSTORE AND SWAP1 PUSH4 0xBCFC717 SWAP1 PUSH1 0x24 ADD PUSH0 PUSH1 0x40 MLOAD DUP1 DUP4 SUB DUP2 PUSH0 DUP8 DUP1 EXTCODESIZE ISZERO DUP1 ISZERO PUSH2 0x10AF JUMPI PUSH0 DUP1 REVERT JUMPDEST POP GAS CALL ISZERO DUP1 ISZERO PUSH2 0x10C1 JUMPI RETURNDATASIZE PUSH0 DUP1 RETURNDATACOPY RETURNDATASIZE PUSH0 REVERT JUMPDEST POP POP PUSH1 0x4 DUP1 SLOAD PUSH1 0x40 DUP1 MLOAD PUSH4 0x6E5ECDFF PUSH1 0xE0 SHL DUP2 MSTORE SWAP1 MLOAD PUSH1 0x1 PUSH1 0x1 PUSH1 0xA0 SHL SUB SWAP1 SWAP3 AND SWAP5 POP PUSH4 0x6E5ECDFF SWAP4 POP DUP1 DUP4 ADD SWAP3 PUSH0 SWAP3 SWAP2 DUP3 SWAP1 SUB ADD DUP2 DUP4 DUP8 DUP1 EXTCODESIZE ISZERO DUP1 ISZERO PUSH2 0x1106 JUMPI PUSH0 DUP1 REVERT JUMPDEST POP GAS CALL ISZERO DUP1 ISZERO PUSH2 0x1118 JUMPI RETURNDATASIZE PUSH0 DUP1 RETURNDATACOPY RETURNDATASIZE PUSH0 REVERT JUMPDEST POP POP POP POP PUSH0 PUSH1 0x4 PUSH0 SWAP1 SLOAD SWAP1 PUSH2 0x100 EXP SWAP1 DIV PUSH1 0x1 PUSH1 0x1 PUSH1 0xA0 SHL SUB AND PUSH1 0x1 PUSH1 0x1 PUSH1 0xA0 SHL SUB AND PUSH4 0xEC4C2E5D PUSH1 0x40 MLOAD DUP2 PUSH4 0xFFFFFFFF AND PUSH1 0xE0 SHL DUP2 MSTORE PUSH1 0x4 ADD PUSH0 PUSH1 0x40 MLOAD DUP1 DUP4 SUB DUP2 DUP7 GAS STATICCALL ISZERO DUP1 ISZERO PUSH2 0x116C JUMPI RETURNDATASIZE PUSH0 DUP1 RETURNDATACOPY RETURNDATASIZE PUSH0 REVERT JUMPDEST POP POP POP POP PUSH1 0x40 MLOAD RETURNDATASIZE PUSH0 DUP3 RETURNDATACOPY PUSH1 0x1F RETURNDATASIZE SWAP1 DUP2 ADD PUSH1 0x1F NOT AND DUP3 ADD PUSH1 0x40 MSTORE PUSH2 0x1193 SWAP2 SWAP1 DUP2 ADD SWAP1 PUSH2 0x2579 JUMP JUMPDEST DUP1 MLOAD PUSH1 0x40 MLOAD PUSH4 0x55E6BCB PUSH1 0xE5 SHL DUP2 MSTORE PUSH1 0x4 DUP2 ADD SWAP2 SWAP1 SWAP2 MSTORE PUSH0 PUSH1 0x24 DUP3 ADD MSTORE PUSH1 0x60 PUSH1 0x44 DUP3 ADD MSTORE PUSH1 0x1F PUSH1 0x64 DUP3 ADD MSTORE PUSH32 0x4E6F20646570656E64656E636965732073686F756C6420626520616464656400 PUSH1 0x84 DUP3 ADD MSTORE SWAP1 SWAP2 POP PUSH20 0x0 SWAP1 PUSH4 0xABCD7960 SWAP1 PUSH1 0xA4 ADD PUSH2 0x223 JUMP JUMPDEST PUSH1 0x4 DUP1 SLOAD PUSH0 SLOAD PUSH1 0x40 MLOAD PUSH4 0xBCFC717 PUSH1 0xE0 SHL DUP2 MSTORE PUSH1 0x1 PUSH1 0x1 PUSH1 0xA0 SHL SUB SWAP2 DUP3 AND SWAP4 DUP2 ADD SWAP4 SWAP1 SWAP4 MSTORE AND SWAP1 PUSH4 0xBCFC717 SWAP1 PUSH1 0x24 ADD PUSH0 PUSH1 0x40 MLOAD DUP1 DUP4 SUB DUP2 PUSH0 DUP8 DUP1 EXTCODESIZE ISZERO DUP1 ISZERO PUSH2 0x1252 JUMPI PUSH0 DUP1 REVERT JUMPDEST POP GAS CALL ISZERO DUP1 ISZERO PUSH2 0x1264 JUMPI RETURNDATASIZE PUSH0 DUP1 RETURNDATACOPY RETURNDATASIZE PUSH0 REVERT JUMPDEST POP POP PUSH1 0x4 DUP1 SLOAD PUSH1 0x2 SLOAD PUSH1 0x40 MLOAD PUSH4 0x16C1076F PUSH1 0xE0 SHL DUP2 MSTORE PUSH1 0x1 PUSH1 0x1 PUSH1 0xA0 SHL SUB SWAP2 DUP3 AND SWAP4 DUP2 ADD SWAP4 SWAP1 SWAP4 MSTORE AND SWAP3 POP PUSH4 0x16C1076F SWAP2 POP PUSH1 0x24 ADD PUSH0 PUSH1 0x40 MLOAD DUP1 DUP4 SUB DUP2 PUSH0 DUP8 DUP1 EXTCODESIZE ISZERO DUP1 ISZERO PUSH2 0x12B0 JUMPI PUSH0 DUP1 REVERT JUMPDEST POP GAS CALL ISZERO DUP1 ISZERO PUSH2 0x12C2 JUMPI RETURNDATASIZE PUSH0 DUP1 RETURNDATACOPY RETURNDATASIZE PUSH0 REVERT JUMPDEST POP POP POP POP PUSH0 PUSH1 0x4 PUSH0 SWAP1 SLOAD SWAP1 PUSH2 0x100 EXP SWAP1 DIV PUSH1 0x1 PUSH1 0x1 PUSH1 0xA0 SHL SUB AND PUSH1 0x1 PUSH1 0x1 PUSH1 0xA0 SHL SUB AND PUSH4 0xBC5AEF90 PUSH1 0x40 MLOAD DUP2 PUSH4 0xFFFFFFFF AND PUSH1 0xE0 SHL DUP2 MSTORE PUSH1 0x4 ADD PUSH1 0x20 PUSH1 0x40 MLOAD DUP1 DUP4 SUB DUP2 DUP7 GAS STATICCALL ISZERO DUP1 ISZERO PUSH2 0x1317 JUMPI RETURNDATASIZE PUSH0 DUP1 RETURNDATACOPY RETURNDATASIZE PUSH0 REVERT JUMPDEST POP POP POP POP PUSH1 0x40 MLOAD RETURNDATASIZE PUSH1 0x1F NOT PUSH1 0x1F DUP3 ADD AND DUP3 ADD DUP1 PUSH1 0x40 MSTORE POP DUP2 ADD SWAP1 PUSH2 0x133B SWAP2 SWAP1 PUSH2 0x275D JUMP JUMPDEST PUSH1 0x40 MLOAD PUSH4 0x2B080AF1 PUSH1 0xE1 SHL DUP2 MSTORE PUSH1 0x4 DUP2 ADD DUP3 SWAP1 MSTORE PUSH0 PUSH1 0x24 DUP3 ADD MSTORE PUSH1 0x60 PUSH1 0x44 DUP3 ADD MSTORE PUSH1 0x2D PUSH1 0x64 DUP3 ADD MSTORE PUSH32 0x50656E64696E672075706772616465206964656E7469666965722073686F756C PUSH1 0x84 DUP3 ADD MSTORE PUSH13 0x64206265206E6F6E2D7A65726F PUSH1 0x98 SHL PUSH1 0xA4 DUP3 ADD MSTORE SWAP1 SWAP2 POP PUSH20 0x0 SWAP1 PUSH4 0x561015E2 SWAP1 PUSH1 0xC4 ADD PUSH2 0x223 JUMP JUMPDEST PUSH1 0x4 DUP1 SLOAD PUSH0 SLOAD PUSH1 0x40 MLOAD PUSH4 0xBCFC717 PUSH1 0xE0 SHL DUP2 MSTORE PUSH1 0x1 PUSH1 0x1 PUSH1 0xA0 SHL SUB SWAP2 DUP3 AND SWAP4 DUP2 ADD SWAP4 SWAP1 SWAP4 MSTORE AND SWAP1 PUSH4 0xBCFC717 SWAP1 PUSH1 0x24 ADD PUSH0 PUSH1 0x40 MLOAD DUP1 DUP4 SUB DUP2 PUSH0 DUP8 DUP1 EXTCODESIZE ISZERO DUP1 ISZERO PUSH2 0x140D JUMPI PUSH0 DUP1 REVERT JUMPDEST POP GAS CALL ISZERO DUP1 ISZERO PUSH2 0x141F JUMPI RETURNDATASIZE PUSH0 DUP1 RETURNDATACOPY RETURNDATASIZE PUSH0 REVERT JUMPDEST POP POP PUSH1 0x4 DUP1 SLOAD PUSH1 0x1 SLOAD PUSH1 0x40 MLOAD PUSH4 0x3EF8CCB7 PUSH1 0xE2 SHL DUP2 MSTORE PUSH1 0x1 PUSH1 0x1 PUSH1 0xA0 SHL SUB SWAP3 DUP4 AND SWAP6 POP PUSH4 0xFBE332DC SWAP5 POP PUSH2 0x145A SWAP4 PUSH1 0x3 SWAP4 SWAP1 SWAP3 AND SWAP2 ADD PUSH2 0x2425 JUMP JUMPDEST PUSH0 PUSH1 0x40 MLOAD DUP1 DUP4 SUB DUP2 PUSH0 DUP8 DUP1 EXTCODESIZE ISZERO DUP1 ISZERO PUSH2 0x1471 JUMPI PUSH0 DUP1 REVERT JUMPDEST POP GAS CALL ISZERO DUP1 ISZERO PUSH2 0x1483 JUMPI RETURNDATASIZE PUSH0 DUP1 RETURNDATACOPY RETURNDATASIZE PUSH0 REVERT JUMPDEST POP POP PUSH1 0x4 DUP1 SLOAD PUSH1 0x40 MLOAD PUSH3 0x4B0323 PUSH1 0xE6 SHL DUP2 MSTORE PUSH0 SWAP5 POP PUSH1 0x1 PUSH1 0x1 PUSH1 0xA0 SHL SUB SWAP1 SWAP2 AND SWAP3 POP PUSH4 0x12C0C8C0 SWAP2 PUSH2 0x14B8 SWAP2 PUSH1 0x3 SWAP2 ADD PUSH2 0x274B JUMP JUMPDEST PUSH1 0x20 PUSH1 0x40 MLOAD DUP1 DUP4 SUB DUP2 DUP7 GAS STATICCALL ISZERO DUP1 ISZERO PUSH2 0x14D3 JUMPI RETURNDATASIZE PUSH0 DUP1 RETURNDATACOPY RETURNDATASIZE PUSH0 REVERT JUMPDEST POP POP POP POP PUSH1 0x40 MLOAD RETURNDATASIZE PUSH1 0x1F NOT PUSH1 0x1F DUP3 ADD AND DUP3 ADD DUP1 PUSH1 0x40 MSTORE POP DUP2 ADD SWAP1 PUSH2 0x14F7 SWAP2 SWAP1 PUSH2 0x275D JUMP JUMPDEST PUSH1 0x40 MLOAD PUSH4 0x2B080AF1 PUSH1 0xE1 SHL DUP2 MSTORE PUSH1 0x4 DUP2 ADD DUP3 SWAP1 MSTORE PUSH0 PUSH1 0x24 DUP3 ADD MSTORE PUSH1 0x60 PUSH1 0x44 DUP3 ADD MSTORE PUSH1 0x39 PUSH1 0x64 DUP3 ADD MSTORE PUSH32 0x4964656E7469666965722073686F756C64206265206E6F6E2D7A65726F20666F PUSH1 0x84 DUP3 ADD MSTORE PUSH32 0x7220612076616C69642072656D6F76616C207265717565737400000000000000 PUSH1 0xA4 DUP3 ADD MSTORE SWAP1 SWAP2 POP PUSH20 0x0 SWAP1 PUSH4 0x561015E2 SWAP1 PUSH1 0xC4 ADD PUSH2 0x223 JUMP JUMPDEST PUSH1 0x40 MLOAD PUSH2 0x159E SWAP1 PUSH2 0x2122 JUMP JUMPDEST PUSH1 0x40 MLOAD DUP1 SWAP2 SUB SWAP1 PUSH0 CREATE DUP1 ISZERO DUP1 ISZERO PUSH2 0x15B7 JUMPI RETURNDATASIZE PUSH0 DUP1 RETURNDATACOPY RETURNDATASIZE PUSH0 REVERT JUMPDEST POP PUSH0 DUP1 SLOAD PUSH1 0x1 PUSH1 0x1 PUSH1 0xA0 SHL SUB NOT AND PUSH1 0x1 PUSH1 0x1 PUSH1 0xA0 SHL SUB SWAP3 SWAP1 SWAP3 AND SWAP2 SWAP1 SWAP2 OR SWAP1 SSTORE PUSH1 0x40 MLOAD PUSH2 0x15E3 SWAP1 PUSH2 0x212F JUMP JUMPDEST PUSH1 0x40 MLOAD DUP1 SWAP2 SUB SWAP1 PUSH0 CREATE DUP1 ISZERO DUP1 ISZERO PUSH2 0x15FC JUMPI RETURNDATASIZE PUSH0 DUP1 RETURNDATACOPY RETURNDATASIZE PUSH0 REVERT JUMPDEST POP PUSH1 0x1 DUP1 SLOAD PUSH1 0x1 PUSH1 0x1 PUSH1 0xA0 SHL SUB NOT AND PUSH1 0x1 PUSH1 0x1 PUSH1 0xA0 SHL SUB SWAP3 SWAP1 SWAP3 AND SWAP2 SWAP1 SWAP2 OR SWAP1 SSTORE PUSH1 0x40 MLOAD PUSH2 0x1629 SWAP1 PUSH2 0x2122 JUMP JUMPDEST PUSH1 0x40 MLOAD DUP1 SWAP2 SUB SWAP1 PUSH0 CREATE DUP1 ISZERO DUP1 ISZERO PUSH2 0x1642 JUMPI RETURNDATASIZE PUSH0 DUP1 RETURNDATACOPY RETURNDATASIZE PUSH0 REVERT JUMPDEST POP PUSH1 0x2 DUP1 SLOAD PUSH1 0x1 PUSH1 0x1 PUSH1 0xA0 SHL SUB NOT AND PUSH1 0x1 PUSH1 0x1 PUSH1 0xA0 SHL SUB SWAP3 SWAP1 SWAP3 AND SWAP2 SWAP1 SWAP2 OR SWAP1 SSTORE PUSH1 0x40 MLOAD PUSH2 0x166F SWAP1 PUSH2 0x213B JUMP JUMPDEST PUSH1 0x40 MLOAD DUP1 SWAP2 SUB SWAP1 PUSH0 CREATE DUP1 ISZERO DUP1 ISZERO PUSH2 0x1688 JUMPI RETURNDATASIZE PUSH0 DUP1 RETURNDATACOPY RETURNDATASIZE PUSH0 REVERT JUMPDEST POP PUSH1 0x4 DUP1 SLOAD PUSH1 0x1 PUSH1 0x1 PUSH1 0xA0 SHL SUB NOT AND PUSH1 0x1 PUSH1 0x1 PUSH1 0xA0 SHL SUB SWAP3 SWAP1 SWAP3 AND SWAP2 SWAP1 SWAP2 OR SWAP1 SSTORE JUMP JUMPDEST PUSH0 SLOAD PUSH1 0x1 DUP1 SLOAD PUSH1 0x40 MLOAD PUSH4 0x54C82C35 PUSH1 0xE1 SHL DUP2 MSTORE PUSH1 0x1 PUSH1 0x1 PUSH1 0xA0 SHL SUB SWAP4 DUP5 AND SWAP4 PUSH4 0xA990586A SWAP4 PUSH2 0x16E5 SWAP4 SWAP1 SWAP3 SWAP2 AND SWAP1 DUP3 SWAP1 DUP2 SWAP1 PUSH1 0x4 ADD PUSH2 0x24F1 JUMP JUMPDEST PUSH0 PUSH1 0x40 MLOAD DUP1 DUP4 SUB DUP2 PUSH0 DUP8 DUP1 EXTCODESIZE ISZERO DUP1 ISZERO PUSH2 0x16FC JUMPI PUSH0 DUP1 REVERT JUMPDEST POP GAS CALL ISZERO DUP1 ISZERO PUSH2 0x170E JUMPI RETURNDATASIZE PUSH0 DUP1 RETURNDATACOPY RETURNDATASIZE PUSH0 REVERT JUMPDEST POP POP PUSH1 0x4 DUP1 SLOAD PUSH0 SLOAD PUSH1 0x40 MLOAD PUSH4 0xBCFC717 PUSH1 0xE0 SHL DUP2 MSTORE PUSH1 0x1 PUSH1 0x1 PUSH1 0xA0 SHL SUB SWAP2 DUP3 AND SWAP4 DUP2 ADD SWAP4 SWAP1 SWAP4 MSTORE AND SWAP3 POP PUSH4 0xBCFC717 SWAP2 POP PUSH1 0x24 ADD PUSH0 PUSH1 0x40 MLOAD DUP1 DUP4 SUB DUP2 PUSH0 DUP8 DUP1 EXTCODESIZE ISZERO DUP1 ISZERO PUSH2 0x1759 JUMPI PUSH0 DUP1 REVERT JUMPDEST POP GAS CALL ISZERO DUP1 ISZERO PUSH2 0x176B JUMPI RETURNDATASIZE PUSH0 DUP1 RETURNDATACOPY RETURNDATASIZE PUSH0 REVERT JUMPDEST POP POP PUSH1 0x4 DUP1 SLOAD PUSH1 0x1 SLOAD PUSH1 0x40 MLOAD PUSH4 0x80719893 PUSH1 0xE0 SHL DUP2 MSTORE PUSH1 0x1 PUSH1 0x1 PUSH1 0xA0 SHL SUB SWAP3 DUP4 AND SWAP6 POP PUSH4 0x80719893 SWAP5 POP PUSH2 0x17A6 SWAP4 PUSH1 0x3 SWAP4 SWAP1 SWAP3 AND SWAP2 ADD PUSH2 0x2425 JUMP JUMPDEST PUSH0 PUSH1 0x40 MLOAD DUP1 DUP4 SUB DUP2 PUSH0 DUP8 DUP1 EXTCODESIZE ISZERO DUP1 ISZERO PUSH2 0x17BD JUMPI PUSH0 DUP1 REVERT JUMPDEST POP GAS CALL ISZERO DUP1 ISZERO PUSH2 0x17CF JUMPI RETURNDATASIZE PUSH0 DUP1 RETURNDATACOPY RETURNDATASIZE PUSH0 REVERT JUMPDEST POP POP PUSH1 0x4 DUP1 SLOAD PUSH1 0x40 DUP1 MLOAD PUSH4 0x6E5ECDFF PUSH1 0xE0 SHL DUP2 MSTORE SWAP1 MLOAD PUSH1 0x1 PUSH1 0x1 PUSH1 0xA0 SHL SUB SWAP1 SWAP3 AND SWAP5 POP PUSH4 0x6E5ECDFF SWAP4 POP DUP1 DUP4 ADD SWAP3 PUSH0 SWAP3 SWAP2 DUP3 SWAP1 SUB ADD DUP2 DUP4 DUP8 DUP1 EXTCODESIZE ISZERO DUP1 ISZERO PUSH2 0x1814 JUMPI PUSH0 DUP1 REVERT JUMPDEST POP GAS CALL ISZERO DUP1 ISZERO PUSH2 0x1826 JUMPI RETURNDATASIZE PUSH0 DUP1 RETURNDATACOPY RETURNDATASIZE PUSH0 REVERT JUMPDEST POP POP PUSH1 0x4 DUP1 SLOAD PUSH1 0x40 MLOAD PUSH4 0x53FF7391 PUSH1 0xE1 SHL DUP2 MSTORE PUSH0 SWAP5 POP PUSH1 0x1 PUSH1 0x1 PUSH1 0xA0 SHL SUB SWAP1 SWAP2 AND SWAP3 POP PUSH4 0xA7FEE722 SWAP2 PUSH2 0x185C SWAP2 PUSH1 0x3 SWAP2 ADD PUSH2 0x2774 JUMP JUMPDEST PUSH0 PUSH1 0x40 MLOAD DUP1 DUP4 SUB DUP2 PUSH0 DUP8 GAS CALL ISZERO DUP1 ISZERO PUSH2 0x1877 JUMPI RETURNDATASIZE PUSH0 DUP1 RETURNDATACOPY RETURNDATASIZE PUSH0 REVERT JUMPDEST POP POP POP POP PUSH1 0x40 MLOAD RETURNDATASIZE PUSH0 DUP3 RETURNDATACOPY PUSH1 0x1F RETURNDATASIZE SWAP1 DUP2 ADD PUSH1 0x1F NOT AND DUP3 ADD PUSH1 0x40 MSTORE PUSH2 0x189E SWAP2 SWAP1 DUP2 ADD SWAP1 PUSH2 0x26B0 JUMP JUMPDEST DUP1 MLOAD PUSH1 0x40 MLOAD PUSH4 0x2B080AF1 PUSH1 0xE1 SHL DUP2 MSTORE SWAP2 SWAP3 POP PUSH20 0x0 SWAP2 PUSH4 0x561015E2 SWAP2 PUSH2 0x223 SWAP2 PUSH0 SWAP1 PUSH1 0x4 ADD PUSH2 0x26F5 JUMP JUMPDEST PUSH1 0x4 DUP1 SLOAD PUSH0 SLOAD PUSH1 0x40 MLOAD PUSH4 0xBCFC717 PUSH1 0xE0 SHL DUP2 MSTORE PUSH1 0x1 PUSH1 0x1 PUSH1 0xA0 SHL SUB SWAP2 DUP3 AND SWAP4 DUP2 ADD SWAP4 SWAP1 SWAP4 MSTORE AND SWAP1 PUSH4 0xBCFC717 SWAP1 PUSH1 0x24 ADD PUSH0 PUSH1 0x40 MLOAD DUP1 DUP4 SUB DUP2 PUSH0 DUP8 DUP1 EXTCODESIZE ISZERO DUP1 ISZERO PUSH2 0x1921 JUMPI PUSH0 DUP1 REVERT JUMPDEST POP GAS CALL ISZERO DUP1 ISZERO PUSH2 0x1933 JUMPI RETURNDATASIZE PUSH0 DUP1 RETURNDATACOPY RETURNDATASIZE PUSH0 REVERT JUMPDEST POP POP POP POP PUSH20 0x0 PUSH4 0xBFBA5DD6 PUSH1 0x4 PUSH0 SWAP1 SLOAD SWAP1 PUSH2 0x100 EXP SWAP1 DIV PUSH1 0x1 PUSH1 0x1 PUSH1 0xA0 SHL SUB AND PUSH1 0x1 PUSH1 0x1 PUSH1 0xA0 SHL SUB AND PUSH4 0xA791EDF8 PUSH1 0x40 MLOAD DUP2 PUSH4 0xFFFFFFFF AND PUSH1 0xE0 SHL DUP2 MSTORE PUSH1 0x4 ADD PUSH1 0x20 PUSH1 0x40 MLOAD DUP1 DUP4 SUB DUP2 DUP7 GAS STATICCALL ISZERO DUP1 ISZERO PUSH2 0x19A1 JUMPI RETURNDATASIZE PUSH0 DUP1 RETURNDATACOPY RETURNDATASIZE PUSH0 REVERT JUMPDEST POP POP POP POP PUSH1 0x40 MLOAD RETURNDATASIZE PUSH1 0x1F NOT PUSH1 0x1F DUP3 ADD AND DUP3 ADD DUP1 PUSH1 0x40 MSTORE POP DUP2 ADD SWAP1 PUSH2 0x19C5 SWAP2 SWAP1 PUSH2 0x218B JUMP JUMPDEST PUSH0 SLOAD PUSH1 0x40 MLOAD PUSH1 0xE0 DUP5 SWAP1 SHL PUSH1 0x1 PUSH1 0x1 PUSH1 0xE0 SHL SUB NOT AND DUP2 MSTORE PUSH1 0x1 PUSH1 0x1 PUSH1 0xA0 SHL SUB SWAP3 DUP4 AND PUSH1 0x4 DUP3 ADD MSTORE SWAP2 AND PUSH1 0x24 DUP3 ADD MSTORE PUSH1 0x60 PUSH1 0x44 DUP3 ADD MSTORE PUSH1 0x2E PUSH1 0x64 DUP3 ADD MSTORE PUSH32 0x446570656E64656E6379207265717565737465722073686F756C642062652073 PUSH1 0x84 DUP3 ADD MSTORE PUSH14 0x32BA10313C903232B83637BCB2B9 PUSH1 0x91 SHL PUSH1 0xA4 DUP3 ADD MSTORE PUSH1 0xC4 ADD PUSH2 0x300 JUMP JUMPDEST PUSH1 0x4 DUP1 SLOAD PUSH1 0x40 MLOAD PUSH4 0x53FF7391 PUSH1 0xE1 SHL DUP2 MSTORE PUSH1 0x1 PUSH1 0x1 PUSH1 0xA0 SHL SUB SWAP1 SWAP2 AND SWAP2 PUSH4 0xA7FEE722 SWAP2 PUSH2 0x1A72 SWAP2 ADD PUSH2 0x27C8 JUMP JUMPDEST PUSH0 PUSH1 0x40 MLOAD DUP1 DUP4 SUB DUP2 PUSH0 DUP8 GAS CALL SWAP3 POP POP POP DUP1 ISZERO PUSH2 0x1AAF JUMPI POP PUSH1 0x40 MLOAD RETURNDATASIZE PUSH0 DUP3 RETURNDATACOPY PUSH1 0x1F RETURNDATASIZE SWAP1 DUP2 ADD PUSH1 0x1F NOT AND DUP3 ADD PUSH1 0x40 MSTORE PUSH2 0x1AAC SWAP2 SWAP1 DUP2 ADD SWAP1 PUSH2 0x26B0 JUMP JUMPDEST PUSH1 0x1 JUMPDEST PUSH2 0x1B11 JUMPI PUSH2 0x1ABB PUSH2 0x21AD JUMP JUMPDEST DUP1 PUSH4 0x8C379A0 SUB PUSH2 0x266 JUMPI POP PUSH2 0x1ACF PUSH2 0x2207 JUMP JUMPDEST DUP1 PUSH2 0x1ADA JUMPI POP PUSH2 0x268 JUMP JUMPDEST PUSH1 0x40 MLOAD PUSH4 0x7461658B PUSH1 0xE1 SHL DUP2 MSTORE PUSH20 0x0 SWAP1 PUSH4 0xE8C2CB16 SWAP1 PUSH2 0x223 SWAP1 DUP5 SWAP1 PUSH1 0x4 ADD PUSH2 0x2831 JUMP JUMPDEST POP PUSH1 0x40 DUP1 MLOAD PUSH4 0x39DF137F PUSH1 0xE0 SHL DUP2 MSTORE PUSH0 PUSH1 0x4 DUP3 ADD MSTORE PUSH1 0x24 DUP2 ADD SWAP2 SWAP1 SWAP2 MSTORE PUSH1 0x3F PUSH1 0x44 DUP3 ADD MSTORE PUSH32 0x53686F756C6420726576657274207768656E2063616C6C696E672066756E6374 PUSH1 0x64 DUP3 ADD MSTORE PUSH32 0x696F6E207769746820696E76616C696420646570656E64656E6379206B657900 PUSH1 0x84 DUP3 ADD MSTORE PUSH20 0x0 SWAP1 PUSH4 0x39DF137F SWAP1 PUSH1 0xA4 ADD PUSH2 0x300 JUMP JUMPDEST PUSH1 0x4 DUP1 SLOAD PUSH0 SLOAD PUSH1 0x40 MLOAD PUSH4 0xBCFC717 PUSH1 0xE0 SHL DUP2 MSTORE PUSH1 0x1 PUSH1 0x1 PUSH1 0xA0 SHL SUB SWAP2 DUP3 AND SWAP4 DUP2 ADD SWAP4 SWAP1 SWAP4 MSTORE AND SWAP1 PUSH4 0xBCFC717 SWAP1 PUSH1 0x24 ADD PUSH0 PUSH1 0x40 MLOAD DUP1 DUP4 SUB DUP2 PUSH0 DUP8 DUP1 EXTCODESIZE ISZERO DUP1 ISZERO PUSH2 0x1BEC JUMPI PUSH0 DUP1 REVERT JUMPDEST POP GAS CALL ISZERO DUP1 ISZERO PUSH2 0x1BFE JUMPI RETURNDATASIZE PUSH0 DUP1 RETURNDATACOPY RETURNDATASIZE PUSH0 REVERT JUMPDEST POP POP POP POP PUSH20 0x0 PUSH4 0xBFBA5DD6 PUSH1 0x4 PUSH0 SWAP1 SLOAD SWAP1 PUSH2 0x100 EXP SWAP1 DIV PUSH1 0x1 PUSH1 0x1 PUSH1 0xA0 SHL SUB AND PUSH1 0x1 PUSH1 0x1 PUSH1 0xA0 SHL SUB AND PUSH4 0xA791EDF8 PUSH1 0x40 MLOAD DUP2 PUSH4 0xFFFFFFFF AND PUSH1 0xE0 SHL DUP2 MSTORE PUSH1 0x4 ADD PUSH1 0x20 PUSH1 0x40 MLOAD DUP1 DUP4 SUB DUP2 DUP7 GAS STATICCALL ISZERO DUP1 ISZERO PUSH2 0x1C6C JUMPI RETURNDATASIZE PUSH0 DUP1 RETURNDATACOPY RETURNDATASIZE PUSH0 REVERT JUMPDEST POP POP POP POP PUSH1 0x40 MLOAD RETURNDATASIZE PUSH1 0x1F NOT PUSH1 0x1F DUP3 ADD AND DUP3 ADD DUP1 PUSH1 0x40 MSTORE POP DUP2 ADD SWAP1 PUSH2 0x1C90 SWAP2 SWAP1 PUSH2 0x218B JUMP JUMPDEST PUSH0 SLOAD PUSH1 0x40 MLOAD PUSH1 0xE0 DUP5 SWAP1 SHL PUSH1 0x1 PUSH1 0x1 PUSH1 0xE0 SHL SUB NOT AND DUP2 MSTORE PUSH1 0x1 PUSH1 0x1 PUSH1 0xA0 SHL SUB SWAP3 DUP4 AND PUSH1 0x4 DUP3 ADD MSTORE SWAP2 AND PUSH1 0x24 DUP3 ADD MSTORE PUSH1 0x60 PUSH1 0x44 DUP3 ADD MSTORE PUSH1 0x22 PUSH1 0x64 DUP3 ADD MSTORE PUSH32 0x446570656E64656E6379207265717565737465722073686F756C642062652073 PUSH1 0x84 DUP3 ADD MSTORE PUSH2 0x195D PUSH1 0xF2 SHL PUSH1 0xA4 DUP3 ADD MSTORE PUSH1 0xC4 ADD PUSH2 0x300 JUMP JUMPDEST PUSH1 0x4 DUP1 SLOAD PUSH0 SLOAD PUSH1 0x40 MLOAD PUSH4 0xBCFC717 PUSH1 0xE0 SHL DUP2 MSTORE PUSH1 0x1 PUSH1 0x1 PUSH1 0xA0 SHL SUB SWAP2 DUP3 AND SWAP4 DUP2 ADD SWAP4 SWAP1 SWAP4 MSTORE AND SWAP1 PUSH4 0xBCFC717 SWAP1 PUSH1 0x24 ADD PUSH0 PUSH1 0x40 MLOAD DUP1 DUP4 SUB DUP2 PUSH0 DUP8 DUP1 EXTCODESIZE ISZERO DUP1 ISZERO PUSH2 0x1D4B JUMPI PUSH0 DUP1 REVERT JUMPDEST POP GAS CALL ISZERO DUP1 ISZERO PUSH2 0x1D5D JUMPI RETURNDATASIZE PUSH0 DUP1 RETURNDATACOPY RETURNDATASIZE PUSH0 REVERT JUMPDEST POP POP PUSH1 0x4 DUP1 SLOAD PUSH1 0x2 SLOAD PUSH1 0x40 MLOAD PUSH4 0x16C1076F PUSH1 0xE0 SHL DUP2 MSTORE PUSH1 0x1 PUSH1 0x1 PUSH1 0xA0 SHL SUB SWAP2 DUP3 AND SWAP4 DUP2 ADD SWAP4 SWAP1 SWAP4 MSTORE AND SWAP3 POP PUSH4 0x16C1076F SWAP2 POP PUSH1 0x24 ADD PUSH0 PUSH1 0x40 MLOAD DUP1 DUP4 SUB DUP2 PUSH0 DUP8 DUP1 EXTCODESIZE ISZERO DUP1 ISZERO PUSH2 0x1DA9 JUMPI PUSH0 DUP1 REVERT JUMPDEST POP GAS CALL ISZERO DUP1 ISZERO PUSH2 0x1DBB JUMPI RETURNDATASIZE PUSH0 DUP1 RETURNDATACOPY RETURNDATASIZE PUSH0 REVERT JUMPDEST POP POP PUSH1 0x4 DUP1 SLOAD PUSH1 0x2 SLOAD PUSH1 0x40 MLOAD PUSH4 0x16C1076F PUSH1 0xE0 SHL DUP2 MSTORE PUSH1 0x1 PUSH1 0x1 PUSH1 0xA0 SHL SUB SWAP2 DUP3 AND SWAP4 DUP2 ADD SWAP4 SWAP1 SWAP4 MSTORE AND SWAP3 POP PUSH4 0x16C1076F SWAP2 POP PUSH1 0x24 ADD PUSH0 PUSH1 0x40 MLOAD DUP1 DUP4 SUB DUP2 PUSH0 DUP8 DUP1 EXTCODESIZE ISZERO DUP1 ISZERO PUSH2 0x1E07 JUMPI PUSH0 DUP1 REVERT JUMPDEST POP GAS CALL SWAP3 POP POP POP DUP1 ISZERO PUSH2 0x1E18 JUMPI POP PUSH1 0x1 JUMPDEST PUSH2 0x1E7A JUMPI PUSH2 0x1E24 PUSH2 0x21AD JUMP JUMPDEST DUP1 PUSH4 0x8C379A0 SUB PUSH2 0x266 JUMPI POP PUSH2 0x1E38 PUSH2 0x2207 JUMP JUMPDEST DUP1 PUSH2 0x1E43 JUMPI POP PUSH2 0x268 JUMP JUMPDEST PUSH1 0x40 MLOAD PUSH4 0x7461658B PUSH1 0xE1 SHL DUP2 MSTORE PUSH20 0x0 SWAP1 PUSH4 0xE8C2CB16 SWAP1 PUSH2 0x223 SWAP1 DUP5 SWAP1 PUSH1 0x4 ADD PUSH2 0x289D JUMP JUMPDEST PUSH1 0x40 DUP1 MLOAD PUSH4 0x39DF137F PUSH1 0xE0 SHL DUP2 MSTORE PUSH0 PUSH1 0x4 DUP3 ADD MSTORE PUSH1 0x24 DUP2 ADD SWAP2 SWAP1 SWAP2 MSTORE PUSH1 0x3A PUSH1 0x44 DUP3 ADD MSTORE PUSH32 0x53686F756C64206E6F742062652061626C6520746F207265717565737420616E PUSH1 0x64 DUP3 ADD MSTORE PUSH32 0x2075706772616465206966206F6E652069732070656E64696E67000000000000 PUSH1 0x84 DUP3 ADD MSTORE PUSH20 0x0 SWAP1 PUSH4 0x39DF137F SWAP1 PUSH1 0xA4 ADD PUSH2 0x300 JUMP JUMPDEST PUSH1 0x4 DUP1 SLOAD PUSH0 SLOAD PUSH1 0x40 MLOAD PUSH4 0xBCFC717 PUSH1 0xE0 SHL DUP2 MSTORE PUSH1 0x1 PUSH1 0x1 PUSH1 0xA0 SHL SUB SWAP2 DUP3 AND SWAP4 DUP2 ADD SWAP4 SWAP1 SWAP4 MSTORE AND SWAP1 PUSH4 0xBCFC717 SWAP1 PUSH1 0x24 ADD PUSH0 PUSH1 0x40 MLOAD DUP1 DUP4 SUB DUP2 PUSH0 DUP8 DUP1 EXTCODESIZE ISZERO DUP1 ISZERO PUSH2 0x1F54 JUMPI PUSH0 DUP1 REVERT JUMPDEST POP GAS CALL ISZERO DUP1 ISZERO PUSH2 0x1F66 JUMPI RETURNDATASIZE PUSH0 DUP1 RETURNDATACOPY RETURNDATASIZE PUSH0 REVERT JUMPDEST POP POP PUSH1 0x4 DUP1 SLOAD PUSH1 0x1 SLOAD PUSH1 0x40 MLOAD PUSH4 0x3EF8CCB7 PUSH1 0xE2 SHL DUP2 MSTORE PUSH1 0x1 PUSH1 0x1 PUSH1 0xA0 SHL SUB SWAP3 DUP4 AND SWAP6 POP PUSH4 0xFBE332DC SWAP5 POP PUSH2 0x1FA1 SWAP4 PUSH1 0x3 SWAP4 SWAP1 SWAP3 AND SWAP2 ADD PUSH2 0x2425 JUMP JUMPDEST PUSH0 PUSH1 0x40 MLOAD DUP1 DUP4 SUB DUP2 PUSH0 DUP8 DUP1 EXTCODESIZE ISZERO DUP1 ISZERO PUSH2 0x1FB8 JUMPI PUSH0 DUP1 REVERT JUMPDEST POP GAS CALL ISZERO DUP1 ISZERO PUSH2 0x1FCA JUMPI RETURNDATASIZE PUSH0 DUP1 RETURNDATACOPY RETURNDATASIZE PUSH0 REVERT JUMPDEST POP POP PUSH1 0x4 DUP1 SLOAD PUSH1 0x1 SLOAD PUSH1 0x40 MLOAD PUSH4 0x3EF8CCB7 PUSH1 0xE2 SHL DUP2 MSTORE PUSH1 0x1 PUSH1 0x1 PUSH1 0xA0 SHL SUB SWAP3 DUP4 AND SWAP6 POP PUSH4 0xFBE332DC SWAP5 POP PUSH2 0x2005 SWAP4 PUSH1 0x3 SWAP4 SWAP1 SWAP3 AND SWAP2 ADD PUSH2 0x2425 JUMP JUMPDEST PUSH0 PUSH1 0x40 MLOAD DUP1 DUP4 SUB DUP2 PUSH0 DUP8 DUP1 EXTCODESIZE ISZERO DUP1 ISZERO PUSH2 0x201C JUMPI PUSH0 DUP1 REVERT JUMPDEST POP GAS CALL SWAP3 POP POP POP DUP1 ISZERO PUSH2 0x202D JUMPI POP PUSH1 0x1 JUMPDEST PUSH2 0x208F JUMPI PUSH2 0x2039 PUSH2 0x21AD JUMP JUMPDEST DUP1 PUSH4 0x8C379A0 SUB PUSH2 0x266 JUMPI POP PUSH2 0x204D PUSH2 0x2207 JUMP JUMPDEST DUP1 PUSH2 0x2058 JUMPI POP PUSH2 0x268 JUMP JUMPDEST PUSH1 0x40 MLOAD PUSH4 0x7461658B PUSH1 0xE1 SHL DUP2 MSTORE PUSH20 0x0 SWAP1 PUSH4 0xE8C2CB16 SWAP1 PUSH2 0x223 SWAP1 DUP5 SWAP1 PUSH1 0x4 ADD PUSH2 0x2955 JUMP JUMPDEST PUSH1 0x40 DUP1 MLOAD PUSH4 0x39DF137F PUSH1 0xE0 SHL DUP2 MSTORE PUSH0 PUSH1 0x4 DUP3 ADD MSTORE PUSH1 0x24 DUP2 ADD SWAP2 SWAP1 SWAP2 MSTORE PUSH1 0x3F PUSH1 0x44 DUP3 ADD MSTORE PUSH32 0x53686F756C64206E6F742062652061626C6520746F2072657175657374207468 PUSH1 0x64 DUP3 ADD MSTORE PUSH32 0x652073616D6520646570656E64656E63792072656D6F76616C20747769636500 PUSH1 0x84 DUP3 ADD MSTORE PUSH20 0x0 SWAP1 PUSH4 0x39DF137F SWAP1 PUSH1 0xA4 ADD PUSH2 0x300 JUMP JUMPDEST PUSH2 0x634 DUP1 PUSH2 0x2A0D DUP4 CODECOPY ADD SWAP1 JUMP JUMPDEST PUSH1 0x92 DUP1 PUSH2 0x3041 DUP4 CODECOPY ADD SWAP1 JUMP JUMPDEST PUSH2 0x1EAA DUP1 PUSH2 0x30D3 DUP4 CODECOPY ADD SWAP1 JUMP JUMPDEST PUSH1 0x20 DUP2 MSTORE PUSH0 PUSH2 0x2171 PUSH1 0x20 DUP4 ADD PUSH1 0xA DUP2 MSTORE PUSH10 0x496E76616C69644B6579 PUSH1 0xB0 SHL PUSH1 0x20 DUP3 ADD MSTORE PUSH1 0x40 ADD SWAP1 JUMP JUMPDEST SWAP3 SWAP2 POP POP JUMP JUMPDEST PUSH1 0x1 PUSH1 0x1 PUSH1 0xA0 SHL SUB DUP2 AND DUP2 EQ PUSH2 0x33F JUMPI PUSH0 DUP1 REVERT JUMPDEST PUSH0 PUSH1 0x20 DUP3 DUP5 SUB SLT ISZERO PUSH2 0x219B JUMPI PUSH0 DUP1 REVERT JUMPDEST DUP2 MLOAD PUSH2 0x21A6 DUP2 PUSH2 0x2177 JUMP JUMPDEST SWAP4 SWAP3 POP POP POP JUMP JUMPDEST PUSH0 PUSH1 0x3 RETURNDATASIZE GT ISZERO PUSH2 0x21C3 JUMPI PUSH1 0x4 PUSH0 DUP1 RETURNDATACOPY POP PUSH0 MLOAD PUSH1 0xE0 SHR JUMPDEST SWAP1 JUMP JUMPDEST PUSH4 0x4E487B71 PUSH1 0xE0 SHL PUSH0 MSTORE PUSH1 0x41 PUSH1 0x4 MSTORE PUSH1 0x24 PUSH0 REVERT JUMPDEST PUSH1 0x1F DUP3 ADD PUSH1 0x1F NOT AND DUP2 ADD PUSH8 0xFFFFFFFFFFFFFFFF DUP2 GT DUP3 DUP3 LT OR ISZERO PUSH2 0x2200 JUMPI PUSH2 0x2200 PUSH2 0x21C6 JUMP JUMPDEST PUSH1 0x40 MSTORE POP POP JUMP JUMPDEST PUSH0 PUSH1 0x44 RETURNDATASIZE LT ISZERO PUSH2 0x2214 JUMPI SWAP1 JUMP JUMPDEST PUSH1 0x40 MLOAD RETURNDATASIZE PUSH1 0x3 NOT ADD PUSH1 0x4 DUP3 RETURNDATACOPY DUP1 MLOAD RETURNDATASIZE PUSH1 0x24 DUP3 ADD GT PUSH8 0xFFFFFFFFFFFFFFFF DUP3 GT OR ISZERO PUSH2 0x223E JUMPI POP POP SWAP1 JUMP JUMPDEST DUP1 DUP3 ADD DUP1 MLOAD PUSH8 0xFFFFFFFFFFFFFFFF DUP2 GT ISZERO PUSH2 0x225A JUMPI POP POP POP POP SWAP1 JUMP JUMPDEST RETURNDATASIZE DUP5 ADD PUSH1 0x3 NOT ADD DUP3 DUP3 ADD PUSH1 0x20 ADD GT ISZERO PUSH2 0x2274 JUMPI POP POP POP POP SWAP1 JUMP JUMPDEST PUSH2 0x2283 PUSH1 0x20 DUP3 DUP6 ADD ADD DUP6 PUSH2 0x21DA JUMP JUMPDEST POP SWAP4 SWAP3 POP POP POP JUMP JUMPDEST PUSH0 DUP2 MLOAD DUP1 DUP5 MSTORE DUP1 PUSH1 0x20 DUP5 ADD PUSH1 0x20 DUP7 ADD MCOPY PUSH0 PUSH1 0x20 DUP3 DUP7 ADD ADD MSTORE PUSH1 0x20 PUSH1 0x1F NOT PUSH1 0x1F DUP4 ADD AND DUP6 ADD ADD SWAP2 POP POP SWAP3 SWAP2 POP POP JUMP JUMPDEST PUSH1 0x22 DUP2 MSTORE PUSH32 0x45787065637465642072656A656374696F6E20666F7220696E76616C6964206B PUSH1 0x20 DUP3 ADD MSTORE PUSH2 0x6579 PUSH1 0xF0 SHL PUSH1 0x40 DUP3 ADD MSTORE PUSH1 0x60 ADD SWAP1 JUMP JUMPDEST PUSH1 0x60 DUP2 MSTORE PUSH0 PUSH2 0x2306 PUSH1 0x60 DUP4 ADD DUP5 PUSH2 0x228B JUMP JUMPDEST DUP3 DUP2 SUB DUP1 PUSH1 0x20 DUP6 ADD MSTORE PUSH1 0x28 DUP3 MSTORE PUSH32 0x746865206B657920646F6573204E4F5420706F696E7420746F20616E79206465 PUSH1 0x20 DUP4 ADD MSTORE PUSH8 0x70656E64656E6379 PUSH1 0xC0 SHL PUSH1 0x40 DUP4 ADD MSTORE PUSH1 0x60 DUP2 ADD PUSH1 0x40 DUP6 ADD MSTORE POP PUSH2 0x2360 PUSH1 0x60 DUP3 ADD PUSH2 0x22B9 JUMP JUMPDEST SWAP5 SWAP4 POP POP POP POP JUMP JUMPDEST PUSH0 PUSH1 0x20 DUP3 DUP5 SUB SLT ISZERO PUSH2 0x2378 JUMPI PUSH0 DUP1 REVERT JUMPDEST DUP2 MLOAD DUP1 ISZERO ISZERO DUP2 EQ PUSH2 0x21A6 JUMPI PUSH0 DUP1 REVERT JUMPDEST DUP1 SLOAD PUSH0 SWAP1 PUSH1 0x1 DUP2 DUP2 SHR SWAP1 DUP3 AND DUP1 PUSH2 0x239F JUMPI PUSH1 0x7F DUP3 AND SWAP2 POP JUMPDEST PUSH1 0x20 DUP3 LT DUP2 SUB PUSH2 0x23BD JUMPI PUSH4 0x4E487B71 PUSH1 0xE0 SHL PUSH0 MSTORE PUSH1 0x22 PUSH1 0x4 MSTORE PUSH1 0x24 PUSH0 REVERT JUMPDEST DUP2 DUP7 MSTORE PUSH1 0x20 DUP7 ADD DUP2 DUP1 ISZERO PUSH2 0x23D8 JUMPI PUSH1 0x1 DUP2 EQ PUSH2 0x23EE JUMPI PUSH2 0x241A JUMP JUMPDEST PUSH1 0xFF NOT DUP6 AND DUP3 MSTORE DUP4 ISZERO ISZERO PUSH1 0x5 SHL DUP3 ADD SWAP6 POP PUSH2 0x241A JUMP JUMPDEST PUSH0 DUP8 DUP2 MSTORE PUSH1 0x20 SWAP1 KECCAK256 PUSH0 JUMPDEST DUP6 DUP2 LT ISZERO PUSH2 0x2414 JUMPI DUP2 SLOAD DUP5 DUP3 ADD MSTORE PUSH1 0x1 SWAP1 SWAP2 ADD SWAP1 PUSH1 0x20 ADD PUSH2 0x23F8 JUMP JUMPDEST DUP4 ADD SWAP7 POP POP JUMPDEST POP POP POP POP POP SWAP3 SWAP2 POP POP JUMP JUMPDEST PUSH1 0x40 DUP2 MSTORE PUSH0 PUSH2 0x2437 PUSH1 0x40 DUP4 ADD DUP6 PUSH2 0x2387 JUMP JUMPDEST SWAP1 POP PUSH1 0x1 DUP1 PUSH1 0xA0 SHL SUB DUP4 AND PUSH1 0x20 DUP4 ADD MSTORE SWAP4 SWAP3 POP POP POP JUMP JUMPDEST PUSH1 0x60 DUP2 MSTORE PUSH0 PUSH2 0x2460 PUSH1 0x60 DUP4 ADD DUP5 PUSH2 0x228B JUMP JUMPDEST DUP3 DUP2 SUB DUP1 PUSH1 0x20 DUP6 ADD MSTORE PUSH1 0x20 DUP3 MSTORE PUSH32 0x74686520646570656E64656E637920616C726561647920726571756573746564 PUSH1 0x20 DUP4 ADD MSTORE PUSH1 0x40 DUP2 ADD PUSH1 0x40 DUP6 ADD MSTORE POP PUSH1 0x31 PUSH1 0x40 DUP3 ADD MSTORE PUSH32 0x45787065637465642072656A656374696F6E20666F72206475706C6963617465 PUSH1 0x60 DUP3 ADD MSTORE PUSH17 0x81859191A5D1A5BDB881C995C5D595CDD PUSH1 0x7A SHL PUSH1 0x80 DUP3 ADD MSTORE PUSH1 0xA0 DUP2 ADD SWAP2 POP POP SWAP3 SWAP2 POP POP JUMP JUMPDEST SWAP4 DUP5 MSTORE PUSH1 0x1 PUSH1 0x1 PUSH1 0xA0 SHL SUB SWAP3 SWAP1 SWAP3 AND PUSH1 0x20 DUP5 ADD MSTORE ISZERO ISZERO PUSH1 0x40 DUP4 ADD MSTORE ISZERO ISZERO PUSH1 0x60 DUP3 ADD MSTORE PUSH1 0x80 ADD SWAP1 JUMP JUMPDEST PUSH0 DUP1 PUSH8 0xFFFFFFFFFFFFFFFF DUP5 GT ISZERO PUSH2 0x2533 JUMPI PUSH2 0x2533 PUSH2 0x21C6 JUMP JUMPDEST POP PUSH1 0x40 MLOAD PUSH1 0x1F DUP5 ADD PUSH1 0x1F NOT AND PUSH1 0x20 ADD SWAP1 PUSH2 0x254D DUP3 DUP3 PUSH2 0x21DA JUMP JUMPDEST DUP1 SWAP3 POP DUP5 DUP2 MSTORE DUP6 DUP6 DUP6 ADD GT ISZERO PUSH2 0x2561 JUMPI PUSH0 DUP1 REVERT JUMPDEST DUP5 DUP5 PUSH1 0x20 DUP4 ADD MCOPY PUSH0 PUSH1 0x20 DUP7 DUP4 ADD ADD MSTORE POP POP SWAP4 SWAP3 POP POP POP JUMP JUMPDEST PUSH0 PUSH1 0x20 DUP3 DUP5 SUB SLT ISZERO PUSH2 0x2589 JUMPI PUSH0 DUP1 REVERT JUMPDEST DUP2 MLOAD PUSH8 0xFFFFFFFFFFFFFFFF DUP2 GT ISZERO PUSH2 0x259F JUMPI PUSH0 DUP1 REVERT JUMPDEST DUP3 ADD PUSH1 0x1F DUP2 ADD DUP5 SGT PUSH2 0x25AF JUMPI PUSH0 DUP1 REVERT JUMPDEST DUP1 MLOAD PUSH8 0xFFFFFFFFFFFFFFFF DUP2 GT ISZERO PUSH2 0x25C9 JUMPI PUSH2 0x25C9 PUSH2 0x21C6 JUMP JUMPDEST DUP1 PUSH1 0x5 SHL PUSH1 0x40 MLOAD PUSH2 0x25DD PUSH1 0x20 DUP4 ADD DUP3 PUSH2 0x21DA JUMP JUMPDEST SWAP2 DUP3 MSTORE PUSH1 0x20 DUP2 DUP5 ADD DUP2 ADD SWAP3 SWAP1 DUP2 ADD DUP8 DUP5 GT ISZERO PUSH2 0x25F7 JUMPI PUSH0 DUP1 REVERT JUMPDEST PUSH1 0x20 DUP6 ADD SWAP3 POP JUMPDEST DUP4 DUP4 LT ISZERO PUSH2 0x264D JUMPI DUP3 MLOAD PUSH8 0xFFFFFFFFFFFFFFFF DUP2 GT ISZERO PUSH2 0x261C JUMPI PUSH0 DUP1 REVERT JUMPDEST DUP6 ADD PUSH1 0x3F DUP2 ADD DUP10 SGT PUSH2 0x262C JUMPI PUSH0 DUP1 REVERT JUMPDEST PUSH2 0x263E DUP10 PUSH1 0x20 DUP4 ADD MLOAD PUSH1 0x40 DUP5 ADD PUSH2 0x2519 JUMP JUMPDEST DUP3 MSTORE POP PUSH1 0x20 SWAP3 DUP4 ADD SWAP3 ADD PUSH2 0x25FE JUMP JUMPDEST POP SWAP7 SWAP6 POP POP POP POP POP POP JUMP JUMPDEST PUSH1 0x60 DUP2 MSTORE PUSH0 PUSH2 0x266A PUSH1 0x60 DUP4 ADD DUP6 PUSH2 0x2387 JUMP JUMPDEST DUP3 DUP2 SUB PUSH1 0x20 DUP5 ADD MSTORE PUSH2 0x2693 DUP2 PUSH1 0xA DUP2 MSTORE PUSH10 0x67657456616C75652829 PUSH1 0xB0 SHL PUSH1 0x20 DUP3 ADD MSTORE PUSH1 0x40 ADD SWAP1 JUMP JUMPDEST SWAP1 POP DUP3 DUP2 SUB PUSH1 0x40 DUP5 ADD MSTORE PUSH2 0x26A7 DUP2 DUP6 PUSH2 0x228B JUMP JUMPDEST SWAP6 SWAP5 POP POP POP POP POP JUMP JUMPDEST PUSH0 PUSH1 0x20 DUP3 DUP5 SUB SLT ISZERO PUSH2 0x26C0 JUMPI PUSH0 DUP1 REVERT JUMPDEST DUP2 MLOAD PUSH8 0xFFFFFFFFFFFFFFFF DUP2 GT ISZERO PUSH2 0x26D6 JUMPI PUSH0 DUP1 REVERT JUMPDEST DUP3 ADD PUSH1 0x1F DUP2 ADD DUP5 SGT PUSH2 0x26E6 JUMPI PUSH0 DUP1 REVERT JUMPDEST PUSH2 0x2360 DUP5 DUP3 MLOAD PUSH1 0x20 DUP5 ADD PUSH2 0x2519 JUMP JUMPDEST SWAP2 DUP3 MSTORE PUSH1 0x20 DUP3 ADD MSTORE PUSH1 0x60 PUSH1 0x40 DUP3 ADD DUP2 SWAP1 MSTORE PUSH1 0x2A SWAP1 DUP3 ADD MSTORE PUSH32 0x46756E6374696F6E2063616C6C2073686F756C642072657475726E206E6F6E2D PUSH1 0x80 DUP3 ADD MSTORE PUSH10 0x656D7074792064617461 PUSH1 0xB0 SHL PUSH1 0xA0 DUP3 ADD MSTORE PUSH1 0xC0 ADD SWAP1 JUMP JUMPDEST PUSH1 0x20 DUP2 MSTORE PUSH0 PUSH2 0x21A6 PUSH1 0x20 DUP4 ADD DUP5 PUSH2 0x2387 JUMP JUMPDEST PUSH0 PUSH1 0x20 DUP3 DUP5 SUB SLT ISZERO PUSH2 0x276D JUMPI PUSH0 DUP1 REVERT JUMPDEST POP MLOAD SWAP2 SWAP1 POP JUMP JUMPDEST PUSH1 0x60 DUP2 MSTORE PUSH0 PUSH2 0x2786 PUSH1 0x60 DUP4 ADD DUP5 PUSH2 0x2387 JUMP JUMPDEST DUP3 DUP2 SUB PUSH1 0x20 DUP5 ADD MSTORE PUSH2 0x27AF DUP2 PUSH1 0xA DUP2 MSTORE PUSH10 0x67657456616C75652829 PUSH1 0xB0 SHL PUSH1 0x20 DUP3 ADD MSTORE PUSH1 0x40 ADD SWAP1 JUMP JUMPDEST DUP4 DUP2 SUB PUSH1 0x40 SWAP1 SWAP5 ADD SWAP4 SWAP1 SWAP4 MSTORE POP POP PUSH0 DUP2 MSTORE PUSH1 0x20 ADD SWAP2 SWAP1 POP JUMP JUMPDEST PUSH1 0x60 DUP2 MSTORE PUSH0 PUSH2 0x27F1 PUSH1 0x60 DUP4 ADD PUSH1 0xA DUP2 MSTORE PUSH10 0x496E76616C69644B6579 PUSH1 0xB0 SHL PUSH1 0x20 DUP3 ADD MSTORE PUSH1 0x40 ADD SWAP1 JUMP JUMPDEST DUP3 DUP2 SUB PUSH1 0x20 DUP5 ADD MSTORE PUSH2 0x281A DUP2 PUSH1 0xA DUP2 MSTORE PUSH10 0x67657456616C75652829 PUSH1 0xB0 SHL PUSH1 0x20 DUP3 ADD MSTORE PUSH1 0x40 ADD SWAP1 JUMP JUMPDEST DUP4 DUP2 SUB PUSH1 0x40 SWAP1 SWAP5 ADD SWAP4 SWAP1 SWAP4 MSTORE POP POP PUSH0 DUP2 MSTORE PUSH1 0x20 ADD SWAP1 JUMP JUMPDEST PUSH1 0x60 DUP2 MSTORE PUSH0 PUSH2 0x2843 PUSH1 0x60 DUP4 ADD DUP5 PUSH2 0x228B JUMP JUMPDEST DUP3 DUP2 SUB DUP1 PUSH1 0x20 DUP6 ADD MSTORE PUSH1 0x28 DUP3 MSTORE PUSH32 0x546865206B657920646F6573204E4F5420706F696E7420746F20616E79206465 PUSH1 0x20 DUP4 ADD MSTORE PUSH8 0x70656E64656E6379 PUSH1 0xC0 SHL PUSH1 0x40 DUP4 ADD MSTORE PUSH1 0x60 DUP2 ADD PUSH1 0x40 DUP6 ADD MSTORE POP PUSH2 0x2360 PUSH1 0x60 DUP3 ADD PUSH2 0x22B9 JUMP JUMPDEST PUSH1 0x60 DUP2 MSTORE PUSH0 PUSH2 0x28AF PUSH1 0x60 DUP4 ADD DUP5 PUSH2 0x228B JUMP JUMPDEST DUP3 DUP2 SUB DUP1 PUSH1 0x20 DUP6 ADD MSTORE PUSH1 0x2D DUP3 MSTORE PUSH32 0x746865726520697320616C726561647920612070656E64696E67207570677261 PUSH1 0x20 DUP4 ADD MSTORE PUSH13 0x646520696E2070726F63657373 PUSH1 0x98 SHL PUSH1 0x40 DUP4 ADD MSTORE PUSH1 0x60 DUP2 ADD PUSH1 0x40 DUP6 ADD MSTORE POP PUSH1 0x30 PUSH1 0x60 DUP3 ADD MSTORE PUSH32 0x45787065637465642072656A656374696F6E20666F72206475706C6963617465 PUSH1 0x80 DUP3 ADD MSTORE PUSH16 0x81D5C19DC985919481C995C5D595CDD PUSH1 0x82 SHL PUSH1 0xA0 DUP3 ADD MSTORE PUSH1 0xC0 DUP2 ADD SWAP2 POP POP SWAP3 SWAP2 POP POP JUMP JUMPDEST PUSH1 0x60 DUP2 MSTORE PUSH0 PUSH2 0x2967 PUSH1 0x60 DUP4 ADD DUP5 PUSH2 0x228B JUMP JUMPDEST DUP3 DUP2 SUB DUP1 PUSH1 0x20 DUP6 ADD MSTORE PUSH1 0x2C DUP3 MSTORE PUSH32 0x74686520646570656E64656E637920616C726561647920726571756573746564 PUSH1 0x20 DUP4 ADD MSTORE PUSH12 0x8199BDC881C995B5BDD985B PUSH1 0xA2 SHL PUSH1 0x40 DUP4 ADD MSTORE PUSH1 0x60 DUP2 ADD PUSH1 0x40 DUP6 ADD MSTORE POP PUSH1 0x30 PUSH1 0x60 DUP3 ADD MSTORE PUSH32 0x45787065637465642072656A656374696F6E20666F72206475706C6963617465 PUSH1 0x80 DUP3 ADD MSTORE PUSH16 0x81C995B5BDD985B081C995C5D595CDD PUSH1 0x82 SHL PUSH1 0xA0 DUP3 ADD MSTORE PUSH1 0xC0 DUP2 ADD SWAP2 POP POP SWAP3 SWAP2 POP POP JUMP INVALID PUSH1 0x80 PUSH1 0x40 MSTORE PUSH0 PUSH1 0x3 SSTORE PUSH0 PUSH1 0x4 SSTORE PUSH0 PUSH1 0x5 SSTORE CALLVALUE DUP1 ISZERO PUSH1 0x1A JUMPI PUSH0 DUP1 REVERT JUMPDEST POP PUSH2 0x60C DUP1 PUSH2 0x28 PUSH0 CODECOPY PUSH0 RETURN INVALID PUSH1 0x80 PUSH1 0x40 MSTORE CALLVALUE DUP1 ISZERO PUSH2 0xF JUMPI PUSH0 DUP1 REVERT JUMPDEST POP PUSH1 0x4 CALLDATASIZE LT PUSH2 0x90 JUMPI PUSH0 CALLDATALOAD PUSH1 0xE0 SHR DUP1 PUSH4 0x2AD51B96 GT PUSH2 0x63 JUMPI DUP1 PUSH4 0x2AD51B96 EQ PUSH2 0x163 JUMPI DUP1 PUSH4 0x3F301AE5 EQ PUSH2 0x1EE JUMPI DUP1 PUSH4 0x4F6E1B27 EQ PUSH2 0x26F JUMPI DUP1 PUSH4 0xA990586A EQ PUSH2 0x2D1 JUMPI DUP1 PUSH4 0xB986F179 EQ PUSH2 0x351 JUMPI PUSH0 DUP1 REVERT JUMPDEST DUP1 PUSH4 0x7EC4043 EQ PUSH2 0x94 JUMPI DUP1 PUSH4 0x16C1076F EQ PUSH2 0xBA JUMPI DUP1 PUSH4 0x1AEB6C98 EQ PUSH2 0xCD JUMPI DUP1 PUSH4 0x1D59A3AA EQ PUSH2 0x150 JUMPI JUMPDEST PUSH0 DUP1 REVERT JUMPDEST PUSH2 0xA7 PUSH2 0xA2 CALLDATASIZE PUSH1 0x4 PUSH2 0x45A JUMP JUMPDEST PUSH2 0x3C3 JUMP JUMPDEST PUSH1 0x40 MLOAD SWAP1 DUP2 MSTORE PUSH1 0x20 ADD JUMPDEST PUSH1 0x40 MLOAD DUP1 SWAP2 SUB SWAP1 RETURN JUMPDEST PUSH2 0xA7 PUSH2 0xC8 CALLDATASIZE PUSH1 0x4 PUSH2 0x51E JUMP JUMPDEST PUSH2 0x3E2 JUMP JUMPDEST PUSH2 0x14E PUSH2 0xDB CALLDATASIZE PUSH1 0x4 PUSH2 0x54F JUMP JUMPDEST PUSH1 0x40 DUP1 MLOAD PUSH1 0x60 DUP2 ADD DUP3 MSTORE PUSH1 0x1 PUSH1 0x1 PUSH1 0xA0 SHL SUB SWAP5 DUP6 AND DUP2 MSTORE SWAP3 ISZERO ISZERO PUSH1 0x20 DUP1 DUP6 ADD SWAP2 DUP3 MSTORE SWAP3 ISZERO ISZERO DUP5 DUP4 ADD SWAP1 DUP2 MSTORE PUSH0 SWAP7 DUP8 MSTORE PUSH1 0x1 SWAP1 SWAP4 MSTORE SWAP5 KECCAK256 SWAP2 MLOAD DUP3 SLOAD SWAP5 MLOAD SWAP2 MLOAD ISZERO ISZERO PUSH1 0x1 PUSH1 0xA8 SHL MUL PUSH1 0xFF PUSH1 0xA8 SHL NOT SWAP3 ISZERO ISZERO PUSH1 0x1 PUSH1 0xA0 SHL MUL PUSH1 0x1 PUSH1 0x1 PUSH1 0xA8 SHL SUB NOT SWAP1 SWAP7 AND SWAP2 SWAP1 SWAP5 AND OR SWAP4 SWAP1 SWAP4 OR SWAP3 SWAP1 SWAP3 AND OR SWAP1 SSTORE JUMP JUMPDEST STOP JUMPDEST PUSH2 0xA7 PUSH2 0x15E CALLDATASIZE PUSH1 0x4 PUSH2 0x45A JUMP JUMPDEST PUSH2 0x400 JUMP JUMPDEST PUSH2 0x1C7 PUSH2 0x171 CALLDATASIZE PUSH1 0x4 PUSH2 0x59B JUMP JUMPDEST PUSH0 DUP2 DUP2 MSTORE PUSH1 0x2 PUSH1 0x20 SWAP1 DUP2 MSTORE PUSH1 0x40 SWAP2 DUP3 SWAP1 KECCAK256 DUP3 MLOAD PUSH1 0x60 DUP2 ADD DUP5 MSTORE SWAP1 SLOAD PUSH1 0x1 PUSH1 0x1 PUSH1 0xA0 SHL SUB DUP2 AND DUP1 DUP4 MSTORE PUSH1 0xFF PUSH1 0x1 PUSH1 0xA0 SHL DUP4 DIV DUP2 AND ISZERO ISZERO SWAP5 DUP5 ADD DUP6 SWAP1 MSTORE PUSH1 0x1 PUSH1 0xA8 SHL SWAP1 SWAP3 DIV SWAP1 SWAP2 AND ISZERO ISZERO SWAP2 SWAP1 SWAP4 ADD DUP2 SWAP1 MSTORE SWAP2 SWAP4 SWAP1 SWAP3 POP JUMP JUMPDEST PUSH1 0x40 DUP1 MLOAD PUSH1 0x1 PUSH1 0x1 PUSH1 0xA0 SHL SUB SWAP1 SWAP5 AND DUP5 MSTORE SWAP2 ISZERO ISZERO PUSH1 0x20 DUP5 ADD MSTORE ISZERO ISZERO SWAP1 DUP3 ADD MSTORE PUSH1 0x60 ADD PUSH2 0xB1 JUMP JUMPDEST PUSH2 0x14E PUSH2 0x1FC CALLDATASIZE PUSH1 0x4 PUSH2 0x54F JUMP JUMPDEST PUSH1 0x40 DUP1 MLOAD PUSH1 0x60 DUP2 ADD DUP3 MSTORE PUSH1 0x1 PUSH1 0x1 PUSH1 0xA0 SHL SUB SWAP5 DUP6 AND DUP2 MSTORE SWAP3 ISZERO ISZERO PUSH1 0x20 DUP1 DUP6 ADD SWAP2 DUP3 MSTORE SWAP3 ISZERO ISZERO DUP5 DUP4 ADD SWAP1 DUP2 MSTORE PUSH0 SWAP7 DUP8 MSTORE PUSH1 0x2 SWAP1 SWAP4 MSTORE SWAP5 KECCAK256 SWAP2 MLOAD DUP3 SLOAD SWAP5 MLOAD SWAP2 MLOAD ISZERO ISZERO PUSH1 0x1 PUSH1 0xA8 SHL MUL PUSH1 0xFF PUSH1 0xA8 SHL NOT SWAP3 ISZERO ISZERO PUSH1 0x1 PUSH1 0xA0 SHL MUL PUSH1 0x1 PUSH1 0x1 PUSH1 0xA8 SHL SUB NOT SWAP1 SWAP7 AND SWAP2 SWAP1 SWAP5 AND OR SWAP4 SWAP1 SWAP4 OR SWAP3 SWAP1 SWAP3 AND OR SWAP1 SSTORE JUMP JUMPDEST PUSH2 0x1C7 PUSH2 0x27D CALLDATASIZE PUSH1 0x4 PUSH2 0x59B JUMP JUMPDEST PUSH0 DUP2 DUP2 MSTORE PUSH1 0x20 DUP2 DUP2 MSTORE PUSH1 0x40 SWAP2 DUP3 SWAP1 KECCAK256 DUP3 MLOAD PUSH1 0x60 DUP2 ADD DUP5 MSTORE SWAP1 SLOAD PUSH1 0x1 PUSH1 0x1 PUSH1 0xA0 SHL SUB DUP2 AND DUP1 DUP4 MSTORE PUSH1 0xFF PUSH1 0x1 PUSH1 0xA0 SHL DUP4 DIV DUP2 AND ISZERO ISZERO SWAP5 DUP5 ADD DUP6 SWAP1 MSTORE PUSH1 0x1 PUSH1 0xA8 SHL SWAP1 SWAP3 DIV SWAP1 SWAP2 AND ISZERO ISZERO SWAP2 SWAP1 SWAP4 ADD DUP2 SWAP1 MSTORE SWAP2 SWAP4 SWAP1 SWAP3 POP JUMP JUMPDEST PUSH2 0x14E PUSH2 0x2DF CALLDATASIZE PUSH1 0x4 PUSH2 0x54F JUMP JUMPDEST PUSH1 0x40 DUP1 MLOAD PUSH1 0x60 DUP2 ADD DUP3 MSTORE PUSH1 0x1 PUSH1 0x1 PUSH1 0xA0 SHL SUB SWAP5 DUP6 AND DUP2 MSTORE SWAP3 ISZERO ISZERO PUSH1 0x20 DUP1 DUP6 ADD SWAP2 DUP3 MSTORE SWAP3 ISZERO ISZERO DUP5 DUP4 ADD SWAP1 DUP2 MSTORE PUSH0 SWAP7 DUP8 MSTORE SWAP3 DUP7 SWAP1 MSTORE SWAP5 KECCAK256 SWAP2 MLOAD DUP3 SLOAD SWAP5 MLOAD SWAP2 MLOAD ISZERO ISZERO PUSH1 0x1 PUSH1 0xA8 SHL MUL PUSH1 0xFF PUSH1 0xA8 SHL NOT SWAP3 ISZERO ISZERO PUSH1 0x1 PUSH1 0xA0 SHL MUL PUSH1 0x1 PUSH1 0x1 PUSH1 0xA8 SHL SUB NOT SWAP1 SWAP7 AND SWAP2 SWAP1 SWAP5 AND OR SWAP4 SWAP1 SWAP4 OR SWAP3 SWAP1 SWAP3 AND OR SWAP1 SSTORE JUMP JUMPDEST PUSH2 0x3AC PUSH2 0x35F CALLDATASIZE PUSH1 0x4 PUSH2 0x59B JUMP JUMPDEST PUSH0 SWAP1 DUP2 MSTORE PUSH1 0x1 PUSH1 0x20 SWAP1 DUP2 MSTORE PUSH1 0x40 SWAP2 DUP3 SWAP1 KECCAK256 DUP3 MLOAD PUSH1 0x60 DUP2 ADD DUP5 MSTORE SWAP1 SLOAD PUSH1 0x1 PUSH1 0x1 PUSH1 0xA0 SHL SUB DUP2 AND DUP3 MSTORE PUSH1 0xFF PUSH1 0x1 PUSH1 0xA0 SHL DUP3 DIV DUP2 AND ISZERO ISZERO SWAP4 DUP4 ADD DUP5 SWAP1 MSTORE PUSH1 0x1 PUSH1 0xA8 SHL SWAP1 SWAP2 DIV AND ISZERO ISZERO SWAP3 ADD DUP3 SWAP1 MSTORE SWAP2 JUMP JUMPDEST PUSH1 0x40 DUP1 MLOAD SWAP3 ISZERO ISZERO DUP4 MSTORE SWAP1 ISZERO ISZERO PUSH1 0x20 DUP4 ADD MSTORE ADD PUSH2 0xB1 JUMP JUMPDEST PUSH1 0x4 DUP1 SLOAD PUSH0 SWAP2 DUP3 PUSH2 0x3D3 DUP4 PUSH2 0x5B2 JUMP JUMPDEST SWAP1 SWAP2 SSTORE POP POP PUSH1 0x4 SLOAD SWAP4 SWAP3 POP POP POP JUMP JUMPDEST PUSH1 0x5 DUP1 SLOAD PUSH0 SWAP2 DUP3 PUSH2 0x3F2 DUP4 PUSH2 0x5B2 JUMP JUMPDEST SWAP1 SWAP2 SSTORE POP POP PUSH1 0x5 SLOAD SWAP3 SWAP2 POP POP JUMP JUMPDEST PUSH1 0x3 DUP1 SLOAD PUSH0 SWAP2 DUP3 PUSH2 0x410 DUP4 PUSH2 0x5B2 JUMP JUMPDEST SWAP1 SWAP2 SSTORE POP POP PUSH1 0x3 SLOAD SWAP4 SWAP3 POP POP POP JUMP JUMPDEST PUSH4 0x4E487B71 PUSH1 0xE0 SHL PUSH0 MSTORE PUSH1 0x41 PUSH1 0x4 MSTORE PUSH1 0x24 PUSH0 REVERT JUMPDEST PUSH1 0x1 PUSH1 0x1 PUSH1 0xA0 SHL SUB DUP2 AND DUP2 EQ PUSH2 0x447 JUMPI PUSH0 DUP1 REVERT JUMPDEST POP JUMP JUMPDEST DUP1 CALLDATALOAD PUSH2 0x455 DUP2 PUSH2 0x433 JUMP JUMPDEST SWAP2 SWAP1 POP JUMP JUMPDEST PUSH0 DUP1 PUSH1 0x40 DUP4 DUP6 SUB SLT ISZERO PUSH2 0x46B JUMPI PUSH0 DUP1 REVERT JUMPDEST DUP3 CALLDATALOAD PUSH8 0xFFFFFFFFFFFFFFFF DUP2 GT ISZERO PUSH2 0x481 JUMPI PUSH0 DUP1 REVERT JUMPDEST DUP4 ADD PUSH1 0x1F DUP2 ADD DUP6 SGT PUSH2 0x491 JUMPI PUSH0 DUP1 REVERT JUMPDEST DUP1 CALLDATALOAD PUSH8 0xFFFFFFFFFFFFFFFF DUP2 GT ISZERO PUSH2 0x4AB JUMPI PUSH2 0x4AB PUSH2 0x41F JUMP JUMPDEST PUSH1 0x40 MLOAD PUSH1 0x1F DUP3 ADD PUSH1 0x1F NOT SWAP1 DUP2 AND PUSH1 0x3F ADD AND DUP2 ADD PUSH8 0xFFFFFFFFFFFFFFFF DUP2 GT DUP3 DUP3 LT OR ISZERO PUSH2 0x4DA JUMPI PUSH2 0x4DA PUSH2 0x41F JUMP JUMPDEST PUSH1 0x40 MSTORE DUP2 DUP2 MSTORE DUP3 DUP3 ADD PUSH1 0x20 ADD DUP8 LT ISZERO PUSH2 0x4F1 JUMPI PUSH0 DUP1 REVERT JUMPDEST DUP2 PUSH1 0x20 DUP5 ADD PUSH1 0x20 DUP4 ADD CALLDATACOPY PUSH0 PUSH1 0x20 DUP4 DUP4 ADD ADD MSTORE DUP1 SWAP5 POP POP POP POP PUSH2 0x515 PUSH1 0x20 DUP5 ADD PUSH2 0x44A JUMP JUMPDEST SWAP1 POP SWAP3 POP SWAP3 SWAP1 POP JUMP JUMPDEST PUSH0 PUSH1 0x20 DUP3 DUP5 SUB SLT ISZERO PUSH2 0x52E JUMPI PUSH0 DUP1 REVERT JUMPDEST DUP2 CALLDATALOAD PUSH2 0x539 DUP2 PUSH2 0x433 JUMP JUMPDEST SWAP4 SWAP3 POP POP POP JUMP JUMPDEST DUP1 CALLDATALOAD DUP1 ISZERO ISZERO DUP2 EQ PUSH2 0x455 JUMPI PUSH0 DUP1 REVERT JUMPDEST PUSH0 DUP1 PUSH0 DUP1 PUSH1 0x80 DUP6 DUP8 SUB SLT ISZERO PUSH2 0x562 JUMPI PUSH0 DUP1 REVERT JUMPDEST DUP5 CALLDATALOAD SWAP4 POP PUSH1 0x20 DUP6 ADD CALLDATALOAD PUSH2 0x574 DUP2 PUSH2 0x433 JUMP JUMPDEST SWAP3 POP PUSH2 0x582 PUSH1 0x40 DUP7 ADD PUSH2 0x540 JUMP JUMPDEST SWAP2 POP PUSH2 0x590 PUSH1 0x60 DUP7 ADD PUSH2 0x540 JUMP JUMPDEST SWAP1 POP SWAP3 SWAP6 SWAP2 SWAP5 POP SWAP3 POP JUMP JUMPDEST PUSH0 PUSH1 0x20 DUP3 DUP5 SUB SLT ISZERO PUSH2 0x5AB JUMPI PUSH0 DUP1 REVERT JUMPDEST POP CALLDATALOAD SWAP2 SWAP1 POP JUMP JUMPDEST PUSH0 PUSH1 0x1 DUP3 ADD PUSH2 0x5CF JUMPI PUSH4 0x4E487B71 PUSH1 0xE0 SHL PUSH0 MSTORE PUSH1 0x11 PUSH1 0x4 MSTORE PUSH1 0x24 PUSH0 REVERT JUMPDEST POP PUSH1 0x1 ADD SWAP1 JUMP INVALID LOG2 PUSH5 0x6970667358 0x22 SLT KECCAK256 0xD4 0xD8 DUP6 EXTCODEHASH SWAP10 GT BLOCKHASH 0xCD OR MSTORE8 0xCD EXTCODECOPY 0xBE 0xEF DUP11 0x1E 0xDC SWAP16 MULMOD 0xEF PUSH14 0x16A4E38DFF598F9AD1205064736F PUSH13 0x634300081A0033608060405260 ADD PUSH0 SSTORE CALLVALUE DUP1 ISZERO PUSH1 0x12 JUMPI PUSH0 DUP1 REVERT JUMPDEST POP PUSH1 0x74 DUP1 PUSH1 0x1E PUSH0 CODECOPY PUSH0 RETURN INVALID PUSH1 0x80 PUSH1 0x40 MSTORE CALLVALUE DUP1 ISZERO PUSH1 0xE JUMPI PUSH0 DUP1 REVERT JUMPDEST POP PUSH1 0x4 CALLDATASIZE LT PUSH1 0x26 JUMPI PUSH0 CALLDATALOAD PUSH1 0xE0 SHR DUP1 PUSH4 0x20965255 EQ PUSH1 0x2A JUMPI JUMPDEST PUSH0 DUP1 REVERT JUMPDEST PUSH0 SLOAD PUSH1 0x40 MLOAD SWAP1 DUP2 MSTORE PUSH1 0x20 ADD PUSH1 0x40 MLOAD DUP1 SWAP2 SUB SWAP1 RETURN INVALID LOG2 PUSH5 0x6970667358 0x22 SLT KECCAK256 0xDF 0xF8 0xAE POP BALANCE SGT 0xD9 0xE3 PUSH30 0x2E43C726BB2DFE775D0BE391949DCD8053C6B09545D4CD64736F6C634300 ADDMOD BYTE STOP CALLER PUSH1 0x80 PUSH1 0x40 MSTORE CALLVALUE DUP1 ISZERO PUSH1 0xE JUMPI PUSH0 DUP1 REVERT JUMPDEST POP PUSH1 0x1 PUSH0 DUP2 SWAP1 SSTORE DUP1 SLOAD PUSH1 0x1 PUSH1 0x1 PUSH1 0xA0 SHL SUB NOT AND CALLER OR SWAP1 SSTORE PUSH2 0x1E78 DUP1 PUSH2 0x32 PUSH0 CODECOPY PUSH0 RETURN INVALID PUSH1 0x80 PUSH1 0x40 MSTORE CALLVALUE DUP1 ISZERO PUSH2 0xF JUMPI PUSH0 DUP1 REVERT JUMPDEST POP PUSH1 0x4 CALLDATASIZE LT PUSH2 0x111 JUMPI PUSH0 CALLDATALOAD PUSH1 0xE0 SHR DUP1 PUSH4 0x80719893 GT PUSH2 0x9E JUMPI DUP1 PUSH4 0xBE6552E6 GT PUSH2 0x6E JUMPI DUP1 PUSH4 0xBE6552E6 EQ PUSH2 0x282 JUMPI DUP1 PUSH4 0xD5F39488 EQ PUSH2 0x297 JUMPI DUP1 PUSH4 0xEC4C2E5D EQ PUSH2 0x2AA JUMPI DUP1 PUSH4 0xEEBED3A7 EQ PUSH2 0x2B2 JUMPI DUP1 PUSH4 0xFBE332DC EQ PUSH2 0x2C5 JUMPI PUSH0 DUP1 REVERT JUMPDEST DUP1 PUSH4 0x80719893 EQ PUSH2 0x240 JUMPI DUP1 PUSH4 0xA791EDF8 EQ PUSH2 0x253 JUMPI DUP1 PUSH4 0xA7FEE722 EQ PUSH2 0x266 JUMPI DUP1 PUSH4 0xBC5AEF90 EQ PUSH2 0x279 JUMPI PUSH0 DUP1 REVERT JUMPDEST DUP1 PUSH4 0x22418460 GT PUSH2 0xE4 JUMPI DUP1 PUSH4 0x22418460 EQ PUSH2 0x1A6 JUMPI DUP1 PUSH4 0x29D5DE01 EQ PUSH2 0x1D1 JUMPI DUP1 PUSH4 0x2CF1366B EQ PUSH2 0x205 JUMPI DUP1 PUSH4 0x6E5ECDFF EQ PUSH2 0x225 JUMPI DUP1 PUSH4 0x7B022FA2 EQ PUSH2 0x22D JUMPI PUSH0 DUP1 REVERT JUMPDEST DUP1 PUSH4 0xBCFC717 EQ PUSH2 0x115 JUMPI DUP1 PUSH4 0x12C0C8C0 EQ PUSH2 0x12A JUMPI DUP1 PUSH4 0x16C1076F EQ PUSH2 0x168 JUMPI DUP1 PUSH4 0x1A83F4A3 EQ PUSH2 0x17B JUMPI JUMPDEST PUSH0 DUP1 REVERT JUMPDEST PUSH2 0x128 PUSH2 0x123 CALLDATASIZE PUSH1 0x4 PUSH2 0x17E0 JUMP JUMPDEST PUSH2 0x2D8 JUMP JUMPDEST STOP JUMPDEST PUSH2 0x155 PUSH2 0x138 CALLDATASIZE PUSH1 0x4 PUSH2 0x18A4 JUMP JUMPDEST DUP1 MLOAD PUSH1 0x20 DUP2 DUP4 ADD DUP2 ADD DUP1 MLOAD PUSH1 0x7 DUP3 MSTORE SWAP3 DUP3 ADD SWAP2 SWAP1 SWAP4 ADD KECCAK256 SWAP2 MSTORE SLOAD DUP2 JUMP JUMPDEST PUSH1 0x40 MLOAD SWAP1 DUP2 MSTORE PUSH1 0x20 ADD JUMPDEST PUSH1 0x40 MLOAD DUP1 SWAP2 SUB SWAP1 RETURN JUMPDEST PUSH2 0x128 PUSH2 0x176 CALLDATASIZE PUSH1 0x4 PUSH2 0x17E0 JUMP JUMPDEST PUSH2 0x466 JUMP JUMPDEST PUSH2 0x155 PUSH2 0x189 CALLDATASIZE PUSH1 0x4 PUSH2 0x18A4 JUMP JUMPDEST DUP1 MLOAD PUSH1 0x20 DUP2 DUP4 ADD DUP2 ADD DUP1 MLOAD PUSH1 0x5 DUP3 MSTORE SWAP3 DUP3 ADD SWAP2 SWAP1 SWAP4 ADD KECCAK256 SWAP2 MSTORE SLOAD DUP2 JUMP JUMPDEST PUSH2 0x1B9 PUSH2 0x1B4 CALLDATASIZE PUSH1 0x4 PUSH2 0x18A4 JUMP JUMPDEST PUSH2 0x5AE JUMP JUMPDEST PUSH1 0x40 MLOAD PUSH1 0x1 PUSH1 0x1 PUSH1 0xA0 SHL SUB SWAP1 SWAP2 AND DUP2 MSTORE PUSH1 0x20 ADD PUSH2 0x15F JUMP JUMPDEST PUSH2 0x1B9 PUSH2 0x1DF CALLDATASIZE PUSH1 0x4 PUSH2 0x18A4 JUMP JUMPDEST DUP1 MLOAD PUSH1 0x20 DUP2 DUP4 ADD DUP2 ADD DUP1 MLOAD PUSH1 0x3 DUP3 MSTORE SWAP3 DUP3 ADD SWAP2 SWAP1 SWAP4 ADD KECCAK256 SWAP2 MSTORE SLOAD PUSH1 0x1 PUSH1 0x1 PUSH1 0xA0 SHL SUB AND DUP2 JUMP JUMPDEST PUSH2 0x218 PUSH2 0x213 CALLDATASIZE PUSH1 0x4 PUSH2 0x18DE JUMP JUMPDEST PUSH2 0x66F JUMP JUMPDEST PUSH1 0x40 MLOAD PUSH2 0x15F SWAP2 SWAP1 PUSH2 0x1923 JUMP JUMPDEST PUSH2 0x128 PUSH2 0x715 JUMP JUMPDEST PUSH2 0x218 PUSH2 0x23B CALLDATASIZE PUSH1 0x4 PUSH2 0x18DE JUMP JUMPDEST PUSH2 0xF2A JUMP JUMPDEST PUSH2 0x128 PUSH2 0x24E CALLDATASIZE PUSH1 0x4 PUSH2 0x1935 JUMP JUMPDEST PUSH2 0xF39 JUMP JUMPDEST PUSH1 0x2 SLOAD PUSH2 0x1B9 SWAP1 PUSH1 0x1 PUSH1 0x1 PUSH1 0xA0 SHL SUB AND DUP2 JUMP JUMPDEST PUSH2 0x218 PUSH2 0x274 CALLDATASIZE PUSH1 0x4 PUSH2 0x1984 JUMP JUMPDEST PUSH2 0x114C JUMP JUMPDEST PUSH2 0x155 PUSH1 0x9 SLOAD DUP2 JUMP JUMPDEST PUSH2 0x28A PUSH2 0x1189 JUMP JUMPDEST PUSH1 0x40 MLOAD PUSH2 0x15F SWAP2 SWAP1 PUSH2 0x1A25 JUMP JUMPDEST PUSH1 0x1 SLOAD PUSH2 0x1B9 SWAP1 PUSH1 0x1 PUSH1 0x1 PUSH1 0xA0 SHL SUB AND DUP2 JUMP JUMPDEST PUSH2 0x28A PUSH2 0x125D JUMP JUMPDEST PUSH2 0x218 PUSH2 0x2C0 CALLDATASIZE PUSH1 0x4 PUSH2 0x18DE JUMP JUMPDEST PUSH2 0x1328 JUMP JUMPDEST PUSH2 0x128 PUSH2 0x2D3 CALLDATASIZE PUSH1 0x4 PUSH2 0x1935 JUMP JUMPDEST PUSH2 0x1337 JUMP JUMPDEST PUSH2 0x2E0 PUSH2 0x1549 JUMP JUMPDEST PUSH1 0x1 SLOAD PUSH1 0x1 PUSH1 0x1 PUSH1 0xA0 SHL SUB AND CALLER EQ PUSH2 0x352 JUMPI PUSH1 0x40 MLOAD PUSH3 0x461BCD PUSH1 0xE5 SHL DUP2 MSTORE PUSH1 0x20 PUSH1 0x4 DUP3 ADD MSTORE PUSH1 0x2A PUSH1 0x24 DUP3 ADD MSTORE PUSH32 0x7468652073656E6465722077617320657870656374656420746F206265207468 PUSH1 0x44 DUP3 ADD MSTORE PUSH10 0x32903232B83637BCB2B9 PUSH1 0xB1 SHL PUSH1 0x64 DUP3 ADD MSTORE PUSH1 0x84 ADD JUMPDEST PUSH1 0x40 MLOAD DUP1 SWAP2 SUB SWAP1 REVERT JUMPDEST PUSH1 0x2 SLOAD PUSH1 0x1 PUSH1 0x1 PUSH1 0xA0 SHL SUB AND ISZERO PUSH2 0x414 JUMPI PUSH1 0x40 MLOAD PUSH3 0x461BCD PUSH1 0xE5 SHL DUP2 MSTORE PUSH1 0x20 PUSH1 0x4 DUP3 ADD MSTORE PUSH1 0x74 PUSH1 0x24 DUP3 ADD MSTORE PUSH32 0x74686520646570656E64656E6379207265717565737465722068617320616C72 PUSH1 0x44 DUP3 ADD MSTORE PUSH32 0x65616479206265656E207365742C207573652072657175657374557067726164 PUSH1 0x64 DUP3 ADD MSTORE PUSH32 0x65446570656E64656E6379526571756573746572282920696E206F7264657220 PUSH1 0x84 DUP3 ADD MSTORE PUSH20 0x746F206368616E676520697420627920766F7465 PUSH1 0x60 SHL PUSH1 0xA4 DUP3 ADD MSTORE PUSH1 0xC4 ADD PUSH2 0x349 JUMP JUMPDEST PUSH1 0x2 DUP1 SLOAD PUSH1 0x1 PUSH1 0x1 PUSH1 0xA0 SHL SUB NOT AND PUSH1 0x1 PUSH1 0x1 PUSH1 0xA0 SHL SUB DUP4 AND SWAP1 DUP2 OR SWAP1 SWAP2 SSTORE PUSH1 0x40 MLOAD PUSH32 0xA16907E9030F7A27DD100153173E6B01401F940D851E6F7095937F2773E561B2 SWAP1 PUSH0 SWAP1 LOG2 PUSH2 0x463 PUSH1 0x1 PUSH0 SSTORE JUMP JUMPDEST POP JUMP JUMPDEST PUSH2 0x46E PUSH2 0x1549 JUMP JUMPDEST PUSH1 0x9 SLOAD ISZERO PUSH2 0x4D4 JUMPI PUSH1 0x40 MLOAD PUSH3 0x461BCD PUSH1 0xE5 SHL DUP2 MSTORE PUSH1 0x20 PUSH1 0x4 DUP3 ADD MSTORE PUSH1 0x2D PUSH1 0x24 DUP3 ADD MSTORE PUSH32 0x746865726520697320616C726561647920612070656E64696E67207570677261 PUSH1 0x44 DUP3 ADD MSTORE PUSH13 0x646520696E2070726F63657373 PUSH1 0x98 SHL PUSH1 0x64 DUP3 ADD MSTORE PUSH1 0x84 ADD PUSH2 0x349 JUMP JUMPDEST PUSH1 0x2 SLOAD PUSH1 0x1 PUSH1 0x1 PUSH1 0xA0 SHL SUB AND PUSH2 0x4FC JUMPI PUSH1 0x40 MLOAD PUSH3 0x461BCD PUSH1 0xE5 SHL DUP2 MSTORE PUSH1 0x4 ADD PUSH2 0x349 SWAP1 PUSH2 0x1A88 JUMP JUMPDEST PUSH1 0x2 SLOAD PUSH1 0x40 MLOAD PUSH4 0x16C1076F PUSH1 0xE0 SHL DUP2 MSTORE PUSH1 0x1 PUSH1 0x1 PUSH1 0xA0 SHL SUB DUP4 DUP2 AND PUSH1 0x4 DUP4 ADD MSTORE PUSH0 SWAP3 AND SWAP1 PUSH4 0x16C1076F SWAP1 PUSH1 0x24 ADD PUSH1 0x20 PUSH1 0x40 MLOAD DUP1 DUP4 SUB DUP2 PUSH0 DUP8 GAS CALL ISZERO DUP1 ISZERO PUSH2 0x545 JUMPI RETURNDATASIZE PUSH0 DUP1 RETURNDATACOPY RETURNDATASIZE PUSH0 REVERT JUMPDEST POP POP POP POP PUSH1 0x40 MLOAD RETURNDATASIZE PUSH1 0x1F NOT PUSH1 0x1F DUP3 ADD AND DUP3 ADD DUP1 PUSH1 0x40 MSTORE POP DUP2 ADD SWAP1 PUSH2 0x569 SWAP2 SWAP1 PUSH2 0x1ACB JUMP JUMPDEST PUSH1 0x9 DUP2 SWAP1 SSTORE PUSH1 0x40 MLOAD SWAP1 SWAP2 POP PUSH1 0x1 PUSH1 0x1 PUSH1 0xA0 SHL SUB DUP4 AND SWAP1 PUSH32 0x130BF33540470B3A07F23B1164785A20ACD90A150A4A00E976740C8F941C71DB SWAP1 PUSH0 SWAP1 LOG2 POP PUSH2 0x463 PUSH1 0x1 PUSH0 SSTORE JUMP JUMPDEST PUSH0 DUP1 PUSH1 0x1 PUSH1 0x1 PUSH1 0xA0 SHL SUB AND PUSH1 0x3 DUP4 PUSH1 0x40 MLOAD PUSH2 0x5C9 SWAP2 SWAP1 PUSH2 0x1AF9 JUMP JUMPDEST SWAP1 DUP2 MSTORE PUSH1 0x40 MLOAD SWAP1 DUP2 SWAP1 SUB PUSH1 0x20 ADD SWAP1 KECCAK256 SLOAD PUSH1 0x1 PUSH1 0x1 PUSH1 0xA0 SHL SUB AND SUB PUSH2 0x640 JUMPI PUSH1 0x40 MLOAD PUSH3 0x461BCD PUSH1 0xE5 SHL DUP2 MSTORE PUSH1 0x20 PUSH1 0x4 DUP3 ADD MSTORE PUSH1 0x28 PUSH1 0x24 DUP3 ADD MSTORE PUSH32 0x746865206B657920646F6573204E4F5420706F696E7420746F20616E79206465 PUSH1 0x44 DUP3 ADD MSTORE PUSH8 0x70656E64656E6379 PUSH1 0xC0 SHL PUSH1 0x64 DUP3 ADD MSTORE PUSH1 0x84 ADD PUSH2 0x349 JUMP JUMPDEST PUSH1 0x3 DUP3 PUSH1 0x40 MLOAD PUSH2 0x650 SWAP2 SWAP1 PUSH2 0x1AF9 JUMP JUMPDEST SWAP1 DUP2 MSTORE PUSH1 0x40 MLOAD SWAP1 DUP2 SWAP1 SUB PUSH1 0x20 ADD SWAP1 KECCAK256 SLOAD PUSH1 0x1 PUSH1 0x1 PUSH1 0xA0 SHL SUB AND SWAP3 SWAP2 POP POP JUMP JUMPDEST PUSH1 0x8 DUP2 DUP2 SLOAD DUP2 LT PUSH2 0x67E JUMPI PUSH0 DUP1 REVERT JUMPDEST SWAP1 PUSH0 MSTORE PUSH1 0x20 PUSH0 KECCAK256 ADD PUSH0 SWAP2 POP SWAP1 POP DUP1 SLOAD PUSH2 0x696 SWAP1 PUSH2 0x1B04 JUMP JUMPDEST DUP1 PUSH1 0x1F ADD PUSH1 0x20 DUP1 SWAP2 DIV MUL PUSH1 0x20 ADD PUSH1 0x40 MLOAD SWAP1 DUP2 ADD PUSH1 0x40 MSTORE DUP1 SWAP3 SWAP2 SWAP1 DUP2 DUP2 MSTORE PUSH1 0x20 ADD DUP3 DUP1 SLOAD PUSH2 0x6C2 SWAP1 PUSH2 0x1B04 JUMP JUMPDEST DUP1 ISZERO PUSH2 0x70D JUMPI DUP1 PUSH1 0x1F LT PUSH2 0x6E4 JUMPI PUSH2 0x100 DUP1 DUP4 SLOAD DIV MUL DUP4 MSTORE SWAP2 PUSH1 0x20 ADD SWAP2 PUSH2 0x70D JUMP JUMPDEST DUP3 ADD SWAP2 SWAP1 PUSH0 MSTORE PUSH1 0x20 PUSH0 KECCAK256 SWAP1 JUMPDEST DUP2 SLOAD DUP2 MSTORE SWAP1 PUSH1 0x1 ADD SWAP1 PUSH1 0x20 ADD DUP1 DUP4 GT PUSH2 0x6F0 JUMPI DUP3 SWAP1 SUB PUSH1 0x1F AND DUP3 ADD SWAP2 JUMPDEST POP POP POP POP POP DUP2 JUMP JUMPDEST PUSH2 0x71D PUSH2 0x1549 JUMP JUMPDEST PUSH1 0x2 SLOAD PUSH1 0x1 PUSH1 0x1 PUSH1 0xA0 SHL SUB AND PUSH2 0x745 JUMPI PUSH1 0x40 MLOAD PUSH3 0x461BCD PUSH1 0xE5 SHL DUP2 MSTORE PUSH1 0x4 ADD PUSH2 0x349 SWAP1 PUSH2 0x1A88 JUMP JUMPDEST PUSH1 0x9 SLOAD ISZERO PUSH2 0x85C JUMPI PUSH1 0x2 SLOAD PUSH1 0x9 SLOAD PUSH1 0x40 MLOAD PUSH4 0x156A8DCB PUSH1 0xE1 SHL DUP2 MSTORE PUSH1 0x4 DUP2 ADD SWAP2 SWAP1 SWAP2 MSTORE PUSH0 SWAP2 DUP3 SWAP2 DUP3 SWAP2 PUSH1 0x1 PUSH1 0x1 PUSH1 0xA0 SHL SUB AND SWAP1 PUSH4 0x2AD51B96 SWAP1 PUSH1 0x24 ADD PUSH1 0x60 PUSH1 0x40 MLOAD DUP1 DUP4 SUB DUP2 DUP7 GAS STATICCALL ISZERO DUP1 ISZERO PUSH2 0x79C JUMPI RETURNDATASIZE PUSH0 DUP1 RETURNDATACOPY RETURNDATASIZE PUSH0 REVERT JUMPDEST POP POP POP POP PUSH1 0x40 MLOAD RETURNDATASIZE PUSH1 0x1F NOT PUSH1 0x1F DUP3 ADD AND DUP3 ADD DUP1 PUSH1 0x40 MSTORE POP DUP2 ADD SWAP1 PUSH2 0x7C0 SWAP2 SWAP1 PUSH2 0x1B50 JUMP JUMPDEST SWAP3 POP SWAP3 POP SWAP3 POP DUP2 ISZERO PUSH2 0x7D1 JUMPI PUSH0 PUSH1 0x9 SSTORE JUMPDEST DUP2 DUP1 ISZERO PUSH2 0x7DB JUMPI POP DUP1 JUMPDEST ISZERO PUSH2 0x814 JUMPI PUSH1 0x40 MLOAD PUSH1 0x1 PUSH1 0x1 PUSH1 0xA0 SHL SUB DUP5 AND SWAP1 PUSH32 0xE00A5B97742635032504F47F4C4AE13F19DE32BAB9DB317D70CB5820CCE02935 SWAP1 PUSH0 SWAP1 LOG2 JUMPDEST DUP2 DUP1 ISZERO PUSH2 0x81F JUMPI POP DUP1 ISZERO JUMPDEST ISZERO PUSH2 0x858 JUMPI PUSH1 0x40 MLOAD PUSH1 0x1 PUSH1 0x1 PUSH1 0xA0 SHL SUB DUP5 AND SWAP1 PUSH32 0x563BB4859F75835D1CD4855F062E12DB76CC064572739370C11B20510E382D5B SWAP1 PUSH0 SWAP1 LOG2 JUMPDEST POP POP POP JUMPDEST PUSH1 0x8 SLOAD ISZERO PUSH2 0xBE6 JUMPI PUSH1 0x8 SLOAD JUMPDEST DUP1 ISZERO PUSH2 0xBE4 JUMPI PUSH0 PUSH2 0x87A PUSH1 0x1 DUP4 PUSH2 0x1BA6 JUMP JUMPDEST SWAP1 POP PUSH0 PUSH1 0x8 DUP3 DUP2 SLOAD DUP2 LT PUSH2 0x890 JUMPI PUSH2 0x890 PUSH2 0x1BB9 JUMP JUMPDEST SWAP1 PUSH0 MSTORE PUSH1 0x20 PUSH0 KECCAK256 ADD DUP1 SLOAD PUSH2 0x8A3 SWAP1 PUSH2 0x1B04 JUMP JUMPDEST DUP1 PUSH1 0x1F ADD PUSH1 0x20 DUP1 SWAP2 DIV MUL PUSH1 0x20 ADD PUSH1 0x40 MLOAD SWAP1 DUP2 ADD PUSH1 0x40 MSTORE DUP1 SWAP3 SWAP2 SWAP1 DUP2 DUP2 MSTORE PUSH1 0x20 ADD DUP3 DUP1 SLOAD PUSH2 0x8CF SWAP1 PUSH2 0x1B04 JUMP JUMPDEST DUP1 ISZERO PUSH2 0x91A JUMPI DUP1 PUSH1 0x1F LT PUSH2 0x8F1 JUMPI PUSH2 0x100 DUP1 DUP4 SLOAD DIV MUL DUP4 MSTORE SWAP2 PUSH1 0x20 ADD SWAP2 PUSH2 0x91A JUMP JUMPDEST DUP3 ADD SWAP2 SWAP1 PUSH0 MSTORE PUSH1 0x20 PUSH0 KECCAK256 SWAP1 JUMPDEST DUP2 SLOAD DUP2 MSTORE SWAP1 PUSH1 0x1 ADD SWAP1 PUSH1 0x20 ADD DUP1 DUP4 GT PUSH2 0x8FD JUMPI DUP3 SWAP1 SUB PUSH1 0x1F AND DUP3 ADD SWAP2 JUMPDEST POP POP POP POP POP SWAP1 POP PUSH0 PUSH1 0x7 DUP3 PUSH1 0x40 MLOAD PUSH2 0x932 SWAP2 SWAP1 PUSH2 0x1AF9 JUMP JUMPDEST SWAP1 DUP2 MSTORE PUSH1 0x40 MLOAD SWAP1 DUP2 SWAP1 SUB PUSH1 0x20 ADD DUP2 KECCAK256 SLOAD PUSH1 0x2 SLOAD PUSH4 0xB986F179 PUSH1 0xE0 SHL DUP4 MSTORE SWAP1 SWAP3 POP PUSH0 SWAP2 DUP3 SWAP2 PUSH1 0x1 PUSH1 0x1 PUSH1 0xA0 SHL SUB AND SWAP1 PUSH4 0xB986F179 SWAP1 PUSH2 0x978 SWAP1 DUP7 SWAP1 PUSH1 0x4 ADD SWAP1 DUP2 MSTORE PUSH1 0x20 ADD SWAP1 JUMP JUMPDEST PUSH1 0x40 DUP1 MLOAD DUP1 DUP4 SUB DUP2 DUP7 GAS STATICCALL ISZERO DUP1 ISZERO PUSH2 0x992 JUMPI RETURNDATASIZE PUSH0 DUP1 RETURNDATACOPY RETURNDATASIZE PUSH0 REVERT JUMPDEST POP POP POP POP PUSH1 0x40 MLOAD RETURNDATASIZE PUSH1 0x1F NOT PUSH1 0x1F DUP3 ADD AND DUP3 ADD DUP1 PUSH1 0x40 MSTORE POP DUP2 ADD SWAP1 PUSH2 0x9B6 SWAP2 SWAP1 PUSH2 0x1BCD JUMP JUMPDEST SWAP2 POP SWAP2 POP DUP2 PUSH2 0x9C9 JUMPI POP POP POP POP POP PUSH2 0xBD2 JUMP JUMPDEST PUSH0 PUSH1 0x3 DUP6 PUSH1 0x40 MLOAD PUSH2 0x9DA SWAP2 SWAP1 PUSH2 0x1AF9 JUMP JUMPDEST SWAP1 DUP2 MSTORE PUSH1 0x40 MLOAD SWAP1 DUP2 SWAP1 SUB PUSH1 0x20 ADD SWAP1 KECCAK256 SLOAD PUSH1 0x1 PUSH1 0x1 PUSH1 0xA0 SHL SUB AND SWAP1 POP DUP2 ISZERO PUSH2 0xAE6 JUMPI PUSH1 0x3 DUP6 PUSH1 0x40 MLOAD PUSH2 0xA0B SWAP2 SWAP1 PUSH2 0x1AF9 JUMP JUMPDEST SWAP1 DUP2 MSTORE PUSH1 0x40 MLOAD SWAP1 DUP2 SWAP1 SUB PUSH1 0x20 ADD SWAP1 KECCAK256 DUP1 SLOAD PUSH1 0x1 PUSH1 0x1 PUSH1 0xA0 SHL SUB NOT AND SWAP1 SSTORE PUSH1 0x4 DUP1 SLOAD PUSH2 0xA38 SWAP1 PUSH1 0x1 SWAP1 PUSH2 0x1BA6 JUMP JUMPDEST DUP2 SLOAD DUP2 LT PUSH2 0xA48 JUMPI PUSH2 0xA48 PUSH2 0x1BB9 JUMP JUMPDEST SWAP1 PUSH0 MSTORE PUSH1 0x20 PUSH0 KECCAK256 ADD PUSH1 0x4 DUP8 DUP2 SLOAD DUP2 LT PUSH2 0xA63 JUMPI PUSH2 0xA63 PUSH2 0x1BB9 JUMP JUMPDEST SWAP1 PUSH0 MSTORE PUSH1 0x20 PUSH0 KECCAK256 ADD SWAP1 DUP2 PUSH2 0xA77 SWAP2 SWAP1 PUSH2 0x1C4A JUMP JUMPDEST POP PUSH1 0x4 DUP1 SLOAD DUP1 PUSH2 0xA89 JUMPI PUSH2 0xA89 PUSH2 0x1D22 JUMP JUMPDEST PUSH1 0x1 SWAP1 SUB DUP2 DUP2 SWAP1 PUSH0 MSTORE PUSH1 0x20 PUSH0 KECCAK256 ADD PUSH0 PUSH2 0xAA2 SWAP2 SWAP1 PUSH2 0x1782 JUMP JUMPDEST SWAP1 SSTORE DUP1 PUSH1 0x1 PUSH1 0x1 PUSH1 0xA0 SHL SUB AND PUSH32 0x82AA94D0384F3FE5D924376CF325AFCFF8195F30F42758AE710193C432F24AC1 DUP7 PUSH1 0x40 MLOAD PUSH2 0xADD SWAP2 SWAP1 PUSH2 0x1923 JUMP JUMPDEST PUSH1 0x40 MLOAD DUP1 SWAP2 SUB SWAP1 LOG2 JUMPDEST DUP2 PUSH2 0xB2D JUMPI DUP1 PUSH1 0x1 PUSH1 0x1 PUSH1 0xA0 SHL SUB AND PUSH32 0x402A83BDAD8CEF946824820B268607AEC7303DE64E88533B0BD7EE57A577B954 DUP7 PUSH1 0x40 MLOAD PUSH2 0xB24 SWAP2 SWAP1 PUSH2 0x1923 JUMP JUMPDEST PUSH1 0x40 MLOAD DUP1 SWAP2 SUB SWAP1 LOG2 JUMPDEST PUSH1 0x7 DUP6 PUSH1 0x40 MLOAD PUSH2 0xB3D SWAP2 SWAP1 PUSH2 0x1AF9 JUMP JUMPDEST SWAP1 DUP2 MSTORE PUSH1 0x40 MLOAD SWAP1 DUP2 SWAP1 SUB PUSH1 0x20 ADD SWAP1 KECCAK256 PUSH0 SWAP1 SSTORE PUSH1 0x8 DUP1 SLOAD PUSH2 0xB5F SWAP1 PUSH1 0x1 SWAP1 PUSH2 0x1BA6 JUMP JUMPDEST DUP2 SLOAD DUP2 LT PUSH2 0xB6F JUMPI PUSH2 0xB6F PUSH2 0x1BB9 JUMP JUMPDEST SWAP1 PUSH0 MSTORE PUSH1 0x20 PUSH0 KECCAK256 ADD PUSH1 0x8 DUP8 DUP2 SLOAD DUP2 LT PUSH2 0xB8A JUMPI PUSH2 0xB8A PUSH2 0x1BB9 JUMP JUMPDEST SWAP1 PUSH0 MSTORE PUSH1 0x20 PUSH0 KECCAK256 ADD SWAP1 DUP2 PUSH2 0xB9E SWAP2 SWAP1 PUSH2 0x1C4A JUMP JUMPDEST POP PUSH1 0x8 DUP1 SLOAD DUP1 PUSH2 0xBB0 JUMPI PUSH2 0xBB0 PUSH2 0x1D22 JUMP JUMPDEST PUSH1 0x1 SWAP1 SUB DUP2 DUP2 SWAP1 PUSH0 MSTORE PUSH1 0x20 PUSH0 KECCAK256 ADD PUSH0 PUSH2 0xBC9 SWAP2 SWAP1 PUSH2 0x1782 JUMP JUMPDEST SWAP1 SSTORE POP POP POP POP POP POP JUMPDEST DUP1 PUSH2 0xBDC DUP2 PUSH2 0x1D36 JUMP JUMPDEST SWAP2 POP POP PUSH2 0x868 JUMP JUMPDEST POP JUMPDEST PUSH1 0x6 SLOAD ISZERO PUSH2 0xF1F JUMPI PUSH1 0x6 SLOAD JUMPDEST DUP1 ISZERO PUSH2 0xF1D JUMPI PUSH0 PUSH2 0xC04 PUSH1 0x1 DUP4 PUSH2 0x1BA6 JUMP JUMPDEST SWAP1 POP PUSH0 PUSH1 0x6 DUP3 DUP2 SLOAD DUP2 LT PUSH2 0xC1A JUMPI PUSH2 0xC1A PUSH2 0x1BB9 JUMP JUMPDEST SWAP1 PUSH0 MSTORE PUSH1 0x20 PUSH0 KECCAK256 ADD DUP1 SLOAD PUSH2 0xC2D SWAP1 PUSH2 0x1B04 JUMP JUMPDEST DUP1 PUSH1 0x1F ADD PUSH1 0x20 DUP1 SWAP2 DIV MUL PUSH1 0x20 ADD PUSH1 0x40 MLOAD SWAP1 DUP2 ADD PUSH1 0x40 MSTORE DUP1 SWAP3 SWAP2 SWAP1 DUP2 DUP2 MSTORE PUSH1 0x20 ADD DUP3 DUP1 SLOAD PUSH2 0xC59 SWAP1 PUSH2 0x1B04 JUMP JUMPDEST DUP1 ISZERO PUSH2 0xCA4 JUMPI DUP1 PUSH1 0x1F LT PUSH2 0xC7B JUMPI PUSH2 0x100 DUP1 DUP4 SLOAD DIV MUL DUP4 MSTORE SWAP2 PUSH1 0x20 ADD SWAP2 PUSH2 0xCA4 JUMP JUMPDEST DUP3 ADD SWAP2 SWAP1 PUSH0 MSTORE PUSH1 0x20 PUSH0 KECCAK256 SWAP1 JUMPDEST DUP2 SLOAD DUP2 MSTORE SWAP1 PUSH1 0x1 ADD SWAP1 PUSH1 0x20 ADD DUP1 DUP4 GT PUSH2 0xC87 JUMPI DUP3 SWAP1 SUB PUSH1 0x1F AND DUP3 ADD SWAP2 JUMPDEST POP POP POP POP POP SWAP1 POP PUSH0 PUSH1 0x5 DUP3 PUSH1 0x40 MLOAD PUSH2 0xCBC SWAP2 SWAP1 PUSH2 0x1AF9 JUMP JUMPDEST SWAP1 DUP2 MSTORE PUSH1 0x40 MLOAD SWAP1 DUP2 SWAP1 SUB PUSH1 0x20 ADD DUP2 KECCAK256 SLOAD PUSH1 0x2 SLOAD PUSH4 0x4F6E1B27 PUSH1 0xE0 SHL DUP4 MSTORE SWAP1 SWAP3 POP PUSH0 SWAP2 DUP3 SWAP2 DUP3 SWAP2 PUSH1 0x1 PUSH1 0x1 PUSH1 0xA0 SHL SUB SWAP1 SWAP2 AND SWAP1 PUSH4 0x4F6E1B27 SWAP1 PUSH2 0xD06 SWAP1 DUP8 SWAP1 PUSH1 0x4 ADD SWAP1 DUP2 MSTORE PUSH1 0x20 ADD SWAP1 JUMP JUMPDEST PUSH1 0x60 PUSH1 0x40 MLOAD DUP1 DUP4 SUB DUP2 DUP7 GAS STATICCALL ISZERO DUP1 ISZERO PUSH2 0xD21 JUMPI RETURNDATASIZE PUSH0 DUP1 RETURNDATACOPY RETURNDATASIZE PUSH0 REVERT JUMPDEST POP POP POP POP PUSH1 0x40 MLOAD RETURNDATASIZE PUSH1 0x1F NOT PUSH1 0x1F DUP3 ADD AND DUP3 ADD DUP1 PUSH1 0x40 MSTORE POP DUP2 ADD SWAP1 PUSH2 0xD45 SWAP2 SWAP1 PUSH2 0x1B50 JUMP JUMPDEST SWAP3 POP SWAP3 POP SWAP3 POP DUP2 PUSH2 0xD5B JUMPI POP POP POP POP POP POP PUSH2 0xF0B JUMP JUMPDEST DUP1 ISZERO PUSH2 0xE1F JUMPI DUP3 PUSH1 0x3 DUP7 PUSH1 0x40 MLOAD PUSH2 0xD72 SWAP2 SWAP1 PUSH2 0x1AF9 JUMP JUMPDEST SWAP1 DUP2 MSTORE PUSH1 0x40 MLOAD SWAP1 DUP2 SWAP1 SUB PUSH1 0x20 ADD SWAP1 KECCAK256 DUP1 SLOAD PUSH1 0x1 PUSH1 0x1 PUSH1 0xA0 SHL SUB SWAP3 SWAP1 SWAP3 AND PUSH1 0x1 PUSH1 0x1 PUSH1 0xA0 SHL SUB NOT SWAP1 SWAP3 AND SWAP2 SWAP1 SWAP2 OR SWAP1 SSTORE PUSH1 0x4 DUP1 SLOAD PUSH1 0x1 DUP2 ADD DUP3 SSTORE PUSH0 SWAP2 SWAP1 SWAP2 MSTORE PUSH32 0x8A35ACFBC15FF81A39AE7D344FD709F28E8600B4AA8C65C6B64BFE7FE36BD19B ADD PUSH2 0xDDC DUP7 DUP3 PUSH2 0x1D4B JUMP JUMPDEST POP DUP3 PUSH1 0x1 PUSH1 0x1 PUSH1 0xA0 SHL SUB AND PUSH32 0x8281F4653EA8E6BA47F1EBEEB1C7E17291003D7E8247666D4D1C46124920BFE6 DUP7 PUSH1 0x40 MLOAD PUSH2 0xE16 SWAP2 SWAP1 PUSH2 0x1923 JUMP JUMPDEST PUSH1 0x40 MLOAD DUP1 SWAP2 SUB SWAP1 LOG2 JUMPDEST DUP1 PUSH2 0xE66 JUMPI DUP3 PUSH1 0x1 PUSH1 0x1 PUSH1 0xA0 SHL SUB AND PUSH32 0xC4425EBA3FDC6AAF1C08B8892B7B7B5FDCA047F984A94148A7C547E0FAAC2BD3 DUP7 PUSH1 0x40 MLOAD PUSH2 0xE5D SWAP2 SWAP1 PUSH2 0x1923 JUMP JUMPDEST PUSH1 0x40 MLOAD DUP1 SWAP2 SUB SWAP1 LOG2 JUMPDEST PUSH1 0x5 DUP6 PUSH1 0x40 MLOAD PUSH2 0xE76 SWAP2 SWAP1 PUSH2 0x1AF9 JUMP JUMPDEST SWAP1 DUP2 MSTORE PUSH1 0x40 MLOAD SWAP1 DUP2 SWAP1 SUB PUSH1 0x20 ADD SWAP1 KECCAK256 PUSH0 SWAP1 SSTORE PUSH1 0x6 DUP1 SLOAD PUSH2 0xE98 SWAP1 PUSH1 0x1 SWAP1 PUSH2 0x1BA6 JUMP JUMPDEST DUP2 SLOAD DUP2 LT PUSH2 0xEA8 JUMPI PUSH2 0xEA8 PUSH2 0x1BB9 JUMP JUMPDEST SWAP1 PUSH0 MSTORE PUSH1 0x20 PUSH0 KECCAK256 ADD PUSH1 0x6 DUP8 DUP2 SLOAD DUP2 LT PUSH2 0xEC3 JUMPI PUSH2 0xEC3 PUSH2 0x1BB9 JUMP JUMPDEST SWAP1 PUSH0 MSTORE PUSH1 0x20 PUSH0 KECCAK256 ADD SWAP1 DUP2 PUSH2 0xED7 SWAP2 SWAP1 PUSH2 0x1C4A JUMP JUMPDEST POP PUSH1 0x6 DUP1 SLOAD DUP1 PUSH2 0xEE9 JUMPI PUSH2 0xEE9 PUSH2 0x1D22 JUMP JUMPDEST PUSH1 0x1 SWAP1 SUB DUP2 DUP2 SWAP1 PUSH0 MSTORE PUSH1 0x20 PUSH0 KECCAK256 ADD PUSH0 PUSH2 0xF02 SWAP2 SWAP1 PUSH2 0x1782 JUMP JUMPDEST SWAP1 SSTORE POP POP POP POP POP POP JUMPDEST DUP1 PUSH2 0xF15 DUP2 PUSH2 0x1D36 JUMP JUMPDEST SWAP2 POP POP PUSH2 0xBF2 JUMP JUMPDEST POP JUMPDEST PUSH2 0xF28 PUSH1 0x1 PUSH0 SSTORE JUMP JUMPDEST JUMP JUMPDEST PUSH1 0x6 DUP2 DUP2 SLOAD DUP2 LT PUSH2 0x67E JUMPI PUSH0 DUP1 REVERT JUMPDEST PUSH2 0xF41 PUSH2 0x1549 JUMP JUMPDEST PUSH1 0x2 SLOAD PUSH1 0x1 PUSH1 0x1 PUSH1 0xA0 SHL SUB AND PUSH2 0xF69 JUMPI PUSH1 0x40 MLOAD PUSH3 0x461BCD PUSH1 0xE5 SHL DUP2 MSTORE PUSH1 0x4 ADD PUSH2 0x349 SWAP1 PUSH2 0x1A88 JUMP JUMPDEST PUSH1 0x1 PUSH1 0x1 PUSH1 0xA0 SHL SUB DUP2 AND PUSH2 0xFBF JUMPI PUSH1 0x40 MLOAD PUSH3 0x461BCD PUSH1 0xE5 SHL DUP2 MSTORE PUSH1 0x20 PUSH1 0x4 DUP3 ADD MSTORE PUSH1 0x1F PUSH1 0x24 DUP3 ADD MSTORE PUSH32 0x74686520636F6E74726163742061646472657373206973206E6F742073657400 PUSH1 0x44 DUP3 ADD MSTORE PUSH1 0x64 ADD PUSH2 0x349 JUMP JUMPDEST PUSH1 0x2 SLOAD PUSH1 0x40 MLOAD PUSH4 0xEACD1D5 PUSH1 0xE1 SHL DUP2 MSTORE PUSH0 SWAP2 PUSH1 0x1 PUSH1 0x1 PUSH1 0xA0 SHL SUB AND SWAP1 PUSH4 0x1D59A3AA SWAP1 PUSH2 0xFF1 SWAP1 DUP7 SWAP1 DUP7 SWAP1 PUSH1 0x4 ADD PUSH2 0x1DFE JUMP JUMPDEST PUSH1 0x20 PUSH1 0x40 MLOAD DUP1 DUP4 SUB DUP2 PUSH0 DUP8 GAS CALL ISZERO DUP1 ISZERO PUSH2 0x100D JUMPI RETURNDATASIZE PUSH0 DUP1 RETURNDATACOPY RETURNDATASIZE PUSH0 REVERT JUMPDEST POP POP POP POP PUSH1 0x40 MLOAD RETURNDATASIZE PUSH1 0x1F NOT PUSH1 0x1F DUP3 ADD AND DUP3 ADD DUP1 PUSH1 0x40 MSTORE POP DUP2 ADD SWAP1 PUSH2 0x1031 SWAP2 SWAP1 PUSH2 0x1ACB JUMP JUMPDEST SWAP1 POP PUSH1 0x5 DUP4 PUSH1 0x40 MLOAD PUSH2 0x1043 SWAP2 SWAP1 PUSH2 0x1AF9 JUMP JUMPDEST SWAP1 DUP2 MSTORE PUSH1 0x20 ADD PUSH1 0x40 MLOAD DUP1 SWAP2 SUB SWAP1 KECCAK256 SLOAD PUSH0 EQ PUSH2 0x10A0 JUMPI PUSH1 0x40 MLOAD PUSH3 0x461BCD PUSH1 0xE5 SHL DUP2 MSTORE PUSH1 0x20 PUSH1 0x4 DUP3 ADD DUP2 SWAP1 MSTORE PUSH1 0x24 DUP3 ADD MSTORE PUSH32 0x74686520646570656E64656E637920616C726561647920726571756573746564 PUSH1 0x44 DUP3 ADD MSTORE PUSH1 0x64 ADD PUSH2 0x349 JUMP JUMPDEST DUP1 PUSH1 0x5 DUP5 PUSH1 0x40 MLOAD PUSH2 0x10B1 SWAP2 SWAP1 PUSH2 0x1AF9 JUMP JUMPDEST SWAP1 DUP2 MSTORE PUSH1 0x40 MLOAD SWAP1 DUP2 SWAP1 SUB PUSH1 0x20 ADD SWAP1 KECCAK256 SSTORE PUSH1 0x6 DUP1 SLOAD PUSH1 0x1 DUP2 ADD DUP3 SSTORE PUSH0 SWAP2 SWAP1 SWAP2 MSTORE PUSH32 0xF652222313E28459528D920B65115C16C04F3EFC82AAEDC97BE59F3F377C0D3F ADD PUSH2 0x10FC DUP5 DUP3 PUSH2 0x1D4B JUMP JUMPDEST POP DUP2 PUSH1 0x1 PUSH1 0x1 PUSH1 0xA0 SHL SUB AND PUSH32 0x7A561791A5E256AAC8E189115CA0E37A81457D0FC3FACECEB7D1C4907DD55A3A DUP5 PUSH1 0x40 MLOAD PUSH2 0x1136 SWAP2 SWAP1 PUSH2 0x1923 JUMP JUMPDEST PUSH1 0x40 MLOAD DUP1 SWAP2 SUB SWAP1 LOG2 POP PUSH2 0x1148 PUSH1 0x1 PUSH0 SSTORE JUMP JUMPDEST POP POP JUMP JUMPDEST PUSH1 0x60 PUSH2 0x1156 PUSH2 0x1549 JUMP JUMPDEST PUSH0 PUSH2 0x1160 DUP6 PUSH2 0x1571 JUMP JUMPDEST DUP5 MLOAD PUSH1 0x20 DUP7 ADD KECCAK256 SWAP1 SWAP2 POP PUSH2 0x1175 DUP3 DUP3 DUP7 PUSH2 0x1603 JUMP JUMPDEST SWAP3 POP POP POP PUSH2 0x1182 PUSH1 0x1 PUSH0 SSTORE JUMP JUMPDEST SWAP4 SWAP3 POP POP POP JUMP JUMPDEST PUSH1 0x60 PUSH1 0x6 DUP1 SLOAD DUP1 PUSH1 0x20 MUL PUSH1 0x20 ADD PUSH1 0x40 MLOAD SWAP1 DUP2 ADD PUSH1 0x40 MSTORE DUP1 SWAP3 SWAP2 SWAP1 DUP2 DUP2 MSTORE PUSH1 0x20 ADD PUSH0 SWAP1 JUMPDEST DUP3 DUP3 LT ISZERO PUSH2 0x1254 JUMPI DUP4 DUP3 SWAP1 PUSH0 MSTORE PUSH1 0x20 PUSH0 KECCAK256 ADD DUP1 SLOAD PUSH2 0x11C9 SWAP1 PUSH2 0x1B04 JUMP JUMPDEST DUP1 PUSH1 0x1F ADD PUSH1 0x20 DUP1 SWAP2 DIV MUL PUSH1 0x20 ADD PUSH1 0x40 MLOAD SWAP1 DUP2 ADD PUSH1 0x40 MSTORE DUP1 SWAP3 SWAP2 SWAP1 DUP2 DUP2 MSTORE PUSH1 0x20 ADD DUP3 DUP1 SLOAD PUSH2 0x11F5 SWAP1 PUSH2 0x1B04 JUMP JUMPDEST DUP1 ISZERO PUSH2 0x1240 JUMPI DUP1 PUSH1 0x1F LT PUSH2 0x1217 JUMPI PUSH2 0x100 DUP1 DUP4 SLOAD DIV MUL DUP4 MSTORE SWAP2 PUSH1 0x20 ADD SWAP2 PUSH2 0x1240 JUMP JUMPDEST DUP3 ADD SWAP2 SWAP1 PUSH0 MSTORE PUSH1 0x20 PUSH0 KECCAK256 SWAP1 JUMPDEST DUP2 SLOAD DUP2 MSTORE SWAP1 PUSH1 0x1 ADD SWAP1 PUSH1 0x20 ADD DUP1 DUP4 GT PUSH2 0x1223 JUMPI DUP3 SWAP1 SUB PUSH1 0x1F AND DUP3 ADD SWAP2 JUMPDEST POP POP POP POP POP DUP2 MSTORE PUSH1 0x20 ADD SWAP1 PUSH1 0x1 ADD SWAP1 PUSH2 0x11AC JUMP JUMPDEST POP POP POP POP SWAP1 POP SWAP1 JUMP JUMPDEST PUSH1 0x60 PUSH1 0x4 DUP1 SLOAD DUP1 PUSH1 0x20 MUL PUSH1 0x20 ADD PUSH1 0x40 MLOAD SWAP1 DUP2 ADD PUSH1 0x40 MSTORE DUP1 SWAP3 SWAP2 SWAP1 DUP2 DUP2 MSTORE PUSH1 0x20 ADD PUSH0 SWAP1 JUMPDEST DUP3 DUP3 LT ISZERO PUSH2 0x1254 JUMPI DUP4 DUP3 SWAP1 PUSH0 MSTORE PUSH1 0x20 PUSH0 KECCAK256 ADD DUP1 SLOAD PUSH2 0x129D SWAP1 PUSH2 0x1B04 JUMP JUMPDEST DUP1 PUSH1 0x1F ADD PUSH1 0x20 DUP1 SWAP2 DIV MUL PUSH1 0x20 ADD PUSH1 0x40 MLOAD SWAP1 DUP2 ADD PUSH1 0x40 MSTORE DUP1 SWAP3 SWAP2 SWAP1 DUP2 DUP2 MSTORE PUSH1 0x20 ADD DUP3 DUP1 SLOAD PUSH2 0x12C9 SWAP1 PUSH2 0x1B04 JUMP JUMPDEST DUP1 ISZERO PUSH2 0x1314 JUMPI DUP1 PUSH1 0x1F LT PUSH2 0x12EB JUMPI PUSH2 0x100 DUP1 DUP4 SLOAD DIV MUL DUP4 MSTORE SWAP2 PUSH1 0x20 ADD SWAP2 PUSH2 0x1314 JUMP JUMPDEST DUP3 ADD SWAP2 SWAP1 PUSH0 MSTORE PUSH1 0x20 PUSH0 KECCAK256 SWAP1 JUMPDEST DUP2 SLOAD DUP2 MSTORE SWAP1 PUSH1 0x1 ADD SWAP1 PUSH1 0x20 ADD DUP1 DUP4 GT PUSH2 0x12F7 JUMPI DUP3 SWAP1 SUB PUSH1 0x1F AND DUP3 ADD SWAP2 JUMPDEST POP POP POP POP POP DUP2 MSTORE PUSH1 0x20 ADD SWAP1 PUSH1 0x1 ADD SWAP1 PUSH2 0x1280 JUMP JUMPDEST PUSH1 0x4 DUP2 DUP2 SLOAD DUP2 LT PUSH2 0x67E JUMPI PUSH0 DUP1 REVERT JUMPDEST PUSH2 0x133F PUSH2 0x1549 JUMP JUMPDEST PUSH1 0x2 SLOAD PUSH1 0x1 PUSH1 0x1 PUSH1 0xA0 SHL SUB AND PUSH2 0x1367 JUMPI PUSH1 0x40 MLOAD PUSH3 0x461BCD PUSH1 0xE5 SHL DUP2 MSTORE PUSH1 0x4 ADD PUSH2 0x349 SWAP1 PUSH2 0x1A88 JUMP JUMPDEST PUSH1 0x1 PUSH1 0x1 PUSH1 0xA0 SHL SUB DUP2 AND PUSH2 0x13BD JUMPI PUSH1 0x40 MLOAD PUSH3 0x461BCD PUSH1 0xE5 SHL DUP2 MSTORE PUSH1 0x20 PUSH1 0x4 DUP3 ADD MSTORE PUSH1 0x1F PUSH1 0x24 DUP3 ADD MSTORE PUSH32 0x74686520636F6E74726163742061646472657373206973206E6F742073657400 PUSH1 0x44 DUP3 ADD MSTORE PUSH1 0x64 ADD PUSH2 0x349 JUMP JUMPDEST PUSH1 0x2 SLOAD PUSH1 0x40 MLOAD PUSH4 0x7EC4043 PUSH1 0xE0 SHL DUP2 MSTORE PUSH0 SWAP2 PUSH1 0x1 PUSH1 0x1 PUSH1 0xA0 SHL SUB AND SWAP1 PUSH4 0x7EC4043 SWAP1 PUSH2 0x13EF SWAP1 DUP7 SWAP1 DUP7 SWAP1 PUSH1 0x4 ADD PUSH2 0x1DFE JUMP JUMPDEST PUSH1 0x20 PUSH1 0x40 MLOAD DUP1 DUP4 SUB DUP2 PUSH0 DUP8 GAS CALL ISZERO DUP1 ISZERO PUSH2 0x140B JUMPI RETURNDATASIZE PUSH0 DUP1 RETURNDATACOPY RETURNDATASIZE PUSH0 REVERT JUMPDEST POP POP POP POP PUSH1 0x40 MLOAD RETURNDATASIZE PUSH1 0x1F NOT PUSH1 0x1F DUP3 ADD AND DUP3 ADD DUP1 PUSH1 0x40 MSTORE POP DUP2 ADD SWAP1 PUSH2 0x142F SWAP2 SWAP1 PUSH2 0x1ACB JUMP JUMPDEST SWAP1 POP PUSH1 0x7 DUP4 PUSH1 0x40 MLOAD PUSH2 0x1441 SWAP2 SWAP1 PUSH2 0x1AF9 JUMP JUMPDEST SWAP1 DUP2 MSTORE PUSH1 0x20 ADD PUSH1 0x40 MLOAD DUP1 SWAP2 SUB SWAP1 KECCAK256 SLOAD PUSH0 EQ PUSH2 0x14B3 JUMPI PUSH1 0x40 MLOAD PUSH3 0x461BCD PUSH1 0xE5 SHL DUP2 MSTORE PUSH1 0x20 PUSH1 0x4 DUP3 ADD MSTORE PUSH1 0x2C PUSH1 0x24 DUP3 ADD MSTORE PUSH32 0x74686520646570656E64656E637920616C726561647920726571756573746564 PUSH1 0x44 DUP3 ADD MSTORE PUSH12 0x8199BDC881C995B5BDD985B PUSH1 0xA2 SHL PUSH1 0x64 DUP3 ADD MSTORE PUSH1 0x84 ADD PUSH2 0x349 JUMP JUMPDEST DUP1 PUSH1 0x7 DUP5 PUSH1 0x40 MLOAD PUSH2 0x14C4 SWAP2 SWAP1 PUSH2 0x1AF9 JUMP JUMPDEST SWAP1 DUP2 MSTORE PUSH1 0x40 MLOAD SWAP1 DUP2 SWAP1 SUB PUSH1 0x20 ADD SWAP1 KECCAK256 SSTORE PUSH1 0x8 DUP1 SLOAD PUSH1 0x1 DUP2 ADD DUP3 SSTORE PUSH0 SWAP2 SWAP1 SWAP2 MSTORE PUSH32 0xF3F7A9FE364FAAB93B216DA50A3214154F22A0A2B415B23A84C8169E8B636EE3 ADD PUSH2 0x150F DUP5 DUP3 PUSH2 0x1D4B JUMP JUMPDEST POP DUP2 PUSH1 0x1 PUSH1 0x1 PUSH1 0xA0 SHL SUB AND PUSH32 0x4591E03D87E58E2EFF46633BCA8ADFB3336F94CED41A61A4E33D3E061FD0E960 DUP5 PUSH1 0x40 MLOAD PUSH2 0x1136 SWAP2 SWAP1 PUSH2 0x1923 JUMP JUMPDEST PUSH1 0x2 PUSH0 SLOAD SUB PUSH2 0x156B JUMPI PUSH1 0x40 MLOAD PUSH4 0x3EE5AEB5 PUSH1 0xE0 SHL DUP2 MSTORE PUSH1 0x4 ADD PUSH1 0x40 MLOAD DUP1 SWAP2 SUB SWAP1 REVERT JUMPDEST PUSH1 0x2 PUSH0 SSTORE JUMP JUMPDEST PUSH0 DUP1 PUSH1 0x1 PUSH1 0x1 PUSH1 0xA0 SHL SUB AND PUSH1 0x3 DUP4 PUSH1 0x40 MLOAD PUSH2 0x158C SWAP2 SWAP1 PUSH2 0x1AF9 JUMP JUMPDEST SWAP1 DUP2 MSTORE PUSH1 0x40 MLOAD SWAP1 DUP2 SWAP1 SUB PUSH1 0x20 ADD SWAP1 KECCAK256 SLOAD PUSH1 0x1 PUSH1 0x1 PUSH1 0xA0 SHL SUB AND SUB PUSH2 0x640 JUMPI PUSH1 0x40 MLOAD PUSH3 0x461BCD PUSH1 0xE5 SHL DUP2 MSTORE PUSH1 0x20 PUSH1 0x4 DUP3 ADD MSTORE PUSH1 0x28 PUSH1 0x24 DUP3 ADD MSTORE PUSH32 0x546865206B657920646F6573204E4F5420706F696E7420746F20616E79206465 PUSH1 0x44 DUP3 ADD MSTORE PUSH8 0x70656E64656E6379 PUSH1 0xC0 SHL PUSH1 0x64 DUP3 ADD MSTORE PUSH1 0x84 ADD PUSH2 0x349 JUMP JUMPDEST PUSH1 0x60 PUSH0 DUP4 DUP4 PUSH1 0x40 MLOAD PUSH1 0x20 ADD PUSH2 0x1619 SWAP3 SWAP2 SWAP1 PUSH2 0x1E27 JUMP JUMPDEST PUSH1 0x40 DUP1 MLOAD PUSH1 0x1F NOT DUP2 DUP5 SUB ADD DUP2 MSTORE SWAP2 SWAP1 MSTORE SWAP1 POP PUSH2 0x163E PUSH1 0x1 PUSH1 0x1 PUSH1 0xA0 SHL SUB DUP7 AND DUP3 PUSH2 0x1647 JUMP JUMPDEST SWAP6 SWAP5 POP POP POP POP POP JUMP JUMPDEST PUSH1 0x60 PUSH2 0x1654 DUP4 DUP4 PUSH0 PUSH2 0x165D JUMP JUMPDEST SWAP1 POP JUMPDEST SWAP3 SWAP2 POP POP JUMP JUMPDEST PUSH1 0x60 DUP2 SELFBALANCE LT ISZERO PUSH2 0x1689 JUMPI PUSH1 0x40 MLOAD PUSH4 0xCF479181 PUSH1 0xE0 SHL DUP2 MSTORE SELFBALANCE PUSH1 0x4 DUP3 ADD MSTORE PUSH1 0x24 DUP2 ADD DUP4 SWAP1 MSTORE PUSH1 0x44 ADD PUSH2 0x349 JUMP JUMPDEST PUSH0 DUP1 DUP6 PUSH1 0x1 PUSH1 0x1 PUSH1 0xA0 SHL SUB AND DUP5 DUP7 PUSH1 0x40 MLOAD PUSH2 0x16A4 SWAP2 SWAP1 PUSH2 0x1AF9 JUMP JUMPDEST PUSH0 PUSH1 0x40 MLOAD DUP1 DUP4 SUB DUP2 DUP6 DUP8 GAS CALL SWAP3 POP POP POP RETURNDATASIZE DUP1 PUSH0 DUP2 EQ PUSH2 0x16DE JUMPI PUSH1 0x40 MLOAD SWAP2 POP PUSH1 0x1F NOT PUSH1 0x3F RETURNDATASIZE ADD AND DUP3 ADD PUSH1 0x40 MSTORE RETURNDATASIZE DUP3 MSTORE RETURNDATASIZE PUSH0 PUSH1 0x20 DUP5 ADD RETURNDATACOPY PUSH2 0x16E3 JUMP JUMPDEST PUSH1 0x60 SWAP2 POP JUMPDEST POP SWAP2 POP SWAP2 POP PUSH2 0x16F3 DUP7 DUP4 DUP4 PUSH2 0x16FD JUMP JUMPDEST SWAP7 SWAP6 POP POP POP POP POP POP JUMP JUMPDEST PUSH1 0x60 DUP3 PUSH2 0x1712 JUMPI PUSH2 0x170D DUP3 PUSH2 0x1759 JUMP JUMPDEST PUSH2 0x1182 JUMP JUMPDEST DUP2 MLOAD ISZERO DUP1 ISZERO PUSH2 0x1729 JUMPI POP PUSH1 0x1 PUSH1 0x1 PUSH1 0xA0 SHL SUB DUP5 AND EXTCODESIZE ISZERO JUMPDEST ISZERO PUSH2 0x1752 JUMPI PUSH1 0x40 MLOAD PUSH4 0x9996B315 PUSH1 0xE0 SHL DUP2 MSTORE PUSH1 0x1 PUSH1 0x1 PUSH1 0xA0 SHL SUB DUP6 AND PUSH1 0x4 DUP3 ADD MSTORE PUSH1 0x24 ADD PUSH2 0x349 JUMP JUMPDEST POP DUP1 PUSH2 0x1182 JUMP JUMPDEST DUP1 MLOAD ISZERO PUSH2 0x1769 JUMPI DUP1 MLOAD DUP1 DUP3 PUSH1 0x20 ADD REVERT JUMPDEST PUSH1 0x40 MLOAD PUSH4 0xD6BDA275 PUSH1 0xE0 SHL DUP2 MSTORE PUSH1 0x4 ADD PUSH1 0x40 MLOAD DUP1 SWAP2 SUB SWAP1 REVERT JUMPDEST POP DUP1 SLOAD PUSH2 0x178E SWAP1 PUSH2 0x1B04 JUMP JUMPDEST PUSH0 DUP3 SSTORE DUP1 PUSH1 0x1F LT PUSH2 0x179D JUMPI POP POP JUMP JUMPDEST PUSH1 0x1F ADD PUSH1 0x20 SWAP1 DIV SWAP1 PUSH0 MSTORE PUSH1 0x20 PUSH0 KECCAK256 SWAP1 DUP2 ADD SWAP1 PUSH2 0x463 SWAP2 SWAP1 JUMPDEST DUP1 DUP3 GT ISZERO PUSH2 0x17C8 JUMPI PUSH0 DUP2 SSTORE PUSH1 0x1 ADD PUSH2 0x17B5 JUMP JUMPDEST POP SWAP1 JUMP JUMPDEST PUSH1 0x1 PUSH1 0x1 PUSH1 0xA0 SHL SUB DUP2 AND DUP2 EQ PUSH2 0x463 JUMPI PUSH0 DUP1 REVERT JUMPDEST PUSH0 PUSH1 0x20 DUP3 DUP5 SUB SLT ISZERO PUSH2 0x17F0 JUMPI PUSH0 DUP1 REVERT JUMPDEST DUP2 CALLDATALOAD PUSH2 0x1182 DUP2 PUSH2 0x17CC JUMP JUMPDEST PUSH4 0x4E487B71 PUSH1 0xE0 SHL PUSH0 MSTORE PUSH1 0x41 PUSH1 0x4 MSTORE PUSH1 0x24 PUSH0 REVERT JUMPDEST PUSH0 DUP1 PUSH8 0xFFFFFFFFFFFFFFFF DUP5 GT ISZERO PUSH2 0x1829 JUMPI PUSH2 0x1829 PUSH2 0x17FB JUMP JUMPDEST POP PUSH1 0x40 MLOAD PUSH1 0x1F NOT PUSH1 0x1F DUP6 ADD DUP2 AND PUSH1 0x3F ADD AND DUP2 ADD DUP2 DUP2 LT PUSH8 0xFFFFFFFFFFFFFFFF DUP3 GT OR ISZERO PUSH2 0x1858 JUMPI PUSH2 0x1858 PUSH2 0x17FB JUMP JUMPDEST PUSH1 0x40 MSTORE DUP4 DUP2 MSTORE SWAP1 POP DUP1 DUP3 DUP5 ADD DUP6 LT ISZERO PUSH2 0x186F JUMPI PUSH0 DUP1 REVERT JUMPDEST DUP4 DUP4 PUSH1 0x20 DUP4 ADD CALLDATACOPY PUSH0 PUSH1 0x20 DUP6 DUP4 ADD ADD MSTORE POP SWAP4 SWAP3 POP POP POP JUMP JUMPDEST PUSH0 DUP3 PUSH1 0x1F DUP4 ADD SLT PUSH2 0x1895 JUMPI PUSH0 DUP1 REVERT JUMPDEST PUSH2 0x1654 DUP4 DUP4 CALLDATALOAD PUSH1 0x20 DUP6 ADD PUSH2 0x180F JUMP JUMPDEST PUSH0 PUSH1 0x20 DUP3 DUP5 SUB SLT ISZERO PUSH2 0x18B4 JUMPI PUSH0 DUP1 REVERT JUMPDEST DUP2 CALLDATALOAD PUSH8 0xFFFFFFFFFFFFFFFF DUP2 GT ISZERO PUSH2 0x18CA JUMPI PUSH0 DUP1 REVERT JUMPDEST PUSH2 0x18D6 DUP5 DUP3 DUP6 ADD PUSH2 0x1886 JUMP JUMPDEST SWAP5 SWAP4 POP POP POP POP JUMP JUMPDEST PUSH0 PUSH1 0x20 DUP3 DUP5 SUB SLT ISZERO PUSH2 0x18EE JUMPI PUSH0 DUP1 REVERT JUMPDEST POP CALLDATALOAD SWAP2 SWAP1 POP JUMP JUMPDEST PUSH0 DUP2 MLOAD DUP1 DUP5 MSTORE DUP1 PUSH1 0x20 DUP5 ADD PUSH1 0x20 DUP7 ADD MCOPY PUSH0 PUSH1 0x20 DUP3 DUP7 ADD ADD MSTORE PUSH1 0x20 PUSH1 0x1F NOT PUSH1 0x1F DUP4 ADD AND DUP6 ADD ADD SWAP2 POP POP SWAP3 SWAP2 POP POP JUMP JUMPDEST PUSH1 0x20 DUP2 MSTORE PUSH0 PUSH2 0x1654 PUSH1 0x20 DUP4 ADD DUP5 PUSH2 0x18F5 JUMP JUMPDEST PUSH0 DUP1 PUSH1 0x40 DUP4 DUP6 SUB SLT ISZERO PUSH2 0x1946 JUMPI PUSH0 DUP1 REVERT JUMPDEST DUP3 CALLDATALOAD PUSH8 0xFFFFFFFFFFFFFFFF DUP2 GT ISZERO PUSH2 0x195C JUMPI PUSH0 DUP1 REVERT JUMPDEST PUSH2 0x1968 DUP6 DUP3 DUP7 ADD PUSH2 0x1886 JUMP JUMPDEST SWAP3 POP POP PUSH1 0x20 DUP4 ADD CALLDATALOAD PUSH2 0x1979 DUP2 PUSH2 0x17CC JUMP JUMPDEST DUP1 SWAP2 POP POP SWAP3 POP SWAP3 SWAP1 POP JUMP JUMPDEST PUSH0 DUP1 PUSH0 PUSH1 0x60 DUP5 DUP7 SUB SLT ISZERO PUSH2 0x1996 JUMPI PUSH0 DUP1 REVERT JUMPDEST DUP4 CALLDATALOAD PUSH8 0xFFFFFFFFFFFFFFFF DUP2 GT ISZERO PUSH2 0x19AC JUMPI PUSH0 DUP1 REVERT JUMPDEST PUSH2 0x19B8 DUP7 DUP3 DUP8 ADD PUSH2 0x1886 JUMP JUMPDEST SWAP4 POP POP PUSH1 0x20 DUP5 ADD CALLDATALOAD PUSH8 0xFFFFFFFFFFFFFFFF DUP2 GT ISZERO PUSH2 0x19D4 JUMPI PUSH0 DUP1 REVERT JUMPDEST PUSH2 0x19E0 DUP7 DUP3 DUP8 ADD PUSH2 0x1886 JUMP JUMPDEST SWAP3 POP POP PUSH1 0x40 DUP5 ADD CALLDATALOAD PUSH8 0xFFFFFFFFFFFFFFFF DUP2 GT ISZERO PUSH2 0x19FC JUMPI PUSH0 DUP1 REVERT JUMPDEST DUP5 ADD PUSH1 0x1F DUP2 ADD DUP7 SGT PUSH2 0x1A0C JUMPI PUSH0 DUP1 REVERT JUMPDEST PUSH2 0x1A1B DUP7 DUP3 CALLDATALOAD PUSH1 0x20 DUP5 ADD PUSH2 0x180F JUMP JUMPDEST SWAP2 POP POP SWAP3 POP SWAP3 POP SWAP3 JUMP JUMPDEST PUSH0 PUSH1 0x20 DUP3 ADD PUSH1 0x20 DUP4 MSTORE DUP1 DUP5 MLOAD DUP1 DUP4 MSTORE PUSH1 0x40 DUP6 ADD SWAP2 POP PUSH1 0x40 DUP2 PUSH1 0x5 SHL DUP7 ADD ADD SWAP3 POP PUSH1 0x20 DUP7 ADD PUSH0 JUMPDEST DUP3 DUP2 LT ISZERO PUSH2 0x1A7C JUMPI PUSH1 0x3F NOT DUP8 DUP7 SUB ADD DUP5 MSTORE PUSH2 0x1A67 DUP6 DUP4 MLOAD PUSH2 0x18F5 JUMP JUMPDEST SWAP5 POP PUSH1 0x20 SWAP4 DUP5 ADD SWAP4 SWAP2 SWAP1 SWAP2 ADD SWAP1 PUSH1 0x1 ADD PUSH2 0x1A4B JUMP JUMPDEST POP SWAP3 SWAP7 SWAP6 POP POP POP POP POP POP JUMP JUMPDEST PUSH1 0x20 DUP1 DUP3 MSTORE PUSH1 0x23 SWAP1 DUP3 ADD MSTORE PUSH32 0x74686520646570656E64656E637920726571756573746572206973206E6F7420 PUSH1 0x40 DUP3 ADD MSTORE PUSH3 0x1CD95D PUSH1 0xEA SHL PUSH1 0x60 DUP3 ADD MSTORE PUSH1 0x80 ADD SWAP1 JUMP JUMPDEST PUSH0 PUSH1 0x20 DUP3 DUP5 SUB SLT ISZERO PUSH2 0x1ADB JUMPI PUSH0 DUP1 REVERT JUMPDEST POP MLOAD SWAP2 SWAP1 POP JUMP JUMPDEST PUSH0 DUP2 MLOAD DUP1 PUSH1 0x20 DUP5 ADD DUP6 MCOPY PUSH0 SWAP4 ADD SWAP3 DUP4 MSTORE POP SWAP1 SWAP2 SWAP1 POP JUMP JUMPDEST PUSH0 PUSH2 0x1654 DUP3 DUP5 PUSH2 0x1AE2 JUMP JUMPDEST PUSH1 0x1 DUP2 DUP2 SHR SWAP1 DUP3 AND DUP1 PUSH2 0x1B18 JUMPI PUSH1 0x7F DUP3 AND SWAP2 POP JUMPDEST PUSH1 0x20 DUP3 LT DUP2 SUB PUSH2 0x1B36 JUMPI PUSH4 0x4E487B71 PUSH1 0xE0 SHL PUSH0 MSTORE PUSH1 0x22 PUSH1 0x4 MSTORE PUSH1 0x24 PUSH0 REVERT JUMPDEST POP SWAP2 SWAP1 POP JUMP JUMPDEST DUP1 MLOAD DUP1 ISZERO ISZERO DUP2 EQ PUSH2 0x1B4B JUMPI PUSH0 DUP1 REVERT JUMPDEST SWAP2 SWAP1 POP JUMP JUMPDEST PUSH0 DUP1 PUSH0 PUSH1 0x60 DUP5 DUP7 SUB SLT ISZERO PUSH2 0x1B62 JUMPI PUSH0 DUP1 REVERT JUMPDEST DUP4 MLOAD PUSH2 0x1B6D DUP2 PUSH2 0x17CC JUMP JUMPDEST SWAP3 POP PUSH2 0x1B7B PUSH1 0x20 DUP6 ADD PUSH2 0x1B3C JUMP JUMPDEST SWAP2 POP PUSH2 0x1B89 PUSH1 0x40 DUP6 ADD PUSH2 0x1B3C JUMP JUMPDEST SWAP1 POP SWAP3 POP SWAP3 POP SWAP3 JUMP JUMPDEST PUSH4 0x4E487B71 PUSH1 0xE0 SHL PUSH0 MSTORE PUSH1 0x11 PUSH1 0x4 MSTORE PUSH1 0x24 PUSH0 REVERT JUMPDEST DUP2 DUP2 SUB DUP2 DUP2 GT ISZERO PUSH2 0x1657 JUMPI PUSH2 0x1657 PUSH2 0x1B92 JUMP JUMPDEST PUSH4 0x4E487B71 PUSH1 0xE0 SHL PUSH0 MSTORE PUSH1 0x32 PUSH1 0x4 MSTORE PUSH1 0x24 PUSH0 REVERT JUMPDEST PUSH0 DUP1 PUSH1 0x40 DUP4 DUP6 SUB SLT ISZERO PUSH2 0x1BDE JUMPI PUSH0 DUP1 REVERT JUMPDEST PUSH2 0x1BE7 DUP4 PUSH2 0x1B3C JUMP JUMPDEST SWAP2 POP PUSH2 0x1BF5 PUSH1 0x20 DUP5 ADD PUSH2 0x1B3C JUMP JUMPDEST SWAP1 POP SWAP3 POP SWAP3 SWAP1 POP JUMP JUMPDEST PUSH1 0x1F DUP3 GT ISZERO PUSH2 0x1C45 JUMPI DUP1 PUSH0 MSTORE PUSH1 0x20 PUSH0 KECCAK256 PUSH1 0x1F DUP5 ADD PUSH1 0x5 SHR DUP2 ADD PUSH1 0x20 DUP6 LT ISZERO PUSH2 0x1C23 JUMPI POP DUP1 JUMPDEST PUSH1 0x1F DUP5 ADD PUSH1 0x5 SHR DUP3 ADD SWAP2 POP JUMPDEST DUP2 DUP2 LT ISZERO PUSH2 0x1C42 JUMPI PUSH0 DUP2 SSTORE PUSH1 0x1 ADD PUSH2 0x1C2F JUMP JUMPDEST POP POP JUMPDEST POP POP POP JUMP JUMPDEST DUP2 DUP2 SUB PUSH2 0x1C55 JUMPI POP POP JUMP JUMPDEST PUSH2 0x1C5F DUP3 SLOAD PUSH2 0x1B04 JUMP JUMPDEST PUSH8 0xFFFFFFFFFFFFFFFF DUP2 GT ISZERO PUSH2 0x1C77 JUMPI PUSH2 0x1C77 PUSH2 0x17FB JUMP JUMPDEST PUSH2 0x1C8B DUP2 PUSH2 0x1C85 DUP5 SLOAD PUSH2 0x1B04 JUMP JUMPDEST DUP5 PUSH2 0x1BFE JUMP JUMPDEST PUSH0 PUSH1 0x1F DUP3 GT PUSH1 0x1 DUP2 EQ PUSH2 0x1CBF JUMPI PUSH0 DUP4 ISZERO PUSH2 0x1CA5 JUMPI POP DUP5 DUP3 ADD SLOAD JUMPDEST PUSH1 0x1 DUP5 SWAP1 SHL PUSH0 NOT PUSH1 0x3 DUP7 SWAP1 SHL SHR NOT DUP3 AND OR JUMPDEST DUP6 SSTORE POP PUSH2 0x1C42 JUMP JUMPDEST PUSH0 DUP6 DUP2 MSTORE PUSH1 0x20 DUP1 DUP3 KECCAK256 DUP7 DUP4 MSTORE SWAP1 DUP3 KECCAK256 PUSH1 0x1F NOT DUP7 AND SWAP3 JUMPDEST DUP4 DUP2 LT ISZERO PUSH2 0x1CF5 JUMPI DUP3 DUP7 ADD SLOAD DUP3 SSTORE PUSH1 0x1 SWAP6 DUP7 ADD SWAP6 SWAP1 SWAP2 ADD SWAP1 PUSH1 0x20 ADD PUSH2 0x1CD5 JUMP JUMPDEST POP DUP6 DUP4 LT ISZERO PUSH2 0x1D12 JUMPI DUP2 DUP6 ADD SLOAD PUSH0 NOT PUSH1 0x3 DUP9 SWAP1 SHL PUSH1 0xF8 AND SHR NOT AND DUP2 SSTORE JUMPDEST POP POP POP POP POP PUSH1 0x1 SWAP1 DUP2 SHL ADD SWAP1 SSTORE POP JUMP JUMPDEST PUSH4 0x4E487B71 PUSH1 0xE0 SHL PUSH0 MSTORE PUSH1 0x31 PUSH1 0x4 MSTORE PUSH1 0x24 PUSH0 REVERT JUMPDEST PUSH0 DUP2 PUSH2 0x1D44 JUMPI PUSH2 0x1D44 PUSH2 0x1B92 JUMP JUMPDEST POP PUSH0 NOT ADD SWAP1 JUMP JUMPDEST DUP2 MLOAD PUSH8 0xFFFFFFFFFFFFFFFF DUP2 GT ISZERO PUSH2 0x1D65 JUMPI PUSH2 0x1D65 PUSH2 0x17FB JUMP JUMPDEST PUSH2 0x1D73 DUP2 PUSH2 0x1C85 DUP5 SLOAD PUSH2 0x1B04 JUMP JUMPDEST PUSH1 0x20 PUSH1 0x1F DUP3 GT PUSH1 0x1 DUP2 EQ PUSH2 0x1DA3 JUMPI PUSH0 DUP4 ISZERO PUSH2 0x1CA5 JUMPI POP DUP2 DUP6 ADD MLOAD PUSH1 0x1 DUP5 SWAP1 SHL PUSH0 NOT PUSH1 0x3 DUP7 SWAP1 SHL SHR NOT DUP3 AND OR PUSH2 0x1CB7 JUMP JUMPDEST PUSH0 DUP5 DUP2 MSTORE PUSH1 0x20 DUP2 KECCAK256 PUSH1 0x1F NOT DUP6 AND SWAP2 JUMPDEST DUP3 DUP2 LT ISZERO PUSH2 0x1DD2 JUMPI DUP8 DUP6 ADD MLOAD DUP3 SSTORE PUSH1 0x20 SWAP5 DUP6 ADD SWAP5 PUSH1 0x1 SWAP1 SWAP3 ADD SWAP2 ADD PUSH2 0x1DB2 JUMP JUMPDEST POP DUP5 DUP3 LT ISZERO PUSH2 0x1DEF JUMPI DUP7 DUP5 ADD MLOAD PUSH0 NOT PUSH1 0x3 DUP8 SWAP1 SHL PUSH1 0xF8 AND SHR NOT AND DUP2 SSTORE JUMPDEST POP POP POP POP PUSH1 0x1 SWAP1 DUP2 SHL ADD SWAP1 SSTORE POP JUMP JUMPDEST PUSH1 0x40 DUP2 MSTORE PUSH0 PUSH2 0x1E10 PUSH1 0x40 DUP4 ADD DUP6 PUSH2 0x18F5 JUMP JUMPDEST SWAP1 POP PUSH1 0x1 DUP1 PUSH1 0xA0 SHL SUB DUP4 AND PUSH1 0x20 DUP4 ADD MSTORE SWAP4 SWAP3 POP POP POP JUMP JUMPDEST PUSH1 0x1 PUSH1 0x1 PUSH1 0xE0 SHL SUB NOT DUP4 AND DUP2 MSTORE PUSH0 PUSH2 0x18D6 PUSH1 0x4 DUP4 ADD DUP5 PUSH2 0x1AE2 JUMP INVALID LOG2 PUSH5 0x6970667358 0x22 SLT KECCAK256 DUP3 0xF 0xB1 0xB1 0xAA JUMPDEST PUSH1 0x98 DUP7 PUSH5 0x6259B5D2A 0xE6 0x23 0xD2 0xCA 0xE7 ADDMOD 0xF 0x2E POP 0xBE GASPRICE BALANCE 0xAD PUSH29 0xFFD88E64736F6C634300081A0033A264697066735822122053D75D00B7 0xDC 0xCF 0x21 DUP6 DUP9 LOG4 PUSH26 0x92945F42624E7F77FD9333986FE56FD864A4EDD364736F6C6343 STOP ADDMOD BYTE STOP CALLER "
		},
		"gasEstimates": {
			"creation": {
				"codeDepositCost": "4080400",
				"executionCost": "infinite",
				"totalCost": "infinite"
			},
			"external": {
				"beforeEach()": "infinite",
				"testAddDependencyRequester()": "infinite",
				"testCallFunctionWithInvalidKey()": "infinite",
				"testCallFunctionWithValidKey()": "infinite",
				"testCannotRequestDependencyAdditionTwice()": "infinite",
				"testCannotRequestDependencyRemovalTwice()": "infinite",
				"testCannotRequestUpgradeIfPending()": "infinite",
				"testGetDependencyAddressWithInvalidKey()": "infinite",
				"testOnlyDeployerCanAddDependencyRequester()": "infinite",
				"testRequestDependencyAddition()": "infinite",
				"testRequestDependencyRemoval()": "infinite",
				"testRequestUpgradeDependencyRequester()": "infinite",
				"testUpdateDependenciesThenCallFunction()": "infinite",
				"testUpdateDependenciesWithNoPendingRequests()": "infinite"
			}
		},
		"methodIdentifiers": {
			"beforeEach()": "6331e7d4",
			"testAddDependencyRequester()": "94d5a708",
			"testCallFunctionWithInvalidKey()": "71bcaed0",
			"testCallFunctionWithValidKey()": "6880dcc1",
			"testCannotRequestDependencyAdditionTwice()": "1101b77f",
			"testCannotRequestDependencyRemovalTwice()": "ce17a0c3",
			"testCannotRequestUpgradeIfPending()": "9598d601",
			"testGetDependencyAddressWithInvalidKey()": "02c7ec48",
			"testOnlyDeployerCanAddDependencyRequester()": "71012c4a",
			"testRequestDependencyAddition()": "2c39d569",
			"testRequestDependencyRemoval()": "51348a43",
			"testRequestUpgradeDependencyRequester()": "3ef7830b",
			"testUpdateDependenciesThenCallFunction()": "1b5ab94e",
			"testUpdateDependenciesWithNoPendingRequests()": "3d18d609"
		}
	},
	"abi": [
		{
			"inputs": [],
			"name": "beforeEach",
			"outputs": [],
			"stateMutability": "nonpayable",
			"type": "function"
		},
		{
			"inputs": [],
			"name": "testAddDependencyRequester",
			"outputs": [],
			"stateMutability": "nonpayable",
			"type": "function"
		},
		{
			"inputs": [],
			"name": "testCallFunctionWithInvalidKey",
			"outputs": [],
			"stateMutability": "nonpayable",
			"type": "function"
		},
		{
			"inputs": [],
			"name": "testCallFunctionWithValidKey",
			"outputs": [],
			"stateMutability": "nonpayable",
			"type": "function"
		},
		{
			"inputs": [],
			"name": "testCannotRequestDependencyAdditionTwice",
			"outputs": [],
			"stateMutability": "nonpayable",
			"type": "function"
		},
		{
			"inputs": [],
			"name": "testCannotRequestDependencyRemovalTwice",
			"outputs": [],
			"stateMutability": "nonpayable",
			"type": "function"
		},
		{
			"inputs": [],
			"name": "testCannotRequestUpgradeIfPending",
			"outputs": [],
			"stateMutability": "nonpayable",
			"type": "function"
		},
		{
			"inputs": [],
			"name": "testGetDependencyAddressWithInvalidKey",
			"outputs": [],
			"stateMutability": "nonpayable",
			"type": "function"
		},
		{
			"inputs": [],
			"name": "testOnlyDeployerCanAddDependencyRequester",
			"outputs": [],
			"stateMutability": "nonpayable",
			"type": "function"
		},
		{
			"inputs": [],
			"name": "testRequestDependencyAddition",
			"outputs": [],
			"stateMutability": "nonpayable",
			"type": "function"
		},
		{
			"inputs": [],
			"name": "testRequestDependencyRemoval",
			"outputs": [],
			"stateMutability": "nonpayable",
			"type": "function"
		},
		{
			"inputs": [],
			"name": "testRequestUpgradeDependencyRequester",
			"outputs": [],
			"stateMutability": "nonpayable",
			"type": "function"
		},
		{
			"inputs": [],
			"name": "testUpdateDependenciesThenCallFunction",
			"outputs": [],
			"stateMutability": "nonpayable",
			"type": "function"
		},
		{
			"inputs": [],
			"name": "testUpdateDependenciesWithNoPendingRequests",
			"outputs": [],
			"stateMutability": "nonpayable",
			"type": "function"
		}
	]
}