{
	"data": {
		"bytecode": {
			"linkReferences": {
				"remix_tests.sol": {
					"Assert": [
						{
							"length": 20,
							"start": 4939
						},
						{
							"length": 20,
							"start": 5158
						}
					]
				}
			},
			"object": "6080604052348015600e575f80fd5b5060015f81905580546001600160a01b03191633179055612854806100325f395ff3fe608060405234801561000f575f80fd5b5060043610610127575f3560e01c806380719893116100a9578063d5f394881161006e578063d5f39488146102b5578063de714375146102c8578063ec4c2e5d146102d0578063eebed3a7146102d8578063fbe332dc146102eb575f80fd5b8063807198931461025e578063a791edf814610271578063a7fee72214610284578063bc5aef9014610297578063be6552e6146102a0575f80fd5b806329d5de01116100ef57806329d5de01146101e75780632cf1366b1461021b5780636331e7d41461023b5780636e5ecdff146102435780637b022fa21461024b575f80fd5b80630bcfc7171461012b57806312c0c8c01461014057806316c1076f1461017e5780631a83f4a31461019157806322418460146101bc575b5f80fd5b61013e6101393660046119e0565b6102fe565b005b61016b61014e366004611aba565b805160208183018101805160078252928201919093012091525481565b6040519081526020015b60405180910390f35b61013e61018c3660046119e0565b61044d565b61016b61019f366004611aba565b805160208183018101805160058252928201919093012091525481565b6101cf6101ca366004611aba565b610595565b6040516001600160a01b039091168152602001610175565b6101cf6101f5366004611aba565b80516020818301810180516003825292820191909301209152546001600160a01b031681565b61022e610229366004611af4565b610656565b6040516101759190611b39565b61013e6106fc565b61013e610744565b61022e610259366004611af4565b610f59565b61013e61026c366004611b4b565b610f68565b6002546101cf906001600160a01b031681565b61022e610292366004611b9a565b61117b565b61016b60095481565b6102a86111b8565b6040516101759190611c3b565b6001546101cf906001600160a01b031681565b61013e61128c565b6102a8611450565b61022e6102e6366004611af4565b61151b565b61013e6102f9366004611b4b565b61152a565b61030661173c565b6001546001600160a01b031633146103395760405162461bcd60e51b815260040161033090611ce1565b60405180910390fd5b6002546001600160a01b0316156103fb5760405162461bcd60e51b815260206004820152607460248201527f74686520646570656e64656e6379207265717565737465722068617320616c7260448201527f65616479206265656e207365742c20757365207265717565737455706772616460648201527f65446570656e64656e6379526571756573746572282920696e206f7264657220608482015273746f206368616e676520697420627920766f746560601b60a482015260c401610330565b600280546001600160a01b0319166001600160a01b0383169081179091556040517fa16907e9030f7a27dd100153173e6b01401f940d851e6f7095937f2773e561b2905f90a261044a60015f55565b50565b61045561173c565b600954156104bb5760405162461bcd60e51b815260206004820152602d60248201527f746865726520697320616c726561647920612070656e64696e6720757067726160448201526c646520696e2070726f6365737360981b6064820152608401610330565b6002546001600160a01b03166104e35760405162461bcd60e51b815260040161033090611cf2565b6002546040516316c1076f60e01b81526001600160a01b0383811660048301525f9216906316c1076f906024016020604051808303815f875af115801561052c573d5f803e3d5ffd5b505050506040513d601f19601f820116820180604052508101906105509190611d35565b60098190556040519091506001600160a01b038316907f130bf33540470b3a07f23b1164785a20acd90a150a4a00e976740c8f941c71db905f90a25061044a60015f55565b5f806001600160a01b03166003836040516105b09190611d63565b908152604051908190036020019020546001600160a01b0316036106275760405162461bcd60e51b815260206004820152602860248201527f746865206b657920646f6573204e4f5420706f696e7420746f20616e7920646560448201526770656e64656e637960c01b6064820152608401610330565b6003826040516106379190611d63565b908152604051908190036020019020546001600160a01b031692915050565b60088181548110610665575f80fd5b905f5260205f20015f91509050805461067d90611d6e565b80601f01602080910402602001604051908101604052809291908181526020018280546106a990611d6e565b80156106f45780601f106106cb576101008083540402835291602001916106f4565b820191905f5260205f20905b8154815290600101906020018083116106d757829003601f168201915b505050505081565b60405161070890611975565b604051809103905ff080158015610721573d5f803e3d5ffd5b50600a80546001600160a01b0319166001600160a01b0392909216919091179055565b61074c61173c565b6002546001600160a01b03166107745760405162461bcd60e51b815260040161033090611cf2565b6009541561088b5760025460095460405163156a8dcb60e11b815260048101919091525f91829182916001600160a01b031690632ad51b9690602401606060405180830381865afa1580156107cb573d5f803e3d5ffd5b505050506040513d601f19601f820116820180604052508101906107ef9190611dba565b9250925092508115610800575f6009555b81801561080a5750805b15610843576040516001600160a01b038416907fe00a5b97742635032504f47f4c4ae13f19de32bab9db317d70cb5820cce02935905f90a25b81801561084e575080155b15610887576040516001600160a01b038416907f563bb4859f75835d1cd4855f062e12db76cc064572739370c11b20510e382d5b905f90a25b5050505b60085415610c15576008545b8015610c13575f6108a9600183611e10565b90505f600882815481106108bf576108bf611e23565b905f5260205f200180546108d290611d6e565b80601f01602080910402602001604051908101604052809291908181526020018280546108fe90611d6e565b80156109495780601f1061092057610100808354040283529160200191610949565b820191905f5260205f20905b81548152906001019060200180831161092c57829003601f168201915b505050505090505f6007826040516109619190611d63565b9081526040519081900360200181205460025463b986f17960e01b83529092505f9182916001600160a01b03169063b986f179906109a790869060040190815260200190565b6040805180830381865afa1580156109c1573d5f803e3d5ffd5b505050506040513d601f19601f820116820180604052508101906109e59190611e37565b91509150816109f8575050505050610c01565b5f600385604051610a099190611d63565b908152604051908190036020019020546001600160a01b031690508115610b1557600385604051610a3a9190611d63565b90815260405190819003602001902080546001600160a01b031916905560048054610a6790600190611e10565b81548110610a7757610a77611e23565b905f5260205f200160048781548110610a9257610a92611e23565b905f5260205f20019081610aa69190611eb4565b506004805480610ab857610ab8611f8c565b600190038181905f5260205f20015f610ad19190611982565b9055806001600160a01b03167f82aa94d0384f3fe5d924376cf325afcff8195f30f42758ae710193c432f24ac186604051610b0c9190611b39565b60405180910390a25b81610b5c57806001600160a01b03167f402a83bdad8cef946824820b268607aec7303de64e88533b0bd7ee57a577b95486604051610b539190611b39565b60405180910390a25b600785604051610b6c9190611d63565b9081526040519081900360200190205f905560088054610b8e90600190611e10565b81548110610b9e57610b9e611e23565b905f5260205f200160088781548110610bb957610bb9611e23565b905f5260205f20019081610bcd9190611eb4565b506008805480610bdf57610bdf611f8c565b600190038181905f5260205f20015f610bf89190611982565b90555050505050505b80610c0b81611fa0565b915050610897565b505b60065415610f4e576006545b8015610f4c575f610c33600183611e10565b90505f60068281548110610c4957610c49611e23565b905f5260205f20018054610c5c90611d6e565b80601f0160208091040260200160405190810160405280929190818152602001828054610c8890611d6e565b8015610cd35780601f10610caa57610100808354040283529160200191610cd3565b820191905f5260205f20905b815481529060010190602001808311610cb657829003601f168201915b505050505090505f600582604051610ceb9190611d63565b90815260405190819003602001812054600254634f6e1b2760e01b83529092505f91829182916001600160a01b0390911690634f6e1b2790610d3590879060040190815260200190565b606060405180830381865afa158015610d50573d5f803e3d5ffd5b505050506040513d601f19601f82011682018060405250810190610d749190611dba565b92509250925081610d8a57505050505050610f3a565b8015610e4e5782600386604051610da19190611d63565b90815260405190819003602001902080546001600160a01b03929092166001600160a01b0319909216919091179055600480546001810182555f919091527f8a35acfbc15ff81a39ae7d344fd709f28e8600b4aa8c65c6b64bfe7fe36bd19b01610e0b8682611fb5565b50826001600160a01b03167f8281f4653ea8e6ba47f1ebeeb1c7e17291003d7e8247666d4d1c46124920bfe686604051610e459190611b39565b60405180910390a25b80610e9557826001600160a01b03167fc4425eba3fdc6aaf1c08b8892b7b7b5fdca047f984a94148a7c547e0faac2bd386604051610e8c9190611b39565b60405180910390a25b600585604051610ea59190611d63565b9081526040519081900360200190205f905560068054610ec790600190611e10565b81548110610ed757610ed7611e23565b905f5260205f200160068781548110610ef257610ef2611e23565b905f5260205f20019081610f069190611eb4565b506006805480610f1857610f18611f8c565b600190038181905f5260205f20015f610f319190611982565b90555050505050505b80610f4481611fa0565b915050610c21565b505b610f5760015f55565b565b60068181548110610665575f80fd5b610f7061173c565b6002546001600160a01b0316610f985760405162461bcd60e51b815260040161033090611cf2565b6001600160a01b038116610fee5760405162461bcd60e51b815260206004820152601f60248201527f74686520636f6e74726163742061646472657373206973206e6f7420736574006044820152606401610330565b600254604051630eacd1d560e11b81525f916001600160a01b031690631d59a3aa906110209086908690600401612068565b6020604051808303815f875af115801561103c573d5f803e3d5ffd5b505050506040513d601f19601f820116820180604052508101906110609190611d35565b90506005836040516110729190611d63565b9081526020016040518091039020545f146110cf5760405162461bcd60e51b815260206004820181905260248201527f74686520646570656e64656e637920616c7265616479207265717565737465646044820152606401610330565b806005846040516110e09190611d63565b90815260405190819003602001902055600680546001810182555f919091527ff652222313e28459528d920b65115c16c04f3efc82aaedc97be59f3f377c0d3f0161112b8482611fb5565b50816001600160a01b03167f7a561791a5e256aac8e189115ca0e37a81457d0fc3faceceb7d1c4907dd55a3a846040516111659190611b39565b60405180910390a25061117760015f55565b5050565b606061118561173c565b5f61118f85611764565b845160208601209091506111a48282866117f6565b925050506111b160015f55565b9392505050565b60606006805480602002602001604051908101604052809291908181526020015f905b82821015611283578382905f5260205f200180546111f890611d6e565b80601f016020809104026020016040519081016040528092919081815260200182805461122490611d6e565b801561126f5780601f106112465761010080835404028352916020019161126f565b820191905f5260205f20905b81548152906001019060200180831161125257829003601f168201915b5050505050815260200190600101906111db565b50505050905090565b600a54604051630bcfc71760e01b81526001600160a01b0390911660048201523090630bcfc717906024015f604051808303815f87803b1580156112ce575f80fd5b505af19250505080156112df575060015b61138a576112eb612091565b806308c379a00361138057506112ff6120aa565b8061130a5750611382565b604051637461658b60e11b815273__$acbfb1c35000d78352310b16a054a6b106$__9063e8c2cb169061134190849060040161212e565b602060405180830381865af415801561135c573d5f803e3d5ffd5b505050506040513d601f19601f8201168201806040525081019061117791906121b6565b505b3d5f803e3d5ffd5b604080516339df137f60e01b81525f60048201526024810191909152603660448201527f446570656e64656e6379207265717565737465722073686f756c64204e4f542060648201527531329039b2ba10313c903737b716b232b83637bcb2b960511b608482015273__$acbfb1c35000d78352310b16a054a6b106$__906339df137f9060a401602060405180830381865af415801561142c573d5f803e3d5ffd5b505050506040513d601f19601f8201168201806040525081019061044a91906121b6565b60606004805480602002602001604051908101604052809291908181526020015f905b82821015611283578382905f5260205f2001805461149090611d6e565b80601f01602080910402602001604051908101604052809291908181526020018280546114bc90611d6e565b80156115075780601f106114de57610100808354040283529160200191611507565b820191905f5260205f20905b8154815290600101906020018083116114ea57829003601f168201915b505050505081526020019060010190611473565b60048181548110610665575f80fd5b61153261173c565b6002546001600160a01b031661155a5760405162461bcd60e51b815260040161033090611cf2565b6001600160a01b0381166115b05760405162461bcd60e51b815260206004820152601f60248201527f74686520636f6e74726163742061646472657373206973206e6f7420736574006044820152606401610330565b6002546040516307ec404360e01b81525f916001600160a01b0316906307ec4043906115e29086908690600401612068565b6020604051808303815f875af11580156115fe573d5f803e3d5ffd5b505050506040513d601f19601f820116820180604052508101906116229190611d35565b90506007836040516116349190611d63565b9081526020016040518091039020545f146116a65760405162461bcd60e51b815260206004820152602c60248201527f74686520646570656e64656e637920616c72656164792072657175657374656460448201526b08199bdc881c995b5bdd985b60a21b6064820152608401610330565b806007846040516116b79190611d63565b90815260405190819003602001902055600880546001810182555f919091527ff3f7a9fe364faab93b216da50a3214154f22a0a2b415b23a84c8169e8b636ee3016117028482611fb5565b50816001600160a01b03167f4591e03d87e58e2eff46633bca8adfb3336f94ced41a61a4e33d3e061fd0e960846040516111659190611b39565b60025f540361175e57604051633ee5aeb560e01b815260040160405180910390fd5b60025f55565b5f806001600160a01b031660038360405161177f9190611d63565b908152604051908190036020019020546001600160a01b0316036106275760405162461bcd60e51b815260206004820152602860248201527f546865206b657920646f6573204e4f5420706f696e7420746f20616e7920646560448201526770656e64656e637960c01b6064820152608401610330565b60605f838360405160200161180c9291906121cf565b60408051601f1981840301815291905290506118316001600160a01b0386168261183a565b95945050505050565b606061184783835f611850565b90505b92915050565b60608147101561187c5760405163cf47918160e01b815247600482015260248101839052604401610330565b5f80856001600160a01b031684866040516118979190611d63565b5f6040518083038185875af1925050503d805f81146118d1576040519150601f19603f3d011682016040523d82523d5f602084013e6118d6565b606091505b50915091506118e68683836118f0565b9695505050505050565b606082611905576119008261194c565b6111b1565b815115801561191c57506001600160a01b0384163b155b1561194557604051639996b31560e01b81526001600160a01b0385166004820152602401610330565b50806111b1565b80511561195c5780518082602001fd5b60405163d6bda27560e01b815260040160405180910390fd5b610634806121eb83390190565b50805461198e90611d6e565b5f825580601f1061199d575050565b601f0160209004905f5260205f209081019061044a91905b808211156119c8575f81556001016119b5565b5090565b6001600160a01b038116811461044a575f80fd5b5f602082840312156119f0575f80fd5b81356111b1816119cc565b634e487b7160e01b5f52604160045260245ffd5b601f8201601f1916810167ffffffffffffffff81118282101715611a3557611a356119fb565b6040525050565b5f8067ffffffffffffffff841115611a5657611a566119fb565b50604051601f8401601f191660200190611a708282611a0f565b809250848152858585011115611a84575f80fd5b848460208301375f6020868301015250509392505050565b5f82601f830112611aab575f80fd5b61184783833560208501611a3c565b5f60208284031215611aca575f80fd5b813567ffffffffffffffff811115611ae0575f80fd5b611aec84828501611a9c565b949350505050565b5f60208284031215611b04575f80fd5b5035919050565b5f81518084528060208401602086015e5f602082860101526020601f19601f83011685010191505092915050565b602081525f6118476020830184611b0b565b5f8060408385031215611b5c575f80fd5b823567ffffffffffffffff811115611b72575f80fd5b611b7e85828601611a9c565b9250506020830135611b8f816119cc565b809150509250929050565b5f805f60608486031215611bac575f80fd5b833567ffffffffffffffff811115611bc2575f80fd5b611bce86828701611a9c565b935050602084013567ffffffffffffffff811115611bea575f80fd5b611bf686828701611a9c565b925050604084013567ffffffffffffffff811115611c12575f80fd5b8401601f81018613611c22575f80fd5b611c3186823560208401611a3c565b9150509250925092565b5f602082016020835280845180835260408501915060408160051b8601019250602086015f5b82811015611c9257603f19878603018452611c7d858351611b0b565b94506020938401939190910190600101611c61565b50929695505050505050565b602a81527f7468652073656e6465722077617320657870656374656420746f20626520746860208201526932903232b83637bcb2b960b11b604082015260600190565b602081525f61184a60208301611c9e565b60208082526023908201527f74686520646570656e64656e637920726571756573746572206973206e6f74206040820152621cd95d60ea1b606082015260800190565b5f60208284031215611d45575f80fd5b5051919050565b5f81518060208401855e5f93019283525090919050565b5f6118478284611d4c565b600181811c90821680611d8257607f821691505b602082108103611da057634e487b7160e01b5f52602260045260245ffd5b50919050565b80518015158114611db5575f80fd5b919050565b5f805f60608486031215611dcc575f80fd5b8351611dd7816119cc565b9250611de560208501611da6565b9150611df360408501611da6565b90509250925092565b634e487b7160e01b5f52601160045260245ffd5b8181038181111561184a5761184a611dfc565b634e487b7160e01b5f52603260045260245ffd5b5f8060408385031215611e48575f80fd5b611e5183611da6565b9150611e5f60208401611da6565b90509250929050565b601f821115611eaf57805f5260205f20601f840160051c81016020851015611e8d5750805b601f840160051c820191505b81811015611eac575f8155600101611e99565b50505b505050565b818103611ebf575050565b611ec98254611d6e565b67ffffffffffffffff811115611ee157611ee16119fb565b611ef581611eef8454611d6e565b84611e68565b5f601f821160018114611f29575f8315611f0f5750848201545b600184901b5f19600386901b1c198216175b855550611eac565b5f8581526020808220868352908220601f198616925b83811015611f5f5782860154825560019586019590910190602001611f3f565b5085831015611f7c57818501545f19600388901b60f8161c191681555b5050505050600190811b01905550565b634e487b7160e01b5f52603160045260245ffd5b5f81611fae57611fae611dfc565b505f190190565b815167ffffffffffffffff811115611fcf57611fcf6119fb565b611fdd81611eef8454611d6e565b6020601f82116001811461200d575f8315611f0f575081850151600184901b5f19600386901b1c19821617611f21565b5f84815260208120601f198516915b8281101561203c578785015182556020948501946001909201910161201c565b508482101561205957868401515f19600387901b60f8161c191681555b50505050600190811b01905550565b604081525f61207a6040830185611b0b565b905060018060a01b03831660208301529392505050565b5f60033d11156120a75760045f803e505f5160e01c5b90565b5f60443d10156120b75790565b6040513d600319016004823e80513d602482011167ffffffffffffffff821117156120e157505090565b808201805167ffffffffffffffff8111156120fd575050505090565b3d8401600319018282016020011115612117575050505090565b61212660208285010185611a0f565b509392505050565b606081525f6121406060830184611b0b565b828103602084015261215181611c9e565b838103604094850152603d81527f45787065637465642072656a656374696f6e20666f7220616464446570656e6460208201527f656e6379526571756573746572206279206e6f6e2d6465706c6f796572000000938101939093525050606001919050565b5f602082840312156121c6575f80fd5b61184782611da6565b6001600160e01b0319831681525f611aec6004830184611d4c56fe60806040525f6003555f6004555f600555348015601a575f80fd5b5061060c806100285f395ff3fe608060405234801561000f575f80fd5b5060043610610090575f3560e01c80632ad51b96116100635780632ad51b96146101635780633f301ae5146101ee5780634f6e1b271461026f578063a990586a146102d1578063b986f17914610351575f80fd5b806307ec40431461009457806316c1076f146100ba5780631aeb6c98146100cd5780631d59a3aa14610150575b5f80fd5b6100a76100a236600461045a565b6103c3565b6040519081526020015b60405180910390f35b6100a76100c836600461051e565b6103e2565b61014e6100db36600461054f565b604080516060810182526001600160a01b03948516815292151560208085019182529215158483019081525f9687526001909352942091518254945191511515600160a81b0260ff60a81b19921515600160a01b026001600160a81b031990961691909416179390931792909216179055565b005b6100a761015e36600461045a565b610400565b6101c761017136600461059b565b5f81815260026020908152604091829020825160608101845290546001600160a01b03811680835260ff600160a01b830481161515948401859052600160a81b9092049091161515919093018190529193909250565b604080516001600160a01b03909416845291151560208401521515908201526060016100b1565b61014e6101fc36600461054f565b604080516060810182526001600160a01b03948516815292151560208085019182529215158483019081525f9687526002909352942091518254945191511515600160a81b0260ff60a81b19921515600160a01b026001600160a81b031990961691909416179390931792909216179055565b6101c761027d36600461059b565b5f8181526020818152604091829020825160608101845290546001600160a01b03811680835260ff600160a01b830481161515948401859052600160a81b9092049091161515919093018190529193909250565b61014e6102df36600461054f565b604080516060810182526001600160a01b03948516815292151560208085019182529215158483019081525f96875292869052942091518254945191511515600160a81b0260ff60a81b19921515600160a01b026001600160a81b031990961691909416179390931792909216179055565b6103ac61035f36600461059b565b5f90815260016020908152604091829020825160608101845290546001600160a01b038116825260ff600160a01b820481161515938301849052600160a81b909104161515920182905291565b6040805192151583529015156020830152016100b1565b600480545f91826103d3836105b2565b90915550506004549392505050565b600580545f91826103f2836105b2565b909155505060055492915050565b600380545f9182610410836105b2565b90915550506003549392505050565b634e487b7160e01b5f52604160045260245ffd5b6001600160a01b0381168114610447575f80fd5b50565b803561045581610433565b919050565b5f806040838503121561046b575f80fd5b823567ffffffffffffffff811115610481575f80fd5b8301601f81018513610491575f80fd5b803567ffffffffffffffff8111156104ab576104ab61041f565b604051601f8201601f19908116603f0116810167ffffffffffffffff811182821017156104da576104da61041f565b6040528181528282016020018710156104f1575f80fd5b816020840160208301375f602083830101528094505050506105156020840161044a565b90509250929050565b5f6020828403121561052e575f80fd5b813561053981610433565b9392505050565b80358015158114610455575f80fd5b5f805f8060808587031215610562575f80fd5b84359350602085013561057481610433565b925061058260408601610540565b915061059060608601610540565b905092959194509250565b5f602082840312156105ab575f80fd5b5035919050565b5f600182016105cf57634e487b7160e01b5f52601160045260245ffd5b506001019056fea2646970667358221220d4d8853f991140cd1753cd3cbeef8a1edc9f09ef6d16a4e38dff598f9ad1205064736f6c634300081a0033a26469706673582212208081518510d56ac6965b3a1d1945ade87e97ddbdc2be36dc9996aa1cc595fed264736f6c634300081a0033",
			"opcodes": "PUSH1 0x80 PUSH1 0x40 MSTORE CALLVALUE DUP1 ISZERO PUSH1 0xE JUMPI PUSH0 DUP1 REVERT JUMPDEST POP PUSH1 0x1 PUSH0 DUP2 SWAP1 SSTORE DUP1 SLOAD PUSH1 0x1 PUSH1 0x1 PUSH1 0xA0 SHL SUB NOT AND CALLER OR SWAP1 SSTORE PUSH2 0x2854 DUP1 PUSH2 0x32 PUSH0 CODECOPY PUSH0 RETURN INVALID PUSH1 0x80 PUSH1 0x40 MSTORE CALLVALUE DUP1 ISZERO PUSH2 0xF JUMPI PUSH0 DUP1 REVERT JUMPDEST POP PUSH1 0x4 CALLDATASIZE LT PUSH2 0x127 JUMPI PUSH0 CALLDATALOAD PUSH1 0xE0 SHR DUP1 PUSH4 0x80719893 GT PUSH2 0xA9 JUMPI DUP1 PUSH4 0xD5F39488 GT PUSH2 0x6E JUMPI DUP1 PUSH4 0xD5F39488 EQ PUSH2 0x2B5 JUMPI DUP1 PUSH4 0xDE714375 EQ PUSH2 0x2C8 JUMPI DUP1 PUSH4 0xEC4C2E5D EQ PUSH2 0x2D0 JUMPI DUP1 PUSH4 0xEEBED3A7 EQ PUSH2 0x2D8 JUMPI DUP1 PUSH4 0xFBE332DC EQ PUSH2 0x2EB JUMPI PUSH0 DUP1 REVERT JUMPDEST DUP1 PUSH4 0x80719893 EQ PUSH2 0x25E JUMPI DUP1 PUSH4 0xA791EDF8 EQ PUSH2 0x271 JUMPI DUP1 PUSH4 0xA7FEE722 EQ PUSH2 0x284 JUMPI DUP1 PUSH4 0xBC5AEF90 EQ PUSH2 0x297 JUMPI DUP1 PUSH4 0xBE6552E6 EQ PUSH2 0x2A0 JUMPI PUSH0 DUP1 REVERT JUMPDEST DUP1 PUSH4 0x29D5DE01 GT PUSH2 0xEF JUMPI DUP1 PUSH4 0x29D5DE01 EQ PUSH2 0x1E7 JUMPI DUP1 PUSH4 0x2CF1366B EQ PUSH2 0x21B JUMPI DUP1 PUSH4 0x6331E7D4 EQ PUSH2 0x23B JUMPI DUP1 PUSH4 0x6E5ECDFF EQ PUSH2 0x243 JUMPI DUP1 PUSH4 0x7B022FA2 EQ PUSH2 0x24B JUMPI PUSH0 DUP1 REVERT JUMPDEST DUP1 PUSH4 0xBCFC717 EQ PUSH2 0x12B JUMPI DUP1 PUSH4 0x12C0C8C0 EQ PUSH2 0x140 JUMPI DUP1 PUSH4 0x16C1076F EQ PUSH2 0x17E JUMPI DUP1 PUSH4 0x1A83F4A3 EQ PUSH2 0x191 JUMPI DUP1 PUSH4 0x22418460 EQ PUSH2 0x1BC JUMPI JUMPDEST PUSH0 DUP1 REVERT JUMPDEST PUSH2 0x13E PUSH2 0x139 CALLDATASIZE PUSH1 0x4 PUSH2 0x19E0 JUMP JUMPDEST PUSH2 0x2FE JUMP JUMPDEST STOP JUMPDEST PUSH2 0x16B PUSH2 0x14E CALLDATASIZE PUSH1 0x4 PUSH2 0x1ABA JUMP JUMPDEST DUP1 MLOAD PUSH1 0x20 DUP2 DUP4 ADD DUP2 ADD DUP1 MLOAD PUSH1 0x7 DUP3 MSTORE SWAP3 DUP3 ADD SWAP2 SWAP1 SWAP4 ADD KECCAK256 SWAP2 MSTORE SLOAD DUP2 JUMP JUMPDEST PUSH1 0x40 MLOAD SWAP1 DUP2 MSTORE PUSH1 0x20 ADD JUMPDEST PUSH1 0x40 MLOAD DUP1 SWAP2 SUB SWAP1 RETURN JUMPDEST PUSH2 0x13E PUSH2 0x18C CALLDATASIZE PUSH1 0x4 PUSH2 0x19E0 JUMP JUMPDEST PUSH2 0x44D JUMP JUMPDEST PUSH2 0x16B PUSH2 0x19F CALLDATASIZE PUSH1 0x4 PUSH2 0x1ABA JUMP JUMPDEST DUP1 MLOAD PUSH1 0x20 DUP2 DUP4 ADD DUP2 ADD DUP1 MLOAD PUSH1 0x5 DUP3 MSTORE SWAP3 DUP3 ADD SWAP2 SWAP1 SWAP4 ADD KECCAK256 SWAP2 MSTORE SLOAD DUP2 JUMP JUMPDEST PUSH2 0x1CF PUSH2 0x1CA CALLDATASIZE PUSH1 0x4 PUSH2 0x1ABA JUMP JUMPDEST PUSH2 0x595 JUMP JUMPDEST PUSH1 0x40 MLOAD PUSH1 0x1 PUSH1 0x1 PUSH1 0xA0 SHL SUB SWAP1 SWAP2 AND DUP2 MSTORE PUSH1 0x20 ADD PUSH2 0x175 JUMP JUMPDEST PUSH2 0x1CF PUSH2 0x1F5 CALLDATASIZE PUSH1 0x4 PUSH2 0x1ABA JUMP JUMPDEST DUP1 MLOAD PUSH1 0x20 DUP2 DUP4 ADD DUP2 ADD DUP1 MLOAD PUSH1 0x3 DUP3 MSTORE SWAP3 DUP3 ADD SWAP2 SWAP1 SWAP4 ADD KECCAK256 SWAP2 MSTORE SLOAD PUSH1 0x1 PUSH1 0x1 PUSH1 0xA0 SHL SUB AND DUP2 JUMP JUMPDEST PUSH2 0x22E PUSH2 0x229 CALLDATASIZE PUSH1 0x4 PUSH2 0x1AF4 JUMP JUMPDEST PUSH2 0x656 JUMP JUMPDEST PUSH1 0x40 MLOAD PUSH2 0x175 SWAP2 SWAP1 PUSH2 0x1B39 JUMP JUMPDEST PUSH2 0x13E PUSH2 0x6FC JUMP JUMPDEST PUSH2 0x13E PUSH2 0x744 JUMP JUMPDEST PUSH2 0x22E PUSH2 0x259 CALLDATASIZE PUSH1 0x4 PUSH2 0x1AF4 JUMP JUMPDEST PUSH2 0xF59 JUMP JUMPDEST PUSH2 0x13E PUSH2 0x26C CALLDATASIZE PUSH1 0x4 PUSH2 0x1B4B JUMP JUMPDEST PUSH2 0xF68 JUMP JUMPDEST PUSH1 0x2 SLOAD PUSH2 0x1CF SWAP1 PUSH1 0x1 PUSH1 0x1 PUSH1 0xA0 SHL SUB AND DUP2 JUMP JUMPDEST PUSH2 0x22E PUSH2 0x292 CALLDATASIZE PUSH1 0x4 PUSH2 0x1B9A JUMP JUMPDEST PUSH2 0x117B JUMP JUMPDEST PUSH2 0x16B PUSH1 0x9 SLOAD DUP2 JUMP JUMPDEST PUSH2 0x2A8 PUSH2 0x11B8 JUMP JUMPDEST PUSH1 0x40 MLOAD PUSH2 0x175 SWAP2 SWAP1 PUSH2 0x1C3B JUMP JUMPDEST PUSH1 0x1 SLOAD PUSH2 0x1CF SWAP1 PUSH1 0x1 PUSH1 0x1 PUSH1 0xA0 SHL SUB AND DUP2 JUMP JUMPDEST PUSH2 0x13E PUSH2 0x128C JUMP JUMPDEST PUSH2 0x2A8 PUSH2 0x1450 JUMP JUMPDEST PUSH2 0x22E PUSH2 0x2E6 CALLDATASIZE PUSH1 0x4 PUSH2 0x1AF4 JUMP JUMPDEST PUSH2 0x151B JUMP JUMPDEST PUSH2 0x13E PUSH2 0x2F9 CALLDATASIZE PUSH1 0x4 PUSH2 0x1B4B JUMP JUMPDEST PUSH2 0x152A JUMP JUMPDEST PUSH2 0x306 PUSH2 0x173C JUMP JUMPDEST PUSH1 0x1 SLOAD PUSH1 0x1 PUSH1 0x1 PUSH1 0xA0 SHL SUB AND CALLER EQ PUSH2 0x339 JUMPI PUSH1 0x40 MLOAD PUSH3 0x461BCD PUSH1 0xE5 SHL DUP2 MSTORE PUSH1 0x4 ADD PUSH2 0x330 SWAP1 PUSH2 0x1CE1 JUMP JUMPDEST PUSH1 0x40 MLOAD DUP1 SWAP2 SUB SWAP1 REVERT JUMPDEST PUSH1 0x2 SLOAD PUSH1 0x1 PUSH1 0x1 PUSH1 0xA0 SHL SUB AND ISZERO PUSH2 0x3FB JUMPI PUSH1 0x40 MLOAD PUSH3 0x461BCD PUSH1 0xE5 SHL DUP2 MSTORE PUSH1 0x20 PUSH1 0x4 DUP3 ADD MSTORE PUSH1 0x74 PUSH1 0x24 DUP3 ADD MSTORE PUSH32 0x74686520646570656E64656E6379207265717565737465722068617320616C72 PUSH1 0x44 DUP3 ADD MSTORE PUSH32 0x65616479206265656E207365742C207573652072657175657374557067726164 PUSH1 0x64 DUP3 ADD MSTORE PUSH32 0x65446570656E64656E6379526571756573746572282920696E206F7264657220 PUSH1 0x84 DUP3 ADD MSTORE PUSH20 0x746F206368616E676520697420627920766F7465 PUSH1 0x60 SHL PUSH1 0xA4 DUP3 ADD MSTORE PUSH1 0xC4 ADD PUSH2 0x330 JUMP JUMPDEST PUSH1 0x2 DUP1 SLOAD PUSH1 0x1 PUSH1 0x1 PUSH1 0xA0 SHL SUB NOT AND PUSH1 0x1 PUSH1 0x1 PUSH1 0xA0 SHL SUB DUP4 AND SWAP1 DUP2 OR SWAP1 SWAP2 SSTORE PUSH1 0x40 MLOAD PUSH32 0xA16907E9030F7A27DD100153173E6B01401F940D851E6F7095937F2773E561B2 SWAP1 PUSH0 SWAP1 LOG2 PUSH2 0x44A PUSH1 0x1 PUSH0 SSTORE JUMP JUMPDEST POP JUMP JUMPDEST PUSH2 0x455 PUSH2 0x173C JUMP JUMPDEST PUSH1 0x9 SLOAD ISZERO PUSH2 0x4BB JUMPI PUSH1 0x40 MLOAD PUSH3 0x461BCD PUSH1 0xE5 SHL DUP2 MSTORE PUSH1 0x20 PUSH1 0x4 DUP3 ADD MSTORE PUSH1 0x2D PUSH1 0x24 DUP3 ADD MSTORE PUSH32 0x746865726520697320616C726561647920612070656E64696E67207570677261 PUSH1 0x44 DUP3 ADD MSTORE PUSH13 0x646520696E2070726F63657373 PUSH1 0x98 SHL PUSH1 0x64 DUP3 ADD MSTORE PUSH1 0x84 ADD PUSH2 0x330 JUMP JUMPDEST PUSH1 0x2 SLOAD PUSH1 0x1 PUSH1 0x1 PUSH1 0xA0 SHL SUB AND PUSH2 0x4E3 JUMPI PUSH1 0x40 MLOAD PUSH3 0x461BCD PUSH1 0xE5 SHL DUP2 MSTORE PUSH1 0x4 ADD PUSH2 0x330 SWAP1 PUSH2 0x1CF2 JUMP JUMPDEST PUSH1 0x2 SLOAD PUSH1 0x40 MLOAD PUSH4 0x16C1076F PUSH1 0xE0 SHL DUP2 MSTORE PUSH1 0x1 PUSH1 0x1 PUSH1 0xA0 SHL SUB DUP4 DUP2 AND PUSH1 0x4 DUP4 ADD MSTORE PUSH0 SWAP3 AND SWAP1 PUSH4 0x16C1076F SWAP1 PUSH1 0x24 ADD PUSH1 0x20 PUSH1 0x40 MLOAD DUP1 DUP4 SUB DUP2 PUSH0 DUP8 GAS CALL ISZERO DUP1 ISZERO PUSH2 0x52C JUMPI RETURNDATASIZE PUSH0 DUP1 RETURNDATACOPY RETURNDATASIZE PUSH0 REVERT JUMPDEST POP POP POP POP PUSH1 0x40 MLOAD RETURNDATASIZE PUSH1 0x1F NOT PUSH1 0x1F DUP3 ADD AND DUP3 ADD DUP1 PUSH1 0x40 MSTORE POP DUP2 ADD SWAP1 PUSH2 0x550 SWAP2 SWAP1 PUSH2 0x1D35 JUMP JUMPDEST PUSH1 0x9 DUP2 SWAP1 SSTORE PUSH1 0x40 MLOAD SWAP1 SWAP2 POP PUSH1 0x1 PUSH1 0x1 PUSH1 0xA0 SHL SUB DUP4 AND SWAP1 PUSH32 0x130BF33540470B3A07F23B1164785A20ACD90A150A4A00E976740C8F941C71DB SWAP1 PUSH0 SWAP1 LOG2 POP PUSH2 0x44A PUSH1 0x1 PUSH0 SSTORE JUMP JUMPDEST PUSH0 DUP1 PUSH1 0x1 PUSH1 0x1 PUSH1 0xA0 SHL SUB AND PUSH1 0x3 DUP4 PUSH1 0x40 MLOAD PUSH2 0x5B0 SWAP2 SWAP1 PUSH2 0x1D63 JUMP JUMPDEST SWAP1 DUP2 MSTORE PUSH1 0x40 MLOAD SWAP1 DUP2 SWAP1 SUB PUSH1 0x20 ADD SWAP1 KECCAK256 SLOAD PUSH1 0x1 PUSH1 0x1 PUSH1 0xA0 SHL SUB AND SUB PUSH2 0x627 JUMPI PUSH1 0x40 MLOAD PUSH3 0x461BCD PUSH1 0xE5 SHL DUP2 MSTORE PUSH1 0x20 PUSH1 0x4 DUP3 ADD MSTORE PUSH1 0x28 PUSH1 0x24 DUP3 ADD MSTORE PUSH32 0x746865206B657920646F6573204E4F5420706F696E7420746F20616E79206465 PUSH1 0x44 DUP3 ADD MSTORE PUSH8 0x70656E64656E6379 PUSH1 0xC0 SHL PUSH1 0x64 DUP3 ADD MSTORE PUSH1 0x84 ADD PUSH2 0x330 JUMP JUMPDEST PUSH1 0x3 DUP3 PUSH1 0x40 MLOAD PUSH2 0x637 SWAP2 SWAP1 PUSH2 0x1D63 JUMP JUMPDEST SWAP1 DUP2 MSTORE PUSH1 0x40 MLOAD SWAP1 DUP2 SWAP1 SUB PUSH1 0x20 ADD SWAP1 KECCAK256 SLOAD PUSH1 0x1 PUSH1 0x1 PUSH1 0xA0 SHL SUB AND SWAP3 SWAP2 POP POP JUMP JUMPDEST PUSH1 0x8 DUP2 DUP2 SLOAD DUP2 LT PUSH2 0x665 JUMPI PUSH0 DUP1 REVERT JUMPDEST SWAP1 PUSH0 MSTORE PUSH1 0x20 PUSH0 KECCAK256 ADD PUSH0 SWAP2 POP SWAP1 POP DUP1 SLOAD PUSH2 0x67D SWAP1 PUSH2 0x1D6E JUMP JUMPDEST DUP1 PUSH1 0x1F ADD PUSH1 0x20 DUP1 SWAP2 DIV MUL PUSH1 0x20 ADD PUSH1 0x40 MLOAD SWAP1 DUP2 ADD PUSH1 0x40 MSTORE DUP1 SWAP3 SWAP2 SWAP1 DUP2 DUP2 MSTORE PUSH1 0x20 ADD DUP3 DUP1 SLOAD PUSH2 0x6A9 SWAP1 PUSH2 0x1D6E JUMP JUMPDEST DUP1 ISZERO PUSH2 0x6F4 JUMPI DUP1 PUSH1 0x1F LT PUSH2 0x6CB JUMPI PUSH2 0x100 DUP1 DUP4 SLOAD DIV MUL DUP4 MSTORE SWAP2 PUSH1 0x20 ADD SWAP2 PUSH2 0x6F4 JUMP JUMPDEST DUP3 ADD SWAP2 SWAP1 PUSH0 MSTORE PUSH1 0x20 PUSH0 KECCAK256 SWAP1 JUMPDEST DUP2 SLOAD DUP2 MSTORE SWAP1 PUSH1 0x1 ADD SWAP1 PUSH1 0x20 ADD DUP1 DUP4 GT PUSH2 0x6D7 JUMPI DUP3 SWAP1 SUB PUSH1 0x1F AND DUP3 ADD SWAP2 JUMPDEST POP POP POP POP POP DUP2 JUMP JUMPDEST PUSH1 0x40 MLOAD PUSH2 0x708 SWAP1 PUSH2 0x1975 JUMP JUMPDEST PUSH1 0x40 MLOAD DUP1 SWAP2 SUB SWAP1 PUSH0 CREATE DUP1 ISZERO DUP1 ISZERO PUSH2 0x721 JUMPI RETURNDATASIZE PUSH0 DUP1 RETURNDATACOPY RETURNDATASIZE PUSH0 REVERT JUMPDEST POP PUSH1 0xA DUP1 SLOAD PUSH1 0x1 PUSH1 0x1 PUSH1 0xA0 SHL SUB NOT AND PUSH1 0x1 PUSH1 0x1 PUSH1 0xA0 SHL SUB SWAP3 SWAP1 SWAP3 AND SWAP2 SWAP1 SWAP2 OR SWAP1 SSTORE JUMP JUMPDEST PUSH2 0x74C PUSH2 0x173C JUMP JUMPDEST PUSH1 0x2 SLOAD PUSH1 0x1 PUSH1 0x1 PUSH1 0xA0 SHL SUB AND PUSH2 0x774 JUMPI PUSH1 0x40 MLOAD PUSH3 0x461BCD PUSH1 0xE5 SHL DUP2 MSTORE PUSH1 0x4 ADD PUSH2 0x330 SWAP1 PUSH2 0x1CF2 JUMP JUMPDEST PUSH1 0x9 SLOAD ISZERO PUSH2 0x88B JUMPI PUSH1 0x2 SLOAD PUSH1 0x9 SLOAD PUSH1 0x40 MLOAD PUSH4 0x156A8DCB PUSH1 0xE1 SHL DUP2 MSTORE PUSH1 0x4 DUP2 ADD SWAP2 SWAP1 SWAP2 MSTORE PUSH0 SWAP2 DUP3 SWAP2 DUP3 SWAP2 PUSH1 0x1 PUSH1 0x1 PUSH1 0xA0 SHL SUB AND SWAP1 PUSH4 0x2AD51B96 SWAP1 PUSH1 0x24 ADD PUSH1 0x60 PUSH1 0x40 MLOAD DUP1 DUP4 SUB DUP2 DUP7 GAS STATICCALL ISZERO DUP1 ISZERO PUSH2 0x7CB JUMPI RETURNDATASIZE PUSH0 DUP1 RETURNDATACOPY RETURNDATASIZE PUSH0 REVERT JUMPDEST POP POP POP POP PUSH1 0x40 MLOAD RETURNDATASIZE PUSH1 0x1F NOT PUSH1 0x1F DUP3 ADD AND DUP3 ADD DUP1 PUSH1 0x40 MSTORE POP DUP2 ADD SWAP1 PUSH2 0x7EF SWAP2 SWAP1 PUSH2 0x1DBA JUMP JUMPDEST SWAP3 POP SWAP3 POP SWAP3 POP DUP2 ISZERO PUSH2 0x800 JUMPI PUSH0 PUSH1 0x9 SSTORE JUMPDEST DUP2 DUP1 ISZERO PUSH2 0x80A JUMPI POP DUP1 JUMPDEST ISZERO PUSH2 0x843 JUMPI PUSH1 0x40 MLOAD PUSH1 0x1 PUSH1 0x1 PUSH1 0xA0 SHL SUB DUP5 AND SWAP1 PUSH32 0xE00A5B97742635032504F47F4C4AE13F19DE32BAB9DB317D70CB5820CCE02935 SWAP1 PUSH0 SWAP1 LOG2 JUMPDEST DUP2 DUP1 ISZERO PUSH2 0x84E JUMPI POP DUP1 ISZERO JUMPDEST ISZERO PUSH2 0x887 JUMPI PUSH1 0x40 MLOAD PUSH1 0x1 PUSH1 0x1 PUSH1 0xA0 SHL SUB DUP5 AND SWAP1 PUSH32 0x563BB4859F75835D1CD4855F062E12DB76CC064572739370C11B20510E382D5B SWAP1 PUSH0 SWAP1 LOG2 JUMPDEST POP POP POP JUMPDEST PUSH1 0x8 SLOAD ISZERO PUSH2 0xC15 JUMPI PUSH1 0x8 SLOAD JUMPDEST DUP1 ISZERO PUSH2 0xC13 JUMPI PUSH0 PUSH2 0x8A9 PUSH1 0x1 DUP4 PUSH2 0x1E10 JUMP JUMPDEST SWAP1 POP PUSH0 PUSH1 0x8 DUP3 DUP2 SLOAD DUP2 LT PUSH2 0x8BF JUMPI PUSH2 0x8BF PUSH2 0x1E23 JUMP JUMPDEST SWAP1 PUSH0 MSTORE PUSH1 0x20 PUSH0 KECCAK256 ADD DUP1 SLOAD PUSH2 0x8D2 SWAP1 PUSH2 0x1D6E JUMP JUMPDEST DUP1 PUSH1 0x1F ADD PUSH1 0x20 DUP1 SWAP2 DIV MUL PUSH1 0x20 ADD PUSH1 0x40 MLOAD SWAP1 DUP2 ADD PUSH1 0x40 MSTORE DUP1 SWAP3 SWAP2 SWAP1 DUP2 DUP2 MSTORE PUSH1 0x20 ADD DUP3 DUP1 SLOAD PUSH2 0x8FE SWAP1 PUSH2 0x1D6E JUMP JUMPDEST DUP1 ISZERO PUSH2 0x949 JUMPI DUP1 PUSH1 0x1F LT PUSH2 0x920 JUMPI PUSH2 0x100 DUP1 DUP4 SLOAD DIV MUL DUP4 MSTORE SWAP2 PUSH1 0x20 ADD SWAP2 PUSH2 0x949 JUMP JUMPDEST DUP3 ADD SWAP2 SWAP1 PUSH0 MSTORE PUSH1 0x20 PUSH0 KECCAK256 SWAP1 JUMPDEST DUP2 SLOAD DUP2 MSTORE SWAP1 PUSH1 0x1 ADD SWAP1 PUSH1 0x20 ADD DUP1 DUP4 GT PUSH2 0x92C JUMPI DUP3 SWAP1 SUB PUSH1 0x1F AND DUP3 ADD SWAP2 JUMPDEST POP POP POP POP POP SWAP1 POP PUSH0 PUSH1 0x7 DUP3 PUSH1 0x40 MLOAD PUSH2 0x961 SWAP2 SWAP1 PUSH2 0x1D63 JUMP JUMPDEST SWAP1 DUP2 MSTORE PUSH1 0x40 MLOAD SWAP1 DUP2 SWAP1 SUB PUSH1 0x20 ADD DUP2 KECCAK256 SLOAD PUSH1 0x2 SLOAD PUSH4 0xB986F179 PUSH1 0xE0 SHL DUP4 MSTORE SWAP1 SWAP3 POP PUSH0 SWAP2 DUP3 SWAP2 PUSH1 0x1 PUSH1 0x1 PUSH1 0xA0 SHL SUB AND SWAP1 PUSH4 0xB986F179 SWAP1 PUSH2 0x9A7 SWAP1 DUP7 SWAP1 PUSH1 0x4 ADD SWAP1 DUP2 MSTORE PUSH1 0x20 ADD SWAP1 JUMP JUMPDEST PUSH1 0x40 DUP1 MLOAD DUP1 DUP4 SUB DUP2 DUP7 GAS STATICCALL ISZERO DUP1 ISZERO PUSH2 0x9C1 JUMPI RETURNDATASIZE PUSH0 DUP1 RETURNDATACOPY RETURNDATASIZE PUSH0 REVERT JUMPDEST POP POP POP POP PUSH1 0x40 MLOAD RETURNDATASIZE PUSH1 0x1F NOT PUSH1 0x1F DUP3 ADD AND DUP3 ADD DUP1 PUSH1 0x40 MSTORE POP DUP2 ADD SWAP1 PUSH2 0x9E5 SWAP2 SWAP1 PUSH2 0x1E37 JUMP JUMPDEST SWAP2 POP SWAP2 POP DUP2 PUSH2 0x9F8 JUMPI POP POP POP POP POP PUSH2 0xC01 JUMP JUMPDEST PUSH0 PUSH1 0x3 DUP6 PUSH1 0x40 MLOAD PUSH2 0xA09 SWAP2 SWAP1 PUSH2 0x1D63 JUMP JUMPDEST SWAP1 DUP2 MSTORE PUSH1 0x40 MLOAD SWAP1 DUP2 SWAP1 SUB PUSH1 0x20 ADD SWAP1 KECCAK256 SLOAD PUSH1 0x1 PUSH1 0x1 PUSH1 0xA0 SHL SUB AND SWAP1 POP DUP2 ISZERO PUSH2 0xB15 JUMPI PUSH1 0x3 DUP6 PUSH1 0x40 MLOAD PUSH2 0xA3A SWAP2 SWAP1 PUSH2 0x1D63 JUMP JUMPDEST SWAP1 DUP2 MSTORE PUSH1 0x40 MLOAD SWAP1 DUP2 SWAP1 SUB PUSH1 0x20 ADD SWAP1 KECCAK256 DUP1 SLOAD PUSH1 0x1 PUSH1 0x1 PUSH1 0xA0 SHL SUB NOT AND SWAP1 SSTORE PUSH1 0x4 DUP1 SLOAD PUSH2 0xA67 SWAP1 PUSH1 0x1 SWAP1 PUSH2 0x1E10 JUMP JUMPDEST DUP2 SLOAD DUP2 LT PUSH2 0xA77 JUMPI PUSH2 0xA77 PUSH2 0x1E23 JUMP JUMPDEST SWAP1 PUSH0 MSTORE PUSH1 0x20 PUSH0 KECCAK256 ADD PUSH1 0x4 DUP8 DUP2 SLOAD DUP2 LT PUSH2 0xA92 JUMPI PUSH2 0xA92 PUSH2 0x1E23 JUMP JUMPDEST SWAP1 PUSH0 MSTORE PUSH1 0x20 PUSH0 KECCAK256 ADD SWAP1 DUP2 PUSH2 0xAA6 SWAP2 SWAP1 PUSH2 0x1EB4 JUMP JUMPDEST POP PUSH1 0x4 DUP1 SLOAD DUP1 PUSH2 0xAB8 JUMPI PUSH2 0xAB8 PUSH2 0x1F8C JUMP JUMPDEST PUSH1 0x1 SWAP1 SUB DUP2 DUP2 SWAP1 PUSH0 MSTORE PUSH1 0x20 PUSH0 KECCAK256 ADD PUSH0 PUSH2 0xAD1 SWAP2 SWAP1 PUSH2 0x1982 JUMP JUMPDEST SWAP1 SSTORE DUP1 PUSH1 0x1 PUSH1 0x1 PUSH1 0xA0 SHL SUB AND PUSH32 0x82AA94D0384F3FE5D924376CF325AFCFF8195F30F42758AE710193C432F24AC1 DUP7 PUSH1 0x40 MLOAD PUSH2 0xB0C SWAP2 SWAP1 PUSH2 0x1B39 JUMP JUMPDEST PUSH1 0x40 MLOAD DUP1 SWAP2 SUB SWAP1 LOG2 JUMPDEST DUP2 PUSH2 0xB5C JUMPI DUP1 PUSH1 0x1 PUSH1 0x1 PUSH1 0xA0 SHL SUB AND PUSH32 0x402A83BDAD8CEF946824820B268607AEC7303DE64E88533B0BD7EE57A577B954 DUP7 PUSH1 0x40 MLOAD PUSH2 0xB53 SWAP2 SWAP1 PUSH2 0x1B39 JUMP JUMPDEST PUSH1 0x40 MLOAD DUP1 SWAP2 SUB SWAP1 LOG2 JUMPDEST PUSH1 0x7 DUP6 PUSH1 0x40 MLOAD PUSH2 0xB6C SWAP2 SWAP1 PUSH2 0x1D63 JUMP JUMPDEST SWAP1 DUP2 MSTORE PUSH1 0x40 MLOAD SWAP1 DUP2 SWAP1 SUB PUSH1 0x20 ADD SWAP1 KECCAK256 PUSH0 SWAP1 SSTORE PUSH1 0x8 DUP1 SLOAD PUSH2 0xB8E SWAP1 PUSH1 0x1 SWAP1 PUSH2 0x1E10 JUMP JUMPDEST DUP2 SLOAD DUP2 LT PUSH2 0xB9E JUMPI PUSH2 0xB9E PUSH2 0x1E23 JUMP JUMPDEST SWAP1 PUSH0 MSTORE PUSH1 0x20 PUSH0 KECCAK256 ADD PUSH1 0x8 DUP8 DUP2 SLOAD DUP2 LT PUSH2 0xBB9 JUMPI PUSH2 0xBB9 PUSH2 0x1E23 JUMP JUMPDEST SWAP1 PUSH0 MSTORE PUSH1 0x20 PUSH0 KECCAK256 ADD SWAP1 DUP2 PUSH2 0xBCD SWAP2 SWAP1 PUSH2 0x1EB4 JUMP JUMPDEST POP PUSH1 0x8 DUP1 SLOAD DUP1 PUSH2 0xBDF JUMPI PUSH2 0xBDF PUSH2 0x1F8C JUMP JUMPDEST PUSH1 0x1 SWAP1 SUB DUP2 DUP2 SWAP1 PUSH0 MSTORE PUSH1 0x20 PUSH0 KECCAK256 ADD PUSH0 PUSH2 0xBF8 SWAP2 SWAP1 PUSH2 0x1982 JUMP JUMPDEST SWAP1 SSTORE POP POP POP POP POP POP JUMPDEST DUP1 PUSH2 0xC0B DUP2 PUSH2 0x1FA0 JUMP JUMPDEST SWAP2 POP POP PUSH2 0x897 JUMP JUMPDEST POP JUMPDEST PUSH1 0x6 SLOAD ISZERO PUSH2 0xF4E JUMPI PUSH1 0x6 SLOAD JUMPDEST DUP1 ISZERO PUSH2 0xF4C JUMPI PUSH0 PUSH2 0xC33 PUSH1 0x1 DUP4 PUSH2 0x1E10 JUMP JUMPDEST SWAP1 POP PUSH0 PUSH1 0x6 DUP3 DUP2 SLOAD DUP2 LT PUSH2 0xC49 JUMPI PUSH2 0xC49 PUSH2 0x1E23 JUMP JUMPDEST SWAP1 PUSH0 MSTORE PUSH1 0x20 PUSH0 KECCAK256 ADD DUP1 SLOAD PUSH2 0xC5C SWAP1 PUSH2 0x1D6E JUMP JUMPDEST DUP1 PUSH1 0x1F ADD PUSH1 0x20 DUP1 SWAP2 DIV MUL PUSH1 0x20 ADD PUSH1 0x40 MLOAD SWAP1 DUP2 ADD PUSH1 0x40 MSTORE DUP1 SWAP3 SWAP2 SWAP1 DUP2 DUP2 MSTORE PUSH1 0x20 ADD DUP3 DUP1 SLOAD PUSH2 0xC88 SWAP1 PUSH2 0x1D6E JUMP JUMPDEST DUP1 ISZERO PUSH2 0xCD3 JUMPI DUP1 PUSH1 0x1F LT PUSH2 0xCAA JUMPI PUSH2 0x100 DUP1 DUP4 SLOAD DIV MUL DUP4 MSTORE SWAP2 PUSH1 0x20 ADD SWAP2 PUSH2 0xCD3 JUMP JUMPDEST DUP3 ADD SWAP2 SWAP1 PUSH0 MSTORE PUSH1 0x20 PUSH0 KECCAK256 SWAP1 JUMPDEST DUP2 SLOAD DUP2 MSTORE SWAP1 PUSH1 0x1 ADD SWAP1 PUSH1 0x20 ADD DUP1 DUP4 GT PUSH2 0xCB6 JUMPI DUP3 SWAP1 SUB PUSH1 0x1F AND DUP3 ADD SWAP2 JUMPDEST POP POP POP POP POP SWAP1 POP PUSH0 PUSH1 0x5 DUP3 PUSH1 0x40 MLOAD PUSH2 0xCEB SWAP2 SWAP1 PUSH2 0x1D63 JUMP JUMPDEST SWAP1 DUP2 MSTORE PUSH1 0x40 MLOAD SWAP1 DUP2 SWAP1 SUB PUSH1 0x20 ADD DUP2 KECCAK256 SLOAD PUSH1 0x2 SLOAD PUSH4 0x4F6E1B27 PUSH1 0xE0 SHL DUP4 MSTORE SWAP1 SWAP3 POP PUSH0 SWAP2 DUP3 SWAP2 DUP3 SWAP2 PUSH1 0x1 PUSH1 0x1 PUSH1 0xA0 SHL SUB SWAP1 SWAP2 AND SWAP1 PUSH4 0x4F6E1B27 SWAP1 PUSH2 0xD35 SWAP1 DUP8 SWAP1 PUSH1 0x4 ADD SWAP1 DUP2 MSTORE PUSH1 0x20 ADD SWAP1 JUMP JUMPDEST PUSH1 0x60 PUSH1 0x40 MLOAD DUP1 DUP4 SUB DUP2 DUP7 GAS STATICCALL ISZERO DUP1 ISZERO PUSH2 0xD50 JUMPI RETURNDATASIZE PUSH0 DUP1 RETURNDATACOPY RETURNDATASIZE PUSH0 REVERT JUMPDEST POP POP POP POP PUSH1 0x40 MLOAD RETURNDATASIZE PUSH1 0x1F NOT PUSH1 0x1F DUP3 ADD AND DUP3 ADD DUP1 PUSH1 0x40 MSTORE POP DUP2 ADD SWAP1 PUSH2 0xD74 SWAP2 SWAP1 PUSH2 0x1DBA JUMP JUMPDEST SWAP3 POP SWAP3 POP SWAP3 POP DUP2 PUSH2 0xD8A JUMPI POP POP POP POP POP POP PUSH2 0xF3A JUMP JUMPDEST DUP1 ISZERO PUSH2 0xE4E JUMPI DUP3 PUSH1 0x3 DUP7 PUSH1 0x40 MLOAD PUSH2 0xDA1 SWAP2 SWAP1 PUSH2 0x1D63 JUMP JUMPDEST SWAP1 DUP2 MSTORE PUSH1 0x40 MLOAD SWAP1 DUP2 SWAP1 SUB PUSH1 0x20 ADD SWAP1 KECCAK256 DUP1 SLOAD PUSH1 0x1 PUSH1 0x1 PUSH1 0xA0 SHL SUB SWAP3 SWAP1 SWAP3 AND PUSH1 0x1 PUSH1 0x1 PUSH1 0xA0 SHL SUB NOT SWAP1 SWAP3 AND SWAP2 SWAP1 SWAP2 OR SWAP1 SSTORE PUSH1 0x4 DUP1 SLOAD PUSH1 0x1 DUP2 ADD DUP3 SSTORE PUSH0 SWAP2 SWAP1 SWAP2 MSTORE PUSH32 0x8A35ACFBC15FF81A39AE7D344FD709F28E8600B4AA8C65C6B64BFE7FE36BD19B ADD PUSH2 0xE0B DUP7 DUP3 PUSH2 0x1FB5 JUMP JUMPDEST POP DUP3 PUSH1 0x1 PUSH1 0x1 PUSH1 0xA0 SHL SUB AND PUSH32 0x8281F4653EA8E6BA47F1EBEEB1C7E17291003D7E8247666D4D1C46124920BFE6 DUP7 PUSH1 0x40 MLOAD PUSH2 0xE45 SWAP2 SWAP1 PUSH2 0x1B39 JUMP JUMPDEST PUSH1 0x40 MLOAD DUP1 SWAP2 SUB SWAP1 LOG2 JUMPDEST DUP1 PUSH2 0xE95 JUMPI DUP3 PUSH1 0x1 PUSH1 0x1 PUSH1 0xA0 SHL SUB AND PUSH32 0xC4425EBA3FDC6AAF1C08B8892B7B7B5FDCA047F984A94148A7C547E0FAAC2BD3 DUP7 PUSH1 0x40 MLOAD PUSH2 0xE8C SWAP2 SWAP1 PUSH2 0x1B39 JUMP JUMPDEST PUSH1 0x40 MLOAD DUP1 SWAP2 SUB SWAP1 LOG2 JUMPDEST PUSH1 0x5 DUP6 PUSH1 0x40 MLOAD PUSH2 0xEA5 SWAP2 SWAP1 PUSH2 0x1D63 JUMP JUMPDEST SWAP1 DUP2 MSTORE PUSH1 0x40 MLOAD SWAP1 DUP2 SWAP1 SUB PUSH1 0x20 ADD SWAP1 KECCAK256 PUSH0 SWAP1 SSTORE PUSH1 0x6 DUP1 SLOAD PUSH2 0xEC7 SWAP1 PUSH1 0x1 SWAP1 PUSH2 0x1E10 JUMP JUMPDEST DUP2 SLOAD DUP2 LT PUSH2 0xED7 JUMPI PUSH2 0xED7 PUSH2 0x1E23 JUMP JUMPDEST SWAP1 PUSH0 MSTORE PUSH1 0x20 PUSH0 KECCAK256 ADD PUSH1 0x6 DUP8 DUP2 SLOAD DUP2 LT PUSH2 0xEF2 JUMPI PUSH2 0xEF2 PUSH2 0x1E23 JUMP JUMPDEST SWAP1 PUSH0 MSTORE PUSH1 0x20 PUSH0 KECCAK256 ADD SWAP1 DUP2 PUSH2 0xF06 SWAP2 SWAP1 PUSH2 0x1EB4 JUMP JUMPDEST POP PUSH1 0x6 DUP1 SLOAD DUP1 PUSH2 0xF18 JUMPI PUSH2 0xF18 PUSH2 0x1F8C JUMP JUMPDEST PUSH1 0x1 SWAP1 SUB DUP2 DUP2 SWAP1 PUSH0 MSTORE PUSH1 0x20 PUSH0 KECCAK256 ADD PUSH0 PUSH2 0xF31 SWAP2 SWAP1 PUSH2 0x1982 JUMP JUMPDEST SWAP1 SSTORE POP POP POP POP POP POP JUMPDEST DUP1 PUSH2 0xF44 DUP2 PUSH2 0x1FA0 JUMP JUMPDEST SWAP2 POP POP PUSH2 0xC21 JUMP JUMPDEST POP JUMPDEST PUSH2 0xF57 PUSH1 0x1 PUSH0 SSTORE JUMP JUMPDEST JUMP JUMPDEST PUSH1 0x6 DUP2 DUP2 SLOAD DUP2 LT PUSH2 0x665 JUMPI PUSH0 DUP1 REVERT JUMPDEST PUSH2 0xF70 PUSH2 0x173C JUMP JUMPDEST PUSH1 0x2 SLOAD PUSH1 0x1 PUSH1 0x1 PUSH1 0xA0 SHL SUB AND PUSH2 0xF98 JUMPI PUSH1 0x40 MLOAD PUSH3 0x461BCD PUSH1 0xE5 SHL DUP2 MSTORE PUSH1 0x4 ADD PUSH2 0x330 SWAP1 PUSH2 0x1CF2 JUMP JUMPDEST PUSH1 0x1 PUSH1 0x1 PUSH1 0xA0 SHL SUB DUP2 AND PUSH2 0xFEE JUMPI PUSH1 0x40 MLOAD PUSH3 0x461BCD PUSH1 0xE5 SHL DUP2 MSTORE PUSH1 0x20 PUSH1 0x4 DUP3 ADD MSTORE PUSH1 0x1F PUSH1 0x24 DUP3 ADD MSTORE PUSH32 0x74686520636F6E74726163742061646472657373206973206E6F742073657400 PUSH1 0x44 DUP3 ADD MSTORE PUSH1 0x64 ADD PUSH2 0x330 JUMP JUMPDEST PUSH1 0x2 SLOAD PUSH1 0x40 MLOAD PUSH4 0xEACD1D5 PUSH1 0xE1 SHL DUP2 MSTORE PUSH0 SWAP2 PUSH1 0x1 PUSH1 0x1 PUSH1 0xA0 SHL SUB AND SWAP1 PUSH4 0x1D59A3AA SWAP1 PUSH2 0x1020 SWAP1 DUP7 SWAP1 DUP7 SWAP1 PUSH1 0x4 ADD PUSH2 0x2068 JUMP JUMPDEST PUSH1 0x20 PUSH1 0x40 MLOAD DUP1 DUP4 SUB DUP2 PUSH0 DUP8 GAS CALL ISZERO DUP1 ISZERO PUSH2 0x103C JUMPI RETURNDATASIZE PUSH0 DUP1 RETURNDATACOPY RETURNDATASIZE PUSH0 REVERT JUMPDEST POP POP POP POP PUSH1 0x40 MLOAD RETURNDATASIZE PUSH1 0x1F NOT PUSH1 0x1F DUP3 ADD AND DUP3 ADD DUP1 PUSH1 0x40 MSTORE POP DUP2 ADD SWAP1 PUSH2 0x1060 SWAP2 SWAP1 PUSH2 0x1D35 JUMP JUMPDEST SWAP1 POP PUSH1 0x5 DUP4 PUSH1 0x40 MLOAD PUSH2 0x1072 SWAP2 SWAP1 PUSH2 0x1D63 JUMP JUMPDEST SWAP1 DUP2 MSTORE PUSH1 0x20 ADD PUSH1 0x40 MLOAD DUP1 SWAP2 SUB SWAP1 KECCAK256 SLOAD PUSH0 EQ PUSH2 0x10CF JUMPI PUSH1 0x40 MLOAD PUSH3 0x461BCD PUSH1 0xE5 SHL DUP2 MSTORE PUSH1 0x20 PUSH1 0x4 DUP3 ADD DUP2 SWAP1 MSTORE PUSH1 0x24 DUP3 ADD MSTORE PUSH32 0x74686520646570656E64656E637920616C726561647920726571756573746564 PUSH1 0x44 DUP3 ADD MSTORE PUSH1 0x64 ADD PUSH2 0x330 JUMP JUMPDEST DUP1 PUSH1 0x5 DUP5 PUSH1 0x40 MLOAD PUSH2 0x10E0 SWAP2 SWAP1 PUSH2 0x1D63 JUMP JUMPDEST SWAP1 DUP2 MSTORE PUSH1 0x40 MLOAD SWAP1 DUP2 SWAP1 SUB PUSH1 0x20 ADD SWAP1 KECCAK256 SSTORE PUSH1 0x6 DUP1 SLOAD PUSH1 0x1 DUP2 ADD DUP3 SSTORE PUSH0 SWAP2 SWAP1 SWAP2 MSTORE PUSH32 0xF652222313E28459528D920B65115C16C04F3EFC82AAEDC97BE59F3F377C0D3F ADD PUSH2 0x112B DUP5 DUP3 PUSH2 0x1FB5 JUMP JUMPDEST POP DUP2 PUSH1 0x1 PUSH1 0x1 PUSH1 0xA0 SHL SUB AND PUSH32 0x7A561791A5E256AAC8E189115CA0E37A81457D0FC3FACECEB7D1C4907DD55A3A DUP5 PUSH1 0x40 MLOAD PUSH2 0x1165 SWAP2 SWAP1 PUSH2 0x1B39 JUMP JUMPDEST PUSH1 0x40 MLOAD DUP1 SWAP2 SUB SWAP1 LOG2 POP PUSH2 0x1177 PUSH1 0x1 PUSH0 SSTORE JUMP JUMPDEST POP POP JUMP JUMPDEST PUSH1 0x60 PUSH2 0x1185 PUSH2 0x173C JUMP JUMPDEST PUSH0 PUSH2 0x118F DUP6 PUSH2 0x1764 JUMP JUMPDEST DUP5 MLOAD PUSH1 0x20 DUP7 ADD KECCAK256 SWAP1 SWAP2 POP PUSH2 0x11A4 DUP3 DUP3 DUP7 PUSH2 0x17F6 JUMP JUMPDEST SWAP3 POP POP POP PUSH2 0x11B1 PUSH1 0x1 PUSH0 SSTORE JUMP JUMPDEST SWAP4 SWAP3 POP POP POP JUMP JUMPDEST PUSH1 0x60 PUSH1 0x6 DUP1 SLOAD DUP1 PUSH1 0x20 MUL PUSH1 0x20 ADD PUSH1 0x40 MLOAD SWAP1 DUP2 ADD PUSH1 0x40 MSTORE DUP1 SWAP3 SWAP2 SWAP1 DUP2 DUP2 MSTORE PUSH1 0x20 ADD PUSH0 SWAP1 JUMPDEST DUP3 DUP3 LT ISZERO PUSH2 0x1283 JUMPI DUP4 DUP3 SWAP1 PUSH0 MSTORE PUSH1 0x20 PUSH0 KECCAK256 ADD DUP1 SLOAD PUSH2 0x11F8 SWAP1 PUSH2 0x1D6E JUMP JUMPDEST DUP1 PUSH1 0x1F ADD PUSH1 0x20 DUP1 SWAP2 DIV MUL PUSH1 0x20 ADD PUSH1 0x40 MLOAD SWAP1 DUP2 ADD PUSH1 0x40 MSTORE DUP1 SWAP3 SWAP2 SWAP1 DUP2 DUP2 MSTORE PUSH1 0x20 ADD DUP3 DUP1 SLOAD PUSH2 0x1224 SWAP1 PUSH2 0x1D6E JUMP JUMPDEST DUP1 ISZERO PUSH2 0x126F JUMPI DUP1 PUSH1 0x1F LT PUSH2 0x1246 JUMPI PUSH2 0x100 DUP1 DUP4 SLOAD DIV MUL DUP4 MSTORE SWAP2 PUSH1 0x20 ADD SWAP2 PUSH2 0x126F JUMP JUMPDEST DUP3 ADD SWAP2 SWAP1 PUSH0 MSTORE PUSH1 0x20 PUSH0 KECCAK256 SWAP1 JUMPDEST DUP2 SLOAD DUP2 MSTORE SWAP1 PUSH1 0x1 ADD SWAP1 PUSH1 0x20 ADD DUP1 DUP4 GT PUSH2 0x1252 JUMPI DUP3 SWAP1 SUB PUSH1 0x1F AND DUP3 ADD SWAP2 JUMPDEST POP POP POP POP POP DUP2 MSTORE PUSH1 0x20 ADD SWAP1 PUSH1 0x1 ADD SWAP1 PUSH2 0x11DB JUMP JUMPDEST POP POP POP POP SWAP1 POP SWAP1 JUMP JUMPDEST PUSH1 0xA SLOAD PUSH1 0x40 MLOAD PUSH4 0xBCFC717 PUSH1 0xE0 SHL DUP2 MSTORE PUSH1 0x1 PUSH1 0x1 PUSH1 0xA0 SHL SUB SWAP1 SWAP2 AND PUSH1 0x4 DUP3 ADD MSTORE ADDRESS SWAP1 PUSH4 0xBCFC717 SWAP1 PUSH1 0x24 ADD PUSH0 PUSH1 0x40 MLOAD DUP1 DUP4 SUB DUP2 PUSH0 DUP8 DUP1 EXTCODESIZE ISZERO DUP1 ISZERO PUSH2 0x12CE JUMPI PUSH0 DUP1 REVERT JUMPDEST POP GAS CALL SWAP3 POP POP POP DUP1 ISZERO PUSH2 0x12DF JUMPI POP PUSH1 0x1 JUMPDEST PUSH2 0x138A JUMPI PUSH2 0x12EB PUSH2 0x2091 JUMP JUMPDEST DUP1 PUSH4 0x8C379A0 SUB PUSH2 0x1380 JUMPI POP PUSH2 0x12FF PUSH2 0x20AA JUMP JUMPDEST DUP1 PUSH2 0x130A JUMPI POP PUSH2 0x1382 JUMP JUMPDEST PUSH1 0x40 MLOAD PUSH4 0x7461658B PUSH1 0xE1 SHL DUP2 MSTORE PUSH20 0x0 SWAP1 PUSH4 0xE8C2CB16 SWAP1 PUSH2 0x1341 SWAP1 DUP5 SWAP1 PUSH1 0x4 ADD PUSH2 0x212E JUMP JUMPDEST PUSH1 0x20 PUSH1 0x40 MLOAD DUP1 DUP4 SUB DUP2 DUP7 GAS DELEGATECALL ISZERO DUP1 ISZERO PUSH2 0x135C JUMPI RETURNDATASIZE PUSH0 DUP1 RETURNDATACOPY RETURNDATASIZE PUSH0 REVERT JUMPDEST POP POP POP POP PUSH1 0x40 MLOAD RETURNDATASIZE PUSH1 0x1F NOT PUSH1 0x1F DUP3 ADD AND DUP3 ADD DUP1 PUSH1 0x40 MSTORE POP DUP2 ADD SWAP1 PUSH2 0x1177 SWAP2 SWAP1 PUSH2 0x21B6 JUMP JUMPDEST POP JUMPDEST RETURNDATASIZE PUSH0 DUP1 RETURNDATACOPY RETURNDATASIZE PUSH0 REVERT JUMPDEST PUSH1 0x40 DUP1 MLOAD PUSH4 0x39DF137F PUSH1 0xE0 SHL DUP2 MSTORE PUSH0 PUSH1 0x4 DUP3 ADD MSTORE PUSH1 0x24 DUP2 ADD SWAP2 SWAP1 SWAP2 MSTORE PUSH1 0x36 PUSH1 0x44 DUP3 ADD MSTORE PUSH32 0x446570656E64656E6379207265717565737465722073686F756C64204E4F5420 PUSH1 0x64 DUP3 ADD MSTORE PUSH22 0x31329039B2BA10313C903737B716B232B83637BCB2B9 PUSH1 0x51 SHL PUSH1 0x84 DUP3 ADD MSTORE PUSH20 0x0 SWAP1 PUSH4 0x39DF137F SWAP1 PUSH1 0xA4 ADD PUSH1 0x20 PUSH1 0x40 MLOAD DUP1 DUP4 SUB DUP2 DUP7 GAS DELEGATECALL ISZERO DUP1 ISZERO PUSH2 0x142C JUMPI RETURNDATASIZE PUSH0 DUP1 RETURNDATACOPY RETURNDATASIZE PUSH0 REVERT JUMPDEST POP POP POP POP PUSH1 0x40 MLOAD RETURNDATASIZE PUSH1 0x1F NOT PUSH1 0x1F DUP3 ADD AND DUP3 ADD DUP1 PUSH1 0x40 MSTORE POP DUP2 ADD SWAP1 PUSH2 0x44A SWAP2 SWAP1 PUSH2 0x21B6 JUMP JUMPDEST PUSH1 0x60 PUSH1 0x4 DUP1 SLOAD DUP1 PUSH1 0x20 MUL PUSH1 0x20 ADD PUSH1 0x40 MLOAD SWAP1 DUP2 ADD PUSH1 0x40 MSTORE DUP1 SWAP3 SWAP2 SWAP1 DUP2 DUP2 MSTORE PUSH1 0x20 ADD PUSH0 SWAP1 JUMPDEST DUP3 DUP3 LT ISZERO PUSH2 0x1283 JUMPI DUP4 DUP3 SWAP1 PUSH0 MSTORE PUSH1 0x20 PUSH0 KECCAK256 ADD DUP1 SLOAD PUSH2 0x1490 SWAP1 PUSH2 0x1D6E JUMP JUMPDEST DUP1 PUSH1 0x1F ADD PUSH1 0x20 DUP1 SWAP2 DIV MUL PUSH1 0x20 ADD PUSH1 0x40 MLOAD SWAP1 DUP2 ADD PUSH1 0x40 MSTORE DUP1 SWAP3 SWAP2 SWAP1 DUP2 DUP2 MSTORE PUSH1 0x20 ADD DUP3 DUP1 SLOAD PUSH2 0x14BC SWAP1 PUSH2 0x1D6E JUMP JUMPDEST DUP1 ISZERO PUSH2 0x1507 JUMPI DUP1 PUSH1 0x1F LT PUSH2 0x14DE JUMPI PUSH2 0x100 DUP1 DUP4 SLOAD DIV MUL DUP4 MSTORE SWAP2 PUSH1 0x20 ADD SWAP2 PUSH2 0x1507 JUMP JUMPDEST DUP3 ADD SWAP2 SWAP1 PUSH0 MSTORE PUSH1 0x20 PUSH0 KECCAK256 SWAP1 JUMPDEST DUP2 SLOAD DUP2 MSTORE SWAP1 PUSH1 0x1 ADD SWAP1 PUSH1 0x20 ADD DUP1 DUP4 GT PUSH2 0x14EA JUMPI DUP3 SWAP1 SUB PUSH1 0x1F AND DUP3 ADD SWAP2 JUMPDEST POP POP POP POP POP DUP2 MSTORE PUSH1 0x20 ADD SWAP1 PUSH1 0x1 ADD SWAP1 PUSH2 0x1473 JUMP JUMPDEST PUSH1 0x4 DUP2 DUP2 SLOAD DUP2 LT PUSH2 0x665 JUMPI PUSH0 DUP1 REVERT JUMPDEST PUSH2 0x1532 PUSH2 0x173C JUMP JUMPDEST PUSH1 0x2 SLOAD PUSH1 0x1 PUSH1 0x1 PUSH1 0xA0 SHL SUB AND PUSH2 0x155A JUMPI PUSH1 0x40 MLOAD PUSH3 0x461BCD PUSH1 0xE5 SHL DUP2 MSTORE PUSH1 0x4 ADD PUSH2 0x330 SWAP1 PUSH2 0x1CF2 JUMP JUMPDEST PUSH1 0x1 PUSH1 0x1 PUSH1 0xA0 SHL SUB DUP2 AND PUSH2 0x15B0 JUMPI PUSH1 0x40 MLOAD PUSH3 0x461BCD PUSH1 0xE5 SHL DUP2 MSTORE PUSH1 0x20 PUSH1 0x4 DUP3 ADD MSTORE PUSH1 0x1F PUSH1 0x24 DUP3 ADD MSTORE PUSH32 0x74686520636F6E74726163742061646472657373206973206E6F742073657400 PUSH1 0x44 DUP3 ADD MSTORE PUSH1 0x64 ADD PUSH2 0x330 JUMP JUMPDEST PUSH1 0x2 SLOAD PUSH1 0x40 MLOAD PUSH4 0x7EC4043 PUSH1 0xE0 SHL DUP2 MSTORE PUSH0 SWAP2 PUSH1 0x1 PUSH1 0x1 PUSH1 0xA0 SHL SUB AND SWAP1 PUSH4 0x7EC4043 SWAP1 PUSH2 0x15E2 SWAP1 DUP7 SWAP1 DUP7 SWAP1 PUSH1 0x4 ADD PUSH2 0x2068 JUMP JUMPDEST PUSH1 0x20 PUSH1 0x40 MLOAD DUP1 DUP4 SUB DUP2 PUSH0 DUP8 GAS CALL ISZERO DUP1 ISZERO PUSH2 0x15FE JUMPI RETURNDATASIZE PUSH0 DUP1 RETURNDATACOPY RETURNDATASIZE PUSH0 REVERT JUMPDEST POP POP POP POP PUSH1 0x40 MLOAD RETURNDATASIZE PUSH1 0x1F NOT PUSH1 0x1F DUP3 ADD AND DUP3 ADD DUP1 PUSH1 0x40 MSTORE POP DUP2 ADD SWAP1 PUSH2 0x1622 SWAP2 SWAP1 PUSH2 0x1D35 JUMP JUMPDEST SWAP1 POP PUSH1 0x7 DUP4 PUSH1 0x40 MLOAD PUSH2 0x1634 SWAP2 SWAP1 PUSH2 0x1D63 JUMP JUMPDEST SWAP1 DUP2 MSTORE PUSH1 0x20 ADD PUSH1 0x40 MLOAD DUP1 SWAP2 SUB SWAP1 KECCAK256 SLOAD PUSH0 EQ PUSH2 0x16A6 JUMPI PUSH1 0x40 MLOAD PUSH3 0x461BCD PUSH1 0xE5 SHL DUP2 MSTORE PUSH1 0x20 PUSH1 0x4 DUP3 ADD MSTORE PUSH1 0x2C PUSH1 0x24 DUP3 ADD MSTORE PUSH32 0x74686520646570656E64656E637920616C726561647920726571756573746564 PUSH1 0x44 DUP3 ADD MSTORE PUSH12 0x8199BDC881C995B5BDD985B PUSH1 0xA2 SHL PUSH1 0x64 DUP3 ADD MSTORE PUSH1 0x84 ADD PUSH2 0x330 JUMP JUMPDEST DUP1 PUSH1 0x7 DUP5 PUSH1 0x40 MLOAD PUSH2 0x16B7 SWAP2 SWAP1 PUSH2 0x1D63 JUMP JUMPDEST SWAP1 DUP2 MSTORE PUSH1 0x40 MLOAD SWAP1 DUP2 SWAP1 SUB PUSH1 0x20 ADD SWAP1 KECCAK256 SSTORE PUSH1 0x8 DUP1 SLOAD PUSH1 0x1 DUP2 ADD DUP3 SSTORE PUSH0 SWAP2 SWAP1 SWAP2 MSTORE PUSH32 0xF3F7A9FE364FAAB93B216DA50A3214154F22A0A2B415B23A84C8169E8B636EE3 ADD PUSH2 0x1702 DUP5 DUP3 PUSH2 0x1FB5 JUMP JUMPDEST POP DUP2 PUSH1 0x1 PUSH1 0x1 PUSH1 0xA0 SHL SUB AND PUSH32 0x4591E03D87E58E2EFF46633BCA8ADFB3336F94CED41A61A4E33D3E061FD0E960 DUP5 PUSH1 0x40 MLOAD PUSH2 0x1165 SWAP2 SWAP1 PUSH2 0x1B39 JUMP JUMPDEST PUSH1 0x2 PUSH0 SLOAD SUB PUSH2 0x175E JUMPI PUSH1 0x40 MLOAD PUSH4 0x3EE5AEB5 PUSH1 0xE0 SHL DUP2 MSTORE PUSH1 0x4 ADD PUSH1 0x40 MLOAD DUP1 SWAP2 SUB SWAP1 REVERT JUMPDEST PUSH1 0x2 PUSH0 SSTORE JUMP JUMPDEST PUSH0 DUP1 PUSH1 0x1 PUSH1 0x1 PUSH1 0xA0 SHL SUB AND PUSH1 0x3 DUP4 PUSH1 0x40 MLOAD PUSH2 0x177F SWAP2 SWAP1 PUSH2 0x1D63 JUMP JUMPDEST SWAP1 DUP2 MSTORE PUSH1 0x40 MLOAD SWAP1 DUP2 SWAP1 SUB PUSH1 0x20 ADD SWAP1 KECCAK256 SLOAD PUSH1 0x1 PUSH1 0x1 PUSH1 0xA0 SHL SUB AND SUB PUSH2 0x627 JUMPI PUSH1 0x40 MLOAD PUSH3 0x461BCD PUSH1 0xE5 SHL DUP2 MSTORE PUSH1 0x20 PUSH1 0x4 DUP3 ADD MSTORE PUSH1 0x28 PUSH1 0x24 DUP3 ADD MSTORE PUSH32 0x546865206B657920646F6573204E4F5420706F696E7420746F20616E79206465 PUSH1 0x44 DUP3 ADD MSTORE PUSH8 0x70656E64656E6379 PUSH1 0xC0 SHL PUSH1 0x64 DUP3 ADD MSTORE PUSH1 0x84 ADD PUSH2 0x330 JUMP JUMPDEST PUSH1 0x60 PUSH0 DUP4 DUP4 PUSH1 0x40 MLOAD PUSH1 0x20 ADD PUSH2 0x180C SWAP3 SWAP2 SWAP1 PUSH2 0x21CF JUMP JUMPDEST PUSH1 0x40 DUP1 MLOAD PUSH1 0x1F NOT DUP2 DUP5 SUB ADD DUP2 MSTORE SWAP2 SWAP1 MSTORE SWAP1 POP PUSH2 0x1831 PUSH1 0x1 PUSH1 0x1 PUSH1 0xA0 SHL SUB DUP7 AND DUP3 PUSH2 0x183A JUMP JUMPDEST SWAP6 SWAP5 POP POP POP POP POP JUMP JUMPDEST PUSH1 0x60 PUSH2 0x1847 DUP4 DUP4 PUSH0 PUSH2 0x1850 JUMP JUMPDEST SWAP1 POP JUMPDEST SWAP3 SWAP2 POP POP JUMP JUMPDEST PUSH1 0x60 DUP2 SELFBALANCE LT ISZERO PUSH2 0x187C JUMPI PUSH1 0x40 MLOAD PUSH4 0xCF479181 PUSH1 0xE0 SHL DUP2 MSTORE SELFBALANCE PUSH1 0x4 DUP3 ADD MSTORE PUSH1 0x24 DUP2 ADD DUP4 SWAP1 MSTORE PUSH1 0x44 ADD PUSH2 0x330 JUMP JUMPDEST PUSH0 DUP1 DUP6 PUSH1 0x1 PUSH1 0x1 PUSH1 0xA0 SHL SUB AND DUP5 DUP7 PUSH1 0x40 MLOAD PUSH2 0x1897 SWAP2 SWAP1 PUSH2 0x1D63 JUMP JUMPDEST PUSH0 PUSH1 0x40 MLOAD DUP1 DUP4 SUB DUP2 DUP6 DUP8 GAS CALL SWAP3 POP POP POP RETURNDATASIZE DUP1 PUSH0 DUP2 EQ PUSH2 0x18D1 JUMPI PUSH1 0x40 MLOAD SWAP2 POP PUSH1 0x1F NOT PUSH1 0x3F RETURNDATASIZE ADD AND DUP3 ADD PUSH1 0x40 MSTORE RETURNDATASIZE DUP3 MSTORE RETURNDATASIZE PUSH0 PUSH1 0x20 DUP5 ADD RETURNDATACOPY PUSH2 0x18D6 JUMP JUMPDEST PUSH1 0x60 SWAP2 POP JUMPDEST POP SWAP2 POP SWAP2 POP PUSH2 0x18E6 DUP7 DUP4 DUP4 PUSH2 0x18F0 JUMP JUMPDEST SWAP7 SWAP6 POP POP POP POP POP POP JUMP JUMPDEST PUSH1 0x60 DUP3 PUSH2 0x1905 JUMPI PUSH2 0x1900 DUP3 PUSH2 0x194C JUMP JUMPDEST PUSH2 0x11B1 JUMP JUMPDEST DUP2 MLOAD ISZERO DUP1 ISZERO PUSH2 0x191C JUMPI POP PUSH1 0x1 PUSH1 0x1 PUSH1 0xA0 SHL SUB DUP5 AND EXTCODESIZE ISZERO JUMPDEST ISZERO PUSH2 0x1945 JUMPI PUSH1 0x40 MLOAD PUSH4 0x9996B315 PUSH1 0xE0 SHL DUP2 MSTORE PUSH1 0x1 PUSH1 0x1 PUSH1 0xA0 SHL SUB DUP6 AND PUSH1 0x4 DUP3 ADD MSTORE PUSH1 0x24 ADD PUSH2 0x330 JUMP JUMPDEST POP DUP1 PUSH2 0x11B1 JUMP JUMPDEST DUP1 MLOAD ISZERO PUSH2 0x195C JUMPI DUP1 MLOAD DUP1 DUP3 PUSH1 0x20 ADD REVERT JUMPDEST PUSH1 0x40 MLOAD PUSH4 0xD6BDA275 PUSH1 0xE0 SHL DUP2 MSTORE PUSH1 0x4 ADD PUSH1 0x40 MLOAD DUP1 SWAP2 SUB SWAP1 REVERT JUMPDEST PUSH2 0x634 DUP1 PUSH2 0x21EB DUP4 CODECOPY ADD SWAP1 JUMP JUMPDEST POP DUP1 SLOAD PUSH2 0x198E SWAP1 PUSH2 0x1D6E JUMP JUMPDEST PUSH0 DUP3 SSTORE DUP1 PUSH1 0x1F LT PUSH2 0x199D JUMPI POP POP JUMP JUMPDEST PUSH1 0x1F ADD PUSH1 0x20 SWAP1 DIV SWAP1 PUSH0 MSTORE PUSH1 0x20 PUSH0 KECCAK256 SWAP1 DUP2 ADD SWAP1 PUSH2 0x44A SWAP2 SWAP1 JUMPDEST DUP1 DUP3 GT ISZERO PUSH2 0x19C8 JUMPI PUSH0 DUP2 SSTORE PUSH1 0x1 ADD PUSH2 0x19B5 JUMP JUMPDEST POP SWAP1 JUMP JUMPDEST PUSH1 0x1 PUSH1 0x1 PUSH1 0xA0 SHL SUB DUP2 AND DUP2 EQ PUSH2 0x44A JUMPI PUSH0 DUP1 REVERT JUMPDEST PUSH0 PUSH1 0x20 DUP3 DUP5 SUB SLT ISZERO PUSH2 0x19F0 JUMPI PUSH0 DUP1 REVERT JUMPDEST DUP2 CALLDATALOAD PUSH2 0x11B1 DUP2 PUSH2 0x19CC JUMP JUMPDEST PUSH4 0x4E487B71 PUSH1 0xE0 SHL PUSH0 MSTORE PUSH1 0x41 PUSH1 0x4 MSTORE PUSH1 0x24 PUSH0 REVERT JUMPDEST PUSH1 0x1F DUP3 ADD PUSH1 0x1F NOT AND DUP2 ADD PUSH8 0xFFFFFFFFFFFFFFFF DUP2 GT DUP3 DUP3 LT OR ISZERO PUSH2 0x1A35 JUMPI PUSH2 0x1A35 PUSH2 0x19FB JUMP JUMPDEST PUSH1 0x40 MSTORE POP POP JUMP JUMPDEST PUSH0 DUP1 PUSH8 0xFFFFFFFFFFFFFFFF DUP5 GT ISZERO PUSH2 0x1A56 JUMPI PUSH2 0x1A56 PUSH2 0x19FB JUMP JUMPDEST POP PUSH1 0x40 MLOAD PUSH1 0x1F DUP5 ADD PUSH1 0x1F NOT AND PUSH1 0x20 ADD SWAP1 PUSH2 0x1A70 DUP3 DUP3 PUSH2 0x1A0F JUMP JUMPDEST DUP1 SWAP3 POP DUP5 DUP2 MSTORE DUP6 DUP6 DUP6 ADD GT ISZERO PUSH2 0x1A84 JUMPI PUSH0 DUP1 REVERT JUMPDEST DUP5 DUP5 PUSH1 0x20 DUP4 ADD CALLDATACOPY PUSH0 PUSH1 0x20 DUP7 DUP4 ADD ADD MSTORE POP POP SWAP4 SWAP3 POP POP POP JUMP JUMPDEST PUSH0 DUP3 PUSH1 0x1F DUP4 ADD SLT PUSH2 0x1AAB JUMPI PUSH0 DUP1 REVERT JUMPDEST PUSH2 0x1847 DUP4 DUP4 CALLDATALOAD PUSH1 0x20 DUP6 ADD PUSH2 0x1A3C JUMP JUMPDEST PUSH0 PUSH1 0x20 DUP3 DUP5 SUB SLT ISZERO PUSH2 0x1ACA JUMPI PUSH0 DUP1 REVERT JUMPDEST DUP2 CALLDATALOAD PUSH8 0xFFFFFFFFFFFFFFFF DUP2 GT ISZERO PUSH2 0x1AE0 JUMPI PUSH0 DUP1 REVERT JUMPDEST PUSH2 0x1AEC DUP5 DUP3 DUP6 ADD PUSH2 0x1A9C JUMP JUMPDEST SWAP5 SWAP4 POP POP POP POP JUMP JUMPDEST PUSH0 PUSH1 0x20 DUP3 DUP5 SUB SLT ISZERO PUSH2 0x1B04 JUMPI PUSH0 DUP1 REVERT JUMPDEST POP CALLDATALOAD SWAP2 SWAP1 POP JUMP JUMPDEST PUSH0 DUP2 MLOAD DUP1 DUP5 MSTORE DUP1 PUSH1 0x20 DUP5 ADD PUSH1 0x20 DUP7 ADD MCOPY PUSH0 PUSH1 0x20 DUP3 DUP7 ADD ADD MSTORE PUSH1 0x20 PUSH1 0x1F NOT PUSH1 0x1F DUP4 ADD AND DUP6 ADD ADD SWAP2 POP POP SWAP3 SWAP2 POP POP JUMP JUMPDEST PUSH1 0x20 DUP2 MSTORE PUSH0 PUSH2 0x1847 PUSH1 0x20 DUP4 ADD DUP5 PUSH2 0x1B0B JUMP JUMPDEST PUSH0 DUP1 PUSH1 0x40 DUP4 DUP6 SUB SLT ISZERO PUSH2 0x1B5C JUMPI PUSH0 DUP1 REVERT JUMPDEST DUP3 CALLDATALOAD PUSH8 0xFFFFFFFFFFFFFFFF DUP2 GT ISZERO PUSH2 0x1B72 JUMPI PUSH0 DUP1 REVERT JUMPDEST PUSH2 0x1B7E DUP6 DUP3 DUP7 ADD PUSH2 0x1A9C JUMP JUMPDEST SWAP3 POP POP PUSH1 0x20 DUP4 ADD CALLDATALOAD PUSH2 0x1B8F DUP2 PUSH2 0x19CC JUMP JUMPDEST DUP1 SWAP2 POP POP SWAP3 POP SWAP3 SWAP1 POP JUMP JUMPDEST PUSH0 DUP1 PUSH0 PUSH1 0x60 DUP5 DUP7 SUB SLT ISZERO PUSH2 0x1BAC JUMPI PUSH0 DUP1 REVERT JUMPDEST DUP4 CALLDATALOAD PUSH8 0xFFFFFFFFFFFFFFFF DUP2 GT ISZERO PUSH2 0x1BC2 JUMPI PUSH0 DUP1 REVERT JUMPDEST PUSH2 0x1BCE DUP7 DUP3 DUP8 ADD PUSH2 0x1A9C JUMP JUMPDEST SWAP4 POP POP PUSH1 0x20 DUP5 ADD CALLDATALOAD PUSH8 0xFFFFFFFFFFFFFFFF DUP2 GT ISZERO PUSH2 0x1BEA JUMPI PUSH0 DUP1 REVERT JUMPDEST PUSH2 0x1BF6 DUP7 DUP3 DUP8 ADD PUSH2 0x1A9C JUMP JUMPDEST SWAP3 POP POP PUSH1 0x40 DUP5 ADD CALLDATALOAD PUSH8 0xFFFFFFFFFFFFFFFF DUP2 GT ISZERO PUSH2 0x1C12 JUMPI PUSH0 DUP1 REVERT JUMPDEST DUP5 ADD PUSH1 0x1F DUP2 ADD DUP7 SGT PUSH2 0x1C22 JUMPI PUSH0 DUP1 REVERT JUMPDEST PUSH2 0x1C31 DUP7 DUP3 CALLDATALOAD PUSH1 0x20 DUP5 ADD PUSH2 0x1A3C JUMP JUMPDEST SWAP2 POP POP SWAP3 POP SWAP3 POP SWAP3 JUMP JUMPDEST PUSH0 PUSH1 0x20 DUP3 ADD PUSH1 0x20 DUP4 MSTORE DUP1 DUP5 MLOAD DUP1 DUP4 MSTORE PUSH1 0x40 DUP6 ADD SWAP2 POP PUSH1 0x40 DUP2 PUSH1 0x5 SHL DUP7 ADD ADD SWAP3 POP PUSH1 0x20 DUP7 ADD PUSH0 JUMPDEST DUP3 DUP2 LT ISZERO PUSH2 0x1C92 JUMPI PUSH1 0x3F NOT DUP8 DUP7 SUB ADD DUP5 MSTORE PUSH2 0x1C7D DUP6 DUP4 MLOAD PUSH2 0x1B0B JUMP JUMPDEST SWAP5 POP PUSH1 0x20 SWAP4 DUP5 ADD SWAP4 SWAP2 SWAP1 SWAP2 ADD SWAP1 PUSH1 0x1 ADD PUSH2 0x1C61 JUMP JUMPDEST POP SWAP3 SWAP7 SWAP6 POP POP POP POP POP POP JUMP JUMPDEST PUSH1 0x2A DUP2 MSTORE PUSH32 0x7468652073656E6465722077617320657870656374656420746F206265207468 PUSH1 0x20 DUP3 ADD MSTORE PUSH10 0x32903232B83637BCB2B9 PUSH1 0xB1 SHL PUSH1 0x40 DUP3 ADD MSTORE PUSH1 0x60 ADD SWAP1 JUMP JUMPDEST PUSH1 0x20 DUP2 MSTORE PUSH0 PUSH2 0x184A PUSH1 0x20 DUP4 ADD PUSH2 0x1C9E JUMP JUMPDEST PUSH1 0x20 DUP1 DUP3 MSTORE PUSH1 0x23 SWAP1 DUP3 ADD MSTORE PUSH32 0x74686520646570656E64656E637920726571756573746572206973206E6F7420 PUSH1 0x40 DUP3 ADD MSTORE PUSH3 0x1CD95D PUSH1 0xEA SHL PUSH1 0x60 DUP3 ADD MSTORE PUSH1 0x80 ADD SWAP1 JUMP JUMPDEST PUSH0 PUSH1 0x20 DUP3 DUP5 SUB SLT ISZERO PUSH2 0x1D45 JUMPI PUSH0 DUP1 REVERT JUMPDEST POP MLOAD SWAP2 SWAP1 POP JUMP JUMPDEST PUSH0 DUP2 MLOAD DUP1 PUSH1 0x20 DUP5 ADD DUP6 MCOPY PUSH0 SWAP4 ADD SWAP3 DUP4 MSTORE POP SWAP1 SWAP2 SWAP1 POP JUMP JUMPDEST PUSH0 PUSH2 0x1847 DUP3 DUP5 PUSH2 0x1D4C JUMP JUMPDEST PUSH1 0x1 DUP2 DUP2 SHR SWAP1 DUP3 AND DUP1 PUSH2 0x1D82 JUMPI PUSH1 0x7F DUP3 AND SWAP2 POP JUMPDEST PUSH1 0x20 DUP3 LT DUP2 SUB PUSH2 0x1DA0 JUMPI PUSH4 0x4E487B71 PUSH1 0xE0 SHL PUSH0 MSTORE PUSH1 0x22 PUSH1 0x4 MSTORE PUSH1 0x24 PUSH0 REVERT JUMPDEST POP SWAP2 SWAP1 POP JUMP JUMPDEST DUP1 MLOAD DUP1 ISZERO ISZERO DUP2 EQ PUSH2 0x1DB5 JUMPI PUSH0 DUP1 REVERT JUMPDEST SWAP2 SWAP1 POP JUMP JUMPDEST PUSH0 DUP1 PUSH0 PUSH1 0x60 DUP5 DUP7 SUB SLT ISZERO PUSH2 0x1DCC JUMPI PUSH0 DUP1 REVERT JUMPDEST DUP4 MLOAD PUSH2 0x1DD7 DUP2 PUSH2 0x19CC JUMP JUMPDEST SWAP3 POP PUSH2 0x1DE5 PUSH1 0x20 DUP6 ADD PUSH2 0x1DA6 JUMP JUMPDEST SWAP2 POP PUSH2 0x1DF3 PUSH1 0x40 DUP6 ADD PUSH2 0x1DA6 JUMP JUMPDEST SWAP1 POP SWAP3 POP SWAP3 POP SWAP3 JUMP JUMPDEST PUSH4 0x4E487B71 PUSH1 0xE0 SHL PUSH0 MSTORE PUSH1 0x11 PUSH1 0x4 MSTORE PUSH1 0x24 PUSH0 REVERT JUMPDEST DUP2 DUP2 SUB DUP2 DUP2 GT ISZERO PUSH2 0x184A JUMPI PUSH2 0x184A PUSH2 0x1DFC JUMP JUMPDEST PUSH4 0x4E487B71 PUSH1 0xE0 SHL PUSH0 MSTORE PUSH1 0x32 PUSH1 0x4 MSTORE PUSH1 0x24 PUSH0 REVERT JUMPDEST PUSH0 DUP1 PUSH1 0x40 DUP4 DUP6 SUB SLT ISZERO PUSH2 0x1E48 JUMPI PUSH0 DUP1 REVERT JUMPDEST PUSH2 0x1E51 DUP4 PUSH2 0x1DA6 JUMP JUMPDEST SWAP2 POP PUSH2 0x1E5F PUSH1 0x20 DUP5 ADD PUSH2 0x1DA6 JUMP JUMPDEST SWAP1 POP SWAP3 POP SWAP3 SWAP1 POP JUMP JUMPDEST PUSH1 0x1F DUP3 GT ISZERO PUSH2 0x1EAF JUMPI DUP1 PUSH0 MSTORE PUSH1 0x20 PUSH0 KECCAK256 PUSH1 0x1F DUP5 ADD PUSH1 0x5 SHR DUP2 ADD PUSH1 0x20 DUP6 LT ISZERO PUSH2 0x1E8D JUMPI POP DUP1 JUMPDEST PUSH1 0x1F DUP5 ADD PUSH1 0x5 SHR DUP3 ADD SWAP2 POP JUMPDEST DUP2 DUP2 LT ISZERO PUSH2 0x1EAC JUMPI PUSH0 DUP2 SSTORE PUSH1 0x1 ADD PUSH2 0x1E99 JUMP JUMPDEST POP POP JUMPDEST POP POP POP JUMP JUMPDEST DUP2 DUP2 SUB PUSH2 0x1EBF JUMPI POP POP JUMP JUMPDEST PUSH2 0x1EC9 DUP3 SLOAD PUSH2 0x1D6E JUMP JUMPDEST PUSH8 0xFFFFFFFFFFFFFFFF DUP2 GT ISZERO PUSH2 0x1EE1 JUMPI PUSH2 0x1EE1 PUSH2 0x19FB JUMP JUMPDEST PUSH2 0x1EF5 DUP2 PUSH2 0x1EEF DUP5 SLOAD PUSH2 0x1D6E JUMP JUMPDEST DUP5 PUSH2 0x1E68 JUMP JUMPDEST PUSH0 PUSH1 0x1F DUP3 GT PUSH1 0x1 DUP2 EQ PUSH2 0x1F29 JUMPI PUSH0 DUP4 ISZERO PUSH2 0x1F0F JUMPI POP DUP5 DUP3 ADD SLOAD JUMPDEST PUSH1 0x1 DUP5 SWAP1 SHL PUSH0 NOT PUSH1 0x3 DUP7 SWAP1 SHL SHR NOT DUP3 AND OR JUMPDEST DUP6 SSTORE POP PUSH2 0x1EAC JUMP JUMPDEST PUSH0 DUP6 DUP2 MSTORE PUSH1 0x20 DUP1 DUP3 KECCAK256 DUP7 DUP4 MSTORE SWAP1 DUP3 KECCAK256 PUSH1 0x1F NOT DUP7 AND SWAP3 JUMPDEST DUP4 DUP2 LT ISZERO PUSH2 0x1F5F JUMPI DUP3 DUP7 ADD SLOAD DUP3 SSTORE PUSH1 0x1 SWAP6 DUP7 ADD SWAP6 SWAP1 SWAP2 ADD SWAP1 PUSH1 0x20 ADD PUSH2 0x1F3F JUMP JUMPDEST POP DUP6 DUP4 LT ISZERO PUSH2 0x1F7C JUMPI DUP2 DUP6 ADD SLOAD PUSH0 NOT PUSH1 0x3 DUP9 SWAP1 SHL PUSH1 0xF8 AND SHR NOT AND DUP2 SSTORE JUMPDEST POP POP POP POP POP PUSH1 0x1 SWAP1 DUP2 SHL ADD SWAP1 SSTORE POP JUMP JUMPDEST PUSH4 0x4E487B71 PUSH1 0xE0 SHL PUSH0 MSTORE PUSH1 0x31 PUSH1 0x4 MSTORE PUSH1 0x24 PUSH0 REVERT JUMPDEST PUSH0 DUP2 PUSH2 0x1FAE JUMPI PUSH2 0x1FAE PUSH2 0x1DFC JUMP JUMPDEST POP PUSH0 NOT ADD SWAP1 JUMP JUMPDEST DUP2 MLOAD PUSH8 0xFFFFFFFFFFFFFFFF DUP2 GT ISZERO PUSH2 0x1FCF JUMPI PUSH2 0x1FCF PUSH2 0x19FB JUMP JUMPDEST PUSH2 0x1FDD DUP2 PUSH2 0x1EEF DUP5 SLOAD PUSH2 0x1D6E JUMP JUMPDEST PUSH1 0x20 PUSH1 0x1F DUP3 GT PUSH1 0x1 DUP2 EQ PUSH2 0x200D JUMPI PUSH0 DUP4 ISZERO PUSH2 0x1F0F JUMPI POP DUP2 DUP6 ADD MLOAD PUSH1 0x1 DUP5 SWAP1 SHL PUSH0 NOT PUSH1 0x3 DUP7 SWAP1 SHL SHR NOT DUP3 AND OR PUSH2 0x1F21 JUMP JUMPDEST PUSH0 DUP5 DUP2 MSTORE PUSH1 0x20 DUP2 KECCAK256 PUSH1 0x1F NOT DUP6 AND SWAP2 JUMPDEST DUP3 DUP2 LT ISZERO PUSH2 0x203C JUMPI DUP8 DUP6 ADD MLOAD DUP3 SSTORE PUSH1 0x20 SWAP5 DUP6 ADD SWAP5 PUSH1 0x1 SWAP1 SWAP3 ADD SWAP2 ADD PUSH2 0x201C JUMP JUMPDEST POP DUP5 DUP3 LT ISZERO PUSH2 0x2059 JUMPI DUP7 DUP5 ADD MLOAD PUSH0 NOT PUSH1 0x3 DUP8 SWAP1 SHL PUSH1 0xF8 AND SHR NOT AND DUP2 SSTORE JUMPDEST POP POP POP POP PUSH1 0x1 SWAP1 DUP2 SHL ADD SWAP1 SSTORE POP JUMP JUMPDEST PUSH1 0x40 DUP2 MSTORE PUSH0 PUSH2 0x207A PUSH1 0x40 DUP4 ADD DUP6 PUSH2 0x1B0B JUMP JUMPDEST SWAP1 POP PUSH1 0x1 DUP1 PUSH1 0xA0 SHL SUB DUP4 AND PUSH1 0x20 DUP4 ADD MSTORE SWAP4 SWAP3 POP POP POP JUMP JUMPDEST PUSH0 PUSH1 0x3 RETURNDATASIZE GT ISZERO PUSH2 0x20A7 JUMPI PUSH1 0x4 PUSH0 DUP1 RETURNDATACOPY POP PUSH0 MLOAD PUSH1 0xE0 SHR JUMPDEST SWAP1 JUMP JUMPDEST PUSH0 PUSH1 0x44 RETURNDATASIZE LT ISZERO PUSH2 0x20B7 JUMPI SWAP1 JUMP JUMPDEST PUSH1 0x40 MLOAD RETURNDATASIZE PUSH1 0x3 NOT ADD PUSH1 0x4 DUP3 RETURNDATACOPY DUP1 MLOAD RETURNDATASIZE PUSH1 0x24 DUP3 ADD GT PUSH8 0xFFFFFFFFFFFFFFFF DUP3 GT OR ISZERO PUSH2 0x20E1 JUMPI POP POP SWAP1 JUMP JUMPDEST DUP1 DUP3 ADD DUP1 MLOAD PUSH8 0xFFFFFFFFFFFFFFFF DUP2 GT ISZERO PUSH2 0x20FD JUMPI POP POP POP POP SWAP1 JUMP JUMPDEST RETURNDATASIZE DUP5 ADD PUSH1 0x3 NOT ADD DUP3 DUP3 ADD PUSH1 0x20 ADD GT ISZERO PUSH2 0x2117 JUMPI POP POP POP POP SWAP1 JUMP JUMPDEST PUSH2 0x2126 PUSH1 0x20 DUP3 DUP6 ADD ADD DUP6 PUSH2 0x1A0F JUMP JUMPDEST POP SWAP4 SWAP3 POP POP POP JUMP JUMPDEST PUSH1 0x60 DUP2 MSTORE PUSH0 PUSH2 0x2140 PUSH1 0x60 DUP4 ADD DUP5 PUSH2 0x1B0B JUMP JUMPDEST DUP3 DUP2 SUB PUSH1 0x20 DUP5 ADD MSTORE PUSH2 0x2151 DUP2 PUSH2 0x1C9E JUMP JUMPDEST DUP4 DUP2 SUB PUSH1 0x40 SWAP5 DUP6 ADD MSTORE PUSH1 0x3D DUP2 MSTORE PUSH32 0x45787065637465642072656A656374696F6E20666F7220616464446570656E64 PUSH1 0x20 DUP3 ADD MSTORE PUSH32 0x656E6379526571756573746572206279206E6F6E2D6465706C6F796572000000 SWAP4 DUP2 ADD SWAP4 SWAP1 SWAP4 MSTORE POP POP PUSH1 0x60 ADD SWAP2 SWAP1 POP JUMP JUMPDEST PUSH0 PUSH1 0x20 DUP3 DUP5 SUB SLT ISZERO PUSH2 0x21C6 JUMPI PUSH0 DUP1 REVERT JUMPDEST PUSH2 0x1847 DUP3 PUSH2 0x1DA6 JUMP JUMPDEST PUSH1 0x1 PUSH1 0x1 PUSH1 0xE0 SHL SUB NOT DUP4 AND DUP2 MSTORE PUSH0 PUSH2 0x1AEC PUSH1 0x4 DUP4 ADD DUP5 PUSH2 0x1D4C JUMP INVALID PUSH1 0x80 PUSH1 0x40 MSTORE PUSH0 PUSH1 0x3 SSTORE PUSH0 PUSH1 0x4 SSTORE PUSH0 PUSH1 0x5 SSTORE CALLVALUE DUP1 ISZERO PUSH1 0x1A JUMPI PUSH0 DUP1 REVERT JUMPDEST POP PUSH2 0x60C DUP1 PUSH2 0x28 PUSH0 CODECOPY PUSH0 RETURN INVALID PUSH1 0x80 PUSH1 0x40 MSTORE CALLVALUE DUP1 ISZERO PUSH2 0xF JUMPI PUSH0 DUP1 REVERT JUMPDEST POP PUSH1 0x4 CALLDATASIZE LT PUSH2 0x90 JUMPI PUSH0 CALLDATALOAD PUSH1 0xE0 SHR DUP1 PUSH4 0x2AD51B96 GT PUSH2 0x63 JUMPI DUP1 PUSH4 0x2AD51B96 EQ PUSH2 0x163 JUMPI DUP1 PUSH4 0x3F301AE5 EQ PUSH2 0x1EE JUMPI DUP1 PUSH4 0x4F6E1B27 EQ PUSH2 0x26F JUMPI DUP1 PUSH4 0xA990586A EQ PUSH2 0x2D1 JUMPI DUP1 PUSH4 0xB986F179 EQ PUSH2 0x351 JUMPI PUSH0 DUP1 REVERT JUMPDEST DUP1 PUSH4 0x7EC4043 EQ PUSH2 0x94 JUMPI DUP1 PUSH4 0x16C1076F EQ PUSH2 0xBA JUMPI DUP1 PUSH4 0x1AEB6C98 EQ PUSH2 0xCD JUMPI DUP1 PUSH4 0x1D59A3AA EQ PUSH2 0x150 JUMPI JUMPDEST PUSH0 DUP1 REVERT JUMPDEST PUSH2 0xA7 PUSH2 0xA2 CALLDATASIZE PUSH1 0x4 PUSH2 0x45A JUMP JUMPDEST PUSH2 0x3C3 JUMP JUMPDEST PUSH1 0x40 MLOAD SWAP1 DUP2 MSTORE PUSH1 0x20 ADD JUMPDEST PUSH1 0x40 MLOAD DUP1 SWAP2 SUB SWAP1 RETURN JUMPDEST PUSH2 0xA7 PUSH2 0xC8 CALLDATASIZE PUSH1 0x4 PUSH2 0x51E JUMP JUMPDEST PUSH2 0x3E2 JUMP JUMPDEST PUSH2 0x14E PUSH2 0xDB CALLDATASIZE PUSH1 0x4 PUSH2 0x54F JUMP JUMPDEST PUSH1 0x40 DUP1 MLOAD PUSH1 0x60 DUP2 ADD DUP3 MSTORE PUSH1 0x1 PUSH1 0x1 PUSH1 0xA0 SHL SUB SWAP5 DUP6 AND DUP2 MSTORE SWAP3 ISZERO ISZERO PUSH1 0x20 DUP1 DUP6 ADD SWAP2 DUP3 MSTORE SWAP3 ISZERO ISZERO DUP5 DUP4 ADD SWAP1 DUP2 MSTORE PUSH0 SWAP7 DUP8 MSTORE PUSH1 0x1 SWAP1 SWAP4 MSTORE SWAP5 KECCAK256 SWAP2 MLOAD DUP3 SLOAD SWAP5 MLOAD SWAP2 MLOAD ISZERO ISZERO PUSH1 0x1 PUSH1 0xA8 SHL MUL PUSH1 0xFF PUSH1 0xA8 SHL NOT SWAP3 ISZERO ISZERO PUSH1 0x1 PUSH1 0xA0 SHL MUL PUSH1 0x1 PUSH1 0x1 PUSH1 0xA8 SHL SUB NOT SWAP1 SWAP7 AND SWAP2 SWAP1 SWAP5 AND OR SWAP4 SWAP1 SWAP4 OR SWAP3 SWAP1 SWAP3 AND OR SWAP1 SSTORE JUMP JUMPDEST STOP JUMPDEST PUSH2 0xA7 PUSH2 0x15E CALLDATASIZE PUSH1 0x4 PUSH2 0x45A JUMP JUMPDEST PUSH2 0x400 JUMP JUMPDEST PUSH2 0x1C7 PUSH2 0x171 CALLDATASIZE PUSH1 0x4 PUSH2 0x59B JUMP JUMPDEST PUSH0 DUP2 DUP2 MSTORE PUSH1 0x2 PUSH1 0x20 SWAP1 DUP2 MSTORE PUSH1 0x40 SWAP2 DUP3 SWAP1 KECCAK256 DUP3 MLOAD PUSH1 0x60 DUP2 ADD DUP5 MSTORE SWAP1 SLOAD PUSH1 0x1 PUSH1 0x1 PUSH1 0xA0 SHL SUB DUP2 AND DUP1 DUP4 MSTORE PUSH1 0xFF PUSH1 0x1 PUSH1 0xA0 SHL DUP4 DIV DUP2 AND ISZERO ISZERO SWAP5 DUP5 ADD DUP6 SWAP1 MSTORE PUSH1 0x1 PUSH1 0xA8 SHL SWAP1 SWAP3 DIV SWAP1 SWAP2 AND ISZERO ISZERO SWAP2 SWAP1 SWAP4 ADD DUP2 SWAP1 MSTORE SWAP2 SWAP4 SWAP1 SWAP3 POP JUMP JUMPDEST PUSH1 0x40 DUP1 MLOAD PUSH1 0x1 PUSH1 0x1 PUSH1 0xA0 SHL SUB SWAP1 SWAP5 AND DUP5 MSTORE SWAP2 ISZERO ISZERO PUSH1 0x20 DUP5 ADD MSTORE ISZERO ISZERO SWAP1 DUP3 ADD MSTORE PUSH1 0x60 ADD PUSH2 0xB1 JUMP JUMPDEST PUSH2 0x14E PUSH2 0x1FC CALLDATASIZE PUSH1 0x4 PUSH2 0x54F JUMP JUMPDEST PUSH1 0x40 DUP1 MLOAD PUSH1 0x60 DUP2 ADD DUP3 MSTORE PUSH1 0x1 PUSH1 0x1 PUSH1 0xA0 SHL SUB SWAP5 DUP6 AND DUP2 MSTORE SWAP3 ISZERO ISZERO PUSH1 0x20 DUP1 DUP6 ADD SWAP2 DUP3 MSTORE SWAP3 ISZERO ISZERO DUP5 DUP4 ADD SWAP1 DUP2 MSTORE PUSH0 SWAP7 DUP8 MSTORE PUSH1 0x2 SWAP1 SWAP4 MSTORE SWAP5 KECCAK256 SWAP2 MLOAD DUP3 SLOAD SWAP5 MLOAD SWAP2 MLOAD ISZERO ISZERO PUSH1 0x1 PUSH1 0xA8 SHL MUL PUSH1 0xFF PUSH1 0xA8 SHL NOT SWAP3 ISZERO ISZERO PUSH1 0x1 PUSH1 0xA0 SHL MUL PUSH1 0x1 PUSH1 0x1 PUSH1 0xA8 SHL SUB NOT SWAP1 SWAP7 AND SWAP2 SWAP1 SWAP5 AND OR SWAP4 SWAP1 SWAP4 OR SWAP3 SWAP1 SWAP3 AND OR SWAP1 SSTORE JUMP JUMPDEST PUSH2 0x1C7 PUSH2 0x27D CALLDATASIZE PUSH1 0x4 PUSH2 0x59B JUMP JUMPDEST PUSH0 DUP2 DUP2 MSTORE PUSH1 0x20 DUP2 DUP2 MSTORE PUSH1 0x40 SWAP2 DUP3 SWAP1 KECCAK256 DUP3 MLOAD PUSH1 0x60 DUP2 ADD DUP5 MSTORE SWAP1 SLOAD PUSH1 0x1 PUSH1 0x1 PUSH1 0xA0 SHL SUB DUP2 AND DUP1 DUP4 MSTORE PUSH1 0xFF PUSH1 0x1 PUSH1 0xA0 SHL DUP4 DIV DUP2 AND ISZERO ISZERO SWAP5 DUP5 ADD DUP6 SWAP1 MSTORE PUSH1 0x1 PUSH1 0xA8 SHL SWAP1 SWAP3 DIV SWAP1 SWAP2 AND ISZERO ISZERO SWAP2 SWAP1 SWAP4 ADD DUP2 SWAP1 MSTORE SWAP2 SWAP4 SWAP1 SWAP3 POP JUMP JUMPDEST PUSH2 0x14E PUSH2 0x2DF CALLDATASIZE PUSH1 0x4 PUSH2 0x54F JUMP JUMPDEST PUSH1 0x40 DUP1 MLOAD PUSH1 0x60 DUP2 ADD DUP3 MSTORE PUSH1 0x1 PUSH1 0x1 PUSH1 0xA0 SHL SUB SWAP5 DUP6 AND DUP2 MSTORE SWAP3 ISZERO ISZERO PUSH1 0x20 DUP1 DUP6 ADD SWAP2 DUP3 MSTORE SWAP3 ISZERO ISZERO DUP5 DUP4 ADD SWAP1 DUP2 MSTORE PUSH0 SWAP7 DUP8 MSTORE SWAP3 DUP7 SWAP1 MSTORE SWAP5 KECCAK256 SWAP2 MLOAD DUP3 SLOAD SWAP5 MLOAD SWAP2 MLOAD ISZERO ISZERO PUSH1 0x1 PUSH1 0xA8 SHL MUL PUSH1 0xFF PUSH1 0xA8 SHL NOT SWAP3 ISZERO ISZERO PUSH1 0x1 PUSH1 0xA0 SHL MUL PUSH1 0x1 PUSH1 0x1 PUSH1 0xA8 SHL SUB NOT SWAP1 SWAP7 AND SWAP2 SWAP1 SWAP5 AND OR SWAP4 SWAP1 SWAP4 OR SWAP3 SWAP1 SWAP3 AND OR SWAP1 SSTORE JUMP JUMPDEST PUSH2 0x3AC PUSH2 0x35F CALLDATASIZE PUSH1 0x4 PUSH2 0x59B JUMP JUMPDEST PUSH0 SWAP1 DUP2 MSTORE PUSH1 0x1 PUSH1 0x20 SWAP1 DUP2 MSTORE PUSH1 0x40 SWAP2 DUP3 SWAP1 KECCAK256 DUP3 MLOAD PUSH1 0x60 DUP2 ADD DUP5 MSTORE SWAP1 SLOAD PUSH1 0x1 PUSH1 0x1 PUSH1 0xA0 SHL SUB DUP2 AND DUP3 MSTORE PUSH1 0xFF PUSH1 0x1 PUSH1 0xA0 SHL DUP3 DIV DUP2 AND ISZERO ISZERO SWAP4 DUP4 ADD DUP5 SWAP1 MSTORE PUSH1 0x1 PUSH1 0xA8 SHL SWAP1 SWAP2 DIV AND ISZERO ISZERO SWAP3 ADD DUP3 SWAP1 MSTORE SWAP2 JUMP JUMPDEST PUSH1 0x40 DUP1 MLOAD SWAP3 ISZERO ISZERO DUP4 MSTORE SWAP1 ISZERO ISZERO PUSH1 0x20 DUP4 ADD MSTORE ADD PUSH2 0xB1 JUMP JUMPDEST PUSH1 0x4 DUP1 SLOAD PUSH0 SWAP2 DUP3 PUSH2 0x3D3 DUP4 PUSH2 0x5B2 JUMP JUMPDEST SWAP1 SWAP2 SSTORE POP POP PUSH1 0x4 SLOAD SWAP4 SWAP3 POP POP POP JUMP JUMPDEST PUSH1 0x5 DUP1 SLOAD PUSH0 SWAP2 DUP3 PUSH2 0x3F2 DUP4 PUSH2 0x5B2 JUMP JUMPDEST SWAP1 SWAP2 SSTORE POP POP PUSH1 0x5 SLOAD SWAP3 SWAP2 POP POP JUMP JUMPDEST PUSH1 0x3 DUP1 SLOAD PUSH0 SWAP2 DUP3 PUSH2 0x410 DUP4 PUSH2 0x5B2 JUMP JUMPDEST SWAP1 SWAP2 SSTORE POP POP PUSH1 0x3 SLOAD SWAP4 SWAP3 POP POP POP JUMP JUMPDEST PUSH4 0x4E487B71 PUSH1 0xE0 SHL PUSH0 MSTORE PUSH1 0x41 PUSH1 0x4 MSTORE PUSH1 0x24 PUSH0 REVERT JUMPDEST PUSH1 0x1 PUSH1 0x1 PUSH1 0xA0 SHL SUB DUP2 AND DUP2 EQ PUSH2 0x447 JUMPI PUSH0 DUP1 REVERT JUMPDEST POP JUMP JUMPDEST DUP1 CALLDATALOAD PUSH2 0x455 DUP2 PUSH2 0x433 JUMP JUMPDEST SWAP2 SWAP1 POP JUMP JUMPDEST PUSH0 DUP1 PUSH1 0x40 DUP4 DUP6 SUB SLT ISZERO PUSH2 0x46B JUMPI PUSH0 DUP1 REVERT JUMPDEST DUP3 CALLDATALOAD PUSH8 0xFFFFFFFFFFFFFFFF DUP2 GT ISZERO PUSH2 0x481 JUMPI PUSH0 DUP1 REVERT JUMPDEST DUP4 ADD PUSH1 0x1F DUP2 ADD DUP6 SGT PUSH2 0x491 JUMPI PUSH0 DUP1 REVERT JUMPDEST DUP1 CALLDATALOAD PUSH8 0xFFFFFFFFFFFFFFFF DUP2 GT ISZERO PUSH2 0x4AB JUMPI PUSH2 0x4AB PUSH2 0x41F JUMP JUMPDEST PUSH1 0x40 MLOAD PUSH1 0x1F DUP3 ADD PUSH1 0x1F NOT SWAP1 DUP2 AND PUSH1 0x3F ADD AND DUP2 ADD PUSH8 0xFFFFFFFFFFFFFFFF DUP2 GT DUP3 DUP3 LT OR ISZERO PUSH2 0x4DA JUMPI PUSH2 0x4DA PUSH2 0x41F JUMP JUMPDEST PUSH1 0x40 MSTORE DUP2 DUP2 MSTORE DUP3 DUP3 ADD PUSH1 0x20 ADD DUP8 LT ISZERO PUSH2 0x4F1 JUMPI PUSH0 DUP1 REVERT JUMPDEST DUP2 PUSH1 0x20 DUP5 ADD PUSH1 0x20 DUP4 ADD CALLDATACOPY PUSH0 PUSH1 0x20 DUP4 DUP4 ADD ADD MSTORE DUP1 SWAP5 POP POP POP POP PUSH2 0x515 PUSH1 0x20 DUP5 ADD PUSH2 0x44A JUMP JUMPDEST SWAP1 POP SWAP3 POP SWAP3 SWAP1 POP JUMP JUMPDEST PUSH0 PUSH1 0x20 DUP3 DUP5 SUB SLT ISZERO PUSH2 0x52E JUMPI PUSH0 DUP1 REVERT JUMPDEST DUP2 CALLDATALOAD PUSH2 0x539 DUP2 PUSH2 0x433 JUMP JUMPDEST SWAP4 SWAP3 POP POP POP JUMP JUMPDEST DUP1 CALLDATALOAD DUP1 ISZERO ISZERO DUP2 EQ PUSH2 0x455 JUMPI PUSH0 DUP1 REVERT JUMPDEST PUSH0 DUP1 PUSH0 DUP1 PUSH1 0x80 DUP6 DUP8 SUB SLT ISZERO PUSH2 0x562 JUMPI PUSH0 DUP1 REVERT JUMPDEST DUP5 CALLDATALOAD SWAP4 POP PUSH1 0x20 DUP6 ADD CALLDATALOAD PUSH2 0x574 DUP2 PUSH2 0x433 JUMP JUMPDEST SWAP3 POP PUSH2 0x582 PUSH1 0x40 DUP7 ADD PUSH2 0x540 JUMP JUMPDEST SWAP2 POP PUSH2 0x590 PUSH1 0x60 DUP7 ADD PUSH2 0x540 JUMP JUMPDEST SWAP1 POP SWAP3 SWAP6 SWAP2 SWAP5 POP SWAP3 POP JUMP JUMPDEST PUSH0 PUSH1 0x20 DUP3 DUP5 SUB SLT ISZERO PUSH2 0x5AB JUMPI PUSH0 DUP1 REVERT JUMPDEST POP CALLDATALOAD SWAP2 SWAP1 POP JUMP JUMPDEST PUSH0 PUSH1 0x1 DUP3 ADD PUSH2 0x5CF JUMPI PUSH4 0x4E487B71 PUSH1 0xE0 SHL PUSH0 MSTORE PUSH1 0x11 PUSH1 0x4 MSTORE PUSH1 0x24 PUSH0 REVERT JUMPDEST POP PUSH1 0x1 ADD SWAP1 JUMP INVALID LOG2 PUSH5 0x6970667358 0x22 SLT KECCAK256 0xD4 0xD8 DUP6 EXTCODEHASH SWAP10 GT BLOCKHASH 0xCD OR MSTORE8 0xCD EXTCODECOPY 0xBE 0xEF DUP11 0x1E 0xDC SWAP16 MULMOD 0xEF PUSH14 0x16A4E38DFF598F9AD1205064736F PUSH13 0x634300081A0033A26469706673 PC 0x22 SLT KECCAK256 DUP1 DUP2 MLOAD DUP6 LT 0xD5 PUSH11 0xC6965B3A1D1945ADE87E97 0xDD 0xBD 0xC2 0xBE CALLDATASIZE 0xDC SWAP10 SWAP7 0xAA SHR 0xC5 SWAP6 INVALID 0xD2 PUSH5 0x736F6C6343 STOP ADDMOD BYTE STOP CALLER "
		},
		"gasEstimates": {
			"creation": {
				"codeDepositCost": "2064800",
				"executionCost": "48533",
				"totalCost": "2113333"
			},
			"external": {
				"addDependencyRequester(address)": "infinite",
				"approvedDependencies(string)": "infinite",
				"approvedDependenciesKeys(uint256)": "infinite",
				"beforeEach()": "infinite",
				"callFunction(string,string,bytes)": "infinite",
				"dependencyRequester()": "2381",
				"deployer()": "2358",
				"getDependencyAddress(string)": "infinite",
				"getDependencyKeys()": "infinite",
				"getPendingAprovalDependencyKeys()": "infinite",
				"pendingApprovalDependencies(string)": "infinite",
				"pendingApprovalDependenciesKeys(uint256)": "infinite",
				"pendingRemovalDependencies(string)": "infinite",
				"pendingRemovalDependenciesKeys(uint256)": "infinite",
				"pendingUpgradeForItself()": "2372",
				"requestDependencyAddition(string,address)": "infinite",
				"requestDependencyRemoval(string,address)": "infinite",
				"requestUpgradeDependencyRequester(address)": "infinite",
				"testNonDeployerCannotAddDependencyRequester()": "infinite",
				"updateDependencies()": "infinite"
			}
		},
		"methodIdentifiers": {
			"addDependencyRequester(address)": "0bcfc717",
			"approvedDependencies(string)": "29d5de01",
			"approvedDependenciesKeys(uint256)": "eebed3a7",
			"beforeEach()": "6331e7d4",
			"callFunction(string,string,bytes)": "a7fee722",
			"dependencyRequester()": "a791edf8",
			"deployer()": "d5f39488",
			"getDependencyAddress(string)": "22418460",
			"getDependencyKeys()": "ec4c2e5d",
			"getPendingAprovalDependencyKeys()": "be6552e6",
			"pendingApprovalDependencies(string)": "1a83f4a3",
			"pendingApprovalDependenciesKeys(uint256)": "7b022fa2",
			"pendingRemovalDependencies(string)": "12c0c8c0",
			"pendingRemovalDependenciesKeys(uint256)": "2cf1366b",
			"pendingUpgradeForItself()": "bc5aef90",
			"requestDependencyAddition(string,address)": "80719893",
			"requestDependencyRemoval(string,address)": "fbe332dc",
			"requestUpgradeDependencyRequester(address)": "16c1076f",
			"testNonDeployerCannotAddDependencyRequester()": "de714375",
			"updateDependencies()": "6e5ecdff"
		}
	},
	"abi": [
		{
			"inputs": [
				{
					"internalType": "address",
					"name": "target",
					"type": "address"
				}
			],
			"name": "AddressEmptyCode",
			"type": "error"
		},
		{
			"inputs": [],
			"name": "FailedCall",
			"type": "error"
		},
		{
			"inputs": [
				{
					"internalType": "uint256",
					"name": "balance",
					"type": "uint256"
				},
				{
					"internalType": "uint256",
					"name": "needed",
					"type": "uint256"
				}
			],
			"name": "InsufficientBalance",
			"type": "error"
		},
		{
			"inputs": [],
			"name": "ReentrancyGuardReentrantCall",
			"type": "error"
		},
		{
			"anonymous": false,
			"inputs": [
				{
					"indexed": false,
					"internalType": "string",
					"name": "dependencyKey",
					"type": "string"
				},
				{
					"indexed": true,
					"internalType": "address",
					"name": "contractAddress",
					"type": "address"
				}
			],
			"name": "DependencyAdded",
			"type": "event"
		},
		{
			"anonymous": false,
			"inputs": [
				{
					"indexed": false,
					"internalType": "string",
					"name": "dependencyKey",
					"type": "string"
				},
				{
					"indexed": true,
					"internalType": "address",
					"name": "contractAddress",
					"type": "address"
				}
			],
			"name": "DependencyAdditionFailed",
			"type": "event"
		},
		{
			"anonymous": false,
			"inputs": [
				{
					"indexed": false,
					"internalType": "string",
					"name": "dependencyKey",
					"type": "string"
				},
				{
					"indexed": true,
					"internalType": "address",
					"name": "contractAddress",
					"type": "address"
				}
			],
			"name": "DependencyAdditionRequested",
			"type": "event"
		},
		{
			"anonymous": false,
			"inputs": [
				{
					"indexed": false,
					"internalType": "string",
					"name": "dependencyKey",
					"type": "string"
				},
				{
					"indexed": true,
					"internalType": "address",
					"name": "contractAddress",
					"type": "address"
				}
			],
			"name": "DependencyRemovalFailed",
			"type": "event"
		},
		{
			"anonymous": false,
			"inputs": [
				{
					"indexed": false,
					"internalType": "string",
					"name": "dependencyKey",
					"type": "string"
				},
				{
					"indexed": true,
					"internalType": "address",
					"name": "contractAddress",
					"type": "address"
				}
			],
			"name": "DependencyRemovalRequested",
			"type": "event"
		},
		{
			"anonymous": false,
			"inputs": [
				{
					"indexed": false,
					"internalType": "string",
					"name": "dependencyKey",
					"type": "string"
				},
				{
					"indexed": true,
					"internalType": "address",
					"name": "contractAddress",
					"type": "address"
				}
			],
			"name": "DependencyRemoved",
			"type": "event"
		},
		{
			"anonymous": false,
			"inputs": [
				{
					"indexed": true,
					"internalType": "contract IDependencyRequester",
					"name": "contractAddress",
					"type": "address"
				}
			],
			"name": "DependencyRequesterAdded",
			"type": "event"
		},
		{
			"anonymous": false,
			"inputs": [
				{
					"indexed": true,
					"internalType": "contract IDependencyRequester",
					"name": "contractAddress",
					"type": "address"
				}
			],
			"name": "DependencyRequesterUpgradeFailed",
			"type": "event"
		},
		{
			"anonymous": false,
			"inputs": [
				{
					"indexed": true,
					"internalType": "contract IDependencyRequester",
					"name": "contractInstance",
					"type": "address"
				}
			],
			"name": "DependencyRequesterUpgradeRequested",
			"type": "event"
		},
		{
			"anonymous": false,
			"inputs": [
				{
					"indexed": true,
					"internalType": "contract IDependencyRequester",
					"name": "contractInstance",
					"type": "address"
				}
			],
			"name": "DependencyRequesterUpgraded",
			"type": "event"
		},
		{
			"inputs": [
				{
					"internalType": "contract IDependencyRequester",
					"name": "dependency",
					"type": "address"
				}
			],
			"name": "addDependencyRequester",
			"outputs": [],
			"stateMutability": "nonpayable",
			"type": "function"
		},
		{
			"inputs": [
				{
					"internalType": "string",
					"name": "",
					"type": "string"
				}
			],
			"name": "approvedDependencies",
			"outputs": [
				{
					"internalType": "address",
					"name": "",
					"type": "address"
				}
			],
			"stateMutability": "view",
			"type": "function"
		},
		{
			"inputs": [
				{
					"internalType": "uint256",
					"name": "",
					"type": "uint256"
				}
			],
			"name": "approvedDependenciesKeys",
			"outputs": [
				{
					"internalType": "string",
					"name": "",
					"type": "string"
				}
			],
			"stateMutability": "view",
			"type": "function"
		},
		{
			"inputs": [],
			"name": "beforeEach",
			"outputs": [],
			"stateMutability": "nonpayable",
			"type": "function"
		},
		{
			"inputs": [
				{
					"internalType": "string",
					"name": "dependencyKey",
					"type": "string"
				},
				{
					"internalType": "string",
					"name": "functionSignature",
					"type": "string"
				},
				{
					"internalType": "bytes",
					"name": "data",
					"type": "bytes"
				}
			],
			"name": "callFunction",
			"outputs": [
				{
					"internalType": "bytes",
					"name": "",
					"type": "bytes"
				}
			],
			"stateMutability": "nonpayable",
			"type": "function"
		},
		{
			"inputs": [],
			"name": "dependencyRequester",
			"outputs": [
				{
					"internalType": "contract IDependencyRequester",
					"name": "",
					"type": "address"
				}
			],
			"stateMutability": "view",
			"type": "function"
		},
		{
			"inputs": [],
			"name": "deployer",
			"outputs": [
				{
					"internalType": "address",
					"name": "",
					"type": "address"
				}
			],
			"stateMutability": "view",
			"type": "function"
		},
		{
			"inputs": [
				{
					"internalType": "string",
					"name": "keyname",
					"type": "string"
				}
			],
			"name": "getDependencyAddress",
			"outputs": [
				{
					"internalType": "address",
					"name": "",
					"type": "address"
				}
			],
			"stateMutability": "view",
			"type": "function"
		},
		{
			"inputs": [],
			"name": "getDependencyKeys",
			"outputs": [
				{
					"internalType": "string[]",
					"name": "",
					"type": "string[]"
				}
			],
			"stateMutability": "view",
			"type": "function"
		},
		{
			"inputs": [],
			"name": "getPendingAprovalDependencyKeys",
			"outputs": [
				{
					"internalType": "string[]",
					"name": "",
					"type": "string[]"
				}
			],
			"stateMutability": "view",
			"type": "function"
		},
		{
			"inputs": [
				{
					"internalType": "string",
					"name": "",
					"type": "string"
				}
			],
			"name": "pendingApprovalDependencies",
			"outputs": [
				{
					"internalType": "uint256",
					"name": "",
					"type": "uint256"
				}
			],
			"stateMutability": "view",
			"type": "function"
		},
		{
			"inputs": [
				{
					"internalType": "uint256",
					"name": "",
					"type": "uint256"
				}
			],
			"name": "pendingApprovalDependenciesKeys",
			"outputs": [
				{
					"internalType": "string",
					"name": "",
					"type": "string"
				}
			],
			"stateMutability": "view",
			"type": "function"
		},
		{
			"inputs": [
				{
					"internalType": "string",
					"name": "",
					"type": "string"
				}
			],
			"name": "pendingRemovalDependencies",
			"outputs": [
				{
					"internalType": "uint256",
					"name": "",
					"type": "uint256"
				}
			],
			"stateMutability": "view",
			"type": "function"
		},
		{
			"inputs": [
				{
					"internalType": "uint256",
					"name": "",
					"type": "uint256"
				}
			],
			"name": "pendingRemovalDependenciesKeys",
			"outputs": [
				{
					"internalType": "string",
					"name": "",
					"type": "string"
				}
			],
			"stateMutability": "view",
			"type": "function"
		},
		{
			"inputs": [],
			"name": "pendingUpgradeForItself",
			"outputs": [
				{
					"internalType": "uint256",
					"name": "",
					"type": "uint256"
				}
			],
			"stateMutability": "view",
			"type": "function"
		},
		{
			"inputs": [
				{
					"internalType": "string",
					"name": "dependencyKey",
					"type": "string"
				},
				{
					"internalType": "address",
					"name": "contractAddress",
					"type": "address"
				}
			],
			"name": "requestDependencyAddition",
			"outputs": [],
			"stateMutability": "nonpayable",
			"type": "function"
		},
		{
			"inputs": [
				{
					"internalType": "string",
					"name": "dependencyKey",
					"type": "string"
				},
				{
					"internalType": "address",
					"name": "contractAddress",
					"type": "address"
				}
			],
			"name": "requestDependencyRemoval",
			"outputs": [],
			"stateMutability": "nonpayable",
			"type": "function"
		},
		{
			"inputs": [
				{
					"internalType": "contract IDependencyRequester",
					"name": "upgradedDependencyRequester",
					"type": "address"
				}
			],
			"name": "requestUpgradeDependencyRequester",
			"outputs": [],
			"stateMutability": "nonpayable",
			"type": "function"
		},
		{
			"inputs": [],
			"name": "testNonDeployerCannotAddDependencyRequester",
			"outputs": [],
			"stateMutability": "nonpayable",
			"type": "function"
		},
		{
			"inputs": [],
			"name": "updateDependencies",
			"outputs": [],
			"stateMutability": "nonpayable",
			"type": "function"
		}
	]
}