{
	"data": {
		"bytecode": {
			"linkReferences": {},
			"object": "6080604052600160035560016004556001600555348015601d575f5ffd5b5061051c8061002b5f395ff3fe608060405234801561000f575f5ffd5b5060043610610090575f3560e01c80634f6e1b27116100635780634f6e1b271461014f57806355b01dab1461019557806379c1b845146101f05780637c4e7cb514610249578063b986f179146102a1575f5ffd5b806307ec40431461009457806316c1076f146100ba5780631d59a3aa146100cd5780632ad51b96146100e0575b5f5ffd5b6100a76100a236600461037d565b6102fd565b6040519081526020015b60405180910390f35b6100a76100c8366004610441565b610318565b6100a76100db36600461037d565b610332565b6101286100ee366004610463565b5f81815260026020908152604080832081518083019092525460ff8082161515808452610100909204161515919092018190529193909250565b604080516001600160a01b03909416845291151560208401521515908201526060016100b1565b61012861015d366004610463565b5f8181526020818152604080832081518083019092525460ff8082161515808452610100909204161515919092018190529193909250565b6101ee6101a3366004610489565b604080518082018252921515835290151560208084019182525f94855260019052922090518154925161ffff1990931690151561ff0019161761010092151592909202919091179055565b005b6101ee6101fe366004610489565b604080518082018252921515835290151560208084019182525f94855260029052922090518154925161ffff1990931690151561ff0019161761010092151592909202919091179055565b6101ee610257366004610489565b604080518082018252921515835290151560208084019182525f948552849052922090518154925161ffff1990931690151561ff0019161761010092151592909202919091179055565b6102e66102af366004610463565b5f9081526001602090815260409182902082518084019093525460ff80821615158085526101009092041615159290910182905291565b6040805192151583529015156020830152016100b1565b600480545f918261030d836104c2565b909155509392505050565b600580545f9182610328836104c2565b9091555092915050565b600380545f918261030d836104c2565b634e487b7160e01b5f52604160045260245ffd5b6001600160a01b038116811461036a575f5ffd5b50565b803561037881610356565b919050565b5f5f6040838503121561038e575f5ffd5b823567ffffffffffffffff8111156103a4575f5ffd5b8301601f810185136103b4575f5ffd5b803567ffffffffffffffff8111156103ce576103ce610342565b604051601f8201601f19908116603f0116810167ffffffffffffffff811182821017156103fd576103fd610342565b604052818152828201602001871015610414575f5ffd5b816020840160208301375f602083830101528094505050506104386020840161036d565b90509250929050565b5f60208284031215610451575f5ffd5b813561045c81610356565b9392505050565b5f60208284031215610473575f5ffd5b5035919050565b80358015158114610378575f5ffd5b5f5f5f6060848603121561049b575f5ffd5b833592506104ab6020850161047a565b91506104b96040850161047a565b90509250925092565b5f600182016104df57634e487b7160e01b5f52601160045260245ffd5b506001019056fea2646970667358221220c41bbae0243a21e4ff45ea21cd460b5d25d96581fdacbd04b996148c50fb38aa64736f6c634300081c0033",
			"opcodes": "PUSH1 0x80 PUSH1 0x40 MSTORE PUSH1 0x1 PUSH1 0x3 SSTORE PUSH1 0x1 PUSH1 0x4 SSTORE PUSH1 0x1 PUSH1 0x5 SSTORE CALLVALUE DUP1 ISZERO PUSH1 0x1D JUMPI PUSH0 PUSH0 REVERT JUMPDEST POP PUSH2 0x51C DUP1 PUSH2 0x2B PUSH0 CODECOPY PUSH0 RETURN INVALID PUSH1 0x80 PUSH1 0x40 MSTORE CALLVALUE DUP1 ISZERO PUSH2 0xF JUMPI PUSH0 PUSH0 REVERT JUMPDEST POP PUSH1 0x4 CALLDATASIZE LT PUSH2 0x90 JUMPI PUSH0 CALLDATALOAD PUSH1 0xE0 SHR DUP1 PUSH4 0x4F6E1B27 GT PUSH2 0x63 JUMPI DUP1 PUSH4 0x4F6E1B27 EQ PUSH2 0x14F JUMPI DUP1 PUSH4 0x55B01DAB EQ PUSH2 0x195 JUMPI DUP1 PUSH4 0x79C1B845 EQ PUSH2 0x1F0 JUMPI DUP1 PUSH4 0x7C4E7CB5 EQ PUSH2 0x249 JUMPI DUP1 PUSH4 0xB986F179 EQ PUSH2 0x2A1 JUMPI PUSH0 PUSH0 REVERT JUMPDEST DUP1 PUSH4 0x7EC4043 EQ PUSH2 0x94 JUMPI DUP1 PUSH4 0x16C1076F EQ PUSH2 0xBA JUMPI DUP1 PUSH4 0x1D59A3AA EQ PUSH2 0xCD JUMPI DUP1 PUSH4 0x2AD51B96 EQ PUSH2 0xE0 JUMPI JUMPDEST PUSH0 PUSH0 REVERT JUMPDEST PUSH2 0xA7 PUSH2 0xA2 CALLDATASIZE PUSH1 0x4 PUSH2 0x37D JUMP JUMPDEST PUSH2 0x2FD JUMP JUMPDEST PUSH1 0x40 MLOAD SWAP1 DUP2 MSTORE PUSH1 0x20 ADD JUMPDEST PUSH1 0x40 MLOAD DUP1 SWAP2 SUB SWAP1 RETURN JUMPDEST PUSH2 0xA7 PUSH2 0xC8 CALLDATASIZE PUSH1 0x4 PUSH2 0x441 JUMP JUMPDEST PUSH2 0x318 JUMP JUMPDEST PUSH2 0xA7 PUSH2 0xDB CALLDATASIZE PUSH1 0x4 PUSH2 0x37D JUMP JUMPDEST PUSH2 0x332 JUMP JUMPDEST PUSH2 0x128 PUSH2 0xEE CALLDATASIZE PUSH1 0x4 PUSH2 0x463 JUMP JUMPDEST PUSH0 DUP2 DUP2 MSTORE PUSH1 0x2 PUSH1 0x20 SWAP1 DUP2 MSTORE PUSH1 0x40 DUP1 DUP4 KECCAK256 DUP2 MLOAD DUP1 DUP4 ADD SWAP1 SWAP3 MSTORE SLOAD PUSH1 0xFF DUP1 DUP3 AND ISZERO ISZERO DUP1 DUP5 MSTORE PUSH2 0x100 SWAP1 SWAP3 DIV AND ISZERO ISZERO SWAP2 SWAP1 SWAP3 ADD DUP2 SWAP1 MSTORE SWAP2 SWAP4 SWAP1 SWAP3 POP JUMP JUMPDEST PUSH1 0x40 DUP1 MLOAD PUSH1 0x1 PUSH1 0x1 PUSH1 0xA0 SHL SUB SWAP1 SWAP5 AND DUP5 MSTORE SWAP2 ISZERO ISZERO PUSH1 0x20 DUP5 ADD MSTORE ISZERO ISZERO SWAP1 DUP3 ADD MSTORE PUSH1 0x60 ADD PUSH2 0xB1 JUMP JUMPDEST PUSH2 0x128 PUSH2 0x15D CALLDATASIZE PUSH1 0x4 PUSH2 0x463 JUMP JUMPDEST PUSH0 DUP2 DUP2 MSTORE PUSH1 0x20 DUP2 DUP2 MSTORE PUSH1 0x40 DUP1 DUP4 KECCAK256 DUP2 MLOAD DUP1 DUP4 ADD SWAP1 SWAP3 MSTORE SLOAD PUSH1 0xFF DUP1 DUP3 AND ISZERO ISZERO DUP1 DUP5 MSTORE PUSH2 0x100 SWAP1 SWAP3 DIV AND ISZERO ISZERO SWAP2 SWAP1 SWAP3 ADD DUP2 SWAP1 MSTORE SWAP2 SWAP4 SWAP1 SWAP3 POP JUMP JUMPDEST PUSH2 0x1EE PUSH2 0x1A3 CALLDATASIZE PUSH1 0x4 PUSH2 0x489 JUMP JUMPDEST PUSH1 0x40 DUP1 MLOAD DUP1 DUP3 ADD DUP3 MSTORE SWAP3 ISZERO ISZERO DUP4 MSTORE SWAP1 ISZERO ISZERO PUSH1 0x20 DUP1 DUP5 ADD SWAP2 DUP3 MSTORE PUSH0 SWAP5 DUP6 MSTORE PUSH1 0x1 SWAP1 MSTORE SWAP3 KECCAK256 SWAP1 MLOAD DUP2 SLOAD SWAP3 MLOAD PUSH2 0xFFFF NOT SWAP1 SWAP4 AND SWAP1 ISZERO ISZERO PUSH2 0xFF00 NOT AND OR PUSH2 0x100 SWAP3 ISZERO ISZERO SWAP3 SWAP1 SWAP3 MUL SWAP2 SWAP1 SWAP2 OR SWAP1 SSTORE JUMP JUMPDEST STOP JUMPDEST PUSH2 0x1EE PUSH2 0x1FE CALLDATASIZE PUSH1 0x4 PUSH2 0x489 JUMP JUMPDEST PUSH1 0x40 DUP1 MLOAD DUP1 DUP3 ADD DUP3 MSTORE SWAP3 ISZERO ISZERO DUP4 MSTORE SWAP1 ISZERO ISZERO PUSH1 0x20 DUP1 DUP5 ADD SWAP2 DUP3 MSTORE PUSH0 SWAP5 DUP6 MSTORE PUSH1 0x2 SWAP1 MSTORE SWAP3 KECCAK256 SWAP1 MLOAD DUP2 SLOAD SWAP3 MLOAD PUSH2 0xFFFF NOT SWAP1 SWAP4 AND SWAP1 ISZERO ISZERO PUSH2 0xFF00 NOT AND OR PUSH2 0x100 SWAP3 ISZERO ISZERO SWAP3 SWAP1 SWAP3 MUL SWAP2 SWAP1 SWAP2 OR SWAP1 SSTORE JUMP JUMPDEST PUSH2 0x1EE PUSH2 0x257 CALLDATASIZE PUSH1 0x4 PUSH2 0x489 JUMP JUMPDEST PUSH1 0x40 DUP1 MLOAD DUP1 DUP3 ADD DUP3 MSTORE SWAP3 ISZERO ISZERO DUP4 MSTORE SWAP1 ISZERO ISZERO PUSH1 0x20 DUP1 DUP5 ADD SWAP2 DUP3 MSTORE PUSH0 SWAP5 DUP6 MSTORE DUP5 SWAP1 MSTORE SWAP3 KECCAK256 SWAP1 MLOAD DUP2 SLOAD SWAP3 MLOAD PUSH2 0xFFFF NOT SWAP1 SWAP4 AND SWAP1 ISZERO ISZERO PUSH2 0xFF00 NOT AND OR PUSH2 0x100 SWAP3 ISZERO ISZERO SWAP3 SWAP1 SWAP3 MUL SWAP2 SWAP1 SWAP2 OR SWAP1 SSTORE JUMP JUMPDEST PUSH2 0x2E6 PUSH2 0x2AF CALLDATASIZE PUSH1 0x4 PUSH2 0x463 JUMP JUMPDEST PUSH0 SWAP1 DUP2 MSTORE PUSH1 0x1 PUSH1 0x20 SWAP1 DUP2 MSTORE PUSH1 0x40 SWAP2 DUP3 SWAP1 KECCAK256 DUP3 MLOAD DUP1 DUP5 ADD SWAP1 SWAP4 MSTORE SLOAD PUSH1 0xFF DUP1 DUP3 AND ISZERO ISZERO DUP1 DUP6 MSTORE PUSH2 0x100 SWAP1 SWAP3 DIV AND ISZERO ISZERO SWAP3 SWAP1 SWAP2 ADD DUP3 SWAP1 MSTORE SWAP2 JUMP JUMPDEST PUSH1 0x40 DUP1 MLOAD SWAP3 ISZERO ISZERO DUP4 MSTORE SWAP1 ISZERO ISZERO PUSH1 0x20 DUP4 ADD MSTORE ADD PUSH2 0xB1 JUMP JUMPDEST PUSH1 0x4 DUP1 SLOAD PUSH0 SWAP2 DUP3 PUSH2 0x30D DUP4 PUSH2 0x4C2 JUMP JUMPDEST SWAP1 SWAP2 SSTORE POP SWAP4 SWAP3 POP POP POP JUMP JUMPDEST PUSH1 0x5 DUP1 SLOAD PUSH0 SWAP2 DUP3 PUSH2 0x328 DUP4 PUSH2 0x4C2 JUMP JUMPDEST SWAP1 SWAP2 SSTORE POP SWAP3 SWAP2 POP POP JUMP JUMPDEST PUSH1 0x3 DUP1 SLOAD PUSH0 SWAP2 DUP3 PUSH2 0x30D DUP4 PUSH2 0x4C2 JUMP JUMPDEST PUSH4 0x4E487B71 PUSH1 0xE0 SHL PUSH0 MSTORE PUSH1 0x41 PUSH1 0x4 MSTORE PUSH1 0x24 PUSH0 REVERT JUMPDEST PUSH1 0x1 PUSH1 0x1 PUSH1 0xA0 SHL SUB DUP2 AND DUP2 EQ PUSH2 0x36A JUMPI PUSH0 PUSH0 REVERT JUMPDEST POP JUMP JUMPDEST DUP1 CALLDATALOAD PUSH2 0x378 DUP2 PUSH2 0x356 JUMP JUMPDEST SWAP2 SWAP1 POP JUMP JUMPDEST PUSH0 PUSH0 PUSH1 0x40 DUP4 DUP6 SUB SLT ISZERO PUSH2 0x38E JUMPI PUSH0 PUSH0 REVERT JUMPDEST DUP3 CALLDATALOAD PUSH8 0xFFFFFFFFFFFFFFFF DUP2 GT ISZERO PUSH2 0x3A4 JUMPI PUSH0 PUSH0 REVERT JUMPDEST DUP4 ADD PUSH1 0x1F DUP2 ADD DUP6 SGT PUSH2 0x3B4 JUMPI PUSH0 PUSH0 REVERT JUMPDEST DUP1 CALLDATALOAD PUSH8 0xFFFFFFFFFFFFFFFF DUP2 GT ISZERO PUSH2 0x3CE JUMPI PUSH2 0x3CE PUSH2 0x342 JUMP JUMPDEST PUSH1 0x40 MLOAD PUSH1 0x1F DUP3 ADD PUSH1 0x1F NOT SWAP1 DUP2 AND PUSH1 0x3F ADD AND DUP2 ADD PUSH8 0xFFFFFFFFFFFFFFFF DUP2 GT DUP3 DUP3 LT OR ISZERO PUSH2 0x3FD JUMPI PUSH2 0x3FD PUSH2 0x342 JUMP JUMPDEST PUSH1 0x40 MSTORE DUP2 DUP2 MSTORE DUP3 DUP3 ADD PUSH1 0x20 ADD DUP8 LT ISZERO PUSH2 0x414 JUMPI PUSH0 PUSH0 REVERT JUMPDEST DUP2 PUSH1 0x20 DUP5 ADD PUSH1 0x20 DUP4 ADD CALLDATACOPY PUSH0 PUSH1 0x20 DUP4 DUP4 ADD ADD MSTORE DUP1 SWAP5 POP POP POP POP PUSH2 0x438 PUSH1 0x20 DUP5 ADD PUSH2 0x36D JUMP JUMPDEST SWAP1 POP SWAP3 POP SWAP3 SWAP1 POP JUMP JUMPDEST PUSH0 PUSH1 0x20 DUP3 DUP5 SUB SLT ISZERO PUSH2 0x451 JUMPI PUSH0 PUSH0 REVERT JUMPDEST DUP2 CALLDATALOAD PUSH2 0x45C DUP2 PUSH2 0x356 JUMP JUMPDEST SWAP4 SWAP3 POP POP POP JUMP JUMPDEST PUSH0 PUSH1 0x20 DUP3 DUP5 SUB SLT ISZERO PUSH2 0x473 JUMPI PUSH0 PUSH0 REVERT JUMPDEST POP CALLDATALOAD SWAP2 SWAP1 POP JUMP JUMPDEST DUP1 CALLDATALOAD DUP1 ISZERO ISZERO DUP2 EQ PUSH2 0x378 JUMPI PUSH0 PUSH0 REVERT JUMPDEST PUSH0 PUSH0 PUSH0 PUSH1 0x60 DUP5 DUP7 SUB SLT ISZERO PUSH2 0x49B JUMPI PUSH0 PUSH0 REVERT JUMPDEST DUP4 CALLDATALOAD SWAP3 POP PUSH2 0x4AB PUSH1 0x20 DUP6 ADD PUSH2 0x47A JUMP JUMPDEST SWAP2 POP PUSH2 0x4B9 PUSH1 0x40 DUP6 ADD PUSH2 0x47A JUMP JUMPDEST SWAP1 POP SWAP3 POP SWAP3 POP SWAP3 JUMP JUMPDEST PUSH0 PUSH1 0x1 DUP3 ADD PUSH2 0x4DF JUMPI PUSH4 0x4E487B71 PUSH1 0xE0 SHL PUSH0 MSTORE PUSH1 0x11 PUSH1 0x4 MSTORE PUSH1 0x24 PUSH0 REVERT JUMPDEST POP PUSH1 0x1 ADD SWAP1 JUMP INVALID LOG2 PUSH5 0x6970667358 0x22 SLT KECCAK256 0xC4 SHL 0xBA 0xE0 0x24 GASPRICE 0x21 0xE4 SELFDESTRUCT GASLIMIT 0xEA 0x21 0xCD CHAINID SIGNEXTEND TSTORE 0x25 0xD9 PUSH6 0x81FDACBD04B9 SWAP7 EQ DUP13 POP 0xFB CODESIZE 0xAA PUSH5 0x736F6C6343 STOP ADDMOD SHR STOP CALLER "
		},
		"gasEstimates": {
			"creation": {
				"codeDepositCost": "261600",
				"executionCost": "66616",
				"totalCost": "328216"
			},
			"external": {
				"isRequestAdditionPositive(uint256)": "2622",
				"isRequestRemovalPositive(uint256)": "2666",
				"isRequestUpgradePositive(uint256)": "2692",
				"requestAddition(string,address)": "infinite",
				"requestRemoval(string,address)": "infinite",
				"requestUpgradeDependencyRequester(address)": "24658",
				"setAdditionOutcome(uint256,bool,bool)": "infinite",
				"setRemovalOutcome(uint256,bool,bool)": "infinite",
				"setUpgradeOutcome(uint256,bool,bool)": "infinite"
			}
		},
		"methodIdentifiers": {
			"isRequestAdditionPositive(uint256)": "4f6e1b27",
			"isRequestRemovalPositive(uint256)": "b986f179",
			"isRequestUpgradePositive(uint256)": "2ad51b96",
			"requestAddition(string,address)": "1d59a3aa",
			"requestRemoval(string,address)": "07ec4043",
			"requestUpgradeDependencyRequester(address)": "16c1076f",
			"setAdditionOutcome(uint256,bool,bool)": "7c4e7cb5",
			"setRemovalOutcome(uint256,bool,bool)": "55b01dab",
			"setUpgradeOutcome(uint256,bool,bool)": "79c1b845"
		}
	},
	"abi": [
		{
			"inputs": [
				{
					"internalType": "uint256",
					"name": "identifier",
					"type": "uint256"
				}
			],
			"name": "isRequestAdditionPositive",
			"outputs": [
				{
					"internalType": "address",
					"name": "",
					"type": "address"
				},
				{
					"internalType": "bool",
					"name": "",
					"type": "bool"
				},
				{
					"internalType": "bool",
					"name": "",
					"type": "bool"
				}
			],
			"stateMutability": "view",
			"type": "function"
		},
		{
			"inputs": [
				{
					"internalType": "uint256",
					"name": "identifier",
					"type": "uint256"
				}
			],
			"name": "isRequestRemovalPositive",
			"outputs": [
				{
					"internalType": "bool",
					"name": "",
					"type": "bool"
				},
				{
					"internalType": "bool",
					"name": "",
					"type": "bool"
				}
			],
			"stateMutability": "view",
			"type": "function"
		},
		{
			"inputs": [
				{
					"internalType": "uint256",
					"name": "identifier",
					"type": "uint256"
				}
			],
			"name": "isRequestUpgradePositive",
			"outputs": [
				{
					"internalType": "contract IDependencyRequester",
					"name": "",
					"type": "address"
				},
				{
					"internalType": "bool",
					"name": "",
					"type": "bool"
				},
				{
					"internalType": "bool",
					"name": "",
					"type": "bool"
				}
			],
			"stateMutability": "view",
			"type": "function"
		},
		{
			"inputs": [
				{
					"internalType": "string",
					"name": "",
					"type": "string"
				},
				{
					"internalType": "address",
					"name": "",
					"type": "address"
				}
			],
			"name": "requestAddition",
			"outputs": [
				{
					"internalType": "uint256",
					"name": "",
					"type": "uint256"
				}
			],
			"stateMutability": "nonpayable",
			"type": "function"
		},
		{
			"inputs": [
				{
					"internalType": "string",
					"name": "",
					"type": "string"
				},
				{
					"internalType": "address",
					"name": "",
					"type": "address"
				}
			],
			"name": "requestRemoval",
			"outputs": [
				{
					"internalType": "uint256",
					"name": "",
					"type": "uint256"
				}
			],
			"stateMutability": "nonpayable",
			"type": "function"
		},
		{
			"inputs": [
				{
					"internalType": "contract IDependencyRequester",
					"name": "",
					"type": "address"
				}
			],
			"name": "requestUpgradeDependencyRequester",
			"outputs": [
				{
					"internalType": "uint256",
					"name": "",
					"type": "uint256"
				}
			],
			"stateMutability": "nonpayable",
			"type": "function"
		},
		{
			"inputs": [
				{
					"internalType": "uint256",
					"name": "identifier",
					"type": "uint256"
				},
				{
					"internalType": "bool",
					"name": "isVoteFinished",
					"type": "bool"
				},
				{
					"internalType": "bool",
					"name": "isApproved",
					"type": "bool"
				}
			],
			"name": "setAdditionOutcome",
			"outputs": [],
			"stateMutability": "nonpayable",
			"type": "function"
		},
		{
			"inputs": [
				{
					"internalType": "uint256",
					"name": "identifier",
					"type": "uint256"
				},
				{
					"internalType": "bool",
					"name": "isVoteFinished",
					"type": "bool"
				},
				{
					"internalType": "bool",
					"name": "isApproved",
					"type": "bool"
				}
			],
			"name": "setRemovalOutcome",
			"outputs": [],
			"stateMutability": "nonpayable",
			"type": "function"
		},
		{
			"inputs": [
				{
					"internalType": "uint256",
					"name": "identifier",
					"type": "uint256"
				},
				{
					"internalType": "bool",
					"name": "isVoteFinished",
					"type": "bool"
				},
				{
					"internalType": "bool",
					"name": "isApproved",
					"type": "bool"
				}
			],
			"name": "setUpgradeOutcome",
			"outputs": [],
			"stateMutability": "nonpayable",
			"type": "function"
		}
	]
}