{
  "_format": "hh-sol-artifact-1",
  "contractName": "LegitDAOGovernor",
  "sourceName": "contracts/governors/LegitDAO.sol",
  "abi": [
    {
      "inputs": [],
      "stateMutability": "nonpayable",
      "type": "constructor"
    },
    {
      "inputs": [
        {
          "internalType": "address",
          "name": "target",
          "type": "address"
        }
      ],
      "name": "AddressEmptyCode",
      "type": "error"
    },
    {
      "inputs": [],
      "name": "CheckpointUnorderedInsertion",
      "type": "error"
    },
    {
      "inputs": [
        {
          "internalType": "address",
          "name": "implementation",
          "type": "address"
        }
      ],
      "name": "ERC1967InvalidImplementation",
      "type": "error"
    },
    {
      "inputs": [],
      "name": "ERC1967NonPayable",
      "type": "error"
    },
    {
      "inputs": [],
      "name": "FailedCall",
      "type": "error"
    },
    {
      "inputs": [
        {
          "internalType": "address",
          "name": "voter",
          "type": "address"
        }
      ],
      "name": "GovernorAlreadyCastVote",
      "type": "error"
    },
    {
      "inputs": [
        {
          "internalType": "uint256",
          "name": "proposalId",
          "type": "uint256"
        }
      ],
      "name": "GovernorAlreadyQueuedProposal",
      "type": "error"
    },
    {
      "inputs": [],
      "name": "GovernorDisabledDeposit",
      "type": "error"
    },
    {
      "inputs": [
        {
          "internalType": "address",
          "name": "proposer",
          "type": "address"
        },
        {
          "internalType": "uint256",
          "name": "votes",
          "type": "uint256"
        },
        {
          "internalType": "uint256",
          "name": "threshold",
          "type": "uint256"
        }
      ],
      "name": "GovernorInsufficientProposerVotes",
      "type": "error"
    },
    {
      "inputs": [
        {
          "internalType": "uint256",
          "name": "targets",
          "type": "uint256"
        },
        {
          "internalType": "uint256",
          "name": "calldatas",
          "type": "uint256"
        },
        {
          "internalType": "uint256",
          "name": "values",
          "type": "uint256"
        }
      ],
      "name": "GovernorInvalidProposalLength",
      "type": "error"
    },
    {
      "inputs": [
        {
          "internalType": "uint256",
          "name": "quorumNumerator",
          "type": "uint256"
        },
        {
          "internalType": "uint256",
          "name": "quorumDenominator",
          "type": "uint256"
        }
      ],
      "name": "GovernorInvalidQuorumFraction",
      "type": "error"
    },
    {
      "inputs": [
        {
          "internalType": "address",
          "name": "voter",
          "type": "address"
        }
      ],
      "name": "GovernorInvalidSignature",
      "type": "error"
    },
    {
      "inputs": [],
      "name": "GovernorInvalidVoteParams",
      "type": "error"
    },
    {
      "inputs": [],
      "name": "GovernorInvalidVoteType",
      "type": "error"
    },
    {
      "inputs": [
        {
          "internalType": "uint256",
          "name": "votingPeriod",
          "type": "uint256"
        }
      ],
      "name": "GovernorInvalidVotingPeriod",
      "type": "error"
    },
    {
      "inputs": [
        {
          "internalType": "uint256",
          "name": "proposalId",
          "type": "uint256"
        }
      ],
      "name": "GovernorNonexistentProposal",
      "type": "error"
    },
    {
      "inputs": [
        {
          "internalType": "uint256",
          "name": "proposalId",
          "type": "uint256"
        }
      ],
      "name": "GovernorNotQueuedProposal",
      "type": "error"
    },
    {
      "inputs": [
        {
          "internalType": "address",
          "name": "account",
          "type": "address"
        }
      ],
      "name": "GovernorOnlyExecutor",
      "type": "error"
    },
    {
      "inputs": [
        {
          "internalType": "address",
          "name": "account",
          "type": "address"
        }
      ],
      "name": "GovernorOnlyProposer",
      "type": "error"
    },
    {
      "inputs": [],
      "name": "GovernorQueueNotImplemented",
      "type": "error"
    },
    {
      "inputs": [
        {
          "internalType": "address",
          "name": "proposer",
          "type": "address"
        }
      ],
      "name": "GovernorRestrictedProposer",
      "type": "error"
    },
    {
      "inputs": [
        {
          "internalType": "uint256",
          "name": "proposalId",
          "type": "uint256"
        },
        {
          "internalType": "enum IGovernor.ProposalState",
          "name": "current",
          "type": "uint8"
        },
        {
          "internalType": "bytes32",
          "name": "expectedStates",
          "type": "bytes32"
        }
      ],
      "name": "GovernorUnexpectedProposalState",
      "type": "error"
    },
    {
      "inputs": [
        {
          "internalType": "address",
          "name": "account",
          "type": "address"
        },
        {
          "internalType": "uint256",
          "name": "currentNonce",
          "type": "uint256"
        }
      ],
      "name": "InvalidAccountNonce",
      "type": "error"
    },
    {
      "inputs": [],
      "name": "InvalidInitialization",
      "type": "error"
    },
    {
      "inputs": [],
      "name": "NotInitializing",
      "type": "error"
    },
    {
      "inputs": [
        {
          "internalType": "address",
          "name": "owner",
          "type": "address"
        }
      ],
      "name": "OwnableInvalidOwner",
      "type": "error"
    },
    {
      "inputs": [
        {
          "internalType": "address",
          "name": "account",
          "type": "address"
        }
      ],
      "name": "OwnableUnauthorizedAccount",
      "type": "error"
    },
    {
      "inputs": [
        {
          "internalType": "uint8",
          "name": "bits",
          "type": "uint8"
        },
        {
          "internalType": "uint256",
          "name": "value",
          "type": "uint256"
        }
      ],
      "name": "SafeCastOverflowedUintDowncast",
      "type": "error"
    },
    {
      "inputs": [],
      "name": "UUPSUnauthorizedCallContext",
      "type": "error"
    },
    {
      "inputs": [
        {
          "internalType": "bytes32",
          "name": "slot",
          "type": "bytes32"
        }
      ],
      "name": "UUPSUnsupportedProxiableUUID",
      "type": "error"
    },
    {
      "anonymous": false,
      "inputs": [],
      "name": "EIP712DomainChanged",
      "type": "event"
    },
    {
      "anonymous": false,
      "inputs": [
        {
          "indexed": false,
          "internalType": "uint64",
          "name": "version",
          "type": "uint64"
        }
      ],
      "name": "Initialized",
      "type": "event"
    },
    {
      "anonymous": false,
      "inputs": [
        {
          "indexed": true,
          "internalType": "address",
          "name": "previousOwner",
          "type": "address"
        },
        {
          "indexed": true,
          "internalType": "address",
          "name": "newOwner",
          "type": "address"
        }
      ],
      "name": "OwnershipTransferred",
      "type": "event"
    },
    {
      "anonymous": false,
      "inputs": [
        {
          "indexed": false,
          "internalType": "uint256",
          "name": "proposalId",
          "type": "uint256"
        }
      ],
      "name": "ProposalCanceled",
      "type": "event"
    },
    {
      "anonymous": false,
      "inputs": [
        {
          "indexed": false,
          "internalType": "uint256",
          "name": "proposalId",
          "type": "uint256"
        },
        {
          "indexed": false,
          "internalType": "address",
          "name": "proposer",
          "type": "address"
        },
        {
          "indexed": false,
          "internalType": "address[]",
          "name": "targets",
          "type": "address[]"
        },
        {
          "indexed": false,
          "internalType": "uint256[]",
          "name": "values",
          "type": "uint256[]"
        },
        {
          "indexed": false,
          "internalType": "string[]",
          "name": "signatures",
          "type": "string[]"
        },
        {
          "indexed": false,
          "internalType": "bytes[]",
          "name": "calldatas",
          "type": "bytes[]"
        },
        {
          "indexed": false,
          "internalType": "uint256",
          "name": "voteStart",
          "type": "uint256"
        },
        {
          "indexed": false,
          "internalType": "uint256",
          "name": "voteEnd",
          "type": "uint256"
        },
        {
          "indexed": false,
          "internalType": "string",
          "name": "description",
          "type": "string"
        }
      ],
      "name": "ProposalCreated",
      "type": "event"
    },
    {
      "anonymous": false,
      "inputs": [
        {
          "indexed": false,
          "internalType": "uint256",
          "name": "proposalId",
          "type": "uint256"
        }
      ],
      "name": "ProposalExecuted",
      "type": "event"
    },
    {
      "anonymous": false,
      "inputs": [
        {
          "indexed": false,
          "internalType": "uint256",
          "name": "proposalId",
          "type": "uint256"
        },
        {
          "indexed": false,
          "internalType": "uint256",
          "name": "etaSeconds",
          "type": "uint256"
        }
      ],
      "name": "ProposalQueued",
      "type": "event"
    },
    {
      "anonymous": false,
      "inputs": [
        {
          "indexed": false,
          "internalType": "uint256",
          "name": "oldProposalThreshold",
          "type": "uint256"
        },
        {
          "indexed": false,
          "internalType": "uint256",
          "name": "newProposalThreshold",
          "type": "uint256"
        }
      ],
      "name": "ProposalThresholdSet",
      "type": "event"
    },
    {
      "anonymous": false,
      "inputs": [
        {
          "indexed": false,
          "internalType": "uint256",
          "name": "oldQuorumNumerator",
          "type": "uint256"
        },
        {
          "indexed": false,
          "internalType": "uint256",
          "name": "newQuorumNumerator",
          "type": "uint256"
        }
      ],
      "name": "QuorumNumeratorUpdated",
      "type": "event"
    },
    {
      "anonymous": false,
      "inputs": [
        {
          "indexed": false,
          "internalType": "address",
          "name": "oldTimelock",
          "type": "address"
        },
        {
          "indexed": false,
          "internalType": "address",
          "name": "newTimelock",
          "type": "address"
        }
      ],
      "name": "TimelockChange",
      "type": "event"
    },
    {
      "anonymous": false,
      "inputs": [
        {
          "indexed": true,
          "internalType": "address",
          "name": "implementation",
          "type": "address"
        }
      ],
      "name": "Upgraded",
      "type": "event"
    },
    {
      "anonymous": false,
      "inputs": [
        {
          "indexed": true,
          "internalType": "address",
          "name": "voter",
          "type": "address"
        },
        {
          "indexed": false,
          "internalType": "uint256",
          "name": "proposalId",
          "type": "uint256"
        },
        {
          "indexed": false,
          "internalType": "uint8",
          "name": "support",
          "type": "uint8"
        },
        {
          "indexed": false,
          "internalType": "uint256",
          "name": "weight",
          "type": "uint256"
        },
        {
          "indexed": false,
          "internalType": "string",
          "name": "reason",
          "type": "string"
        }
      ],
      "name": "VoteCast",
      "type": "event"
    },
    {
      "anonymous": false,
      "inputs": [
        {
          "indexed": true,
          "internalType": "address",
          "name": "voter",
          "type": "address"
        },
        {
          "indexed": false,
          "internalType": "uint256",
          "name": "proposalId",
          "type": "uint256"
        },
        {
          "indexed": false,
          "internalType": "uint8",
          "name": "support",
          "type": "uint8"
        },
        {
          "indexed": false,
          "internalType": "uint256",
          "name": "weight",
          "type": "uint256"
        },
        {
          "indexed": false,
          "internalType": "string",
          "name": "reason",
          "type": "string"
        },
        {
          "indexed": false,
          "internalType": "bytes",
          "name": "params",
          "type": "bytes"
        }
      ],
      "name": "VoteCastWithParams",
      "type": "event"
    },
    {
      "anonymous": false,
      "inputs": [
        {
          "indexed": false,
          "internalType": "uint256",
          "name": "oldVotingDelay",
          "type": "uint256"
        },
        {
          "indexed": false,
          "internalType": "uint256",
          "name": "newVotingDelay",
          "type": "uint256"
        }
      ],
      "name": "VotingDelaySet",
      "type": "event"
    },
    {
      "anonymous": false,
      "inputs": [
        {
          "indexed": false,
          "internalType": "uint256",
          "name": "oldVotingPeriod",
          "type": "uint256"
        },
        {
          "indexed": false,
          "internalType": "uint256",
          "name": "newVotingPeriod",
          "type": "uint256"
        }
      ],
      "name": "VotingPeriodSet",
      "type": "event"
    },
    {
      "inputs": [],
      "name": "BALLOT_TYPEHASH",
      "outputs": [
        {
          "internalType": "bytes32",
          "name": "",
          "type": "bytes32"
        }
      ],
      "stateMutability": "view",
      "type": "function"
    },
    {
      "inputs": [],
      "name": "CLOCK_MODE",
      "outputs": [
        {
          "internalType": "string",
          "name": "",
          "type": "string"
        }
      ],
      "stateMutability": "view",
      "type": "function"
    },
    {
      "inputs": [],
      "name": "COUNTING_MODE",
      "outputs": [
        {
          "internalType": "string",
          "name": "",
          "type": "string"
        }
      ],
      "stateMutability": "pure",
      "type": "function"
    },
    {
      "inputs": [],
      "name": "EXTENDED_BALLOT_TYPEHASH",
      "outputs": [
        {
          "internalType": "bytes32",
          "name": "",
          "type": "bytes32"
        }
      ],
      "stateMutability": "view",
      "type": "function"
    },
    {
      "inputs": [],
      "name": "UPGRADE_INTERFACE_VERSION",
      "outputs": [
        {
          "internalType": "string",
          "name": "",
          "type": "string"
        }
      ],
      "stateMutability": "view",
      "type": "function"
    },
    {
      "inputs": [
        {
          "internalType": "uint256",
          "name": "proposalId",
          "type": "uint256"
        }
      ],
      "name": "cancel",
      "outputs": [],
      "stateMutability": "nonpayable",
      "type": "function"
    },
    {
      "inputs": [
        {
          "internalType": "address[]",
          "name": "targets",
          "type": "address[]"
        },
        {
          "internalType": "uint256[]",
          "name": "values",
          "type": "uint256[]"
        },
        {
          "internalType": "bytes[]",
          "name": "calldatas",
          "type": "bytes[]"
        },
        {
          "internalType": "bytes32",
          "name": "descriptionHash",
          "type": "bytes32"
        }
      ],
      "name": "cancel",
      "outputs": [
        {
          "internalType": "uint256",
          "name": "",
          "type": "uint256"
        }
      ],
      "stateMutability": "nonpayable",
      "type": "function"
    },
    {
      "inputs": [
        {
          "internalType": "uint256",
          "name": "proposalId",
          "type": "uint256"
        },
        {
          "internalType": "uint8",
          "name": "support",
          "type": "uint8"
        }
      ],
      "name": "castVote",
      "outputs": [
        {
          "internalType": "uint256",
          "name": "",
          "type": "uint256"
        }
      ],
      "stateMutability": "nonpayable",
      "type": "function"
    },
    {
      "inputs": [
        {
          "internalType": "uint256",
          "name": "proposalId",
          "type": "uint256"
        },
        {
          "internalType": "uint8",
          "name": "support",
          "type": "uint8"
        },
        {
          "internalType": "address",
          "name": "voter",
          "type": "address"
        },
        {
          "internalType": "bytes",
          "name": "signature",
          "type": "bytes"
        }
      ],
      "name": "castVoteBySig",
      "outputs": [
        {
          "internalType": "uint256",
          "name": "",
          "type": "uint256"
        }
      ],
      "stateMutability": "nonpayable",
      "type": "function"
    },
    {
      "inputs": [
        {
          "internalType": "uint256",
          "name": "proposalId",
          "type": "uint256"
        },
        {
          "internalType": "uint8",
          "name": "support",
          "type": "uint8"
        },
        {
          "internalType": "string",
          "name": "reason",
          "type": "string"
        }
      ],
      "name": "castVoteWithReason",
      "outputs": [
        {
          "internalType": "uint256",
          "name": "",
          "type": "uint256"
        }
      ],
      "stateMutability": "nonpayable",
      "type": "function"
    },
    {
      "inputs": [
        {
          "internalType": "uint256",
          "name": "proposalId",
          "type": "uint256"
        },
        {
          "internalType": "uint8",
          "name": "support",
          "type": "uint8"
        },
        {
          "internalType": "string",
          "name": "reason",
          "type": "string"
        },
        {
          "internalType": "bytes",
          "name": "params",
          "type": "bytes"
        }
      ],
      "name": "castVoteWithReasonAndParams",
      "outputs": [
        {
          "internalType": "uint256",
          "name": "",
          "type": "uint256"
        }
      ],
      "stateMutability": "nonpayable",
      "type": "function"
    },
    {
      "inputs": [
        {
          "internalType": "uint256",
          "name": "proposalId",
          "type": "uint256"
        },
        {
          "internalType": "uint8",
          "name": "support",
          "type": "uint8"
        },
        {
          "internalType": "address",
          "name": "voter",
          "type": "address"
        },
        {
          "internalType": "string",
          "name": "reason",
          "type": "string"
        },
        {
          "internalType": "bytes",
          "name": "params",
          "type": "bytes"
        },
        {
          "internalType": "bytes",
          "name": "signature",
          "type": "bytes"
        }
      ],
      "name": "castVoteWithReasonAndParamsBySig",
      "outputs": [
        {
          "internalType": "uint256",
          "name": "",
          "type": "uint256"
        }
      ],
      "stateMutability": "nonpayable",
      "type": "function"
    },
    {
      "inputs": [],
      "name": "clock",
      "outputs": [
        {
          "internalType": "uint48",
          "name": "",
          "type": "uint48"
        }
      ],
      "stateMutability": "view",
      "type": "function"
    },
    {
      "inputs": [],
      "name": "eip712Domain",
      "outputs": [
        {
          "internalType": "bytes1",
          "name": "fields",
          "type": "bytes1"
        },
        {
          "internalType": "string",
          "name": "name",
          "type": "string"
        },
        {
          "internalType": "string",
          "name": "version",
          "type": "string"
        },
        {
          "internalType": "uint256",
          "name": "chainId",
          "type": "uint256"
        },
        {
          "internalType": "address",
          "name": "verifyingContract",
          "type": "address"
        },
        {
          "internalType": "bytes32",
          "name": "salt",
          "type": "bytes32"
        },
        {
          "internalType": "uint256[]",
          "name": "extensions",
          "type": "uint256[]"
        }
      ],
      "stateMutability": "view",
      "type": "function"
    },
    {
      "inputs": [
        {
          "internalType": "address[]",
          "name": "targets",
          "type": "address[]"
        },
        {
          "internalType": "uint256[]",
          "name": "values",
          "type": "uint256[]"
        },
        {
          "internalType": "bytes[]",
          "name": "calldatas",
          "type": "bytes[]"
        },
        {
          "internalType": "bytes32",
          "name": "descriptionHash",
          "type": "bytes32"
        }
      ],
      "name": "execute",
      "outputs": [
        {
          "internalType": "uint256",
          "name": "",
          "type": "uint256"
        }
      ],
      "stateMutability": "payable",
      "type": "function"
    },
    {
      "inputs": [
        {
          "internalType": "uint256",
          "name": "proposalId",
          "type": "uint256"
        }
      ],
      "name": "execute",
      "outputs": [],
      "stateMutability": "payable",
      "type": "function"
    },
    {
      "inputs": [
        {
          "internalType": "address",
          "name": "account",
          "type": "address"
        },
        {
          "internalType": "uint256",
          "name": "timepoint",
          "type": "uint256"
        }
      ],
      "name": "getVotes",
      "outputs": [
        {
          "internalType": "uint256",
          "name": "",
          "type": "uint256"
        }
      ],
      "stateMutability": "view",
      "type": "function"
    },
    {
      "inputs": [
        {
          "internalType": "address",
          "name": "account",
          "type": "address"
        },
        {
          "internalType": "uint256",
          "name": "timepoint",
          "type": "uint256"
        },
        {
          "internalType": "bytes",
          "name": "params",
          "type": "bytes"
        }
      ],
      "name": "getVotesWithParams",
      "outputs": [
        {
          "internalType": "uint256",
          "name": "",
          "type": "uint256"
        }
      ],
      "stateMutability": "view",
      "type": "function"
    },
    {
      "inputs": [
        {
          "internalType": "uint256",
          "name": "proposalId",
          "type": "uint256"
        },
        {
          "internalType": "address",
          "name": "account",
          "type": "address"
        }
      ],
      "name": "hasVoted",
      "outputs": [
        {
          "internalType": "bool",
          "name": "",
          "type": "bool"
        }
      ],
      "stateMutability": "view",
      "type": "function"
    },
    {
      "inputs": [
        {
          "internalType": "address[]",
          "name": "targets",
          "type": "address[]"
        },
        {
          "internalType": "uint256[]",
          "name": "values",
          "type": "uint256[]"
        },
        {
          "internalType": "bytes[]",
          "name": "calldatas",
          "type": "bytes[]"
        },
        {
          "internalType": "bytes32",
          "name": "descriptionHash",
          "type": "bytes32"
        }
      ],
      "name": "hashProposal",
      "outputs": [
        {
          "internalType": "uint256",
          "name": "",
          "type": "uint256"
        }
      ],
      "stateMutability": "pure",
      "type": "function"
    },
    {
      "inputs": [
        {
          "internalType": "contract IVotes",
          "name": "_token",
          "type": "address"
        },
        {
          "internalType": "contract TimelockControllerUpgradeable",
          "name": "_timelock",
          "type": "address"
        },
        {
          "internalType": "address",
          "name": "initialOwner",
          "type": "address"
        }
      ],
      "name": "initialize",
      "outputs": [],
      "stateMutability": "nonpayable",
      "type": "function"
    },
    {
      "inputs": [],
      "name": "name",
      "outputs": [
        {
          "internalType": "string",
          "name": "",
          "type": "string"
        }
      ],
      "stateMutability": "view",
      "type": "function"
    },
    {
      "inputs": [
        {
          "internalType": "address",
          "name": "owner",
          "type": "address"
        }
      ],
      "name": "nonces",
      "outputs": [
        {
          "internalType": "uint256",
          "name": "",
          "type": "uint256"
        }
      ],
      "stateMutability": "view",
      "type": "function"
    },
    {
      "inputs": [
        {
          "internalType": "address",
          "name": "",
          "type": "address"
        },
        {
          "internalType": "address",
          "name": "",
          "type": "address"
        },
        {
          "internalType": "uint256[]",
          "name": "",
          "type": "uint256[]"
        },
        {
          "internalType": "uint256[]",
          "name": "",
          "type": "uint256[]"
        },
        {
          "internalType": "bytes",
          "name": "",
          "type": "bytes"
        }
      ],
      "name": "onERC1155BatchReceived",
      "outputs": [
        {
          "internalType": "bytes4",
          "name": "",
          "type": "bytes4"
        }
      ],
      "stateMutability": "nonpayable",
      "type": "function"
    },
    {
      "inputs": [
        {
          "internalType": "address",
          "name": "",
          "type": "address"
        },
        {
          "internalType": "address",
          "name": "",
          "type": "address"
        },
        {
          "internalType": "uint256",
          "name": "",
          "type": "uint256"
        },
        {
          "internalType": "uint256",
          "name": "",
          "type": "uint256"
        },
        {
          "internalType": "bytes",
          "name": "",
          "type": "bytes"
        }
      ],
      "name": "onERC1155Received",
      "outputs": [
        {
          "internalType": "bytes4",
          "name": "",
          "type": "bytes4"
        }
      ],
      "stateMutability": "nonpayable",
      "type": "function"
    },
    {
      "inputs": [
        {
          "internalType": "address",
          "name": "",
          "type": "address"
        },
        {
          "internalType": "address",
          "name": "",
          "type": "address"
        },
        {
          "internalType": "uint256",
          "name": "",
          "type": "uint256"
        },
        {
          "internalType": "bytes",
          "name": "",
          "type": "bytes"
        }
      ],
      "name": "onERC721Received",
      "outputs": [
        {
          "internalType": "bytes4",
          "name": "",
          "type": "bytes4"
        }
      ],
      "stateMutability": "nonpayable",
      "type": "function"
    },
    {
      "inputs": [],
      "name": "owner",
      "outputs": [
        {
          "internalType": "address",
          "name": "",
          "type": "address"
        }
      ],
      "stateMutability": "view",
      "type": "function"
    },
    {
      "inputs": [],
      "name": "proposalCount",
      "outputs": [
        {
          "internalType": "uint256",
          "name": "",
          "type": "uint256"
        }
      ],
      "stateMutability": "view",
      "type": "function"
    },
    {
      "inputs": [
        {
          "internalType": "uint256",
          "name": "proposalId",
          "type": "uint256"
        }
      ],
      "name": "proposalDeadline",
      "outputs": [
        {
          "internalType": "uint256",
          "name": "",
          "type": "uint256"
        }
      ],
      "stateMutability": "view",
      "type": "function"
    },
    {
      "inputs": [
        {
          "internalType": "uint256",
          "name": "proposalId",
          "type": "uint256"
        }
      ],
      "name": "proposalDetails",
      "outputs": [
        {
          "internalType": "address[]",
          "name": "targets",
          "type": "address[]"
        },
        {
          "internalType": "uint256[]",
          "name": "values",
          "type": "uint256[]"
        },
        {
          "internalType": "bytes[]",
          "name": "calldatas",
          "type": "bytes[]"
        },
        {
          "internalType": "bytes32",
          "name": "descriptionHash",
          "type": "bytes32"
        }
      ],
      "stateMutability": "view",
      "type": "function"
    },
    {
      "inputs": [
        {
          "internalType": "uint256",
          "name": "index",
          "type": "uint256"
        }
      ],
      "name": "proposalDetailsAt",
      "outputs": [
        {
          "internalType": "uint256",
          "name": "proposalId",
          "type": "uint256"
        },
        {
          "internalType": "address[]",
          "name": "targets",
          "type": "address[]"
        },
        {
          "internalType": "uint256[]",
          "name": "values",
          "type": "uint256[]"
        },
        {
          "internalType": "bytes[]",
          "name": "calldatas",
          "type": "bytes[]"
        },
        {
          "internalType": "bytes32",
          "name": "descriptionHash",
          "type": "bytes32"
        }
      ],
      "stateMutability": "view",
      "type": "function"
    },
    {
      "inputs": [
        {
          "internalType": "uint256",
          "name": "proposalId",
          "type": "uint256"
        }
      ],
      "name": "proposalEta",
      "outputs": [
        {
          "internalType": "uint256",
          "name": "",
          "type": "uint256"
        }
      ],
      "stateMutability": "view",
      "type": "function"
    },
    {
      "inputs": [
        {
          "internalType": "uint256",
          "name": "proposalId",
          "type": "uint256"
        }
      ],
      "name": "proposalNeedsQueuing",
      "outputs": [
        {
          "internalType": "bool",
          "name": "",
          "type": "bool"
        }
      ],
      "stateMutability": "view",
      "type": "function"
    },
    {
      "inputs": [
        {
          "internalType": "uint256",
          "name": "proposalId",
          "type": "uint256"
        }
      ],
      "name": "proposalProposer",
      "outputs": [
        {
          "internalType": "address",
          "name": "",
          "type": "address"
        }
      ],
      "stateMutability": "view",
      "type": "function"
    },
    {
      "inputs": [
        {
          "internalType": "uint256",
          "name": "proposalId",
          "type": "uint256"
        }
      ],
      "name": "proposalSnapshot",
      "outputs": [
        {
          "internalType": "uint256",
          "name": "",
          "type": "uint256"
        }
      ],
      "stateMutability": "view",
      "type": "function"
    },
    {
      "inputs": [],
      "name": "proposalThreshold",
      "outputs": [
        {
          "internalType": "uint256",
          "name": "",
          "type": "uint256"
        }
      ],
      "stateMutability": "view",
      "type": "function"
    },
    {
      "inputs": [
        {
          "internalType": "uint256",
          "name": "proposalId",
          "type": "uint256"
        }
      ],
      "name": "proposalVotes",
      "outputs": [
        {
          "internalType": "uint256",
          "name": "againstVotes",
          "type": "uint256"
        },
        {
          "internalType": "uint256",
          "name": "forVotes",
          "type": "uint256"
        },
        {
          "internalType": "uint256",
          "name": "abstainVotes",
          "type": "uint256"
        }
      ],
      "stateMutability": "view",
      "type": "function"
    },
    {
      "inputs": [
        {
          "internalType": "address[]",
          "name": "targets",
          "type": "address[]"
        },
        {
          "internalType": "uint256[]",
          "name": "values",
          "type": "uint256[]"
        },
        {
          "internalType": "bytes[]",
          "name": "calldatas",
          "type": "bytes[]"
        },
        {
          "internalType": "string",
          "name": "description",
          "type": "string"
        }
      ],
      "name": "propose",
      "outputs": [
        {
          "internalType": "uint256",
          "name": "",
          "type": "uint256"
        }
      ],
      "stateMutability": "nonpayable",
      "type": "function"
    },
    {
      "inputs": [],
      "name": "proxiableUUID",
      "outputs": [
        {
          "internalType": "bytes32",
          "name": "",
          "type": "bytes32"
        }
      ],
      "stateMutability": "view",
      "type": "function"
    },
    {
      "inputs": [
        {
          "internalType": "address[]",
          "name": "targets",
          "type": "address[]"
        },
        {
          "internalType": "uint256[]",
          "name": "values",
          "type": "uint256[]"
        },
        {
          "internalType": "bytes[]",
          "name": "calldatas",
          "type": "bytes[]"
        },
        {
          "internalType": "bytes32",
          "name": "descriptionHash",
          "type": "bytes32"
        }
      ],
      "name": "queue",
      "outputs": [
        {
          "internalType": "uint256",
          "name": "",
          "type": "uint256"
        }
      ],
      "stateMutability": "nonpayable",
      "type": "function"
    },
    {
      "inputs": [
        {
          "internalType": "uint256",
          "name": "proposalId",
          "type": "uint256"
        }
      ],
      "name": "queue",
      "outputs": [],
      "stateMutability": "nonpayable",
      "type": "function"
    },
    {
      "inputs": [
        {
          "internalType": "uint256",
          "name": "blockNumber",
          "type": "uint256"
        }
      ],
      "name": "quorum",
      "outputs": [
        {
          "internalType": "uint256",
          "name": "",
          "type": "uint256"
        }
      ],
      "stateMutability": "view",
      "type": "function"
    },
    {
      "inputs": [],
      "name": "quorumDenominator",
      "outputs": [
        {
          "internalType": "uint256",
          "name": "",
          "type": "uint256"
        }
      ],
      "stateMutability": "view",
      "type": "function"
    },
    {
      "inputs": [
        {
          "internalType": "uint256",
          "name": "timepoint",
          "type": "uint256"
        }
      ],
      "name": "quorumNumerator",
      "outputs": [
        {
          "internalType": "uint256",
          "name": "",
          "type": "uint256"
        }
      ],
      "stateMutability": "view",
      "type": "function"
    },
    {
      "inputs": [],
      "name": "quorumNumerator",
      "outputs": [
        {
          "internalType": "uint256",
          "name": "",
          "type": "uint256"
        }
      ],
      "stateMutability": "view",
      "type": "function"
    },
    {
      "inputs": [
        {
          "internalType": "address",
          "name": "target",
          "type": "address"
        },
        {
          "internalType": "uint256",
          "name": "value",
          "type": "uint256"
        },
        {
          "internalType": "bytes",
          "name": "data",
          "type": "bytes"
        }
      ],
      "name": "relay",
      "outputs": [],
      "stateMutability": "payable",
      "type": "function"
    },
    {
      "inputs": [],
      "name": "renounceOwnership",
      "outputs": [],
      "stateMutability": "nonpayable",
      "type": "function"
    },
    {
      "inputs": [
        {
          "internalType": "uint256",
          "name": "newProposalThreshold",
          "type": "uint256"
        }
      ],
      "name": "setProposalThreshold",
      "outputs": [],
      "stateMutability": "nonpayable",
      "type": "function"
    },
    {
      "inputs": [
        {
          "internalType": "uint48",
          "name": "newVotingDelay",
          "type": "uint48"
        }
      ],
      "name": "setVotingDelay",
      "outputs": [],
      "stateMutability": "nonpayable",
      "type": "function"
    },
    {
      "inputs": [
        {
          "internalType": "uint32",
          "name": "newVotingPeriod",
          "type": "uint32"
        }
      ],
      "name": "setVotingPeriod",
      "outputs": [],
      "stateMutability": "nonpayable",
      "type": "function"
    },
    {
      "inputs": [
        {
          "internalType": "uint256",
          "name": "proposalId",
          "type": "uint256"
        }
      ],
      "name": "state",
      "outputs": [
        {
          "internalType": "enum IGovernor.ProposalState",
          "name": "",
          "type": "uint8"
        }
      ],
      "stateMutability": "view",
      "type": "function"
    },
    {
      "inputs": [
        {
          "internalType": "bytes4",
          "name": "interfaceId",
          "type": "bytes4"
        }
      ],
      "name": "supportsInterface",
      "outputs": [
        {
          "internalType": "bool",
          "name": "",
          "type": "bool"
        }
      ],
      "stateMutability": "view",
      "type": "function"
    },
    {
      "inputs": [],
      "name": "timelock",
      "outputs": [
        {
          "internalType": "address",
          "name": "",
          "type": "address"
        }
      ],
      "stateMutability": "view",
      "type": "function"
    },
    {
      "inputs": [],
      "name": "token",
      "outputs": [
        {
          "internalType": "contract IERC5805",
          "name": "",
          "type": "address"
        }
      ],
      "stateMutability": "view",
      "type": "function"
    },
    {
      "inputs": [
        {
          "internalType": "address",
          "name": "newOwner",
          "type": "address"
        }
      ],
      "name": "transferOwnership",
      "outputs": [],
      "stateMutability": "nonpayable",
      "type": "function"
    },
    {
      "inputs": [
        {
          "internalType": "uint256",
          "name": "newQuorumNumerator",
          "type": "uint256"
        }
      ],
      "name": "updateQuorumNumerator",
      "outputs": [],
      "stateMutability": "nonpayable",
      "type": "function"
    },
    {
      "inputs": [
        {
          "internalType": "contract TimelockControllerUpgradeable",
          "name": "newTimelock",
          "type": "address"
        }
      ],
      "name": "updateTimelock",
      "outputs": [],
      "stateMutability": "nonpayable",
      "type": "function"
    },
    {
      "inputs": [
        {
          "internalType": "address",
          "name": "newImplementation",
          "type": "address"
        },
        {
          "internalType": "bytes",
          "name": "data",
          "type": "bytes"
        }
      ],
      "name": "upgradeToAndCall",
      "outputs": [],
      "stateMutability": "payable",
      "type": "function"
    },
    {
      "inputs": [],
      "name": "version",
      "outputs": [
        {
          "internalType": "string",
          "name": "",
          "type": "string"
        }
      ],
      "stateMutability": "view",
      "type": "function"
    },
    {
      "inputs": [],
      "name": "votingDelay",
      "outputs": [
        {
          "internalType": "uint256",
          "name": "",
          "type": "uint256"
        }
      ],
      "stateMutability": "view",
      "type": "function"
    },
    {
      "inputs": [],
      "name": "votingPeriod",
      "outputs": [
        {
          "internalType": "uint256",
          "name": "",
          "type": "uint256"
        }
      ],
      "stateMutability": "view",
      "type": "function"
    },
    {
      "stateMutability": "payable",
      "type": "receive"
    }
  ],
  "bytecode": "0x60a06040523073ffffffffffffffffffffffffffffffffffffffff1660809073ffffffffffffffffffffffffffffffffffffffff1681525034801561004357600080fd5b5061005261005760201b60201c565b6101c1565b600061006761015b60201b60201c565b90508060000160089054906101000a900460ff16156100b2576040517ff92ee8a900000000000000000000000000000000000000000000000000000000815260040160405180910390fd5b67ffffffffffffffff80168160000160009054906101000a900467ffffffffffffffff1667ffffffffffffffff16146101585767ffffffffffffffff8160000160006101000a81548167ffffffffffffffff021916908367ffffffffffffffff1602179055507fc7f505b2f371ae2175ee4913f4499e1f2633a7b5936321eed1cdaeb6115181d267ffffffffffffffff60405161014f91906101a6565b60405180910390a15b50565b60007ff0c57e16840df040f15088dc2f81fe391c3923bec73e23a9662efc9c229c6a00905090565b600067ffffffffffffffff82169050919050565b6101a081610183565b82525050565b60006020820190506101bb6000830184610197565b92915050565b60805161944d6101ea60003960008181613814015281816138690152613a24015261944d6000f3fe6080604052600436106103a65760003560e01c80637ecebe00116101e7578063c0c53b8b1161010d578063e540d01d116100a0578063f2fde38b1161006f578063f2fde38b14610f69578063f8ce560a14610f92578063fc0c546a14610fcf578063fe0d94c114610ffa57610419565b8063e540d01d14610e9d578063eb9019d414610ec6578063ece40cc114610f03578063f23a6e6114610f2c57610419565b8063da35c664116100dc578063da35c66414610df3578063dd4e2ba514610e1e578063ddf0b00914610e49578063deaaa7cc14610e7257610419565b8063c0c53b8b14610d46578063c28bc2fa14610d6f578063c59057e414610d8b578063d33219b414610dc857610419565b8063a7713a7011610185578063ad3cb1cc11610154578063ad3cb1cc14610c76578063b58131b014610ca1578063bc197c8114610ccc578063c01f9e3714610d0957610419565b8063a7713a7014610ba8578063a890c91014610bd3578063a9a9529414610bfc578063ab58fb8e14610c3957610419565b80638ff262e3116101c15780638ff262e314610ad857806391ddadf414610b1557806397c3d33414610b405780639a802a6d14610b6b57610419565b80637ecebe0014610a3f57806384b0196e14610a7c5780638da5cb5b14610aad57610419565b806343859632116102cc578063567813881161026a578063715018a611610239578063715018a614610985578063790518871461099c5780637b3c71d3146109c55780637d5e81e214610a0257610419565b806356781388146108915780635b8d0e0d146108ce5780635f398a141461090b57806360c4247f1461094857610419565b80634f1ef286116102a65780634f1ef286146107e057806352d1902d146107fc578063544ffc9c1461082757806354fd4d501461086657610419565b8063438596321461073b578063452115d6146107785780634bf5d7e9146107b557610419565b806316e9eaec116103445780632fe3e261116103135780632fe3e2611461067f5780633932abb1146106aa5780633e4f49e6146106d557806340e58ee51461071257610419565b806316e9eaec146105915780632656227d146105d15780632d63f693146106015780632e82db941461063e57610419565b806306fdde031161038057806306fdde03146104af578063143489d0146104da578063150b7a0214610517578063160cbed71461055457610419565b806301ffc9a71461041e57806302a251a31461045b57806306f3f9e61461048657610419565b36610419573073ffffffffffffffffffffffffffffffffffffffff166103ca611016565b73ffffffffffffffffffffffffffffffffffffffff1614610417576040517fe90a651e00000000000000000000000000000000000000000000000000000000815260040160405180910390fd5b005b600080fd5b34801561042a57600080fd5b506104456004803603810190610440919061692c565b611025565b6040516104529190616974565b60405180910390f35b34801561046757600080fd5b50610470611107565b60405161047d91906169a8565b60405180910390f35b34801561049257600080fd5b506104ad60048036038101906104a891906169ef565b611116565b005b3480156104bb57600080fd5b506104c461112a565b6040516104d19190616aac565b60405180910390f35b3480156104e657600080fd5b5061050160048036038101906104fc91906169ef565b6111cb565b60405161050e9190616b0f565b60405180910390f35b34801561052357600080fd5b5061053e60048036038101906105399190616c8b565b611219565b60405161054b9190616d1d565b60405180910390f35b34801561056057600080fd5b5061057b60048036038101906105769190616fda565b611299565b60405161058891906169a8565b60405180910390f35b34801561059d57600080fd5b506105b860048036038101906105b391906169ef565b6113a4565b6040516105c89493929190617337565b60405180910390f35b6105eb60048036038101906105e69190616fda565b611613565b6040516105f891906169a8565b60405180910390f35b34801561060d57600080fd5b50610628600480360381019061062391906169ef565b611807565b60405161063591906169a8565b60405180910390f35b34801561064a57600080fd5b50610665600480360381019061066091906169ef565b61184f565b604051610676959493929190617391565b60405180910390f35b34801561068b57600080fd5b506106946118a9565b6040516106a191906173f9565b60405180910390f35b3480156106b657600080fd5b506106bf6118cd565b6040516106cc91906169a8565b60405180910390f35b3480156106e157600080fd5b506106fc60048036038101906106f791906169ef565b6118dc565b604051610709919061748b565b60405180910390f35b34801561071e57600080fd5b50610739600480360381019061073491906169ef565b6118ee565b005b34801561074757600080fd5b50610762600480360381019061075d91906174a6565b611ad6565b60405161076f9190616974565b60405180910390f35b34801561078457600080fd5b5061079f600480360381019061079a9190616fda565b611b4f565b6040516107ac91906169a8565b60405180910390f35b3480156107c157600080fd5b506107ca611c11565b6040516107d79190616aac565b60405180910390f35b6107fa60048036038101906107f591906174e6565b611cd0565b005b34801561080857600080fd5b50610811611cef565b60405161081e91906173f9565b60405180910390f35b34801561083357600080fd5b5061084e600480360381019061084991906169ef565b611d22565b60405161085d93929190617542565b60405180910390f35b34801561087257600080fd5b5061087b611d69565b6040516108889190616aac565b60405180910390f35b34801561089d57600080fd5b506108b860048036038101906108b391906175b2565b611da6565b6040516108c591906169a8565b60405180910390f35b3480156108da57600080fd5b506108f560048036038101906108f0919061764d565b611dd7565b60405161090291906169a8565b60405180910390f35b34801561091757600080fd5b50610932600480360381019061092d9190617734565b611f08565b60405161093f91906169a8565b60405180910390f35b34801561095457600080fd5b5061096f600480360381019061096a91906169ef565b611f72565b60405161097c91906169a8565b60405180910390f35b34801561099157600080fd5b5061099a61208a565b005b3480156109a857600080fd5b506109c360048036038101906109be9190617816565b61209e565b005b3480156109d157600080fd5b506109ec60048036038101906109e79190617843565b6120b2565b6040516109f991906169a8565b60405180910390f35b348015610a0e57600080fd5b50610a296004803603810190610a249190617958565b61211a565b604051610a3691906169a8565b60405180910390f35b348015610a4b57600080fd5b50610a666004803603810190610a619190617a2f565b612214565b604051610a7391906169a8565b60405180910390f35b348015610a8857600080fd5b50610a9161226b565b604051610aa49796959493929190617a97565b60405180910390f35b348015610ab957600080fd5b50610ac261237d565b604051610acf9190616b0f565b60405180910390f35b348015610ae457600080fd5b50610aff6004803603810190610afa9190617b1b565b6123b5565b604051610b0c91906169a8565b60405180910390f35b348015610b2157600080fd5b50610b2a61248b565b604051610b379190617bad565b60405180910390f35b348015610b4c57600080fd5b50610b55612517565b604051610b6291906169a8565b60405180910390f35b348015610b7757600080fd5b50610b926004803603810190610b8d9190617bc8565b612520565b604051610b9f91906169a8565b60405180910390f35b348015610bb457600080fd5b50610bbd612536565b604051610bca91906169a8565b60405180910390f35b348015610bdf57600080fd5b50610bfa6004803603810190610bf59190617c87565b612571565b005b348015610c0857600080fd5b50610c236004803603810190610c1e91906169ef565b612585565b604051610c309190616974565b60405180910390f35b348015610c4557600080fd5b50610c606004803603810190610c5b91906169ef565b612597565b604051610c6d91906169a8565b60405180910390f35b348015610c8257600080fd5b50610c8b6125df565b604051610c989190616aac565b60405180910390f35b348015610cad57600080fd5b50610cb6612618565b604051610cc391906169a8565b60405180910390f35b348015610cd857600080fd5b50610cf36004803603810190610cee9190617cb4565b612627565b604051610d009190616d1d565b60405180910390f35b348015610d1557600080fd5b50610d306004803603810190610d2b91906169ef565b6126a8565b604051610d3d91906169a8565b60405180910390f35b348015610d5257600080fd5b50610d6d6004803603810190610d689190617dc1565b612729565b005b610d896004803603810190610d849190617e6a565b61293e565b005b348015610d9757600080fd5b50610db26004803603810190610dad9190616fda565b6129cb565b604051610dbf91906169a8565b60405180910390f35b348015610dd457600080fd5b50610ddd612a07565b604051610dea9190616b0f565b60405180910390f35b348015610dff57600080fd5b50610e08612a3f565b604051610e1591906169a8565b60405180910390f35b348015610e2a57600080fd5b50610e33612a5a565b604051610e409190616aac565b60405180910390f35b348015610e5557600080fd5b50610e706004803603810190610e6b91906169ef565b612a97565b005b348015610e7e57600080fd5b50610e87612c7f565b604051610e9491906173f9565b60405180910390f35b348015610ea957600080fd5b50610ec46004803603810190610ebf9190617f1a565b612ca3565b005b348015610ed257600080fd5b50610eed6004803603810190610ee89190617f47565b612cb7565b604051610efa91906169a8565b60405180910390f35b348015610f0f57600080fd5b50610f2a6004803603810190610f2591906169ef565b612cd3565b005b348015610f3857600080fd5b50610f536004803603810190610f4e9190617f87565b612ce7565b604051610f609190616d1d565b60405180910390f35b348015610f7557600080fd5b50610f906004803603810190610f8b9190617a2f565b612d68565b005b348015610f9e57600080fd5b50610fb96004803603810190610fb491906169ef565b612dee565b604051610fc691906169a8565b60405180910390f35b348015610fdb57600080fd5b50610fe4612e00565b604051610ff1919061807d565b60405180910390f35b611014600480360381019061100f91906169ef565b612e38565b005b6000611020613020565b905090565b60007f65455a86000000000000000000000000000000000000000000000000000000007bffffffffffffffffffffffffffffffffffffffffffffffffffffffff1916827bffffffffffffffffffffffffffffffffffffffffffffffffffffffff191614806110f057507f4e2312e0000000000000000000000000000000000000000000000000000000007bffffffffffffffffffffffffffffffffffffffffffffffffffffffff1916827bffffffffffffffffffffffffffffffffffffffffffffffffffffffff1916145b8061110057506110ff82613058565b5b9050919050565b60006111116130c2565b905090565b61111e6130f0565b611127816131f5565b50565b606060006111366132c8565b9050806000018054611147906180c7565b80601f0160208091040260200160405190810160405280929190818152602001828054611173906180c7565b80156111c05780601f10611195576101008083540402835291602001916111c0565b820191906000526020600020905b8154815290600101906020018083116111a357829003601f168201915b505050505091505090565b6000806111d66132c8565b905080600101600084815260200190815260200160002060000160009054906101000a900473ffffffffffffffffffffffffffffffffffffffff16915050919050565b60003073ffffffffffffffffffffffffffffffffffffffff1661123a611016565b73ffffffffffffffffffffffffffffffffffffffff1614611287576040517fe90a651e00000000000000000000000000000000000000000000000000000000815260040160405180910390fd5b63150b7a0260e01b9050949350505050565b6000806112a46132c8565b905060006112b4878787876129cb565b90506112c9816112c460046132f0565b613316565b5060006112d98289898989613383565b905060008165ffffffffffff1614611364578083600101600084815260200190815260200160002060010160006101000a81548165ffffffffffff021916908365ffffffffffff1602179055507f9a2e42fd6722813d69113e7d0079d3d940171428df7373df9c7f7617cfda28928282604051611357929190618129565b60405180910390a1611396565b6040517f90884a4600000000000000000000000000000000000000000000000000000000815260040160405180910390fd5b819350505050949350505050565b60608060606000806113b461339d565b905060008160010160008881526020019081526020016000206040518060800160405290816000820180548060200260200160405190810160405280929190818152602001828054801561145d57602002820191906000526020600020905b8160009054906101000a900473ffffffffffffffffffffffffffffffffffffffff1673ffffffffffffffffffffffffffffffffffffffff1681526020019060010190808311611413575b50505050508152602001600182018054806020026020016040519081016040528092919081815260200182805480156114b557602002820191906000526020600020905b8154815260200190600101908083116114a1575b5050505050815260200160028201805480602002602001604051908101604052809291908181526020016000905b8282101561158f578382906000526020600020018054611502906180c7565b80601f016020809104026020016040519081016040528092919081815260200182805461152e906180c7565b801561157b5780601f106115505761010080835404028352916020019161157b565b820191906000526020600020905b81548152906001019060200180831161155e57829003601f168201915b5050505050815260200190600101906114e3565b50505050815260200160038201548152505090506000801b8160600151036115ee57866040517f6ad060750000000000000000000000000000000000000000000000000000000081526004016115e591906169a8565b60405180910390fd5b8060000151816020015182604001518360600151955095509550955050509193509193565b60008061161e6132c8565b9050600061162e878787876129cb565b905061164e8161163e60056132f0565b61164860046132f0565b17613316565b506001826001016000838152602001908152602001600020600001601e6101000a81548160ff0219169083151502179055503073ffffffffffffffffffffffffffffffffffffffff1661169f611016565b73ffffffffffffffffffffffffffffffffffffffff16146117585760005b8751811015611756573073ffffffffffffffffffffffffffffffffffffffff168882815181106116f0576116ef618152565b5b602002602001015173ffffffffffffffffffffffffffffffffffffffff160361174b5761174a86828151811061172957611728618152565b5b602002602001015180519060200120846002016133c590919063ffffffff16565b5b8060010190506116bd565b505b61176581888888886134c4565b3073ffffffffffffffffffffffffffffffffffffffff16611784611016565b73ffffffffffffffffffffffffffffffffffffffff16141580156117b157506117af826002016134d8565b155b156117c3576117c282600201613548565b5b7f712ae1383f79ac853f8d882153778e0260ef8f03b504e2866e0593e04d2b291f816040516117f291906169a8565b60405180910390a18092505050949350505050565b6000806118126132c8565b905080600101600084815260200190815260200160002060000160149054906101000a900465ffffffffffff1665ffffffffffff16915050919050565b6000606080606060008061186161339d565b905080600001878154811061187957611878618152565b5b9060005260206000200154955061188f866113a4565b809550819650829750839850505050505091939590929450565b7f3e83946653575f9a39005e1545185629e92736b7528ab20ca3816f315424a81181565b60006118d76135c3565b905090565b60006118e7826135f5565b9050919050565b60006118f861339d565b905060008160010160008481526020019081526020016000209050611ad08160000180548060200260200160405190810160405280929190818152602001828054801561199a57602002820191906000526020600020905b8160009054906101000a900473ffffffffffffffffffffffffffffffffffffffff1673ffffffffffffffffffffffffffffffffffffffff1681526020019060010190808311611950575b5050505050826001018054806020026020016040519081016040528092919081815260200182805480156119ed57602002820191906000526020600020905b8154815260200190600101908083116119d9575b505050505083600201805480602002602001604051908101604052809291908181526020016000905b82821015611ac2578382906000526020600020018054611a35906180c7565b80601f0160208091040260200160405190810160405280929190818152602001828054611a61906180c7565b8015611aae5780601f10611a8357610100808354040283529160200191611aae565b820191906000526020600020905b815481529060010190602001808311611a9157829003601f168201915b505050505081526020019060010190611a16565b505050508460030154611b4f565b50505050565b600080611ae16137ca565b905080600001600085815260200190815260200160002060030160008473ffffffffffffffffffffffffffffffffffffffff1673ffffffffffffffffffffffffffffffffffffffff16815260200190815260200160002060009054906101000a900460ff1691505092915050565b600080611b5e868686866129cb565b9050611b7381611b6e60006132f0565b613316565b50611b7d816111cb565b73ffffffffffffffffffffffffffffffffffffffff16611b9b6137f2565b73ffffffffffffffffffffffffffffffffffffffff1614611bfa57611bbe6137f2565b6040517f233d98e3000000000000000000000000000000000000000000000000000000008152600401611bf19190616b0f565b60405180910390fd5b611c06868686866137fa565b915050949350505050565b6060611c1b612e00565b73ffffffffffffffffffffffffffffffffffffffff16634bf5d7e96040518163ffffffff1660e01b8152600401600060405180830381865afa925050508015611c8757506040513d6000823e3d601f19601f82011682018060405250810190611c8491906181f1565b60015b611cc8576040518060400160405280601d81526020017f6d6f64653d626c6f636b6e756d6265722666726f6d3d64656661756c740000008152509050611ccd565b809150505b90565b611cd8613812565b611ce1826138f8565b611ceb8282613903565b5050565b6000611cf9613a22565b7f360894a13ba1a3210667c828492db98dca3e2076cc3735a920a3ca505d382bbc60001b905090565b600080600080611d306137ca565b90506000816000016000878152602001908152602001600020905080600001548160010154826002015494509450945050509193909250565b60606040518060400160405280600181526020017f3100000000000000000000000000000000000000000000000000000000000000815250905090565b600080611db16137f2565b9050611dce84828560405180602001604052806000815250613aa9565b91505092915050565b600080611e6587611e5f7f3e83946653575f9a39005e1545185629e92736b7528ab20ca3816f315424a8118c8c8c611e0e8e613ac9565b8d8d604051611e1e92919061826a565b60405180910390208c80519060200120604051602001611e449796959493929190618292565b60405160208183030381529060405280519060200120613b2e565b85613b48565b905080611ea957866040517f94ab6c07000000000000000000000000000000000000000000000000000000008152600401611ea09190616b0f565b60405180910390fd5b611efa89888a89898080601f016020809104026020016040519081016040528093929190818152602001838380828437600081840152601f19601f8201169050808301925050505050505088613bf7565b915050979650505050505050565b600080611f136137f2565b9050611f6687828888888080601f016020809104026020016040519081016040528093929190818152602001838380828437600081840152601f19601f8201169050808301925050505050505087613bf7565b91505095945050505050565b600080611f7d613cfc565b9050600081600001600001805490509050600082600001600001600183611fa49190618330565b81548110611fb557611fb4618152565b5b90600052602060002001905060008160000160009054906101000a900465ffffffffffff16905060008260000160069054906101000a900479ffffffffffffffffffffffffffffffffffffffffffffffffffff169050868265ffffffffffff1611612043578079ffffffffffffffffffffffffffffffffffffffffffffffffffff1695505050505050612085565b61206161204f88613d24565b86600001613d7e90919063ffffffff16565b79ffffffffffffffffffffffffffffffffffffffffffffffffffff16955050505050505b919050565b612092613e78565b61209c6000613eff565b565b6120a66130f0565b6120af81613fd6565b50565b6000806120bd6137f2565b905061210f86828787878080601f016020809104026020016040519081016040528093929190818152602001838380828437600081840152601f19601f82011690508083019250505050505050613aa9565b915050949350505050565b6000806121256137f2565b9050612131818461405c565b61217257806040517fd9b395570000000000000000000000000000000000000000000000000000000081526004016121699190616b0f565b60405180910390fd5b600061217c612618565b905060008111156121fb5760006121ae83600161219761248b565b6121a19190618364565b65ffffffffffff16612cb7565b9050818110156121f9578281836040517fc242ee160000000000000000000000000000000000000000000000000000000081526004016121f09392919061839e565b60405180910390fd5b505b61220887878787866141a8565b92505050949350505050565b60008061221f6141c2565b90508060000160008473ffffffffffffffffffffffffffffffffffffffff1673ffffffffffffffffffffffffffffffffffffffff16815260200190815260200160002054915050919050565b60006060806000806000606060006122816141ea565b90506000801b816000015414801561229f57506000801b8160010154145b6122de576040517f08c379a00000000000000000000000000000000000000000000000000000000081526004016122d590618421565b60405180910390fd5b6122e6614212565b6122ee6142b3565b46306000801b600067ffffffffffffffff81111561230f5761230e616b60565b5b60405190808252806020026020018201604052801561233d5781602001602082028036833780820191505090505b507f0f0000000000000000000000000000000000000000000000000000000000000095949392919097509750975097509750975097505090919293949596565b600080612388614354565b90508060000160009054906101000a900473ffffffffffffffffffffffffffffffffffffffff1691505090565b6000806124218461241b7ff2aad550cf55f045cb27e9c559f9889fdfb6e6cdaa032301d6ea397784ae51d78989896123ec8b613ac9565b604051602001612400959493929190618441565b60405160208183030381529060405280519060200120613b2e565b85613b48565b90508061246557836040517f94ab6c0700000000000000000000000000000000000000000000000000000000815260040161245c9190616b0f565b60405180910390fd5b61248086858760405180602001604052806000815250613aa9565b915050949350505050565b6000612495612e00565b73ffffffffffffffffffffffffffffffffffffffff166391ddadf46040518163ffffffff1660e01b8152600401602060405180830381865afa9250505080156124fc57506040513d601f19601f820116820180604052508101906124f991906184a9565b60015b61250f5761250861437c565b9050612514565b809150505b90565b60006064905090565b600061252d84848461438c565b90509392505050565b600080612541613cfc565b905061254f8160000161441a565b79ffffffffffffffffffffffffffffffffffffffffffffffffffff1691505090565b6125796130f0565b61258281614482565b50565b600061259082614532565b9050919050565b6000806125a26132c8565b905080600101600084815260200190815260200160002060010160009054906101000a900465ffffffffffff1665ffffffffffff16915050919050565b6040518060400160405280600581526020017f352e302e3000000000000000000000000000000000000000000000000000000081525081565b600061262261453d565b905090565b60003073ffffffffffffffffffffffffffffffffffffffff16612648611016565b73ffffffffffffffffffffffffffffffffffffffff1614612695576040517fe90a651e00000000000000000000000000000000000000000000000000000000815260040160405180910390fd5b63bc197c8160e01b905095945050505050565b6000806126b36132c8565b9050806001016000848152602001908152602001600020600001601a9054906101000a900463ffffffff1663ffffffff1681600101600085815260200190815260200160002060000160149054906101000a900465ffffffffffff1661271991906184d6565b65ffffffffffff16915050919050565b6000612733614555565b905060008160000160089054906101000a900460ff1615905060008260000160009054906101000a900467ffffffffffffffff1690506000808267ffffffffffffffff161480156127815750825b9050600060018367ffffffffffffffff161480156127b6575060003073ffffffffffffffffffffffffffffffffffffffff163b145b9050811580156127c4575080155b156127fb576040517ff92ee8a900000000000000000000000000000000000000000000000000000000815260040160405180910390fd5b60018560000160006101000a81548167ffffffffffffffff021916908367ffffffffffffffff160217905550831561284b5760018560000160086101000a81548160ff0219169083151502179055505b6128896040518060400160405280600c81526020017f4c6567697444414f2d474f56000000000000000000000000000000000000000081525061457d565b61289b6201518062093a8060006145a2565b6128a36145ba565b6128ab6145c4565b6128b4886145ce565b6128be60326145e2565b6128c7876145f6565b6128d08661460a565b6128d861461e565b83156129345760008560000160086101000a81548160ff0219169083151502179055507fc7f505b2f371ae2175ee4913f4499e1f2633a7b5936321eed1cdaeb6115181d2600160405161292b919061855f565b60405180910390a15b5050505050505050565b6129466130f0565b6000808573ffffffffffffffffffffffffffffffffffffffff1685858560405161297192919061826a565b60006040518083038185875af1925050503d80600081146129ae576040519150601f19603f3d011682016040523d82523d6000602084013e6129b3565b606091505b50915091506129c28282614628565b50505050505050565b6000848484846040516020016129e49493929190617337565b6040516020818303038152906040528051906020012060001c9050949350505050565b600080612a1261464c565b90508060000160009054906101000a900473ffffffffffffffffffffffffffffffffffffffff1691505090565b600080612a4a61339d565b9050806000018054905091505090565b60606040518060400160405280602081526020017f737570706f72743d627261766f2671756f72756d3d666f722c6162737461696e815250905090565b6000612aa161339d565b905060008160010160008481526020019081526020016000209050612c7981600001805480602002602001604051908101604052809291908181526020018280548015612b4357602002820191906000526020600020905b8160009054906101000a900473ffffffffffffffffffffffffffffffffffffffff1673ffffffffffffffffffffffffffffffffffffffff1681526020019060010190808311612af9575b505050505082600101805480602002602001604051908101604052809291908181526020018280548015612b9657602002820191906000526020600020905b815481526020019060010190808311612b82575b505050505083600201805480602002602001604051908101604052809291908181526020016000905b82821015612c6b578382906000526020600020018054612bde906180c7565b80601f0160208091040260200160405190810160405280929190818152602001828054612c0a906180c7565b8015612c575780601f10612c2c57610100808354040283529160200191612c57565b820191906000526020600020905b815481529060010190602001808311612c3a57829003601f168201915b505050505081526020019060010190612bbf565b505050508460030154611299565b50505050565b7ff2aad550cf55f045cb27e9c559f9889fdfb6e6cdaa032301d6ea397784ae51d781565b612cab6130f0565b612cb481614674565b50565b6000612ccb8383612cc6614740565b61438c565b905092915050565b612cdb6130f0565b612ce481614757565b50565b60003073ffffffffffffffffffffffffffffffffffffffff16612d08611016565b73ffffffffffffffffffffffffffffffffffffffff1614612d55576040517fe90a651e00000000000000000000000000000000000000000000000000000000815260040160405180910390fd5b63f23a6e6160e01b905095945050505050565b612d70613e78565b600073ffffffffffffffffffffffffffffffffffffffff168173ffffffffffffffffffffffffffffffffffffffff1603612de25760006040517f1e4fbdf7000000000000000000000000000000000000000000000000000000008152600401612dd99190616b0f565b60405180910390fd5b612deb81613eff565b50565b6000612df9826147ad565b9050919050565b600080612e0b61485c565b90508060000160009054906101000a900473ffffffffffffffffffffffffffffffffffffffff1691505090565b6000612e4261339d565b90506000816001016000848152602001908152602001600020905061301a81600001805480602002602001604051908101604052809291908181526020018280548015612ee457602002820191906000526020600020905b8160009054906101000a900473ffffffffffffffffffffffffffffffffffffffff1673ffffffffffffffffffffffffffffffffffffffff1681526020019060010190808311612e9a575b505050505082600101805480602002602001604051908101604052809291908181526020018280548015612f3757602002820191906000526020600020905b815481526020019060010190808311612f23575b505050505083600201805480602002602001604051908101604052809291908181526020016000905b8282101561300c578382906000526020600020018054612f7f906180c7565b80601f0160208091040260200160405190810160405280929190818152602001828054612fab906180c7565b8015612ff85780601f10612fcd57610100808354040283529160200191612ff8565b820191906000526020600020905b815481529060010190602001808311612fdb57829003601f168201915b505050505081526020019060010190612f60565b505050508460030154611613565b50505050565b60008061302b61464c565b90508060000160009054906101000a900473ffffffffffffffffffffffffffffffffffffffff1691505090565b60007f01ffc9a7000000000000000000000000000000000000000000000000000000007bffffffffffffffffffffffffffffffffffffffffffffffffffffffff1916827bffffffffffffffffffffffffffffffffffffffffffffffffffffffff1916149050919050565b6000806130cd614884565b90508060010160069054906101000a900463ffffffff1663ffffffff1691505090565b60006130fa6132c8565b90506131046137f2565b73ffffffffffffffffffffffffffffffffffffffff16613122611016565b73ffffffffffffffffffffffffffffffffffffffff1614613181576131456137f2565b6040517f47096e470000000000000000000000000000000000000000000000000000000081526004016131789190616b0f565b60405180910390fd5b3073ffffffffffffffffffffffffffffffffffffffff166131a0611016565b73ffffffffffffffffffffffffffffffffffffffff16146131f25760006131c56148ab565b6040516131d392919061826a565b604051809103902090505b806131eb836002016148b8565b036131de57505b50565b60006131ff613cfc565b9050600061320b612517565b9050808311156132545782816040517f243e544500000000000000000000000000000000000000000000000000000000815260040161324b92919061857a565b60405180910390fd5b600061325e612536565b905061328761326b61248b565b613274866149f1565b85600001614a5f9092919063ffffffff16565b50507f0553476bf02ef2726e8ce5ced78d63e26e602e4a2257b1f559418e24b463399781856040516132ba92919061857a565b60405180910390a150505050565b60007f7c712897014dbe49c045ef1299aa2d5f9e67e48eea4403efa21f1e0f3ac0cb00905090565b600081600781111561330557613304617414565b5b60ff166001901b60001b9050919050565b600080613322846118dc565b90506000801b83613332836132f0565b1603613379578381846040517f31b75e4d000000000000000000000000000000000000000000000000000000008152600401613370939291906185a3565b60405180910390fd5b8091505092915050565b60006133928686868686614a7c565b905095945050505050565b60007f7fd223d3380145bd26132714391e777c488a0df7ac2dd4b66419d8549fb3a600905090565b60008260000160109054906101000a90046fffffffffffffffffffffffffffffffff1690508260000160009054906101000a90046fffffffffffffffffffffffffffffffff166fffffffffffffffffffffffffffffffff16600182016fffffffffffffffffffffffffffffffff1603613443576134426041614ca9565b5b81836001016000836fffffffffffffffffffffffffffffffff166fffffffffffffffffffffffffffffffff16815260200190815260200160002081905550600181018360000160106101000a8154816fffffffffffffffffffffffffffffffff02191690836fffffffffffffffffffffffffffffffff160217905550505050565b6134d18585858585614cbb565b5050505050565b60008160000160009054906101000a90046fffffffffffffffffffffffffffffffff166fffffffffffffffffffffffffffffffff168260000160109054906101000a90046fffffffffffffffffffffffffffffffff166fffffffffffffffffffffffffffffffff16149050919050565b60008160000160006101000a8154816fffffffffffffffffffffffffffffffff02191690836fffffffffffffffffffffffffffffffff16021790555060008160000160106101000a8154816fffffffffffffffffffffffffffffffff02191690836fffffffffffffffffffffffffffffffff16021790555050565b6000806135ce614884565b90508060010160009054906101000a900465ffffffffffff1665ffffffffffff1691505090565b60008061360061464c565b9050600061360d84614d89565b90506005600781111561362357613622617414565b5b81600781111561363657613635617414565b5b146136455780925050506137c5565b60008260010160008681526020019081526020016000205490508260000160009054906101000a900473ffffffffffffffffffffffffffffffffffffffff1673ffffffffffffffffffffffffffffffffffffffff1663584b153e826040518263ffffffff1660e01b81526004016136bc91906173f9565b602060405180830381865afa1580156136d9573d6000803e3d6000fd5b505050506040513d601f19601f820116820180604052508101906136fd9190618606565b1561370e57600593505050506137c5565b8260000160009054906101000a900473ffffffffffffffffffffffffffffffffffffffff1673ffffffffffffffffffffffffffffffffffffffff16632ab0f529826040518263ffffffff1660e01b815260040161376b91906173f9565b602060405180830381865afa158015613788573d6000803e3d6000fd5b505050506040513d601f19601f820116820180604052508101906137ac9190618606565b156137bd57600793505050506137c5565b600293505050505b919050565b60007fa1cefa0f43667ef127a258e673c94202a79b656e62899531c4376d87a7f39800905090565b600033905090565b600061380885858585614f02565b9050949350505050565b7f000000000000000000000000000000000000000000000000000000000000000073ffffffffffffffffffffffffffffffffffffffff163073ffffffffffffffffffffffffffffffffffffffff1614806138bf57507f000000000000000000000000000000000000000000000000000000000000000073ffffffffffffffffffffffffffffffffffffffff166138a6614ffa565b73ffffffffffffffffffffffffffffffffffffffff1614155b156138f6576040517fe07c8dba00000000000000000000000000000000000000000000000000000000815260040160405180910390fd5b565b613900613e78565b50565b8173ffffffffffffffffffffffffffffffffffffffff166352d1902d6040518163ffffffff1660e01b8152600401602060405180830381865afa92505050801561396b57506040513d601f19601f820116820180604052508101906139689190618648565b60015b6139ac57816040517f4c9c8ce30000000000000000000000000000000000000000000000000000000081526004016139a39190616b0f565b60405180910390fd5b7f360894a13ba1a3210667c828492db98dca3e2076cc3735a920a3ca505d382bbc60001b8114613a1357806040517faa1d49a4000000000000000000000000000000000000000000000000000000008152600401613a0a91906173f9565b60405180910390fd5b613a1d8383615051565b505050565b7f000000000000000000000000000000000000000000000000000000000000000073ffffffffffffffffffffffffffffffffffffffff163073ffffffffffffffffffffffffffffffffffffffff1614613aa7576040517fe07c8dba00000000000000000000000000000000000000000000000000000000815260040160405180910390fd5b565b6000613abf85858585613aba614740565b613bf7565b9050949350505050565b600080613ad46141c2565b90508060000160008473ffffffffffffffffffffffffffffffffffffffff1673ffffffffffffffffffffffffffffffffffffffff168152602001908152602001600020600081548092919060010191905055915050919050565b6000613b41613b3b6150c4565b836150d3565b9050919050565b6000808473ffffffffffffffffffffffffffffffffffffffff163b03613be257600080613b758585615114565b509150915060006003811115613b8e57613b8d617414565b5b816003811115613ba157613ba0617414565b5b148015613bd957508573ffffffffffffffffffffffffffffffffffffffff168273ffffffffffffffffffffffffffffffffffffffff16145b92505050613bf0565b613bed848484615170565b90505b9392505050565b6000613c0c86613c0760016132f0565b613316565b506000613c2286613c1c89611807565b8561438c565b90506000613c338888888588615294565b90506000845103613c97578673ffffffffffffffffffffffffffffffffffffffff167fb8e138887d0aa13bab447e82de9d5c1777041ecd21ca36ba824ff1e6c07ddda489888489604051613c8a9493929190618675565b60405180910390a2613cee565b8673ffffffffffffffffffffffffffffffffffffffff167fe2babfbac5889a709b63bb7f598b324e08bc5a4fb9ec647fb3cbc9ec07eb87128988848989604051613ce595949392919061870b565b60405180910390a25b809250505095945050505050565b60007fe770710421fd2cad75ad828c61aa98f2d77d423a440b67872d0f65554148e000905090565b600065ffffffffffff8016821115613d76576030826040517f6dfcc650000000000000000000000000000000000000000000000000000000008152600401613d6d9291906187a7565b60405180910390fd5b819050919050565b600080836000018054905090506000808290506005831115613e06576000613da5846154a6565b84613db09190618330565b9050613dbf8760000182615643565b60000160009054906101000a900465ffffffffffff1665ffffffffffff168665ffffffffffff161015613df457809150613e04565b600181613e0191906187d0565b92505b505b6000613e1787600001878585615658565b905060008114613e6957613e3a87600001600183613e359190618330565b615643565b60000160069054906101000a900479ffffffffffffffffffffffffffffffffffffffffffffffffffff16613e6c565b60005b94505050505092915050565b613e806137f2565b73ffffffffffffffffffffffffffffffffffffffff16613e9e61237d565b73ffffffffffffffffffffffffffffffffffffffff1614613efd57613ec16137f2565b6040517f118cdaa7000000000000000000000000000000000000000000000000000000008152600401613ef49190616b0f565b60405180910390fd5b565b6000613f09614354565b905060008160000160009054906101000a900473ffffffffffffffffffffffffffffffffffffffff169050828260000160006101000a81548173ffffffffffffffffffffffffffffffffffffffff021916908373ffffffffffffffffffffffffffffffffffffffff1602179055508273ffffffffffffffffffffffffffffffffffffffff168173ffffffffffffffffffffffffffffffffffffffff167f8be0079c531659141344cd1fd0a4f28419497f9722a3daafe3b4186f6b6457e060405160405180910390a3505050565b6000613fe0614884565b90507fc565b045403dc03c2eea82b81a0465edad9e2e7fc4d97e11421c209da93d7a938160010160009054906101000a900465ffffffffffff1683604051614029929190618804565b60405180910390a1818160010160006101000a81548165ffffffffffff021916908365ffffffffffff1602179055505050565b6000808251905060348110156140765760019150506141a2565b60006014820384015190507f2370726f706f7365723d3078000000000000000000000000000000000000000073ffffffffffffffffffffffffffffffffffffffff19168173ffffffffffffffffffffffffffffffffffffffff1916146140e1576001925050506141a2565b6000806028846140f19190618330565b90505b8381101561416c5760008061412588848151811061411557614114618152565b5b602001015160f81c60f81b6156d1565b915091508161413d57600196505050505050506141a2565b8060ff1660048573ffffffffffffffffffffffffffffffffffffffff16901b17935050508060010190506140f4565b508573ffffffffffffffffffffffffffffffffffffffff168173ffffffffffffffffffffffffffffffffffffffff161493505050505b92915050565b60006141b7868686868661576b565b905095945050505050565b60007f5ab42ced628888259c08ac98db1eb0cf702fc1501344311d8b100cd1bfe4bb00905090565b60007fa16a46d94261c7517cc8ff89f61c0ce93598e3c849801011dee649a6a557d100905090565b6060600061421e6141ea565b905080600201805461422f906180c7565b80601f016020809104026020016040519081016040528092919081815260200182805461425b906180c7565b80156142a85780601f1061427d576101008083540402835291602001916142a8565b820191906000526020600020905b81548152906001019060200180831161428b57829003601f168201915b505050505091505090565b606060006142bf6141ea565b90508060030180546142d0906180c7565b80601f01602080910402602001604051908101604052809291908181526020018280546142fc906180c7565b80156143495780601f1061431e57610100808354040283529160200191614349565b820191906000526020600020905b81548152906001019060200180831161432c57829003601f168201915b505050505091505090565b60007f9016d09d72d40fdae2fd8ceac6b6234c7706214fd39c1cd1e609a0528c199300905090565b600061438743613d24565b905090565b6000614396612e00565b73ffffffffffffffffffffffffffffffffffffffff16633a46b1a885856040518363ffffffff1660e01b81526004016143d092919061882d565b602060405180830381865afa1580156143ed573d6000803e3d6000fd5b505050506040513d601f19601f82011682018060405250810190614411919061886b565b90509392505050565b600080826000018054905090506000811461447757614448836000016001836144439190618330565b615643565b60000160069054906101000a900479ffffffffffffffffffffffffffffffffffffffffffffffffffff1661447a565b60005b915050919050565b600061448c61464c565b90507f08f74ea46ef7894f65eabfb5e6e695de773a000b47c529ab559178069b2264018160000160009054906101000a900473ffffffffffffffffffffffffffffffffffffffff16836040516144e3929190618898565b60405180910390a1818160000160006101000a81548173ffffffffffffffffffffffffffffffffffffffff021916908373ffffffffffffffffffffffffffffffffffffffff1602179055505050565b600060019050919050565b600080614548614884565b9050806000015491505090565b60007ff0c57e16840df040f15088dc2f81fe391c3923bec73e23a9662efc9c229c6a00905090565b614585615863565b61459681614591611d69565b6158a3565b61459f816158f8565b50565b6145aa615863565b6145b5838383615922565b505050565b6145c2615863565b565b6145cc615863565b565b6145d6615863565b6145df8161594a565b50565b6145ea615863565b6145f3816159a5565b50565b6145fe615863565b614607816159b9565b50565b614612615863565b61461b816159cd565b50565b614626615863565b565b60608261463d5761463882615a53565b614645565b819050614646565b5b92915050565b60007f0d5829787b8befdbc6044ef7457d8a95c2a04bc99235349f1a212c063e59d400905090565b600061467e614884565b905060008263ffffffff16036146cc5760006040517ff1cfbf050000000000000000000000000000000000000000000000000000000081526004016146c391906188fc565b60405180910390fd5b7f7e3f7f0708a84de9203036abaa450dccc85ad5ff52f78c170f3edb55cf5e88288160010160069054906101000a900463ffffffff1683604051614711929190618948565b60405180910390a1818160010160066101000a81548163ffffffff021916908363ffffffff1602179055505050565b606060405180602001604052806000815250905090565b6000614761614884565b90507fccb45da8d5717e6c4544694297c4ba5cf151d455c9bb0ed4fc7a38411bc0546181600001548360405161479892919061857a565b60405180910390a18181600001819055505050565b60006147b7612517565b6147c083611f72565b6147c8612e00565b73ffffffffffffffffffffffffffffffffffffffff16638e539e8c856040518263ffffffff1660e01b815260040161480091906169a8565b602060405180830381865afa15801561481d573d6000803e3d6000fd5b505050506040513d601f19601f82011682018060405250810190614841919061886b565b61484b9190618971565b61485591906189e2565b9050919050565b60007f3ba4977254e415696610a40ebf2258dbfa0ec6a2ff64e84bfe715ff16977cc00905090565b60007ed7616c8fe29c6c2fbe1d0c5bc8f2faa4c35b43746e70b24b4d532752affd00905090565b3660008036915091509091565b6000808260000160009054906101000a90046fffffffffffffffffffffffffffffffff1690508260000160109054906101000a90046fffffffffffffffffffffffffffffffff166fffffffffffffffffffffffffffffffff16816fffffffffffffffffffffffffffffffff1603614934576149336031614ca9565b5b826001016000826fffffffffffffffffffffffffffffffff166fffffffffffffffffffffffffffffffff168152602001908152602001600020549150826001016000826fffffffffffffffffffffffffffffffff166fffffffffffffffffffffffffffffffff16815260200190815260200160002060009055600181018360000160006101000a8154816fffffffffffffffffffffffffffffffff02191690836fffffffffffffffffffffffffffffffff16021790555050919050565b600079ffffffffffffffffffffffffffffffffffffffffffffffffffff8016821115614a575760d0826040517f6dfcc650000000000000000000000000000000000000000000000000000000008152600401614a4e929190618a4e565b60405180910390fd5b819050919050565b600080614a70856000018585615a98565b91509150935093915050565b600080614a8761464c565b905060008160000160009054906101000a900473ffffffffffffffffffffffffffffffffffffffff1673ffffffffffffffffffffffffffffffffffffffff1663f27a0c926040518163ffffffff1660e01b8152600401602060405180830381865afa158015614afa573d6000803e3d6000fd5b505050506040513d601f19601f82011682018060405250810190614b1e919061886b565b90506000614b2b85615da5565b90508260000160009054906101000a900473ffffffffffffffffffffffffffffffffffffffff1673ffffffffffffffffffffffffffffffffffffffff1663b1c5f4278989896000866040518663ffffffff1660e01b8152600401614b93959493929190618ab5565b602060405180830381865afa158015614bb0573d6000803e3d6000fd5b505050506040513d601f19601f82011682018060405250810190614bd49190618648565b8360010160008b8152602001908152602001600020819055508260000160009054906101000a900473ffffffffffffffffffffffffffffffffffffffff1673ffffffffffffffffffffffffffffffffffffffff16638f2a0bb0898989600086886040518763ffffffff1660e01b8152600401614c5596959493929190618b1d565b600060405180830381600087803b158015614c6f57600080fd5b505af1158015614c83573d6000803e3d6000fd5b50505050614c9b8242614c9691906187d0565b613d24565b935050505095945050505050565b634e487b71600052806020526024601cfd5b6000614cc561464c565b90508060000160009054906101000a900473ffffffffffffffffffffffffffffffffffffffff1673ffffffffffffffffffffffffffffffffffffffff1663e38335e5348787876000614d1689615da5565b6040518763ffffffff1660e01b8152600401614d36959493929190618ab5565b6000604051808303818588803b158015614d4f57600080fd5b505af1158015614d63573d6000803e3d6000fd5b505050505080600101600087815260200190815260200160002060009055505050505050565b600080614d946132c8565b905060008160010160008581526020019081526020016000209050600081600001601e9054906101000a900460ff169050600082600001601f9054906101000a900460ff1690508115614dee576007945050505050614efd565b8015614e01576002945050505050614efd565b6000614e0c87611807565b905060008103614e5357866040517f6ad06075000000000000000000000000000000000000000000000000000000008152600401614e4a91906169a8565b60405180910390fd5b6000614e5d61248b565b65ffffffffffff169050808210614e7d5760009650505050505050614efd565b6000614e88896126a8565b9050818110614ea1576001975050505050505050614efd565b614eaa89615dc3565b1580614ebc5750614eba89615e19565b155b15614ed1576003975050505050505050614efd565b6000614edc8a612597565b03614ef1576004975050505050505050614efd565b60059750505050505050505b919050565b600080614f0d61464c565b90506000614f1d87878787615e53565b905060008260010160008381526020019081526020016000205490506000801b8114614fec578260000160009054906101000a900473ffffffffffffffffffffffffffffffffffffffff1673ffffffffffffffffffffffffffffffffffffffff1663c4d252f5826040518263ffffffff1660e01b8152600401614fa091906173f9565b600060405180830381600087803b158015614fba57600080fd5b505af1158015614fce573d6000803e3d6000fd5b50505050826001016000838152602001908152602001600020600090555b819350505050949350505050565b60006150287f360894a13ba1a3210667c828492db98dca3e2076cc3735a920a3ca505d382bbc60001b615f49565b60000160009054906101000a900473ffffffffffffffffffffffffffffffffffffffff16905090565b61505a82615f53565b8173ffffffffffffffffffffffffffffffffffffffff167fbc7cd75a20ee27fd9adebab32041f755214dbc6bffa90cc0225b39da2e5c2d3b60405160405180910390a26000815111156150b7576150b18282616020565b506150c0565b6150bf6160a4565b5b5050565b60006150ce6160e1565b905090565b60006040517f190100000000000000000000000000000000000000000000000000000000000081528360028201528260228201526042812091505092915050565b600080600060418451036151595760008060006020870151925060408701519150606087015160001a905061514b88828585616145565b955095509550505050615169565b60006002855160001b9250925092505b9250925092565b60008060008573ffffffffffffffffffffffffffffffffffffffff16858560405160240161519f929190618b93565b604051602081830303815290604052631626ba7e60e01b6020820180517bffffffffffffffffffffffffffffffffffffffffffffffffffffffff83818316178352505050506040516151f19190618bf4565b600060405180830381855afa9150503d806000811461522c576040519150601f19603f3d011682016040523d82523d6000602084013e615231565b606091505b509150915081801561524557506020815110155b80156152895750631626ba7e60e01b7bffffffffffffffffffffffffffffffffffffffffffffffffffffffff1916818060200190518101906152879190618648565b145b925050509392505050565b60008061529f6137ca565b9050600081600001600089815260200190815260200160002090508060030160008873ffffffffffffffffffffffffffffffffffffffff1673ffffffffffffffffffffffffffffffffffffffff16815260200190815260200160002060009054906101000a900460ff161561534b57866040517f71c6af490000000000000000000000000000000000000000000000000000000081526004016153429190616b0f565b60405180910390fd5b60018160030160008973ffffffffffffffffffffffffffffffffffffffff1673ffffffffffffffffffffffffffffffffffffffff16815260200190815260200160002060006101000a81548160ff021916908315150217905550600060028111156153b9576153b8617414565b5b60ff168660ff16036153e557848160000160008282546153d991906187d0565b92505081905550615498565b600160028111156153f9576153f8617414565b5b60ff168660ff1603615425578481600101600082825461541991906187d0565b92505081905550615497565b60028081111561543857615437617414565b5b60ff168660ff1603615464578481600201600082825461545891906187d0565b92505081905550615496565b6040517f06b337c200000000000000000000000000000000000000000000000000000000815260040160405180910390fd5b5b5b849250505095945050505050565b6000600182116154b85781905061563e565b600082905060006001905070010000000000000000000000000000000082106154ea57608082901c9150604081901b90505b68010000000000000000821061550957604082901c9150602081901b90505b640100000000821061552457602082901c9150601081901b90505b62010000821061553d57601082901c9150600881901b90505b610100821061555557600882901c9150600481901b90505b6010821061556c57600482901c9150600281901b90505b6004821061557c57600181901b90505b600181600302901c90506001818581615598576155976189b3565b5b048201901c905060018185816155b1576155b06189b3565b5b048201901c905060018185816155ca576155c96189b3565b5b048201901c905060018185816155e3576155e26189b3565b5b048201901c905060018185816155fc576155fb6189b3565b5b048201901c90506001818581615615576156146189b3565b5b048201901c905061563781858161562f5761562e6189b3565b5b048211616239565b8103925050505b919050565b60008260005281602060002001905092915050565b60005b818310156156c657600061566f8484616245565b90508465ffffffffffff166156848783615643565b60000160009054906101000a900465ffffffffffff1665ffffffffffff1611156156b0578092506156c0565b6001816156bd91906187d0565b93505b5061565b565b819050949350505050565b60008060008360f81c90508060ff16602f1080156156f25750603a8160ff16105b15615707576001603082039250925050615766565b8060ff16604010801561571d575060478160ff16105b15615732576001603782039250925050615766565b8060ff166060108015615748575060678160ff16105b1561575d576001605782039250925050615766565b60008092509250505b915091565b60008061577661339d565b90506000615787888888888861626b565b90508160000181908060018154018082558091505060019003906000526020600020016000909190919091505560405180608001604052808981526020018881526020018781526020018680519060200120815250826001016000838152602001908152602001600020600082015181600001908051906020019061580d92919061670f565b50602082015181600101908051906020019061582a929190616799565b5060408201518160020190805190602001906158479291906167e6565b5060608201518160030155905050809250505095945050505050565b61586b616510565b6158a1576040517fd7e6bcf800000000000000000000000000000000000000000000000000000000815260040160405180910390fd5b565b6158ab615863565b60006158b56141ea565b9050828160020190816158c89190618dad565b50818160030190816158da9190618dad565b506000801b81600001819055506000801b8160010181905550505050565b615900615863565b600061590a6132c8565b90508181600001908161591d9190618dad565b505050565b61592a615863565b61593383613fd6565b61593c82614674565b61594581614757565b505050565b615952615863565b600061595c61485c565b9050818160000160006101000a81548173ffffffffffffffffffffffffffffffffffffffff021916908373ffffffffffffffffffffffffffffffffffffffff1602179055505050565b6159ad615863565b6159b6816131f5565b50565b6159c1615863565b6159ca81614482565b50565b6159d5615863565b600073ffffffffffffffffffffffffffffffffffffffff168173ffffffffffffffffffffffffffffffffffffffff1603615a475760006040517f1e4fbdf7000000000000000000000000000000000000000000000000000000008152600401615a3e9190616b0f565b60405180910390fd5b615a5081613eff565b50565b600081511115615a665780518082602001fd5b6040517fd6bda27500000000000000000000000000000000000000000000000000000000815260040160405180910390fd5b6000806000858054905090506000811115615cb5576000615ac587600184615ac09190618330565b615643565b905060008160000160009054906101000a900465ffffffffffff16905060008260000160069054906101000a900479ffffffffffffffffffffffffffffffffffffffffffffffffffff1690508765ffffffffffff168265ffffffffffff161115615b5b576040517f2520601d00000000000000000000000000000000000000000000000000000000815260040160405180910390fd5b8765ffffffffffff168265ffffffffffff1603615bc657868360000160066101000a81548179ffffffffffffffffffffffffffffffffffffffffffffffffffff021916908379ffffffffffffffffffffffffffffffffffffffffffffffffffff160217905550615ca6565b8860405180604001604052808a65ffffffffffff1681526020018979ffffffffffffffffffffffffffffffffffffffffffffffffffff168152509080600181540180825580915050600190039060005260206000200160009091909190915060008201518160000160006101000a81548165ffffffffffff021916908365ffffffffffff16021790555060208201518160000160066101000a81548179ffffffffffffffffffffffffffffffffffffffffffffffffffff021916908379ffffffffffffffffffffffffffffffffffffffffffffffffffff16021790555050505b80879550955050505050615d9d565b8560405180604001604052808765ffffffffffff1681526020018679ffffffffffffffffffffffffffffffffffffffffffffffffffff168152509080600181540180825580915050600190039060005260206000200160009091909190915060008201518160000160006101000a81548165ffffffffffff021916908365ffffffffffff16021790555060208201518160000160066101000a81548179ffffffffffffffffffffffffffffffffffffffffffffffffffff021916908379ffffffffffffffffffffffffffffffffffffffffffffffffffff160217905550505060008492509250505b935093915050565b6000813060601b6bffffffffffffffffffffffff1916189050919050565b600080615dce6137ca565b90506000816000016000858152602001908152602001600020905080600201548160010154615dfd91906187d0565b615e0e615e0986611807565b612dee565b111592505050919050565b600080615e246137ca565b905060008160000160008581526020019081526020016000209050806000015481600101541192505050919050565b600080615e5e6132c8565b90506000615e6e878787876129cb565b9050615ed381615e7e60076132f0565b615e8860066132f0565b615e9260026132f0565b600180600780811115615ea857615ea7617414565b5b615eb29190618e7f565b6002615ebe9190618fe7565b615ec89190618330565b60001b181818613316565b506001826001016000838152602001908152602001600020600001601f6101000a81548160ff0219169083151502179055507f789cf55be980739dad1d0699b93b58e806b51c9d96619bfa8fe0a28abaa7b30c81604051615f3491906169a8565b60405180910390a18092505050949350505050565b6000819050919050565b60008173ffffffffffffffffffffffffffffffffffffffff163b03615faf57806040517f4c9c8ce3000000000000000000000000000000000000000000000000000000008152600401615fa69190616b0f565b60405180910390fd5b80615fdc7f360894a13ba1a3210667c828492db98dca3e2076cc3735a920a3ca505d382bbc60001b615f49565b60000160006101000a81548173ffffffffffffffffffffffffffffffffffffffff021916908373ffffffffffffffffffffffffffffffffffffffff16021790555050565b60606000808473ffffffffffffffffffffffffffffffffffffffff168460405161604a9190618bf4565b600060405180830381855af49150503d8060008114616085576040519150601f19603f3d011682016040523d82523d6000602084013e61608a565b606091505b509150915061609a858383616530565b9250505092915050565b60003411156160df576040517fb398979f00000000000000000000000000000000000000000000000000000000815260040160405180910390fd5b565b60007f8b73c3c69bb8fe3d512ecc4cf759cc79239f7b179b0ffacaa9a75d522b39400f61610c6165bf565b61611461663b565b463060405160200161612a959493929190619032565b60405160208183030381529060405280519060200120905090565b60008060007f7fffffffffffffffffffffffffffffff5d576e7357a4501ddfe92f46681b20a08460001c111561618557600060038592509250925061622f565b6000600188888888604051600081526020016040526040516161aa9493929190619085565b6020604051602081039080840390855afa1580156161cc573d6000803e3d6000fd5b505050602060405103519050600073ffffffffffffffffffffffffffffffffffffffff168173ffffffffffffffffffffffffffffffffffffffff160361622057600060016000801b9350935093505061622f565b8060008060001b935093509350505b9450945094915050565b60008115159050919050565b6000600282841861625691906189e2565b82841661626391906187d0565b905092915050565b6000806162766132c8565b905061628b87878787805190602001206129cb565b9150855187511415806162a057508451875114155b806162ac575060008751145b156162f5578651855187516040517f447b05d00000000000000000000000000000000000000000000000000000000081526004016162ec93929190617542565b60405180910390fd5b600081600101600084815260200190815260200160002060000160149054906101000a900465ffffffffffff1665ffffffffffff161461637b5781616339836118dc565b6000801b6040517f31b75e4d000000000000000000000000000000000000000000000000000000008152600401616372939291906185a3565b60405180910390fd5b60006163856118cd565b61638d61248b565b65ffffffffffff1661639f91906187d0565b905060006163ab611107565b905060008360010160008681526020019081526020016000209050858160000160006101000a81548173ffffffffffffffffffffffffffffffffffffffff021916908373ffffffffffffffffffffffffffffffffffffffff16021790555061641283613d24565b8160000160146101000a81548165ffffffffffff021916908365ffffffffffff160217905550616441826166b7565b81600001601a6101000a81548163ffffffff021916908363ffffffff1602179055507f7d84a6263ae0d98d3329bd7b46bb4e8d6f98cd35a7adb45c274c8b7fd5ebd5e085878c8c8e5167ffffffffffffffff8111156164a3576164a2616b60565b5b6040519080825280602002602001820160405280156164d657816020015b60608152602001906001900390816164c15790505b508d89898b6164e591906187d0565b8f6040516164fb999897969594939291906191d6565b60405180910390a15050505095945050505050565b600061651a614555565b60000160089054906101000a900460ff16905090565b6060826165455761654082615a53565b6165b7565b6000825114801561656d575060008473ffffffffffffffffffffffffffffffffffffffff163b145b156165af57836040517f9996b3150000000000000000000000000000000000000000000000000000000081526004016165a69190616b0f565b60405180910390fd5b8190506165b8565b5b9392505050565b6000806165ca6141ea565b905060006165d6614212565b90506000815111156165f357808051906020012092505050616638565b6000826000015490506000801b811461661157809350505050616638565b7fc5d2460186f7233c927e7db2dcc703c0e500b653ca82273b7bfad8045d85a47093505050505b90565b6000806166466141ea565b905060006166526142b3565b905060008151111561666f578080519060200120925050506166b4565b6000826001015490506000801b811461668d578093505050506166b4565b7fc5d2460186f7233c927e7db2dcc703c0e500b653ca82273b7bfad8045d85a47093505050505b90565b600063ffffffff8016821115616707576020826040517f6dfcc6500000000000000000000000000000000000000000000000000000000081526004016166fe9291906192c1565b60405180910390fd5b819050919050565b828054828255906000526020600020908101928215616788579160200282015b828111156167875782518260006101000a81548173ffffffffffffffffffffffffffffffffffffffff021916908373ffffffffffffffffffffffffffffffffffffffff1602179055509160200191906001019061672f565b5b509050616795919061683f565b5090565b8280548282559060005260206000209081019282156167d5579160200282015b828111156167d45782518255916020019190600101906167b9565b5b5090506167e2919061683f565b5090565b82805482825590600052602060002090810192821561682e579160200282015b8281111561682d57825182908161681d9190619345565b5091602001919060010190616806565b5b50905061683b919061685c565b5090565b5b80821115616858576000816000905550600101616840565b5090565b5b8082111561687c57600081816168739190616880565b5060010161685d565b5090565b50805461688c906180c7565b6000825580601f1061689e57506168bd565b601f0160209004906000526020600020908101906168bc919061683f565b5b50565b6000604051905090565b600080fd5b600080fd5b60007fffffffff0000000000000000000000000000000000000000000000000000000082169050919050565b616909816168d4565b811461691457600080fd5b50565b60008135905061692681616900565b92915050565b600060208284031215616942576169416168ca565b5b600061695084828501616917565b91505092915050565b60008115159050919050565b61696e81616959565b82525050565b60006020820190506169896000830184616965565b92915050565b6000819050919050565b6169a28161698f565b82525050565b60006020820190506169bd6000830184616999565b92915050565b6169cc8161698f565b81146169d757600080fd5b50565b6000813590506169e9816169c3565b92915050565b600060208284031215616a0557616a046168ca565b5b6000616a13848285016169da565b91505092915050565b600081519050919050565b600082825260208201905092915050565b60005b83811015616a56578082015181840152602081019050616a3b565b60008484015250505050565b6000601f19601f8301169050919050565b6000616a7e82616a1c565b616a888185616a27565b9350616a98818560208601616a38565b616aa181616a62565b840191505092915050565b60006020820190508181036000830152616ac68184616a73565b905092915050565b600073ffffffffffffffffffffffffffffffffffffffff82169050919050565b6000616af982616ace565b9050919050565b616b0981616aee565b82525050565b6000602082019050616b246000830184616b00565b92915050565b616b3381616aee565b8114616b3e57600080fd5b50565b600081359050616b5081616b2a565b92915050565b600080fd5b600080fd5b7f4e487b7100000000000000000000000000000000000000000000000000000000600052604160045260246000fd5b616b9882616a62565b810181811067ffffffffffffffff82111715616bb757616bb6616b60565b5b80604052505050565b6000616bca6168c0565b9050616bd68282616b8f565b919050565b600067ffffffffffffffff821115616bf657616bf5616b60565b5b616bff82616a62565b9050602081019050919050565b82818337600083830152505050565b6000616c2e616c2984616bdb565b616bc0565b905082815260208101848484011115616c4a57616c49616b5b565b5b616c55848285616c0c565b509392505050565b600082601f830112616c7257616c71616b56565b5b8135616c82848260208601616c1b565b91505092915050565b60008060008060808587031215616ca557616ca46168ca565b5b6000616cb387828801616b41565b9450506020616cc487828801616b41565b9350506040616cd5878288016169da565b925050606085013567ffffffffffffffff811115616cf657616cf56168cf565b5b616d0287828801616c5d565b91505092959194509250565b616d17816168d4565b82525050565b6000602082019050616d326000830184616d0e565b92915050565b600067ffffffffffffffff821115616d5357616d52616b60565b5b602082029050602081019050919050565b600080fd5b6000616d7c616d7784616d38565b616bc0565b90508083825260208201905060208402830185811115616d9f57616d9e616d64565b5b835b81811015616dc85780616db48882616b41565b845260208401935050602081019050616da1565b5050509392505050565b600082601f830112616de757616de6616b56565b5b8135616df7848260208601616d69565b91505092915050565b600067ffffffffffffffff821115616e1b57616e1a616b60565b5b602082029050602081019050919050565b6000616e3f616e3a84616e00565b616bc0565b90508083825260208201905060208402830185811115616e6257616e61616d64565b5b835b81811015616e8b5780616e7788826169da565b845260208401935050602081019050616e64565b5050509392505050565b600082601f830112616eaa57616ea9616b56565b5b8135616eba848260208601616e2c565b91505092915050565b600067ffffffffffffffff821115616ede57616edd616b60565b5b602082029050602081019050919050565b6000616f02616efd84616ec3565b616bc0565b90508083825260208201905060208402830185811115616f2557616f24616d64565b5b835b81811015616f6c57803567ffffffffffffffff811115616f4a57616f49616b56565b5b808601616f578982616c5d565b85526020850194505050602081019050616f27565b5050509392505050565b600082601f830112616f8b57616f8a616b56565b5b8135616f9b848260208601616eef565b91505092915050565b6000819050919050565b616fb781616fa4565b8114616fc257600080fd5b50565b600081359050616fd481616fae565b92915050565b60008060008060808587031215616ff457616ff36168ca565b5b600085013567ffffffffffffffff811115617012576170116168cf565b5b61701e87828801616dd2565b945050602085013567ffffffffffffffff81111561703f5761703e6168cf565b5b61704b87828801616e95565b935050604085013567ffffffffffffffff81111561706c5761706b6168cf565b5b61707887828801616f76565b925050606061708987828801616fc5565b91505092959194509250565b600081519050919050565b600082825260208201905092915050565b6000819050602082019050919050565b6170ca81616aee565b82525050565b60006170dc83836170c1565b60208301905092915050565b6000602082019050919050565b600061710082617095565b61710a81856170a0565b9350617115836170b1565b8060005b8381101561714657815161712d88826170d0565b9750617138836170e8565b925050600181019050617119565b5085935050505092915050565b600081519050919050565b600082825260208201905092915050565b6000819050602082019050919050565b6171888161698f565b82525050565b600061719a838361717f565b60208301905092915050565b6000602082019050919050565b60006171be82617153565b6171c8818561715e565b93506171d38361716f565b8060005b838110156172045781516171eb888261718e565b97506171f6836171a6565b9250506001810190506171d7565b5085935050505092915050565b600081519050919050565b600082825260208201905092915050565b6000819050602082019050919050565b600081519050919050565b600082825260208201905092915050565b60006172648261723d565b61726e8185617248565b935061727e818560208601616a38565b61728781616a62565b840191505092915050565b600061729e8383617259565b905092915050565b6000602082019050919050565b60006172be82617211565b6172c8818561721c565b9350836020820285016172da8561722d565b8060005b8581101561731657848403895281516172f78582617292565b9450617302836172a6565b925060208a019950506001810190506172de565b50829750879550505050505092915050565b61733181616fa4565b82525050565b6000608082019050818103600083015261735181876170f5565b9050818103602083015261736581866171b3565b9050818103604083015261737981856172b3565b90506173886060830184617328565b95945050505050565b600060a0820190506173a66000830188616999565b81810360208301526173b881876170f5565b905081810360408301526173cc81866171b3565b905081810360608301526173e081856172b3565b90506173ef6080830184617328565b9695505050505050565b600060208201905061740e6000830184617328565b92915050565b7f4e487b7100000000000000000000000000000000000000000000000000000000600052602160045260246000fd5b6008811061745457617453617414565b5b50565b600081905061746582617443565b919050565b600061747582617457565b9050919050565b6174858161746a565b82525050565b60006020820190506174a0600083018461747c565b92915050565b600080604083850312156174bd576174bc6168ca565b5b60006174cb858286016169da565b92505060206174dc85828601616b41565b9150509250929050565b600080604083850312156174fd576174fc6168ca565b5b600061750b85828601616b41565b925050602083013567ffffffffffffffff81111561752c5761752b6168cf565b5b61753885828601616c5d565b9150509250929050565b60006060820190506175576000830186616999565b6175646020830185616999565b6175716040830184616999565b949350505050565b600060ff82169050919050565b61758f81617579565b811461759a57600080fd5b50565b6000813590506175ac81617586565b92915050565b600080604083850312156175c9576175c86168ca565b5b60006175d7858286016169da565b92505060206175e88582860161759d565b9150509250929050565b600080fd5b60008083601f84011261760d5761760c616b56565b5b8235905067ffffffffffffffff81111561762a576176296175f2565b5b60208301915083600182028301111561764657617645616d64565b5b9250929050565b600080600080600080600060c0888a03121561766c5761766b6168ca565b5b600061767a8a828b016169da565b975050602061768b8a828b0161759d565b965050604061769c8a828b01616b41565b955050606088013567ffffffffffffffff8111156176bd576176bc6168cf565b5b6176c98a828b016175f7565b9450945050608088013567ffffffffffffffff8111156176ec576176eb6168cf565b5b6176f88a828b01616c5d565b92505060a088013567ffffffffffffffff811115617719576177186168cf565b5b6177258a828b01616c5d565b91505092959891949750929550565b6000806000806000608086880312156177505761774f6168ca565b5b600061775e888289016169da565b955050602061776f8882890161759d565b945050604086013567ffffffffffffffff8111156177905761778f6168cf565b5b61779c888289016175f7565b9350935050606086013567ffffffffffffffff8111156177bf576177be6168cf565b5b6177cb88828901616c5d565b9150509295509295909350565b600065ffffffffffff82169050919050565b6177f3816177d8565b81146177fe57600080fd5b50565b600081359050617810816177ea565b92915050565b60006020828403121561782c5761782b6168ca565b5b600061783a84828501617801565b91505092915050565b6000806000806060858703121561785d5761785c6168ca565b5b600061786b878288016169da565b945050602061787c8782880161759d565b935050604085013567ffffffffffffffff81111561789d5761789c6168cf565b5b6178a9878288016175f7565b925092505092959194509250565b600067ffffffffffffffff8211156178d2576178d1616b60565b5b6178db82616a62565b9050602081019050919050565b60006178fb6178f6846178b7565b616bc0565b90508281526020810184848401111561791757617916616b5b565b5b617922848285616c0c565b509392505050565b600082601f83011261793f5761793e616b56565b5b813561794f8482602086016178e8565b91505092915050565b60008060008060808587031215617972576179716168ca565b5b600085013567ffffffffffffffff8111156179905761798f6168cf565b5b61799c87828801616dd2565b945050602085013567ffffffffffffffff8111156179bd576179bc6168cf565b5b6179c987828801616e95565b935050604085013567ffffffffffffffff8111156179ea576179e96168cf565b5b6179f687828801616f76565b925050606085013567ffffffffffffffff811115617a1757617a166168cf565b5b617a238782880161792a565b91505092959194509250565b600060208284031215617a4557617a446168ca565b5b6000617a5384828501616b41565b91505092915050565b60007fff0000000000000000000000000000000000000000000000000000000000000082169050919050565b617a9181617a5c565b82525050565b600060e082019050617aac600083018a617a88565b8181036020830152617abe8189616a73565b90508181036040830152617ad28188616a73565b9050617ae16060830187616999565b617aee6080830186616b00565b617afb60a0830185617328565b81810360c0830152617b0d81846171b3565b905098975050505050505050565b60008060008060808587031215617b3557617b346168ca565b5b6000617b43878288016169da565b9450506020617b548782880161759d565b9350506040617b6587828801616b41565b925050606085013567ffffffffffffffff811115617b8657617b856168cf565b5b617b9287828801616c5d565b91505092959194509250565b617ba7816177d8565b82525050565b6000602082019050617bc26000830184617b9e565b92915050565b600080600060608486031215617be157617be06168ca565b5b6000617bef86828701616b41565b9350506020617c00868287016169da565b925050604084013567ffffffffffffffff811115617c2157617c206168cf565b5b617c2d86828701616c5d565b9150509250925092565b6000617c4282616ace565b9050919050565b6000617c5482617c37565b9050919050565b617c6481617c49565b8114617c6f57600080fd5b50565b600081359050617c8181617c5b565b92915050565b600060208284031215617c9d57617c9c6168ca565b5b6000617cab84828501617c72565b91505092915050565b600080600080600060a08688031215617cd057617ccf6168ca565b5b6000617cde88828901616b41565b9550506020617cef88828901616b41565b945050604086013567ffffffffffffffff811115617d1057617d0f6168cf565b5b617d1c88828901616e95565b935050606086013567ffffffffffffffff811115617d3d57617d3c6168cf565b5b617d4988828901616e95565b925050608086013567ffffffffffffffff811115617d6a57617d696168cf565b5b617d7688828901616c5d565b9150509295509295909350565b6000617d8e82616aee565b9050919050565b617d9e81617d83565b8114617da957600080fd5b50565b600081359050617dbb81617d95565b92915050565b600080600060608486031215617dda57617dd96168ca565b5b6000617de886828701617dac565b9350506020617df986828701617c72565b9250506040617e0a86828701616b41565b9150509250925092565b60008083601f840112617e2a57617e29616b56565b5b8235905067ffffffffffffffff811115617e4757617e466175f2565b5b602083019150836001820283011115617e6357617e62616d64565b5b9250929050565b60008060008060608587031215617e8457617e836168ca565b5b6000617e9287828801616b41565b9450506020617ea3878288016169da565b935050604085013567ffffffffffffffff811115617ec457617ec36168cf565b5b617ed087828801617e14565b925092505092959194509250565b600063ffffffff82169050919050565b617ef781617ede565b8114617f0257600080fd5b50565b600081359050617f1481617eee565b92915050565b600060208284031215617f3057617f2f6168ca565b5b6000617f3e84828501617f05565b91505092915050565b60008060408385031215617f5e57617f5d6168ca565b5b6000617f6c85828601616b41565b9250506020617f7d858286016169da565b9150509250929050565b600080600080600060a08688031215617fa357617fa26168ca565b5b6000617fb188828901616b41565b9550506020617fc288828901616b41565b9450506040617fd3888289016169da565b9350506060617fe4888289016169da565b925050608086013567ffffffffffffffff811115618005576180046168cf565b5b61801188828901616c5d565b9150509295509295909350565b6000819050919050565b600061804361803e61803984616ace565b61801e565b616ace565b9050919050565b600061805582618028565b9050919050565b60006180678261804a565b9050919050565b6180778161805c565b82525050565b6000602082019050618092600083018461806e565b92915050565b7f4e487b7100000000000000000000000000000000000000000000000000000000600052602260045260246000fd5b600060028204905060018216806180df57607f821691505b6020821081036180f2576180f1618098565b5b50919050565b600061811361810e618109846177d8565b61801e565b61698f565b9050919050565b618123816180f8565b82525050565b600060408201905061813e6000830185616999565b61814b602083018461811a565b9392505050565b7f4e487b7100000000000000000000000000000000000000000000000000000000600052603260045260246000fd5b600061819461818f846178b7565b616bc0565b9050828152602081018484840111156181b0576181af616b5b565b5b6181bb848285616a38565b509392505050565b600082601f8301126181d8576181d7616b56565b5b81516181e8848260208601618181565b91505092915050565b600060208284031215618207576182066168ca565b5b600082015167ffffffffffffffff811115618225576182246168cf565b5b618231848285016181c3565b91505092915050565b600081905092915050565b6000618251838561823a565b935061825e838584616c0c565b82840190509392505050565b6000618277828486618245565b91508190509392505050565b61828c81617579565b82525050565b600060e0820190506182a7600083018a617328565b6182b46020830189616999565b6182c16040830188618283565b6182ce6060830187616b00565b6182db6080830186616999565b6182e860a0830185617328565b6182f560c0830184617328565b98975050505050505050565b7f4e487b7100000000000000000000000000000000000000000000000000000000600052601160045260246000fd5b600061833b8261698f565b91506183468361698f565b925082820390508181111561835e5761835d618301565b5b92915050565b600061836f826177d8565b915061837a836177d8565b9250828203905065ffffffffffff81111561839857618397618301565b5b92915050565b60006060820190506183b36000830186616b00565b6183c06020830185616999565b6183cd6040830184616999565b949350505050565b7f4549503731323a20556e696e697469616c697a65640000000000000000000000600082015250565b600061840b601583616a27565b9150618416826183d5565b602082019050919050565b6000602082019050818103600083015261843a816183fe565b9050919050565b600060a0820190506184566000830188617328565b6184636020830187616999565b6184706040830186618283565b61847d6060830185616b00565b61848a6080830184616999565b9695505050505050565b6000815190506184a3816177ea565b92915050565b6000602082840312156184bf576184be6168ca565b5b60006184cd84828501618494565b91505092915050565b60006184e1826177d8565b91506184ec836177d8565b9250828201905065ffffffffffff81111561850a57618509618301565b5b92915050565b6000819050919050565b600067ffffffffffffffff82169050919050565b600061854961854461853f84618510565b61801e565b61851a565b9050919050565b6185598161852e565b82525050565b60006020820190506185746000830184618550565b92915050565b600060408201905061858f6000830185616999565b61859c6020830184616999565b9392505050565b60006060820190506185b86000830186616999565b6185c5602083018561747c565b6185d26040830184617328565b949350505050565b6185e381616959565b81146185ee57600080fd5b50565b600081519050618600816185da565b92915050565b60006020828403121561861c5761861b6168ca565b5b600061862a848285016185f1565b91505092915050565b60008151905061864281616fae565b92915050565b60006020828403121561865e5761865d6168ca565b5b600061866c84828501618633565b91505092915050565b600060808201905061868a6000830187616999565b6186976020830186618283565b6186a46040830185616999565b81810360608301526186b68184616a73565b905095945050505050565b600082825260208201905092915050565b60006186dd8261723d565b6186e781856186c1565b93506186f7818560208601616a38565b61870081616a62565b840191505092915050565b600060a0820190506187206000830188616999565b61872d6020830187618283565b61873a6040830186616999565b818103606083015261874c8185616a73565b9050818103608083015261876081846186d2565b90509695505050505050565b6000819050919050565b600061879161878c6187878461876c565b61801e565b617579565b9050919050565b6187a181618776565b82525050565b60006040820190506187bc6000830185618798565b6187c96020830184616999565b9392505050565b60006187db8261698f565b91506187e68361698f565b92508282019050808211156187fe576187fd618301565b5b92915050565b6000604082019050618819600083018561811a565b618826602083018461811a565b9392505050565b60006040820190506188426000830185616b00565b61884f6020830184616999565b9392505050565b600081519050618865816169c3565b92915050565b600060208284031215618881576188806168ca565b5b600061888f84828501618856565b91505092915050565b60006040820190506188ad6000830185616b00565b6188ba6020830184616b00565b9392505050565b6000819050919050565b60006188e66188e16188dc846188c1565b61801e565b61698f565b9050919050565b6188f6816188cb565b82525050565b600060208201905061891160008301846188ed565b92915050565b600061893261892d61892884617ede565b61801e565b61698f565b9050919050565b61894281618917565b82525050565b600060408201905061895d6000830185618939565b61896a6020830184618939565b9392505050565b600061897c8261698f565b91506189878361698f565b92508282026189958161698f565b915082820484148315176189ac576189ab618301565b5b5092915050565b7f4e487b7100000000000000000000000000000000000000000000000000000000600052601260045260246000fd5b60006189ed8261698f565b91506189f88361698f565b925082618a0857618a076189b3565b5b828204905092915050565b6000819050919050565b6000618a38618a33618a2e84618a13565b61801e565b617579565b9050919050565b618a4881618a1d565b82525050565b6000604082019050618a636000830185618a3f565b618a706020830184616999565b9392505050565b60008160001b9050919050565b6000618a9f618a9a618a95846188c1565b618a77565b616fa4565b9050919050565b618aaf81618a84565b82525050565b600060a0820190508181036000830152618acf81886170f5565b90508181036020830152618ae381876171b3565b90508181036040830152618af781866172b3565b9050618b066060830185618aa6565b618b136080830184617328565b9695505050505050565b600060c0820190508181036000830152618b3781896170f5565b90508181036020830152618b4b81886171b3565b90508181036040830152618b5f81876172b3565b9050618b6e6060830186618aa6565b618b7b6080830185617328565b618b8860a0830184616999565b979650505050505050565b6000604082019050618ba86000830185617328565b8181036020830152618bba81846186d2565b90509392505050565b6000618bce8261723d565b618bd8818561823a565b9350618be8818560208601616a38565b80840191505092915050565b6000618c008284618bc3565b915081905092915050565b60008190508160005260206000209050919050565b60006020601f8301049050919050565b600082821b905092915050565b600060088302618c6d7fffffffffffffffffffffffffffffffffffffffffffffffffffffffffffffffff82618c30565b618c778683618c30565b95508019841693508086168417925050509392505050565b6000618caa618ca5618ca08461698f565b61801e565b61698f565b9050919050565b6000819050919050565b618cc483618c8f565b618cd8618cd082618cb1565b848454618c3d565b825550505050565b600090565b618ced618ce0565b618cf8818484618cbb565b505050565b5b81811015618d1c57618d11600082618ce5565b600181019050618cfe565b5050565b601f821115618d6157618d3281618c0b565b618d3b84618c20565b81016020851015618d4a578190505b618d5e618d5685618c20565b830182618cfd565b50505b505050565b600082821c905092915050565b6000618d8460001984600802618d66565b1980831691505092915050565b6000618d9d8383618d73565b9150826002028217905092915050565b618db682616a1c565b67ffffffffffffffff811115618dcf57618dce616b60565b5b618dd982546180c7565b618de4828285618d20565b600060209050601f831160018114618e175760008415618e05578287015190505b618e0f8582618d91565b865550618e77565b601f198416618e2586618c0b565b60005b82811015618e4d57848901518255600182019150602085019450602081019050618e28565b86831015618e6a5784890151618e66601f891682618d73565b8355505b6001600288020188555050505b505050505050565b6000618e8a82617579565b9150618e9583617579565b9250828201905060ff811115618eae57618ead618301565b5b92915050565b60008160011c9050919050565b6000808291508390505b6001851115618f0b57808604811115618ee757618ee6618301565b5b6001851615618ef65780820291505b8081029050618f0485618eb4565b9450618ecb565b94509492505050565b600082618f245760019050618fe0565b81618f325760009050618fe0565b8160018114618f485760028114618f5257618f81565b6001915050618fe0565b60ff841115618f6457618f63618301565b5b8360020a915084821115618f7b57618f7a618301565b5b50618fe0565b5060208310610133831016604e8410600b8410161715618fb65782820a905083811115618fb157618fb0618301565b5b618fe0565b618fc38484846001618ec1565b92509050818404811115618fda57618fd9618301565b5b81810290505b9392505050565b6000618ff28261698f565b9150618ffd83617579565b925061902a7fffffffffffffffffffffffffffffffffffffffffffffffffffffffffffffffff8484618f14565b905092915050565b600060a0820190506190476000830188617328565b6190546020830187617328565b6190616040830186617328565b61906e6060830185616999565b61907b6080830184616b00565b9695505050505050565b600060808201905061909a6000830187617328565b6190a76020830186618283565b6190b46040830185617328565b6190c16060830184617328565b95945050505050565b600081519050919050565b600082825260208201905092915050565b6000819050602082019050919050565b600082825260208201905092915050565b600061911282616a1c565b61911c81856190f6565b935061912c818560208601616a38565b61913581616a62565b840191505092915050565b600061914c8383619107565b905092915050565b6000602082019050919050565b600061916c826190ca565b61917681856190d5565b935083602082028501619188856190e6565b8060005b858110156191c457848403895281516191a58582619140565b94506191b083619154565b925060208a0199505060018101905061918c565b50829750879550505050505092915050565b6000610120820190506191ec600083018c616999565b6191f9602083018b616b00565b818103604083015261920b818a6170f5565b9050818103606083015261921f81896171b3565b905081810360808301526192338188619161565b905081810360a083015261924781876172b3565b905061925660c0830186616999565b61926360e0830185616999565b8181036101008301526192768184616a73565b90509a9950505050505050505050565b6000819050919050565b60006192ab6192a66192a184619286565b61801e565b617579565b9050919050565b6192bb81619290565b82525050565b60006040820190506192d660008301856192b2565b6192e36020830184616999565b9392505050565b60008190508160005260206000209050919050565b601f82111561934057619311816192ea565b61931a84618c20565b81016020851015619329578190505b61933d61933585618c20565b830182618cfd565b50505b505050565b61934e8261723d565b67ffffffffffffffff81111561936757619366616b60565b5b61937182546180c7565b61937c8282856192ff565b600060209050601f8311600181146193af576000841561939d578287015190505b6193a78582618d91565b86555061940f565b601f1984166193bd866192ea565b60005b828110156193e5578489015182556001820191506020850194506020810190506193c0565b8683101561940257848901516193fe601f891682618d73565b8355505b6001600288020188555050505b50505050505056fea26469706673582212203a8128c874a302517c436f2360ec6f690f24144440ca4d9576ab76055cfaa63f64736f6c634300081a0033",
  "linkReferences": {},
  "deployedLinkReferences": {}
}