{
  "_format": "hh-sol-artifact-1",
  "contractName": "TestsAccounts",
  "sourceName": "contracts/.deps/remix-tests/remix_accounts.sol",
  "abi": [
    {
      "inputs": [
        {
          "internalType": "uint256",
          "name": "index",
          "type": "uint256"
        }
      ],
      "name": "getAccount",
      "outputs": [
        {
          "internalType": "address",
          "name": "",
          "type": "address"
        }
      ],
      "stateMutability": "pure",
      "type": "function"
    }
  ],
  "bytecode": "0x61016b610052600b82828239805160001a6073146045577f4e487b7100000000000000000000000000000000000000000000000000000000600052600060045260246000fd5b30600052607381538281f3fe73000000000000000000000000000000000000000030146080604052600436106100355760003560e01c8063ce88b1451461003a575b600080fd5b610054600480360381019061004f91906100ac565b61006a565b604051610061919061011a565b60405180910390f35b6000919050565b600080fd5b6000819050919050565b61008981610076565b811461009457600080fd5b50565b6000813590506100a681610080565b92915050565b6000602082840312156100c2576100c1610071565b5b60006100d084828501610097565b91505092915050565b600073ffffffffffffffffffffffffffffffffffffffff82169050919050565b6000610104826100d9565b9050919050565b610114816100f9565b82525050565b600060208201905061012f600083018461010b565b9291505056fea2646970667358221220a018f01d28ba351904a043100256ba9312f20bc5aa7196beb8f13d8b05f6b12264736f6c634300081a0033",
  "linkReferences": {},
  "deployedLinkReferences": {}
}