{
  "_format": "hh-sol-artifact-1",
  "contractName": "LegitToken",
  "sourceName": "contracts/erc-20/LegitToken.sol",
  "abi": [
    {
      "inputs": [],
      "stateMutability": "nonpayable",
      "type": "constructor"
    },
    {
      "inputs": [
        {
          "internalType": "address",
          "name": "target",
          "type": "address"
        }
      ],
      "name": "AddressEmptyCode",
      "type": "error"
    },
    {
      "inputs": [],
      "name": "CheckpointUnorderedInsertion",
      "type": "error"
    },
    {
      "inputs": [],
      "name": "ECDSAInvalidSignature",
      "type": "error"
    },
    {
      "inputs": [
        {
          "internalType": "uint256",
          "name": "length",
          "type": "uint256"
        }
      ],
      "name": "ECDSAInvalidSignatureLength",
      "type": "error"
    },
    {
      "inputs": [
        {
          "internalType": "bytes32",
          "name": "s",
          "type": "bytes32"
        }
      ],
      "name": "ECDSAInvalidSignatureS",
      "type": "error"
    },
    {
      "inputs": [
        {
          "internalType": "address",
          "name": "implementation",
          "type": "address"
        }
      ],
      "name": "ERC1967InvalidImplementation",
      "type": "error"
    },
    {
      "inputs": [],
      "name": "ERC1967NonPayable",
      "type": "error"
    },
    {
      "inputs": [
        {
          "internalType": "uint256",
          "name": "increasedSupply",
          "type": "uint256"
        },
        {
          "internalType": "uint256",
          "name": "cap",
          "type": "uint256"
        }
      ],
      "name": "ERC20ExceededSafeSupply",
      "type": "error"
    },
    {
      "inputs": [
        {
          "internalType": "address",
          "name": "spender",
          "type": "address"
        },
        {
          "internalType": "uint256",
          "name": "allowance",
          "type": "uint256"
        },
        {
          "internalType": "uint256",
          "name": "needed",
          "type": "uint256"
        }
      ],
      "name": "ERC20InsufficientAllowance",
      "type": "error"
    },
    {
      "inputs": [
        {
          "internalType": "address",
          "name": "sender",
          "type": "address"
        },
        {
          "internalType": "uint256",
          "name": "balance",
          "type": "uint256"
        },
        {
          "internalType": "uint256",
          "name": "needed",
          "type": "uint256"
        }
      ],
      "name": "ERC20InsufficientBalance",
      "type": "error"
    },
    {
      "inputs": [
        {
          "internalType": "address",
          "name": "approver",
          "type": "address"
        }
      ],
      "name": "ERC20InvalidApprover",
      "type": "error"
    },
    {
      "inputs": [
        {
          "internalType": "address",
          "name": "receiver",
          "type": "address"
        }
      ],
      "name": "ERC20InvalidReceiver",
      "type": "error"
    },
    {
      "inputs": [
        {
          "internalType": "address",
          "name": "sender",
          "type": "address"
        }
      ],
      "name": "ERC20InvalidSender",
      "type": "error"
    },
    {
      "inputs": [
        {
          "internalType": "address",
          "name": "spender",
          "type": "address"
        }
      ],
      "name": "ERC20InvalidSpender",
      "type": "error"
    },
    {
      "inputs": [
        {
          "internalType": "uint256",
          "name": "deadline",
          "type": "uint256"
        }
      ],
      "name": "ERC2612ExpiredSignature",
      "type": "error"
    },
    {
      "inputs": [
        {
          "internalType": "address",
          "name": "signer",
          "type": "address"
        },
        {
          "internalType": "address",
          "name": "owner",
          "type": "address"
        }
      ],
      "name": "ERC2612InvalidSigner",
      "type": "error"
    },
    {
      "inputs": [
        {
          "internalType": "uint256",
          "name": "timepoint",
          "type": "uint256"
        },
        {
          "internalType": "uint48",
          "name": "clock",
          "type": "uint48"
        }
      ],
      "name": "ERC5805FutureLookup",
      "type": "error"
    },
    {
      "inputs": [],
      "name": "ERC6372InconsistentClock",
      "type": "error"
    },
    {
      "inputs": [],
      "name": "FailedCall",
      "type": "error"
    },
    {
      "inputs": [
        {
          "internalType": "address",
          "name": "account",
          "type": "address"
        },
        {
          "internalType": "uint256",
          "name": "currentNonce",
          "type": "uint256"
        }
      ],
      "name": "InvalidAccountNonce",
      "type": "error"
    },
    {
      "inputs": [],
      "name": "InvalidInitialization",
      "type": "error"
    },
    {
      "inputs": [],
      "name": "NotInitializing",
      "type": "error"
    },
    {
      "inputs": [
        {
          "internalType": "address",
          "name": "owner",
          "type": "address"
        }
      ],
      "name": "OwnableInvalidOwner",
      "type": "error"
    },
    {
      "inputs": [
        {
          "internalType": "address",
          "name": "account",
          "type": "address"
        }
      ],
      "name": "OwnableUnauthorizedAccount",
      "type": "error"
    },
    {
      "inputs": [
        {
          "internalType": "uint8",
          "name": "bits",
          "type": "uint8"
        },
        {
          "internalType": "uint256",
          "name": "value",
          "type": "uint256"
        }
      ],
      "name": "SafeCastOverflowedUintDowncast",
      "type": "error"
    },
    {
      "inputs": [],
      "name": "UUPSUnauthorizedCallContext",
      "type": "error"
    },
    {
      "inputs": [
        {
          "internalType": "bytes32",
          "name": "slot",
          "type": "bytes32"
        }
      ],
      "name": "UUPSUnsupportedProxiableUUID",
      "type": "error"
    },
    {
      "inputs": [
        {
          "internalType": "uint256",
          "name": "expiry",
          "type": "uint256"
        }
      ],
      "name": "VotesExpiredSignature",
      "type": "error"
    },
    {
      "anonymous": false,
      "inputs": [
        {
          "indexed": true,
          "internalType": "address",
          "name": "owner",
          "type": "address"
        },
        {
          "indexed": true,
          "internalType": "address",
          "name": "spender",
          "type": "address"
        },
        {
          "indexed": false,
          "internalType": "uint256",
          "name": "value",
          "type": "uint256"
        }
      ],
      "name": "Approval",
      "type": "event"
    },
    {
      "anonymous": false,
      "inputs": [
        {
          "indexed": true,
          "internalType": "address",
          "name": "delegator",
          "type": "address"
        },
        {
          "indexed": true,
          "internalType": "address",
          "name": "fromDelegate",
          "type": "address"
        },
        {
          "indexed": true,
          "internalType": "address",
          "name": "toDelegate",
          "type": "address"
        }
      ],
      "name": "DelegateChanged",
      "type": "event"
    },
    {
      "anonymous": false,
      "inputs": [
        {
          "indexed": true,
          "internalType": "address",
          "name": "delegate",
          "type": "address"
        },
        {
          "indexed": false,
          "internalType": "uint256",
          "name": "previousVotes",
          "type": "uint256"
        },
        {
          "indexed": false,
          "internalType": "uint256",
          "name": "newVotes",
          "type": "uint256"
        }
      ],
      "name": "DelegateVotesChanged",
      "type": "event"
    },
    {
      "anonymous": false,
      "inputs": [],
      "name": "EIP712DomainChanged",
      "type": "event"
    },
    {
      "anonymous": false,
      "inputs": [
        {
          "indexed": false,
          "internalType": "uint64",
          "name": "version",
          "type": "uint64"
        }
      ],
      "name": "Initialized",
      "type": "event"
    },
    {
      "anonymous": false,
      "inputs": [
        {
          "indexed": true,
          "internalType": "address",
          "name": "previousOwner",
          "type": "address"
        },
        {
          "indexed": true,
          "internalType": "address",
          "name": "newOwner",
          "type": "address"
        }
      ],
      "name": "OwnershipTransferred",
      "type": "event"
    },
    {
      "anonymous": false,
      "inputs": [
        {
          "indexed": true,
          "internalType": "address",
          "name": "from",
          "type": "address"
        },
        {
          "indexed": true,
          "internalType": "address",
          "name": "to",
          "type": "address"
        },
        {
          "indexed": false,
          "internalType": "uint256",
          "name": "value",
          "type": "uint256"
        }
      ],
      "name": "Transfer",
      "type": "event"
    },
    {
      "anonymous": false,
      "inputs": [
        {
          "indexed": true,
          "internalType": "address",
          "name": "implementation",
          "type": "address"
        }
      ],
      "name": "Upgraded",
      "type": "event"
    },
    {
      "inputs": [],
      "name": "CLOCK_MODE",
      "outputs": [
        {
          "internalType": "string",
          "name": "",
          "type": "string"
        }
      ],
      "stateMutability": "pure",
      "type": "function"
    },
    {
      "inputs": [],
      "name": "DOMAIN_SEPARATOR",
      "outputs": [
        {
          "internalType": "bytes32",
          "name": "",
          "type": "bytes32"
        }
      ],
      "stateMutability": "view",
      "type": "function"
    },
    {
      "inputs": [],
      "name": "UPGRADE_INTERFACE_VERSION",
      "outputs": [
        {
          "internalType": "string",
          "name": "",
          "type": "string"
        }
      ],
      "stateMutability": "view",
      "type": "function"
    },
    {
      "inputs": [
        {
          "internalType": "address",
          "name": "owner",
          "type": "address"
        },
        {
          "internalType": "address",
          "name": "spender",
          "type": "address"
        }
      ],
      "name": "allowance",
      "outputs": [
        {
          "internalType": "uint256",
          "name": "",
          "type": "uint256"
        }
      ],
      "stateMutability": "view",
      "type": "function"
    },
    {
      "inputs": [
        {
          "internalType": "address",
          "name": "spender",
          "type": "address"
        },
        {
          "internalType": "uint256",
          "name": "value",
          "type": "uint256"
        }
      ],
      "name": "approve",
      "outputs": [
        {
          "internalType": "bool",
          "name": "",
          "type": "bool"
        }
      ],
      "stateMutability": "nonpayable",
      "type": "function"
    },
    {
      "inputs": [
        {
          "internalType": "address",
          "name": "account",
          "type": "address"
        }
      ],
      "name": "balanceOf",
      "outputs": [
        {
          "internalType": "uint256",
          "name": "",
          "type": "uint256"
        }
      ],
      "stateMutability": "view",
      "type": "function"
    },
    {
      "inputs": [
        {
          "internalType": "uint256",
          "name": "value",
          "type": "uint256"
        }
      ],
      "name": "burn",
      "outputs": [],
      "stateMutability": "nonpayable",
      "type": "function"
    },
    {
      "inputs": [
        {
          "internalType": "address",
          "name": "account",
          "type": "address"
        },
        {
          "internalType": "uint256",
          "name": "value",
          "type": "uint256"
        }
      ],
      "name": "burnFrom",
      "outputs": [],
      "stateMutability": "nonpayable",
      "type": "function"
    },
    {
      "inputs": [
        {
          "internalType": "address",
          "name": "account",
          "type": "address"
        },
        {
          "internalType": "uint32",
          "name": "pos",
          "type": "uint32"
        }
      ],
      "name": "checkpoints",
      "outputs": [
        {
          "components": [
            {
              "internalType": "uint48",
              "name": "_key",
              "type": "uint48"
            },
            {
              "internalType": "uint208",
              "name": "_value",
              "type": "uint208"
            }
          ],
          "internalType": "struct Checkpoints.Checkpoint208",
          "name": "",
          "type": "tuple"
        }
      ],
      "stateMutability": "view",
      "type": "function"
    },
    {
      "inputs": [],
      "name": "clock",
      "outputs": [
        {
          "internalType": "uint48",
          "name": "",
          "type": "uint48"
        }
      ],
      "stateMutability": "view",
      "type": "function"
    },
    {
      "inputs": [],
      "name": "decimals",
      "outputs": [
        {
          "internalType": "uint8",
          "name": "",
          "type": "uint8"
        }
      ],
      "stateMutability": "view",
      "type": "function"
    },
    {
      "inputs": [
        {
          "internalType": "address",
          "name": "delegatee",
          "type": "address"
        }
      ],
      "name": "delegate",
      "outputs": [],
      "stateMutability": "nonpayable",
      "type": "function"
    },
    {
      "inputs": [
        {
          "internalType": "address",
          "name": "delegatee",
          "type": "address"
        },
        {
          "internalType": "uint256",
          "name": "nonce",
          "type": "uint256"
        },
        {
          "internalType": "uint256",
          "name": "expiry",
          "type": "uint256"
        },
        {
          "internalType": "uint8",
          "name": "v",
          "type": "uint8"
        },
        {
          "internalType": "bytes32",
          "name": "r",
          "type": "bytes32"
        },
        {
          "internalType": "bytes32",
          "name": "s",
          "type": "bytes32"
        }
      ],
      "name": "delegateBySig",
      "outputs": [],
      "stateMutability": "nonpayable",
      "type": "function"
    },
    {
      "inputs": [
        {
          "internalType": "address",
          "name": "account",
          "type": "address"
        }
      ],
      "name": "delegates",
      "outputs": [
        {
          "internalType": "address",
          "name": "",
          "type": "address"
        }
      ],
      "stateMutability": "view",
      "type": "function"
    },
    {
      "inputs": [],
      "name": "eip712Domain",
      "outputs": [
        {
          "internalType": "bytes1",
          "name": "fields",
          "type": "bytes1"
        },
        {
          "internalType": "string",
          "name": "name",
          "type": "string"
        },
        {
          "internalType": "string",
          "name": "version",
          "type": "string"
        },
        {
          "internalType": "uint256",
          "name": "chainId",
          "type": "uint256"
        },
        {
          "internalType": "address",
          "name": "verifyingContract",
          "type": "address"
        },
        {
          "internalType": "bytes32",
          "name": "salt",
          "type": "bytes32"
        },
        {
          "internalType": "uint256[]",
          "name": "extensions",
          "type": "uint256[]"
        }
      ],
      "stateMutability": "view",
      "type": "function"
    },
    {
      "inputs": [
        {
          "internalType": "uint256",
          "name": "timepoint",
          "type": "uint256"
        }
      ],
      "name": "getPastTotalSupply",
      "outputs": [
        {
          "internalType": "uint256",
          "name": "",
          "type": "uint256"
        }
      ],
      "stateMutability": "view",
      "type": "function"
    },
    {
      "inputs": [
        {
          "internalType": "address",
          "name": "account",
          "type": "address"
        },
        {
          "internalType": "uint256",
          "name": "timepoint",
          "type": "uint256"
        }
      ],
      "name": "getPastVotes",
      "outputs": [
        {
          "internalType": "uint256",
          "name": "",
          "type": "uint256"
        }
      ],
      "stateMutability": "view",
      "type": "function"
    },
    {
      "inputs": [
        {
          "internalType": "address",
          "name": "account",
          "type": "address"
        }
      ],
      "name": "getVotes",
      "outputs": [
        {
          "internalType": "uint256",
          "name": "",
          "type": "uint256"
        }
      ],
      "stateMutability": "view",
      "type": "function"
    },
    {
      "inputs": [
        {
          "internalType": "address",
          "name": "initialOwner",
          "type": "address"
        }
      ],
      "name": "initialize",
      "outputs": [],
      "stateMutability": "nonpayable",
      "type": "function"
    },
    {
      "inputs": [],
      "name": "name",
      "outputs": [
        {
          "internalType": "string",
          "name": "",
          "type": "string"
        }
      ],
      "stateMutability": "view",
      "type": "function"
    },
    {
      "inputs": [
        {
          "internalType": "address",
          "name": "owner",
          "type": "address"
        }
      ],
      "name": "nonces",
      "outputs": [
        {
          "internalType": "uint256",
          "name": "",
          "type": "uint256"
        }
      ],
      "stateMutability": "view",
      "type": "function"
    },
    {
      "inputs": [
        {
          "internalType": "address",
          "name": "account",
          "type": "address"
        }
      ],
      "name": "numCheckpoints",
      "outputs": [
        {
          "internalType": "uint32",
          "name": "",
          "type": "uint32"
        }
      ],
      "stateMutability": "view",
      "type": "function"
    },
    {
      "inputs": [],
      "name": "owner",
      "outputs": [
        {
          "internalType": "address",
          "name": "",
          "type": "address"
        }
      ],
      "stateMutability": "view",
      "type": "function"
    },
    {
      "inputs": [
        {
          "internalType": "address",
          "name": "owner",
          "type": "address"
        },
        {
          "internalType": "address",
          "name": "spender",
          "type": "address"
        },
        {
          "internalType": "uint256",
          "name": "value",
          "type": "uint256"
        },
        {
          "internalType": "uint256",
          "name": "deadline",
          "type": "uint256"
        },
        {
          "internalType": "uint8",
          "name": "v",
          "type": "uint8"
        },
        {
          "internalType": "bytes32",
          "name": "r",
          "type": "bytes32"
        },
        {
          "internalType": "bytes32",
          "name": "s",
          "type": "bytes32"
        }
      ],
      "name": "permit",
      "outputs": [],
      "stateMutability": "nonpayable",
      "type": "function"
    },
    {
      "inputs": [],
      "name": "proxiableUUID",
      "outputs": [
        {
          "internalType": "bytes32",
          "name": "",
          "type": "bytes32"
        }
      ],
      "stateMutability": "view",
      "type": "function"
    },
    {
      "inputs": [],
      "name": "renounceOwnership",
      "outputs": [],
      "stateMutability": "nonpayable",
      "type": "function"
    },
    {
      "inputs": [],
      "name": "symbol",
      "outputs": [
        {
          "internalType": "string",
          "name": "",
          "type": "string"
        }
      ],
      "stateMutability": "view",
      "type": "function"
    },
    {
      "inputs": [],
      "name": "totalSupply",
      "outputs": [
        {
          "internalType": "uint256",
          "name": "",
          "type": "uint256"
        }
      ],
      "stateMutability": "view",
      "type": "function"
    },
    {
      "inputs": [
        {
          "internalType": "address",
          "name": "to",
          "type": "address"
        },
        {
          "internalType": "uint256",
          "name": "value",
          "type": "uint256"
        }
      ],
      "name": "transfer",
      "outputs": [
        {
          "internalType": "bool",
          "name": "",
          "type": "bool"
        }
      ],
      "stateMutability": "nonpayable",
      "type": "function"
    },
    {
      "inputs": [
        {
          "internalType": "address",
          "name": "from",
          "type": "address"
        },
        {
          "internalType": "address",
          "name": "to",
          "type": "address"
        },
        {
          "internalType": "uint256",
          "name": "value",
          "type": "uint256"
        }
      ],
      "name": "transferFrom",
      "outputs": [
        {
          "internalType": "bool",
          "name": "",
          "type": "bool"
        }
      ],
      "stateMutability": "nonpayable",
      "type": "function"
    },
    {
      "inputs": [
        {
          "internalType": "address",
          "name": "newOwner",
          "type": "address"
        }
      ],
      "name": "transferOwnership",
      "outputs": [],
      "stateMutability": "nonpayable",
      "type": "function"
    },
    {
      "inputs": [
        {
          "internalType": "address",
          "name": "newImplementation",
          "type": "address"
        },
        {
          "internalType": "bytes",
          "name": "data",
          "type": "bytes"
        }
      ],
      "name": "upgradeToAndCall",
      "outputs": [],
      "stateMutability": "payable",
      "type": "function"
    }
  ],
  "bytecode": "0x60a06040523073ffffffffffffffffffffffffffffffffffffffff1660809073ffffffffffffffffffffffffffffffffffffffff1681525034801561004357600080fd5b5061005261005760201b60201c565b6101c1565b600061006761015b60201b60201c565b90508060000160089054906101000a900460ff16156100b2576040517ff92ee8a900000000000000000000000000000000000000000000000000000000815260040160405180910390fd5b67ffffffffffffffff80168160000160009054906101000a900467ffffffffffffffff1667ffffffffffffffff16146101585767ffffffffffffffff8160000160006101000a81548167ffffffffffffffff021916908367ffffffffffffffff1602179055507fc7f505b2f371ae2175ee4913f4499e1f2633a7b5936321eed1cdaeb6115181d267ffffffffffffffff60405161014f91906101a6565b60405180910390a15b50565b60007ff0c57e16840df040f15088dc2f81fe391c3923bec73e23a9662efc9c229c6a00905090565b600067ffffffffffffffff82169050919050565b6101a081610183565b82525050565b60006020820190506101bb6000830184610197565b92915050565b6080516151a36101ea600039600081816118f70152818161194c0152611b0701526151a36000f3fe6080604052600436106101e35760003560e01c806379cc679011610102578063a9059cbb11610095578063d505accf11610064578063d505accf14610729578063dd62ed3e14610752578063f1127ed81461078f578063f2fde38b146107cc576101e3565b8063a9059cbb1461066f578063ad3cb1cc146106ac578063c3cda520146106d7578063c4d66de814610700576101e3565b80638e539e8c116100d15780638e539e8c1461059f57806391ddadf4146105dc57806395d89b41146106075780639ab24eb014610632576101e3565b806379cc6790146104dd5780637ecebe001461050657806384b0196e146105435780638da5cb5b14610574576101e3565b80634bf5d7e91161017a5780635c19a95c116101495780635c19a95c146104235780636fcfff451461044c57806370a0823114610489578063715018a6146104c6576101e3565b80634bf5d7e9146103745780634f1ef2861461039f57806352d1902d146103bb578063587cde1e146103e6576101e3565b8063313ce567116101b6578063313ce567146102b85780633644e515146102e35780633a46b1a81461030e57806342966c681461034b576101e3565b806306fdde03146101e8578063095ea7b31461021357806318160ddd1461025057806323b872dd1461027b575b600080fd5b3480156101f457600080fd5b506101fd6107f5565b60405161020a9190613d32565b60405180910390f35b34801561021f57600080fd5b5061023a60048036038101906102359190613dfc565b610896565b6040516102479190613e57565b60405180910390f35b34801561025c57600080fd5b506102656108b9565b6040516102729190613e81565b60405180910390f35b34801561028757600080fd5b506102a2600480360381019061029d9190613e9c565b6108d1565b6040516102af9190613e57565b60405180910390f35b3480156102c457600080fd5b506102cd610900565b6040516102da9190613f0b565b60405180910390f35b3480156102ef57600080fd5b506102f8610909565b6040516103059190613f3f565b60405180910390f35b34801561031a57600080fd5b5061033560048036038101906103309190613dfc565b610918565b6040516103429190613e81565b60405180910390f35b34801561035757600080fd5b50610372600480360381019061036d9190613f5a565b610a00565b005b34801561038057600080fd5b50610389610a14565b6040516103969190613d32565b60405180910390f35b6103b960048036038101906103b491906140bc565b610a51565b005b3480156103c757600080fd5b506103d0610a70565b6040516103dd9190613f3f565b60405180910390f35b3480156103f257600080fd5b5061040d60048036038101906104089190614118565b610aa3565b60405161041a9190614154565b60405180910390f35b34801561042f57600080fd5b5061044a60048036038101906104459190614118565b610b1a565b005b34801561045857600080fd5b50610473600480360381019061046e9190614118565b610b34565b604051610480919061418e565b60405180910390f35b34801561049557600080fd5b506104b060048036038101906104ab9190614118565b610b46565b6040516104bd9190613e81565b60405180910390f35b3480156104d257600080fd5b506104db610b9d565b005b3480156104e957600080fd5b5061050460048036038101906104ff9190613dfc565b610bb1565b005b34801561051257600080fd5b5061052d60048036038101906105289190614118565b610bd1565b60405161053a9190613e81565b60405180910390f35b34801561054f57600080fd5b50610558610be3565b60405161056b97969594939291906142a2565b60405180910390f35b34801561058057600080fd5b50610589610cf5565b6040516105969190614154565b60405180910390f35b3480156105ab57600080fd5b506105c660048036038101906105c19190613f5a565b610d2d565b6040516105d39190613e81565b60405180910390f35b3480156105e857600080fd5b506105f1610dd7565b6040516105fe9190614347565b60405180910390f35b34801561061357600080fd5b5061061c610ddf565b6040516106299190613d32565b60405180910390f35b34801561063e57600080fd5b5061065960048036038101906106549190614118565b610e80565b6040516106669190613e81565b60405180910390f35b34801561067b57600080fd5b5061069660048036038101906106919190613dfc565b610efa565b6040516106a39190613e57565b60405180910390f35b3480156106b857600080fd5b506106c1610f1d565b6040516106ce9190613d32565b60405180910390f35b3480156106e357600080fd5b506106fe60048036038101906106f991906143ba565b610f56565b005b34801561070c57600080fd5b5061072760048036038101906107229190614118565b61101c565b005b34801561073557600080fd5b50610750600480360381019061074b9190614447565b6112a1565b005b34801561075e57600080fd5b50610779600480360381019061077491906144e9565b6113e9565b6040516107869190613e81565b60405180910390f35b34801561079b57600080fd5b506107b660048036038101906107b19190614555565b61147e565b6040516107c39190614608565b60405180910390f35b3480156107d857600080fd5b506107f360048036038101906107ee9190614118565b611498565b005b6060600061080161151e565b905080600301805461081290614652565b80601f016020809104026020016040519081016040528092919081815260200182805461083e90614652565b801561088b5780601f106108605761010080835404028352916020019161088b565b820191906000526020600020905b81548152906001019060200180831161086e57829003601f168201915b505050505091505090565b6000806108a1611546565b90506108ae81858561154e565b600191505092915050565b6000806108c461151e565b9050806002015491505090565b6000806108dc611546565b90506108e9858285611560565b6108f48585856115f4565b60019150509392505050565b60006012905090565b60006109136116e8565b905090565b6000806109236116f7565b9050600061092f610dd7565b90508065ffffffffffff16841061097f5783816040517fecd3f81e000000000000000000000000000000000000000000000000000000008152600401610976929190614683565b60405180910390fd5b6109da61098b8561171f565b8360010160008873ffffffffffffffffffffffffffffffffffffffff1673ffffffffffffffffffffffffffffffffffffffff16815260200190815260200160002061177990919063ffffffff16565b79ffffffffffffffffffffffffffffffffffffffffffffffffffff169250505092915050565b610a11610a0b611546565b82611873565b50565b60606040518060400160405280600e81526020017f6d6f64653d74696d657374616d70000000000000000000000000000000000000815250905090565b610a596118f5565b610a62826119db565b610a6c82826119e6565b5050565b6000610a7a611b05565b7f360894a13ba1a3210667c828492db98dca3e2076cc3735a920a3ca505d382bbc60001b905090565b600080610aae6116f7565b90508060000160008473ffffffffffffffffffffffffffffffffffffffff1673ffffffffffffffffffffffffffffffffffffffff16815260200190815260200160002060009054906101000a900473ffffffffffffffffffffffffffffffffffffffff16915050919050565b6000610b24611546565b9050610b308183611b8c565b5050565b6000610b3f82611caf565b9050919050565b600080610b5161151e565b90508060000160008473ffffffffffffffffffffffffffffffffffffffff1673ffffffffffffffffffffffffffffffffffffffff16815260200190815260200160002054915050919050565b610ba5611d15565b610baf6000611d9c565b565b610bc382610bbd611546565b83611560565b610bcd8282611873565b5050565b6000610bdc82611e73565b9050919050565b6000606080600080600060606000610bf9611e85565b90506000801b8160000154148015610c1757506000801b8160010154145b610c56576040517f08c379a0000000000000000000000000000000000000000000000000000000008152600401610c4d906146f8565b60405180910390fd5b610c5e611ead565b610c66611f4e565b46306000801b600067ffffffffffffffff811115610c8757610c86613f91565b5b604051908082528060200260200182016040528015610cb55781602001602082028036833780820191505090505b507f0f0000000000000000000000000000000000000000000000000000000000000095949392919097509750975097509750975097505090919293949596565b600080610d00611fef565b90508060000160009054906101000a900473ffffffffffffffffffffffffffffffffffffffff1691505090565b600080610d386116f7565b90506000610d44610dd7565b90508065ffffffffffff168410610d945783816040517fecd3f81e000000000000000000000000000000000000000000000000000000008152600401610d8b929190614683565b60405180910390fd5b610db2610da08561171f565b8360020161177990919063ffffffff16565b79ffffffffffffffffffffffffffffffffffffffffffffffffffff1692505050919050565b600042905090565b60606000610deb61151e565b9050806004018054610dfc90614652565b80601f0160208091040260200160405190810160405280929190818152602001828054610e2890614652565b8015610e755780601f10610e4a57610100808354040283529160200191610e75565b820191906000526020600020905b815481529060010190602001808311610e5857829003601f168201915b505050505091505090565b600080610e8b6116f7565b9050610ed68160010160008573ffffffffffffffffffffffffffffffffffffffff1673ffffffffffffffffffffffffffffffffffffffff168152602001908152602001600020612017565b79ffffffffffffffffffffffffffffffffffffffffffffffffffff16915050919050565b600080610f05611546565b9050610f128185856115f4565b600191505092915050565b6040518060400160405280600581526020017f352e302e3000000000000000000000000000000000000000000000000000000081525081565b83421115610f9b57836040517f4683af0e000000000000000000000000000000000000000000000000000000008152600401610f929190613e81565b60405180910390fd5b6000610ffd610ff57fe48329057bfd03d55e49b547132e39cffd9c1820ad7b9d4c5307691425d15adf898989604051602001610fda9493929190614718565b6040516020818303038152906040528051906020012061207f565b858585612099565b905061100981876120c9565b6110138188611b8c565b50505050505050565b6000611026612121565b905060008160000160089054906101000a900460ff1615905060008260000160009054906101000a900467ffffffffffffffff1690506000808267ffffffffffffffff161480156110745750825b9050600060018367ffffffffffffffff161480156110a9575060003073ffffffffffffffffffffffffffffffffffffffff163b145b9050811580156110b7575080155b156110ee576040517ff92ee8a900000000000000000000000000000000000000000000000000000000815260040160405180910390fd5b60018560000160006101000a81548167ffffffffffffffff021916908367ffffffffffffffff160217905550831561113e5760018560000160086101000a81548160ff0219169083151502179055505b6111b26040518060400160405280600a81526020017f4c65676974546f6b656e000000000000000000000000000000000000000000008152506040518060400160405280600b81526020017f4c454749542d544f4b454e000000000000000000000000000000000000000000815250612149565b6111ba61215f565b6111f86040518060400160405280600a81526020017f4c65676974546f6b656e00000000000000000000000000000000000000000000815250612169565b6112006121b3565b611209866121bd565b6112116121d1565b61123d3361121d610900565b600a61122991906148bf565b6305f5e100611238919061490a565b6121db565b83156112995760008560000160086101000a81548160ff0219169083151502179055507fc7f505b2f371ae2175ee4913f4499e1f2633a7b5936321eed1cdaeb6115181d2600160405161129091906149a5565b60405180910390a15b505050505050565b834211156112e657836040517f627913020000000000000000000000000000000000000000000000000000000081526004016112dd9190613e81565b60405180910390fd5b60007f6e71edae12b1b97f4d1f60370fef10105fa2faae0126114a169c64845d6126c98888886113158c61225d565b8960405160200161132b969594939291906149c0565b604051602081830303815290604052805190602001209050600061134e8261207f565b9050600061135e82878787612099565b90508973ffffffffffffffffffffffffffffffffffffffff168173ffffffffffffffffffffffffffffffffffffffff16146113d257808a6040517f4b800e460000000000000000000000000000000000000000000000000000000081526004016113c9929190614a21565b60405180910390fd5b6113dd8a8a8a61154e565b50505050505050505050565b6000806113f461151e565b90508060010160008573ffffffffffffffffffffffffffffffffffffffff1673ffffffffffffffffffffffffffffffffffffffff16815260200190815260200160002060008473ffffffffffffffffffffffffffffffffffffffff1673ffffffffffffffffffffffffffffffffffffffff1681526020019081526020016000205491505092915050565b611486613c64565b61149083836122c2565b905092915050565b6114a0611d15565b600073ffffffffffffffffffffffffffffffffffffffff168173ffffffffffffffffffffffffffffffffffffffff16036115125760006040517f1e4fbdf70000000000000000000000000000000000000000000000000000000081526004016115099190614154565b60405180910390fd5b61151b81611d9c565b50565b60007f52c63247e1f47db19d5ce0460030c497f067ca4cebf71ba98eeadabe20bace00905090565b600033905090565b61155b8383836001612332565b505050565b600061156c84846113e9565b90507fffffffffffffffffffffffffffffffffffffffffffffffffffffffffffffffff81146115ee57818110156115de578281836040517ffb8f41b20000000000000000000000000000000000000000000000000000000081526004016115d593929190614a4a565b60405180910390fd5b6115ed84848484036000612332565b5b50505050565b600073ffffffffffffffffffffffffffffffffffffffff168373ffffffffffffffffffffffffffffffffffffffff16036116665760006040517f96c6fd1e00000000000000000000000000000000000000000000000000000000815260040161165d9190614154565b60405180910390fd5b600073ffffffffffffffffffffffffffffffffffffffff168273ffffffffffffffffffffffffffffffffffffffff16036116d85760006040517fec442f050000000000000000000000000000000000000000000000000000000081526004016116cf9190614154565b60405180910390fd5b6116e3838383612518565b505050565b60006116f2612528565b905090565b60007fe8b26c30fad74198956032a3533d903385d56dd795af560196f9c78d4af40d00905090565b600065ffffffffffff8016821115611771576030826040517f6dfcc650000000000000000000000000000000000000000000000000000000008152600401611768929190614abc565b60405180910390fd5b819050919050565b6000808360000180549050905060008082905060058311156118015760006117a08461258c565b846117ab9190614ae5565b90506117ba8760000182612729565b60000160009054906101000a900465ffffffffffff1665ffffffffffff168665ffffffffffff1610156117ef578091506117ff565b6001816117fc9190614b19565b92505b505b60006118128760000187858561273e565b90506000811461186457611835876000016001836118309190614ae5565b612729565b60000160069054906101000a900479ffffffffffffffffffffffffffffffffffffffffffffffffffff16611867565b60005b94505050505092915050565b600073ffffffffffffffffffffffffffffffffffffffff168273ffffffffffffffffffffffffffffffffffffffff16036118e55760006040517f96c6fd1e0000000000000000000000000000000000000000000000000000000081526004016118dc9190614154565b60405180910390fd5b6118f182600083612518565b5050565b7f000000000000000000000000000000000000000000000000000000000000000073ffffffffffffffffffffffffffffffffffffffff163073ffffffffffffffffffffffffffffffffffffffff1614806119a257507f000000000000000000000000000000000000000000000000000000000000000073ffffffffffffffffffffffffffffffffffffffff166119896127b7565b73ffffffffffffffffffffffffffffffffffffffff1614155b156119d9576040517fe07c8dba00000000000000000000000000000000000000000000000000000000815260040160405180910390fd5b565b6119e3611d15565b50565b8173ffffffffffffffffffffffffffffffffffffffff166352d1902d6040518163ffffffff1660e01b8152600401602060405180830381865afa925050508015611a4e57506040513d601f19601f82011682018060405250810190611a4b9190614b62565b60015b611a8f57816040517f4c9c8ce3000000000000000000000000000000000000000000000000000000008152600401611a869190614154565b60405180910390fd5b7f360894a13ba1a3210667c828492db98dca3e2076cc3735a920a3ca505d382bbc60001b8114611af657806040517faa1d49a4000000000000000000000000000000000000000000000000000000008152600401611aed9190613f3f565b60405180910390fd5b611b00838361280e565b505050565b7f000000000000000000000000000000000000000000000000000000000000000073ffffffffffffffffffffffffffffffffffffffff163073ffffffffffffffffffffffffffffffffffffffff1614611b8a576040517fe07c8dba00000000000000000000000000000000000000000000000000000000815260040160405180910390fd5b565b6000611b966116f7565b90506000611ba384610aa3565b9050828260000160008673ffffffffffffffffffffffffffffffffffffffff1673ffffffffffffffffffffffffffffffffffffffff16815260200190815260200160002060006101000a81548173ffffffffffffffffffffffffffffffffffffffff021916908373ffffffffffffffffffffffffffffffffffffffff1602179055508273ffffffffffffffffffffffffffffffffffffffff168173ffffffffffffffffffffffffffffffffffffffff168573ffffffffffffffffffffffffffffffffffffffff167f3134e8a2e6d97e929a7e54011ea5485d7d196dd5f0ba4d4ef95803e8e3fc257f60405160405180910390a4611ca98184611ca487612881565b612893565b50505050565b600080611cba6116f7565b9050611d0d611d088260010160008673ffffffffffffffffffffffffffffffffffffffff1673ffffffffffffffffffffffffffffffffffffffff168152602001908152602001600020612b1d565b612b2e565b915050919050565b611d1d611546565b73ffffffffffffffffffffffffffffffffffffffff16611d3b610cf5565b73ffffffffffffffffffffffffffffffffffffffff1614611d9a57611d5e611546565b6040517f118cdaa7000000000000000000000000000000000000000000000000000000008152600401611d919190614154565b60405180910390fd5b565b6000611da6611fef565b905060008160000160009054906101000a900473ffffffffffffffffffffffffffffffffffffffff169050828260000160006101000a81548173ffffffffffffffffffffffffffffffffffffffff021916908373ffffffffffffffffffffffffffffffffffffffff1602179055508273ffffffffffffffffffffffffffffffffffffffff168173ffffffffffffffffffffffffffffffffffffffff167f8be0079c531659141344cd1fd0a4f28419497f9722a3daafe3b4186f6b6457e060405160405180910390a3505050565b6000611e7e82612b86565b9050919050565b60007fa16a46d94261c7517cc8ff89f61c0ce93598e3c849801011dee649a6a557d100905090565b60606000611eb9611e85565b9050806002018054611eca90614652565b80601f0160208091040260200160405190810160405280929190818152602001828054611ef690614652565b8015611f435780601f10611f1857610100808354040283529160200191611f43565b820191906000526020600020905b815481529060010190602001808311611f2657829003601f168201915b505050505091505090565b60606000611f5a611e85565b9050806003018054611f6b90614652565b80601f0160208091040260200160405190810160405280929190818152602001828054611f9790614652565b8015611fe45780601f10611fb957610100808354040283529160200191611fe4565b820191906000526020600020905b815481529060010190602001808311611fc757829003601f168201915b505050505091505090565b60007f9016d09d72d40fdae2fd8ceac6b6234c7706214fd39c1cd1e609a0528c199300905090565b600080826000018054905090506000811461207457612045836000016001836120409190614ae5565b612729565b60000160069054906101000a900479ffffffffffffffffffffffffffffffffffffffffffffffffffff16612077565b60005b915050919050565b600061209261208c6116e8565b83612bdd565b9050919050565b6000806000806120ab88888888612c1e565b9250925092506120bb8282612d12565b829350505050949350505050565b60006120d48361225d565b905080821461211c5782816040517f752d88c0000000000000000000000000000000000000000000000000000000008152600401612113929190614b8f565b60405180910390fd5b505050565b60007ff0c57e16840df040f15088dc2f81fe391c3923bec73e23a9662efc9c229c6a00905090565b612151612e76565b61215b8282612eb6565b5050565b612167612e76565b565b612171612e76565b6121b0816040518060400160405280600181526020017f3100000000000000000000000000000000000000000000000000000000000000815250612ef3565b50565b6121bb612e76565b565b6121c5612e76565b6121ce81612f48565b50565b6121d9612e76565b565b600073ffffffffffffffffffffffffffffffffffffffff168273ffffffffffffffffffffffffffffffffffffffff160361224d5760006040517fec442f050000000000000000000000000000000000000000000000000000000081526004016122449190614154565b60405180910390fd5b61225960008383612518565b5050565b600080612268612fce565b90508060000160008473ffffffffffffffffffffffffffffffffffffffff1673ffffffffffffffffffffffffffffffffffffffff168152602001908152602001600020600081548092919060010191905055915050919050565b6122ca613c64565b60006122d46116f7565b9050612329838260010160008773ffffffffffffffffffffffffffffffffffffffff1673ffffffffffffffffffffffffffffffffffffffff168152602001908152602001600020612ff690919063ffffffff16565b91505092915050565b600061233c61151e565b9050600073ffffffffffffffffffffffffffffffffffffffff168573ffffffffffffffffffffffffffffffffffffffff16036123b05760006040517fe602df050000000000000000000000000000000000000000000000000000000081526004016123a79190614154565b60405180910390fd5b600073ffffffffffffffffffffffffffffffffffffffff168473ffffffffffffffffffffffffffffffffffffffff16036124225760006040517f94280d620000000000000000000000000000000000000000000000000000000081526004016124199190614154565b60405180910390fd5b828160010160008773ffffffffffffffffffffffffffffffffffffffff1673ffffffffffffffffffffffffffffffffffffffff16815260200190815260200160002060008673ffffffffffffffffffffffffffffffffffffffff1673ffffffffffffffffffffffffffffffffffffffff168152602001908152602001600020819055508115612511578373ffffffffffffffffffffffffffffffffffffffff168573ffffffffffffffffffffffffffffffffffffffff167f8c5be1e5ebec7d5bd14f71427d1e84f3dd0314c0f7b2291e5b200ac8c7c3b925856040516125089190613e81565b60405180910390a35b5050505050565b6125238383836130cb565b505050565b60007f8b73c3c69bb8fe3d512ecc4cf759cc79239f7b179b0ffacaa9a75d522b39400f61255361317c565b61255b6131f8565b4630604051602001612571959493929190614bb8565b60405160208183030381529060405280519060200120905090565b60006001821161259e57819050612724565b600082905060006001905070010000000000000000000000000000000082106125d057608082901c9150604081901b90505b6801000000000000000082106125ef57604082901c9150602081901b90505b640100000000821061260a57602082901c9150601081901b90505b62010000821061262357601082901c9150600881901b90505b610100821061263b57600882901c9150600481901b90505b6010821061265257600482901c9150600281901b90505b6004821061266257600181901b90505b600181600302901c9050600181858161267e5761267d614c0b565b5b048201901c9050600181858161269757612696614c0b565b5b048201901c905060018185816126b0576126af614c0b565b5b048201901c905060018185816126c9576126c8614c0b565b5b048201901c905060018185816126e2576126e1614c0b565b5b048201901c905060018185816126fb576126fa614c0b565b5b048201901c905061271d81858161271557612714614c0b565b5b048211613274565b8103925050505b919050565b60008260005281602060002001905092915050565b60005b818310156127ac5760006127558484613280565b90508465ffffffffffff1661276a8783612729565b60000160009054906101000a900465ffffffffffff1665ffffffffffff161115612796578092506127a6565b6001816127a39190614b19565b93505b50612741565b819050949350505050565b60006127e57f360894a13ba1a3210667c828492db98dca3e2076cc3735a920a3ca505d382bbc60001b6132a6565b60000160009054906101000a900473ffffffffffffffffffffffffffffffffffffffff16905090565b612817826132b0565b8173ffffffffffffffffffffffffffffffffffffffff167fbc7cd75a20ee27fd9adebab32041f755214dbc6bffa90cc0225b39da2e5c2d3b60405160405180910390a26000815111156128745761286e828261337d565b5061287d565b61287c613401565b5b5050565b600061288c82610b46565b9050919050565b600061289d6116f7565b90508273ffffffffffffffffffffffffffffffffffffffff168473ffffffffffffffffffffffffffffffffffffffff16141580156128db5750600082115b15612b1757600073ffffffffffffffffffffffffffffffffffffffff168473ffffffffffffffffffffffffffffffffffffffff16146129fb5760008061296c8360010160008873ffffffffffffffffffffffffffffffffffffffff1673ffffffffffffffffffffffffffffffffffffffff16815260200190815260200160002061343e61296787613454565b6134c2565b79ffffffffffffffffffffffffffffffffffffffffffffffffffff16915079ffffffffffffffffffffffffffffffffffffffffffffffffffff1691508573ffffffffffffffffffffffffffffffffffffffff167fdec2bacdd2f05b59de34da9b523dff8be42e5e38e818c82fdb0bae774387a72483836040516129f0929190614c3a565b60405180910390a250505b600073ffffffffffffffffffffffffffffffffffffffff168373ffffffffffffffffffffffffffffffffffffffff1614612b1657600080612a878360010160008773ffffffffffffffffffffffffffffffffffffffff1673ffffffffffffffffffffffffffffffffffffffff168152602001908152602001600020613502612a8287613454565b6134c2565b79ffffffffffffffffffffffffffffffffffffffffffffffffffff16915079ffffffffffffffffffffffffffffffffffffffffffffffffffff1691508473ffffffffffffffffffffffffffffffffffffffff167fdec2bacdd2f05b59de34da9b523dff8be42e5e38e818c82fdb0bae774387a7248383604051612b0b929190614c3a565b60405180910390a250505b5b50505050565b600081600001805490509050919050565b600063ffffffff8016821115612b7e576020826040517f6dfcc650000000000000000000000000000000000000000000000000000000008152600401612b75929190614c9e565b60405180910390fd5b819050919050565b600080612b91612fce565b90508060000160008473ffffffffffffffffffffffffffffffffffffffff1673ffffffffffffffffffffffffffffffffffffffff16815260200190815260200160002054915050919050565b60006040517f190100000000000000000000000000000000000000000000000000000000000081528360028201528260228201526042812091505092915050565b60008060007f7fffffffffffffffffffffffffffffff5d576e7357a4501ddfe92f46681b20a08460001c1115612c5e576000600385925092509250612d08565b600060018888888860405160008152602001604052604051612c839493929190614cc7565b6020604051602081039080840390855afa158015612ca5573d6000803e3d6000fd5b505050602060405103519050600073ffffffffffffffffffffffffffffffffffffffff168173ffffffffffffffffffffffffffffffffffffffff1603612cf957600060016000801b93509350935050612d08565b8060008060001b935093509350505b9450945094915050565b60006003811115612d2657612d25614d0c565b5b826003811115612d3957612d38614d0c565b5b0315612e725760016003811115612d5357612d52614d0c565b5b826003811115612d6657612d65614d0c565b5b03612d9d576040517ff645eedf00000000000000000000000000000000000000000000000000000000815260040160405180910390fd5b60026003811115612db157612db0614d0c565b5b826003811115612dc457612dc3614d0c565b5b03612e09578060001c6040517ffce698f7000000000000000000000000000000000000000000000000000000008152600401612e009190613e81565b60405180910390fd5b600380811115612e1c57612e1b614d0c565b5b826003811115612e2f57612e2e614d0c565b5b03612e7157806040517fd78bce0c000000000000000000000000000000000000000000000000000000008152600401612e689190613f3f565b60405180910390fd5b5b5050565b612e7e613518565b612eb4576040517fd7e6bcf800000000000000000000000000000000000000000000000000000000815260040160405180910390fd5b565b612ebe612e76565b6000612ec861151e565b905082816003019081612edb9190614edd565b5081816004019081612eed9190614edd565b50505050565b612efb612e76565b6000612f05611e85565b905082816002019081612f189190614edd565b5081816003019081612f2a9190614edd565b506000801b81600001819055506000801b8160010181905550505050565b612f50612e76565b600073ffffffffffffffffffffffffffffffffffffffff168173ffffffffffffffffffffffffffffffffffffffff1603612fc25760006040517f1e4fbdf7000000000000000000000000000000000000000000000000000000008152600401612fb99190614154565b60405180910390fd5b612fcb81611d9c565b50565b60007f5ab42ced628888259c08ac98db1eb0cf702fc1501344311d8b100cd1bfe4bb00905090565b612ffe613c64565b826000018263ffffffff168154811061301a57613019614faf565b5b906000526020600020016040518060400160405290816000820160009054906101000a900465ffffffffffff1665ffffffffffff1665ffffffffffff1681526020016000820160069054906101000a900479ffffffffffffffffffffffffffffffffffffffffffffffffffff1679ffffffffffffffffffffffffffffffffffffffffffffffffffff1679ffffffffffffffffffffffffffffffffffffffffffffffffffff1681525050905092915050565b6130d6838383613538565b600073ffffffffffffffffffffffffffffffffffffffff168373ffffffffffffffffffffffffffffffffffffffff160361316c5760006131146108b9565b90506000613120613777565b9050808211156131695781816040517f1cb15d26000000000000000000000000000000000000000000000000000000008152600401613160929190614c3a565b60405180910390fd5b50505b61317783838361379b565b505050565b600080613187611e85565b90506000613193611ead565b90506000815111156131b0578080519060200120925050506131f5565b6000826000015490506000801b81146131ce578093505050506131f5565b7fc5d2460186f7233c927e7db2dcc703c0e500b653ca82273b7bfad8045d85a47093505050505b90565b600080613203611e85565b9050600061320f611f4e565b905060008151111561322c57808051906020012092505050613271565b6000826001015490506000801b811461324a57809350505050613271565b7fc5d2460186f7233c927e7db2dcc703c0e500b653ca82273b7bfad8045d85a47093505050505b90565b60008115159050919050565b600060028284186132919190614fde565b82841661329e9190614b19565b905092915050565b6000819050919050565b60008173ffffffffffffffffffffffffffffffffffffffff163b0361330c57806040517f4c9c8ce30000000000000000000000000000000000000000000000000000000081526004016133039190614154565b60405180910390fd5b806133397f360894a13ba1a3210667c828492db98dca3e2076cc3735a920a3ca505d382bbc60001b6132a6565b60000160006101000a81548173ffffffffffffffffffffffffffffffffffffffff021916908373ffffffffffffffffffffffffffffffffffffffff16021790555050565b60606000808473ffffffffffffffffffffffffffffffffffffffff16846040516133a79190615056565b600060405180830381855af49150503d80600081146133e2576040519150601f19603f3d011682016040523d82523d6000602084013e6133e7565b606091505b50915091506133f7858383613866565b9250505092915050565b600034111561343c576040517fb398979f00000000000000000000000000000000000000000000000000000000815260040160405180910390fd5b565b6000818361344c919061506d565b905092915050565b600079ffffffffffffffffffffffffffffffffffffffffffffffffffff80168211156134ba5760d0826040517f6dfcc6500000000000000000000000000000000000000000000000000000000081526004016134b19291906150f6565b60405180910390fd5b819050919050565b6000806134f66134d0610dd7565b6134e66134dc88612017565b868863ffffffff16565b876138f59092919063ffffffff16565b91509150935093915050565b60008183613510919061511f565b905092915050565b6000613522612121565b60000160089054906101000a900460ff16905090565b600061354261151e565b9050600073ffffffffffffffffffffffffffffffffffffffff168473ffffffffffffffffffffffffffffffffffffffff1603613598578181600201600082825461358c9190614b19565b92505081905550613671565b60008160000160008673ffffffffffffffffffffffffffffffffffffffff1673ffffffffffffffffffffffffffffffffffffffff16815260200190815260200160002054905082811015613627578481846040517fe450d38c00000000000000000000000000000000000000000000000000000000815260040161361e93929190614a4a565b60405180910390fd5b8281038260000160008773ffffffffffffffffffffffffffffffffffffffff1673ffffffffffffffffffffffffffffffffffffffff16815260200190815260200160002081905550505b600073ffffffffffffffffffffffffffffffffffffffff168373ffffffffffffffffffffffffffffffffffffffff16036136bc5781816002016000828254039250508190555061370c565b818160000160008573ffffffffffffffffffffffffffffffffffffffff1673ffffffffffffffffffffffffffffffffffffffff168152602001908152602001600020600082825401925050819055505b8273ffffffffffffffffffffffffffffffffffffffff168473ffffffffffffffffffffffffffffffffffffffff167fddf252ad1be2c89b69c2b068fc378daa952ba7f163c4a11628f55a4df523b3ef846040516137699190613e81565b60405180910390a350505050565b600079ffffffffffffffffffffffffffffffffffffffffffffffffffff8016905090565b60006137a56116f7565b9050600073ffffffffffffffffffffffffffffffffffffffff168473ffffffffffffffffffffffffffffffffffffffff16036137f6576137f3816002016135026137ee85613454565b6134c2565b50505b600073ffffffffffffffffffffffffffffffffffffffff168373ffffffffffffffffffffffffffffffffffffffff1603613845576138428160020161343e61383d85613454565b6134c2565b50505b61386061385185610aa3565b61385a85610aa3565b84612893565b50505050565b60608261387b5761387682613912565b6138ed565b600082511480156138a3575060008473ffffffffffffffffffffffffffffffffffffffff163b145b156138e557836040517f9996b3150000000000000000000000000000000000000000000000000000000081526004016138dc9190614154565b60405180910390fd5b8190506138ee565b5b9392505050565b600080613906856000018585613957565b91509150935093915050565b6000815111156139255780518082602001fd5b6040517fd6bda27500000000000000000000000000000000000000000000000000000000815260040160405180910390fd5b6000806000858054905090506000811115613b745760006139848760018461397f9190614ae5565b612729565b905060008160000160009054906101000a900465ffffffffffff16905060008260000160069054906101000a900479ffffffffffffffffffffffffffffffffffffffffffffffffffff1690508765ffffffffffff168265ffffffffffff161115613a1a576040517f2520601d00000000000000000000000000000000000000000000000000000000815260040160405180910390fd5b8765ffffffffffff168265ffffffffffff1603613a8557868360000160066101000a81548179ffffffffffffffffffffffffffffffffffffffffffffffffffff021916908379ffffffffffffffffffffffffffffffffffffffffffffffffffff160217905550613b65565b8860405180604001604052808a65ffffffffffff1681526020018979ffffffffffffffffffffffffffffffffffffffffffffffffffff168152509080600181540180825580915050600190039060005260206000200160009091909190915060008201518160000160006101000a81548165ffffffffffff021916908365ffffffffffff16021790555060208201518160000160066101000a81548179ffffffffffffffffffffffffffffffffffffffffffffffffffff021916908379ffffffffffffffffffffffffffffffffffffffffffffffffffff16021790555050505b80879550955050505050613c5c565b8560405180604001604052808765ffffffffffff1681526020018679ffffffffffffffffffffffffffffffffffffffffffffffffffff168152509080600181540180825580915050600190039060005260206000200160009091909190915060008201518160000160006101000a81548165ffffffffffff021916908365ffffffffffff16021790555060208201518160000160066101000a81548179ffffffffffffffffffffffffffffffffffffffffffffffffffff021916908379ffffffffffffffffffffffffffffffffffffffffffffffffffff160217905550505060008492509250505b935093915050565b6040518060400160405280600065ffffffffffff168152602001600079ffffffffffffffffffffffffffffffffffffffffffffffffffff1681525090565b600081519050919050565b600082825260208201905092915050565b60005b83811015613cdc578082015181840152602081019050613cc1565b60008484015250505050565b6000601f19601f8301169050919050565b6000613d0482613ca2565b613d0e8185613cad565b9350613d1e818560208601613cbe565b613d2781613ce8565b840191505092915050565b60006020820190508181036000830152613d4c8184613cf9565b905092915050565b6000604051905090565b600080fd5b600080fd5b600073ffffffffffffffffffffffffffffffffffffffff82169050919050565b6000613d9382613d68565b9050919050565b613da381613d88565b8114613dae57600080fd5b50565b600081359050613dc081613d9a565b92915050565b6000819050919050565b613dd981613dc6565b8114613de457600080fd5b50565b600081359050613df681613dd0565b92915050565b60008060408385031215613e1357613e12613d5e565b5b6000613e2185828601613db1565b9250506020613e3285828601613de7565b9150509250929050565b60008115159050919050565b613e5181613e3c565b82525050565b6000602082019050613e6c6000830184613e48565b92915050565b613e7b81613dc6565b82525050565b6000602082019050613e966000830184613e72565b92915050565b600080600060608486031215613eb557613eb4613d5e565b5b6000613ec386828701613db1565b9350506020613ed486828701613db1565b9250506040613ee586828701613de7565b9150509250925092565b600060ff82169050919050565b613f0581613eef565b82525050565b6000602082019050613f206000830184613efc565b92915050565b6000819050919050565b613f3981613f26565b82525050565b6000602082019050613f546000830184613f30565b92915050565b600060208284031215613f7057613f6f613d5e565b5b6000613f7e84828501613de7565b91505092915050565b600080fd5b600080fd5b7f4e487b7100000000000000000000000000000000000000000000000000000000600052604160045260246000fd5b613fc982613ce8565b810181811067ffffffffffffffff82111715613fe857613fe7613f91565b5b80604052505050565b6000613ffb613d54565b90506140078282613fc0565b919050565b600067ffffffffffffffff82111561402757614026613f91565b5b61403082613ce8565b9050602081019050919050565b82818337600083830152505050565b600061405f61405a8461400c565b613ff1565b90508281526020810184848401111561407b5761407a613f8c565b5b61408684828561403d565b509392505050565b600082601f8301126140a3576140a2613f87565b5b81356140b384826020860161404c565b91505092915050565b600080604083850312156140d3576140d2613d5e565b5b60006140e185828601613db1565b925050602083013567ffffffffffffffff81111561410257614101613d63565b5b61410e8582860161408e565b9150509250929050565b60006020828403121561412e5761412d613d5e565b5b600061413c84828501613db1565b91505092915050565b61414e81613d88565b82525050565b60006020820190506141696000830184614145565b92915050565b600063ffffffff82169050919050565b6141888161416f565b82525050565b60006020820190506141a3600083018461417f565b92915050565b60007fff0000000000000000000000000000000000000000000000000000000000000082169050919050565b6141de816141a9565b82525050565b600081519050919050565b600082825260208201905092915050565b6000819050602082019050919050565b61421981613dc6565b82525050565b600061422b8383614210565b60208301905092915050565b6000602082019050919050565b600061424f826141e4565b61425981856141ef565b935061426483614200565b8060005b8381101561429557815161427c888261421f565b975061428783614237565b925050600181019050614268565b5085935050505092915050565b600060e0820190506142b7600083018a6141d5565b81810360208301526142c98189613cf9565b905081810360408301526142dd8188613cf9565b90506142ec6060830187613e72565b6142f96080830186614145565b61430660a0830185613f30565b81810360c08301526143188184614244565b905098975050505050505050565b600065ffffffffffff82169050919050565b61434181614326565b82525050565b600060208201905061435c6000830184614338565b92915050565b61436b81613eef565b811461437657600080fd5b50565b60008135905061438881614362565b92915050565b61439781613f26565b81146143a257600080fd5b50565b6000813590506143b48161438e565b92915050565b60008060008060008060c087890312156143d7576143d6613d5e565b5b60006143e589828a01613db1565b96505060206143f689828a01613de7565b955050604061440789828a01613de7565b945050606061441889828a01614379565b935050608061442989828a016143a5565b92505060a061443a89828a016143a5565b9150509295509295509295565b600080600080600080600060e0888a03121561446657614465613d5e565b5b60006144748a828b01613db1565b97505060206144858a828b01613db1565b96505060406144968a828b01613de7565b95505060606144a78a828b01613de7565b94505060806144b88a828b01614379565b93505060a06144c98a828b016143a5565b92505060c06144da8a828b016143a5565b91505092959891949750929550565b60008060408385031215614500576144ff613d5e565b5b600061450e85828601613db1565b925050602061451f85828601613db1565b9150509250929050565b6145328161416f565b811461453d57600080fd5b50565b60008135905061454f81614529565b92915050565b6000806040838503121561456c5761456b613d5e565b5b600061457a85828601613db1565b925050602061458b85828601614540565b9150509250929050565b61459e81614326565b82525050565b600079ffffffffffffffffffffffffffffffffffffffffffffffffffff82169050919050565b6145d3816145a4565b82525050565b6040820160008201516145ef6000850182614595565b50602082015161460260208501826145ca565b50505050565b600060408201905061461d60008301846145d9565b92915050565b7f4e487b7100000000000000000000000000000000000000000000000000000000600052602260045260246000fd5b6000600282049050600182168061466a57607f821691505b60208210810361467d5761467c614623565b5b50919050565b60006040820190506146986000830185613e72565b6146a56020830184614338565b9392505050565b7f4549503731323a20556e696e697469616c697a65640000000000000000000000600082015250565b60006146e2601583613cad565b91506146ed826146ac565b602082019050919050565b60006020820190508181036000830152614711816146d5565b9050919050565b600060808201905061472d6000830187613f30565b61473a6020830186614145565b6147476040830185613e72565b6147546060830184613e72565b95945050505050565b7f4e487b7100000000000000000000000000000000000000000000000000000000600052601160045260246000fd5b60008160011c9050919050565b6000808291508390505b60018511156147e3578086048111156147bf576147be61475d565b5b60018516156147ce5780820291505b80810290506147dc8561478c565b94506147a3565b94509492505050565b6000826147fc57600190506148b8565b8161480a57600090506148b8565b8160018114614820576002811461482a57614859565b60019150506148b8565b60ff84111561483c5761483b61475d565b5b8360020a9150848211156148535761485261475d565b5b506148b8565b5060208310610133831016604e8410600b841016171561488e5782820a9050838111156148895761488861475d565b5b6148b8565b61489b8484846001614799565b925090508184048111156148b2576148b161475d565b5b81810290505b9392505050565b60006148ca82613dc6565b91506148d583613eef565b92506149027fffffffffffffffffffffffffffffffffffffffffffffffffffffffffffffffff84846147ec565b905092915050565b600061491582613dc6565b915061492083613dc6565b925082820261492e81613dc6565b915082820484148315176149455761494461475d565b5b5092915050565b6000819050919050565b600067ffffffffffffffff82169050919050565b6000819050919050565b600061498f61498a6149858461494c565b61496a565b614956565b9050919050565b61499f81614974565b82525050565b60006020820190506149ba6000830184614996565b92915050565b600060c0820190506149d56000830189613f30565b6149e26020830188614145565b6149ef6040830187614145565b6149fc6060830186613e72565b614a096080830185613e72565b614a1660a0830184613e72565b979650505050505050565b6000604082019050614a366000830185614145565b614a436020830184614145565b9392505050565b6000606082019050614a5f6000830186614145565b614a6c6020830185613e72565b614a796040830184613e72565b949350505050565b6000819050919050565b6000614aa6614aa1614a9c84614a81565b61496a565b613eef565b9050919050565b614ab681614a8b565b82525050565b6000604082019050614ad16000830185614aad565b614ade6020830184613e72565b9392505050565b6000614af082613dc6565b9150614afb83613dc6565b9250828203905081811115614b1357614b1261475d565b5b92915050565b6000614b2482613dc6565b9150614b2f83613dc6565b9250828201905080821115614b4757614b4661475d565b5b92915050565b600081519050614b5c8161438e565b92915050565b600060208284031215614b7857614b77613d5e565b5b6000614b8684828501614b4d565b91505092915050565b6000604082019050614ba46000830185614145565b614bb16020830184613e72565b9392505050565b600060a082019050614bcd6000830188613f30565b614bda6020830187613f30565b614be76040830186613f30565b614bf46060830185613e72565b614c016080830184614145565b9695505050505050565b7f4e487b7100000000000000000000000000000000000000000000000000000000600052601260045260246000fd5b6000604082019050614c4f6000830185613e72565b614c5c6020830184613e72565b9392505050565b6000819050919050565b6000614c88614c83614c7e84614c63565b61496a565b613eef565b9050919050565b614c9881614c6d565b82525050565b6000604082019050614cb36000830185614c8f565b614cc06020830184613e72565b9392505050565b6000608082019050614cdc6000830187613f30565b614ce96020830186613efc565b614cf66040830185613f30565b614d036060830184613f30565b95945050505050565b7f4e487b7100000000000000000000000000000000000000000000000000000000600052602160045260246000fd5b60008190508160005260206000209050919050565b60006020601f8301049050919050565b600082821b905092915050565b600060088302614d9d7fffffffffffffffffffffffffffffffffffffffffffffffffffffffffffffffff82614d60565b614da78683614d60565b95508019841693508086168417925050509392505050565b6000614dda614dd5614dd084613dc6565b61496a565b613dc6565b9050919050565b6000819050919050565b614df483614dbf565b614e08614e0082614de1565b848454614d6d565b825550505050565b600090565b614e1d614e10565b614e28818484614deb565b505050565b5b81811015614e4c57614e41600082614e15565b600181019050614e2e565b5050565b601f821115614e9157614e6281614d3b565b614e6b84614d50565b81016020851015614e7a578190505b614e8e614e8685614d50565b830182614e2d565b50505b505050565b600082821c905092915050565b6000614eb460001984600802614e96565b1980831691505092915050565b6000614ecd8383614ea3565b9150826002028217905092915050565b614ee682613ca2565b67ffffffffffffffff811115614eff57614efe613f91565b5b614f098254614652565b614f14828285614e50565b600060209050601f831160018114614f475760008415614f35578287015190505b614f3f8582614ec1565b865550614fa7565b601f198416614f5586614d3b565b60005b82811015614f7d57848901518255600182019150602085019450602081019050614f58565b86831015614f9a5784890151614f96601f891682614ea3565b8355505b6001600288020188555050505b505050505050565b7f4e487b7100000000000000000000000000000000000000000000000000000000600052603260045260246000fd5b6000614fe982613dc6565b9150614ff483613dc6565b92508261500457615003614c0b565b5b828204905092915050565b600081519050919050565b600081905092915050565b60006150308261500f565b61503a818561501a565b935061504a818560208601613cbe565b80840191505092915050565b60006150628284615025565b915081905092915050565b6000615078826145a4565b9150615083836145a4565b9250828203905079ffffffffffffffffffffffffffffffffffffffffffffffffffff8111156150b5576150b461475d565b5b92915050565b6000819050919050565b60006150e06150db6150d6846150bb565b61496a565b613eef565b9050919050565b6150f0816150c5565b82525050565b600060408201905061510b60008301856150e7565b6151186020830184613e72565b9392505050565b600061512a826145a4565b9150615135836145a4565b9250828201905079ffffffffffffffffffffffffffffffffffffffffffffffffffff8111156151675761516661475d565b5b9291505056fea26469706673582212207989fa36fb22c451ad6b77d29ad850ca2b0984190bc2622665c5a7183a080f5c64736f6c634300081a0033",
  "linkReferences": {},
  "deployedLinkReferences": {}
}