{
  "_format": "hh-sol-artifact-1",
  "contractName": "SteveCareToken",
  "sourceName": "contracts/serviceproviders/erc-721/SteveCareToken.sol",
  "abi": [
    {
      "inputs": [],
      "stateMutability": "nonpayable",
      "type": "constructor"
    },
    {
      "inputs": [],
      "name": "AccessControlBadConfirmation",
      "type": "error"
    },
    {
      "inputs": [
        {
          "internalType": "address",
          "name": "account",
          "type": "address"
        },
        {
          "internalType": "bytes32",
          "name": "neededRole",
          "type": "bytes32"
        }
      ],
      "name": "AccessControlUnauthorizedAccount",
      "type": "error"
    },
    {
      "inputs": [
        {
          "internalType": "address",
          "name": "target",
          "type": "address"
        }
      ],
      "name": "AddressEmptyCode",
      "type": "error"
    },
    {
      "inputs": [],
      "name": "CheckpointUnorderedInsertion",
      "type": "error"
    },
    {
      "inputs": [],
      "name": "ECDSAInvalidSignature",
      "type": "error"
    },
    {
      "inputs": [
        {
          "internalType": "uint256",
          "name": "length",
          "type": "uint256"
        }
      ],
      "name": "ECDSAInvalidSignatureLength",
      "type": "error"
    },
    {
      "inputs": [
        {
          "internalType": "bytes32",
          "name": "s",
          "type": "bytes32"
        }
      ],
      "name": "ECDSAInvalidSignatureS",
      "type": "error"
    },
    {
      "inputs": [
        {
          "internalType": "address",
          "name": "implementation",
          "type": "address"
        }
      ],
      "name": "ERC1967InvalidImplementation",
      "type": "error"
    },
    {
      "inputs": [],
      "name": "ERC1967NonPayable",
      "type": "error"
    },
    {
      "inputs": [
        {
          "internalType": "uint256",
          "name": "timepoint",
          "type": "uint256"
        },
        {
          "internalType": "uint48",
          "name": "clock",
          "type": "uint48"
        }
      ],
      "name": "ERC5805FutureLookup",
      "type": "error"
    },
    {
      "inputs": [],
      "name": "ERC6372InconsistentClock",
      "type": "error"
    },
    {
      "inputs": [],
      "name": "ERC721EnumerableForbiddenBatchMint",
      "type": "error"
    },
    {
      "inputs": [
        {
          "internalType": "address",
          "name": "sender",
          "type": "address"
        },
        {
          "internalType": "uint256",
          "name": "tokenId",
          "type": "uint256"
        },
        {
          "internalType": "address",
          "name": "owner",
          "type": "address"
        }
      ],
      "name": "ERC721IncorrectOwner",
      "type": "error"
    },
    {
      "inputs": [
        {
          "internalType": "address",
          "name": "operator",
          "type": "address"
        },
        {
          "internalType": "uint256",
          "name": "tokenId",
          "type": "uint256"
        }
      ],
      "name": "ERC721InsufficientApproval",
      "type": "error"
    },
    {
      "inputs": [
        {
          "internalType": "address",
          "name": "approver",
          "type": "address"
        }
      ],
      "name": "ERC721InvalidApprover",
      "type": "error"
    },
    {
      "inputs": [
        {
          "internalType": "address",
          "name": "operator",
          "type": "address"
        }
      ],
      "name": "ERC721InvalidOperator",
      "type": "error"
    },
    {
      "inputs": [
        {
          "internalType": "address",
          "name": "owner",
          "type": "address"
        }
      ],
      "name": "ERC721InvalidOwner",
      "type": "error"
    },
    {
      "inputs": [
        {
          "internalType": "address",
          "name": "receiver",
          "type": "address"
        }
      ],
      "name": "ERC721InvalidReceiver",
      "type": "error"
    },
    {
      "inputs": [
        {
          "internalType": "address",
          "name": "sender",
          "type": "address"
        }
      ],
      "name": "ERC721InvalidSender",
      "type": "error"
    },
    {
      "inputs": [
        {
          "internalType": "uint256",
          "name": "tokenId",
          "type": "uint256"
        }
      ],
      "name": "ERC721NonexistentToken",
      "type": "error"
    },
    {
      "inputs": [
        {
          "internalType": "address",
          "name": "owner",
          "type": "address"
        },
        {
          "internalType": "uint256",
          "name": "index",
          "type": "uint256"
        }
      ],
      "name": "ERC721OutOfBoundsIndex",
      "type": "error"
    },
    {
      "inputs": [],
      "name": "EnforcedPause",
      "type": "error"
    },
    {
      "inputs": [],
      "name": "ExpectedPause",
      "type": "error"
    },
    {
      "inputs": [],
      "name": "FailedCall",
      "type": "error"
    },
    {
      "inputs": [
        {
          "internalType": "address",
          "name": "account",
          "type": "address"
        },
        {
          "internalType": "uint256",
          "name": "currentNonce",
          "type": "uint256"
        }
      ],
      "name": "InvalidAccountNonce",
      "type": "error"
    },
    {
      "inputs": [],
      "name": "InvalidInitialization",
      "type": "error"
    },
    {
      "inputs": [],
      "name": "NotInitializing",
      "type": "error"
    },
    {
      "inputs": [
        {
          "internalType": "uint8",
          "name": "bits",
          "type": "uint8"
        },
        {
          "internalType": "uint256",
          "name": "value",
          "type": "uint256"
        }
      ],
      "name": "SafeCastOverflowedUintDowncast",
      "type": "error"
    },
    {
      "inputs": [],
      "name": "UUPSUnauthorizedCallContext",
      "type": "error"
    },
    {
      "inputs": [
        {
          "internalType": "bytes32",
          "name": "slot",
          "type": "bytes32"
        }
      ],
      "name": "UUPSUnsupportedProxiableUUID",
      "type": "error"
    },
    {
      "inputs": [
        {
          "internalType": "uint256",
          "name": "expiry",
          "type": "uint256"
        }
      ],
      "name": "VotesExpiredSignature",
      "type": "error"
    },
    {
      "anonymous": false,
      "inputs": [
        {
          "indexed": true,
          "internalType": "address",
          "name": "owner",
          "type": "address"
        },
        {
          "indexed": true,
          "internalType": "address",
          "name": "approved",
          "type": "address"
        },
        {
          "indexed": true,
          "internalType": "uint256",
          "name": "tokenId",
          "type": "uint256"
        }
      ],
      "name": "Approval",
      "type": "event"
    },
    {
      "anonymous": false,
      "inputs": [
        {
          "indexed": true,
          "internalType": "address",
          "name": "owner",
          "type": "address"
        },
        {
          "indexed": true,
          "internalType": "address",
          "name": "operator",
          "type": "address"
        },
        {
          "indexed": false,
          "internalType": "bool",
          "name": "approved",
          "type": "bool"
        }
      ],
      "name": "ApprovalForAll",
      "type": "event"
    },
    {
      "anonymous": false,
      "inputs": [
        {
          "indexed": false,
          "internalType": "uint256",
          "name": "_fromTokenId",
          "type": "uint256"
        },
        {
          "indexed": false,
          "internalType": "uint256",
          "name": "_toTokenId",
          "type": "uint256"
        }
      ],
      "name": "BatchMetadataUpdate",
      "type": "event"
    },
    {
      "anonymous": false,
      "inputs": [
        {
          "indexed": true,
          "internalType": "address",
          "name": "delegator",
          "type": "address"
        },
        {
          "indexed": true,
          "internalType": "address",
          "name": "fromDelegate",
          "type": "address"
        },
        {
          "indexed": true,
          "internalType": "address",
          "name": "toDelegate",
          "type": "address"
        }
      ],
      "name": "DelegateChanged",
      "type": "event"
    },
    {
      "anonymous": false,
      "inputs": [
        {
          "indexed": true,
          "internalType": "address",
          "name": "delegate",
          "type": "address"
        },
        {
          "indexed": false,
          "internalType": "uint256",
          "name": "previousVotes",
          "type": "uint256"
        },
        {
          "indexed": false,
          "internalType": "uint256",
          "name": "newVotes",
          "type": "uint256"
        }
      ],
      "name": "DelegateVotesChanged",
      "type": "event"
    },
    {
      "anonymous": false,
      "inputs": [],
      "name": "EIP712DomainChanged",
      "type": "event"
    },
    {
      "anonymous": false,
      "inputs": [
        {
          "indexed": false,
          "internalType": "uint64",
          "name": "version",
          "type": "uint64"
        }
      ],
      "name": "Initialized",
      "type": "event"
    },
    {
      "anonymous": false,
      "inputs": [
        {
          "indexed": false,
          "internalType": "uint256",
          "name": "_tokenId",
          "type": "uint256"
        }
      ],
      "name": "MetadataUpdate",
      "type": "event"
    },
    {
      "anonymous": false,
      "inputs": [
        {
          "indexed": false,
          "internalType": "address",
          "name": "account",
          "type": "address"
        }
      ],
      "name": "Paused",
      "type": "event"
    },
    {
      "anonymous": false,
      "inputs": [
        {
          "indexed": true,
          "internalType": "bytes32",
          "name": "role",
          "type": "bytes32"
        },
        {
          "indexed": true,
          "internalType": "bytes32",
          "name": "previousAdminRole",
          "type": "bytes32"
        },
        {
          "indexed": true,
          "internalType": "bytes32",
          "name": "newAdminRole",
          "type": "bytes32"
        }
      ],
      "name": "RoleAdminChanged",
      "type": "event"
    },
    {
      "anonymous": false,
      "inputs": [
        {
          "indexed": true,
          "internalType": "bytes32",
          "name": "role",
          "type": "bytes32"
        },
        {
          "indexed": true,
          "internalType": "address",
          "name": "account",
          "type": "address"
        },
        {
          "indexed": true,
          "internalType": "address",
          "name": "sender",
          "type": "address"
        }
      ],
      "name": "RoleGranted",
      "type": "event"
    },
    {
      "anonymous": false,
      "inputs": [
        {
          "indexed": true,
          "internalType": "bytes32",
          "name": "role",
          "type": "bytes32"
        },
        {
          "indexed": true,
          "internalType": "address",
          "name": "account",
          "type": "address"
        },
        {
          "indexed": true,
          "internalType": "address",
          "name": "sender",
          "type": "address"
        }
      ],
      "name": "RoleRevoked",
      "type": "event"
    },
    {
      "anonymous": false,
      "inputs": [
        {
          "indexed": true,
          "internalType": "address",
          "name": "from",
          "type": "address"
        },
        {
          "indexed": true,
          "internalType": "address",
          "name": "to",
          "type": "address"
        },
        {
          "indexed": true,
          "internalType": "uint256",
          "name": "tokenId",
          "type": "uint256"
        }
      ],
      "name": "Transfer",
      "type": "event"
    },
    {
      "anonymous": false,
      "inputs": [
        {
          "indexed": false,
          "internalType": "address",
          "name": "account",
          "type": "address"
        }
      ],
      "name": "Unpaused",
      "type": "event"
    },
    {
      "anonymous": false,
      "inputs": [
        {
          "indexed": true,
          "internalType": "address",
          "name": "implementation",
          "type": "address"
        }
      ],
      "name": "Upgraded",
      "type": "event"
    },
    {
      "inputs": [],
      "name": "CLOCK_MODE",
      "outputs": [
        {
          "internalType": "string",
          "name": "",
          "type": "string"
        }
      ],
      "stateMutability": "pure",
      "type": "function"
    },
    {
      "inputs": [],
      "name": "DEFAULT_ADMIN_ROLE",
      "outputs": [
        {
          "internalType": "bytes32",
          "name": "",
          "type": "bytes32"
        }
      ],
      "stateMutability": "view",
      "type": "function"
    },
    {
      "inputs": [],
      "name": "MINTER_ROLE",
      "outputs": [
        {
          "internalType": "bytes32",
          "name": "",
          "type": "bytes32"
        }
      ],
      "stateMutability": "view",
      "type": "function"
    },
    {
      "inputs": [],
      "name": "PAUSER_ROLE",
      "outputs": [
        {
          "internalType": "bytes32",
          "name": "",
          "type": "bytes32"
        }
      ],
      "stateMutability": "view",
      "type": "function"
    },
    {
      "inputs": [],
      "name": "UPGRADER_ROLE",
      "outputs": [
        {
          "internalType": "bytes32",
          "name": "",
          "type": "bytes32"
        }
      ],
      "stateMutability": "view",
      "type": "function"
    },
    {
      "inputs": [],
      "name": "UPGRADE_INTERFACE_VERSION",
      "outputs": [
        {
          "internalType": "string",
          "name": "",
          "type": "string"
        }
      ],
      "stateMutability": "view",
      "type": "function"
    },
    {
      "inputs": [
        {
          "internalType": "address",
          "name": "to",
          "type": "address"
        },
        {
          "internalType": "uint256",
          "name": "tokenId",
          "type": "uint256"
        }
      ],
      "name": "approve",
      "outputs": [],
      "stateMutability": "nonpayable",
      "type": "function"
    },
    {
      "inputs": [
        {
          "internalType": "address",
          "name": "owner",
          "type": "address"
        }
      ],
      "name": "balanceOf",
      "outputs": [
        {
          "internalType": "uint256",
          "name": "",
          "type": "uint256"
        }
      ],
      "stateMutability": "view",
      "type": "function"
    },
    {
      "inputs": [
        {
          "internalType": "uint256",
          "name": "tokenId",
          "type": "uint256"
        }
      ],
      "name": "burn",
      "outputs": [],
      "stateMutability": "nonpayable",
      "type": "function"
    },
    {
      "inputs": [],
      "name": "clock",
      "outputs": [
        {
          "internalType": "uint48",
          "name": "",
          "type": "uint48"
        }
      ],
      "stateMutability": "view",
      "type": "function"
    },
    {
      "inputs": [
        {
          "internalType": "address",
          "name": "delegatee",
          "type": "address"
        }
      ],
      "name": "delegate",
      "outputs": [],
      "stateMutability": "nonpayable",
      "type": "function"
    },
    {
      "inputs": [
        {
          "internalType": "address",
          "name": "delegatee",
          "type": "address"
        },
        {
          "internalType": "uint256",
          "name": "nonce",
          "type": "uint256"
        },
        {
          "internalType": "uint256",
          "name": "expiry",
          "type": "uint256"
        },
        {
          "internalType": "uint8",
          "name": "v",
          "type": "uint8"
        },
        {
          "internalType": "bytes32",
          "name": "r",
          "type": "bytes32"
        },
        {
          "internalType": "bytes32",
          "name": "s",
          "type": "bytes32"
        }
      ],
      "name": "delegateBySig",
      "outputs": [],
      "stateMutability": "nonpayable",
      "type": "function"
    },
    {
      "inputs": [
        {
          "internalType": "address",
          "name": "account",
          "type": "address"
        }
      ],
      "name": "delegates",
      "outputs": [
        {
          "internalType": "address",
          "name": "",
          "type": "address"
        }
      ],
      "stateMutability": "view",
      "type": "function"
    },
    {
      "inputs": [],
      "name": "eip712Domain",
      "outputs": [
        {
          "internalType": "bytes1",
          "name": "fields",
          "type": "bytes1"
        },
        {
          "internalType": "string",
          "name": "name",
          "type": "string"
        },
        {
          "internalType": "string",
          "name": "version",
          "type": "string"
        },
        {
          "internalType": "uint256",
          "name": "chainId",
          "type": "uint256"
        },
        {
          "internalType": "address",
          "name": "verifyingContract",
          "type": "address"
        },
        {
          "internalType": "bytes32",
          "name": "salt",
          "type": "bytes32"
        },
        {
          "internalType": "uint256[]",
          "name": "extensions",
          "type": "uint256[]"
        }
      ],
      "stateMutability": "view",
      "type": "function"
    },
    {
      "inputs": [
        {
          "internalType": "uint256",
          "name": "tokenId",
          "type": "uint256"
        }
      ],
      "name": "getApproved",
      "outputs": [
        {
          "internalType": "address",
          "name": "",
          "type": "address"
        }
      ],
      "stateMutability": "view",
      "type": "function"
    },
    {
      "inputs": [
        {
          "internalType": "uint256",
          "name": "timepoint",
          "type": "uint256"
        }
      ],
      "name": "getPastTotalSupply",
      "outputs": [
        {
          "internalType": "uint256",
          "name": "",
          "type": "uint256"
        }
      ],
      "stateMutability": "view",
      "type": "function"
    },
    {
      "inputs": [
        {
          "internalType": "address",
          "name": "account",
          "type": "address"
        },
        {
          "internalType": "uint256",
          "name": "timepoint",
          "type": "uint256"
        }
      ],
      "name": "getPastVotes",
      "outputs": [
        {
          "internalType": "uint256",
          "name": "",
          "type": "uint256"
        }
      ],
      "stateMutability": "view",
      "type": "function"
    },
    {
      "inputs": [
        {
          "internalType": "bytes32",
          "name": "role",
          "type": "bytes32"
        }
      ],
      "name": "getRoleAdmin",
      "outputs": [
        {
          "internalType": "bytes32",
          "name": "",
          "type": "bytes32"
        }
      ],
      "stateMutability": "view",
      "type": "function"
    },
    {
      "inputs": [
        {
          "internalType": "address",
          "name": "account",
          "type": "address"
        }
      ],
      "name": "getVotes",
      "outputs": [
        {
          "internalType": "uint256",
          "name": "",
          "type": "uint256"
        }
      ],
      "stateMutability": "view",
      "type": "function"
    },
    {
      "inputs": [
        {
          "internalType": "bytes32",
          "name": "role",
          "type": "bytes32"
        },
        {
          "internalType": "address",
          "name": "account",
          "type": "address"
        }
      ],
      "name": "grantRole",
      "outputs": [],
      "stateMutability": "nonpayable",
      "type": "function"
    },
    {
      "inputs": [
        {
          "internalType": "bytes32",
          "name": "role",
          "type": "bytes32"
        },
        {
          "internalType": "address",
          "name": "account",
          "type": "address"
        }
      ],
      "name": "hasRole",
      "outputs": [
        {
          "internalType": "bool",
          "name": "",
          "type": "bool"
        }
      ],
      "stateMutability": "view",
      "type": "function"
    },
    {
      "inputs": [
        {
          "internalType": "address",
          "name": "defaultAdmin",
          "type": "address"
        },
        {
          "internalType": "address",
          "name": "pauser",
          "type": "address"
        },
        {
          "internalType": "address",
          "name": "minter",
          "type": "address"
        },
        {
          "internalType": "address",
          "name": "upgrader",
          "type": "address"
        }
      ],
      "name": "initialize",
      "outputs": [],
      "stateMutability": "nonpayable",
      "type": "function"
    },
    {
      "inputs": [
        {
          "internalType": "address",
          "name": "owner",
          "type": "address"
        },
        {
          "internalType": "address",
          "name": "operator",
          "type": "address"
        }
      ],
      "name": "isApprovedForAll",
      "outputs": [
        {
          "internalType": "bool",
          "name": "",
          "type": "bool"
        }
      ],
      "stateMutability": "view",
      "type": "function"
    },
    {
      "inputs": [],
      "name": "name",
      "outputs": [
        {
          "internalType": "string",
          "name": "",
          "type": "string"
        }
      ],
      "stateMutability": "view",
      "type": "function"
    },
    {
      "inputs": [
        {
          "internalType": "address",
          "name": "owner",
          "type": "address"
        }
      ],
      "name": "nonces",
      "outputs": [
        {
          "internalType": "uint256",
          "name": "",
          "type": "uint256"
        }
      ],
      "stateMutability": "view",
      "type": "function"
    },
    {
      "inputs": [
        {
          "internalType": "uint256",
          "name": "tokenId",
          "type": "uint256"
        }
      ],
      "name": "ownerOf",
      "outputs": [
        {
          "internalType": "address",
          "name": "",
          "type": "address"
        }
      ],
      "stateMutability": "view",
      "type": "function"
    },
    {
      "inputs": [],
      "name": "pause",
      "outputs": [],
      "stateMutability": "nonpayable",
      "type": "function"
    },
    {
      "inputs": [],
      "name": "paused",
      "outputs": [
        {
          "internalType": "bool",
          "name": "",
          "type": "bool"
        }
      ],
      "stateMutability": "view",
      "type": "function"
    },
    {
      "inputs": [],
      "name": "proxiableUUID",
      "outputs": [
        {
          "internalType": "bytes32",
          "name": "",
          "type": "bytes32"
        }
      ],
      "stateMutability": "view",
      "type": "function"
    },
    {
      "inputs": [
        {
          "internalType": "bytes32",
          "name": "role",
          "type": "bytes32"
        },
        {
          "internalType": "address",
          "name": "callerConfirmation",
          "type": "address"
        }
      ],
      "name": "renounceRole",
      "outputs": [],
      "stateMutability": "nonpayable",
      "type": "function"
    },
    {
      "inputs": [
        {
          "internalType": "bytes32",
          "name": "role",
          "type": "bytes32"
        },
        {
          "internalType": "address",
          "name": "account",
          "type": "address"
        }
      ],
      "name": "revokeRole",
      "outputs": [],
      "stateMutability": "nonpayable",
      "type": "function"
    },
    {
      "inputs": [
        {
          "internalType": "address",
          "name": "to",
          "type": "address"
        },
        {
          "internalType": "string",
          "name": "uri",
          "type": "string"
        }
      ],
      "name": "safeMint",
      "outputs": [],
      "stateMutability": "nonpayable",
      "type": "function"
    },
    {
      "inputs": [
        {
          "internalType": "address",
          "name": "from",
          "type": "address"
        },
        {
          "internalType": "address",
          "name": "to",
          "type": "address"
        },
        {
          "internalType": "uint256",
          "name": "tokenId",
          "type": "uint256"
        }
      ],
      "name": "safeTransferFrom",
      "outputs": [],
      "stateMutability": "nonpayable",
      "type": "function"
    },
    {
      "inputs": [
        {
          "internalType": "address",
          "name": "from",
          "type": "address"
        },
        {
          "internalType": "address",
          "name": "to",
          "type": "address"
        },
        {
          "internalType": "uint256",
          "name": "tokenId",
          "type": "uint256"
        },
        {
          "internalType": "bytes",
          "name": "data",
          "type": "bytes"
        }
      ],
      "name": "safeTransferFrom",
      "outputs": [],
      "stateMutability": "nonpayable",
      "type": "function"
    },
    {
      "inputs": [
        {
          "internalType": "address",
          "name": "operator",
          "type": "address"
        },
        {
          "internalType": "bool",
          "name": "approved",
          "type": "bool"
        }
      ],
      "name": "setApprovalForAll",
      "outputs": [],
      "stateMutability": "nonpayable",
      "type": "function"
    },
    {
      "inputs": [
        {
          "internalType": "bytes4",
          "name": "interfaceId",
          "type": "bytes4"
        }
      ],
      "name": "supportsInterface",
      "outputs": [
        {
          "internalType": "bool",
          "name": "",
          "type": "bool"
        }
      ],
      "stateMutability": "view",
      "type": "function"
    },
    {
      "inputs": [],
      "name": "symbol",
      "outputs": [
        {
          "internalType": "string",
          "name": "",
          "type": "string"
        }
      ],
      "stateMutability": "view",
      "type": "function"
    },
    {
      "inputs": [
        {
          "internalType": "uint256",
          "name": "index",
          "type": "uint256"
        }
      ],
      "name": "tokenByIndex",
      "outputs": [
        {
          "internalType": "uint256",
          "name": "",
          "type": "uint256"
        }
      ],
      "stateMutability": "view",
      "type": "function"
    },
    {
      "inputs": [
        {
          "internalType": "address",
          "name": "owner",
          "type": "address"
        },
        {
          "internalType": "uint256",
          "name": "index",
          "type": "uint256"
        }
      ],
      "name": "tokenOfOwnerByIndex",
      "outputs": [
        {
          "internalType": "uint256",
          "name": "",
          "type": "uint256"
        }
      ],
      "stateMutability": "view",
      "type": "function"
    },
    {
      "inputs": [
        {
          "internalType": "uint256",
          "name": "tokenId",
          "type": "uint256"
        }
      ],
      "name": "tokenURI",
      "outputs": [
        {
          "internalType": "string",
          "name": "",
          "type": "string"
        }
      ],
      "stateMutability": "view",
      "type": "function"
    },
    {
      "inputs": [],
      "name": "totalSupply",
      "outputs": [
        {
          "internalType": "uint256",
          "name": "",
          "type": "uint256"
        }
      ],
      "stateMutability": "view",
      "type": "function"
    },
    {
      "inputs": [
        {
          "internalType": "address",
          "name": "from",
          "type": "address"
        },
        {
          "internalType": "address",
          "name": "to",
          "type": "address"
        },
        {
          "internalType": "uint256",
          "name": "tokenId",
          "type": "uint256"
        }
      ],
      "name": "transferFrom",
      "outputs": [],
      "stateMutability": "nonpayable",
      "type": "function"
    },
    {
      "inputs": [],
      "name": "unpause",
      "outputs": [],
      "stateMutability": "nonpayable",
      "type": "function"
    },
    {
      "inputs": [
        {
          "internalType": "address",
          "name": "newImplementation",
          "type": "address"
        },
        {
          "internalType": "bytes",
          "name": "data",
          "type": "bytes"
        }
      ],
      "name": "upgradeToAndCall",
      "outputs": [],
      "stateMutability": "payable",
      "type": "function"
    }
  ],
  "bytecode": "0x60a06040523073ffffffffffffffffffffffffffffffffffffffff1660809073ffffffffffffffffffffffffffffffffffffffff1681525034801561004357600080fd5b5061005261005760201b60201c565b6101c1565b600061006761015b60201b60201c565b90508060000160089054906101000a900460ff16156100b2576040517ff92ee8a900000000000000000000000000000000000000000000000000000000815260040160405180910390fd5b67ffffffffffffffff80168160000160009054906101000a900467ffffffffffffffff1667ffffffffffffffff16146101585767ffffffffffffffff8160000160006101000a81548167ffffffffffffffff021916908367ffffffffffffffff1602179055507fc7f505b2f371ae2175ee4913f4499e1f2633a7b5936321eed1cdaeb6115181d267ffffffffffffffff60405161014f91906101a6565b60405180910390a15b50565b60007ff0c57e16840df040f15088dc2f81fe391c3923bec73e23a9662efc9c229c6a00905090565b600067ffffffffffffffff82169050919050565b6101a081610183565b82525050565b60006020820190506101bb6000830184610197565b92915050565b6080516167e56101ea600039600081816122080152818161225d015261243b01526167e56000f3fe6080604052600436106102675760003560e01c806370a0823111610144578063ad3cb1cc116100b6578063d53913931161007a578063d539139314610983578063d547741f146109ae578063e63ab1e9146109d7578063e985e9c514610a02578063f72c0d8b14610a3f578063f8c8765e14610a6a57610267565b8063ad3cb1cc146108a0578063b88d4fde146108cb578063c3cda520146108f4578063c87b56dd1461091d578063d204c45e1461095a57610267565b806391d148541161010857806391d148541461077c57806391ddadf4146107b957806395d89b41146107e45780639ab24eb01461080f578063a217fddf1461084c578063a22cb4651461087757610267565b806370a082311461067d5780637ecebe00146106ba5780638456cb59146106f757806384b0196e1461070e5780638e539e8c1461073f57610267565b80633f4ba83a116101dd5780634f6ccce7116101a15780634f6ccce71461054757806352d1902d14610584578063587cde1e146105af5780635c19a95c146105ec5780635c975abb146106155780636352211e1461064057610267565b80633f4ba83a1461049757806342842e0e146104ae57806342966c68146104d75780634bf5d7e9146105005780634f1ef2861461052b57610267565b806323b872dd1161022f57806323b872dd14610365578063248a9ca31461038e5780632f2ff15d146103cb5780632f745c59146103f457806336568abe146104315780633a46b1a81461045a57610267565b806301ffc9a71461026c57806306fdde03146102a9578063081812fc146102d4578063095ea7b31461031157806318160ddd1461033a575b600080fd5b34801561027857600080fd5b50610293600480360381019061028e91906152ac565b610a93565b6040516102a091906152f4565b60405180910390f35b3480156102b557600080fd5b506102be610aa5565b6040516102cb919061539f565b60405180910390f35b3480156102e057600080fd5b506102fb60048036038101906102f691906153f7565b610b46565b6040516103089190615465565b60405180910390f35b34801561031d57600080fd5b50610338600480360381019061033391906154ac565b610b62565b005b34801561034657600080fd5b5061034f610b78565b60405161035c91906154fb565b60405180910390f35b34801561037157600080fd5b5061038c60048036038101906103879190615516565b610b93565b005b34801561039a57600080fd5b506103b560048036038101906103b0919061559f565b610c95565b6040516103c291906155db565b60405180910390f35b3480156103d757600080fd5b506103f260048036038101906103ed91906155f6565b610cc3565b005b34801561040057600080fd5b5061041b600480360381019061041691906154ac565b610ce5565b60405161042891906154fb565b60405180910390f35b34801561043d57600080fd5b50610458600480360381019061045391906155f6565b610d9c565b005b34801561046657600080fd5b50610481600480360381019061047c91906154ac565b610e17565b60405161048e91906154fb565b60405180910390f35b3480156104a357600080fd5b506104ac610eff565b005b3480156104ba57600080fd5b506104d560048036038101906104d09190615516565b610f34565b005b3480156104e357600080fd5b506104fe60048036038101906104f991906153f7565b610f54565b005b34801561050c57600080fd5b50610515610f6b565b604051610522919061539f565b60405180910390f35b6105456004803603810190610540919061576b565b610fa8565b005b34801561055357600080fd5b5061056e600480360381019061056991906153f7565b610fc7565b60405161057b91906154fb565b60405180910390f35b34801561059057600080fd5b5061059961104b565b6040516105a691906155db565b60405180910390f35b3480156105bb57600080fd5b506105d660048036038101906105d191906157c7565b61107e565b6040516105e39190615465565b60405180910390f35b3480156105f857600080fd5b50610613600480360381019061060e91906157c7565b6110f5565b005b34801561062157600080fd5b5061062a61110f565b60405161063791906152f4565b60405180910390f35b34801561064c57600080fd5b50610667600480360381019061066291906153f7565b611134565b6040516106749190615465565b60405180910390f35b34801561068957600080fd5b506106a4600480360381019061069f91906157c7565b611146565b6040516106b191906154fb565b60405180910390f35b3480156106c657600080fd5b506106e160048036038101906106dc91906157c7565b61120f565b6040516106ee91906154fb565b60405180910390f35b34801561070357600080fd5b5061070c611266565b005b34801561071a57600080fd5b5061072361129b565b60405161073697969594939291906158ed565b60405180910390f35b34801561074b57600080fd5b50610766600480360381019061076191906153f7565b6113ad565b60405161077391906154fb565b60405180910390f35b34801561078857600080fd5b506107a3600480360381019061079e91906155f6565b611457565b6040516107b091906152f4565b60405180910390f35b3480156107c557600080fd5b506107ce6114d0565b6040516107db9190615992565b60405180910390f35b3480156107f057600080fd5b506107f96114d8565b604051610806919061539f565b60405180910390f35b34801561081b57600080fd5b50610836600480360381019061083191906157c7565b611579565b60405161084391906154fb565b60405180910390f35b34801561085857600080fd5b506108616115f3565b60405161086e91906155db565b60405180910390f35b34801561088357600080fd5b5061089e600480360381019061089991906159d9565b6115fa565b005b3480156108ac57600080fd5b506108b5611610565b6040516108c2919061539f565b60405180910390f35b3480156108d757600080fd5b506108f260048036038101906108ed9190615a19565b611649565b005b34801561090057600080fd5b5061091b60048036038101906109169190615ad5565b61166e565b005b34801561092957600080fd5b50610944600480360381019061093f91906153f7565b611734565b604051610951919061539f565b60405180910390f35b34801561096657600080fd5b50610981600480360381019061097c9190615c03565b611746565b005b34801561098f57600080fd5b506109986117a4565b6040516109a591906155db565b60405180910390f35b3480156109ba57600080fd5b506109d560048036038101906109d091906155f6565b6117c8565b005b3480156109e357600080fd5b506109ec6117ea565b6040516109f991906155db565b60405180910390f35b348015610a0e57600080fd5b50610a296004803603810190610a249190615c5f565b61180e565b604051610a3691906152f4565b60405180910390f35b348015610a4b57600080fd5b50610a546118b0565b604051610a6191906155db565b60405180910390f35b348015610a7657600080fd5b50610a916004803603810190610a8c9190615c9f565b6118d4565b005b6000610a9e82611c0c565b9050919050565b60606000610ab1611c86565b9050806000018054610ac290615d35565b80601f0160208091040260200160405190810160405280929190818152602001828054610aee90615d35565b8015610b3b5780601f10610b1057610100808354040283529160200191610b3b565b820191906000526020600020905b815481529060010190602001808311610b1e57829003601f168201915b505050505091505090565b6000610b5182611cae565b50610b5b82611d36565b9050919050565b610b748282610b6f611d81565b611d89565b5050565b600080610b83611d9b565b9050806002018054905091505090565b600073ffffffffffffffffffffffffffffffffffffffff168273ffffffffffffffffffffffffffffffffffffffff1603610c055760006040517f64a0ae92000000000000000000000000000000000000000000000000000000008152600401610bfc9190615465565b60405180910390fd5b6000610c198383610c14611d81565b611dc3565b90508373ffffffffffffffffffffffffffffffffffffffff168173ffffffffffffffffffffffffffffffffffffffff1614610c8f578382826040517f64283d7b000000000000000000000000000000000000000000000000000000008152600401610c8693929190615d66565b60405180910390fd5b50505050565b600080610ca0611dd9565b905080600001600084815260200190815260200160002060010154915050919050565b610ccc82610c95565b610cd581611e01565b610cdf8383611e15565b50505050565b600080610cf0611d9b565b9050610cfb84611146565b8310610d405783836040517fa57d13dc000000000000000000000000000000000000000000000000000000008152600401610d37929190615d9d565b60405180910390fd5b8060000160008573ffffffffffffffffffffffffffffffffffffffff1673ffffffffffffffffffffffffffffffffffffffff16815260200190815260200160002060008481526020019081526020016000205491505092915050565b610da4611d81565b73ffffffffffffffffffffffffffffffffffffffff168173ffffffffffffffffffffffffffffffffffffffff1614610e08576040517f6697b23200000000000000000000000000000000000000000000000000000000815260040160405180910390fd5b610e128282611f16565b505050565b600080610e22612018565b90506000610e2e6114d0565b90508065ffffffffffff168410610e7e5783816040517fecd3f81e000000000000000000000000000000000000000000000000000000008152600401610e75929190615dc6565b60405180910390fd5b610ed9610e8a85612040565b8360010160008873ffffffffffffffffffffffffffffffffffffffff1673ffffffffffffffffffffffffffffffffffffffff16815260200190815260200160002061209a90919063ffffffff16565b79ffffffffffffffffffffffffffffffffffffffffffffffffffff169250505092915050565b7f65d7a28e3265b37a6474929f336521b332c1681b933f6cb9f3376673440d862a610f2981611e01565b610f31612194565b50565b610f4f83838360405180602001604052806000815250611649565b505050565b610f67600082610f62611d81565b611dc3565b5050565b60606040518060400160405280600e81526020017f6d6f64653d74696d657374616d70000000000000000000000000000000000000815250905090565b610fb0612206565b610fb9826122ec565b610fc3828261231a565b5050565b600080610fd2611d9b565b9050610fdc610b78565b8310611022576000836040517fa57d13dc000000000000000000000000000000000000000000000000000000008152600401611019929190615d9d565b60405180910390fd5b80600201838154811061103857611037615def565b5b9060005260206000200154915050919050565b6000611055612439565b7f360894a13ba1a3210667c828492db98dca3e2076cc3735a920a3ca505d382bbc60001b905090565b600080611089612018565b90508060000160008473ffffffffffffffffffffffffffffffffffffffff1673ffffffffffffffffffffffffffffffffffffffff16815260200190815260200160002060009054906101000a900473ffffffffffffffffffffffffffffffffffffffff16915050919050565b60006110ff611d81565b905061110b81836124c0565b5050565b60008061111a6125e3565b90508060000160009054906101000a900460ff1691505090565b600061113f82611cae565b9050919050565b600080611151611c86565b9050600073ffffffffffffffffffffffffffffffffffffffff168373ffffffffffffffffffffffffffffffffffffffff16036111c55760006040517f89c62b640000000000000000000000000000000000000000000000000000000081526004016111bc9190615465565b60405180910390fd5b8060030160008473ffffffffffffffffffffffffffffffffffffffff1673ffffffffffffffffffffffffffffffffffffffff16815260200190815260200160002054915050919050565b60008061121a61260b565b90508060000160008473ffffffffffffffffffffffffffffffffffffffff1673ffffffffffffffffffffffffffffffffffffffff16815260200190815260200160002054915050919050565b7f65d7a28e3265b37a6474929f336521b332c1681b933f6cb9f3376673440d862a61129081611e01565b611298612633565b50565b60006060806000806000606060006112b16126a5565b90506000801b81600001541480156112cf57506000801b8160010154145b61130e576040517f08c379a000000000000000000000000000000000000000000000000000000000815260040161130590615e6a565b60405180910390fd5b6113166126cd565b61131e61276e565b46306000801b600067ffffffffffffffff81111561133f5761133e615640565b5b60405190808252806020026020018201604052801561136d5781602001602082028036833780820191505090505b507f0f0000000000000000000000000000000000000000000000000000000000000095949392919097509750975097509750975097505090919293949596565b6000806113b8612018565b905060006113c46114d0565b90508065ffffffffffff1684106114145783816040517fecd3f81e00000000000000000000000000000000000000000000000000000000815260040161140b929190615dc6565b60405180910390fd5b61143261142085612040565b8360020161209a90919063ffffffff16565b79ffffffffffffffffffffffffffffffffffffffffffffffffffff1692505050919050565b600080611462611dd9565b905080600001600085815260200190815260200160002060000160008473ffffffffffffffffffffffffffffffffffffffff1673ffffffffffffffffffffffffffffffffffffffff16815260200190815260200160002060009054906101000a900460ff1691505092915050565b600042905090565b606060006114e4611c86565b90508060010180546114f590615d35565b80601f016020809104026020016040519081016040528092919081815260200182805461152190615d35565b801561156e5780601f106115435761010080835404028352916020019161156e565b820191906000526020600020905b81548152906001019060200180831161155157829003601f168201915b505050505091505090565b600080611584612018565b90506115cf8160010160008573ffffffffffffffffffffffffffffffffffffffff1673ffffffffffffffffffffffffffffffffffffffff16815260200190815260200160002061280f565b79ffffffffffffffffffffffffffffffffffffffffffffffffffff16915050919050565b6000801b81565b61160c611605611d81565b8383612877565b5050565b6040518060400160405280600581526020017f352e302e3000000000000000000000000000000000000000000000000000000081525081565b611654848484610b93565b61166861165f611d81565b858585856129f5565b50505050565b834211156116b357836040517f4683af0e0000000000000000000000000000000000000000000000000000000081526004016116aa91906154fb565b60405180910390fd5b600061171561170d7fe48329057bfd03d55e49b547132e39cffd9c1820ad7b9d4c5307691425d15adf8989896040516020016116f29493929190615e8a565b60405160208183030381529060405280519060200120612ba6565b858585612bc0565b90506117218187612bf0565b61172b81886124c0565b50505050505050565b606061173f82612c48565b9050919050565b7f9f2df0fed2c77648de5860a4cc508cd0818c85b8b8a1ab4ceeef8d981c8956a661177081611e01565b600080600081548092919061178490615efe565b9190505590506117948482612d6c565b61179e8184612d8a565b50505050565b7f9f2df0fed2c77648de5860a4cc508cd0818c85b8b8a1ab4ceeef8d981c8956a681565b6117d182610c95565b6117da81611e01565b6117e48383611f16565b50505050565b7f65d7a28e3265b37a6474929f336521b332c1681b933f6cb9f3376673440d862a81565b600080611819611c86565b90508060050160008573ffffffffffffffffffffffffffffffffffffffff1673ffffffffffffffffffffffffffffffffffffffff16815260200190815260200160002060008473ffffffffffffffffffffffffffffffffffffffff1673ffffffffffffffffffffffffffffffffffffffff16815260200190815260200160002060009054906101000a900460ff1691505092915050565b7f189ab7a9244df0848122154315af71fe140f3db0fe014031783b0946b8c9d2e381565b60006118de612df5565b905060008160000160089054906101000a900460ff1615905060008260000160009054906101000a900467ffffffffffffffff1690506000808267ffffffffffffffff1614801561192c5750825b9050600060018367ffffffffffffffff16148015611961575060003073ffffffffffffffffffffffffffffffffffffffff163b145b90508115801561196f575080155b156119a6576040517ff92ee8a900000000000000000000000000000000000000000000000000000000815260040160405180910390fd5b60018560000160006101000a81548167ffffffffffffffff021916908367ffffffffffffffff16021790555083156119f65760018560000160086101000a81548160ff0219169083151502179055505b611a6a6040518060400160405280600e81526020017f537465766543617265546f6b656e0000000000000000000000000000000000008152506040518060400160405280600a81526020017f5354455645432d544f4b00000000000000000000000000000000000000000000815250612e1d565b611a72612e33565b611a7a612e3d565b611a82612e47565b611a8a612e59565b611a92612e63565b611b066040518060400160405280600e81526020017f537465766543617265546f6b656e0000000000000000000000000000000000008152506040518060400160405280600181526020017f3100000000000000000000000000000000000000000000000000000000000000815250612e6d565b611b0e612e83565b611b16612e8d565b611b236000801b8a611e15565b50611b4e7f65d7a28e3265b37a6474929f336521b332c1681b933f6cb9f3376673440d862a89611e15565b50611b797f9f2df0fed2c77648de5860a4cc508cd0818c85b8b8a1ab4ceeef8d981c8956a688611e15565b50611ba47f189ab7a9244df0848122154315af71fe140f3db0fe014031783b0946b8c9d2e387611e15565b508315611c015760008560000160086101000a81548160ff0219169083151502179055507fc7f505b2f371ae2175ee4913f4499e1f2633a7b5936321eed1cdaeb6115181d26001604051611bf89190615f9f565b60405180910390a15b505050505050505050565b60007f7965db0b000000000000000000000000000000000000000000000000000000007bffffffffffffffffffffffffffffffffffffffffffffffffffffffff1916827bffffffffffffffffffffffffffffffffffffffffffffffffffffffff19161480611c7f5750611c7e82612e97565b5b9050919050565b60007f80bb2b638cc20bc4d0a60d66940f3ab4a00c1d7b313497ca82fb0b4ab0079300905090565b600080611cba83612ef8565b9050600073ffffffffffffffffffffffffffffffffffffffff168173ffffffffffffffffffffffffffffffffffffffff1603611d2d57826040517f7e273289000000000000000000000000000000000000000000000000000000008152600401611d2491906154fb565b60405180910390fd5b80915050919050565b600080611d41611c86565b905080600401600084815260200190815260200160002060009054906101000a900473ffffffffffffffffffffffffffffffffffffffff16915050919050565b600033905090565b611d968383836001612f43565b505050565b60007f645e039705490088daad89bae25049a34f4a9072d398537b1ab2425f24cbed00905090565b6000611dd0848484613117565b90509392505050565b60007f02dd7bc7dec4dceedda775e58dd541e08a116c6c53815c0bd028192f7b626800905090565b611e1281611e0d611d81565b61313e565b50565b600080611e20611dd9565b9050611e2c8484611457565b611f0a57600181600001600086815260200190815260200160002060000160008573ffffffffffffffffffffffffffffffffffffffff1673ffffffffffffffffffffffffffffffffffffffff16815260200190815260200160002060006101000a81548160ff021916908315150217905550611ea6611d81565b73ffffffffffffffffffffffffffffffffffffffff168373ffffffffffffffffffffffffffffffffffffffff16857f2f8788117e7eff1d82e926ec794901d17c78024a50270940304540a733656f0d60405160405180910390a46001915050611f10565b60009150505b92915050565b600080611f21611dd9565b9050611f2d8484611457565b1561200c57600081600001600086815260200190815260200160002060000160008573ffffffffffffffffffffffffffffffffffffffff1673ffffffffffffffffffffffffffffffffffffffff16815260200190815260200160002060006101000a81548160ff021916908315150217905550611fa8611d81565b73ffffffffffffffffffffffffffffffffffffffff168373ffffffffffffffffffffffffffffffffffffffff16857ff6391f5c32d9c69d2a47ea670b442974b53935d1edc7fd64eb21e047a839171b60405160405180910390a46001915050612012565b60009150505b92915050565b60007fe8b26c30fad74198956032a3533d903385d56dd795af560196f9c78d4af40d00905090565b600065ffffffffffff8016821115612092576030826040517f6dfcc650000000000000000000000000000000000000000000000000000000008152600401612089929190615ff5565b60405180910390fd5b819050919050565b6000808360000180549050905060008082905060058311156121225760006120c18461318f565b846120cc919061601e565b90506120db876000018261332c565b60000160009054906101000a900465ffffffffffff1665ffffffffffff168665ffffffffffff16101561211057809150612120565b60018161211d9190616052565b92505b505b600061213387600001878585613341565b9050600081146121855761215687600001600183612151919061601e565b61332c565b60000160069054906101000a900479ffffffffffffffffffffffffffffffffffffffffffffffffffff16612188565b60005b94505050505092915050565b61219c6133ba565b60006121a66125e3565b905060008160000160006101000a81548160ff0219169083151502179055507f5db9ee0a495bf2e6ff9c91a7834c1ba4fdd244a5e8aa4e537bd38aeae4b073aa6121ee611d81565b6040516121fb9190615465565b60405180910390a150565b7f000000000000000000000000000000000000000000000000000000000000000073ffffffffffffffffffffffffffffffffffffffff163073ffffffffffffffffffffffffffffffffffffffff1614806122b357507f000000000000000000000000000000000000000000000000000000000000000073ffffffffffffffffffffffffffffffffffffffff1661229a6133fa565b73ffffffffffffffffffffffffffffffffffffffff1614155b156122ea576040517fe07c8dba00000000000000000000000000000000000000000000000000000000815260040160405180910390fd5b565b7f189ab7a9244df0848122154315af71fe140f3db0fe014031783b0946b8c9d2e361231681611e01565b5050565b8173ffffffffffffffffffffffffffffffffffffffff166352d1902d6040518163ffffffff1660e01b8152600401602060405180830381865afa92505050801561238257506040513d601f19601f8201168201806040525081019061237f919061609b565b60015b6123c357816040517f4c9c8ce30000000000000000000000000000000000000000000000000000000081526004016123ba9190615465565b60405180910390fd5b7f360894a13ba1a3210667c828492db98dca3e2076cc3735a920a3ca505d382bbc60001b811461242a57806040517faa1d49a400000000000000000000000000000000000000000000000000000000815260040161242191906155db565b60405180910390fd5b6124348383613451565b505050565b7f000000000000000000000000000000000000000000000000000000000000000073ffffffffffffffffffffffffffffffffffffffff163073ffffffffffffffffffffffffffffffffffffffff16146124be576040517fe07c8dba00000000000000000000000000000000000000000000000000000000815260040160405180910390fd5b565b60006124ca612018565b905060006124d78461107e565b9050828260000160008673ffffffffffffffffffffffffffffffffffffffff1673ffffffffffffffffffffffffffffffffffffffff16815260200190815260200160002060006101000a81548173ffffffffffffffffffffffffffffffffffffffff021916908373ffffffffffffffffffffffffffffffffffffffff1602179055508273ffffffffffffffffffffffffffffffffffffffff168173ffffffffffffffffffffffffffffffffffffffff168573ffffffffffffffffffffffffffffffffffffffff167f3134e8a2e6d97e929a7e54011ea5485d7d196dd5f0ba4d4ef95803e8e3fc257f60405160405180910390a46125dd81846125d8876134c4565b6134d6565b50505050565b60007fcd5ed15c6e187e77e9aee88184c21f4f2182ab5827cb3b7e07fbedcd63f03300905090565b60007f5ab42ced628888259c08ac98db1eb0cf702fc1501344311d8b100cd1bfe4bb00905090565b61263b613760565b60006126456125e3565b905060018160000160006101000a81548160ff0219169083151502179055507f62e78cea01bee320cd4e420270b5ea74000d11b0c9f74754ebdbfc544b05a25861268d611d81565b60405161269a9190615465565b60405180910390a150565b60007fa16a46d94261c7517cc8ff89f61c0ce93598e3c849801011dee649a6a557d100905090565b606060006126d96126a5565b90508060020180546126ea90615d35565b80601f016020809104026020016040519081016040528092919081815260200182805461271690615d35565b80156127635780601f1061273857610100808354040283529160200191612763565b820191906000526020600020905b81548152906001019060200180831161274657829003601f168201915b505050505091505090565b6060600061277a6126a5565b905080600301805461278b90615d35565b80601f01602080910402602001604051908101604052809291908181526020018280546127b790615d35565b80156128045780601f106127d957610100808354040283529160200191612804565b820191906000526020600020905b8154815290600101906020018083116127e757829003601f168201915b505050505091505090565b600080826000018054905090506000811461286c5761283d83600001600183612838919061601e565b61332c565b60000160069054906101000a900479ffffffffffffffffffffffffffffffffffffffffffffffffffff1661286f565b60005b915050919050565b6000612881611c86565b9050600073ffffffffffffffffffffffffffffffffffffffff168373ffffffffffffffffffffffffffffffffffffffff16036128f457826040517f5b08ba180000000000000000000000000000000000000000000000000000000081526004016128eb9190615465565b60405180910390fd5b818160050160008673ffffffffffffffffffffffffffffffffffffffff1673ffffffffffffffffffffffffffffffffffffffff16815260200190815260200160002060008573ffffffffffffffffffffffffffffffffffffffff1673ffffffffffffffffffffffffffffffffffffffff16815260200190815260200160002060006101000a81548160ff0219169083151502179055508273ffffffffffffffffffffffffffffffffffffffff168473ffffffffffffffffffffffffffffffffffffffff167f17307eab39ab6107e8899845ad3d59bd9653f200f220920489ca2b5937696c31846040516129e791906152f4565b60405180910390a350505050565b60008373ffffffffffffffffffffffffffffffffffffffff163b1115612b9f578273ffffffffffffffffffffffffffffffffffffffff1663150b7a02868685856040518563ffffffff1660e01b8152600401612a54949392919061611d565b6020604051808303816000875af1925050508015612a9057506040513d601f19601f82011682018060405250810190612a8d919061617e565b60015b612b14573d8060008114612ac0576040519150601f19603f3d011682016040523d82523d6000602084013e612ac5565b606091505b506000815103612b0c57836040517f64a0ae92000000000000000000000000000000000000000000000000000000008152600401612b039190615465565b60405180910390fd5b805181602001fd5b63150b7a0260e01b7bffffffffffffffffffffffffffffffffffffffffffffffffffffffff1916817bffffffffffffffffffffffffffffffffffffffffffffffffffffffff191614612b9d57836040517f64a0ae92000000000000000000000000000000000000000000000000000000008152600401612b949190615465565b60405180910390fd5b505b5050505050565b6000612bb9612bb36137a1565b836137b0565b9050919050565b600080600080612bd2888888886137f1565b925092509250612be282826138e5565b829350505050949350505050565b6000612bfb83613a49565b9050808214612c435782816040517f752d88c0000000000000000000000000000000000000000000000000000000008152600401612c3a929190615d9d565b60405180910390fd5b505050565b60606000612c54613aae565b9050612c5f83611cae565b5060008160000160008581526020019081526020016000208054612c8290615d35565b80601f0160208091040260200160405190810160405280929190818152602001828054612cae90615d35565b8015612cfb5780601f10612cd057610100808354040283529160200191612cfb565b820191906000526020600020905b815481529060010190602001808311612cde57829003601f168201915b505050505090506000612d0c613ad6565b90506000815103612d2257819350505050612d67565b600082511115612d58578082604051602001612d3f9291906161e7565b6040516020818303038152906040529350505050612d67565b612d6185613b13565b93505050505b919050565b612d86828260405180602001604052806000815250613b7c565b5050565b6000612d94613aae565b9050818160000160008581526020019081526020016000209081612db891906163ad565b507ff8e1a15aba9398e019f0b49df1a4fde98ee17ae345cb5f6b5e2c27f5033e8ce783604051612de891906154fb565b60405180910390a1505050565b60007ff0c57e16840df040f15088dc2f81fe391c3923bec73e23a9662efc9c229c6a00905090565b612e25613ba0565b612e2f8282613be0565b5050565b612e3b613ba0565b565b612e45613ba0565b565b612e4f613ba0565b612e57613c1d565b565b612e61613ba0565b565b612e6b613ba0565b565b612e75613ba0565b612e7f8282613c51565b5050565b612e8b613ba0565b565b612e95613ba0565b565b6000634906490660e01b7bffffffffffffffffffffffffffffffffffffffffffffffffffffffff1916827bffffffffffffffffffffffffffffffffffffffffffffffffffffffff19161480612ef15750612ef082613ca6565b5b9050919050565b600080612f03611c86565b905080600201600084815260200190815260200160002060009054906101000a900473ffffffffffffffffffffffffffffffffffffffff16915050919050565b6000612f4d611c86565b90508180612f885750600073ffffffffffffffffffffffffffffffffffffffff168373ffffffffffffffffffffffffffffffffffffffff1614155b156130bc576000612f9885611cae565b9050600073ffffffffffffffffffffffffffffffffffffffff168473ffffffffffffffffffffffffffffffffffffffff161415801561300357508373ffffffffffffffffffffffffffffffffffffffff168173ffffffffffffffffffffffffffffffffffffffff1614155b80156130165750613014818561180e565b155b1561305857836040517fa9fbf51f00000000000000000000000000000000000000000000000000000000815260040161304f9190615465565b60405180910390fd5b82156130ba57848673ffffffffffffffffffffffffffffffffffffffff168273ffffffffffffffffffffffffffffffffffffffff167f8c5be1e5ebec7d5bd14f71427d1e84f3dd0314c0f7b2291e5b200ac8c7c3b92560405160405180910390a45b505b8481600401600086815260200190815260200160002060006101000a81548173ffffffffffffffffffffffffffffffffffffffff021916908373ffffffffffffffffffffffffffffffffffffffff1602179055505050505050565b600080613125858585613d20565b905061313381866001613d3e565b809150509392505050565b6131488282611457565b61318b5780826040517fe2517d3f00000000000000000000000000000000000000000000000000000000815260040161318292919061647f565b60405180910390fd5b5050565b6000600182116131a157819050613327565b600082905060006001905070010000000000000000000000000000000082106131d357608082901c9150604081901b90505b6801000000000000000082106131f257604082901c9150602081901b90505b640100000000821061320d57602082901c9150601081901b90505b62010000821061322657601082901c9150600881901b90505b610100821061323e57600882901c9150600481901b90505b6010821061325557600482901c9150600281901b90505b6004821061326557600181901b90505b600181600302901c90506001818581613281576132806164a8565b5b048201901c9050600181858161329a576132996164a8565b5b048201901c905060018185816132b3576132b26164a8565b5b048201901c905060018185816132cc576132cb6164a8565b5b048201901c905060018185816132e5576132e46164a8565b5b048201901c905060018185816132fe576132fd6164a8565b5b048201901c9050613320818581613318576133176164a8565b5b048211613e09565b8103925050505b919050565b60008260005281602060002001905092915050565b60005b818310156133af5760006133588484613e15565b90508465ffffffffffff1661336d878361332c565b60000160009054906101000a900465ffffffffffff1665ffffffffffff161115613399578092506133a9565b6001816133a69190616052565b93505b50613344565b819050949350505050565b6133c261110f565b6133f8576040517f8dfc202b00000000000000000000000000000000000000000000000000000000815260040160405180910390fd5b565b60006134287f360894a13ba1a3210667c828492db98dca3e2076cc3735a920a3ca505d382bbc60001b613e3b565b60000160009054906101000a900473ffffffffffffffffffffffffffffffffffffffff16905090565b61345a82613e45565b8173ffffffffffffffffffffffffffffffffffffffff167fbc7cd75a20ee27fd9adebab32041f755214dbc6bffa90cc0225b39da2e5c2d3b60405160405180910390a26000815111156134b7576134b18282613f12565b506134c0565b6134bf613f96565b5b5050565b60006134cf82611146565b9050919050565b60006134e0612018565b90508273ffffffffffffffffffffffffffffffffffffffff168473ffffffffffffffffffffffffffffffffffffffff161415801561351e5750600082115b1561375a57600073ffffffffffffffffffffffffffffffffffffffff168473ffffffffffffffffffffffffffffffffffffffff161461363e576000806135af8360010160008873ffffffffffffffffffffffffffffffffffffffff1673ffffffffffffffffffffffffffffffffffffffff168152602001908152602001600020613fd36135aa87613fe9565b614057565b79ffffffffffffffffffffffffffffffffffffffffffffffffffff16915079ffffffffffffffffffffffffffffffffffffffffffffffffffff1691508573ffffffffffffffffffffffffffffffffffffffff167fdec2bacdd2f05b59de34da9b523dff8be42e5e38e818c82fdb0bae774387a72483836040516136339291906164d7565b60405180910390a250505b600073ffffffffffffffffffffffffffffffffffffffff168373ffffffffffffffffffffffffffffffffffffffff1614613759576000806136ca8360010160008773ffffffffffffffffffffffffffffffffffffffff1673ffffffffffffffffffffffffffffffffffffffff1681526020019081526020016000206140976136c587613fe9565b614057565b79ffffffffffffffffffffffffffffffffffffffffffffffffffff16915079ffffffffffffffffffffffffffffffffffffffffffffffffffff1691508473ffffffffffffffffffffffffffffffffffffffff167fdec2bacdd2f05b59de34da9b523dff8be42e5e38e818c82fdb0bae774387a724838360405161374e9291906164d7565b60405180910390a250505b5b50505050565b61376861110f565b1561379f576040517fd93c066500000000000000000000000000000000000000000000000000000000815260040160405180910390fd5b565b60006137ab6140ad565b905090565b60006040517f190100000000000000000000000000000000000000000000000000000000000081528360028201528260228201526042812091505092915050565b60008060007f7fffffffffffffffffffffffffffffff5d576e7357a4501ddfe92f46681b20a08460001c11156138315760006003859250925092506138db565b600060018888888860405160008152602001604052604051613856949392919061650f565b6020604051602081039080840390855afa158015613878573d6000803e3d6000fd5b505050602060405103519050600073ffffffffffffffffffffffffffffffffffffffff168173ffffffffffffffffffffffffffffffffffffffff16036138cc57600060016000801b935093509350506138db565b8060008060001b935093509350505b9450945094915050565b600060038111156138f9576138f8616554565b5b82600381111561390c5761390b616554565b5b0315613a45576001600381111561392657613925616554565b5b82600381111561393957613938616554565b5b03613970576040517ff645eedf00000000000000000000000000000000000000000000000000000000815260040160405180910390fd5b6002600381111561398457613983616554565b5b82600381111561399757613996616554565b5b036139dc578060001c6040517ffce698f70000000000000000000000000000000000000000000000000000000081526004016139d391906154fb565b60405180910390fd5b6003808111156139ef576139ee616554565b5b826003811115613a0257613a01616554565b5b03613a4457806040517fd78bce0c000000000000000000000000000000000000000000000000000000008152600401613a3b91906155db565b60405180910390fd5b5b5050565b600080613a5461260b565b90508060000160008473ffffffffffffffffffffffffffffffffffffffff1673ffffffffffffffffffffffffffffffffffffffff168152602001908152602001600020600081548092919060010191905055915050919050565b60007f0542a41881ee128a365a727b282c86fa859579490b9bb45aab8503648c8e7900905090565b60606040518060400160405280602081526020017f68747470733a2f2f796f75725f626173655f75726c2e636f6d2f746f6b656e73815250905090565b6060613b1e82611cae565b506000613b29613ad6565b90506000815111613b495760405180602001604052806000815250613b74565b80613b5384614111565b604051602001613b649291906161e7565b6040516020818303038152906040525b915050919050565b613b8683836141df565b613b9b613b91611d81565b60008585856129f5565b505050565b613ba86142d8565b613bde576040517fd7e6bcf800000000000000000000000000000000000000000000000000000000815260040160405180910390fd5b565b613be8613ba0565b6000613bf2611c86565b905082816000019081613c0591906163ad565b5081816001019081613c1791906163ad565b50505050565b613c25613ba0565b6000613c2f6125e3565b905060008160000160006101000a81548160ff02191690831515021790555050565b613c59613ba0565b6000613c636126a5565b905082816002019081613c7691906163ad565b5081816003019081613c8891906163ad565b506000801b81600001819055506000801b8160010181905550505050565b60007f780e9d63000000000000000000000000000000000000000000000000000000007bffffffffffffffffffffffffffffffffffffffffffffffffffffffff1916827bffffffffffffffffffffffffffffffffffffffffffffffffffffffff19161480613d195750613d18826142f8565b5b9050919050565b6000613d2a613760565b613d358484846143da565b90509392505050565b6000613d48612018565b9050600073ffffffffffffffffffffffffffffffffffffffff168473ffffffffffffffffffffffffffffffffffffffff1603613d9957613d9681600201614097613d9185613fe9565b614057565b50505b600073ffffffffffffffffffffffffffffffffffffffff168373ffffffffffffffffffffffffffffffffffffffff1603613de857613de581600201613fd3613de085613fe9565b614057565b50505b613e03613df48561107e565b613dfd8561107e565b846134d6565b50505050565b60008115159050919050565b60006002828418613e269190616583565b828416613e339190616052565b905092915050565b6000819050919050565b60008173ffffffffffffffffffffffffffffffffffffffff163b03613ea157806040517f4c9c8ce3000000000000000000000000000000000000000000000000000000008152600401613e989190615465565b60405180910390fd5b80613ece7f360894a13ba1a3210667c828492db98dca3e2076cc3735a920a3ca505d382bbc60001b613e3b565b60000160006101000a81548173ffffffffffffffffffffffffffffffffffffffff021916908373ffffffffffffffffffffffffffffffffffffffff16021790555050565b60606000808473ffffffffffffffffffffffffffffffffffffffff1684604051613f3c91906165f0565b600060405180830381855af49150503d8060008114613f77576040519150601f19603f3d011682016040523d82523d6000602084013e613f7c565b606091505b5091509150613f8c8583836144f7565b9250505092915050565b6000341115613fd1576040517fb398979f00000000000000000000000000000000000000000000000000000000815260040160405180910390fd5b565b60008183613fe1919061662d565b905092915050565b600079ffffffffffffffffffffffffffffffffffffffffffffffffffff801682111561404f5760d0826040517f6dfcc6500000000000000000000000000000000000000000000000000000000081526004016140469291906166b6565b60405180910390fd5b819050919050565b60008061408b6140656114d0565b61407b6140718861280f565b868863ffffffff16565b876145869092919063ffffffff16565b91509150935093915050565b600081836140a591906166df565b905092915050565b60007f8b73c3c69bb8fe3d512ecc4cf759cc79239f7b179b0ffacaa9a75d522b39400f6140d86145a3565b6140e061461f565b46306040516020016140f695949392919061672d565b60405160208183030381529060405280519060200120905090565b6060600060016141208461469b565b01905060008167ffffffffffffffff81111561413f5761413e615640565b5b6040519080825280601f01601f1916602001820160405280156141715781602001600182028036833780820191505090505b509050600082602001820190505b6001156141d4578080600190039150507f3031323334353637383961626364656600000000000000000000000000000000600a86061a8153600a85816141c8576141c76164a8565b5b0494506000850361417f575b819350505050919050565b600073ffffffffffffffffffffffffffffffffffffffff168273ffffffffffffffffffffffffffffffffffffffff16036142515760006040517f64a0ae920000000000000000000000000000000000000000000000000000000081526004016142489190615465565b60405180910390fd5b600061425f83836000611dc3565b9050600073ffffffffffffffffffffffffffffffffffffffff168173ffffffffffffffffffffffffffffffffffffffff16146142d35760006040517f73c6ac6e0000000000000000000000000000000000000000000000000000000081526004016142ca9190615465565b60405180910390fd5b505050565b60006142e2612df5565b60000160089054906101000a900460ff16905090565b60007f80ac58cd000000000000000000000000000000000000000000000000000000007bffffffffffffffffffffffffffffffffffffffffffffffffffffffff1916827bffffffffffffffffffffffffffffffffffffffffffffffffffffffff191614806143c357507f5b5e139f000000000000000000000000000000000000000000000000000000007bffffffffffffffffffffffffffffffffffffffffffffffffffffffff1916827bffffffffffffffffffffffffffffffffffffffffffffffffffffffff1916145b806143d357506143d2826147ee565b5b9050919050565b6000806143e8858585614858565b9050600073ffffffffffffffffffffffffffffffffffffffff168173ffffffffffffffffffffffffffffffffffffffff160361442c5761442784614a85565b61446b565b8473ffffffffffffffffffffffffffffffffffffffff168173ffffffffffffffffffffffffffffffffffffffff161461446a576144698185614ae1565b5b5b600073ffffffffffffffffffffffffffffffffffffffff168573ffffffffffffffffffffffffffffffffffffffff16036144ad576144a884614be1565b6144ec565b8473ffffffffffffffffffffffffffffffffffffffff168173ffffffffffffffffffffffffffffffffffffffff16146144eb576144ea8585614ccd565b5b5b809150509392505050565b60608261450c5761450782614d69565b61457e565b60008251148015614534575060008473ffffffffffffffffffffffffffffffffffffffff163b145b1561457657836040517f9996b31500000000000000000000000000000000000000000000000000000000815260040161456d9190615465565b60405180910390fd5b81905061457f565b5b9392505050565b600080614597856000018585614dae565b91509150935093915050565b6000806145ae6126a5565b905060006145ba6126cd565b90506000815111156145d75780805190602001209250505061461c565b6000826000015490506000801b81146145f55780935050505061461c565b7fc5d2460186f7233c927e7db2dcc703c0e500b653ca82273b7bfad8045d85a47093505050505b90565b60008061462a6126a5565b9050600061463661276e565b905060008151111561465357808051906020012092505050614698565b6000826001015490506000801b811461467157809350505050614698565b7fc5d2460186f7233c927e7db2dcc703c0e500b653ca82273b7bfad8045d85a47093505050505b90565b600080600090507a184f03e93ff9f4daa797ed6e38ed64bf6a1f01000000000000000083106146f9577a184f03e93ff9f4daa797ed6e38ed64bf6a1f01000000000000000083816146ef576146ee6164a8565b5b0492506040810190505b6d04ee2d6d415b85acef81000000008310614736576d04ee2d6d415b85acef8100000000838161472c5761472b6164a8565b5b0492506020810190505b662386f26fc10000831061476557662386f26fc10000838161475b5761475a6164a8565b5b0492506010810190505b6305f5e100831061478e576305f5e1008381614784576147836164a8565b5b0492506008810190505b61271083106147b35761271083816147a9576147a86164a8565b5b0492506004810190505b606483106147d657606483816147cc576147cb6164a8565b5b0492506002810190505b600a83106147e5576001810190505b80915050919050565b60007f01ffc9a7000000000000000000000000000000000000000000000000000000007bffffffffffffffffffffffffffffffffffffffffffffffffffffffff1916827bffffffffffffffffffffffffffffffffffffffffffffffffffffffff1916149050919050565b600080614863611c86565b9050600061487085612ef8565b9050600073ffffffffffffffffffffffffffffffffffffffff168473ffffffffffffffffffffffffffffffffffffffff16146148b2576148b18185876150bb565b5b600073ffffffffffffffffffffffffffffffffffffffff168173ffffffffffffffffffffffffffffffffffffffff1614614945576148f4600086600080612f43565b60018260030160008373ffffffffffffffffffffffffffffffffffffffff1673ffffffffffffffffffffffffffffffffffffffff168152602001908152602001600020600082825403925050819055505b600073ffffffffffffffffffffffffffffffffffffffff168673ffffffffffffffffffffffffffffffffffffffff16146149ca5760018260030160008873ffffffffffffffffffffffffffffffffffffffff1673ffffffffffffffffffffffffffffffffffffffff168152602001908152602001600020600082825401925050819055505b8582600201600087815260200190815260200160002060006101000a81548173ffffffffffffffffffffffffffffffffffffffff021916908373ffffffffffffffffffffffffffffffffffffffff160217905550848673ffffffffffffffffffffffffffffffffffffffff168273ffffffffffffffffffffffffffffffffffffffff167fddf252ad1be2c89b69c2b068fc378daa952ba7f163c4a11628f55a4df523b3ef60405160405180910390a480925050509392505050565b6000614a8f611d9b565b9050806002018054905081600301600084815260200190815260200160002081905550806002018290806001815401808255809150506001900390600052602060002001600090919091909150555050565b6000614aeb611d9b565b90506000614af884611146565b9050600082600101600085815260200190815260200160002054905060008360000160008773ffffffffffffffffffffffffffffffffffffffff1673ffffffffffffffffffffffffffffffffffffffff1681526020019081526020016000209050828214614baa57600081600085815260200190815260200160002054905080826000858152602001908152602001600020819055508285600101600083815260200190815260200160002081905550505b8360010160008681526020019081526020016000206000905580600084815260200190815260200160002060009055505050505050565b6000614beb611d9b565b9050600060018260020180549050614c03919061601e565b905060008260030160008581526020019081526020016000205490506000836002018381548110614c3757614c36615def565b5b9060005260206000200154905080846002018381548110614c5b57614c5a615def565b5b906000526020600020018190555081846003016000838152602001908152602001600020819055508360030160008681526020019081526020016000206000905583600201805480614cb057614caf616780565b5b600190038181906000526020600020016000905590555050505050565b6000614cd7611d9b565b905060006001614ce685611146565b614cf0919061601e565b9050828260000160008673ffffffffffffffffffffffffffffffffffffffff1673ffffffffffffffffffffffffffffffffffffffff168152602001908152602001600020600083815260200190815260200160002081905550808260010160008581526020019081526020016000208190555050505050565b600081511115614d7c5780518082602001fd5b6040517fd6bda27500000000000000000000000000000000000000000000000000000000815260040160405180910390fd5b6000806000858054905090506000811115614fcb576000614ddb87600184614dd6919061601e565b61332c565b905060008160000160009054906101000a900465ffffffffffff16905060008260000160069054906101000a900479ffffffffffffffffffffffffffffffffffffffffffffffffffff1690508765ffffffffffff168265ffffffffffff161115614e71576040517f2520601d00000000000000000000000000000000000000000000000000000000815260040160405180910390fd5b8765ffffffffffff168265ffffffffffff1603614edc57868360000160066101000a81548179ffffffffffffffffffffffffffffffffffffffffffffffffffff021916908379ffffffffffffffffffffffffffffffffffffffffffffffffffff160217905550614fbc565b8860405180604001604052808a65ffffffffffff1681526020018979ffffffffffffffffffffffffffffffffffffffffffffffffffff168152509080600181540180825580915050600190039060005260206000200160009091909190915060008201518160000160006101000a81548165ffffffffffff021916908365ffffffffffff16021790555060208201518160000160066101000a81548179ffffffffffffffffffffffffffffffffffffffffffffffffffff021916908379ffffffffffffffffffffffffffffffffffffffffffffffffffff16021790555050505b808795509550505050506150b3565b8560405180604001604052808765ffffffffffff1681526020018679ffffffffffffffffffffffffffffffffffffffffffffffffffff168152509080600181540180825580915050600190039060005260206000200160009091909190915060008201518160000160006101000a81548165ffffffffffff021916908365ffffffffffff16021790555060208201518160000160066101000a81548179ffffffffffffffffffffffffffffffffffffffffffffffffffff021916908379ffffffffffffffffffffffffffffffffffffffffffffffffffff160217905550505060008492509250505b935093915050565b6150c683838361517f565b61517a57600073ffffffffffffffffffffffffffffffffffffffff168373ffffffffffffffffffffffffffffffffffffffff160361513b57806040517f7e27328900000000000000000000000000000000000000000000000000000000815260040161513291906154fb565b60405180910390fd5b81816040517f177e802f000000000000000000000000000000000000000000000000000000008152600401615171929190615d9d565b60405180910390fd5b505050565b60008073ffffffffffffffffffffffffffffffffffffffff168373ffffffffffffffffffffffffffffffffffffffff161415801561523757508273ffffffffffffffffffffffffffffffffffffffff168473ffffffffffffffffffffffffffffffffffffffff1614806151f857506151f7848461180e565b5b8061523657508273ffffffffffffffffffffffffffffffffffffffff1661521e83611d36565b73ffffffffffffffffffffffffffffffffffffffff16145b5b90509392505050565b6000604051905090565b600080fd5b600080fd5b60007fffffffff0000000000000000000000000000000000000000000000000000000082169050919050565b61528981615254565b811461529457600080fd5b50565b6000813590506152a681615280565b92915050565b6000602082840312156152c2576152c161524a565b5b60006152d084828501615297565b91505092915050565b60008115159050919050565b6152ee816152d9565b82525050565b600060208201905061530960008301846152e5565b92915050565b600081519050919050565b600082825260208201905092915050565b60005b8381101561534957808201518184015260208101905061532e565b60008484015250505050565b6000601f19601f8301169050919050565b60006153718261530f565b61537b818561531a565b935061538b81856020860161532b565b61539481615355565b840191505092915050565b600060208201905081810360008301526153b98184615366565b905092915050565b6000819050919050565b6153d4816153c1565b81146153df57600080fd5b50565b6000813590506153f1816153cb565b92915050565b60006020828403121561540d5761540c61524a565b5b600061541b848285016153e2565b91505092915050565b600073ffffffffffffffffffffffffffffffffffffffff82169050919050565b600061544f82615424565b9050919050565b61545f81615444565b82525050565b600060208201905061547a6000830184615456565b92915050565b61548981615444565b811461549457600080fd5b50565b6000813590506154a681615480565b92915050565b600080604083850312156154c3576154c261524a565b5b60006154d185828601615497565b92505060206154e2858286016153e2565b9150509250929050565b6154f5816153c1565b82525050565b600060208201905061551060008301846154ec565b92915050565b60008060006060848603121561552f5761552e61524a565b5b600061553d86828701615497565b935050602061554e86828701615497565b925050604061555f868287016153e2565b9150509250925092565b6000819050919050565b61557c81615569565b811461558757600080fd5b50565b60008135905061559981615573565b92915050565b6000602082840312156155b5576155b461524a565b5b60006155c38482850161558a565b91505092915050565b6155d581615569565b82525050565b60006020820190506155f060008301846155cc565b92915050565b6000806040838503121561560d5761560c61524a565b5b600061561b8582860161558a565b925050602061562c85828601615497565b9150509250929050565b600080fd5b600080fd5b7f4e487b7100000000000000000000000000000000000000000000000000000000600052604160045260246000fd5b61567882615355565b810181811067ffffffffffffffff8211171561569757615696615640565b5b80604052505050565b60006156aa615240565b90506156b6828261566f565b919050565b600067ffffffffffffffff8211156156d6576156d5615640565b5b6156df82615355565b9050602081019050919050565b82818337600083830152505050565b600061570e615709846156bb565b6156a0565b90508281526020810184848401111561572a5761572961563b565b5b6157358482856156ec565b509392505050565b600082601f83011261575257615751615636565b5b81356157628482602086016156fb565b91505092915050565b600080604083850312156157825761578161524a565b5b600061579085828601615497565b925050602083013567ffffffffffffffff8111156157b1576157b061524f565b5b6157bd8582860161573d565b9150509250929050565b6000602082840312156157dd576157dc61524a565b5b60006157eb84828501615497565b91505092915050565b60007fff0000000000000000000000000000000000000000000000000000000000000082169050919050565b615829816157f4565b82525050565b600081519050919050565b600082825260208201905092915050565b6000819050602082019050919050565b615864816153c1565b82525050565b6000615876838361585b565b60208301905092915050565b6000602082019050919050565b600061589a8261582f565b6158a4818561583a565b93506158af8361584b565b8060005b838110156158e05781516158c7888261586a565b97506158d283615882565b9250506001810190506158b3565b5085935050505092915050565b600060e082019050615902600083018a615820565b81810360208301526159148189615366565b905081810360408301526159288188615366565b905061593760608301876154ec565b6159446080830186615456565b61595160a08301856155cc565b81810360c0830152615963818461588f565b905098975050505050505050565b600065ffffffffffff82169050919050565b61598c81615971565b82525050565b60006020820190506159a76000830184615983565b92915050565b6159b6816152d9565b81146159c157600080fd5b50565b6000813590506159d3816159ad565b92915050565b600080604083850312156159f0576159ef61524a565b5b60006159fe85828601615497565b9250506020615a0f858286016159c4565b9150509250929050565b60008060008060808587031215615a3357615a3261524a565b5b6000615a4187828801615497565b9450506020615a5287828801615497565b9350506040615a63878288016153e2565b925050606085013567ffffffffffffffff811115615a8457615a8361524f565b5b615a908782880161573d565b91505092959194509250565b600060ff82169050919050565b615ab281615a9c565b8114615abd57600080fd5b50565b600081359050615acf81615aa9565b92915050565b60008060008060008060c08789031215615af257615af161524a565b5b6000615b0089828a01615497565b9650506020615b1189828a016153e2565b9550506040615b2289828a016153e2565b9450506060615b3389828a01615ac0565b9350506080615b4489828a0161558a565b92505060a0615b5589828a0161558a565b9150509295509295509295565b600067ffffffffffffffff821115615b7d57615b7c615640565b5b615b8682615355565b9050602081019050919050565b6000615ba6615ba184615b62565b6156a0565b905082815260208101848484011115615bc257615bc161563b565b5b615bcd8482856156ec565b509392505050565b600082601f830112615bea57615be9615636565b5b8135615bfa848260208601615b93565b91505092915050565b60008060408385031215615c1a57615c1961524a565b5b6000615c2885828601615497565b925050602083013567ffffffffffffffff811115615c4957615c4861524f565b5b615c5585828601615bd5565b9150509250929050565b60008060408385031215615c7657615c7561524a565b5b6000615c8485828601615497565b9250506020615c9585828601615497565b9150509250929050565b60008060008060808587031215615cb957615cb861524a565b5b6000615cc787828801615497565b9450506020615cd887828801615497565b9350506040615ce987828801615497565b9250506060615cfa87828801615497565b91505092959194509250565b7f4e487b7100000000000000000000000000000000000000000000000000000000600052602260045260246000fd5b60006002820490506001821680615d4d57607f821691505b602082108103615d6057615d5f615d06565b5b50919050565b6000606082019050615d7b6000830186615456565b615d8860208301856154ec565b615d956040830184615456565b949350505050565b6000604082019050615db26000830185615456565b615dbf60208301846154ec565b9392505050565b6000604082019050615ddb60008301856154ec565b615de86020830184615983565b9392505050565b7f4e487b7100000000000000000000000000000000000000000000000000000000600052603260045260246000fd5b7f4549503731323a20556e696e697469616c697a65640000000000000000000000600082015250565b6000615e5460158361531a565b9150615e5f82615e1e565b602082019050919050565b60006020820190508181036000830152615e8381615e47565b9050919050565b6000608082019050615e9f60008301876155cc565b615eac6020830186615456565b615eb960408301856154ec565b615ec660608301846154ec565b95945050505050565b7f4e487b7100000000000000000000000000000000000000000000000000000000600052601160045260246000fd5b6000615f09826153c1565b91507fffffffffffffffffffffffffffffffffffffffffffffffffffffffffffffffff8203615f3b57615f3a615ecf565b5b600182019050919050565b6000819050919050565b600067ffffffffffffffff82169050919050565b6000819050919050565b6000615f89615f84615f7f84615f46565b615f64565b615f50565b9050919050565b615f9981615f6e565b82525050565b6000602082019050615fb46000830184615f90565b92915050565b6000819050919050565b6000615fdf615fda615fd584615fba565b615f64565b615a9c565b9050919050565b615fef81615fc4565b82525050565b600060408201905061600a6000830185615fe6565b61601760208301846154ec565b9392505050565b6000616029826153c1565b9150616034836153c1565b925082820390508181111561604c5761604b615ecf565b5b92915050565b600061605d826153c1565b9150616068836153c1565b92508282019050808211156160805761607f615ecf565b5b92915050565b60008151905061609581615573565b92915050565b6000602082840312156160b1576160b061524a565b5b60006160bf84828501616086565b91505092915050565b600081519050919050565b600082825260208201905092915050565b60006160ef826160c8565b6160f981856160d3565b935061610981856020860161532b565b61611281615355565b840191505092915050565b60006080820190506161326000830187615456565b61613f6020830186615456565b61614c60408301856154ec565b818103606083015261615e81846160e4565b905095945050505050565b60008151905061617881615280565b92915050565b6000602082840312156161945761619361524a565b5b60006161a284828501616169565b91505092915050565b600081905092915050565b60006161c18261530f565b6161cb81856161ab565b93506161db81856020860161532b565b80840191505092915050565b60006161f382856161b6565b91506161ff82846161b6565b91508190509392505050565b60008190508160005260206000209050919050565b60006020601f8301049050919050565b600082821b905092915050565b60006008830261626d7fffffffffffffffffffffffffffffffffffffffffffffffffffffffffffffffff82616230565b6162778683616230565b95508019841693508086168417925050509392505050565b60006162aa6162a56162a0846153c1565b615f64565b6153c1565b9050919050565b6000819050919050565b6162c48361628f565b6162d86162d0826162b1565b84845461623d565b825550505050565b600090565b6162ed6162e0565b6162f88184846162bb565b505050565b5b8181101561631c576163116000826162e5565b6001810190506162fe565b5050565b601f821115616361576163328161620b565b61633b84616220565b8101602085101561634a578190505b61635e61635685616220565b8301826162fd565b50505b505050565b600082821c905092915050565b600061638460001984600802616366565b1980831691505092915050565b600061639d8383616373565b9150826002028217905092915050565b6163b68261530f565b67ffffffffffffffff8111156163cf576163ce615640565b5b6163d98254615d35565b6163e4828285616320565b600060209050601f8311600181146164175760008415616405578287015190505b61640f8582616391565b865550616477565b601f1984166164258661620b565b60005b8281101561644d57848901518255600182019150602085019450602081019050616428565b8683101561646a5784890151616466601f891682616373565b8355505b6001600288020188555050505b505050505050565b60006040820190506164946000830185615456565b6164a160208301846155cc565b9392505050565b7f4e487b7100000000000000000000000000000000000000000000000000000000600052601260045260246000fd5b60006040820190506164ec60008301856154ec565b6164f960208301846154ec565b9392505050565b61650981615a9c565b82525050565b600060808201905061652460008301876155cc565b6165316020830186616500565b61653e60408301856155cc565b61654b60608301846155cc565b95945050505050565b7f4e487b7100000000000000000000000000000000000000000000000000000000600052602160045260246000fd5b600061658e826153c1565b9150616599836153c1565b9250826165a9576165a86164a8565b5b828204905092915050565b600081905092915050565b60006165ca826160c8565b6165d481856165b4565b93506165e481856020860161532b565b80840191505092915050565b60006165fc82846165bf565b915081905092915050565b600079ffffffffffffffffffffffffffffffffffffffffffffffffffff82169050919050565b600061663882616607565b915061664383616607565b9250828203905079ffffffffffffffffffffffffffffffffffffffffffffffffffff81111561667557616674615ecf565b5b92915050565b6000819050919050565b60006166a061669b6166968461667b565b615f64565b615a9c565b9050919050565b6166b081616685565b82525050565b60006040820190506166cb60008301856166a7565b6166d860208301846154ec565b9392505050565b60006166ea82616607565b91506166f583616607565b9250828201905079ffffffffffffffffffffffffffffffffffffffffffffffffffff81111561672757616726615ecf565b5b92915050565b600060a08201905061674260008301886155cc565b61674f60208301876155cc565b61675c60408301866155cc565b61676960608301856154ec565b6167766080830184615456565b9695505050505050565b7f4e487b7100000000000000000000000000000000000000000000000000000000600052603160045260246000fdfea264697066735822122018fd01ac37c6a5c3b6113095260bda2bca835f1610dae7790b6be73db90756a664736f6c634300081a0033",
  "linkReferences": {},
  "deployedLinkReferences": {}
}