{
	"data": {
		"bytecode": {
			"linkReferences": {},
			"object": "6101606040525f19601655348015610015575f80fd5b506040516124e63803806124e6833981016040819052610034916103d4565b604051806040016040528060118152602001704c6567697444414f2043757272656e637960781b81525080604051806040016040528060018152602001603160f81b815250604051806040016040528060118152602001704c6567697444414f2043757272656e637960781b815250604051806040016040528060098152602001682622a3a4aa16a1aaa960b91b81525081600390816100d4919061049f565b5060046100e1828261049f565b506100f191508390506005610202565b61012052610100816006610202565b61014052815160208084019190912060e052815190820120610100524660a05261018c60e05161010051604080517f8b73c3c69bb8fe3d512ecc4cf759cc79239f7b179b0ffacaa9a75d522b39400f60208201529081019290925260608201524660808201523060a08201525f9060c00160405160208183030381529060405280519060200120905090565b60805250503060c0525060016008556101bd336101ab6012600a610650565b6101b89062989680610665565b610234565b6101da306101cd6012600a610650565b6101b89062895440610665565b6011849055600c939093555f600f8190556012929092556013919091556014556015556106e7565b5f60208351101561021d5761021683610271565b905061022e565b81610228848261049f565b5060ff90505b92915050565b6001600160a01b0382166102625760405163ec442f0560e01b81525f60048201526024015b60405180910390fd5b61026d5f83836102ae565b5050565b5f80829050601f8151111561029b578260405163305a27a960e01b8152600401610259919061067c565b80516102a6826106b1565b179392505050565b6001600160a01b0383166102d8578060025f8282546102cd91906106d4565b909155506103489050565b6001600160a01b0383165f908152602081905260409020548181101561032a5760405163391434e360e21b81526001600160a01b03851660048201526024810182905260448101839052606401610259565b6001600160a01b0384165f9081526020819052604090209082900390555b6001600160a01b03821661036457600280548290039055610382565b6001600160a01b0382165f9081526020819052604090208054820190555b816001600160a01b0316836001600160a01b03167fddf252ad1be2c89b69c2b068fc378daa952ba7f163c4a11628f55a4df523b3ef836040516103c791815260200190565b60405180910390a3505050565b5f805f80608085870312156103e7575f80fd5b505082516020840151604085015160609095015191969095509092509050565b634e487b7160e01b5f52604160045260245ffd5b600181811c9082168061042f57607f821691505b60208210810361044d57634e487b7160e01b5f52602260045260245ffd5b50919050565b601f82111561049a57805f5260205f20601f840160051c810160208510156104785750805b601f840160051c820191505b81811015610497575f8155600101610484565b50505b505050565b81516001600160401b038111156104b8576104b8610407565b6104cc816104c6845461041b565b84610453565b6020601f8211600181146104fe575f83156104e75750848201515b5f19600385901b1c1916600184901b178455610497565b5f84815260208120601f198516915b8281101561052d578785015182556020948501946001909201910161050d565b508482101561054a57868401515f19600387901b60f8161c191681555b50505050600190811b01905550565b634e487b7160e01b5f52601160045260245ffd5b6001815b60018411156105a85780850481111561058c5761058c610559565b600184161561059a57908102905b60019390931c928002610571565b935093915050565b5f826105be5750600161022e565b816105ca57505f61022e565b81600181146105e057600281146105ea57610606565b600191505061022e565b60ff8411156105fb576105fb610559565b50506001821b61022e565b5060208310610133831016604e8410600b8410161715610629575081810a61022e565b6106355f19848461056d565b805f190482111561064857610648610559565b029392505050565b5f61065e60ff8416836105b0565b9392505050565b808202811582820484141761022e5761022e610559565b602081525f82518060208401528060208501604085015e5f604082850101526040601f19601f83011684010191505092915050565b8051602080830151919081101561044d575f1960209190910360031b1b16919050565b8082018082111561022e5761022e610559565b60805160a05160c05160e051610100516101205161014051611dae6107385f395f61145701525f61142a01525f61118901525f61116101525f6110bc01525f6110e601525f6111100152611dae5ff3fe6080604052600436106101ff575f3560e01c80635ebb7ad1116101135780639dd2d5891161009d578063d505accf1161006d578063d505accf146105f2578063dd62ed3e14610611578063e07b489d14610655578063e53f1c821461066a578063ff18253b1461067f575f80fd5b80639dd2d589146105795780639e7d8d1d1461058c578063a715e2fc146105a1578063a9059cbb146105d3575f80fd5b8063760bf186116100e3578063760bf186146104eb57806379cc6790146105005780637ecebe001461051f57806384b0196e1461053e57806395d89b4114610565575f80fd5b80635ebb7ad1146104715780635ee4462c1461049057806367f0c2791461049857806370a08231146104b7575f80fd5b806327e235e3116101945780633644e515116101645780633644e515146103bf57806339b50688146103d357806342966c68146103e757806348a3e8891461040657806350e4c1de14610452575f80fd5b806327e235e31461034f578063280d62ac1461037a578063287294c81461038f578063313ce567146103a4575f80fd5b8063127f4b2e116101cf578063127f4b2e146102b657806318160ddd146102d557806321c378e6146102e957806323b872dd14610330575f80fd5b806306fdde0314610228578063095ea7b3146102525780630e3f7c001461028157806312065fe0146102a4575f80fd5b366102245761020c61069f565b610218601654336106fd565b6102226001600855565b005b5f80fd5b348015610233575f80fd5b5061023c61078f565b6040516102499190611a4c565b60405180910390f35b34801561025d575f80fd5b5061027161026c366004611a72565b61081f565b6040519015158152602001610249565b34801561028c575f80fd5b5061029660115481565b604051908152602001610249565b3480156102af575f80fd5b5047610296565b3480156102c1575f80fd5b506102226102d0366004611a9c565b610838565b3480156102e0575f80fd5b50600254610296565b3480156102f4575f80fd5b5061031b610303366004611ab3565b600b6020525f90815260409020805460019091015482565b60408051928352602083019190915201610249565b34801561033b575f80fd5b5061027161034a366004611ace565b6108df565b34801561035a575f80fd5b50610296610369366004611ab3565b60096020525f908152604090205481565b348015610385575f80fd5b5061029660125481565b34801561039a575f80fd5b5061029660135481565b3480156103af575f80fd5b5060405160128152602001610249565b3480156103ca575f80fd5b50610296610902565b3480156103de575f80fd5b50610222610910565b3480156103f2575f80fd5b50610222610401366004611a9c565b61093c565b348015610411575f80fd5b5061043a610420366004611ab3565b60106020525f90815260409020546001600160a01b031681565b6040516001600160a01b039091168152602001610249565b34801561045d575f80fd5b5061022261046c366004611b0c565b610946565b34801561047c575f80fd5b5061043a61048b366004611a9c565b610a44565b610222610a6c565b3480156104a3575f80fd5b5061043a6104b2366004611a9c565b610b4c565b3480156104c2575f80fd5b506102966104d1366004611ab3565b6001600160a01b03165f9081526020819052604090205490565b3480156104f6575f80fd5b5061029660145481565b34801561050b575f80fd5b5061022261051a366004611a72565b610b5b565b34801561052a575f80fd5b50610296610539366004611ab3565b610b74565b348015610549575f80fd5b50610552610b91565b6040516102499796959493929190611b2c565b348015610570575f80fd5b5061023c610bd3565b610222610587366004611bc2565b6106fd565b348015610597575f80fd5b5061029660155481565b3480156105ac575f80fd5b5061031b6105bb366004611ab3565b600d6020525f90815260409020805460019091015482565b3480156105de575f80fd5b506102716105ed366004611a72565b610be2565b3480156105fd575f80fd5b5061022261060c366004611bf0565b610bef565b34801561061c575f80fd5b5061029661062b366004611c61565b6001600160a01b039182165f90815260016020908152604080832093909416825291909152205490565b348015610660575f80fd5b50610296600c5481565b348015610675575f80fd5b50610296600f5481565b34801561068a575f80fd5b50335f90815260096020526040902054610296565b6002600854036106f65760405162461bcd60e51b815260206004820152601f60248201527f5265656e7472616e637947756172643a207265656e7472616e742063616c6c0060448201526064015b60405180910390fd5b6002600855565b5f341161074c5760405162461bcd60e51b815260206004820152601e60248201527f53656e6420424e4220746f20726567697374657220627579206f72646572000060448201526064016106ed565b335f908152600d60205260409020541561076857610768610a6c565b5f805f6107753486610d25565b9250925092506107888383838888610dd8565b5050505050565b60606003805461079e90611c8d565b80601f01602080910402602001604051908101604052809291908181526020018280546107ca90611c8d565b80156108155780601f106107ec57610100808354040283529160200191610815565b820191905f5260205f20905b8154815290600101906020018083116107f857829003601f168201915b5050505050905090565b5f3361082c818585610fb4565b60019150505b92915050565b335f90815260096020526040902054808211156108975760405162461bcd60e51b815260206004820152601d60248201527f416d6f756e7420697320686967686572207468616e2062616c616e636500000060448201526064016106ed565b604051339082156108fc029083905f818181858888f193505050501580156108c1573d5f803e3d5ffd5b506108cc8183610fc6565b335f908152600960205260409020555050565b5f336108ec858285610fd8565b6108f7858585611053565b506001949350505050565b5f61090b6110b0565b905090565b335f818152600b6020526040812080548282556001909101919091559061093990309083611053565b50565b61093933826111d9565b335f908152602081905260409020548211156109a45760405162461bcd60e51b815260206004820152601d60248201527f4e6f7420656e6f75676820746f6b656e7320696e20636f6e747261637400000060448201526064016106ed565b335f908152600b6020526040902054156109c0576109c0610910565b5f806109cc848461120d565b915091505f6109dd83601454611363565b90505f6109ea848361137a565b90506109f581611385565b600c548511610a0457600c8590555b6040805180820182528481526020808201888152335f818152600b909352939091209151825551600190910155610a3c903085611053565b505050505050565b600a8181548110610a53575f80fd5b5f918252602090912001546001600160a01b0316905081565b335f908152600d602052604090205447811115610ad75760405162461bcd60e51b8152602060048201526024808201527f496e73756666696369656e7420424e422062616c616e636520696e20636f6e746044820152631c9858dd60e21b60648201526084016106ed565b335f908152600d6020908152604080832083815560010183905560109091528082205490516001600160a01b03909116916108fc841502918491818181858888f19350505050158015610b2c573d5f803e3d5ffd5b5050335f90815260106020526040902080546001600160a01b0319169055565b600e8181548110610a53575f80fd5b610b66823383610fd8565b610b7082826111d9565b5050565b6001600160a01b0381165f90815260076020526040812054610832565b5f6060805f805f6060610ba2611423565b610baa611450565b604080515f80825260208201909252600f60f81b9b939a50919850469750309650945092509050565b60606004805461079e90611c8d565b5f3361082c818585611053565b83421115610c135760405163313c898160e11b8152600481018590526024016106ed565b5f7f6e71edae12b1b97f4d1f60370fef10105fa2faae0126114a169c64845d6126c9888888610c5e8c6001600160a01b03165f90815260076020526040902080546001810190915590565b6040805160208101969096526001600160a01b0394851690860152929091166060840152608083015260a082015260c0810186905260e0016040516020818303038152906040528051906020012090505f610cb88261147d565b90505f610cc7828787876114a9565b9050896001600160a01b0316816001600160a01b031614610d0e576040516325c0072360e11b81526001600160a01b0380831660048301528b1660248201526044016106ed565b610d198a8a8a610fb4565b50505050505050505050565b5f805f80610d316114d5565b905084811115610d4a575f808793509350935050610dd1565b600f548110610d62575f808793509350935050610dd1565b808611610d8f575f610d7487836114ed565b90508082610d82818a611cd9565b9450945094505050610dd1565b5f610d9a8783610fc6565b90505f805f610da9848a610d25565b91945092509050610dbb8360016114f8565b610dc583876114f8565b90985096509450505050505b9250925092565b8415610e9657305f90815260208190526040902054851115610e3c5760405162461bcd60e51b815260206004820152601d60248201527f4e6f7420656e6f75676820746f6b656e7320696e20636f6e747261637400000060448201526064016106ed565b5f610e526014548661137a90919063ffffffff16565b9050610e5d81611385565b610e68303388611053565b601354610e7590876114f8565b6013556015545f90610e8890889061137a565b9050610e9381611503565b50505b5f80610ea2858561120d565b915091505f610eb383601454611363565b90505f610ec0848361137a565b9050610ecb81611385565b8215610f68576040805180820182528481526020808201898152335f818152600d8452858120945185559151600194850155601090925292832080546001600160a01b038a166001600160a01b031991821617909155600e805493840181559093527fbb7b4a454dc3493923482f07822329ed19e8244eff582cc204f8554c3620c3fd9091018054909216179055600f548610610f6857600f8690555b5050600a80546001810182555f919091527fc65a7bb8d6351c1cf70c95a316cc6a92839c986682d98bc35f958f4883f9d2a80180546001600160a01b0319163317905550505050505050565b610fc18383836001611599565b505050565b5f610fd18284611d00565b9392505050565b6001600160a01b038381165f908152600160209081526040808320938616835292905220545f19811461104d578181101561103f57604051637dc7a0d960e11b81526001600160a01b038416600482015260248101829052604481018390526064016106ed565b61104d84848484035f611599565b50505050565b6001600160a01b03831661107c57604051634b637e8f60e11b81525f60048201526024016106ed565b6001600160a01b0382166110a55760405163ec442f0560e01b81525f60048201526024016106ed565b610fc183838361166b565b5f306001600160a01b037f00000000000000000000000000000000000000000000000000000000000000001614801561110857507f000000000000000000000000000000000000000000000000000000000000000046145b1561113257507f000000000000000000000000000000000000000000000000000000000000000090565b61090b604080517f8b73c3c69bb8fe3d512ecc4cf759cc79239f7b179b0ffacaa9a75d522b39400f60208201527f0000000000000000000000000000000000000000000000000000000000000000918101919091527f000000000000000000000000000000000000000000000000000000000000000060608201524660808201523060a08201525f9060c00160405160208183030381529060405280519060200120905090565b6001600160a01b03821661120257604051634b637e8f60e11b81525f60048201526024016106ed565b610b70825f8361166b565b5f8082600f54111561122357505f90508261135c565b5f805f5b600e54811015611356575f600e828154811061124557611245611d13565b5f9182526020808320909101546001600160a01b0316808352600d825260409283902083518085019094528054845260010154918301829052925088101561128e57505061134e565b5f6112a682602001518b61137a90919063ffffffff16565b90506112b285826114f8565b94505f6112cc83602001518c61137a90919063ffffffff16565b90506112d88782610fc6565b96505f871161134957600e85815481106112f4576112f4611d13565b5f918252602080832090910180546001600160a01b03199081169091556001600160a01b03969096168252600d8152604080832083815560010183905560109091529020805490941690935550611356915050565b505050505b600101611227565b50925090505b9250929050565b5f60646113708385611d27565b610fd19190611d3e565b5f610fd18284611d27565b5f61138f60025490565b90505f5b600a54811015610fc1575f600a82815481106113b1576113b1611d13565b5f9182526020822001546001600160a01b031691506113e4826001600160a01b03165f9081526020819052604090205490565b90505f6113f182866114ed565b90506113fd818761137a565b6001600160a01b039093165f908152600960205260409020929092555050600101611393565b606061090b7f00000000000000000000000000000000000000000000000000000000000000006005611791565b606061090b7f00000000000000000000000000000000000000000000000000000000000000006006611791565b5f6108326114896110b0565b8360405161190160f01b8152600281019290925260228201526042902090565b5f805f806114b98888888861183a565b9250925092506114c98282611902565b50909695505050505050565b5f61090b60125460135461137a90919063ffffffff16565b5f610fd18284611d3e565b5f610fd18284611d51565b5f61150d60025490565b90505f5b600a54811015610fc1575f600a828154811061152f5761152f611d13565b5f9182526020822001546001600160a01b03169150611562826001600160a01b03165f9081526020819052604090205490565b90505f61156f82866114ed565b90505f61157c828861137a565b9050611589308583611053565b5050600190920191506115119050565b6001600160a01b0384166115c25760405163e602df0560e01b81525f60048201526024016106ed565b6001600160a01b0383166115eb57604051634a1406b160e11b81525f60048201526024016106ed565b6001600160a01b038085165f908152600160209081526040808320938716835292905220829055801561104d57826001600160a01b0316846001600160a01b03167f8c5be1e5ebec7d5bd14f71427d1e84f3dd0314c0f7b2291e5b200ac8c7c3b9258460405161165d91815260200190565b60405180910390a350505050565b6001600160a01b038316611695578060025f82825461168a9190611d51565b909155506117059050565b6001600160a01b0383165f90815260208190526040902054818110156116e75760405163391434e360e21b81526001600160a01b038516600482015260248101829052604481018390526064016106ed565b6001600160a01b0384165f9081526020819052604090209082900390555b6001600160a01b0382166117215760028054829003905561173f565b6001600160a01b0382165f9081526020819052604090208054820190555b816001600160a01b0316836001600160a01b03167fddf252ad1be2c89b69c2b068fc378daa952ba7f163c4a11628f55a4df523b3ef8360405161178491815260200190565b60405180910390a3505050565b606060ff83146117ab576117a4836119ba565b9050610832565b8180546117b790611c8d565b80601f01602080910402602001604051908101604052809291908181526020018280546117e390611c8d565b801561182e5780601f106118055761010080835404028352916020019161182e565b820191905f5260205f20905b81548152906001019060200180831161181157829003601f168201915b50505050509050610832565b5f80807f7fffffffffffffffffffffffffffffff5d576e7357a4501ddfe92f46681b20a084111561187357505f915060039050826118f8565b604080515f808252602082018084528a905260ff891692820192909252606081018790526080810186905260019060a0016020604051602081039080840390855afa1580156118c4573d5f803e3d5ffd5b5050604051601f1901519150506001600160a01b0381166118ef57505f9250600191508290506118f8565b92505f91508190505b9450945094915050565b5f82600381111561191557611915611d64565b0361191e575050565b600182600381111561193257611932611d64565b036119505760405163f645eedf60e01b815260040160405180910390fd5b600282600381111561196457611964611d64565b036119855760405163fce698f760e01b8152600481018290526024016106ed565b600382600381111561199957611999611d64565b03610b70576040516335e2f38360e21b8152600481018290526024016106ed565b60605f6119c6836119f7565b6040805160208082528183019092529192505f91906020820181803683375050509182525060208101929092525090565b5f60ff8216601f81111561083257604051632cd44ac360e21b815260040160405180910390fd5b5f81518084528060208401602086015e5f602082860101526020601f19601f83011685010191505092915050565b602081525f610fd16020830184611a1e565b6001600160a01b0381168114610939575f80fd5b5f8060408385031215611a83575f80fd5b8235611a8e81611a5e565b946020939093013593505050565b5f60208284031215611aac575f80fd5b5035919050565b5f60208284031215611ac3575f80fd5b8135610fd181611a5e565b5f805f60608486031215611ae0575f80fd5b8335611aeb81611a5e565b92506020840135611afb81611a5e565b929592945050506040919091013590565b5f8060408385031215611b1d575f80fd5b50508035926020909101359150565b60ff60f81b8816815260e060208201525f611b4a60e0830189611a1e565b8281036040840152611b5c8189611a1e565b606084018890526001600160a01b038716608085015260a0840186905283810360c0850152845180825260208087019350909101905f5b81811015611bb1578351835260209384019390920191600101611b93565b50909b9a5050505050505050505050565b5f8060408385031215611bd3575f80fd5b823591506020830135611be581611a5e565b809150509250929050565b5f805f805f805f60e0888a031215611c06575f80fd5b8735611c1181611a5e565b96506020880135611c2181611a5e565b95506040880135945060608801359350608088013560ff81168114611c44575f80fd5b9699959850939692959460a0840135945060c09093013592915050565b5f8060408385031215611c72575f80fd5b8235611c7d81611a5e565b91506020830135611be581611a5e565b600181811c90821680611ca157607f821691505b602082108103611cbf57634e487b7160e01b5f52602260045260245ffd5b50919050565b634e487b7160e01b5f52601260045260245ffd5b5f82611ce757611ce7611cc5565b500690565b634e487b7160e01b5f52601160045260245ffd5b8181038181111561083257610832611cec565b634e487b7160e01b5f52603260045260245ffd5b808202811582820484141761083257610832611cec565b5f82611d4c57611d4c611cc5565b500490565b8082018082111561083257610832611cec565b634e487b7160e01b5f52602160045260245ffdfea2646970667358221220337806dff2a6bb044cb81d710feb79ecedad0a2933bfaced1dc38bc1c7e43c9964736f6c634300081a0033",
			"opcodes": "PUSH2 0x160 PUSH1 0x40 MSTORE PUSH0 NOT PUSH1 0x16 SSTORE CALLVALUE DUP1 ISZERO PUSH2 0x15 JUMPI PUSH0 DUP1 REVERT JUMPDEST POP PUSH1 0x40 MLOAD PUSH2 0x24E6 CODESIZE SUB DUP1 PUSH2 0x24E6 DUP4 CODECOPY DUP2 ADD PUSH1 0x40 DUP2 SWAP1 MSTORE PUSH2 0x34 SWAP2 PUSH2 0x3D4 JUMP JUMPDEST PUSH1 0x40 MLOAD DUP1 PUSH1 0x40 ADD PUSH1 0x40 MSTORE DUP1 PUSH1 0x11 DUP2 MSTORE PUSH1 0x20 ADD PUSH17 0x4C6567697444414F2043757272656E6379 PUSH1 0x78 SHL DUP2 MSTORE POP DUP1 PUSH1 0x40 MLOAD DUP1 PUSH1 0x40 ADD PUSH1 0x40 MSTORE DUP1 PUSH1 0x1 DUP2 MSTORE PUSH1 0x20 ADD PUSH1 0x31 PUSH1 0xF8 SHL DUP2 MSTORE POP PUSH1 0x40 MLOAD DUP1 PUSH1 0x40 ADD PUSH1 0x40 MSTORE DUP1 PUSH1 0x11 DUP2 MSTORE PUSH1 0x20 ADD PUSH17 0x4C6567697444414F2043757272656E6379 PUSH1 0x78 SHL DUP2 MSTORE POP PUSH1 0x40 MLOAD DUP1 PUSH1 0x40 ADD PUSH1 0x40 MSTORE DUP1 PUSH1 0x9 DUP2 MSTORE PUSH1 0x20 ADD PUSH9 0x2622A3A4AA16A1AAA9 PUSH1 0xB9 SHL DUP2 MSTORE POP DUP2 PUSH1 0x3 SWAP1 DUP2 PUSH2 0xD4 SWAP2 SWAP1 PUSH2 0x49F JUMP JUMPDEST POP PUSH1 0x4 PUSH2 0xE1 DUP3 DUP3 PUSH2 0x49F JUMP JUMPDEST POP PUSH2 0xF1 SWAP2 POP DUP4 SWAP1 POP PUSH1 0x5 PUSH2 0x202 JUMP JUMPDEST PUSH2 0x120 MSTORE PUSH2 0x100 DUP2 PUSH1 0x6 PUSH2 0x202 JUMP JUMPDEST PUSH2 0x140 MSTORE DUP2 MLOAD PUSH1 0x20 DUP1 DUP5 ADD SWAP2 SWAP1 SWAP2 KECCAK256 PUSH1 0xE0 MSTORE DUP2 MLOAD SWAP1 DUP3 ADD KECCAK256 PUSH2 0x100 MSTORE CHAINID PUSH1 0xA0 MSTORE PUSH2 0x18C PUSH1 0xE0 MLOAD PUSH2 0x100 MLOAD PUSH1 0x40 DUP1 MLOAD PUSH32 0x8B73C3C69BB8FE3D512ECC4CF759CC79239F7B179B0FFACAA9A75D522B39400F PUSH1 0x20 DUP3 ADD MSTORE SWAP1 DUP2 ADD SWAP3 SWAP1 SWAP3 MSTORE PUSH1 0x60 DUP3 ADD MSTORE CHAINID PUSH1 0x80 DUP3 ADD MSTORE ADDRESS PUSH1 0xA0 DUP3 ADD MSTORE PUSH0 SWAP1 PUSH1 0xC0 ADD PUSH1 0x40 MLOAD PUSH1 0x20 DUP2 DUP4 SUB SUB DUP2 MSTORE SWAP1 PUSH1 0x40 MSTORE DUP1 MLOAD SWAP1 PUSH1 0x20 ADD KECCAK256 SWAP1 POP SWAP1 JUMP JUMPDEST PUSH1 0x80 MSTORE POP POP ADDRESS PUSH1 0xC0 MSTORE POP PUSH1 0x1 PUSH1 0x8 SSTORE PUSH2 0x1BD CALLER PUSH2 0x1AB PUSH1 0x12 PUSH1 0xA PUSH2 0x650 JUMP JUMPDEST PUSH2 0x1B8 SWAP1 PUSH3 0x989680 PUSH2 0x665 JUMP JUMPDEST PUSH2 0x234 JUMP JUMPDEST PUSH2 0x1DA ADDRESS PUSH2 0x1CD PUSH1 0x12 PUSH1 0xA PUSH2 0x650 JUMP JUMPDEST PUSH2 0x1B8 SWAP1 PUSH3 0x895440 PUSH2 0x665 JUMP JUMPDEST PUSH1 0x11 DUP5 SWAP1 SSTORE PUSH1 0xC SWAP4 SWAP1 SWAP4 SSTORE PUSH0 PUSH1 0xF DUP2 SWAP1 SSTORE PUSH1 0x12 SWAP3 SWAP1 SWAP3 SSTORE PUSH1 0x13 SWAP2 SWAP1 SWAP2 SSTORE PUSH1 0x14 SSTORE PUSH1 0x15 SSTORE PUSH2 0x6E7 JUMP JUMPDEST PUSH0 PUSH1 0x20 DUP4 MLOAD LT ISZERO PUSH2 0x21D JUMPI PUSH2 0x216 DUP4 PUSH2 0x271 JUMP JUMPDEST SWAP1 POP PUSH2 0x22E JUMP JUMPDEST DUP2 PUSH2 0x228 DUP5 DUP3 PUSH2 0x49F JUMP JUMPDEST POP PUSH1 0xFF SWAP1 POP JUMPDEST SWAP3 SWAP2 POP POP JUMP JUMPDEST PUSH1 0x1 PUSH1 0x1 PUSH1 0xA0 SHL SUB DUP3 AND PUSH2 0x262 JUMPI PUSH1 0x40 MLOAD PUSH4 0xEC442F05 PUSH1 0xE0 SHL DUP2 MSTORE PUSH0 PUSH1 0x4 DUP3 ADD MSTORE PUSH1 0x24 ADD JUMPDEST PUSH1 0x40 MLOAD DUP1 SWAP2 SUB SWAP1 REVERT JUMPDEST PUSH2 0x26D PUSH0 DUP4 DUP4 PUSH2 0x2AE JUMP JUMPDEST POP POP JUMP JUMPDEST PUSH0 DUP1 DUP3 SWAP1 POP PUSH1 0x1F DUP2 MLOAD GT ISZERO PUSH2 0x29B JUMPI DUP3 PUSH1 0x40 MLOAD PUSH4 0x305A27A9 PUSH1 0xE0 SHL DUP2 MSTORE PUSH1 0x4 ADD PUSH2 0x259 SWAP2 SWAP1 PUSH2 0x67C JUMP JUMPDEST DUP1 MLOAD PUSH2 0x2A6 DUP3 PUSH2 0x6B1 JUMP JUMPDEST OR SWAP4 SWAP3 POP POP POP JUMP JUMPDEST PUSH1 0x1 PUSH1 0x1 PUSH1 0xA0 SHL SUB DUP4 AND PUSH2 0x2D8 JUMPI DUP1 PUSH1 0x2 PUSH0 DUP3 DUP3 SLOAD PUSH2 0x2CD SWAP2 SWAP1 PUSH2 0x6D4 JUMP JUMPDEST SWAP1 SWAP2 SSTORE POP PUSH2 0x348 SWAP1 POP JUMP JUMPDEST PUSH1 0x1 PUSH1 0x1 PUSH1 0xA0 SHL SUB DUP4 AND PUSH0 SWAP1 DUP2 MSTORE PUSH1 0x20 DUP2 SWAP1 MSTORE PUSH1 0x40 SWAP1 KECCAK256 SLOAD DUP2 DUP2 LT ISZERO PUSH2 0x32A JUMPI PUSH1 0x40 MLOAD PUSH4 0x391434E3 PUSH1 0xE2 SHL DUP2 MSTORE PUSH1 0x1 PUSH1 0x1 PUSH1 0xA0 SHL SUB DUP6 AND PUSH1 0x4 DUP3 ADD MSTORE PUSH1 0x24 DUP2 ADD DUP3 SWAP1 MSTORE PUSH1 0x44 DUP2 ADD DUP4 SWAP1 MSTORE PUSH1 0x64 ADD PUSH2 0x259 JUMP JUMPDEST PUSH1 0x1 PUSH1 0x1 PUSH1 0xA0 SHL SUB DUP5 AND PUSH0 SWAP1 DUP2 MSTORE PUSH1 0x20 DUP2 SWAP1 MSTORE PUSH1 0x40 SWAP1 KECCAK256 SWAP1 DUP3 SWAP1 SUB SWAP1 SSTORE JUMPDEST PUSH1 0x1 PUSH1 0x1 PUSH1 0xA0 SHL SUB DUP3 AND PUSH2 0x364 JUMPI PUSH1 0x2 DUP1 SLOAD DUP3 SWAP1 SUB SWAP1 SSTORE PUSH2 0x382 JUMP JUMPDEST PUSH1 0x1 PUSH1 0x1 PUSH1 0xA0 SHL SUB DUP3 AND PUSH0 SWAP1 DUP2 MSTORE PUSH1 0x20 DUP2 SWAP1 MSTORE PUSH1 0x40 SWAP1 KECCAK256 DUP1 SLOAD DUP3 ADD SWAP1 SSTORE JUMPDEST DUP2 PUSH1 0x1 PUSH1 0x1 PUSH1 0xA0 SHL SUB AND DUP4 PUSH1 0x1 PUSH1 0x1 PUSH1 0xA0 SHL SUB AND PUSH32 0xDDF252AD1BE2C89B69C2B068FC378DAA952BA7F163C4A11628F55A4DF523B3EF DUP4 PUSH1 0x40 MLOAD PUSH2 0x3C7 SWAP2 DUP2 MSTORE PUSH1 0x20 ADD SWAP1 JUMP JUMPDEST PUSH1 0x40 MLOAD DUP1 SWAP2 SUB SWAP1 LOG3 POP POP POP JUMP JUMPDEST PUSH0 DUP1 PUSH0 DUP1 PUSH1 0x80 DUP6 DUP8 SUB SLT ISZERO PUSH2 0x3E7 JUMPI PUSH0 DUP1 REVERT JUMPDEST POP POP DUP3 MLOAD PUSH1 0x20 DUP5 ADD MLOAD PUSH1 0x40 DUP6 ADD MLOAD PUSH1 0x60 SWAP1 SWAP6 ADD MLOAD SWAP2 SWAP7 SWAP1 SWAP6 POP SWAP1 SWAP3 POP SWAP1 POP JUMP JUMPDEST PUSH4 0x4E487B71 PUSH1 0xE0 SHL PUSH0 MSTORE PUSH1 0x41 PUSH1 0x4 MSTORE PUSH1 0x24 PUSH0 REVERT JUMPDEST PUSH1 0x1 DUP2 DUP2 SHR SWAP1 DUP3 AND DUP1 PUSH2 0x42F JUMPI PUSH1 0x7F DUP3 AND SWAP2 POP JUMPDEST PUSH1 0x20 DUP3 LT DUP2 SUB PUSH2 0x44D JUMPI PUSH4 0x4E487B71 PUSH1 0xE0 SHL PUSH0 MSTORE PUSH1 0x22 PUSH1 0x4 MSTORE PUSH1 0x24 PUSH0 REVERT JUMPDEST POP SWAP2 SWAP1 POP JUMP JUMPDEST PUSH1 0x1F DUP3 GT ISZERO PUSH2 0x49A JUMPI DUP1 PUSH0 MSTORE PUSH1 0x20 PUSH0 KECCAK256 PUSH1 0x1F DUP5 ADD PUSH1 0x5 SHR DUP2 ADD PUSH1 0x20 DUP6 LT ISZERO PUSH2 0x478 JUMPI POP DUP1 JUMPDEST PUSH1 0x1F DUP5 ADD PUSH1 0x5 SHR DUP3 ADD SWAP2 POP JUMPDEST DUP2 DUP2 LT ISZERO PUSH2 0x497 JUMPI PUSH0 DUP2 SSTORE PUSH1 0x1 ADD PUSH2 0x484 JUMP JUMPDEST POP POP JUMPDEST POP POP POP JUMP JUMPDEST DUP2 MLOAD PUSH1 0x1 PUSH1 0x1 PUSH1 0x40 SHL SUB DUP2 GT ISZERO PUSH2 0x4B8 JUMPI PUSH2 0x4B8 PUSH2 0x407 JUMP JUMPDEST PUSH2 0x4CC DUP2 PUSH2 0x4C6 DUP5 SLOAD PUSH2 0x41B JUMP JUMPDEST DUP5 PUSH2 0x453 JUMP JUMPDEST PUSH1 0x20 PUSH1 0x1F DUP3 GT PUSH1 0x1 DUP2 EQ PUSH2 0x4FE JUMPI PUSH0 DUP4 ISZERO PUSH2 0x4E7 JUMPI POP DUP5 DUP3 ADD MLOAD JUMPDEST PUSH0 NOT PUSH1 0x3 DUP6 SWAP1 SHL SHR NOT AND PUSH1 0x1 DUP5 SWAP1 SHL OR DUP5 SSTORE PUSH2 0x497 JUMP JUMPDEST PUSH0 DUP5 DUP2 MSTORE PUSH1 0x20 DUP2 KECCAK256 PUSH1 0x1F NOT DUP6 AND SWAP2 JUMPDEST DUP3 DUP2 LT ISZERO PUSH2 0x52D JUMPI DUP8 DUP6 ADD MLOAD DUP3 SSTORE PUSH1 0x20 SWAP5 DUP6 ADD SWAP5 PUSH1 0x1 SWAP1 SWAP3 ADD SWAP2 ADD PUSH2 0x50D JUMP JUMPDEST POP DUP5 DUP3 LT ISZERO PUSH2 0x54A JUMPI DUP7 DUP5 ADD MLOAD PUSH0 NOT PUSH1 0x3 DUP8 SWAP1 SHL PUSH1 0xF8 AND SHR NOT AND DUP2 SSTORE JUMPDEST POP POP POP POP PUSH1 0x1 SWAP1 DUP2 SHL ADD SWAP1 SSTORE POP JUMP JUMPDEST PUSH4 0x4E487B71 PUSH1 0xE0 SHL PUSH0 MSTORE PUSH1 0x11 PUSH1 0x4 MSTORE PUSH1 0x24 PUSH0 REVERT JUMPDEST PUSH1 0x1 DUP2 JUMPDEST PUSH1 0x1 DUP5 GT ISZERO PUSH2 0x5A8 JUMPI DUP1 DUP6 DIV DUP2 GT ISZERO PUSH2 0x58C JUMPI PUSH2 0x58C PUSH2 0x559 JUMP JUMPDEST PUSH1 0x1 DUP5 AND ISZERO PUSH2 0x59A JUMPI SWAP1 DUP2 MUL SWAP1 JUMPDEST PUSH1 0x1 SWAP4 SWAP1 SWAP4 SHR SWAP3 DUP1 MUL PUSH2 0x571 JUMP JUMPDEST SWAP4 POP SWAP4 SWAP2 POP POP JUMP JUMPDEST PUSH0 DUP3 PUSH2 0x5BE JUMPI POP PUSH1 0x1 PUSH2 0x22E JUMP JUMPDEST DUP2 PUSH2 0x5CA JUMPI POP PUSH0 PUSH2 0x22E JUMP JUMPDEST DUP2 PUSH1 0x1 DUP2 EQ PUSH2 0x5E0 JUMPI PUSH1 0x2 DUP2 EQ PUSH2 0x5EA JUMPI PUSH2 0x606 JUMP JUMPDEST PUSH1 0x1 SWAP2 POP POP PUSH2 0x22E JUMP JUMPDEST PUSH1 0xFF DUP5 GT ISZERO PUSH2 0x5FB JUMPI PUSH2 0x5FB PUSH2 0x559 JUMP JUMPDEST POP POP PUSH1 0x1 DUP3 SHL PUSH2 0x22E JUMP JUMPDEST POP PUSH1 0x20 DUP4 LT PUSH2 0x133 DUP4 LT AND PUSH1 0x4E DUP5 LT PUSH1 0xB DUP5 LT AND OR ISZERO PUSH2 0x629 JUMPI POP DUP2 DUP2 EXP PUSH2 0x22E JUMP JUMPDEST PUSH2 0x635 PUSH0 NOT DUP5 DUP5 PUSH2 0x56D JUMP JUMPDEST DUP1 PUSH0 NOT DIV DUP3 GT ISZERO PUSH2 0x648 JUMPI PUSH2 0x648 PUSH2 0x559 JUMP JUMPDEST MUL SWAP4 SWAP3 POP POP POP JUMP JUMPDEST PUSH0 PUSH2 0x65E PUSH1 0xFF DUP5 AND DUP4 PUSH2 0x5B0 JUMP JUMPDEST SWAP4 SWAP3 POP POP POP JUMP JUMPDEST DUP1 DUP3 MUL DUP2 ISZERO DUP3 DUP3 DIV DUP5 EQ OR PUSH2 0x22E JUMPI PUSH2 0x22E PUSH2 0x559 JUMP JUMPDEST PUSH1 0x20 DUP2 MSTORE PUSH0 DUP3 MLOAD DUP1 PUSH1 0x20 DUP5 ADD MSTORE DUP1 PUSH1 0x20 DUP6 ADD PUSH1 0x40 DUP6 ADD MCOPY PUSH0 PUSH1 0x40 DUP3 DUP6 ADD ADD MSTORE PUSH1 0x40 PUSH1 0x1F NOT PUSH1 0x1F DUP4 ADD AND DUP5 ADD ADD SWAP2 POP POP SWAP3 SWAP2 POP POP JUMP JUMPDEST DUP1 MLOAD PUSH1 0x20 DUP1 DUP4 ADD MLOAD SWAP2 SWAP1 DUP2 LT ISZERO PUSH2 0x44D JUMPI PUSH0 NOT PUSH1 0x20 SWAP2 SWAP1 SWAP2 SUB PUSH1 0x3 SHL SHL AND SWAP2 SWAP1 POP JUMP JUMPDEST DUP1 DUP3 ADD DUP1 DUP3 GT ISZERO PUSH2 0x22E JUMPI PUSH2 0x22E PUSH2 0x559 JUMP JUMPDEST PUSH1 0x80 MLOAD PUSH1 0xA0 MLOAD PUSH1 0xC0 MLOAD PUSH1 0xE0 MLOAD PUSH2 0x100 MLOAD PUSH2 0x120 MLOAD PUSH2 0x140 MLOAD PUSH2 0x1DAE PUSH2 0x738 PUSH0 CODECOPY PUSH0 PUSH2 0x1457 ADD MSTORE PUSH0 PUSH2 0x142A ADD MSTORE PUSH0 PUSH2 0x1189 ADD MSTORE PUSH0 PUSH2 0x1161 ADD MSTORE PUSH0 PUSH2 0x10BC ADD MSTORE PUSH0 PUSH2 0x10E6 ADD MSTORE PUSH0 PUSH2 0x1110 ADD MSTORE PUSH2 0x1DAE PUSH0 RETURN INVALID PUSH1 0x80 PUSH1 0x40 MSTORE PUSH1 0x4 CALLDATASIZE LT PUSH2 0x1FF JUMPI PUSH0 CALLDATALOAD PUSH1 0xE0 SHR DUP1 PUSH4 0x5EBB7AD1 GT PUSH2 0x113 JUMPI DUP1 PUSH4 0x9DD2D589 GT PUSH2 0x9D JUMPI DUP1 PUSH4 0xD505ACCF GT PUSH2 0x6D JUMPI DUP1 PUSH4 0xD505ACCF EQ PUSH2 0x5F2 JUMPI DUP1 PUSH4 0xDD62ED3E EQ PUSH2 0x611 JUMPI DUP1 PUSH4 0xE07B489D EQ PUSH2 0x655 JUMPI DUP1 PUSH4 0xE53F1C82 EQ PUSH2 0x66A JUMPI DUP1 PUSH4 0xFF18253B EQ PUSH2 0x67F JUMPI PUSH0 DUP1 REVERT JUMPDEST DUP1 PUSH4 0x9DD2D589 EQ PUSH2 0x579 JUMPI DUP1 PUSH4 0x9E7D8D1D EQ PUSH2 0x58C JUMPI DUP1 PUSH4 0xA715E2FC EQ PUSH2 0x5A1 JUMPI DUP1 PUSH4 0xA9059CBB EQ PUSH2 0x5D3 JUMPI PUSH0 DUP1 REVERT JUMPDEST DUP1 PUSH4 0x760BF186 GT PUSH2 0xE3 JUMPI DUP1 PUSH4 0x760BF186 EQ PUSH2 0x4EB JUMPI DUP1 PUSH4 0x79CC6790 EQ PUSH2 0x500 JUMPI DUP1 PUSH4 0x7ECEBE00 EQ PUSH2 0x51F JUMPI DUP1 PUSH4 0x84B0196E EQ PUSH2 0x53E JUMPI DUP1 PUSH4 0x95D89B41 EQ PUSH2 0x565 JUMPI PUSH0 DUP1 REVERT JUMPDEST DUP1 PUSH4 0x5EBB7AD1 EQ PUSH2 0x471 JUMPI DUP1 PUSH4 0x5EE4462C EQ PUSH2 0x490 JUMPI DUP1 PUSH4 0x67F0C279 EQ PUSH2 0x498 JUMPI DUP1 PUSH4 0x70A08231 EQ PUSH2 0x4B7 JUMPI PUSH0 DUP1 REVERT JUMPDEST DUP1 PUSH4 0x27E235E3 GT PUSH2 0x194 JUMPI DUP1 PUSH4 0x3644E515 GT PUSH2 0x164 JUMPI DUP1 PUSH4 0x3644E515 EQ PUSH2 0x3BF JUMPI DUP1 PUSH4 0x39B50688 EQ PUSH2 0x3D3 JUMPI DUP1 PUSH4 0x42966C68 EQ PUSH2 0x3E7 JUMPI DUP1 PUSH4 0x48A3E889 EQ PUSH2 0x406 JUMPI DUP1 PUSH4 0x50E4C1DE EQ PUSH2 0x452 JUMPI PUSH0 DUP1 REVERT JUMPDEST DUP1 PUSH4 0x27E235E3 EQ PUSH2 0x34F JUMPI DUP1 PUSH4 0x280D62AC EQ PUSH2 0x37A JUMPI DUP1 PUSH4 0x287294C8 EQ PUSH2 0x38F JUMPI DUP1 PUSH4 0x313CE567 EQ PUSH2 0x3A4 JUMPI PUSH0 DUP1 REVERT JUMPDEST DUP1 PUSH4 0x127F4B2E GT PUSH2 0x1CF JUMPI DUP1 PUSH4 0x127F4B2E EQ PUSH2 0x2B6 JUMPI DUP1 PUSH4 0x18160DDD EQ PUSH2 0x2D5 JUMPI DUP1 PUSH4 0x21C378E6 EQ PUSH2 0x2E9 JUMPI DUP1 PUSH4 0x23B872DD EQ PUSH2 0x330 JUMPI PUSH0 DUP1 REVERT JUMPDEST DUP1 PUSH4 0x6FDDE03 EQ PUSH2 0x228 JUMPI DUP1 PUSH4 0x95EA7B3 EQ PUSH2 0x252 JUMPI DUP1 PUSH4 0xE3F7C00 EQ PUSH2 0x281 JUMPI DUP1 PUSH4 0x12065FE0 EQ PUSH2 0x2A4 JUMPI PUSH0 DUP1 REVERT JUMPDEST CALLDATASIZE PUSH2 0x224 JUMPI PUSH2 0x20C PUSH2 0x69F JUMP JUMPDEST PUSH2 0x218 PUSH1 0x16 SLOAD CALLER PUSH2 0x6FD JUMP JUMPDEST PUSH2 0x222 PUSH1 0x1 PUSH1 0x8 SSTORE JUMP JUMPDEST STOP JUMPDEST PUSH0 DUP1 REVERT JUMPDEST CALLVALUE DUP1 ISZERO PUSH2 0x233 JUMPI PUSH0 DUP1 REVERT JUMPDEST POP PUSH2 0x23C PUSH2 0x78F JUMP JUMPDEST PUSH1 0x40 MLOAD PUSH2 0x249 SWAP2 SWAP1 PUSH2 0x1A4C JUMP JUMPDEST PUSH1 0x40 MLOAD DUP1 SWAP2 SUB SWAP1 RETURN JUMPDEST CALLVALUE DUP1 ISZERO PUSH2 0x25D JUMPI PUSH0 DUP1 REVERT JUMPDEST POP PUSH2 0x271 PUSH2 0x26C CALLDATASIZE PUSH1 0x4 PUSH2 0x1A72 JUMP JUMPDEST PUSH2 0x81F JUMP JUMPDEST PUSH1 0x40 MLOAD SWAP1 ISZERO ISZERO DUP2 MSTORE PUSH1 0x20 ADD PUSH2 0x249 JUMP JUMPDEST CALLVALUE DUP1 ISZERO PUSH2 0x28C JUMPI PUSH0 DUP1 REVERT JUMPDEST POP PUSH2 0x296 PUSH1 0x11 SLOAD DUP2 JUMP JUMPDEST PUSH1 0x40 MLOAD SWAP1 DUP2 MSTORE PUSH1 0x20 ADD PUSH2 0x249 JUMP JUMPDEST CALLVALUE DUP1 ISZERO PUSH2 0x2AF JUMPI PUSH0 DUP1 REVERT JUMPDEST POP SELFBALANCE PUSH2 0x296 JUMP JUMPDEST CALLVALUE DUP1 ISZERO PUSH2 0x2C1 JUMPI PUSH0 DUP1 REVERT JUMPDEST POP PUSH2 0x222 PUSH2 0x2D0 CALLDATASIZE PUSH1 0x4 PUSH2 0x1A9C JUMP JUMPDEST PUSH2 0x838 JUMP JUMPDEST CALLVALUE DUP1 ISZERO PUSH2 0x2E0 JUMPI PUSH0 DUP1 REVERT JUMPDEST POP PUSH1 0x2 SLOAD PUSH2 0x296 JUMP JUMPDEST CALLVALUE DUP1 ISZERO PUSH2 0x2F4 JUMPI PUSH0 DUP1 REVERT JUMPDEST POP PUSH2 0x31B PUSH2 0x303 CALLDATASIZE PUSH1 0x4 PUSH2 0x1AB3 JUMP JUMPDEST PUSH1 0xB PUSH1 0x20 MSTORE PUSH0 SWAP1 DUP2 MSTORE PUSH1 0x40 SWAP1 KECCAK256 DUP1 SLOAD PUSH1 0x1 SWAP1 SWAP2 ADD SLOAD DUP3 JUMP JUMPDEST PUSH1 0x40 DUP1 MLOAD SWAP3 DUP4 MSTORE PUSH1 0x20 DUP4 ADD SWAP2 SWAP1 SWAP2 MSTORE ADD PUSH2 0x249 JUMP JUMPDEST CALLVALUE DUP1 ISZERO PUSH2 0x33B JUMPI PUSH0 DUP1 REVERT JUMPDEST POP PUSH2 0x271 PUSH2 0x34A CALLDATASIZE PUSH1 0x4 PUSH2 0x1ACE JUMP JUMPDEST PUSH2 0x8DF JUMP JUMPDEST CALLVALUE DUP1 ISZERO PUSH2 0x35A JUMPI PUSH0 DUP1 REVERT JUMPDEST POP PUSH2 0x296 PUSH2 0x369 CALLDATASIZE PUSH1 0x4 PUSH2 0x1AB3 JUMP JUMPDEST PUSH1 0x9 PUSH1 0x20 MSTORE PUSH0 SWAP1 DUP2 MSTORE PUSH1 0x40 SWAP1 KECCAK256 SLOAD DUP2 JUMP JUMPDEST CALLVALUE DUP1 ISZERO PUSH2 0x385 JUMPI PUSH0 DUP1 REVERT JUMPDEST POP PUSH2 0x296 PUSH1 0x12 SLOAD DUP2 JUMP JUMPDEST CALLVALUE DUP1 ISZERO PUSH2 0x39A JUMPI PUSH0 DUP1 REVERT JUMPDEST POP PUSH2 0x296 PUSH1 0x13 SLOAD DUP2 JUMP JUMPDEST CALLVALUE DUP1 ISZERO PUSH2 0x3AF JUMPI PUSH0 DUP1 REVERT JUMPDEST POP PUSH1 0x40 MLOAD PUSH1 0x12 DUP2 MSTORE PUSH1 0x20 ADD PUSH2 0x249 JUMP JUMPDEST CALLVALUE DUP1 ISZERO PUSH2 0x3CA JUMPI PUSH0 DUP1 REVERT JUMPDEST POP PUSH2 0x296 PUSH2 0x902 JUMP JUMPDEST CALLVALUE DUP1 ISZERO PUSH2 0x3DE JUMPI PUSH0 DUP1 REVERT JUMPDEST POP PUSH2 0x222 PUSH2 0x910 JUMP JUMPDEST CALLVALUE DUP1 ISZERO PUSH2 0x3F2 JUMPI PUSH0 DUP1 REVERT JUMPDEST POP PUSH2 0x222 PUSH2 0x401 CALLDATASIZE PUSH1 0x4 PUSH2 0x1A9C JUMP JUMPDEST PUSH2 0x93C JUMP JUMPDEST CALLVALUE DUP1 ISZERO PUSH2 0x411 JUMPI PUSH0 DUP1 REVERT JUMPDEST POP PUSH2 0x43A PUSH2 0x420 CALLDATASIZE PUSH1 0x4 PUSH2 0x1AB3 JUMP JUMPDEST PUSH1 0x10 PUSH1 0x20 MSTORE PUSH0 SWAP1 DUP2 MSTORE PUSH1 0x40 SWAP1 KECCAK256 SLOAD PUSH1 0x1 PUSH1 0x1 PUSH1 0xA0 SHL SUB AND DUP2 JUMP JUMPDEST PUSH1 0x40 MLOAD PUSH1 0x1 PUSH1 0x1 PUSH1 0xA0 SHL SUB SWAP1 SWAP2 AND DUP2 MSTORE PUSH1 0x20 ADD PUSH2 0x249 JUMP JUMPDEST CALLVALUE DUP1 ISZERO PUSH2 0x45D JUMPI PUSH0 DUP1 REVERT JUMPDEST POP PUSH2 0x222 PUSH2 0x46C CALLDATASIZE PUSH1 0x4 PUSH2 0x1B0C JUMP JUMPDEST PUSH2 0x946 JUMP JUMPDEST CALLVALUE DUP1 ISZERO PUSH2 0x47C JUMPI PUSH0 DUP1 REVERT JUMPDEST POP PUSH2 0x43A PUSH2 0x48B CALLDATASIZE PUSH1 0x4 PUSH2 0x1A9C JUMP JUMPDEST PUSH2 0xA44 JUMP JUMPDEST PUSH2 0x222 PUSH2 0xA6C JUMP JUMPDEST CALLVALUE DUP1 ISZERO PUSH2 0x4A3 JUMPI PUSH0 DUP1 REVERT JUMPDEST POP PUSH2 0x43A PUSH2 0x4B2 CALLDATASIZE PUSH1 0x4 PUSH2 0x1A9C JUMP JUMPDEST PUSH2 0xB4C JUMP JUMPDEST CALLVALUE DUP1 ISZERO PUSH2 0x4C2 JUMPI PUSH0 DUP1 REVERT JUMPDEST POP PUSH2 0x296 PUSH2 0x4D1 CALLDATASIZE PUSH1 0x4 PUSH2 0x1AB3 JUMP JUMPDEST PUSH1 0x1 PUSH1 0x1 PUSH1 0xA0 SHL SUB AND PUSH0 SWAP1 DUP2 MSTORE PUSH1 0x20 DUP2 SWAP1 MSTORE PUSH1 0x40 SWAP1 KECCAK256 SLOAD SWAP1 JUMP JUMPDEST CALLVALUE DUP1 ISZERO PUSH2 0x4F6 JUMPI PUSH0 DUP1 REVERT JUMPDEST POP PUSH2 0x296 PUSH1 0x14 SLOAD DUP2 JUMP JUMPDEST CALLVALUE DUP1 ISZERO PUSH2 0x50B JUMPI PUSH0 DUP1 REVERT JUMPDEST POP PUSH2 0x222 PUSH2 0x51A CALLDATASIZE PUSH1 0x4 PUSH2 0x1A72 JUMP JUMPDEST PUSH2 0xB5B JUMP JUMPDEST CALLVALUE DUP1 ISZERO PUSH2 0x52A JUMPI PUSH0 DUP1 REVERT JUMPDEST POP PUSH2 0x296 PUSH2 0x539 CALLDATASIZE PUSH1 0x4 PUSH2 0x1AB3 JUMP JUMPDEST PUSH2 0xB74 JUMP JUMPDEST CALLVALUE DUP1 ISZERO PUSH2 0x549 JUMPI PUSH0 DUP1 REVERT JUMPDEST POP PUSH2 0x552 PUSH2 0xB91 JUMP JUMPDEST PUSH1 0x40 MLOAD PUSH2 0x249 SWAP8 SWAP7 SWAP6 SWAP5 SWAP4 SWAP3 SWAP2 SWAP1 PUSH2 0x1B2C JUMP JUMPDEST CALLVALUE DUP1 ISZERO PUSH2 0x570 JUMPI PUSH0 DUP1 REVERT JUMPDEST POP PUSH2 0x23C PUSH2 0xBD3 JUMP JUMPDEST PUSH2 0x222 PUSH2 0x587 CALLDATASIZE PUSH1 0x4 PUSH2 0x1BC2 JUMP JUMPDEST PUSH2 0x6FD JUMP JUMPDEST CALLVALUE DUP1 ISZERO PUSH2 0x597 JUMPI PUSH0 DUP1 REVERT JUMPDEST POP PUSH2 0x296 PUSH1 0x15 SLOAD DUP2 JUMP JUMPDEST CALLVALUE DUP1 ISZERO PUSH2 0x5AC JUMPI PUSH0 DUP1 REVERT JUMPDEST POP PUSH2 0x31B PUSH2 0x5BB CALLDATASIZE PUSH1 0x4 PUSH2 0x1AB3 JUMP JUMPDEST PUSH1 0xD PUSH1 0x20 MSTORE PUSH0 SWAP1 DUP2 MSTORE PUSH1 0x40 SWAP1 KECCAK256 DUP1 SLOAD PUSH1 0x1 SWAP1 SWAP2 ADD SLOAD DUP3 JUMP JUMPDEST CALLVALUE DUP1 ISZERO PUSH2 0x5DE JUMPI PUSH0 DUP1 REVERT JUMPDEST POP PUSH2 0x271 PUSH2 0x5ED CALLDATASIZE PUSH1 0x4 PUSH2 0x1A72 JUMP JUMPDEST PUSH2 0xBE2 JUMP JUMPDEST CALLVALUE DUP1 ISZERO PUSH2 0x5FD JUMPI PUSH0 DUP1 REVERT JUMPDEST POP PUSH2 0x222 PUSH2 0x60C CALLDATASIZE PUSH1 0x4 PUSH2 0x1BF0 JUMP JUMPDEST PUSH2 0xBEF JUMP JUMPDEST CALLVALUE DUP1 ISZERO PUSH2 0x61C JUMPI PUSH0 DUP1 REVERT JUMPDEST POP PUSH2 0x296 PUSH2 0x62B CALLDATASIZE PUSH1 0x4 PUSH2 0x1C61 JUMP JUMPDEST PUSH1 0x1 PUSH1 0x1 PUSH1 0xA0 SHL SUB SWAP2 DUP3 AND PUSH0 SWAP1 DUP2 MSTORE PUSH1 0x1 PUSH1 0x20 SWAP1 DUP2 MSTORE PUSH1 0x40 DUP1 DUP4 KECCAK256 SWAP4 SWAP1 SWAP5 AND DUP3 MSTORE SWAP2 SWAP1 SWAP2 MSTORE KECCAK256 SLOAD SWAP1 JUMP JUMPDEST CALLVALUE DUP1 ISZERO PUSH2 0x660 JUMPI PUSH0 DUP1 REVERT JUMPDEST POP PUSH2 0x296 PUSH1 0xC SLOAD DUP2 JUMP JUMPDEST CALLVALUE DUP1 ISZERO PUSH2 0x675 JUMPI PUSH0 DUP1 REVERT JUMPDEST POP PUSH2 0x296 PUSH1 0xF SLOAD DUP2 JUMP JUMPDEST CALLVALUE DUP1 ISZERO PUSH2 0x68A JUMPI PUSH0 DUP1 REVERT JUMPDEST POP CALLER PUSH0 SWAP1 DUP2 MSTORE PUSH1 0x9 PUSH1 0x20 MSTORE PUSH1 0x40 SWAP1 KECCAK256 SLOAD PUSH2 0x296 JUMP JUMPDEST PUSH1 0x2 PUSH1 0x8 SLOAD SUB PUSH2 0x6F6 JUMPI PUSH1 0x40 MLOAD PUSH3 0x461BCD PUSH1 0xE5 SHL DUP2 MSTORE PUSH1 0x20 PUSH1 0x4 DUP3 ADD MSTORE PUSH1 0x1F PUSH1 0x24 DUP3 ADD MSTORE PUSH32 0x5265656E7472616E637947756172643A207265656E7472616E742063616C6C00 PUSH1 0x44 DUP3 ADD MSTORE PUSH1 0x64 ADD JUMPDEST PUSH1 0x40 MLOAD DUP1 SWAP2 SUB SWAP1 REVERT JUMPDEST PUSH1 0x2 PUSH1 0x8 SSTORE JUMP JUMPDEST PUSH0 CALLVALUE GT PUSH2 0x74C JUMPI PUSH1 0x40 MLOAD PUSH3 0x461BCD PUSH1 0xE5 SHL DUP2 MSTORE PUSH1 0x20 PUSH1 0x4 DUP3 ADD MSTORE PUSH1 0x1E PUSH1 0x24 DUP3 ADD MSTORE PUSH32 0x53656E6420424E4220746F20726567697374657220627579206F726465720000 PUSH1 0x44 DUP3 ADD MSTORE PUSH1 0x64 ADD PUSH2 0x6ED JUMP JUMPDEST CALLER PUSH0 SWAP1 DUP2 MSTORE PUSH1 0xD PUSH1 0x20 MSTORE PUSH1 0x40 SWAP1 KECCAK256 SLOAD ISZERO PUSH2 0x768 JUMPI PUSH2 0x768 PUSH2 0xA6C JUMP JUMPDEST PUSH0 DUP1 PUSH0 PUSH2 0x775 CALLVALUE DUP7 PUSH2 0xD25 JUMP JUMPDEST SWAP3 POP SWAP3 POP SWAP3 POP PUSH2 0x788 DUP4 DUP4 DUP4 DUP9 DUP9 PUSH2 0xDD8 JUMP JUMPDEST POP POP POP POP POP JUMP JUMPDEST PUSH1 0x60 PUSH1 0x3 DUP1 SLOAD PUSH2 0x79E SWAP1 PUSH2 0x1C8D JUMP JUMPDEST DUP1 PUSH1 0x1F ADD PUSH1 0x20 DUP1 SWAP2 DIV MUL PUSH1 0x20 ADD PUSH1 0x40 MLOAD SWAP1 DUP2 ADD PUSH1 0x40 MSTORE DUP1 SWAP3 SWAP2 SWAP1 DUP2 DUP2 MSTORE PUSH1 0x20 ADD DUP3 DUP1 SLOAD PUSH2 0x7CA SWAP1 PUSH2 0x1C8D JUMP JUMPDEST DUP1 ISZERO PUSH2 0x815 JUMPI DUP1 PUSH1 0x1F LT PUSH2 0x7EC JUMPI PUSH2 0x100 DUP1 DUP4 SLOAD DIV MUL DUP4 MSTORE SWAP2 PUSH1 0x20 ADD SWAP2 PUSH2 0x815 JUMP JUMPDEST DUP3 ADD SWAP2 SWAP1 PUSH0 MSTORE PUSH1 0x20 PUSH0 KECCAK256 SWAP1 JUMPDEST DUP2 SLOAD DUP2 MSTORE SWAP1 PUSH1 0x1 ADD SWAP1 PUSH1 0x20 ADD DUP1 DUP4 GT PUSH2 0x7F8 JUMPI DUP3 SWAP1 SUB PUSH1 0x1F AND DUP3 ADD SWAP2 JUMPDEST POP POP POP POP POP SWAP1 POP SWAP1 JUMP JUMPDEST PUSH0 CALLER PUSH2 0x82C DUP2 DUP6 DUP6 PUSH2 0xFB4 JUMP JUMPDEST PUSH1 0x1 SWAP2 POP POP JUMPDEST SWAP3 SWAP2 POP POP JUMP JUMPDEST CALLER PUSH0 SWAP1 DUP2 MSTORE PUSH1 0x9 PUSH1 0x20 MSTORE PUSH1 0x40 SWAP1 KECCAK256 SLOAD DUP1 DUP3 GT ISZERO PUSH2 0x897 JUMPI PUSH1 0x40 MLOAD PUSH3 0x461BCD PUSH1 0xE5 SHL DUP2 MSTORE PUSH1 0x20 PUSH1 0x4 DUP3 ADD MSTORE PUSH1 0x1D PUSH1 0x24 DUP3 ADD MSTORE PUSH32 0x416D6F756E7420697320686967686572207468616E2062616C616E6365000000 PUSH1 0x44 DUP3 ADD MSTORE PUSH1 0x64 ADD PUSH2 0x6ED JUMP JUMPDEST PUSH1 0x40 MLOAD CALLER SWAP1 DUP3 ISZERO PUSH2 0x8FC MUL SWAP1 DUP4 SWAP1 PUSH0 DUP2 DUP2 DUP2 DUP6 DUP9 DUP9 CALL SWAP4 POP POP POP POP ISZERO DUP1 ISZERO PUSH2 0x8C1 JUMPI RETURNDATASIZE PUSH0 DUP1 RETURNDATACOPY RETURNDATASIZE PUSH0 REVERT JUMPDEST POP PUSH2 0x8CC DUP2 DUP4 PUSH2 0xFC6 JUMP JUMPDEST CALLER PUSH0 SWAP1 DUP2 MSTORE PUSH1 0x9 PUSH1 0x20 MSTORE PUSH1 0x40 SWAP1 KECCAK256 SSTORE POP POP JUMP JUMPDEST PUSH0 CALLER PUSH2 0x8EC DUP6 DUP3 DUP6 PUSH2 0xFD8 JUMP JUMPDEST PUSH2 0x8F7 DUP6 DUP6 DUP6 PUSH2 0x1053 JUMP JUMPDEST POP PUSH1 0x1 SWAP5 SWAP4 POP POP POP POP JUMP JUMPDEST PUSH0 PUSH2 0x90B PUSH2 0x10B0 JUMP JUMPDEST SWAP1 POP SWAP1 JUMP JUMPDEST CALLER PUSH0 DUP2 DUP2 MSTORE PUSH1 0xB PUSH1 0x20 MSTORE PUSH1 0x40 DUP2 KECCAK256 DUP1 SLOAD DUP3 DUP3 SSTORE PUSH1 0x1 SWAP1 SWAP2 ADD SWAP2 SWAP1 SWAP2 SSTORE SWAP1 PUSH2 0x939 SWAP1 ADDRESS SWAP1 DUP4 PUSH2 0x1053 JUMP JUMPDEST POP JUMP JUMPDEST PUSH2 0x939 CALLER DUP3 PUSH2 0x11D9 JUMP JUMPDEST CALLER PUSH0 SWAP1 DUP2 MSTORE PUSH1 0x20 DUP2 SWAP1 MSTORE PUSH1 0x40 SWAP1 KECCAK256 SLOAD DUP3 GT ISZERO PUSH2 0x9A4 JUMPI PUSH1 0x40 MLOAD PUSH3 0x461BCD PUSH1 0xE5 SHL DUP2 MSTORE PUSH1 0x20 PUSH1 0x4 DUP3 ADD MSTORE PUSH1 0x1D PUSH1 0x24 DUP3 ADD MSTORE PUSH32 0x4E6F7420656E6F75676820746F6B656E7320696E20636F6E7472616374000000 PUSH1 0x44 DUP3 ADD MSTORE PUSH1 0x64 ADD PUSH2 0x6ED JUMP JUMPDEST CALLER PUSH0 SWAP1 DUP2 MSTORE PUSH1 0xB PUSH1 0x20 MSTORE PUSH1 0x40 SWAP1 KECCAK256 SLOAD ISZERO PUSH2 0x9C0 JUMPI PUSH2 0x9C0 PUSH2 0x910 JUMP JUMPDEST PUSH0 DUP1 PUSH2 0x9CC DUP5 DUP5 PUSH2 0x120D JUMP JUMPDEST SWAP2 POP SWAP2 POP PUSH0 PUSH2 0x9DD DUP4 PUSH1 0x14 SLOAD PUSH2 0x1363 JUMP JUMPDEST SWAP1 POP PUSH0 PUSH2 0x9EA DUP5 DUP4 PUSH2 0x137A JUMP JUMPDEST SWAP1 POP PUSH2 0x9F5 DUP2 PUSH2 0x1385 JUMP JUMPDEST PUSH1 0xC SLOAD DUP6 GT PUSH2 0xA04 JUMPI PUSH1 0xC DUP6 SWAP1 SSTORE JUMPDEST PUSH1 0x40 DUP1 MLOAD DUP1 DUP3 ADD DUP3 MSTORE DUP5 DUP2 MSTORE PUSH1 0x20 DUP1 DUP3 ADD DUP9 DUP2 MSTORE CALLER PUSH0 DUP2 DUP2 MSTORE PUSH1 0xB SWAP1 SWAP4 MSTORE SWAP4 SWAP1 SWAP2 KECCAK256 SWAP2 MLOAD DUP3 SSTORE MLOAD PUSH1 0x1 SWAP1 SWAP2 ADD SSTORE PUSH2 0xA3C SWAP1 ADDRESS DUP6 PUSH2 0x1053 JUMP JUMPDEST POP POP POP POP POP POP JUMP JUMPDEST PUSH1 0xA DUP2 DUP2 SLOAD DUP2 LT PUSH2 0xA53 JUMPI PUSH0 DUP1 REVERT JUMPDEST PUSH0 SWAP2 DUP3 MSTORE PUSH1 0x20 SWAP1 SWAP2 KECCAK256 ADD SLOAD PUSH1 0x1 PUSH1 0x1 PUSH1 0xA0 SHL SUB AND SWAP1 POP DUP2 JUMP JUMPDEST CALLER PUSH0 SWAP1 DUP2 MSTORE PUSH1 0xD PUSH1 0x20 MSTORE PUSH1 0x40 SWAP1 KECCAK256 SLOAD SELFBALANCE DUP2 GT ISZERO PUSH2 0xAD7 JUMPI PUSH1 0x40 MLOAD PUSH3 0x461BCD PUSH1 0xE5 SHL DUP2 MSTORE PUSH1 0x20 PUSH1 0x4 DUP3 ADD MSTORE PUSH1 0x24 DUP1 DUP3 ADD MSTORE PUSH32 0x496E73756666696369656E7420424E422062616C616E636520696E20636F6E74 PUSH1 0x44 DUP3 ADD MSTORE PUSH4 0x1C9858DD PUSH1 0xE2 SHL PUSH1 0x64 DUP3 ADD MSTORE PUSH1 0x84 ADD PUSH2 0x6ED JUMP JUMPDEST CALLER PUSH0 SWAP1 DUP2 MSTORE PUSH1 0xD PUSH1 0x20 SWAP1 DUP2 MSTORE PUSH1 0x40 DUP1 DUP4 KECCAK256 DUP4 DUP2 SSTORE PUSH1 0x1 ADD DUP4 SWAP1 SSTORE PUSH1 0x10 SWAP1 SWAP2 MSTORE DUP1 DUP3 KECCAK256 SLOAD SWAP1 MLOAD PUSH1 0x1 PUSH1 0x1 PUSH1 0xA0 SHL SUB SWAP1 SWAP2 AND SWAP2 PUSH2 0x8FC DUP5 ISZERO MUL SWAP2 DUP5 SWAP2 DUP2 DUP2 DUP2 DUP6 DUP9 DUP9 CALL SWAP4 POP POP POP POP ISZERO DUP1 ISZERO PUSH2 0xB2C JUMPI RETURNDATASIZE PUSH0 DUP1 RETURNDATACOPY RETURNDATASIZE PUSH0 REVERT JUMPDEST POP POP CALLER PUSH0 SWAP1 DUP2 MSTORE PUSH1 0x10 PUSH1 0x20 MSTORE PUSH1 0x40 SWAP1 KECCAK256 DUP1 SLOAD PUSH1 0x1 PUSH1 0x1 PUSH1 0xA0 SHL SUB NOT AND SWAP1 SSTORE JUMP JUMPDEST PUSH1 0xE DUP2 DUP2 SLOAD DUP2 LT PUSH2 0xA53 JUMPI PUSH0 DUP1 REVERT JUMPDEST PUSH2 0xB66 DUP3 CALLER DUP4 PUSH2 0xFD8 JUMP JUMPDEST PUSH2 0xB70 DUP3 DUP3 PUSH2 0x11D9 JUMP JUMPDEST POP POP JUMP JUMPDEST PUSH1 0x1 PUSH1 0x1 PUSH1 0xA0 SHL SUB DUP2 AND PUSH0 SWAP1 DUP2 MSTORE PUSH1 0x7 PUSH1 0x20 MSTORE PUSH1 0x40 DUP2 KECCAK256 SLOAD PUSH2 0x832 JUMP JUMPDEST PUSH0 PUSH1 0x60 DUP1 PUSH0 DUP1 PUSH0 PUSH1 0x60 PUSH2 0xBA2 PUSH2 0x1423 JUMP JUMPDEST PUSH2 0xBAA PUSH2 0x1450 JUMP JUMPDEST PUSH1 0x40 DUP1 MLOAD PUSH0 DUP1 DUP3 MSTORE PUSH1 0x20 DUP3 ADD SWAP1 SWAP3 MSTORE PUSH1 0xF PUSH1 0xF8 SHL SWAP12 SWAP4 SWAP11 POP SWAP2 SWAP9 POP CHAINID SWAP8 POP ADDRESS SWAP7 POP SWAP5 POP SWAP3 POP SWAP1 POP JUMP JUMPDEST PUSH1 0x60 PUSH1 0x4 DUP1 SLOAD PUSH2 0x79E SWAP1 PUSH2 0x1C8D JUMP JUMPDEST PUSH0 CALLER PUSH2 0x82C DUP2 DUP6 DUP6 PUSH2 0x1053 JUMP JUMPDEST DUP4 TIMESTAMP GT ISZERO PUSH2 0xC13 JUMPI PUSH1 0x40 MLOAD PUSH4 0x313C8981 PUSH1 0xE1 SHL DUP2 MSTORE PUSH1 0x4 DUP2 ADD DUP6 SWAP1 MSTORE PUSH1 0x24 ADD PUSH2 0x6ED JUMP JUMPDEST PUSH0 PUSH32 0x6E71EDAE12B1B97F4D1F60370FEF10105FA2FAAE0126114A169C64845D6126C9 DUP9 DUP9 DUP9 PUSH2 0xC5E DUP13 PUSH1 0x1 PUSH1 0x1 PUSH1 0xA0 SHL SUB AND PUSH0 SWAP1 DUP2 MSTORE PUSH1 0x7 PUSH1 0x20 MSTORE PUSH1 0x40 SWAP1 KECCAK256 DUP1 SLOAD PUSH1 0x1 DUP2 ADD SWAP1 SWAP2 SSTORE SWAP1 JUMP JUMPDEST PUSH1 0x40 DUP1 MLOAD PUSH1 0x20 DUP2 ADD SWAP7 SWAP1 SWAP7 MSTORE PUSH1 0x1 PUSH1 0x1 PUSH1 0xA0 SHL SUB SWAP5 DUP6 AND SWAP1 DUP7 ADD MSTORE SWAP3 SWAP1 SWAP2 AND PUSH1 0x60 DUP5 ADD MSTORE PUSH1 0x80 DUP4 ADD MSTORE PUSH1 0xA0 DUP3 ADD MSTORE PUSH1 0xC0 DUP2 ADD DUP7 SWAP1 MSTORE PUSH1 0xE0 ADD PUSH1 0x40 MLOAD PUSH1 0x20 DUP2 DUP4 SUB SUB DUP2 MSTORE SWAP1 PUSH1 0x40 MSTORE DUP1 MLOAD SWAP1 PUSH1 0x20 ADD KECCAK256 SWAP1 POP PUSH0 PUSH2 0xCB8 DUP3 PUSH2 0x147D JUMP JUMPDEST SWAP1 POP PUSH0 PUSH2 0xCC7 DUP3 DUP8 DUP8 DUP8 PUSH2 0x14A9 JUMP JUMPDEST SWAP1 POP DUP10 PUSH1 0x1 PUSH1 0x1 PUSH1 0xA0 SHL SUB AND DUP2 PUSH1 0x1 PUSH1 0x1 PUSH1 0xA0 SHL SUB AND EQ PUSH2 0xD0E JUMPI PUSH1 0x40 MLOAD PUSH4 0x25C00723 PUSH1 0xE1 SHL DUP2 MSTORE PUSH1 0x1 PUSH1 0x1 PUSH1 0xA0 SHL SUB DUP1 DUP4 AND PUSH1 0x4 DUP4 ADD MSTORE DUP12 AND PUSH1 0x24 DUP3 ADD MSTORE PUSH1 0x44 ADD PUSH2 0x6ED JUMP JUMPDEST PUSH2 0xD19 DUP11 DUP11 DUP11 PUSH2 0xFB4 JUMP JUMPDEST POP POP POP POP POP POP POP POP POP POP JUMP JUMPDEST PUSH0 DUP1 PUSH0 DUP1 PUSH2 0xD31 PUSH2 0x14D5 JUMP JUMPDEST SWAP1 POP DUP5 DUP2 GT ISZERO PUSH2 0xD4A JUMPI PUSH0 DUP1 DUP8 SWAP4 POP SWAP4 POP SWAP4 POP POP PUSH2 0xDD1 JUMP JUMPDEST PUSH1 0xF SLOAD DUP2 LT PUSH2 0xD62 JUMPI PUSH0 DUP1 DUP8 SWAP4 POP SWAP4 POP SWAP4 POP POP PUSH2 0xDD1 JUMP JUMPDEST DUP1 DUP7 GT PUSH2 0xD8F JUMPI PUSH0 PUSH2 0xD74 DUP8 DUP4 PUSH2 0x14ED JUMP JUMPDEST SWAP1 POP DUP1 DUP3 PUSH2 0xD82 DUP2 DUP11 PUSH2 0x1CD9 JUMP JUMPDEST SWAP5 POP SWAP5 POP SWAP5 POP POP POP PUSH2 0xDD1 JUMP JUMPDEST PUSH0 PUSH2 0xD9A DUP8 DUP4 PUSH2 0xFC6 JUMP JUMPDEST SWAP1 POP PUSH0 DUP1 PUSH0 PUSH2 0xDA9 DUP5 DUP11 PUSH2 0xD25 JUMP JUMPDEST SWAP2 SWAP5 POP SWAP3 POP SWAP1 POP PUSH2 0xDBB DUP4 PUSH1 0x1 PUSH2 0x14F8 JUMP JUMPDEST PUSH2 0xDC5 DUP4 DUP8 PUSH2 0x14F8 JUMP JUMPDEST SWAP1 SWAP9 POP SWAP7 POP SWAP5 POP POP POP POP POP JUMPDEST SWAP3 POP SWAP3 POP SWAP3 JUMP JUMPDEST DUP5 ISZERO PUSH2 0xE96 JUMPI ADDRESS PUSH0 SWAP1 DUP2 MSTORE PUSH1 0x20 DUP2 SWAP1 MSTORE PUSH1 0x40 SWAP1 KECCAK256 SLOAD DUP6 GT ISZERO PUSH2 0xE3C JUMPI PUSH1 0x40 MLOAD PUSH3 0x461BCD PUSH1 0xE5 SHL DUP2 MSTORE PUSH1 0x20 PUSH1 0x4 DUP3 ADD MSTORE PUSH1 0x1D PUSH1 0x24 DUP3 ADD MSTORE PUSH32 0x4E6F7420656E6F75676820746F6B656E7320696E20636F6E7472616374000000 PUSH1 0x44 DUP3 ADD MSTORE PUSH1 0x64 ADD PUSH2 0x6ED JUMP JUMPDEST PUSH0 PUSH2 0xE52 PUSH1 0x14 SLOAD DUP7 PUSH2 0x137A SWAP1 SWAP2 SWAP1 PUSH4 0xFFFFFFFF AND JUMP JUMPDEST SWAP1 POP PUSH2 0xE5D DUP2 PUSH2 0x1385 JUMP JUMPDEST PUSH2 0xE68 ADDRESS CALLER DUP9 PUSH2 0x1053 JUMP JUMPDEST PUSH1 0x13 SLOAD PUSH2 0xE75 SWAP1 DUP8 PUSH2 0x14F8 JUMP JUMPDEST PUSH1 0x13 SSTORE PUSH1 0x15 SLOAD PUSH0 SWAP1 PUSH2 0xE88 SWAP1 DUP9 SWAP1 PUSH2 0x137A JUMP JUMPDEST SWAP1 POP PUSH2 0xE93 DUP2 PUSH2 0x1503 JUMP JUMPDEST POP POP JUMPDEST PUSH0 DUP1 PUSH2 0xEA2 DUP6 DUP6 PUSH2 0x120D JUMP JUMPDEST SWAP2 POP SWAP2 POP PUSH0 PUSH2 0xEB3 DUP4 PUSH1 0x14 SLOAD PUSH2 0x1363 JUMP JUMPDEST SWAP1 POP PUSH0 PUSH2 0xEC0 DUP5 DUP4 PUSH2 0x137A JUMP JUMPDEST SWAP1 POP PUSH2 0xECB DUP2 PUSH2 0x1385 JUMP JUMPDEST DUP3 ISZERO PUSH2 0xF68 JUMPI PUSH1 0x40 DUP1 MLOAD DUP1 DUP3 ADD DUP3 MSTORE DUP5 DUP2 MSTORE PUSH1 0x20 DUP1 DUP3 ADD DUP10 DUP2 MSTORE CALLER PUSH0 DUP2 DUP2 MSTORE PUSH1 0xD DUP5 MSTORE DUP6 DUP2 KECCAK256 SWAP5 MLOAD DUP6 SSTORE SWAP2 MLOAD PUSH1 0x1 SWAP5 DUP6 ADD SSTORE PUSH1 0x10 SWAP1 SWAP3 MSTORE SWAP3 DUP4 KECCAK256 DUP1 SLOAD PUSH1 0x1 PUSH1 0x1 PUSH1 0xA0 SHL SUB DUP11 AND PUSH1 0x1 PUSH1 0x1 PUSH1 0xA0 SHL SUB NOT SWAP2 DUP3 AND OR SWAP1 SWAP2 SSTORE PUSH1 0xE DUP1 SLOAD SWAP4 DUP5 ADD DUP2 SSTORE SWAP1 SWAP4 MSTORE PUSH32 0xBB7B4A454DC3493923482F07822329ED19E8244EFF582CC204F8554C3620C3FD SWAP1 SWAP2 ADD DUP1 SLOAD SWAP1 SWAP3 AND OR SWAP1 SSTORE PUSH1 0xF SLOAD DUP7 LT PUSH2 0xF68 JUMPI PUSH1 0xF DUP7 SWAP1 SSTORE JUMPDEST POP POP PUSH1 0xA DUP1 SLOAD PUSH1 0x1 DUP2 ADD DUP3 SSTORE PUSH0 SWAP2 SWAP1 SWAP2 MSTORE PUSH32 0xC65A7BB8D6351C1CF70C95A316CC6A92839C986682D98BC35F958F4883F9D2A8 ADD DUP1 SLOAD PUSH1 0x1 PUSH1 0x1 PUSH1 0xA0 SHL SUB NOT AND CALLER OR SWAP1 SSTORE POP POP POP POP POP POP POP JUMP JUMPDEST PUSH2 0xFC1 DUP4 DUP4 DUP4 PUSH1 0x1 PUSH2 0x1599 JUMP JUMPDEST POP POP POP JUMP JUMPDEST PUSH0 PUSH2 0xFD1 DUP3 DUP5 PUSH2 0x1D00 JUMP JUMPDEST SWAP4 SWAP3 POP POP POP JUMP JUMPDEST PUSH1 0x1 PUSH1 0x1 PUSH1 0xA0 SHL SUB DUP4 DUP2 AND PUSH0 SWAP1 DUP2 MSTORE PUSH1 0x1 PUSH1 0x20 SWAP1 DUP2 MSTORE PUSH1 0x40 DUP1 DUP4 KECCAK256 SWAP4 DUP7 AND DUP4 MSTORE SWAP3 SWAP1 MSTORE KECCAK256 SLOAD PUSH0 NOT DUP2 EQ PUSH2 0x104D JUMPI DUP2 DUP2 LT ISZERO PUSH2 0x103F JUMPI PUSH1 0x40 MLOAD PUSH4 0x7DC7A0D9 PUSH1 0xE1 SHL DUP2 MSTORE PUSH1 0x1 PUSH1 0x1 PUSH1 0xA0 SHL SUB DUP5 AND PUSH1 0x4 DUP3 ADD MSTORE PUSH1 0x24 DUP2 ADD DUP3 SWAP1 MSTORE PUSH1 0x44 DUP2 ADD DUP4 SWAP1 MSTORE PUSH1 0x64 ADD PUSH2 0x6ED JUMP JUMPDEST PUSH2 0x104D DUP5 DUP5 DUP5 DUP5 SUB PUSH0 PUSH2 0x1599 JUMP JUMPDEST POP POP POP POP JUMP JUMPDEST PUSH1 0x1 PUSH1 0x1 PUSH1 0xA0 SHL SUB DUP4 AND PUSH2 0x107C JUMPI PUSH1 0x40 MLOAD PUSH4 0x4B637E8F PUSH1 0xE1 SHL DUP2 MSTORE PUSH0 PUSH1 0x4 DUP3 ADD MSTORE PUSH1 0x24 ADD PUSH2 0x6ED JUMP JUMPDEST PUSH1 0x1 PUSH1 0x1 PUSH1 0xA0 SHL SUB DUP3 AND PUSH2 0x10A5 JUMPI PUSH1 0x40 MLOAD PUSH4 0xEC442F05 PUSH1 0xE0 SHL DUP2 MSTORE PUSH0 PUSH1 0x4 DUP3 ADD MSTORE PUSH1 0x24 ADD PUSH2 0x6ED JUMP JUMPDEST PUSH2 0xFC1 DUP4 DUP4 DUP4 PUSH2 0x166B JUMP JUMPDEST PUSH0 ADDRESS PUSH1 0x1 PUSH1 0x1 PUSH1 0xA0 SHL SUB PUSH32 0x0 AND EQ DUP1 ISZERO PUSH2 0x1108 JUMPI POP PUSH32 0x0 CHAINID EQ JUMPDEST ISZERO PUSH2 0x1132 JUMPI POP PUSH32 0x0 SWAP1 JUMP JUMPDEST PUSH2 0x90B PUSH1 0x40 DUP1 MLOAD PUSH32 0x8B73C3C69BB8FE3D512ECC4CF759CC79239F7B179B0FFACAA9A75D522B39400F PUSH1 0x20 DUP3 ADD MSTORE PUSH32 0x0 SWAP2 DUP2 ADD SWAP2 SWAP1 SWAP2 MSTORE PUSH32 0x0 PUSH1 0x60 DUP3 ADD MSTORE CHAINID PUSH1 0x80 DUP3 ADD MSTORE ADDRESS PUSH1 0xA0 DUP3 ADD MSTORE PUSH0 SWAP1 PUSH1 0xC0 ADD PUSH1 0x40 MLOAD PUSH1 0x20 DUP2 DUP4 SUB SUB DUP2 MSTORE SWAP1 PUSH1 0x40 MSTORE DUP1 MLOAD SWAP1 PUSH1 0x20 ADD KECCAK256 SWAP1 POP SWAP1 JUMP JUMPDEST PUSH1 0x1 PUSH1 0x1 PUSH1 0xA0 SHL SUB DUP3 AND PUSH2 0x1202 JUMPI PUSH1 0x40 MLOAD PUSH4 0x4B637E8F PUSH1 0xE1 SHL DUP2 MSTORE PUSH0 PUSH1 0x4 DUP3 ADD MSTORE PUSH1 0x24 ADD PUSH2 0x6ED JUMP JUMPDEST PUSH2 0xB70 DUP3 PUSH0 DUP4 PUSH2 0x166B JUMP JUMPDEST PUSH0 DUP1 DUP3 PUSH1 0xF SLOAD GT ISZERO PUSH2 0x1223 JUMPI POP PUSH0 SWAP1 POP DUP3 PUSH2 0x135C JUMP JUMPDEST PUSH0 DUP1 PUSH0 JUMPDEST PUSH1 0xE SLOAD DUP2 LT ISZERO PUSH2 0x1356 JUMPI PUSH0 PUSH1 0xE DUP3 DUP2 SLOAD DUP2 LT PUSH2 0x1245 JUMPI PUSH2 0x1245 PUSH2 0x1D13 JUMP JUMPDEST PUSH0 SWAP2 DUP3 MSTORE PUSH1 0x20 DUP1 DUP4 KECCAK256 SWAP1 SWAP2 ADD SLOAD PUSH1 0x1 PUSH1 0x1 PUSH1 0xA0 SHL SUB AND DUP1 DUP4 MSTORE PUSH1 0xD DUP3 MSTORE PUSH1 0x40 SWAP3 DUP4 SWAP1 KECCAK256 DUP4 MLOAD DUP1 DUP6 ADD SWAP1 SWAP5 MSTORE DUP1 SLOAD DUP5 MSTORE PUSH1 0x1 ADD SLOAD SWAP2 DUP4 ADD DUP3 SWAP1 MSTORE SWAP3 POP DUP9 LT ISZERO PUSH2 0x128E JUMPI POP POP PUSH2 0x134E JUMP JUMPDEST PUSH0 PUSH2 0x12A6 DUP3 PUSH1 0x20 ADD MLOAD DUP12 PUSH2 0x137A SWAP1 SWAP2 SWAP1 PUSH4 0xFFFFFFFF AND JUMP JUMPDEST SWAP1 POP PUSH2 0x12B2 DUP6 DUP3 PUSH2 0x14F8 JUMP JUMPDEST SWAP5 POP PUSH0 PUSH2 0x12CC DUP4 PUSH1 0x20 ADD MLOAD DUP13 PUSH2 0x137A SWAP1 SWAP2 SWAP1 PUSH4 0xFFFFFFFF AND JUMP JUMPDEST SWAP1 POP PUSH2 0x12D8 DUP8 DUP3 PUSH2 0xFC6 JUMP JUMPDEST SWAP7 POP PUSH0 DUP8 GT PUSH2 0x1349 JUMPI PUSH1 0xE DUP6 DUP2 SLOAD DUP2 LT PUSH2 0x12F4 JUMPI PUSH2 0x12F4 PUSH2 0x1D13 JUMP JUMPDEST PUSH0 SWAP2 DUP3 MSTORE PUSH1 0x20 DUP1 DUP4 KECCAK256 SWAP1 SWAP2 ADD DUP1 SLOAD PUSH1 0x1 PUSH1 0x1 PUSH1 0xA0 SHL SUB NOT SWAP1 DUP2 AND SWAP1 SWAP2 SSTORE PUSH1 0x1 PUSH1 0x1 PUSH1 0xA0 SHL SUB SWAP7 SWAP1 SWAP7 AND DUP3 MSTORE PUSH1 0xD DUP2 MSTORE PUSH1 0x40 DUP1 DUP4 KECCAK256 DUP4 DUP2 SSTORE PUSH1 0x1 ADD DUP4 SWAP1 SSTORE PUSH1 0x10 SWAP1 SWAP2 MSTORE SWAP1 KECCAK256 DUP1 SLOAD SWAP1 SWAP5 AND SWAP1 SWAP4 SSTORE POP PUSH2 0x1356 SWAP2 POP POP JUMP JUMPDEST POP POP POP POP JUMPDEST PUSH1 0x1 ADD PUSH2 0x1227 JUMP JUMPDEST POP SWAP3 POP SWAP1 POP JUMPDEST SWAP3 POP SWAP3 SWAP1 POP JUMP JUMPDEST PUSH0 PUSH1 0x64 PUSH2 0x1370 DUP4 DUP6 PUSH2 0x1D27 JUMP JUMPDEST PUSH2 0xFD1 SWAP2 SWAP1 PUSH2 0x1D3E JUMP JUMPDEST PUSH0 PUSH2 0xFD1 DUP3 DUP5 PUSH2 0x1D27 JUMP JUMPDEST PUSH0 PUSH2 0x138F PUSH1 0x2 SLOAD SWAP1 JUMP JUMPDEST SWAP1 POP PUSH0 JUMPDEST PUSH1 0xA SLOAD DUP2 LT ISZERO PUSH2 0xFC1 JUMPI PUSH0 PUSH1 0xA DUP3 DUP2 SLOAD DUP2 LT PUSH2 0x13B1 JUMPI PUSH2 0x13B1 PUSH2 0x1D13 JUMP JUMPDEST PUSH0 SWAP2 DUP3 MSTORE PUSH1 0x20 DUP3 KECCAK256 ADD SLOAD PUSH1 0x1 PUSH1 0x1 PUSH1 0xA0 SHL SUB AND SWAP2 POP PUSH2 0x13E4 DUP3 PUSH1 0x1 PUSH1 0x1 PUSH1 0xA0 SHL SUB AND PUSH0 SWAP1 DUP2 MSTORE PUSH1 0x20 DUP2 SWAP1 MSTORE PUSH1 0x40 SWAP1 KECCAK256 SLOAD SWAP1 JUMP JUMPDEST SWAP1 POP PUSH0 PUSH2 0x13F1 DUP3 DUP7 PUSH2 0x14ED JUMP JUMPDEST SWAP1 POP PUSH2 0x13FD DUP2 DUP8 PUSH2 0x137A JUMP JUMPDEST PUSH1 0x1 PUSH1 0x1 PUSH1 0xA0 SHL SUB SWAP1 SWAP4 AND PUSH0 SWAP1 DUP2 MSTORE PUSH1 0x9 PUSH1 0x20 MSTORE PUSH1 0x40 SWAP1 KECCAK256 SWAP3 SWAP1 SWAP3 SSTORE POP POP PUSH1 0x1 ADD PUSH2 0x1393 JUMP JUMPDEST PUSH1 0x60 PUSH2 0x90B PUSH32 0x0 PUSH1 0x5 PUSH2 0x1791 JUMP JUMPDEST PUSH1 0x60 PUSH2 0x90B PUSH32 0x0 PUSH1 0x6 PUSH2 0x1791 JUMP JUMPDEST PUSH0 PUSH2 0x832 PUSH2 0x1489 PUSH2 0x10B0 JUMP JUMPDEST DUP4 PUSH1 0x40 MLOAD PUSH2 0x1901 PUSH1 0xF0 SHL DUP2 MSTORE PUSH1 0x2 DUP2 ADD SWAP3 SWAP1 SWAP3 MSTORE PUSH1 0x22 DUP3 ADD MSTORE PUSH1 0x42 SWAP1 KECCAK256 SWAP1 JUMP JUMPDEST PUSH0 DUP1 PUSH0 DUP1 PUSH2 0x14B9 DUP9 DUP9 DUP9 DUP9 PUSH2 0x183A JUMP JUMPDEST SWAP3 POP SWAP3 POP SWAP3 POP PUSH2 0x14C9 DUP3 DUP3 PUSH2 0x1902 JUMP JUMPDEST POP SWAP1 SWAP7 SWAP6 POP POP POP POP POP POP JUMP JUMPDEST PUSH0 PUSH2 0x90B PUSH1 0x12 SLOAD PUSH1 0x13 SLOAD PUSH2 0x137A SWAP1 SWAP2 SWAP1 PUSH4 0xFFFFFFFF AND JUMP JUMPDEST PUSH0 PUSH2 0xFD1 DUP3 DUP5 PUSH2 0x1D3E JUMP JUMPDEST PUSH0 PUSH2 0xFD1 DUP3 DUP5 PUSH2 0x1D51 JUMP JUMPDEST PUSH0 PUSH2 0x150D PUSH1 0x2 SLOAD SWAP1 JUMP JUMPDEST SWAP1 POP PUSH0 JUMPDEST PUSH1 0xA SLOAD DUP2 LT ISZERO PUSH2 0xFC1 JUMPI PUSH0 PUSH1 0xA DUP3 DUP2 SLOAD DUP2 LT PUSH2 0x152F JUMPI PUSH2 0x152F PUSH2 0x1D13 JUMP JUMPDEST PUSH0 SWAP2 DUP3 MSTORE PUSH1 0x20 DUP3 KECCAK256 ADD SLOAD PUSH1 0x1 PUSH1 0x1 PUSH1 0xA0 SHL SUB AND SWAP2 POP PUSH2 0x1562 DUP3 PUSH1 0x1 PUSH1 0x1 PUSH1 0xA0 SHL SUB AND PUSH0 SWAP1 DUP2 MSTORE PUSH1 0x20 DUP2 SWAP1 MSTORE PUSH1 0x40 SWAP1 KECCAK256 SLOAD SWAP1 JUMP JUMPDEST SWAP1 POP PUSH0 PUSH2 0x156F DUP3 DUP7 PUSH2 0x14ED JUMP JUMPDEST SWAP1 POP PUSH0 PUSH2 0x157C DUP3 DUP9 PUSH2 0x137A JUMP JUMPDEST SWAP1 POP PUSH2 0x1589 ADDRESS DUP6 DUP4 PUSH2 0x1053 JUMP JUMPDEST POP POP PUSH1 0x1 SWAP1 SWAP3 ADD SWAP2 POP PUSH2 0x1511 SWAP1 POP JUMP JUMPDEST PUSH1 0x1 PUSH1 0x1 PUSH1 0xA0 SHL SUB DUP5 AND PUSH2 0x15C2 JUMPI PUSH1 0x40 MLOAD PUSH4 0xE602DF05 PUSH1 0xE0 SHL DUP2 MSTORE PUSH0 PUSH1 0x4 DUP3 ADD MSTORE PUSH1 0x24 ADD PUSH2 0x6ED JUMP JUMPDEST PUSH1 0x1 PUSH1 0x1 PUSH1 0xA0 SHL SUB DUP4 AND PUSH2 0x15EB JUMPI PUSH1 0x40 MLOAD PUSH4 0x4A1406B1 PUSH1 0xE1 SHL DUP2 MSTORE PUSH0 PUSH1 0x4 DUP3 ADD MSTORE PUSH1 0x24 ADD PUSH2 0x6ED JUMP JUMPDEST PUSH1 0x1 PUSH1 0x1 PUSH1 0xA0 SHL SUB DUP1 DUP6 AND PUSH0 SWAP1 DUP2 MSTORE PUSH1 0x1 PUSH1 0x20 SWAP1 DUP2 MSTORE PUSH1 0x40 DUP1 DUP4 KECCAK256 SWAP4 DUP8 AND DUP4 MSTORE SWAP3 SWAP1 MSTORE KECCAK256 DUP3 SWAP1 SSTORE DUP1 ISZERO PUSH2 0x104D JUMPI DUP3 PUSH1 0x1 PUSH1 0x1 PUSH1 0xA0 SHL SUB AND DUP5 PUSH1 0x1 PUSH1 0x1 PUSH1 0xA0 SHL SUB AND PUSH32 0x8C5BE1E5EBEC7D5BD14F71427D1E84F3DD0314C0F7B2291E5B200AC8C7C3B925 DUP5 PUSH1 0x40 MLOAD PUSH2 0x165D SWAP2 DUP2 MSTORE PUSH1 0x20 ADD SWAP1 JUMP JUMPDEST PUSH1 0x40 MLOAD DUP1 SWAP2 SUB SWAP1 LOG3 POP POP POP POP JUMP JUMPDEST PUSH1 0x1 PUSH1 0x1 PUSH1 0xA0 SHL SUB DUP4 AND PUSH2 0x1695 JUMPI DUP1 PUSH1 0x2 PUSH0 DUP3 DUP3 SLOAD PUSH2 0x168A SWAP2 SWAP1 PUSH2 0x1D51 JUMP JUMPDEST SWAP1 SWAP2 SSTORE POP PUSH2 0x1705 SWAP1 POP JUMP JUMPDEST PUSH1 0x1 PUSH1 0x1 PUSH1 0xA0 SHL SUB DUP4 AND PUSH0 SWAP1 DUP2 MSTORE PUSH1 0x20 DUP2 SWAP1 MSTORE PUSH1 0x40 SWAP1 KECCAK256 SLOAD DUP2 DUP2 LT ISZERO PUSH2 0x16E7 JUMPI PUSH1 0x40 MLOAD PUSH4 0x391434E3 PUSH1 0xE2 SHL DUP2 MSTORE PUSH1 0x1 PUSH1 0x1 PUSH1 0xA0 SHL SUB DUP6 AND PUSH1 0x4 DUP3 ADD MSTORE PUSH1 0x24 DUP2 ADD DUP3 SWAP1 MSTORE PUSH1 0x44 DUP2 ADD DUP4 SWAP1 MSTORE PUSH1 0x64 ADD PUSH2 0x6ED JUMP JUMPDEST PUSH1 0x1 PUSH1 0x1 PUSH1 0xA0 SHL SUB DUP5 AND PUSH0 SWAP1 DUP2 MSTORE PUSH1 0x20 DUP2 SWAP1 MSTORE PUSH1 0x40 SWAP1 KECCAK256 SWAP1 DUP3 SWAP1 SUB SWAP1 SSTORE JUMPDEST PUSH1 0x1 PUSH1 0x1 PUSH1 0xA0 SHL SUB DUP3 AND PUSH2 0x1721 JUMPI PUSH1 0x2 DUP1 SLOAD DUP3 SWAP1 SUB SWAP1 SSTORE PUSH2 0x173F JUMP JUMPDEST PUSH1 0x1 PUSH1 0x1 PUSH1 0xA0 SHL SUB DUP3 AND PUSH0 SWAP1 DUP2 MSTORE PUSH1 0x20 DUP2 SWAP1 MSTORE PUSH1 0x40 SWAP1 KECCAK256 DUP1 SLOAD DUP3 ADD SWAP1 SSTORE JUMPDEST DUP2 PUSH1 0x1 PUSH1 0x1 PUSH1 0xA0 SHL SUB AND DUP4 PUSH1 0x1 PUSH1 0x1 PUSH1 0xA0 SHL SUB AND PUSH32 0xDDF252AD1BE2C89B69C2B068FC378DAA952BA7F163C4A11628F55A4DF523B3EF DUP4 PUSH1 0x40 MLOAD PUSH2 0x1784 SWAP2 DUP2 MSTORE PUSH1 0x20 ADD SWAP1 JUMP JUMPDEST PUSH1 0x40 MLOAD DUP1 SWAP2 SUB SWAP1 LOG3 POP POP POP JUMP JUMPDEST PUSH1 0x60 PUSH1 0xFF DUP4 EQ PUSH2 0x17AB JUMPI PUSH2 0x17A4 DUP4 PUSH2 0x19BA JUMP JUMPDEST SWAP1 POP PUSH2 0x832 JUMP JUMPDEST DUP2 DUP1 SLOAD PUSH2 0x17B7 SWAP1 PUSH2 0x1C8D JUMP JUMPDEST DUP1 PUSH1 0x1F ADD PUSH1 0x20 DUP1 SWAP2 DIV MUL PUSH1 0x20 ADD PUSH1 0x40 MLOAD SWAP1 DUP2 ADD PUSH1 0x40 MSTORE DUP1 SWAP3 SWAP2 SWAP1 DUP2 DUP2 MSTORE PUSH1 0x20 ADD DUP3 DUP1 SLOAD PUSH2 0x17E3 SWAP1 PUSH2 0x1C8D JUMP JUMPDEST DUP1 ISZERO PUSH2 0x182E JUMPI DUP1 PUSH1 0x1F LT PUSH2 0x1805 JUMPI PUSH2 0x100 DUP1 DUP4 SLOAD DIV MUL DUP4 MSTORE SWAP2 PUSH1 0x20 ADD SWAP2 PUSH2 0x182E JUMP JUMPDEST DUP3 ADD SWAP2 SWAP1 PUSH0 MSTORE PUSH1 0x20 PUSH0 KECCAK256 SWAP1 JUMPDEST DUP2 SLOAD DUP2 MSTORE SWAP1 PUSH1 0x1 ADD SWAP1 PUSH1 0x20 ADD DUP1 DUP4 GT PUSH2 0x1811 JUMPI DUP3 SWAP1 SUB PUSH1 0x1F AND DUP3 ADD SWAP2 JUMPDEST POP POP POP POP POP SWAP1 POP PUSH2 0x832 JUMP JUMPDEST PUSH0 DUP1 DUP1 PUSH32 0x7FFFFFFFFFFFFFFFFFFFFFFFFFFFFFFF5D576E7357A4501DDFE92F46681B20A0 DUP5 GT ISZERO PUSH2 0x1873 JUMPI POP PUSH0 SWAP2 POP PUSH1 0x3 SWAP1 POP DUP3 PUSH2 0x18F8 JUMP JUMPDEST PUSH1 0x40 DUP1 MLOAD PUSH0 DUP1 DUP3 MSTORE PUSH1 0x20 DUP3 ADD DUP1 DUP5 MSTORE DUP11 SWAP1 MSTORE PUSH1 0xFF DUP10 AND SWAP3 DUP3 ADD SWAP3 SWAP1 SWAP3 MSTORE PUSH1 0x60 DUP2 ADD DUP8 SWAP1 MSTORE PUSH1 0x80 DUP2 ADD DUP7 SWAP1 MSTORE PUSH1 0x1 SWAP1 PUSH1 0xA0 ADD PUSH1 0x20 PUSH1 0x40 MLOAD PUSH1 0x20 DUP2 SUB SWAP1 DUP1 DUP5 SUB SWAP1 DUP6 GAS STATICCALL ISZERO DUP1 ISZERO PUSH2 0x18C4 JUMPI RETURNDATASIZE PUSH0 DUP1 RETURNDATACOPY RETURNDATASIZE PUSH0 REVERT JUMPDEST POP POP PUSH1 0x40 MLOAD PUSH1 0x1F NOT ADD MLOAD SWAP2 POP POP PUSH1 0x1 PUSH1 0x1 PUSH1 0xA0 SHL SUB DUP2 AND PUSH2 0x18EF JUMPI POP PUSH0 SWAP3 POP PUSH1 0x1 SWAP2 POP DUP3 SWAP1 POP PUSH2 0x18F8 JUMP JUMPDEST SWAP3 POP PUSH0 SWAP2 POP DUP2 SWAP1 POP JUMPDEST SWAP5 POP SWAP5 POP SWAP5 SWAP2 POP POP JUMP JUMPDEST PUSH0 DUP3 PUSH1 0x3 DUP2 GT ISZERO PUSH2 0x1915 JUMPI PUSH2 0x1915 PUSH2 0x1D64 JUMP JUMPDEST SUB PUSH2 0x191E JUMPI POP POP JUMP JUMPDEST PUSH1 0x1 DUP3 PUSH1 0x3 DUP2 GT ISZERO PUSH2 0x1932 JUMPI PUSH2 0x1932 PUSH2 0x1D64 JUMP JUMPDEST SUB PUSH2 0x1950 JUMPI PUSH1 0x40 MLOAD PUSH4 0xF645EEDF PUSH1 0xE0 SHL DUP2 MSTORE PUSH1 0x4 ADD PUSH1 0x40 MLOAD DUP1 SWAP2 SUB SWAP1 REVERT JUMPDEST PUSH1 0x2 DUP3 PUSH1 0x3 DUP2 GT ISZERO PUSH2 0x1964 JUMPI PUSH2 0x1964 PUSH2 0x1D64 JUMP JUMPDEST SUB PUSH2 0x1985 JUMPI PUSH1 0x40 MLOAD PUSH4 0xFCE698F7 PUSH1 0xE0 SHL DUP2 MSTORE PUSH1 0x4 DUP2 ADD DUP3 SWAP1 MSTORE PUSH1 0x24 ADD PUSH2 0x6ED JUMP JUMPDEST PUSH1 0x3 DUP3 PUSH1 0x3 DUP2 GT ISZERO PUSH2 0x1999 JUMPI PUSH2 0x1999 PUSH2 0x1D64 JUMP JUMPDEST SUB PUSH2 0xB70 JUMPI PUSH1 0x40 MLOAD PUSH4 0x35E2F383 PUSH1 0xE2 SHL DUP2 MSTORE PUSH1 0x4 DUP2 ADD DUP3 SWAP1 MSTORE PUSH1 0x24 ADD PUSH2 0x6ED JUMP JUMPDEST PUSH1 0x60 PUSH0 PUSH2 0x19C6 DUP4 PUSH2 0x19F7 JUMP JUMPDEST PUSH1 0x40 DUP1 MLOAD PUSH1 0x20 DUP1 DUP3 MSTORE DUP2 DUP4 ADD SWAP1 SWAP3 MSTORE SWAP2 SWAP3 POP PUSH0 SWAP2 SWAP1 PUSH1 0x20 DUP3 ADD DUP2 DUP1 CALLDATASIZE DUP4 CALLDATACOPY POP POP POP SWAP2 DUP3 MSTORE POP PUSH1 0x20 DUP2 ADD SWAP3 SWAP1 SWAP3 MSTORE POP SWAP1 JUMP JUMPDEST PUSH0 PUSH1 0xFF DUP3 AND PUSH1 0x1F DUP2 GT ISZERO PUSH2 0x832 JUMPI PUSH1 0x40 MLOAD PUSH4 0x2CD44AC3 PUSH1 0xE2 SHL DUP2 MSTORE PUSH1 0x4 ADD PUSH1 0x40 MLOAD DUP1 SWAP2 SUB SWAP1 REVERT JUMPDEST PUSH0 DUP2 MLOAD DUP1 DUP5 MSTORE DUP1 PUSH1 0x20 DUP5 ADD PUSH1 0x20 DUP7 ADD MCOPY PUSH0 PUSH1 0x20 DUP3 DUP7 ADD ADD MSTORE PUSH1 0x20 PUSH1 0x1F NOT PUSH1 0x1F DUP4 ADD AND DUP6 ADD ADD SWAP2 POP POP SWAP3 SWAP2 POP POP JUMP JUMPDEST PUSH1 0x20 DUP2 MSTORE PUSH0 PUSH2 0xFD1 PUSH1 0x20 DUP4 ADD DUP5 PUSH2 0x1A1E JUMP JUMPDEST PUSH1 0x1 PUSH1 0x1 PUSH1 0xA0 SHL SUB DUP2 AND DUP2 EQ PUSH2 0x939 JUMPI PUSH0 DUP1 REVERT JUMPDEST PUSH0 DUP1 PUSH1 0x40 DUP4 DUP6 SUB SLT ISZERO PUSH2 0x1A83 JUMPI PUSH0 DUP1 REVERT JUMPDEST DUP3 CALLDATALOAD PUSH2 0x1A8E DUP2 PUSH2 0x1A5E JUMP JUMPDEST SWAP5 PUSH1 0x20 SWAP4 SWAP1 SWAP4 ADD CALLDATALOAD SWAP4 POP POP POP JUMP JUMPDEST PUSH0 PUSH1 0x20 DUP3 DUP5 SUB SLT ISZERO PUSH2 0x1AAC JUMPI PUSH0 DUP1 REVERT JUMPDEST POP CALLDATALOAD SWAP2 SWAP1 POP JUMP JUMPDEST PUSH0 PUSH1 0x20 DUP3 DUP5 SUB SLT ISZERO PUSH2 0x1AC3 JUMPI PUSH0 DUP1 REVERT JUMPDEST DUP2 CALLDATALOAD PUSH2 0xFD1 DUP2 PUSH2 0x1A5E JUMP JUMPDEST PUSH0 DUP1 PUSH0 PUSH1 0x60 DUP5 DUP7 SUB SLT ISZERO PUSH2 0x1AE0 JUMPI PUSH0 DUP1 REVERT JUMPDEST DUP4 CALLDATALOAD PUSH2 0x1AEB DUP2 PUSH2 0x1A5E JUMP JUMPDEST SWAP3 POP PUSH1 0x20 DUP5 ADD CALLDATALOAD PUSH2 0x1AFB DUP2 PUSH2 0x1A5E JUMP JUMPDEST SWAP3 SWAP6 SWAP3 SWAP5 POP POP POP PUSH1 0x40 SWAP2 SWAP1 SWAP2 ADD CALLDATALOAD SWAP1 JUMP JUMPDEST PUSH0 DUP1 PUSH1 0x40 DUP4 DUP6 SUB SLT ISZERO PUSH2 0x1B1D JUMPI PUSH0 DUP1 REVERT JUMPDEST POP POP DUP1 CALLDATALOAD SWAP3 PUSH1 0x20 SWAP1 SWAP2 ADD CALLDATALOAD SWAP2 POP JUMP JUMPDEST PUSH1 0xFF PUSH1 0xF8 SHL DUP9 AND DUP2 MSTORE PUSH1 0xE0 PUSH1 0x20 DUP3 ADD MSTORE PUSH0 PUSH2 0x1B4A PUSH1 0xE0 DUP4 ADD DUP10 PUSH2 0x1A1E JUMP JUMPDEST DUP3 DUP2 SUB PUSH1 0x40 DUP5 ADD MSTORE PUSH2 0x1B5C DUP2 DUP10 PUSH2 0x1A1E JUMP JUMPDEST PUSH1 0x60 DUP5 ADD DUP9 SWAP1 MSTORE PUSH1 0x1 PUSH1 0x1 PUSH1 0xA0 SHL SUB DUP8 AND PUSH1 0x80 DUP6 ADD MSTORE PUSH1 0xA0 DUP5 ADD DUP7 SWAP1 MSTORE DUP4 DUP2 SUB PUSH1 0xC0 DUP6 ADD MSTORE DUP5 MLOAD DUP1 DUP3 MSTORE PUSH1 0x20 DUP1 DUP8 ADD SWAP4 POP SWAP1 SWAP2 ADD SWAP1 PUSH0 JUMPDEST DUP2 DUP2 LT ISZERO PUSH2 0x1BB1 JUMPI DUP4 MLOAD DUP4 MSTORE PUSH1 0x20 SWAP4 DUP5 ADD SWAP4 SWAP1 SWAP3 ADD SWAP2 PUSH1 0x1 ADD PUSH2 0x1B93 JUMP JUMPDEST POP SWAP1 SWAP12 SWAP11 POP POP POP POP POP POP POP POP POP POP POP JUMP JUMPDEST PUSH0 DUP1 PUSH1 0x40 DUP4 DUP6 SUB SLT ISZERO PUSH2 0x1BD3 JUMPI PUSH0 DUP1 REVERT JUMPDEST DUP3 CALLDATALOAD SWAP2 POP PUSH1 0x20 DUP4 ADD CALLDATALOAD PUSH2 0x1BE5 DUP2 PUSH2 0x1A5E JUMP JUMPDEST DUP1 SWAP2 POP POP SWAP3 POP SWAP3 SWAP1 POP JUMP JUMPDEST PUSH0 DUP1 PUSH0 DUP1 PUSH0 DUP1 PUSH0 PUSH1 0xE0 DUP9 DUP11 SUB SLT ISZERO PUSH2 0x1C06 JUMPI PUSH0 DUP1 REVERT JUMPDEST DUP8 CALLDATALOAD PUSH2 0x1C11 DUP2 PUSH2 0x1A5E JUMP JUMPDEST SWAP7 POP PUSH1 0x20 DUP9 ADD CALLDATALOAD PUSH2 0x1C21 DUP2 PUSH2 0x1A5E JUMP JUMPDEST SWAP6 POP PUSH1 0x40 DUP9 ADD CALLDATALOAD SWAP5 POP PUSH1 0x60 DUP9 ADD CALLDATALOAD SWAP4 POP PUSH1 0x80 DUP9 ADD CALLDATALOAD PUSH1 0xFF DUP2 AND DUP2 EQ PUSH2 0x1C44 JUMPI PUSH0 DUP1 REVERT JUMPDEST SWAP7 SWAP10 SWAP6 SWAP9 POP SWAP4 SWAP7 SWAP3 SWAP6 SWAP5 PUSH1 0xA0 DUP5 ADD CALLDATALOAD SWAP5 POP PUSH1 0xC0 SWAP1 SWAP4 ADD CALLDATALOAD SWAP3 SWAP2 POP POP JUMP JUMPDEST PUSH0 DUP1 PUSH1 0x40 DUP4 DUP6 SUB SLT ISZERO PUSH2 0x1C72 JUMPI PUSH0 DUP1 REVERT JUMPDEST DUP3 CALLDATALOAD PUSH2 0x1C7D DUP2 PUSH2 0x1A5E JUMP JUMPDEST SWAP2 POP PUSH1 0x20 DUP4 ADD CALLDATALOAD PUSH2 0x1BE5 DUP2 PUSH2 0x1A5E JUMP JUMPDEST PUSH1 0x1 DUP2 DUP2 SHR SWAP1 DUP3 AND DUP1 PUSH2 0x1CA1 JUMPI PUSH1 0x7F DUP3 AND SWAP2 POP JUMPDEST PUSH1 0x20 DUP3 LT DUP2 SUB PUSH2 0x1CBF JUMPI PUSH4 0x4E487B71 PUSH1 0xE0 SHL PUSH0 MSTORE PUSH1 0x22 PUSH1 0x4 MSTORE PUSH1 0x24 PUSH0 REVERT JUMPDEST POP SWAP2 SWAP1 POP JUMP JUMPDEST PUSH4 0x4E487B71 PUSH1 0xE0 SHL PUSH0 MSTORE PUSH1 0x12 PUSH1 0x4 MSTORE PUSH1 0x24 PUSH0 REVERT JUMPDEST PUSH0 DUP3 PUSH2 0x1CE7 JUMPI PUSH2 0x1CE7 PUSH2 0x1CC5 JUMP JUMPDEST POP MOD SWAP1 JUMP JUMPDEST PUSH4 0x4E487B71 PUSH1 0xE0 SHL PUSH0 MSTORE PUSH1 0x11 PUSH1 0x4 MSTORE PUSH1 0x24 PUSH0 REVERT JUMPDEST DUP2 DUP2 SUB DUP2 DUP2 GT ISZERO PUSH2 0x832 JUMPI PUSH2 0x832 PUSH2 0x1CEC JUMP JUMPDEST PUSH4 0x4E487B71 PUSH1 0xE0 SHL PUSH0 MSTORE PUSH1 0x32 PUSH1 0x4 MSTORE PUSH1 0x24 PUSH0 REVERT JUMPDEST DUP1 DUP3 MUL DUP2 ISZERO DUP3 DUP3 DIV DUP5 EQ OR PUSH2 0x832 JUMPI PUSH2 0x832 PUSH2 0x1CEC JUMP JUMPDEST PUSH0 DUP3 PUSH2 0x1D4C JUMPI PUSH2 0x1D4C PUSH2 0x1CC5 JUMP JUMPDEST POP DIV SWAP1 JUMP JUMPDEST DUP1 DUP3 ADD DUP1 DUP3 GT ISZERO PUSH2 0x832 JUMPI PUSH2 0x832 PUSH2 0x1CEC JUMP JUMPDEST PUSH4 0x4E487B71 PUSH1 0xE0 SHL PUSH0 MSTORE PUSH1 0x21 PUSH1 0x4 MSTORE PUSH1 0x24 PUSH0 REVERT INVALID LOG2 PUSH5 0x6970667358 0x22 SLT KECCAK256 CALLER PUSH25 0x6DFF2A6BB044CB81D710FEB79ECEDAD0A2933BFACED1DC38B 0xC1 0xC7 0xE4 EXTCODECOPY SWAP10 PUSH5 0x736F6C6343 STOP ADDMOD BYTE STOP CALLER "
		},
		"gasEstimates": {
			"creation": {
				"codeDepositCost": "1519600",
				"executionCost": "infinite",
				"totalCost": "infinite"
			},
			"external": {
				"DOMAIN_SEPARATOR()": "infinite",
				"addressOfBuyBook(uint256)": "4701",
				"addressesOfTokenHolders(uint256)": "4657",
				"allowance(address,address)": "infinite",
				"approve(address,uint256)": "24775",
				"balanceOf(address)": "2643",
				"balances(address)": "2556",
				"burn(uint256)": "51005",
				"burnFrom(address,uint256)": "infinite",
				"buyBook(address)": "4738",
				"buyTaxPercentage()": "2339",
				"cancelBuyOrder()": "infinite",
				"cancelSellOrder()": "63230",
				"currentMarketBuyPrice()": "2404",
				"currentMarketSellPrice()": "2382",
				"decimals()": "288",
				"eip712Domain()": "infinite",
				"getBalance()": "306",
				"getSenderBalance()": "2490",
				"initialPricePerBNB()": "2385",
				"name()": "infinite",
				"nonces(address)": "2651",
				"permit(address,address,uint256,uint256,uint8,bytes32,bytes32)": "infinite",
				"priceIncrement()": "2362",
				"refundAddress(address)": "2660",
				"registerBuyOrder(uint256,address)": "infinite",
				"registerSellOrder(uint256,uint256)": "infinite",
				"sellBook(address)": "4739",
				"sellTaxPercentage()": "2361",
				"symbol()": "infinite",
				"totalBNBReceived()": "2384",
				"totalSupply()": "2359",
				"transfer(address,uint256)": "51321",
				"transferFrom(address,address,uint256)": "infinite",
				"withdrawBNB(uint256)": "infinite"
			},
			"internal": {
				"_calculateAmountOfNewTokens(uint256,uint256)": "infinite",
				"_executeBuy(uint256,uint256,uint256,uint256,address payable)": "infinite",
				"_priceOfNewTokens()": "infinite",
				"_sellFromBuyBook(uint256,uint256)": "infinite",
				"_shareBnbReward(uint256)": "infinite",
				"_shareTokenReward(uint256)": "infinite",
				"calculatePercentage(uint256,uint256)": "176"
			}
		},
		"methodIdentifiers": {
			"DOMAIN_SEPARATOR()": "3644e515",
			"addressOfBuyBook(uint256)": "67f0c279",
			"addressesOfTokenHolders(uint256)": "5ebb7ad1",
			"allowance(address,address)": "dd62ed3e",
			"approve(address,uint256)": "095ea7b3",
			"balanceOf(address)": "70a08231",
			"balances(address)": "27e235e3",
			"burn(uint256)": "42966c68",
			"burnFrom(address,uint256)": "79cc6790",
			"buyBook(address)": "a715e2fc",
			"buyTaxPercentage()": "760bf186",
			"cancelBuyOrder()": "5ee4462c",
			"cancelSellOrder()": "39b50688",
			"currentMarketBuyPrice()": "e53f1c82",
			"currentMarketSellPrice()": "e07b489d",
			"decimals()": "313ce567",
			"eip712Domain()": "84b0196e",
			"getBalance()": "12065fe0",
			"getSenderBalance()": "ff18253b",
			"initialPricePerBNB()": "0e3f7c00",
			"name()": "06fdde03",
			"nonces(address)": "7ecebe00",
			"permit(address,address,uint256,uint256,uint8,bytes32,bytes32)": "d505accf",
			"priceIncrement()": "280d62ac",
			"refundAddress(address)": "48a3e889",
			"registerBuyOrder(uint256,address)": "9dd2d589",
			"registerSellOrder(uint256,uint256)": "50e4c1de",
			"sellBook(address)": "21c378e6",
			"sellTaxPercentage()": "9e7d8d1d",
			"symbol()": "95d89b41",
			"totalBNBReceived()": "287294c8",
			"totalSupply()": "18160ddd",
			"transfer(address,uint256)": "a9059cbb",
			"transferFrom(address,address,uint256)": "23b872dd",
			"withdrawBNB(uint256)": "127f4b2e"
		}
	},
	"abi": [
		{
			"inputs": [
				{
					"internalType": "uint256",
					"name": "_initialPricePerBNB",
					"type": "uint256"
				},
				{
					"internalType": "uint256",
					"name": "_priceIncrement",
					"type": "uint256"
				},
				{
					"internalType": "uint256",
					"name": "_buyTaxPercentage",
					"type": "uint256"
				},
				{
					"internalType": "uint256",
					"name": "_sellTaxPercentage",
					"type": "uint256"
				}
			],
			"stateMutability": "nonpayable",
			"type": "constructor"
		},
		{
			"inputs": [],
			"name": "ECDSAInvalidSignature",
			"type": "error"
		},
		{
			"inputs": [
				{
					"internalType": "uint256",
					"name": "length",
					"type": "uint256"
				}
			],
			"name": "ECDSAInvalidSignatureLength",
			"type": "error"
		},
		{
			"inputs": [
				{
					"internalType": "bytes32",
					"name": "s",
					"type": "bytes32"
				}
			],
			"name": "ECDSAInvalidSignatureS",
			"type": "error"
		},
		{
			"inputs": [
				{
					"internalType": "address",
					"name": "spender",
					"type": "address"
				},
				{
					"internalType": "uint256",
					"name": "allowance",
					"type": "uint256"
				},
				{
					"internalType": "uint256",
					"name": "needed",
					"type": "uint256"
				}
			],
			"name": "ERC20InsufficientAllowance",
			"type": "error"
		},
		{
			"inputs": [
				{
					"internalType": "address",
					"name": "sender",
					"type": "address"
				},
				{
					"internalType": "uint256",
					"name": "balance",
					"type": "uint256"
				},
				{
					"internalType": "uint256",
					"name": "needed",
					"type": "uint256"
				}
			],
			"name": "ERC20InsufficientBalance",
			"type": "error"
		},
		{
			"inputs": [
				{
					"internalType": "address",
					"name": "approver",
					"type": "address"
				}
			],
			"name": "ERC20InvalidApprover",
			"type": "error"
		},
		{
			"inputs": [
				{
					"internalType": "address",
					"name": "receiver",
					"type": "address"
				}
			],
			"name": "ERC20InvalidReceiver",
			"type": "error"
		},
		{
			"inputs": [
				{
					"internalType": "address",
					"name": "sender",
					"type": "address"
				}
			],
			"name": "ERC20InvalidSender",
			"type": "error"
		},
		{
			"inputs": [
				{
					"internalType": "address",
					"name": "spender",
					"type": "address"
				}
			],
			"name": "ERC20InvalidSpender",
			"type": "error"
		},
		{
			"inputs": [
				{
					"internalType": "uint256",
					"name": "deadline",
					"type": "uint256"
				}
			],
			"name": "ERC2612ExpiredSignature",
			"type": "error"
		},
		{
			"inputs": [
				{
					"internalType": "address",
					"name": "signer",
					"type": "address"
				},
				{
					"internalType": "address",
					"name": "owner",
					"type": "address"
				}
			],
			"name": "ERC2612InvalidSigner",
			"type": "error"
		},
		{
			"inputs": [
				{
					"internalType": "address",
					"name": "account",
					"type": "address"
				},
				{
					"internalType": "uint256",
					"name": "currentNonce",
					"type": "uint256"
				}
			],
			"name": "InvalidAccountNonce",
			"type": "error"
		},
		{
			"inputs": [],
			"name": "InvalidShortString",
			"type": "error"
		},
		{
			"inputs": [
				{
					"internalType": "string",
					"name": "str",
					"type": "string"
				}
			],
			"name": "StringTooLong",
			"type": "error"
		},
		{
			"anonymous": false,
			"inputs": [
				{
					"indexed": true,
					"internalType": "address",
					"name": "owner",
					"type": "address"
				},
				{
					"indexed": true,
					"internalType": "address",
					"name": "spender",
					"type": "address"
				},
				{
					"indexed": false,
					"internalType": "uint256",
					"name": "value",
					"type": "uint256"
				}
			],
			"name": "Approval",
			"type": "event"
		},
		{
			"anonymous": false,
			"inputs": [],
			"name": "EIP712DomainChanged",
			"type": "event"
		},
		{
			"anonymous": false,
			"inputs": [
				{
					"indexed": true,
					"internalType": "address",
					"name": "from",
					"type": "address"
				},
				{
					"indexed": true,
					"internalType": "address",
					"name": "to",
					"type": "address"
				},
				{
					"indexed": false,
					"internalType": "uint256",
					"name": "value",
					"type": "uint256"
				}
			],
			"name": "Transfer",
			"type": "event"
		},
		{
			"inputs": [],
			"name": "DOMAIN_SEPARATOR",
			"outputs": [
				{
					"internalType": "bytes32",
					"name": "",
					"type": "bytes32"
				}
			],
			"stateMutability": "view",
			"type": "function"
		},
		{
			"inputs": [
				{
					"internalType": "uint256",
					"name": "",
					"type": "uint256"
				}
			],
			"name": "addressOfBuyBook",
			"outputs": [
				{
					"internalType": "address",
					"name": "",
					"type": "address"
				}
			],
			"stateMutability": "view",
			"type": "function"
		},
		{
			"inputs": [
				{
					"internalType": "uint256",
					"name": "",
					"type": "uint256"
				}
			],
			"name": "addressesOfTokenHolders",
			"outputs": [
				{
					"internalType": "address",
					"name": "",
					"type": "address"
				}
			],
			"stateMutability": "view",
			"type": "function"
		},
		{
			"inputs": [
				{
					"internalType": "address",
					"name": "owner",
					"type": "address"
				},
				{
					"internalType": "address",
					"name": "spender",
					"type": "address"
				}
			],
			"name": "allowance",
			"outputs": [
				{
					"internalType": "uint256",
					"name": "",
					"type": "uint256"
				}
			],
			"stateMutability": "view",
			"type": "function"
		},
		{
			"inputs": [
				{
					"internalType": "address",
					"name": "spender",
					"type": "address"
				},
				{
					"internalType": "uint256",
					"name": "value",
					"type": "uint256"
				}
			],
			"name": "approve",
			"outputs": [
				{
					"internalType": "bool",
					"name": "",
					"type": "bool"
				}
			],
			"stateMutability": "nonpayable",
			"type": "function"
		},
		{
			"inputs": [
				{
					"internalType": "address",
					"name": "account",
					"type": "address"
				}
			],
			"name": "balanceOf",
			"outputs": [
				{
					"internalType": "uint256",
					"name": "",
					"type": "uint256"
				}
			],
			"stateMutability": "view",
			"type": "function"
		},
		{
			"inputs": [
				{
					"internalType": "address",
					"name": "",
					"type": "address"
				}
			],
			"name": "balances",
			"outputs": [
				{
					"internalType": "uint256",
					"name": "",
					"type": "uint256"
				}
			],
			"stateMutability": "view",
			"type": "function"
		},
		{
			"inputs": [
				{
					"internalType": "uint256",
					"name": "value",
					"type": "uint256"
				}
			],
			"name": "burn",
			"outputs": [],
			"stateMutability": "nonpayable",
			"type": "function"
		},
		{
			"inputs": [
				{
					"internalType": "address",
					"name": "account",
					"type": "address"
				},
				{
					"internalType": "uint256",
					"name": "value",
					"type": "uint256"
				}
			],
			"name": "burnFrom",
			"outputs": [],
			"stateMutability": "nonpayable",
			"type": "function"
		},
		{
			"inputs": [
				{
					"internalType": "address",
					"name": "",
					"type": "address"
				}
			],
			"name": "buyBook",
			"outputs": [
				{
					"internalType": "uint256",
					"name": "amount",
					"type": "uint256"
				},
				{
					"internalType": "uint256",
					"name": "pricePerUnit",
					"type": "uint256"
				}
			],
			"stateMutability": "view",
			"type": "function"
		},
		{
			"inputs": [],
			"name": "buyTaxPercentage",
			"outputs": [
				{
					"internalType": "uint256",
					"name": "",
					"type": "uint256"
				}
			],
			"stateMutability": "view",
			"type": "function"
		},
		{
			"inputs": [],
			"name": "cancelBuyOrder",
			"outputs": [],
			"stateMutability": "payable",
			"type": "function"
		},
		{
			"inputs": [],
			"name": "cancelSellOrder",
			"outputs": [],
			"stateMutability": "nonpayable",
			"type": "function"
		},
		{
			"inputs": [],
			"name": "currentMarketBuyPrice",
			"outputs": [
				{
					"internalType": "uint256",
					"name": "",
					"type": "uint256"
				}
			],
			"stateMutability": "view",
			"type": "function"
		},
		{
			"inputs": [],
			"name": "currentMarketSellPrice",
			"outputs": [
				{
					"internalType": "uint256",
					"name": "",
					"type": "uint256"
				}
			],
			"stateMutability": "view",
			"type": "function"
		},
		{
			"inputs": [],
			"name": "decimals",
			"outputs": [
				{
					"internalType": "uint8",
					"name": "",
					"type": "uint8"
				}
			],
			"stateMutability": "view",
			"type": "function"
		},
		{
			"inputs": [],
			"name": "eip712Domain",
			"outputs": [
				{
					"internalType": "bytes1",
					"name": "fields",
					"type": "bytes1"
				},
				{
					"internalType": "string",
					"name": "name",
					"type": "string"
				},
				{
					"internalType": "string",
					"name": "version",
					"type": "string"
				},
				{
					"internalType": "uint256",
					"name": "chainId",
					"type": "uint256"
				},
				{
					"internalType": "address",
					"name": "verifyingContract",
					"type": "address"
				},
				{
					"internalType": "bytes32",
					"name": "salt",
					"type": "bytes32"
				},
				{
					"internalType": "uint256[]",
					"name": "extensions",
					"type": "uint256[]"
				}
			],
			"stateMutability": "view",
			"type": "function"
		},
		{
			"inputs": [],
			"name": "getBalance",
			"outputs": [
				{
					"internalType": "uint256",
					"name": "",
					"type": "uint256"
				}
			],
			"stateMutability": "view",
			"type": "function"
		},
		{
			"inputs": [],
			"name": "getSenderBalance",
			"outputs": [
				{
					"internalType": "uint256",
					"name": "",
					"type": "uint256"
				}
			],
			"stateMutability": "view",
			"type": "function"
		},
		{
			"inputs": [],
			"name": "initialPricePerBNB",
			"outputs": [
				{
					"internalType": "uint256",
					"name": "",
					"type": "uint256"
				}
			],
			"stateMutability": "view",
			"type": "function"
		},
		{
			"inputs": [],
			"name": "name",
			"outputs": [
				{
					"internalType": "string",
					"name": "",
					"type": "string"
				}
			],
			"stateMutability": "view",
			"type": "function"
		},
		{
			"inputs": [
				{
					"internalType": "address",
					"name": "owner",
					"type": "address"
				}
			],
			"name": "nonces",
			"outputs": [
				{
					"internalType": "uint256",
					"name": "",
					"type": "uint256"
				}
			],
			"stateMutability": "view",
			"type": "function"
		},
		{
			"inputs": [
				{
					"internalType": "address",
					"name": "owner",
					"type": "address"
				},
				{
					"internalType": "address",
					"name": "spender",
					"type": "address"
				},
				{
					"internalType": "uint256",
					"name": "value",
					"type": "uint256"
				},
				{
					"internalType": "uint256",
					"name": "deadline",
					"type": "uint256"
				},
				{
					"internalType": "uint8",
					"name": "v",
					"type": "uint8"
				},
				{
					"internalType": "bytes32",
					"name": "r",
					"type": "bytes32"
				},
				{
					"internalType": "bytes32",
					"name": "s",
					"type": "bytes32"
				}
			],
			"name": "permit",
			"outputs": [],
			"stateMutability": "nonpayable",
			"type": "function"
		},
		{
			"inputs": [],
			"name": "priceIncrement",
			"outputs": [
				{
					"internalType": "uint256",
					"name": "",
					"type": "uint256"
				}
			],
			"stateMutability": "view",
			"type": "function"
		},
		{
			"inputs": [
				{
					"internalType": "address",
					"name": "",
					"type": "address"
				}
			],
			"name": "refundAddress",
			"outputs": [
				{
					"internalType": "address payable",
					"name": "",
					"type": "address"
				}
			],
			"stateMutability": "view",
			"type": "function"
		},
		{
			"inputs": [
				{
					"internalType": "uint256",
					"name": "requestedPrice",
					"type": "uint256"
				},
				{
					"internalType": "address payable",
					"name": "refundTo",
					"type": "address"
				}
			],
			"name": "registerBuyOrder",
			"outputs": [],
			"stateMutability": "payable",
			"type": "function"
		},
		{
			"inputs": [
				{
					"internalType": "uint256",
					"name": "amountOfTokens",
					"type": "uint256"
				},
				{
					"internalType": "uint256",
					"name": "requestedPricePerToken",
					"type": "uint256"
				}
			],
			"name": "registerSellOrder",
			"outputs": [],
			"stateMutability": "nonpayable",
			"type": "function"
		},
		{
			"inputs": [
				{
					"internalType": "address",
					"name": "",
					"type": "address"
				}
			],
			"name": "sellBook",
			"outputs": [
				{
					"internalType": "uint256",
					"name": "amount",
					"type": "uint256"
				},
				{
					"internalType": "uint256",
					"name": "pricePerUnit",
					"type": "uint256"
				}
			],
			"stateMutability": "view",
			"type": "function"
		},
		{
			"inputs": [],
			"name": "sellTaxPercentage",
			"outputs": [
				{
					"internalType": "uint256",
					"name": "",
					"type": "uint256"
				}
			],
			"stateMutability": "view",
			"type": "function"
		},
		{
			"inputs": [],
			"name": "symbol",
			"outputs": [
				{
					"internalType": "string",
					"name": "",
					"type": "string"
				}
			],
			"stateMutability": "view",
			"type": "function"
		},
		{
			"inputs": [],
			"name": "totalBNBReceived",
			"outputs": [
				{
					"internalType": "uint256",
					"name": "",
					"type": "uint256"
				}
			],
			"stateMutability": "view",
			"type": "function"
		},
		{
			"inputs": [],
			"name": "totalSupply",
			"outputs": [
				{
					"internalType": "uint256",
					"name": "",
					"type": "uint256"
				}
			],
			"stateMutability": "view",
			"type": "function"
		},
		{
			"inputs": [
				{
					"internalType": "address",
					"name": "to",
					"type": "address"
				},
				{
					"internalType": "uint256",
					"name": "value",
					"type": "uint256"
				}
			],
			"name": "transfer",
			"outputs": [
				{
					"internalType": "bool",
					"name": "",
					"type": "bool"
				}
			],
			"stateMutability": "nonpayable",
			"type": "function"
		},
		{
			"inputs": [
				{
					"internalType": "address",
					"name": "from",
					"type": "address"
				},
				{
					"internalType": "address",
					"name": "to",
					"type": "address"
				},
				{
					"internalType": "uint256",
					"name": "value",
					"type": "uint256"
				}
			],
			"name": "transferFrom",
			"outputs": [
				{
					"internalType": "bool",
					"name": "",
					"type": "bool"
				}
			],
			"stateMutability": "nonpayable",
			"type": "function"
		},
		{
			"inputs": [
				{
					"internalType": "uint256",
					"name": "amount",
					"type": "uint256"
				}
			],
			"name": "withdrawBNB",
			"outputs": [],
			"stateMutability": "nonpayable",
			"type": "function"
		},
		{
			"stateMutability": "payable",
			"type": "receive"
		}
	]
}