{
	"data": {
		"bytecode": {
			"linkReferences": {},
			"object": "60a060405230608052348015610013575f80fd5b5061001c610021565b6100d3565b7ff0c57e16840df040f15088dc2f81fe391c3923bec73e23a9662efc9c229c6a00805468010000000000000000900460ff16156100715760405163f92ee8a960e01b815260040160405180910390fd5b80546001600160401b03908116146100d05780546001600160401b0319166001600160401b0390811782556040519081527fc7f505b2f371ae2175ee4913f4499e1f2633a7b5936321eed1cdaeb6115181d29060200160405180910390a15b50565b608051613b2c6100f95f395f81816115c7015281816115f001526117530152613b2c5ff3fe60806040526004361061025f575f3560e01c806370a082311161013f578063ad3cb1cc116100b3578063d539139311610078578063d539139314610760578063d547741f14610793578063e63ab1e9146107b2578063e985e9c5146107d2578063f72c0d8b146107f1578063f8c8765e14610824575f80fd5b8063ad3cb1cc146106b4578063b88d4fde146106e4578063c3cda52014610703578063c87b56dd14610722578063d204c45e14610741575f80fd5b806391d148541161010457806391d148541461060e57806391ddadf41461062d57806395d89b411461064f5780639ab24eb014610663578063a217fddf14610682578063a22cb46514610695575f80fd5b806370a08231146105425780637ecebe00146105615780638456cb59146105b457806384b0196e146105c85780638e539e8c146105ef575f80fd5b80633f4ba83a116101d65780634f6ccce71161019b5780634f6ccce71461048f57806352d1902d146104ae578063587cde1e146104c25780635c19a95c146104e15780635c975abb146105005780636352211e14610523575f80fd5b80633f4ba83a146103f457806342842e0e1461040857806342966c68146104275780634bf5d7e9146104465780634f1ef2861461047c575f80fd5b806323b872dd1161022757806323b872dd1461033a578063248a9ca3146103595780632f2ff15d146103785780632f745c591461039757806336568abe146103b65780633a46b1a8146103d5575f80fd5b806301ffc9a71461026357806306fdde0314610297578063081812fc146102b8578063095ea7b3146102ef57806318160ddd14610310575b5f80fd5b34801561026e575f80fd5b5061028261027d36600461327b565b610843565b60405190151581526020015b60405180910390f35b3480156102a2575f80fd5b506102ab610853565b60405161028e91906132c4565b3480156102c3575f80fd5b506102d76102d23660046132d6565b6108f4565b6040516001600160a01b03909116815260200161028e565b3480156102fa575f80fd5b5061030e610309366004613308565b610908565b005b34801561031b575f80fd5b505f80516020613a97833981519152545b60405190815260200161028e565b348015610345575f80fd5b5061030e610354366004613330565b610917565b348015610364575f80fd5b5061032c6103733660046132d6565b6109a5565b348015610383575f80fd5b5061030e61039236600461336a565b6109c5565b3480156103a2575f80fd5b5061032c6103b1366004613308565b6109e1565b3480156103c1575f80fd5b5061030e6103d036600461336a565b610a52565b3480156103e0575f80fd5b5061032c6103ef366004613308565b610a8a565b3480156103ff575f80fd5b5061030e610b10565b348015610413575f80fd5b5061030e610422366004613330565b610b32565b348015610432575f80fd5b5061030e6104413660046132d6565b610b4c565b348015610451575f80fd5b5060408051808201909152600e81526d06d6f64653d74696d657374616d760941b60208201526102ab565b61030e61048a36600461343d565b610b57565b34801561049a575f80fd5b5061032c6104a93660046132d6565b610b72565b3480156104b9575f80fd5b5061032c610be4565b3480156104cd575f80fd5b506102d76104dc366004613488565b610bff565b3480156104ec575f80fd5b5061030e6104fb366004613488565b610c28565b34801561050b575f80fd5b505f80516020613ad78339815191525460ff16610282565b34801561052e575f80fd5b506102d761053d3660046132d6565b610c33565b34801561054d575f80fd5b5061032c61055c366004613488565b610c3d565b34801561056c575f80fd5b5061032c61057b366004613488565b6001600160a01b03165f9081527f5ab42ced628888259c08ac98db1eb0cf702fc1501344311d8b100cd1bfe4bb00602052604090205490565b3480156105bf575f80fd5b5061030e610c95565b3480156105d3575f80fd5b506105dc610cb4565b60405161028e97969594939291906134a1565b3480156105fa575f80fd5b5061032c6106093660046132d6565b610d5d565b348015610619575f80fd5b5061028261062836600461336a565b610dcd565b348015610638575f80fd5b5060405165ffffffffffff4216815260200161028e565b34801561065a575f80fd5b506102ab610e03565b34801561066e575f80fd5b5061032c61067d366004613488565b610e41565b34801561068d575f80fd5b5061032c5f81565b3480156106a0575f80fd5b5061030e6106af366004613537565b610e9f565b3480156106bf575f80fd5b506102ab604051806040016040528060058152602001640352e302e360dc1b81525081565b3480156106ef575f80fd5b5061030e6106fe366004613570565b610eaa565b34801561070e575f80fd5b5061030e61071d3660046135d4565b610ec2565b34801561072d575f80fd5b506102ab61073c3660046132d6565b610f7e565b34801561074c575f80fd5b5061030e61075b36600461362f565b610f89565b34801561076b575f80fd5b5061032c7f9f2df0fed2c77648de5860a4cc508cd0818c85b8b8a1ab4ceeef8d981c8956a681565b34801561079e575f80fd5b5061030e6107ad36600461336a565b610fdb565b3480156107bd575f80fd5b5061032c5f80516020613a7783398151915281565b3480156107dd575f80fd5b506102826107ec366004613683565b610ff7565b3480156107fc575f80fd5b5061032c7f189ab7a9244df0848122154315af71fe140f3db0fe014031783b0946b8c9d2e381565b34801561082f575f80fd5b5061030e61083e3660046136ab565b611043565b5f61084d8261129c565b92915050565b5f80516020613a178339815191528054606091908190610872906136fc565b80601f016020809104026020016040519081016040528092919081815260200182805461089e906136fc565b80156108e95780601f106108c0576101008083540402835291602001916108e9565b820191905f5260205f20905b8154815290600101906020018083116108cc57829003601f168201915b505050505091505090565b5f6108fe826112c0565b5061084d826112f7565b610913828233611330565b5050565b6001600160a01b03821661094557604051633250574960e11b81525f60048201526024015b60405180910390fd5b5f61095183833361133d565b9050836001600160a01b0316816001600160a01b03161461099f576040516364283d7b60e01b81526001600160a01b038086166004830152602482018490528216604482015260640161093c565b50505050565b5f9081525f80516020613ab7833981519152602052604090206001015490565b6109ce826109a5565b6109d781611353565b61099f838361135d565b5f5f805160206139f78339815191526109f984610c3d565b8310610a2a5760405163295f44f760e21b81526001600160a01b03851660048201526024810184905260440161093c565b6001600160a01b0384165f908152602091825260408082208583529092522054905092915050565b6001600160a01b0381163314610a7b5760405163334bd91960e11b815260040160405180910390fd5b610a8582826113fe565b505050565b5f5f805160206139d78339815191524265ffffffffffff81168410610ad357604051637669fc0f60e11b81526004810185905265ffffffffffff8216602482015260440161093c565b610afe610adf85611477565b6001600160a01b0387165f9081526001850160205260409020906114ad565b6001600160d01b031695945050505050565b5f80516020613a77833981519152610b2781611353565b610b2f61155d565b50565b610a8583838360405180602001604052805f815250610eaa565b6109135f823361133d565b610b5f6115bc565b610b6882611662565b610913828261168c565b5f5f805160206139f7833981519152610b965f80516020613a978339815191525490565b8310610bbe5760405163295f44f760e21b81525f60048201526024810184905260440161093c565b806002018381548110610bd357610bd3613734565b905f5260205f200154915050919050565b5f610bed611748565b505f80516020613a5783398151915290565b6001600160a01b039081165f9081525f805160206139d783398151915260205260409020541690565b336109138183611791565b5f61084d826112c0565b5f5f80516020613a178339815191526001600160a01b038316610c75576040516322718ad960e21b81525f600482015260240161093c565b6001600160a01b039092165f908152600390920160205250604090205490565b5f80516020613a77833981519152610cac81611353565b610b2f611818565b5f60608082808083815f80516020613a378339815191528054909150158015610cdf57506001810154155b610d235760405162461bcd60e51b81526020600482015260156024820152741152540dcc4c8e88155b9a5b9a5d1a585b1a5e9959605a1b604482015260640161093c565b610d2b611860565b610d3361189e565b604080515f80825260208201909252600f60f81b9c939b5091995046985030975095509350915050565b5f5f805160206139d78339815191524265ffffffffffff81168410610da657604051637669fc0f60e11b81526004810185905265ffffffffffff8216602482015260440161093c565b610dbc610db285611477565b60028401906114ad565b6001600160d01b0316949350505050565b5f9182525f80516020613ab7833981519152602090815260408084206001600160a01b0393909316845291905290205460ff1690565b7f80bb2b638cc20bc4d0a60d66940f3ab4a00c1d7b313497ca82fb0b4ab007930180546060915f80516020613a1783398151915291610872906136fc565b6001600160a01b0381165f9081527fe8b26c30fad74198956032a3533d903385d56dd795af560196f9c78d4af40d01602052604081205f805160206139d783398151915290610e8f906118dc565b6001600160d01b03169392505050565b610913338383611913565b610eb5848484610917565b61099f33858585856119c2565b83421115610ee657604051632341d78760e11b81526004810185905260240161093c565b604080517fe48329057bfd03d55e49b547132e39cffd9c1820ad7b9d4c5307691425d15adf60208201526001600160a01b0388169181019190915260608101869052608081018590525f90610f5f90610f579060a00160405160208183030381529060405280519060200120611aea565b858585611b16565b9050610f6b8187611b42565b610f758188611791565b50505050505050565b606061084d82611bb3565b7f9f2df0fed2c77648de5860a4cc508cd0818c85b8b8a1ab4ceeef8d981c8956a6610fb381611353565b5f80548180610fc18361375c565b919050559050610fd18482611d08565b61099f8184611d21565b610fe4826109a5565b610fed81611353565b61099f83836113fe565b6001600160a01b039182165f9081527f80bb2b638cc20bc4d0a60d66940f3ab4a00c1d7b313497ca82fb0b4ab00793056020908152604080832093909416825291909152205460ff1690565b7ff0c57e16840df040f15088dc2f81fe391c3923bec73e23a9662efc9c229c6a008054600160401b810460ff16159067ffffffffffffffff165f811580156110885750825b90505f8267ffffffffffffffff1660011480156110a45750303b155b9050811580156110b2575080155b156110d05760405163f92ee8a960e01b815260040160405180910390fd5b845467ffffffffffffffff1916600117855583156110fa57845460ff60401b1916600160401b1785555b61114b6040518060400160405280601481526020017329b2b93b34b1b2a83937bb34b232b92a37b5b2b760611b8152506040518060400160405280600381526020016214d41560ea1b815250611d93565b611153611da5565b61115b611da5565b611163611dad565b61116b611da5565b611173611da5565b6111c26040518060400160405280601481526020017329b2b93b34b1b2a83937bb34b232b92a37b5b2b760611b815250604051806040016040528060018152602001603160f81b815250611dbd565b6111ca611da5565b6111d2611da5565b6111dc5f8a61135d565b506111f45f80516020613a778339815191528961135d565b5061121f7f9f2df0fed2c77648de5860a4cc508cd0818c85b8b8a1ab4ceeef8d981c8956a68861135d565b5061124a7f189ab7a9244df0848122154315af71fe140f3db0fe014031783b0946b8c9d2e38761135d565b50831561129157845460ff60401b19168555604051600181527fc7f505b2f371ae2175ee4913f4499e1f2633a7b5936321eed1cdaeb6115181d29060200160405180910390a15b505050505050505050565b5f6001600160e01b03198216637965db0b60e01b148061084d575061084d82611dcf565b5f806112cb83611df3565b90506001600160a01b03811661084d57604051637e27328960e01b81526004810184905260240161093c565b5f9081527f80bb2b638cc20bc4d0a60d66940f3ab4a00c1d7b313497ca82fb0b4ab007930460205260409020546001600160a01b031690565b610a858383836001611e2c565b5f611349848484611f3f565b90505b9392505050565b610b2f8133611f5a565b5f5f80516020613ab78339815191526113768484610dcd565b6113f5575f848152602082815260408083206001600160a01b03871684529091529020805460ff191660011790556113ab3390565b6001600160a01b0316836001600160a01b0316857f2f8788117e7eff1d82e926ec794901d17c78024a50270940304540a733656f0d60405160405180910390a4600191505061084d565b5f91505061084d565b5f5f80516020613ab78339815191526114178484610dcd565b156113f5575f848152602082815260408083206001600160a01b0387168085529252808320805460ff1916905551339287917ff6391f5c32d9c69d2a47ea670b442974b53935d1edc7fd64eb21e047a839171b9190a4600191505061084d565b5f65ffffffffffff8211156114a9576040516306dfcc6560e41b8152603060048201526024810183905260440161093c565b5090565b81545f9081816005811115611509575f6114c684611f93565b6114d09085613774565b5f8881526020902090915081015465ffffffffffff90811690871610156114f957809150611507565b611504816001613787565b92505b505b5f611516878785856120e6565b905080156115505761153a8761152d600184613774565b5f91825260209091200190565b54600160301b90046001600160d01b0316611552565b5f5b979650505050505050565b611565612145565b5f80516020613ad7833981519152805460ff191681557f5db9ee0a495bf2e6ff9c91a7834c1ba4fdd244a5e8aa4e537bd38aeae4b073aa335b6040516001600160a01b03909116815260200160405180910390a150565b306001600160a01b037f000000000000000000000000000000000000000000000000000000000000000016148061164257507f00000000000000000000000000000000000000000000000000000000000000006001600160a01b03166116365f80516020613a57833981519152546001600160a01b031690565b6001600160a01b031614155b156116605760405163703e46dd60e11b815260040160405180910390fd5b565b7f189ab7a9244df0848122154315af71fe140f3db0fe014031783b0946b8c9d2e361091381611353565b816001600160a01b03166352d1902d6040518163ffffffff1660e01b8152600401602060405180830381865afa9250505080156116e6575060408051601f3d908101601f191682019092526116e39181019061379a565b60015b61170e57604051634c9c8ce360e01b81526001600160a01b038316600482015260240161093c565b5f80516020613a57833981519152811461173e57604051632a87526960e21b81526004810182905260240161093c565b610a858383612174565b306001600160a01b037f000000000000000000000000000000000000000000000000000000000000000016146116605760405163703e46dd60e11b815260040160405180910390fd5b5f805160206139d78339815191525f6117a984610bff565b6001600160a01b038581165f8181526020869052604080822080546001600160a01b031916898616908117909155905194955093928516927f3134e8a2e6d97e929a7e54011ea5485d7d196dd5f0ba4d4ef95803e8e3fc257f9190a461099f8184611813876121c9565b6121d3565b611820612349565b5f80516020613ad7833981519152805460ff191660011781557f62e78cea01bee320cd4e420270b5ea74000d11b0c9f74754ebdbfc544b05a2583361159e565b7fa16a46d94261c7517cc8ff89f61c0ce93598e3c849801011dee649a6a557d10280546060915f80516020613a3783398151915291610872906136fc565b7fa16a46d94261c7517cc8ff89f61c0ce93598e3c849801011dee649a6a557d10380546060915f80516020613a3783398151915291610872906136fc565b80545f90801561190b576118f58361152d600184613774565b54600160301b90046001600160d01b031661134c565b5f9392505050565b5f80516020613a178339815191526001600160a01b03831661195357604051630b61174360e31b81526001600160a01b038416600482015260240161093c565b6001600160a01b038481165f818152600584016020908152604080832094881680845294825291829020805460ff191687151590811790915591519182527f17307eab39ab6107e8899845ad3d59bd9653f200f220920489ca2b5937696c31910160405180910390a350505050565b6001600160a01b0383163b15611ae357604051630a85bd0160e11b81526001600160a01b0384169063150b7a0290611a049088908890879087906004016137b1565b6020604051808303815f875af1925050508015611a3e575060408051601f3d908101601f19168201909252611a3b918101906137ed565b60015b611aa5573d808015611a6b576040519150601f19603f3d011682016040523d82523d5f602084013e611a70565b606091505b5080515f03611a9d57604051633250574960e11b81526001600160a01b038516600482015260240161093c565b805181602001fd5b6001600160e01b03198116630a85bd0160e11b14611ae157604051633250574960e11b81526001600160a01b038516600482015260240161093c565b505b5050505050565b5f61084d611af6612379565b8360405161190160f01b8152600281019290925260228201526042902090565b5f805f80611b2688888888612387565b925092509250611b36828261244f565b50909695505050505050565b6001600160a01b0382165f9081527f5ab42ced628888259c08ac98db1eb0cf702fc1501344311d8b100cd1bfe4bb0060205260409020805460018101909155818114610a85576040516301d4b62360e61b81526001600160a01b03841660048201526024810182905260440161093c565b60607f0542a41881ee128a365a727b282c86fa859579490b9bb45aab8503648c8e7900611bdf836112c0565b505f8381526020829052604081208054611bf8906136fc565b80601f0160208091040260200160405190810160405280929190818152602001828054611c24906136fc565b8015611c6f5780601f10611c4657610100808354040283529160200191611c6f565b820191905f5260205f20905b815481529060010190602001808311611c5257829003601f168201915b505050505090505f611cb16040805180820190915260208082527f68747470733a2f2f796f75725f626173655f75726c2e636f6d2f746f6b656e739082015290565b905080515f03611cc357509392505050565b815115611cf6578082604051602001611cdd92919061381f565b6040516020818303038152906040529350505050919050565b611cff85612507565b95945050505050565b610913828260405180602001604052805f81525061259d565b5f8281527f0542a41881ee128a365a727b282c86fa859579490b9bb45aab8503648c8e790060208190526040909120611d5a8382613877565b506040518381527ff8e1a15aba9398e019f0b49df1a4fde98ee17ae345cb5f6b5e2c27f5033e8ce79060200160405180910390a1505050565b611d9b6125b4565b61091382826125fd565b6116606125b4565b611db56125b4565b61166061262d565b611dc56125b4565b610913828261264d565b5f6001600160e01b03198216632483248360e11b148061084d575061084d826126ac565b5f9081527f80bb2b638cc20bc4d0a60d66940f3ab4a00c1d7b313497ca82fb0b4ab007930260205260409020546001600160a01b031690565b5f80516020613a178339815191528180611e4e57506001600160a01b03831615155b15611f0f575f611e5d856112c0565b90506001600160a01b03841615801590611e895750836001600160a01b0316816001600160a01b031614155b8015611e9c5750611e9a8185610ff7565b155b15611ec55760405163a9fbf51f60e01b81526001600160a01b038516600482015260240161093c565b8215611f0d5784866001600160a01b0316826001600160a01b03167f8c5be1e5ebec7d5bd14f71427d1e84f3dd0314c0f7b2291e5b200ac8c7c3b92560405160405180910390a45b505b5f93845260040160205250506040902080546001600160a01b0319166001600160a01b0392909216919091179055565b5f80611f4c8585856126d0565b9050611349818660016126e4565b611f648282610dcd565b6109135760405163e2517d3f60e01b81526001600160a01b03821660048201526024810183905260440161093c565b5f60018211611fa0575090565b816001600160801b8210611fb95760809190911c9060401b5b600160401b8210611fcf5760409190911c9060201b5b6401000000008210611fe65760209190911c9060101b5b620100008210611ffb5760109190911c9060081b5b610100821061200f5760089190911c9060041b5b601082106120225760049190911c9060021b5b6004821061202e5760011b5b600302600190811c9081858161204657612046613932565b048201901c9050600181858161205e5761205e613932565b048201901c9050600181858161207657612076613932565b048201901c9050600181858161208e5761208e613932565b048201901c905060018185816120a6576120a6613932565b048201901c905060018185816120be576120be613932565b048201901c90506120dd8185816120d7576120d7613932565b04821190565b90039392505050565b5f5b8183101561213d575f6120fb8484612755565b5f8781526020902090915065ffffffffffff86169082015465ffffffffffff16111561212957809250612137565b612134816001613787565b93505b506120e8565b509392505050565b5f80516020613ad78339815191525460ff1661166057604051638dfc202b60e01b815260040160405180910390fd5b61217d8261276f565b6040516001600160a01b038316907fbc7cd75a20ee27fd9adebab32041f755214dbc6bffa90cc0225b39da2e5c2d3b905f90a28051156121c157610a8582826127d2565b61091361283b565b5f61084d82610c3d565b5f805160206139d78339815191526001600160a01b03848116908416148015906121fc57505f82115b1561099f576001600160a01b038416156122a5576001600160a01b0384165f908152600182016020526040812081906122409061285a61223b87612865565b612898565b6001600160d01b031691506001600160d01b03169150856001600160a01b03167fdec2bacdd2f05b59de34da9b523dff8be42e5e38e818c82fdb0bae774387a724838360405161229a929190918252602082015260400190565b60405180910390a250505b6001600160a01b0383161561099f576001600160a01b0383165f908152600182016020526040812081906122df906128c961223b87612865565b6001600160d01b031691506001600160d01b03169150846001600160a01b03167fdec2bacdd2f05b59de34da9b523dff8be42e5e38e818c82fdb0bae774387a7248383604051612339929190918252602082015260400190565b60405180910390a2505050505050565b5f80516020613ad78339815191525460ff16156116605760405163d93c066560e01b815260040160405180910390fd5b5f6123826128d4565b905090565b5f80807f7fffffffffffffffffffffffffffffff5d576e7357a4501ddfe92f46681b20a08411156123c057505f91506003905082612445565b604080515f808252602082018084528a905260ff891692820192909252606081018790526080810186905260019060a0016020604051602081039080840390855afa158015612411573d5f803e3d5ffd5b5050604051601f1901519150506001600160a01b03811661243c57505f925060019150829050612445565b92505f91508190505b9450945094915050565b5f82600381111561246257612462613946565b0361246b575050565b600182600381111561247f5761247f613946565b0361249d5760405163f645eedf60e01b815260040160405180910390fd5b60028260038111156124b1576124b1613946565b036124d25760405163fce698f760e01b81526004810182905260240161093c565b60038260038111156124e6576124e6613946565b03610913576040516335e2f38360e21b81526004810182905260240161093c565b6060612512826112c0565b505f61254e6040805180820190915260208082527f68747470733a2f2f796f75725f626173655f75726c2e636f6d2f746f6b656e739082015290565b90505f81511161256c5760405180602001604052805f81525061134c565b8061257684612947565b60405160200161258792919061381f565b6040516020818303038152906040529392505050565b6125a783836129d7565b610a85335f8585856119c2565b7ff0c57e16840df040f15088dc2f81fe391c3923bec73e23a9662efc9c229c6a0054600160401b900460ff1661166057604051631afcd79f60e31b815260040160405180910390fd5b6126056125b4565b5f80516020613a178339815191528061261e8482613877565b506001810161099f8382613877565b6126356125b4565b5f80516020613ad7833981519152805460ff19169055565b6126556125b4565b5f80516020613a378339815191527fa16a46d94261c7517cc8ff89f61c0ce93598e3c849801011dee649a6a557d10261268e8482613877565b506003810161269d8382613877565b505f8082556001909101555050565b5f6001600160e01b0319821663780e9d6360e01b148061084d575061084d82612a38565b5f6126d9612349565b611349848484612a87565b5f805160206139d78339815191526001600160a01b03841661271657612713816002016128c961223b85612865565b50505b6001600160a01b03831661273a576127378160020161285a61223b85612865565b50505b61099f61274685610bff565b61274f85610bff565b846121d3565b5f612763600284841861395a565b61134c90848416613787565b806001600160a01b03163b5f036127a457604051634c9c8ce360e01b81526001600160a01b038216600482015260240161093c565b5f80516020613a5783398151915280546001600160a01b0319166001600160a01b0392909216919091179055565b60605f80846001600160a01b0316846040516127ee9190613979565b5f60405180830381855af49150503d805f8114612826576040519150601f19603f3d011682016040523d82523d5f602084013e61282b565b606091505b5091509150611cff858383612b7d565b34156116605760405163b398979f60e01b815260040160405180910390fd5b5f61134c8284613984565b5f6001600160d01b038211156114a9576040516306dfcc6560e41b815260d060048201526024810183905260440161093c565b5f806128bc426128b46128aa886118dc565b868863ffffffff16565b879190612bd9565b915091505b935093915050565b5f61134c82846139a3565b5f7f8b73c3c69bb8fe3d512ecc4cf759cc79239f7b179b0ffacaa9a75d522b39400f6128fe612be6565b612906612c4e565b60408051602081019490945283019190915260608201524660808201523060a082015260c00160405160208183030381529060405280519060200120905090565b60605f61295383612c90565b60010190505f8167ffffffffffffffff81111561297257612972613394565b6040519080825280601f01601f19166020018201604052801561299c576020820181803683370190505b5090508181016020015b5f19016f181899199a1a9b1b9c1cb0b131b232b360811b600a86061a8153600a85049450846129a657509392505050565b6001600160a01b038216612a0057604051633250574960e11b81525f600482015260240161093c565b5f612a0c83835f61133d565b90506001600160a01b03811615610a85576040516339e3563760e11b81525f600482015260240161093c565b5f6001600160e01b031982166380ac58cd60e01b1480612a6857506001600160e01b03198216635b5e139f60e01b145b8061084d57506301ffc9a760e01b6001600160e01b031983161461084d565b5f80612a94858585612d67565b90506001600160a01b038116612b1b57612b16845f80516020613a9783398151915280545f8381527f645e039705490088daad89bae25049a34f4a9072d398537b1ab2425f24cbed0360205260408120829055600182018355919091527fa42f15e5d656f8155fd7419d740a6073999f19cd6e061449ce4a257150545bf20155565b612b3e565b846001600160a01b0316816001600160a01b031614612b3e57612b3e8185612e69565b6001600160a01b038516612b5a57612b5584612f00565b611349565b846001600160a01b0316816001600160a01b031614611349576113498585612fcd565b606082612b9257612b8d82613025565b61134c565b8151158015612ba957506001600160a01b0384163b155b15612bd257604051639996b31560e01b81526001600160a01b038516600482015260240161093c565b508061134c565b5f806128bc85858561304e565b5f5f80516020613a3783398151915281612bfe611860565b805190915015612c1657805160209091012092915050565b81548015612c25579392505050565b7fc5d2460186f7233c927e7db2dcc703c0e500b653ca82273b7bfad8045d85a470935050505090565b5f5f80516020613a3783398151915281612c6661189e565b805190915015612c7e57805160209091012092915050565b60018201548015612c25579392505050565b5f8072184f03e93ff9f4daa797ed6e38ed64bf6a1f0160401b8310612cce5772184f03e93ff9f4daa797ed6e38ed64bf6a1f0160401b830492506040015b6d04ee2d6d415b85acef81000000008310612cfa576d04ee2d6d415b85acef8100000000830492506020015b662386f26fc100008310612d1857662386f26fc10000830492506010015b6305f5e1008310612d30576305f5e100830492506008015b6127108310612d4457612710830492506004015b60648310612d56576064830492506002015b600a831061084d5760010192915050565b5f5f80516020613a1783398151915281612d8085611df3565b90506001600160a01b03841615612d9c57612d9c81858761319e565b6001600160a01b03811615612dd857612db75f865f80611e2c565b6001600160a01b0381165f908152600383016020526040902080545f190190555b6001600160a01b03861615612e08576001600160a01b0386165f9081526003830160205260409020805460010190555b5f85815260028301602052604080822080546001600160a01b0319166001600160a01b038a811691821790925591518893918516917fddf252ad1be2c89b69c2b068fc378daa952ba7f163c4a11628f55a4df523b3ef91a495945050505050565b5f805160206139f78339815191525f612e8184610c3d565b5f8481526001840160209081526040808320546001600160a01b03891684529186905290912091925090818314612ed9575f838152602082815260408083205485845281842081905583526001870190915290208290555b5f948552600190930160209081526040808620869055928552929092528220919091555050565b5f80516020613a97833981519152545f805160206139f7833981519152905f90612f2c90600190613774565b5f848152600384016020526040812054600285018054939450909284908110612f5757612f57613734565b905f5260205f200154905080846002018381548110612f7857612f78613734565b5f91825260208083209091019290925582815260038601909152604080822084905586825281205560028401805480612fb357612fb36139c2565b600190038181905f5260205f20015f905590555050505050565b5f805160206139f78339815191525f6001612fe785610c3d565b612ff19190613774565b6001600160a01b039094165f9081526020838152604080832087845282528083208690559482526001909301909252502055565b8051156130355780518082602001fd5b60405163d6bda27560e01b815260040160405180910390fd5b82545f9081908015613144575f61306a8761152d600185613774565b805490915065ffffffffffff80821691600160301b90046001600160d01b03169088168211156130ad57604051632520601d60e01b815260040160405180910390fd5b8765ffffffffffff168265ffffffffffff16036130e657825465ffffffffffff16600160301b6001600160d01b03891602178355613136565b6040805180820190915265ffffffffffff808a1682526001600160d01b03808a1660208085019182528d54600181018f555f8f81529190912094519151909216600160301b029216919091179101555b94508593506128c192505050565b50506040805180820190915265ffffffffffff80851682526001600160d01b0380851660208085019182528854600181018a555f8a815291822095519251909316600160301b0291909316179201919091559050816128c1565b6131a9838383613202565b610a85576001600160a01b0383166131d757604051637e27328960e01b81526004810182905260240161093c565b60405163177e802f60e01b81526001600160a01b03831660048201526024810182905260440161093c565b5f6001600160a01b038316158015906113495750826001600160a01b0316846001600160a01b0316148061323b575061323b8484610ff7565b806113495750826001600160a01b0316613254836112f7565b6001600160a01b031614949350505050565b6001600160e01b031981168114610b2f575f80fd5b5f6020828403121561328b575f80fd5b813561134c81613266565b5f81518084528060208401602086015e5f602082860101526020601f19601f83011685010191505092915050565b602081525f61134c6020830184613296565b5f602082840312156132e6575f80fd5b5035919050565b80356001600160a01b0381168114613303575f80fd5b919050565b5f8060408385031215613319575f80fd5b613322836132ed565b946020939093013593505050565b5f805f60608486031215613342575f80fd5b61334b846132ed565b9250613359602085016132ed565b929592945050506040919091013590565b5f806040838503121561337b575f80fd5b8235915061338b602084016132ed565b90509250929050565b634e487b7160e01b5f52604160045260245ffd5b5f8067ffffffffffffffff8411156133c2576133c2613394565b50604051601f19601f85018116603f0116810181811067ffffffffffffffff821117156133f1576133f1613394565b604052838152905080828401851015613408575f80fd5b838360208301375f60208583010152509392505050565b5f82601f83011261342e575f80fd5b61134c838335602085016133a8565b5f806040838503121561344e575f80fd5b613457836132ed565b9150602083013567ffffffffffffffff811115613472575f80fd5b61347e8582860161341f565b9150509250929050565b5f60208284031215613498575f80fd5b61134c826132ed565b60ff60f81b8816815260e060208201525f6134bf60e0830189613296565b82810360408401526134d18189613296565b606084018890526001600160a01b038716608085015260a0840186905283810360c0850152845180825260208087019350909101905f5b81811015613526578351835260209384019390920191600101613508565b50909b9a5050505050505050505050565b5f8060408385031215613548575f80fd5b613551836132ed565b915060208301358015158114613565575f80fd5b809150509250929050565b5f805f8060808587031215613583575f80fd5b61358c856132ed565b935061359a602086016132ed565b925060408501359150606085013567ffffffffffffffff8111156135bc575f80fd5b6135c88782880161341f565b91505092959194509250565b5f805f805f8060c087890312156135e9575f80fd5b6135f2876132ed565b95506020870135945060408701359350606087013560ff81168114613615575f80fd5b9598949750929560808101359460a0909101359350915050565b5f8060408385031215613640575f80fd5b613649836132ed565b9150602083013567ffffffffffffffff811115613664575f80fd5b8301601f81018513613674575f80fd5b61347e858235602084016133a8565b5f8060408385031215613694575f80fd5b61369d836132ed565b915061338b602084016132ed565b5f805f80608085870312156136be575f80fd5b6136c7856132ed565b93506136d5602086016132ed565b92506136e3604086016132ed565b91506136f1606086016132ed565b905092959194509250565b600181811c9082168061371057607f821691505b60208210810361372e57634e487b7160e01b5f52602260045260245ffd5b50919050565b634e487b7160e01b5f52603260045260245ffd5b634e487b7160e01b5f52601160045260245ffd5b5f6001820161376d5761376d613748565b5060010190565b8181038181111561084d5761084d613748565b8082018082111561084d5761084d613748565b5f602082840312156137aa575f80fd5b5051919050565b6001600160a01b03858116825284166020820152604081018390526080606082018190525f906137e390830184613296565b9695505050505050565b5f602082840312156137fd575f80fd5b815161134c81613266565b5f81518060208401855e5f93019283525090919050565b5f61134961382d8386613808565b84613808565b601f821115610a8557805f5260205f20601f840160051c810160208510156138585750805b601f840160051c820191505b81811015611ae3575f8155600101613864565b815167ffffffffffffffff81111561389157613891613394565b6138a58161389f84546136fc565b84613833565b6020601f8211600181146138d7575f83156138c05750848201515b5f19600385901b1c1916600184901b178455611ae3565b5f84815260208120601f198516915b8281101561390657878501518255602094850194600190920191016138e6565b508482101561392357868401515f19600387901b60f8161c191681555b50505050600190811b01905550565b634e487b7160e01b5f52601260045260245ffd5b634e487b7160e01b5f52602160045260245ffd5b5f8261397457634e487b7160e01b5f52601260045260245ffd5b500490565b5f61134c8284613808565b6001600160d01b03828116828216039081111561084d5761084d613748565b6001600160d01b03818116838216019081111561084d5761084d613748565b634e487b7160e01b5f52603160045260245ffdfee8b26c30fad74198956032a3533d903385d56dd795af560196f9c78d4af40d00645e039705490088daad89bae25049a34f4a9072d398537b1ab2425f24cbed0080bb2b638cc20bc4d0a60d66940f3ab4a00c1d7b313497ca82fb0b4ab0079300a16a46d94261c7517cc8ff89f61c0ce93598e3c849801011dee649a6a557d100360894a13ba1a3210667c828492db98dca3e2076cc3735a920a3ca505d382bbc65d7a28e3265b37a6474929f336521b332c1681b933f6cb9f3376673440d862a645e039705490088daad89bae25049a34f4a9072d398537b1ab2425f24cbed0202dd7bc7dec4dceedda775e58dd541e08a116c6c53815c0bd028192f7b626800cd5ed15c6e187e77e9aee88184c21f4f2182ab5827cb3b7e07fbedcd63f03300a2646970667358221220501e84ded827276d1f470686042c8cbc5e596d80957ff95a906fe0aaee5f19ed64736f6c634300081a0033",
			"opcodes": "PUSH1 0xA0 PUSH1 0x40 MSTORE ADDRESS PUSH1 0x80 MSTORE CALLVALUE DUP1 ISZERO PUSH2 0x13 JUMPI PUSH0 DUP1 REVERT JUMPDEST POP PUSH2 0x1C PUSH2 0x21 JUMP JUMPDEST PUSH2 0xD3 JUMP JUMPDEST PUSH32 0xF0C57E16840DF040F15088DC2F81FE391C3923BEC73E23A9662EFC9C229C6A00 DUP1 SLOAD PUSH9 0x10000000000000000 SWAP1 DIV PUSH1 0xFF AND ISZERO PUSH2 0x71 JUMPI PUSH1 0x40 MLOAD PUSH4 0xF92EE8A9 PUSH1 0xE0 SHL DUP2 MSTORE PUSH1 0x4 ADD PUSH1 0x40 MLOAD DUP1 SWAP2 SUB SWAP1 REVERT JUMPDEST DUP1 SLOAD PUSH1 0x1 PUSH1 0x1 PUSH1 0x40 SHL SUB SWAP1 DUP2 AND EQ PUSH2 0xD0 JUMPI DUP1 SLOAD PUSH1 0x1 PUSH1 0x1 PUSH1 0x40 SHL SUB NOT AND PUSH1 0x1 PUSH1 0x1 PUSH1 0x40 SHL SUB SWAP1 DUP2 OR DUP3 SSTORE PUSH1 0x40 MLOAD SWAP1 DUP2 MSTORE PUSH32 0xC7F505B2F371AE2175EE4913F4499E1F2633A7B5936321EED1CDAEB6115181D2 SWAP1 PUSH1 0x20 ADD PUSH1 0x40 MLOAD DUP1 SWAP2 SUB SWAP1 LOG1 JUMPDEST POP JUMP JUMPDEST PUSH1 0x80 MLOAD PUSH2 0x3B2C PUSH2 0xF9 PUSH0 CODECOPY PUSH0 DUP2 DUP2 PUSH2 0x15C7 ADD MSTORE DUP2 DUP2 PUSH2 0x15F0 ADD MSTORE PUSH2 0x1753 ADD MSTORE PUSH2 0x3B2C PUSH0 RETURN INVALID PUSH1 0x80 PUSH1 0x40 MSTORE PUSH1 0x4 CALLDATASIZE LT PUSH2 0x25F JUMPI PUSH0 CALLDATALOAD PUSH1 0xE0 SHR DUP1 PUSH4 0x70A08231 GT PUSH2 0x13F JUMPI DUP1 PUSH4 0xAD3CB1CC GT PUSH2 0xB3 JUMPI DUP1 PUSH4 0xD5391393 GT PUSH2 0x78 JUMPI DUP1 PUSH4 0xD5391393 EQ PUSH2 0x760 JUMPI DUP1 PUSH4 0xD547741F EQ PUSH2 0x793 JUMPI DUP1 PUSH4 0xE63AB1E9 EQ PUSH2 0x7B2 JUMPI DUP1 PUSH4 0xE985E9C5 EQ PUSH2 0x7D2 JUMPI DUP1 PUSH4 0xF72C0D8B EQ PUSH2 0x7F1 JUMPI DUP1 PUSH4 0xF8C8765E EQ PUSH2 0x824 JUMPI PUSH0 DUP1 REVERT JUMPDEST DUP1 PUSH4 0xAD3CB1CC EQ PUSH2 0x6B4 JUMPI DUP1 PUSH4 0xB88D4FDE EQ PUSH2 0x6E4 JUMPI DUP1 PUSH4 0xC3CDA520 EQ PUSH2 0x703 JUMPI DUP1 PUSH4 0xC87B56DD EQ PUSH2 0x722 JUMPI DUP1 PUSH4 0xD204C45E EQ PUSH2 0x741 JUMPI PUSH0 DUP1 REVERT JUMPDEST DUP1 PUSH4 0x91D14854 GT PUSH2 0x104 JUMPI DUP1 PUSH4 0x91D14854 EQ PUSH2 0x60E JUMPI DUP1 PUSH4 0x91DDADF4 EQ PUSH2 0x62D JUMPI DUP1 PUSH4 0x95D89B41 EQ PUSH2 0x64F JUMPI DUP1 PUSH4 0x9AB24EB0 EQ PUSH2 0x663 JUMPI DUP1 PUSH4 0xA217FDDF EQ PUSH2 0x682 JUMPI DUP1 PUSH4 0xA22CB465 EQ PUSH2 0x695 JUMPI PUSH0 DUP1 REVERT JUMPDEST DUP1 PUSH4 0x70A08231 EQ PUSH2 0x542 JUMPI DUP1 PUSH4 0x7ECEBE00 EQ PUSH2 0x561 JUMPI DUP1 PUSH4 0x8456CB59 EQ PUSH2 0x5B4 JUMPI DUP1 PUSH4 0x84B0196E EQ PUSH2 0x5C8 JUMPI DUP1 PUSH4 0x8E539E8C EQ PUSH2 0x5EF JUMPI PUSH0 DUP1 REVERT JUMPDEST DUP1 PUSH4 0x3F4BA83A GT PUSH2 0x1D6 JUMPI DUP1 PUSH4 0x4F6CCCE7 GT PUSH2 0x19B JUMPI DUP1 PUSH4 0x4F6CCCE7 EQ PUSH2 0x48F JUMPI DUP1 PUSH4 0x52D1902D EQ PUSH2 0x4AE JUMPI DUP1 PUSH4 0x587CDE1E EQ PUSH2 0x4C2 JUMPI DUP1 PUSH4 0x5C19A95C EQ PUSH2 0x4E1 JUMPI DUP1 PUSH4 0x5C975ABB EQ PUSH2 0x500 JUMPI DUP1 PUSH4 0x6352211E EQ PUSH2 0x523 JUMPI PUSH0 DUP1 REVERT JUMPDEST DUP1 PUSH4 0x3F4BA83A EQ PUSH2 0x3F4 JUMPI DUP1 PUSH4 0x42842E0E EQ PUSH2 0x408 JUMPI DUP1 PUSH4 0x42966C68 EQ PUSH2 0x427 JUMPI DUP1 PUSH4 0x4BF5D7E9 EQ PUSH2 0x446 JUMPI DUP1 PUSH4 0x4F1EF286 EQ PUSH2 0x47C JUMPI PUSH0 DUP1 REVERT JUMPDEST DUP1 PUSH4 0x23B872DD GT PUSH2 0x227 JUMPI DUP1 PUSH4 0x23B872DD EQ PUSH2 0x33A JUMPI DUP1 PUSH4 0x248A9CA3 EQ PUSH2 0x359 JUMPI DUP1 PUSH4 0x2F2FF15D EQ PUSH2 0x378 JUMPI DUP1 PUSH4 0x2F745C59 EQ PUSH2 0x397 JUMPI DUP1 PUSH4 0x36568ABE EQ PUSH2 0x3B6 JUMPI DUP1 PUSH4 0x3A46B1A8 EQ PUSH2 0x3D5 JUMPI PUSH0 DUP1 REVERT JUMPDEST DUP1 PUSH4 0x1FFC9A7 EQ PUSH2 0x263 JUMPI DUP1 PUSH4 0x6FDDE03 EQ PUSH2 0x297 JUMPI DUP1 PUSH4 0x81812FC EQ PUSH2 0x2B8 JUMPI DUP1 PUSH4 0x95EA7B3 EQ PUSH2 0x2EF JUMPI DUP1 PUSH4 0x18160DDD EQ PUSH2 0x310 JUMPI JUMPDEST PUSH0 DUP1 REVERT JUMPDEST CALLVALUE DUP1 ISZERO PUSH2 0x26E JUMPI PUSH0 DUP1 REVERT JUMPDEST POP PUSH2 0x282 PUSH2 0x27D CALLDATASIZE PUSH1 0x4 PUSH2 0x327B JUMP JUMPDEST PUSH2 0x843 JUMP JUMPDEST PUSH1 0x40 MLOAD SWAP1 ISZERO ISZERO DUP2 MSTORE PUSH1 0x20 ADD JUMPDEST PUSH1 0x40 MLOAD DUP1 SWAP2 SUB SWAP1 RETURN JUMPDEST CALLVALUE DUP1 ISZERO PUSH2 0x2A2 JUMPI PUSH0 DUP1 REVERT JUMPDEST POP PUSH2 0x2AB PUSH2 0x853 JUMP JUMPDEST PUSH1 0x40 MLOAD PUSH2 0x28E SWAP2 SWAP1 PUSH2 0x32C4 JUMP JUMPDEST CALLVALUE DUP1 ISZERO PUSH2 0x2C3 JUMPI PUSH0 DUP1 REVERT JUMPDEST POP PUSH2 0x2D7 PUSH2 0x2D2 CALLDATASIZE PUSH1 0x4 PUSH2 0x32D6 JUMP JUMPDEST PUSH2 0x8F4 JUMP JUMPDEST PUSH1 0x40 MLOAD PUSH1 0x1 PUSH1 0x1 PUSH1 0xA0 SHL SUB SWAP1 SWAP2 AND DUP2 MSTORE PUSH1 0x20 ADD PUSH2 0x28E JUMP JUMPDEST CALLVALUE DUP1 ISZERO PUSH2 0x2FA JUMPI PUSH0 DUP1 REVERT JUMPDEST POP PUSH2 0x30E PUSH2 0x309 CALLDATASIZE PUSH1 0x4 PUSH2 0x3308 JUMP JUMPDEST PUSH2 0x908 JUMP JUMPDEST STOP JUMPDEST CALLVALUE DUP1 ISZERO PUSH2 0x31B JUMPI PUSH0 DUP1 REVERT JUMPDEST POP PUSH0 DUP1 MLOAD PUSH1 0x20 PUSH2 0x3A97 DUP4 CODECOPY DUP2 MLOAD SWAP2 MSTORE SLOAD JUMPDEST PUSH1 0x40 MLOAD SWAP1 DUP2 MSTORE PUSH1 0x20 ADD PUSH2 0x28E JUMP JUMPDEST CALLVALUE DUP1 ISZERO PUSH2 0x345 JUMPI PUSH0 DUP1 REVERT JUMPDEST POP PUSH2 0x30E PUSH2 0x354 CALLDATASIZE PUSH1 0x4 PUSH2 0x3330 JUMP JUMPDEST PUSH2 0x917 JUMP JUMPDEST CALLVALUE DUP1 ISZERO PUSH2 0x364 JUMPI PUSH0 DUP1 REVERT JUMPDEST POP PUSH2 0x32C PUSH2 0x373 CALLDATASIZE PUSH1 0x4 PUSH2 0x32D6 JUMP JUMPDEST PUSH2 0x9A5 JUMP JUMPDEST CALLVALUE DUP1 ISZERO PUSH2 0x383 JUMPI PUSH0 DUP1 REVERT JUMPDEST POP PUSH2 0x30E PUSH2 0x392 CALLDATASIZE PUSH1 0x4 PUSH2 0x336A JUMP JUMPDEST PUSH2 0x9C5 JUMP JUMPDEST CALLVALUE DUP1 ISZERO PUSH2 0x3A2 JUMPI PUSH0 DUP1 REVERT JUMPDEST POP PUSH2 0x32C PUSH2 0x3B1 CALLDATASIZE PUSH1 0x4 PUSH2 0x3308 JUMP JUMPDEST PUSH2 0x9E1 JUMP JUMPDEST CALLVALUE DUP1 ISZERO PUSH2 0x3C1 JUMPI PUSH0 DUP1 REVERT JUMPDEST POP PUSH2 0x30E PUSH2 0x3D0 CALLDATASIZE PUSH1 0x4 PUSH2 0x336A JUMP JUMPDEST PUSH2 0xA52 JUMP JUMPDEST CALLVALUE DUP1 ISZERO PUSH2 0x3E0 JUMPI PUSH0 DUP1 REVERT JUMPDEST POP PUSH2 0x32C PUSH2 0x3EF CALLDATASIZE PUSH1 0x4 PUSH2 0x3308 JUMP JUMPDEST PUSH2 0xA8A JUMP JUMPDEST CALLVALUE DUP1 ISZERO PUSH2 0x3FF JUMPI PUSH0 DUP1 REVERT JUMPDEST POP PUSH2 0x30E PUSH2 0xB10 JUMP JUMPDEST CALLVALUE DUP1 ISZERO PUSH2 0x413 JUMPI PUSH0 DUP1 REVERT JUMPDEST POP PUSH2 0x30E PUSH2 0x422 CALLDATASIZE PUSH1 0x4 PUSH2 0x3330 JUMP JUMPDEST PUSH2 0xB32 JUMP JUMPDEST CALLVALUE DUP1 ISZERO PUSH2 0x432 JUMPI PUSH0 DUP1 REVERT JUMPDEST POP PUSH2 0x30E PUSH2 0x441 CALLDATASIZE PUSH1 0x4 PUSH2 0x32D6 JUMP JUMPDEST PUSH2 0xB4C JUMP JUMPDEST CALLVALUE DUP1 ISZERO PUSH2 0x451 JUMPI PUSH0 DUP1 REVERT JUMPDEST POP PUSH1 0x40 DUP1 MLOAD DUP1 DUP3 ADD SWAP1 SWAP2 MSTORE PUSH1 0xE DUP2 MSTORE PUSH14 0x6D6F64653D74696D657374616D7 PUSH1 0x94 SHL PUSH1 0x20 DUP3 ADD MSTORE PUSH2 0x2AB JUMP JUMPDEST PUSH2 0x30E PUSH2 0x48A CALLDATASIZE PUSH1 0x4 PUSH2 0x343D JUMP JUMPDEST PUSH2 0xB57 JUMP JUMPDEST CALLVALUE DUP1 ISZERO PUSH2 0x49A JUMPI PUSH0 DUP1 REVERT JUMPDEST POP PUSH2 0x32C PUSH2 0x4A9 CALLDATASIZE PUSH1 0x4 PUSH2 0x32D6 JUMP JUMPDEST PUSH2 0xB72 JUMP JUMPDEST CALLVALUE DUP1 ISZERO PUSH2 0x4B9 JUMPI PUSH0 DUP1 REVERT JUMPDEST POP PUSH2 0x32C PUSH2 0xBE4 JUMP JUMPDEST CALLVALUE DUP1 ISZERO PUSH2 0x4CD JUMPI PUSH0 DUP1 REVERT JUMPDEST POP PUSH2 0x2D7 PUSH2 0x4DC CALLDATASIZE PUSH1 0x4 PUSH2 0x3488 JUMP JUMPDEST PUSH2 0xBFF JUMP JUMPDEST CALLVALUE DUP1 ISZERO PUSH2 0x4EC JUMPI PUSH0 DUP1 REVERT JUMPDEST POP PUSH2 0x30E PUSH2 0x4FB CALLDATASIZE PUSH1 0x4 PUSH2 0x3488 JUMP JUMPDEST PUSH2 0xC28 JUMP JUMPDEST CALLVALUE DUP1 ISZERO PUSH2 0x50B JUMPI PUSH0 DUP1 REVERT JUMPDEST POP PUSH0 DUP1 MLOAD PUSH1 0x20 PUSH2 0x3AD7 DUP4 CODECOPY DUP2 MLOAD SWAP2 MSTORE SLOAD PUSH1 0xFF AND PUSH2 0x282 JUMP JUMPDEST CALLVALUE DUP1 ISZERO PUSH2 0x52E JUMPI PUSH0 DUP1 REVERT JUMPDEST POP PUSH2 0x2D7 PUSH2 0x53D CALLDATASIZE PUSH1 0x4 PUSH2 0x32D6 JUMP JUMPDEST PUSH2 0xC33 JUMP JUMPDEST CALLVALUE DUP1 ISZERO PUSH2 0x54D JUMPI PUSH0 DUP1 REVERT JUMPDEST POP PUSH2 0x32C PUSH2 0x55C CALLDATASIZE PUSH1 0x4 PUSH2 0x3488 JUMP JUMPDEST PUSH2 0xC3D JUMP JUMPDEST CALLVALUE DUP1 ISZERO PUSH2 0x56C JUMPI PUSH0 DUP1 REVERT JUMPDEST POP PUSH2 0x32C PUSH2 0x57B CALLDATASIZE PUSH1 0x4 PUSH2 0x3488 JUMP JUMPDEST PUSH1 0x1 PUSH1 0x1 PUSH1 0xA0 SHL SUB AND PUSH0 SWAP1 DUP2 MSTORE PUSH32 0x5AB42CED628888259C08AC98DB1EB0CF702FC1501344311D8B100CD1BFE4BB00 PUSH1 0x20 MSTORE PUSH1 0x40 SWAP1 KECCAK256 SLOAD SWAP1 JUMP JUMPDEST CALLVALUE DUP1 ISZERO PUSH2 0x5BF JUMPI PUSH0 DUP1 REVERT JUMPDEST POP PUSH2 0x30E PUSH2 0xC95 JUMP JUMPDEST CALLVALUE DUP1 ISZERO PUSH2 0x5D3 JUMPI PUSH0 DUP1 REVERT JUMPDEST POP PUSH2 0x5DC PUSH2 0xCB4 JUMP JUMPDEST PUSH1 0x40 MLOAD PUSH2 0x28E SWAP8 SWAP7 SWAP6 SWAP5 SWAP4 SWAP3 SWAP2 SWAP1 PUSH2 0x34A1 JUMP JUMPDEST CALLVALUE DUP1 ISZERO PUSH2 0x5FA JUMPI PUSH0 DUP1 REVERT JUMPDEST POP PUSH2 0x32C PUSH2 0x609 CALLDATASIZE PUSH1 0x4 PUSH2 0x32D6 JUMP JUMPDEST PUSH2 0xD5D JUMP JUMPDEST CALLVALUE DUP1 ISZERO PUSH2 0x619 JUMPI PUSH0 DUP1 REVERT JUMPDEST POP PUSH2 0x282 PUSH2 0x628 CALLDATASIZE PUSH1 0x4 PUSH2 0x336A JUMP JUMPDEST PUSH2 0xDCD JUMP JUMPDEST CALLVALUE DUP1 ISZERO PUSH2 0x638 JUMPI PUSH0 DUP1 REVERT JUMPDEST POP PUSH1 0x40 MLOAD PUSH6 0xFFFFFFFFFFFF TIMESTAMP AND DUP2 MSTORE PUSH1 0x20 ADD PUSH2 0x28E JUMP JUMPDEST CALLVALUE DUP1 ISZERO PUSH2 0x65A JUMPI PUSH0 DUP1 REVERT JUMPDEST POP PUSH2 0x2AB PUSH2 0xE03 JUMP JUMPDEST CALLVALUE DUP1 ISZERO PUSH2 0x66E JUMPI PUSH0 DUP1 REVERT JUMPDEST POP PUSH2 0x32C PUSH2 0x67D CALLDATASIZE PUSH1 0x4 PUSH2 0x3488 JUMP JUMPDEST PUSH2 0xE41 JUMP JUMPDEST CALLVALUE DUP1 ISZERO PUSH2 0x68D JUMPI PUSH0 DUP1 REVERT JUMPDEST POP PUSH2 0x32C PUSH0 DUP2 JUMP JUMPDEST CALLVALUE DUP1 ISZERO PUSH2 0x6A0 JUMPI PUSH0 DUP1 REVERT JUMPDEST POP PUSH2 0x30E PUSH2 0x6AF CALLDATASIZE PUSH1 0x4 PUSH2 0x3537 JUMP JUMPDEST PUSH2 0xE9F JUMP JUMPDEST CALLVALUE DUP1 ISZERO PUSH2 0x6BF JUMPI PUSH0 DUP1 REVERT JUMPDEST POP PUSH2 0x2AB PUSH1 0x40 MLOAD DUP1 PUSH1 0x40 ADD PUSH1 0x40 MSTORE DUP1 PUSH1 0x5 DUP2 MSTORE PUSH1 0x20 ADD PUSH5 0x352E302E3 PUSH1 0xDC SHL DUP2 MSTORE POP DUP2 JUMP JUMPDEST CALLVALUE DUP1 ISZERO PUSH2 0x6EF JUMPI PUSH0 DUP1 REVERT JUMPDEST POP PUSH2 0x30E PUSH2 0x6FE CALLDATASIZE PUSH1 0x4 PUSH2 0x3570 JUMP JUMPDEST PUSH2 0xEAA JUMP JUMPDEST CALLVALUE DUP1 ISZERO PUSH2 0x70E JUMPI PUSH0 DUP1 REVERT JUMPDEST POP PUSH2 0x30E PUSH2 0x71D CALLDATASIZE PUSH1 0x4 PUSH2 0x35D4 JUMP JUMPDEST PUSH2 0xEC2 JUMP JUMPDEST CALLVALUE DUP1 ISZERO PUSH2 0x72D JUMPI PUSH0 DUP1 REVERT JUMPDEST POP PUSH2 0x2AB PUSH2 0x73C CALLDATASIZE PUSH1 0x4 PUSH2 0x32D6 JUMP JUMPDEST PUSH2 0xF7E JUMP JUMPDEST CALLVALUE DUP1 ISZERO PUSH2 0x74C JUMPI PUSH0 DUP1 REVERT JUMPDEST POP PUSH2 0x30E PUSH2 0x75B CALLDATASIZE PUSH1 0x4 PUSH2 0x362F JUMP JUMPDEST PUSH2 0xF89 JUMP JUMPDEST CALLVALUE DUP1 ISZERO PUSH2 0x76B JUMPI PUSH0 DUP1 REVERT JUMPDEST POP PUSH2 0x32C PUSH32 0x9F2DF0FED2C77648DE5860A4CC508CD0818C85B8B8A1AB4CEEEF8D981C8956A6 DUP2 JUMP JUMPDEST CALLVALUE DUP1 ISZERO PUSH2 0x79E JUMPI PUSH0 DUP1 REVERT JUMPDEST POP PUSH2 0x30E PUSH2 0x7AD CALLDATASIZE PUSH1 0x4 PUSH2 0x336A JUMP JUMPDEST PUSH2 0xFDB JUMP JUMPDEST CALLVALUE DUP1 ISZERO PUSH2 0x7BD JUMPI PUSH0 DUP1 REVERT JUMPDEST POP PUSH2 0x32C PUSH0 DUP1 MLOAD PUSH1 0x20 PUSH2 0x3A77 DUP4 CODECOPY DUP2 MLOAD SWAP2 MSTORE DUP2 JUMP JUMPDEST CALLVALUE DUP1 ISZERO PUSH2 0x7DD JUMPI PUSH0 DUP1 REVERT JUMPDEST POP PUSH2 0x282 PUSH2 0x7EC CALLDATASIZE PUSH1 0x4 PUSH2 0x3683 JUMP JUMPDEST PUSH2 0xFF7 JUMP JUMPDEST CALLVALUE DUP1 ISZERO PUSH2 0x7FC JUMPI PUSH0 DUP1 REVERT JUMPDEST POP PUSH2 0x32C PUSH32 0x189AB7A9244DF0848122154315AF71FE140F3DB0FE014031783B0946B8C9D2E3 DUP2 JUMP JUMPDEST CALLVALUE DUP1 ISZERO PUSH2 0x82F JUMPI PUSH0 DUP1 REVERT JUMPDEST POP PUSH2 0x30E PUSH2 0x83E CALLDATASIZE PUSH1 0x4 PUSH2 0x36AB JUMP JUMPDEST PUSH2 0x1043 JUMP JUMPDEST PUSH0 PUSH2 0x84D DUP3 PUSH2 0x129C JUMP JUMPDEST SWAP3 SWAP2 POP POP JUMP JUMPDEST PUSH0 DUP1 MLOAD PUSH1 0x20 PUSH2 0x3A17 DUP4 CODECOPY DUP2 MLOAD SWAP2 MSTORE DUP1 SLOAD PUSH1 0x60 SWAP2 SWAP1 DUP2 SWAP1 PUSH2 0x872 SWAP1 PUSH2 0x36FC JUMP JUMPDEST DUP1 PUSH1 0x1F ADD PUSH1 0x20 DUP1 SWAP2 DIV MUL PUSH1 0x20 ADD PUSH1 0x40 MLOAD SWAP1 DUP2 ADD PUSH1 0x40 MSTORE DUP1 SWAP3 SWAP2 SWAP1 DUP2 DUP2 MSTORE PUSH1 0x20 ADD DUP3 DUP1 SLOAD PUSH2 0x89E SWAP1 PUSH2 0x36FC JUMP JUMPDEST DUP1 ISZERO PUSH2 0x8E9 JUMPI DUP1 PUSH1 0x1F LT PUSH2 0x8C0 JUMPI PUSH2 0x100 DUP1 DUP4 SLOAD DIV MUL DUP4 MSTORE SWAP2 PUSH1 0x20 ADD SWAP2 PUSH2 0x8E9 JUMP JUMPDEST DUP3 ADD SWAP2 SWAP1 PUSH0 MSTORE PUSH1 0x20 PUSH0 KECCAK256 SWAP1 JUMPDEST DUP2 SLOAD DUP2 MSTORE SWAP1 PUSH1 0x1 ADD SWAP1 PUSH1 0x20 ADD DUP1 DUP4 GT PUSH2 0x8CC JUMPI DUP3 SWAP1 SUB PUSH1 0x1F AND DUP3 ADD SWAP2 JUMPDEST POP POP POP POP POP SWAP2 POP POP SWAP1 JUMP JUMPDEST PUSH0 PUSH2 0x8FE DUP3 PUSH2 0x12C0 JUMP JUMPDEST POP PUSH2 0x84D DUP3 PUSH2 0x12F7 JUMP JUMPDEST PUSH2 0x913 DUP3 DUP3 CALLER PUSH2 0x1330 JUMP JUMPDEST POP POP JUMP JUMPDEST PUSH1 0x1 PUSH1 0x1 PUSH1 0xA0 SHL SUB DUP3 AND PUSH2 0x945 JUMPI PUSH1 0x40 MLOAD PUSH4 0x32505749 PUSH1 0xE1 SHL DUP2 MSTORE PUSH0 PUSH1 0x4 DUP3 ADD MSTORE PUSH1 0x24 ADD JUMPDEST PUSH1 0x40 MLOAD DUP1 SWAP2 SUB SWAP1 REVERT JUMPDEST PUSH0 PUSH2 0x951 DUP4 DUP4 CALLER PUSH2 0x133D JUMP JUMPDEST SWAP1 POP DUP4 PUSH1 0x1 PUSH1 0x1 PUSH1 0xA0 SHL SUB AND DUP2 PUSH1 0x1 PUSH1 0x1 PUSH1 0xA0 SHL SUB AND EQ PUSH2 0x99F JUMPI PUSH1 0x40 MLOAD PUSH4 0x64283D7B PUSH1 0xE0 SHL DUP2 MSTORE PUSH1 0x1 PUSH1 0x1 PUSH1 0xA0 SHL SUB DUP1 DUP7 AND PUSH1 0x4 DUP4 ADD MSTORE PUSH1 0x24 DUP3 ADD DUP5 SWAP1 MSTORE DUP3 AND PUSH1 0x44 DUP3 ADD MSTORE PUSH1 0x64 ADD PUSH2 0x93C JUMP JUMPDEST POP POP POP POP JUMP JUMPDEST PUSH0 SWAP1 DUP2 MSTORE PUSH0 DUP1 MLOAD PUSH1 0x20 PUSH2 0x3AB7 DUP4 CODECOPY DUP2 MLOAD SWAP2 MSTORE PUSH1 0x20 MSTORE PUSH1 0x40 SWAP1 KECCAK256 PUSH1 0x1 ADD SLOAD SWAP1 JUMP JUMPDEST PUSH2 0x9CE DUP3 PUSH2 0x9A5 JUMP JUMPDEST PUSH2 0x9D7 DUP2 PUSH2 0x1353 JUMP JUMPDEST PUSH2 0x99F DUP4 DUP4 PUSH2 0x135D JUMP JUMPDEST PUSH0 PUSH0 DUP1 MLOAD PUSH1 0x20 PUSH2 0x39F7 DUP4 CODECOPY DUP2 MLOAD SWAP2 MSTORE PUSH2 0x9F9 DUP5 PUSH2 0xC3D JUMP JUMPDEST DUP4 LT PUSH2 0xA2A JUMPI PUSH1 0x40 MLOAD PUSH4 0x295F44F7 PUSH1 0xE2 SHL DUP2 MSTORE PUSH1 0x1 PUSH1 0x1 PUSH1 0xA0 SHL SUB DUP6 AND PUSH1 0x4 DUP3 ADD MSTORE PUSH1 0x24 DUP2 ADD DUP5 SWAP1 MSTORE PUSH1 0x44 ADD PUSH2 0x93C JUMP JUMPDEST PUSH1 0x1 PUSH1 0x1 PUSH1 0xA0 SHL SUB DUP5 AND PUSH0 SWAP1 DUP2 MSTORE PUSH1 0x20 SWAP2 DUP3 MSTORE PUSH1 0x40 DUP1 DUP3 KECCAK256 DUP6 DUP4 MSTORE SWAP1 SWAP3 MSTORE KECCAK256 SLOAD SWAP1 POP SWAP3 SWAP2 POP POP JUMP JUMPDEST PUSH1 0x1 PUSH1 0x1 PUSH1 0xA0 SHL SUB DUP2 AND CALLER EQ PUSH2 0xA7B JUMPI PUSH1 0x40 MLOAD PUSH4 0x334BD919 PUSH1 0xE1 SHL DUP2 MSTORE PUSH1 0x4 ADD PUSH1 0x40 MLOAD DUP1 SWAP2 SUB SWAP1 REVERT JUMPDEST PUSH2 0xA85 DUP3 DUP3 PUSH2 0x13FE JUMP JUMPDEST POP POP POP JUMP JUMPDEST PUSH0 PUSH0 DUP1 MLOAD PUSH1 0x20 PUSH2 0x39D7 DUP4 CODECOPY DUP2 MLOAD SWAP2 MSTORE TIMESTAMP PUSH6 0xFFFFFFFFFFFF DUP2 AND DUP5 LT PUSH2 0xAD3 JUMPI PUSH1 0x40 MLOAD PUSH4 0x7669FC0F PUSH1 0xE1 SHL DUP2 MSTORE PUSH1 0x4 DUP2 ADD DUP6 SWAP1 MSTORE PUSH6 0xFFFFFFFFFFFF DUP3 AND PUSH1 0x24 DUP3 ADD MSTORE PUSH1 0x44 ADD PUSH2 0x93C JUMP JUMPDEST PUSH2 0xAFE PUSH2 0xADF DUP6 PUSH2 0x1477 JUMP JUMPDEST PUSH1 0x1 PUSH1 0x1 PUSH1 0xA0 SHL SUB DUP8 AND PUSH0 SWAP1 DUP2 MSTORE PUSH1 0x1 DUP6 ADD PUSH1 0x20 MSTORE PUSH1 0x40 SWAP1 KECCAK256 SWAP1 PUSH2 0x14AD JUMP JUMPDEST PUSH1 0x1 PUSH1 0x1 PUSH1 0xD0 SHL SUB AND SWAP6 SWAP5 POP POP POP POP POP JUMP JUMPDEST PUSH0 DUP1 MLOAD PUSH1 0x20 PUSH2 0x3A77 DUP4 CODECOPY DUP2 MLOAD SWAP2 MSTORE PUSH2 0xB27 DUP2 PUSH2 0x1353 JUMP JUMPDEST PUSH2 0xB2F PUSH2 0x155D JUMP JUMPDEST POP JUMP JUMPDEST PUSH2 0xA85 DUP4 DUP4 DUP4 PUSH1 0x40 MLOAD DUP1 PUSH1 0x20 ADD PUSH1 0x40 MSTORE DUP1 PUSH0 DUP2 MSTORE POP PUSH2 0xEAA JUMP JUMPDEST PUSH2 0x913 PUSH0 DUP3 CALLER PUSH2 0x133D JUMP JUMPDEST PUSH2 0xB5F PUSH2 0x15BC JUMP JUMPDEST PUSH2 0xB68 DUP3 PUSH2 0x1662 JUMP JUMPDEST PUSH2 0x913 DUP3 DUP3 PUSH2 0x168C JUMP JUMPDEST PUSH0 PUSH0 DUP1 MLOAD PUSH1 0x20 PUSH2 0x39F7 DUP4 CODECOPY DUP2 MLOAD SWAP2 MSTORE PUSH2 0xB96 PUSH0 DUP1 MLOAD PUSH1 0x20 PUSH2 0x3A97 DUP4 CODECOPY DUP2 MLOAD SWAP2 MSTORE SLOAD SWAP1 JUMP JUMPDEST DUP4 LT PUSH2 0xBBE JUMPI PUSH1 0x40 MLOAD PUSH4 0x295F44F7 PUSH1 0xE2 SHL DUP2 MSTORE PUSH0 PUSH1 0x4 DUP3 ADD MSTORE PUSH1 0x24 DUP2 ADD DUP5 SWAP1 MSTORE PUSH1 0x44 ADD PUSH2 0x93C JUMP JUMPDEST DUP1 PUSH1 0x2 ADD DUP4 DUP2 SLOAD DUP2 LT PUSH2 0xBD3 JUMPI PUSH2 0xBD3 PUSH2 0x3734 JUMP JUMPDEST SWAP1 PUSH0 MSTORE PUSH1 0x20 PUSH0 KECCAK256 ADD SLOAD SWAP2 POP POP SWAP2 SWAP1 POP JUMP JUMPDEST PUSH0 PUSH2 0xBED PUSH2 0x1748 JUMP JUMPDEST POP PUSH0 DUP1 MLOAD PUSH1 0x20 PUSH2 0x3A57 DUP4 CODECOPY DUP2 MLOAD SWAP2 MSTORE SWAP1 JUMP JUMPDEST PUSH1 0x1 PUSH1 0x1 PUSH1 0xA0 SHL SUB SWAP1 DUP2 AND PUSH0 SWAP1 DUP2 MSTORE PUSH0 DUP1 MLOAD PUSH1 0x20 PUSH2 0x39D7 DUP4 CODECOPY DUP2 MLOAD SWAP2 MSTORE PUSH1 0x20 MSTORE PUSH1 0x40 SWAP1 KECCAK256 SLOAD AND SWAP1 JUMP JUMPDEST CALLER PUSH2 0x913 DUP2 DUP4 PUSH2 0x1791 JUMP JUMPDEST PUSH0 PUSH2 0x84D DUP3 PUSH2 0x12C0 JUMP JUMPDEST PUSH0 PUSH0 DUP1 MLOAD PUSH1 0x20 PUSH2 0x3A17 DUP4 CODECOPY DUP2 MLOAD SWAP2 MSTORE PUSH1 0x1 PUSH1 0x1 PUSH1 0xA0 SHL SUB DUP4 AND PUSH2 0xC75 JUMPI PUSH1 0x40 MLOAD PUSH4 0x22718AD9 PUSH1 0xE2 SHL DUP2 MSTORE PUSH0 PUSH1 0x4 DUP3 ADD MSTORE PUSH1 0x24 ADD PUSH2 0x93C JUMP JUMPDEST PUSH1 0x1 PUSH1 0x1 PUSH1 0xA0 SHL SUB SWAP1 SWAP3 AND PUSH0 SWAP1 DUP2 MSTORE PUSH1 0x3 SWAP1 SWAP3 ADD PUSH1 0x20 MSTORE POP PUSH1 0x40 SWAP1 KECCAK256 SLOAD SWAP1 JUMP JUMPDEST PUSH0 DUP1 MLOAD PUSH1 0x20 PUSH2 0x3A77 DUP4 CODECOPY DUP2 MLOAD SWAP2 MSTORE PUSH2 0xCAC DUP2 PUSH2 0x1353 JUMP JUMPDEST PUSH2 0xB2F PUSH2 0x1818 JUMP JUMPDEST PUSH0 PUSH1 0x60 DUP1 DUP3 DUP1 DUP1 DUP4 DUP2 PUSH0 DUP1 MLOAD PUSH1 0x20 PUSH2 0x3A37 DUP4 CODECOPY DUP2 MLOAD SWAP2 MSTORE DUP1 SLOAD SWAP1 SWAP2 POP ISZERO DUP1 ISZERO PUSH2 0xCDF JUMPI POP PUSH1 0x1 DUP2 ADD SLOAD ISZERO JUMPDEST PUSH2 0xD23 JUMPI PUSH1 0x40 MLOAD PUSH3 0x461BCD PUSH1 0xE5 SHL DUP2 MSTORE PUSH1 0x20 PUSH1 0x4 DUP3 ADD MSTORE PUSH1 0x15 PUSH1 0x24 DUP3 ADD MSTORE PUSH21 0x1152540DCC4C8E88155B9A5B9A5D1A585B1A5E9959 PUSH1 0x5A SHL PUSH1 0x44 DUP3 ADD MSTORE PUSH1 0x64 ADD PUSH2 0x93C JUMP JUMPDEST PUSH2 0xD2B PUSH2 0x1860 JUMP JUMPDEST PUSH2 0xD33 PUSH2 0x189E JUMP JUMPDEST PUSH1 0x40 DUP1 MLOAD PUSH0 DUP1 DUP3 MSTORE PUSH1 0x20 DUP3 ADD SWAP1 SWAP3 MSTORE PUSH1 0xF PUSH1 0xF8 SHL SWAP13 SWAP4 SWAP12 POP SWAP2 SWAP10 POP CHAINID SWAP9 POP ADDRESS SWAP8 POP SWAP6 POP SWAP4 POP SWAP2 POP POP JUMP JUMPDEST PUSH0 PUSH0 DUP1 MLOAD PUSH1 0x20 PUSH2 0x39D7 DUP4 CODECOPY DUP2 MLOAD SWAP2 MSTORE TIMESTAMP PUSH6 0xFFFFFFFFFFFF DUP2 AND DUP5 LT PUSH2 0xDA6 JUMPI PUSH1 0x40 MLOAD PUSH4 0x7669FC0F PUSH1 0xE1 SHL DUP2 MSTORE PUSH1 0x4 DUP2 ADD DUP6 SWAP1 MSTORE PUSH6 0xFFFFFFFFFFFF DUP3 AND PUSH1 0x24 DUP3 ADD MSTORE PUSH1 0x44 ADD PUSH2 0x93C JUMP JUMPDEST PUSH2 0xDBC PUSH2 0xDB2 DUP6 PUSH2 0x1477 JUMP JUMPDEST PUSH1 0x2 DUP5 ADD SWAP1 PUSH2 0x14AD JUMP JUMPDEST PUSH1 0x1 PUSH1 0x1 PUSH1 0xD0 SHL SUB AND SWAP5 SWAP4 POP POP POP POP JUMP JUMPDEST PUSH0 SWAP2 DUP3 MSTORE PUSH0 DUP1 MLOAD PUSH1 0x20 PUSH2 0x3AB7 DUP4 CODECOPY DUP2 MLOAD SWAP2 MSTORE PUSH1 0x20 SWAP1 DUP2 MSTORE PUSH1 0x40 DUP1 DUP5 KECCAK256 PUSH1 0x1 PUSH1 0x1 PUSH1 0xA0 SHL SUB SWAP4 SWAP1 SWAP4 AND DUP5 MSTORE SWAP2 SWAP1 MSTORE SWAP1 KECCAK256 SLOAD PUSH1 0xFF AND SWAP1 JUMP JUMPDEST PUSH32 0x80BB2B638CC20BC4D0A60D66940F3AB4A00C1D7B313497CA82FB0B4AB0079301 DUP1 SLOAD PUSH1 0x60 SWAP2 PUSH0 DUP1 MLOAD PUSH1 0x20 PUSH2 0x3A17 DUP4 CODECOPY DUP2 MLOAD SWAP2 MSTORE SWAP2 PUSH2 0x872 SWAP1 PUSH2 0x36FC JUMP JUMPDEST PUSH1 0x1 PUSH1 0x1 PUSH1 0xA0 SHL SUB DUP2 AND PUSH0 SWAP1 DUP2 MSTORE PUSH32 0xE8B26C30FAD74198956032A3533D903385D56DD795AF560196F9C78D4AF40D01 PUSH1 0x20 MSTORE PUSH1 0x40 DUP2 KECCAK256 PUSH0 DUP1 MLOAD PUSH1 0x20 PUSH2 0x39D7 DUP4 CODECOPY DUP2 MLOAD SWAP2 MSTORE SWAP1 PUSH2 0xE8F SWAP1 PUSH2 0x18DC JUMP JUMPDEST PUSH1 0x1 PUSH1 0x1 PUSH1 0xD0 SHL SUB AND SWAP4 SWAP3 POP POP POP JUMP JUMPDEST PUSH2 0x913 CALLER DUP4 DUP4 PUSH2 0x1913 JUMP JUMPDEST PUSH2 0xEB5 DUP5 DUP5 DUP5 PUSH2 0x917 JUMP JUMPDEST PUSH2 0x99F CALLER DUP6 DUP6 DUP6 DUP6 PUSH2 0x19C2 JUMP JUMPDEST DUP4 TIMESTAMP GT ISZERO PUSH2 0xEE6 JUMPI PUSH1 0x40 MLOAD PUSH4 0x2341D787 PUSH1 0xE1 SHL DUP2 MSTORE PUSH1 0x4 DUP2 ADD DUP6 SWAP1 MSTORE PUSH1 0x24 ADD PUSH2 0x93C JUMP JUMPDEST PUSH1 0x40 DUP1 MLOAD PUSH32 0xE48329057BFD03D55E49B547132E39CFFD9C1820AD7B9D4C5307691425D15ADF PUSH1 0x20 DUP3 ADD MSTORE PUSH1 0x1 PUSH1 0x1 PUSH1 0xA0 SHL SUB DUP9 AND SWAP2 DUP2 ADD SWAP2 SWAP1 SWAP2 MSTORE PUSH1 0x60 DUP2 ADD DUP7 SWAP1 MSTORE PUSH1 0x80 DUP2 ADD DUP6 SWAP1 MSTORE PUSH0 SWAP1 PUSH2 0xF5F SWAP1 PUSH2 0xF57 SWAP1 PUSH1 0xA0 ADD PUSH1 0x40 MLOAD PUSH1 0x20 DUP2 DUP4 SUB SUB DUP2 MSTORE SWAP1 PUSH1 0x40 MSTORE DUP1 MLOAD SWAP1 PUSH1 0x20 ADD KECCAK256 PUSH2 0x1AEA JUMP JUMPDEST DUP6 DUP6 DUP6 PUSH2 0x1B16 JUMP JUMPDEST SWAP1 POP PUSH2 0xF6B DUP2 DUP8 PUSH2 0x1B42 JUMP JUMPDEST PUSH2 0xF75 DUP2 DUP9 PUSH2 0x1791 JUMP JUMPDEST POP POP POP POP POP POP POP JUMP JUMPDEST PUSH1 0x60 PUSH2 0x84D DUP3 PUSH2 0x1BB3 JUMP JUMPDEST PUSH32 0x9F2DF0FED2C77648DE5860A4CC508CD0818C85B8B8A1AB4CEEEF8D981C8956A6 PUSH2 0xFB3 DUP2 PUSH2 0x1353 JUMP JUMPDEST PUSH0 DUP1 SLOAD DUP2 DUP1 PUSH2 0xFC1 DUP4 PUSH2 0x375C JUMP JUMPDEST SWAP2 SWAP1 POP SSTORE SWAP1 POP PUSH2 0xFD1 DUP5 DUP3 PUSH2 0x1D08 JUMP JUMPDEST PUSH2 0x99F DUP2 DUP5 PUSH2 0x1D21 JUMP JUMPDEST PUSH2 0xFE4 DUP3 PUSH2 0x9A5 JUMP JUMPDEST PUSH2 0xFED DUP2 PUSH2 0x1353 JUMP JUMPDEST PUSH2 0x99F DUP4 DUP4 PUSH2 0x13FE JUMP JUMPDEST PUSH1 0x1 PUSH1 0x1 PUSH1 0xA0 SHL SUB SWAP2 DUP3 AND PUSH0 SWAP1 DUP2 MSTORE PUSH32 0x80BB2B638CC20BC4D0A60D66940F3AB4A00C1D7B313497CA82FB0B4AB0079305 PUSH1 0x20 SWAP1 DUP2 MSTORE PUSH1 0x40 DUP1 DUP4 KECCAK256 SWAP4 SWAP1 SWAP5 AND DUP3 MSTORE SWAP2 SWAP1 SWAP2 MSTORE KECCAK256 SLOAD PUSH1 0xFF AND SWAP1 JUMP JUMPDEST PUSH32 0xF0C57E16840DF040F15088DC2F81FE391C3923BEC73E23A9662EFC9C229C6A00 DUP1 SLOAD PUSH1 0x1 PUSH1 0x40 SHL DUP2 DIV PUSH1 0xFF AND ISZERO SWAP1 PUSH8 0xFFFFFFFFFFFFFFFF AND PUSH0 DUP2 ISZERO DUP1 ISZERO PUSH2 0x1088 JUMPI POP DUP3 JUMPDEST SWAP1 POP PUSH0 DUP3 PUSH8 0xFFFFFFFFFFFFFFFF AND PUSH1 0x1 EQ DUP1 ISZERO PUSH2 0x10A4 JUMPI POP ADDRESS EXTCODESIZE ISZERO JUMPDEST SWAP1 POP DUP2 ISZERO DUP1 ISZERO PUSH2 0x10B2 JUMPI POP DUP1 ISZERO JUMPDEST ISZERO PUSH2 0x10D0 JUMPI PUSH1 0x40 MLOAD PUSH4 0xF92EE8A9 PUSH1 0xE0 SHL DUP2 MSTORE PUSH1 0x4 ADD PUSH1 0x40 MLOAD DUP1 SWAP2 SUB SWAP1 REVERT JUMPDEST DUP5 SLOAD PUSH8 0xFFFFFFFFFFFFFFFF NOT AND PUSH1 0x1 OR DUP6 SSTORE DUP4 ISZERO PUSH2 0x10FA JUMPI DUP5 SLOAD PUSH1 0xFF PUSH1 0x40 SHL NOT AND PUSH1 0x1 PUSH1 0x40 SHL OR DUP6 SSTORE JUMPDEST PUSH2 0x114B PUSH1 0x40 MLOAD DUP1 PUSH1 0x40 ADD PUSH1 0x40 MSTORE DUP1 PUSH1 0x14 DUP2 MSTORE PUSH1 0x20 ADD PUSH20 0x29B2B93B34B1B2A83937BB34B232B92A37B5B2B7 PUSH1 0x61 SHL DUP2 MSTORE POP PUSH1 0x40 MLOAD DUP1 PUSH1 0x40 ADD PUSH1 0x40 MSTORE DUP1 PUSH1 0x3 DUP2 MSTORE PUSH1 0x20 ADD PUSH3 0x14D415 PUSH1 0xEA SHL DUP2 MSTORE POP PUSH2 0x1D93 JUMP JUMPDEST PUSH2 0x1153 PUSH2 0x1DA5 JUMP JUMPDEST PUSH2 0x115B PUSH2 0x1DA5 JUMP JUMPDEST PUSH2 0x1163 PUSH2 0x1DAD JUMP JUMPDEST PUSH2 0x116B PUSH2 0x1DA5 JUMP JUMPDEST PUSH2 0x1173 PUSH2 0x1DA5 JUMP JUMPDEST PUSH2 0x11C2 PUSH1 0x40 MLOAD DUP1 PUSH1 0x40 ADD PUSH1 0x40 MSTORE DUP1 PUSH1 0x14 DUP2 MSTORE PUSH1 0x20 ADD PUSH20 0x29B2B93B34B1B2A83937BB34B232B92A37B5B2B7 PUSH1 0x61 SHL DUP2 MSTORE POP PUSH1 0x40 MLOAD DUP1 PUSH1 0x40 ADD PUSH1 0x40 MSTORE DUP1 PUSH1 0x1 DUP2 MSTORE PUSH1 0x20 ADD PUSH1 0x31 PUSH1 0xF8 SHL DUP2 MSTORE POP PUSH2 0x1DBD JUMP JUMPDEST PUSH2 0x11CA PUSH2 0x1DA5 JUMP JUMPDEST PUSH2 0x11D2 PUSH2 0x1DA5 JUMP JUMPDEST PUSH2 0x11DC PUSH0 DUP11 PUSH2 0x135D JUMP JUMPDEST POP PUSH2 0x11F4 PUSH0 DUP1 MLOAD PUSH1 0x20 PUSH2 0x3A77 DUP4 CODECOPY DUP2 MLOAD SWAP2 MSTORE DUP10 PUSH2 0x135D JUMP JUMPDEST POP PUSH2 0x121F PUSH32 0x9F2DF0FED2C77648DE5860A4CC508CD0818C85B8B8A1AB4CEEEF8D981C8956A6 DUP9 PUSH2 0x135D JUMP JUMPDEST POP PUSH2 0x124A PUSH32 0x189AB7A9244DF0848122154315AF71FE140F3DB0FE014031783B0946B8C9D2E3 DUP8 PUSH2 0x135D JUMP JUMPDEST POP DUP4 ISZERO PUSH2 0x1291 JUMPI DUP5 SLOAD PUSH1 0xFF PUSH1 0x40 SHL NOT AND DUP6 SSTORE PUSH1 0x40 MLOAD PUSH1 0x1 DUP2 MSTORE PUSH32 0xC7F505B2F371AE2175EE4913F4499E1F2633A7B5936321EED1CDAEB6115181D2 SWAP1 PUSH1 0x20 ADD PUSH1 0x40 MLOAD DUP1 SWAP2 SUB SWAP1 LOG1 JUMPDEST POP POP POP POP POP POP POP POP POP JUMP JUMPDEST PUSH0 PUSH1 0x1 PUSH1 0x1 PUSH1 0xE0 SHL SUB NOT DUP3 AND PUSH4 0x7965DB0B PUSH1 0xE0 SHL EQ DUP1 PUSH2 0x84D JUMPI POP PUSH2 0x84D DUP3 PUSH2 0x1DCF JUMP JUMPDEST PUSH0 DUP1 PUSH2 0x12CB DUP4 PUSH2 0x1DF3 JUMP JUMPDEST SWAP1 POP PUSH1 0x1 PUSH1 0x1 PUSH1 0xA0 SHL SUB DUP2 AND PUSH2 0x84D JUMPI PUSH1 0x40 MLOAD PUSH4 0x7E273289 PUSH1 0xE0 SHL DUP2 MSTORE PUSH1 0x4 DUP2 ADD DUP5 SWAP1 MSTORE PUSH1 0x24 ADD PUSH2 0x93C JUMP JUMPDEST PUSH0 SWAP1 DUP2 MSTORE PUSH32 0x80BB2B638CC20BC4D0A60D66940F3AB4A00C1D7B313497CA82FB0B4AB0079304 PUSH1 0x20 MSTORE PUSH1 0x40 SWAP1 KECCAK256 SLOAD PUSH1 0x1 PUSH1 0x1 PUSH1 0xA0 SHL SUB AND SWAP1 JUMP JUMPDEST PUSH2 0xA85 DUP4 DUP4 DUP4 PUSH1 0x1 PUSH2 0x1E2C JUMP JUMPDEST PUSH0 PUSH2 0x1349 DUP5 DUP5 DUP5 PUSH2 0x1F3F JUMP JUMPDEST SWAP1 POP JUMPDEST SWAP4 SWAP3 POP POP POP JUMP JUMPDEST PUSH2 0xB2F DUP2 CALLER PUSH2 0x1F5A JUMP JUMPDEST PUSH0 PUSH0 DUP1 MLOAD PUSH1 0x20 PUSH2 0x3AB7 DUP4 CODECOPY DUP2 MLOAD SWAP2 MSTORE PUSH2 0x1376 DUP5 DUP5 PUSH2 0xDCD JUMP JUMPDEST PUSH2 0x13F5 JUMPI PUSH0 DUP5 DUP2 MSTORE PUSH1 0x20 DUP3 DUP2 MSTORE PUSH1 0x40 DUP1 DUP4 KECCAK256 PUSH1 0x1 PUSH1 0x1 PUSH1 0xA0 SHL SUB DUP8 AND DUP5 MSTORE SWAP1 SWAP2 MSTORE SWAP1 KECCAK256 DUP1 SLOAD PUSH1 0xFF NOT AND PUSH1 0x1 OR SWAP1 SSTORE PUSH2 0x13AB CALLER SWAP1 JUMP JUMPDEST PUSH1 0x1 PUSH1 0x1 PUSH1 0xA0 SHL SUB AND DUP4 PUSH1 0x1 PUSH1 0x1 PUSH1 0xA0 SHL SUB AND DUP6 PUSH32 0x2F8788117E7EFF1D82E926EC794901D17C78024A50270940304540A733656F0D PUSH1 0x40 MLOAD PUSH1 0x40 MLOAD DUP1 SWAP2 SUB SWAP1 LOG4 PUSH1 0x1 SWAP2 POP POP PUSH2 0x84D JUMP JUMPDEST PUSH0 SWAP2 POP POP PUSH2 0x84D JUMP JUMPDEST PUSH0 PUSH0 DUP1 MLOAD PUSH1 0x20 PUSH2 0x3AB7 DUP4 CODECOPY DUP2 MLOAD SWAP2 MSTORE PUSH2 0x1417 DUP5 DUP5 PUSH2 0xDCD JUMP JUMPDEST ISZERO PUSH2 0x13F5 JUMPI PUSH0 DUP5 DUP2 MSTORE PUSH1 0x20 DUP3 DUP2 MSTORE PUSH1 0x40 DUP1 DUP4 KECCAK256 PUSH1 0x1 PUSH1 0x1 PUSH1 0xA0 SHL SUB DUP8 AND DUP1 DUP6 MSTORE SWAP3 MSTORE DUP1 DUP4 KECCAK256 DUP1 SLOAD PUSH1 0xFF NOT AND SWAP1 SSTORE MLOAD CALLER SWAP3 DUP8 SWAP2 PUSH32 0xF6391F5C32D9C69D2A47EA670B442974B53935D1EDC7FD64EB21E047A839171B SWAP2 SWAP1 LOG4 PUSH1 0x1 SWAP2 POP POP PUSH2 0x84D JUMP JUMPDEST PUSH0 PUSH6 0xFFFFFFFFFFFF DUP3 GT ISZERO PUSH2 0x14A9 JUMPI PUSH1 0x40 MLOAD PUSH4 0x6DFCC65 PUSH1 0xE4 SHL DUP2 MSTORE PUSH1 0x30 PUSH1 0x4 DUP3 ADD MSTORE PUSH1 0x24 DUP2 ADD DUP4 SWAP1 MSTORE PUSH1 0x44 ADD PUSH2 0x93C JUMP JUMPDEST POP SWAP1 JUMP JUMPDEST DUP2 SLOAD PUSH0 SWAP1 DUP2 DUP2 PUSH1 0x5 DUP2 GT ISZERO PUSH2 0x1509 JUMPI PUSH0 PUSH2 0x14C6 DUP5 PUSH2 0x1F93 JUMP JUMPDEST PUSH2 0x14D0 SWAP1 DUP6 PUSH2 0x3774 JUMP JUMPDEST PUSH0 DUP9 DUP2 MSTORE PUSH1 0x20 SWAP1 KECCAK256 SWAP1 SWAP2 POP DUP2 ADD SLOAD PUSH6 0xFFFFFFFFFFFF SWAP1 DUP2 AND SWAP1 DUP8 AND LT ISZERO PUSH2 0x14F9 JUMPI DUP1 SWAP2 POP PUSH2 0x1507 JUMP JUMPDEST PUSH2 0x1504 DUP2 PUSH1 0x1 PUSH2 0x3787 JUMP JUMPDEST SWAP3 POP JUMPDEST POP JUMPDEST PUSH0 PUSH2 0x1516 DUP8 DUP8 DUP6 DUP6 PUSH2 0x20E6 JUMP JUMPDEST SWAP1 POP DUP1 ISZERO PUSH2 0x1550 JUMPI PUSH2 0x153A DUP8 PUSH2 0x152D PUSH1 0x1 DUP5 PUSH2 0x3774 JUMP JUMPDEST PUSH0 SWAP2 DUP3 MSTORE PUSH1 0x20 SWAP1 SWAP2 KECCAK256 ADD SWAP1 JUMP JUMPDEST SLOAD PUSH1 0x1 PUSH1 0x30 SHL SWAP1 DIV PUSH1 0x1 PUSH1 0x1 PUSH1 0xD0 SHL SUB AND PUSH2 0x1552 JUMP JUMPDEST PUSH0 JUMPDEST SWAP8 SWAP7 POP POP POP POP POP POP POP JUMP JUMPDEST PUSH2 0x1565 PUSH2 0x2145 JUMP JUMPDEST PUSH0 DUP1 MLOAD PUSH1 0x20 PUSH2 0x3AD7 DUP4 CODECOPY DUP2 MLOAD SWAP2 MSTORE DUP1 SLOAD PUSH1 0xFF NOT AND DUP2 SSTORE PUSH32 0x5DB9EE0A495BF2E6FF9C91A7834C1BA4FDD244A5E8AA4E537BD38AEAE4B073AA CALLER JUMPDEST PUSH1 0x40 MLOAD PUSH1 0x1 PUSH1 0x1 PUSH1 0xA0 SHL SUB SWAP1 SWAP2 AND DUP2 MSTORE PUSH1 0x20 ADD PUSH1 0x40 MLOAD DUP1 SWAP2 SUB SWAP1 LOG1 POP JUMP JUMPDEST ADDRESS PUSH1 0x1 PUSH1 0x1 PUSH1 0xA0 SHL SUB PUSH32 0x0 AND EQ DUP1 PUSH2 0x1642 JUMPI POP PUSH32 0x0 PUSH1 0x1 PUSH1 0x1 PUSH1 0xA0 SHL SUB AND PUSH2 0x1636 PUSH0 DUP1 MLOAD PUSH1 0x20 PUSH2 0x3A57 DUP4 CODECOPY DUP2 MLOAD SWAP2 MSTORE SLOAD PUSH1 0x1 PUSH1 0x1 PUSH1 0xA0 SHL SUB AND SWAP1 JUMP JUMPDEST PUSH1 0x1 PUSH1 0x1 PUSH1 0xA0 SHL SUB AND EQ ISZERO JUMPDEST ISZERO PUSH2 0x1660 JUMPI PUSH1 0x40 MLOAD PUSH4 0x703E46DD PUSH1 0xE1 SHL DUP2 MSTORE PUSH1 0x4 ADD PUSH1 0x40 MLOAD DUP1 SWAP2 SUB SWAP1 REVERT JUMPDEST JUMP JUMPDEST PUSH32 0x189AB7A9244DF0848122154315AF71FE140F3DB0FE014031783B0946B8C9D2E3 PUSH2 0x913 DUP2 PUSH2 0x1353 JUMP JUMPDEST DUP2 PUSH1 0x1 PUSH1 0x1 PUSH1 0xA0 SHL SUB AND PUSH4 0x52D1902D PUSH1 0x40 MLOAD DUP2 PUSH4 0xFFFFFFFF AND PUSH1 0xE0 SHL DUP2 MSTORE PUSH1 0x4 ADD PUSH1 0x20 PUSH1 0x40 MLOAD DUP1 DUP4 SUB DUP2 DUP7 GAS STATICCALL SWAP3 POP POP POP DUP1 ISZERO PUSH2 0x16E6 JUMPI POP PUSH1 0x40 DUP1 MLOAD PUSH1 0x1F RETURNDATASIZE SWAP1 DUP2 ADD PUSH1 0x1F NOT AND DUP3 ADD SWAP1 SWAP3 MSTORE PUSH2 0x16E3 SWAP2 DUP2 ADD SWAP1 PUSH2 0x379A JUMP JUMPDEST PUSH1 0x1 JUMPDEST PUSH2 0x170E JUMPI PUSH1 0x40 MLOAD PUSH4 0x4C9C8CE3 PUSH1 0xE0 SHL DUP2 MSTORE PUSH1 0x1 PUSH1 0x1 PUSH1 0xA0 SHL SUB DUP4 AND PUSH1 0x4 DUP3 ADD MSTORE PUSH1 0x24 ADD PUSH2 0x93C JUMP JUMPDEST PUSH0 DUP1 MLOAD PUSH1 0x20 PUSH2 0x3A57 DUP4 CODECOPY DUP2 MLOAD SWAP2 MSTORE DUP2 EQ PUSH2 0x173E JUMPI PUSH1 0x40 MLOAD PUSH4 0x2A875269 PUSH1 0xE2 SHL DUP2 MSTORE PUSH1 0x4 DUP2 ADD DUP3 SWAP1 MSTORE PUSH1 0x24 ADD PUSH2 0x93C JUMP JUMPDEST PUSH2 0xA85 DUP4 DUP4 PUSH2 0x2174 JUMP JUMPDEST ADDRESS PUSH1 0x1 PUSH1 0x1 PUSH1 0xA0 SHL SUB PUSH32 0x0 AND EQ PUSH2 0x1660 JUMPI PUSH1 0x40 MLOAD PUSH4 0x703E46DD PUSH1 0xE1 SHL DUP2 MSTORE PUSH1 0x4 ADD PUSH1 0x40 MLOAD DUP1 SWAP2 SUB SWAP1 REVERT JUMPDEST PUSH0 DUP1 MLOAD PUSH1 0x20 PUSH2 0x39D7 DUP4 CODECOPY DUP2 MLOAD SWAP2 MSTORE PUSH0 PUSH2 0x17A9 DUP5 PUSH2 0xBFF JUMP JUMPDEST PUSH1 0x1 PUSH1 0x1 PUSH1 0xA0 SHL SUB DUP6 DUP2 AND PUSH0 DUP2 DUP2 MSTORE PUSH1 0x20 DUP7 SWAP1 MSTORE PUSH1 0x40 DUP1 DUP3 KECCAK256 DUP1 SLOAD PUSH1 0x1 PUSH1 0x1 PUSH1 0xA0 SHL SUB NOT AND DUP10 DUP7 AND SWAP1 DUP2 OR SWAP1 SWAP2 SSTORE SWAP1 MLOAD SWAP5 SWAP6 POP SWAP4 SWAP3 DUP6 AND SWAP3 PUSH32 0x3134E8A2E6D97E929A7E54011EA5485D7D196DD5F0BA4D4EF95803E8E3FC257F SWAP2 SWAP1 LOG4 PUSH2 0x99F DUP2 DUP5 PUSH2 0x1813 DUP8 PUSH2 0x21C9 JUMP JUMPDEST PUSH2 0x21D3 JUMP JUMPDEST PUSH2 0x1820 PUSH2 0x2349 JUMP JUMPDEST PUSH0 DUP1 MLOAD PUSH1 0x20 PUSH2 0x3AD7 DUP4 CODECOPY DUP2 MLOAD SWAP2 MSTORE DUP1 SLOAD PUSH1 0xFF NOT AND PUSH1 0x1 OR DUP2 SSTORE PUSH32 0x62E78CEA01BEE320CD4E420270B5EA74000D11B0C9F74754EBDBFC544B05A258 CALLER PUSH2 0x159E JUMP JUMPDEST PUSH32 0xA16A46D94261C7517CC8FF89F61C0CE93598E3C849801011DEE649A6A557D102 DUP1 SLOAD PUSH1 0x60 SWAP2 PUSH0 DUP1 MLOAD PUSH1 0x20 PUSH2 0x3A37 DUP4 CODECOPY DUP2 MLOAD SWAP2 MSTORE SWAP2 PUSH2 0x872 SWAP1 PUSH2 0x36FC JUMP JUMPDEST PUSH32 0xA16A46D94261C7517CC8FF89F61C0CE93598E3C849801011DEE649A6A557D103 DUP1 SLOAD PUSH1 0x60 SWAP2 PUSH0 DUP1 MLOAD PUSH1 0x20 PUSH2 0x3A37 DUP4 CODECOPY DUP2 MLOAD SWAP2 MSTORE SWAP2 PUSH2 0x872 SWAP1 PUSH2 0x36FC JUMP JUMPDEST DUP1 SLOAD PUSH0 SWAP1 DUP1 ISZERO PUSH2 0x190B JUMPI PUSH2 0x18F5 DUP4 PUSH2 0x152D PUSH1 0x1 DUP5 PUSH2 0x3774 JUMP JUMPDEST SLOAD PUSH1 0x1 PUSH1 0x30 SHL SWAP1 DIV PUSH1 0x1 PUSH1 0x1 PUSH1 0xD0 SHL SUB AND PUSH2 0x134C JUMP JUMPDEST PUSH0 SWAP4 SWAP3 POP POP POP JUMP JUMPDEST PUSH0 DUP1 MLOAD PUSH1 0x20 PUSH2 0x3A17 DUP4 CODECOPY DUP2 MLOAD SWAP2 MSTORE PUSH1 0x1 PUSH1 0x1 PUSH1 0xA0 SHL SUB DUP4 AND PUSH2 0x1953 JUMPI PUSH1 0x40 MLOAD PUSH4 0xB611743 PUSH1 0xE3 SHL DUP2 MSTORE PUSH1 0x1 PUSH1 0x1 PUSH1 0xA0 SHL SUB DUP5 AND PUSH1 0x4 DUP3 ADD MSTORE PUSH1 0x24 ADD PUSH2 0x93C JUMP JUMPDEST PUSH1 0x1 PUSH1 0x1 PUSH1 0xA0 SHL SUB DUP5 DUP2 AND PUSH0 DUP2 DUP2 MSTORE PUSH1 0x5 DUP5 ADD PUSH1 0x20 SWAP1 DUP2 MSTORE PUSH1 0x40 DUP1 DUP4 KECCAK256 SWAP5 DUP9 AND DUP1 DUP5 MSTORE SWAP5 DUP3 MSTORE SWAP2 DUP3 SWAP1 KECCAK256 DUP1 SLOAD PUSH1 0xFF NOT AND DUP8 ISZERO ISZERO SWAP1 DUP2 OR SWAP1 SWAP2 SSTORE SWAP2 MLOAD SWAP2 DUP3 MSTORE PUSH32 0x17307EAB39AB6107E8899845AD3D59BD9653F200F220920489CA2B5937696C31 SWAP2 ADD PUSH1 0x40 MLOAD DUP1 SWAP2 SUB SWAP1 LOG3 POP POP POP POP JUMP JUMPDEST PUSH1 0x1 PUSH1 0x1 PUSH1 0xA0 SHL SUB DUP4 AND EXTCODESIZE ISZERO PUSH2 0x1AE3 JUMPI PUSH1 0x40 MLOAD PUSH4 0xA85BD01 PUSH1 0xE1 SHL DUP2 MSTORE PUSH1 0x1 PUSH1 0x1 PUSH1 0xA0 SHL SUB DUP5 AND SWAP1 PUSH4 0x150B7A02 SWAP1 PUSH2 0x1A04 SWAP1 DUP9 SWAP1 DUP9 SWAP1 DUP8 SWAP1 DUP8 SWAP1 PUSH1 0x4 ADD PUSH2 0x37B1 JUMP JUMPDEST PUSH1 0x20 PUSH1 0x40 MLOAD DUP1 DUP4 SUB DUP2 PUSH0 DUP8 GAS CALL SWAP3 POP POP POP DUP1 ISZERO PUSH2 0x1A3E JUMPI POP PUSH1 0x40 DUP1 MLOAD PUSH1 0x1F RETURNDATASIZE SWAP1 DUP2 ADD PUSH1 0x1F NOT AND DUP3 ADD SWAP1 SWAP3 MSTORE PUSH2 0x1A3B SWAP2 DUP2 ADD SWAP1 PUSH2 0x37ED JUMP JUMPDEST PUSH1 0x1 JUMPDEST PUSH2 0x1AA5 JUMPI RETURNDATASIZE DUP1 DUP1 ISZERO PUSH2 0x1A6B JUMPI PUSH1 0x40 MLOAD SWAP2 POP PUSH1 0x1F NOT PUSH1 0x3F RETURNDATASIZE ADD AND DUP3 ADD PUSH1 0x40 MSTORE RETURNDATASIZE DUP3 MSTORE RETURNDATASIZE PUSH0 PUSH1 0x20 DUP5 ADD RETURNDATACOPY PUSH2 0x1A70 JUMP JUMPDEST PUSH1 0x60 SWAP2 POP JUMPDEST POP DUP1 MLOAD PUSH0 SUB PUSH2 0x1A9D JUMPI PUSH1 0x40 MLOAD PUSH4 0x32505749 PUSH1 0xE1 SHL DUP2 MSTORE PUSH1 0x1 PUSH1 0x1 PUSH1 0xA0 SHL SUB DUP6 AND PUSH1 0x4 DUP3 ADD MSTORE PUSH1 0x24 ADD PUSH2 0x93C JUMP JUMPDEST DUP1 MLOAD DUP2 PUSH1 0x20 ADD REVERT JUMPDEST PUSH1 0x1 PUSH1 0x1 PUSH1 0xE0 SHL SUB NOT DUP2 AND PUSH4 0xA85BD01 PUSH1 0xE1 SHL EQ PUSH2 0x1AE1 JUMPI PUSH1 0x40 MLOAD PUSH4 0x32505749 PUSH1 0xE1 SHL DUP2 MSTORE PUSH1 0x1 PUSH1 0x1 PUSH1 0xA0 SHL SUB DUP6 AND PUSH1 0x4 DUP3 ADD MSTORE PUSH1 0x24 ADD PUSH2 0x93C JUMP JUMPDEST POP JUMPDEST POP POP POP POP POP JUMP JUMPDEST PUSH0 PUSH2 0x84D PUSH2 0x1AF6 PUSH2 0x2379 JUMP JUMPDEST DUP4 PUSH1 0x40 MLOAD PUSH2 0x1901 PUSH1 0xF0 SHL DUP2 MSTORE PUSH1 0x2 DUP2 ADD SWAP3 SWAP1 SWAP3 MSTORE PUSH1 0x22 DUP3 ADD MSTORE PUSH1 0x42 SWAP1 KECCAK256 SWAP1 JUMP JUMPDEST PUSH0 DUP1 PUSH0 DUP1 PUSH2 0x1B26 DUP9 DUP9 DUP9 DUP9 PUSH2 0x2387 JUMP JUMPDEST SWAP3 POP SWAP3 POP SWAP3 POP PUSH2 0x1B36 DUP3 DUP3 PUSH2 0x244F JUMP JUMPDEST POP SWAP1 SWAP7 SWAP6 POP POP POP POP POP POP JUMP JUMPDEST PUSH1 0x1 PUSH1 0x1 PUSH1 0xA0 SHL SUB DUP3 AND PUSH0 SWAP1 DUP2 MSTORE PUSH32 0x5AB42CED628888259C08AC98DB1EB0CF702FC1501344311D8B100CD1BFE4BB00 PUSH1 0x20 MSTORE PUSH1 0x40 SWAP1 KECCAK256 DUP1 SLOAD PUSH1 0x1 DUP2 ADD SWAP1 SWAP2 SSTORE DUP2 DUP2 EQ PUSH2 0xA85 JUMPI PUSH1 0x40 MLOAD PUSH4 0x1D4B623 PUSH1 0xE6 SHL DUP2 MSTORE PUSH1 0x1 PUSH1 0x1 PUSH1 0xA0 SHL SUB DUP5 AND PUSH1 0x4 DUP3 ADD MSTORE PUSH1 0x24 DUP2 ADD DUP3 SWAP1 MSTORE PUSH1 0x44 ADD PUSH2 0x93C JUMP JUMPDEST PUSH1 0x60 PUSH32 0x542A41881EE128A365A727B282C86FA859579490B9BB45AAB8503648C8E7900 PUSH2 0x1BDF DUP4 PUSH2 0x12C0 JUMP JUMPDEST POP PUSH0 DUP4 DUP2 MSTORE PUSH1 0x20 DUP3 SWAP1 MSTORE PUSH1 0x40 DUP2 KECCAK256 DUP1 SLOAD PUSH2 0x1BF8 SWAP1 PUSH2 0x36FC JUMP JUMPDEST DUP1 PUSH1 0x1F ADD PUSH1 0x20 DUP1 SWAP2 DIV MUL PUSH1 0x20 ADD PUSH1 0x40 MLOAD SWAP1 DUP2 ADD PUSH1 0x40 MSTORE DUP1 SWAP3 SWAP2 SWAP1 DUP2 DUP2 MSTORE PUSH1 0x20 ADD DUP3 DUP1 SLOAD PUSH2 0x1C24 SWAP1 PUSH2 0x36FC JUMP JUMPDEST DUP1 ISZERO PUSH2 0x1C6F JUMPI DUP1 PUSH1 0x1F LT PUSH2 0x1C46 JUMPI PUSH2 0x100 DUP1 DUP4 SLOAD DIV MUL DUP4 MSTORE SWAP2 PUSH1 0x20 ADD SWAP2 PUSH2 0x1C6F JUMP JUMPDEST DUP3 ADD SWAP2 SWAP1 PUSH0 MSTORE PUSH1 0x20 PUSH0 KECCAK256 SWAP1 JUMPDEST DUP2 SLOAD DUP2 MSTORE SWAP1 PUSH1 0x1 ADD SWAP1 PUSH1 0x20 ADD DUP1 DUP4 GT PUSH2 0x1C52 JUMPI DUP3 SWAP1 SUB PUSH1 0x1F AND DUP3 ADD SWAP2 JUMPDEST POP POP POP POP POP SWAP1 POP PUSH0 PUSH2 0x1CB1 PUSH1 0x40 DUP1 MLOAD DUP1 DUP3 ADD SWAP1 SWAP2 MSTORE PUSH1 0x20 DUP1 DUP3 MSTORE PUSH32 0x68747470733A2F2F796F75725F626173655F75726C2E636F6D2F746F6B656E73 SWAP1 DUP3 ADD MSTORE SWAP1 JUMP JUMPDEST SWAP1 POP DUP1 MLOAD PUSH0 SUB PUSH2 0x1CC3 JUMPI POP SWAP4 SWAP3 POP POP POP JUMP JUMPDEST DUP2 MLOAD ISZERO PUSH2 0x1CF6 JUMPI DUP1 DUP3 PUSH1 0x40 MLOAD PUSH1 0x20 ADD PUSH2 0x1CDD SWAP3 SWAP2 SWAP1 PUSH2 0x381F JUMP JUMPDEST PUSH1 0x40 MLOAD PUSH1 0x20 DUP2 DUP4 SUB SUB DUP2 MSTORE SWAP1 PUSH1 0x40 MSTORE SWAP4 POP POP POP POP SWAP2 SWAP1 POP JUMP JUMPDEST PUSH2 0x1CFF DUP6 PUSH2 0x2507 JUMP JUMPDEST SWAP6 SWAP5 POP POP POP POP POP JUMP JUMPDEST PUSH2 0x913 DUP3 DUP3 PUSH1 0x40 MLOAD DUP1 PUSH1 0x20 ADD PUSH1 0x40 MSTORE DUP1 PUSH0 DUP2 MSTORE POP PUSH2 0x259D JUMP JUMPDEST PUSH0 DUP3 DUP2 MSTORE PUSH32 0x542A41881EE128A365A727B282C86FA859579490B9BB45AAB8503648C8E7900 PUSH1 0x20 DUP2 SWAP1 MSTORE PUSH1 0x40 SWAP1 SWAP2 KECCAK256 PUSH2 0x1D5A DUP4 DUP3 PUSH2 0x3877 JUMP JUMPDEST POP PUSH1 0x40 MLOAD DUP4 DUP2 MSTORE PUSH32 0xF8E1A15ABA9398E019F0B49DF1A4FDE98EE17AE345CB5F6B5E2C27F5033E8CE7 SWAP1 PUSH1 0x20 ADD PUSH1 0x40 MLOAD DUP1 SWAP2 SUB SWAP1 LOG1 POP POP POP JUMP JUMPDEST PUSH2 0x1D9B PUSH2 0x25B4 JUMP JUMPDEST PUSH2 0x913 DUP3 DUP3 PUSH2 0x25FD JUMP JUMPDEST PUSH2 0x1660 PUSH2 0x25B4 JUMP JUMPDEST PUSH2 0x1DB5 PUSH2 0x25B4 JUMP JUMPDEST PUSH2 0x1660 PUSH2 0x262D JUMP JUMPDEST PUSH2 0x1DC5 PUSH2 0x25B4 JUMP JUMPDEST PUSH2 0x913 DUP3 DUP3 PUSH2 0x264D JUMP JUMPDEST PUSH0 PUSH1 0x1 PUSH1 0x1 PUSH1 0xE0 SHL SUB NOT DUP3 AND PUSH4 0x24832483 PUSH1 0xE1 SHL EQ DUP1 PUSH2 0x84D JUMPI POP PUSH2 0x84D DUP3 PUSH2 0x26AC JUMP JUMPDEST PUSH0 SWAP1 DUP2 MSTORE PUSH32 0x80BB2B638CC20BC4D0A60D66940F3AB4A00C1D7B313497CA82FB0B4AB0079302 PUSH1 0x20 MSTORE PUSH1 0x40 SWAP1 KECCAK256 SLOAD PUSH1 0x1 PUSH1 0x1 PUSH1 0xA0 SHL SUB AND SWAP1 JUMP JUMPDEST PUSH0 DUP1 MLOAD PUSH1 0x20 PUSH2 0x3A17 DUP4 CODECOPY DUP2 MLOAD SWAP2 MSTORE DUP2 DUP1 PUSH2 0x1E4E JUMPI POP PUSH1 0x1 PUSH1 0x1 PUSH1 0xA0 SHL SUB DUP4 AND ISZERO ISZERO JUMPDEST ISZERO PUSH2 0x1F0F JUMPI PUSH0 PUSH2 0x1E5D DUP6 PUSH2 0x12C0 JUMP JUMPDEST SWAP1 POP PUSH1 0x1 PUSH1 0x1 PUSH1 0xA0 SHL SUB DUP5 AND ISZERO DUP1 ISZERO SWAP1 PUSH2 0x1E89 JUMPI POP DUP4 PUSH1 0x1 PUSH1 0x1 PUSH1 0xA0 SHL SUB AND DUP2 PUSH1 0x1 PUSH1 0x1 PUSH1 0xA0 SHL SUB AND EQ ISZERO JUMPDEST DUP1 ISZERO PUSH2 0x1E9C JUMPI POP PUSH2 0x1E9A DUP2 DUP6 PUSH2 0xFF7 JUMP JUMPDEST ISZERO JUMPDEST ISZERO PUSH2 0x1EC5 JUMPI PUSH1 0x40 MLOAD PUSH4 0xA9FBF51F PUSH1 0xE0 SHL DUP2 MSTORE PUSH1 0x1 PUSH1 0x1 PUSH1 0xA0 SHL SUB DUP6 AND PUSH1 0x4 DUP3 ADD MSTORE PUSH1 0x24 ADD PUSH2 0x93C JUMP JUMPDEST DUP3 ISZERO PUSH2 0x1F0D JUMPI DUP5 DUP7 PUSH1 0x1 PUSH1 0x1 PUSH1 0xA0 SHL SUB AND DUP3 PUSH1 0x1 PUSH1 0x1 PUSH1 0xA0 SHL SUB AND PUSH32 0x8C5BE1E5EBEC7D5BD14F71427D1E84F3DD0314C0F7B2291E5B200AC8C7C3B925 PUSH1 0x40 MLOAD PUSH1 0x40 MLOAD DUP1 SWAP2 SUB SWAP1 LOG4 JUMPDEST POP JUMPDEST PUSH0 SWAP4 DUP5 MSTORE PUSH1 0x4 ADD PUSH1 0x20 MSTORE POP POP PUSH1 0x40 SWAP1 KECCAK256 DUP1 SLOAD PUSH1 0x1 PUSH1 0x1 PUSH1 0xA0 SHL SUB NOT AND PUSH1 0x1 PUSH1 0x1 PUSH1 0xA0 SHL SUB SWAP3 SWAP1 SWAP3 AND SWAP2 SWAP1 SWAP2 OR SWAP1 SSTORE JUMP JUMPDEST PUSH0 DUP1 PUSH2 0x1F4C DUP6 DUP6 DUP6 PUSH2 0x26D0 JUMP JUMPDEST SWAP1 POP PUSH2 0x1349 DUP2 DUP7 PUSH1 0x1 PUSH2 0x26E4 JUMP JUMPDEST PUSH2 0x1F64 DUP3 DUP3 PUSH2 0xDCD JUMP JUMPDEST PUSH2 0x913 JUMPI PUSH1 0x40 MLOAD PUSH4 0xE2517D3F PUSH1 0xE0 SHL DUP2 MSTORE PUSH1 0x1 PUSH1 0x1 PUSH1 0xA0 SHL SUB DUP3 AND PUSH1 0x4 DUP3 ADD MSTORE PUSH1 0x24 DUP2 ADD DUP4 SWAP1 MSTORE PUSH1 0x44 ADD PUSH2 0x93C JUMP JUMPDEST PUSH0 PUSH1 0x1 DUP3 GT PUSH2 0x1FA0 JUMPI POP SWAP1 JUMP JUMPDEST DUP2 PUSH1 0x1 PUSH1 0x1 PUSH1 0x80 SHL DUP3 LT PUSH2 0x1FB9 JUMPI PUSH1 0x80 SWAP2 SWAP1 SWAP2 SHR SWAP1 PUSH1 0x40 SHL JUMPDEST PUSH1 0x1 PUSH1 0x40 SHL DUP3 LT PUSH2 0x1FCF JUMPI PUSH1 0x40 SWAP2 SWAP1 SWAP2 SHR SWAP1 PUSH1 0x20 SHL JUMPDEST PUSH5 0x100000000 DUP3 LT PUSH2 0x1FE6 JUMPI PUSH1 0x20 SWAP2 SWAP1 SWAP2 SHR SWAP1 PUSH1 0x10 SHL JUMPDEST PUSH3 0x10000 DUP3 LT PUSH2 0x1FFB JUMPI PUSH1 0x10 SWAP2 SWAP1 SWAP2 SHR SWAP1 PUSH1 0x8 SHL JUMPDEST PUSH2 0x100 DUP3 LT PUSH2 0x200F JUMPI PUSH1 0x8 SWAP2 SWAP1 SWAP2 SHR SWAP1 PUSH1 0x4 SHL JUMPDEST PUSH1 0x10 DUP3 LT PUSH2 0x2022 JUMPI PUSH1 0x4 SWAP2 SWAP1 SWAP2 SHR SWAP1 PUSH1 0x2 SHL JUMPDEST PUSH1 0x4 DUP3 LT PUSH2 0x202E JUMPI PUSH1 0x1 SHL JUMPDEST PUSH1 0x3 MUL PUSH1 0x1 SWAP1 DUP2 SHR SWAP1 DUP2 DUP6 DUP2 PUSH2 0x2046 JUMPI PUSH2 0x2046 PUSH2 0x3932 JUMP JUMPDEST DIV DUP3 ADD SWAP1 SHR SWAP1 POP PUSH1 0x1 DUP2 DUP6 DUP2 PUSH2 0x205E JUMPI PUSH2 0x205E PUSH2 0x3932 JUMP JUMPDEST DIV DUP3 ADD SWAP1 SHR SWAP1 POP PUSH1 0x1 DUP2 DUP6 DUP2 PUSH2 0x2076 JUMPI PUSH2 0x2076 PUSH2 0x3932 JUMP JUMPDEST DIV DUP3 ADD SWAP1 SHR SWAP1 POP PUSH1 0x1 DUP2 DUP6 DUP2 PUSH2 0x208E JUMPI PUSH2 0x208E PUSH2 0x3932 JUMP JUMPDEST DIV DUP3 ADD SWAP1 SHR SWAP1 POP PUSH1 0x1 DUP2 DUP6 DUP2 PUSH2 0x20A6 JUMPI PUSH2 0x20A6 PUSH2 0x3932 JUMP JUMPDEST DIV DUP3 ADD SWAP1 SHR SWAP1 POP PUSH1 0x1 DUP2 DUP6 DUP2 PUSH2 0x20BE JUMPI PUSH2 0x20BE PUSH2 0x3932 JUMP JUMPDEST DIV DUP3 ADD SWAP1 SHR SWAP1 POP PUSH2 0x20DD DUP2 DUP6 DUP2 PUSH2 0x20D7 JUMPI PUSH2 0x20D7 PUSH2 0x3932 JUMP JUMPDEST DIV DUP3 GT SWAP1 JUMP JUMPDEST SWAP1 SUB SWAP4 SWAP3 POP POP POP JUMP JUMPDEST PUSH0 JUMPDEST DUP2 DUP4 LT ISZERO PUSH2 0x213D JUMPI PUSH0 PUSH2 0x20FB DUP5 DUP5 PUSH2 0x2755 JUMP JUMPDEST PUSH0 DUP8 DUP2 MSTORE PUSH1 0x20 SWAP1 KECCAK256 SWAP1 SWAP2 POP PUSH6 0xFFFFFFFFFFFF DUP7 AND SWAP1 DUP3 ADD SLOAD PUSH6 0xFFFFFFFFFFFF AND GT ISZERO PUSH2 0x2129 JUMPI DUP1 SWAP3 POP PUSH2 0x2137 JUMP JUMPDEST PUSH2 0x2134 DUP2 PUSH1 0x1 PUSH2 0x3787 JUMP JUMPDEST SWAP4 POP JUMPDEST POP PUSH2 0x20E8 JUMP JUMPDEST POP SWAP4 SWAP3 POP POP POP JUMP JUMPDEST PUSH0 DUP1 MLOAD PUSH1 0x20 PUSH2 0x3AD7 DUP4 CODECOPY DUP2 MLOAD SWAP2 MSTORE SLOAD PUSH1 0xFF AND PUSH2 0x1660 JUMPI PUSH1 0x40 MLOAD PUSH4 0x8DFC202B PUSH1 0xE0 SHL DUP2 MSTORE PUSH1 0x4 ADD PUSH1 0x40 MLOAD DUP1 SWAP2 SUB SWAP1 REVERT JUMPDEST PUSH2 0x217D DUP3 PUSH2 0x276F JUMP JUMPDEST PUSH1 0x40 MLOAD PUSH1 0x1 PUSH1 0x1 PUSH1 0xA0 SHL SUB DUP4 AND SWAP1 PUSH32 0xBC7CD75A20EE27FD9ADEBAB32041F755214DBC6BFFA90CC0225B39DA2E5C2D3B SWAP1 PUSH0 SWAP1 LOG2 DUP1 MLOAD ISZERO PUSH2 0x21C1 JUMPI PUSH2 0xA85 DUP3 DUP3 PUSH2 0x27D2 JUMP JUMPDEST PUSH2 0x913 PUSH2 0x283B JUMP JUMPDEST PUSH0 PUSH2 0x84D DUP3 PUSH2 0xC3D JUMP JUMPDEST PUSH0 DUP1 MLOAD PUSH1 0x20 PUSH2 0x39D7 DUP4 CODECOPY DUP2 MLOAD SWAP2 MSTORE PUSH1 0x1 PUSH1 0x1 PUSH1 0xA0 SHL SUB DUP5 DUP2 AND SWAP1 DUP5 AND EQ DUP1 ISZERO SWAP1 PUSH2 0x21FC JUMPI POP PUSH0 DUP3 GT JUMPDEST ISZERO PUSH2 0x99F JUMPI PUSH1 0x1 PUSH1 0x1 PUSH1 0xA0 SHL SUB DUP5 AND ISZERO PUSH2 0x22A5 JUMPI PUSH1 0x1 PUSH1 0x1 PUSH1 0xA0 SHL SUB DUP5 AND PUSH0 SWAP1 DUP2 MSTORE PUSH1 0x1 DUP3 ADD PUSH1 0x20 MSTORE PUSH1 0x40 DUP2 KECCAK256 DUP2 SWAP1 PUSH2 0x2240 SWAP1 PUSH2 0x285A PUSH2 0x223B DUP8 PUSH2 0x2865 JUMP JUMPDEST PUSH2 0x2898 JUMP JUMPDEST PUSH1 0x1 PUSH1 0x1 PUSH1 0xD0 SHL SUB AND SWAP2 POP PUSH1 0x1 PUSH1 0x1 PUSH1 0xD0 SHL SUB AND SWAP2 POP DUP6 PUSH1 0x1 PUSH1 0x1 PUSH1 0xA0 SHL SUB AND PUSH32 0xDEC2BACDD2F05B59DE34DA9B523DFF8BE42E5E38E818C82FDB0BAE774387A724 DUP4 DUP4 PUSH1 0x40 MLOAD PUSH2 0x229A SWAP3 SWAP2 SWAP1 SWAP2 DUP3 MSTORE PUSH1 0x20 DUP3 ADD MSTORE PUSH1 0x40 ADD SWAP1 JUMP JUMPDEST PUSH1 0x40 MLOAD DUP1 SWAP2 SUB SWAP1 LOG2 POP POP JUMPDEST PUSH1 0x1 PUSH1 0x1 PUSH1 0xA0 SHL SUB DUP4 AND ISZERO PUSH2 0x99F JUMPI PUSH1 0x1 PUSH1 0x1 PUSH1 0xA0 SHL SUB DUP4 AND PUSH0 SWAP1 DUP2 MSTORE PUSH1 0x1 DUP3 ADD PUSH1 0x20 MSTORE PUSH1 0x40 DUP2 KECCAK256 DUP2 SWAP1 PUSH2 0x22DF SWAP1 PUSH2 0x28C9 PUSH2 0x223B DUP8 PUSH2 0x2865 JUMP JUMPDEST PUSH1 0x1 PUSH1 0x1 PUSH1 0xD0 SHL SUB AND SWAP2 POP PUSH1 0x1 PUSH1 0x1 PUSH1 0xD0 SHL SUB AND SWAP2 POP DUP5 PUSH1 0x1 PUSH1 0x1 PUSH1 0xA0 SHL SUB AND PUSH32 0xDEC2BACDD2F05B59DE34DA9B523DFF8BE42E5E38E818C82FDB0BAE774387A724 DUP4 DUP4 PUSH1 0x40 MLOAD PUSH2 0x2339 SWAP3 SWAP2 SWAP1 SWAP2 DUP3 MSTORE PUSH1 0x20 DUP3 ADD MSTORE PUSH1 0x40 ADD SWAP1 JUMP JUMPDEST PUSH1 0x40 MLOAD DUP1 SWAP2 SUB SWAP1 LOG2 POP POP POP POP POP POP JUMP JUMPDEST PUSH0 DUP1 MLOAD PUSH1 0x20 PUSH2 0x3AD7 DUP4 CODECOPY DUP2 MLOAD SWAP2 MSTORE SLOAD PUSH1 0xFF AND ISZERO PUSH2 0x1660 JUMPI PUSH1 0x40 MLOAD PUSH4 0xD93C0665 PUSH1 0xE0 SHL DUP2 MSTORE PUSH1 0x4 ADD PUSH1 0x40 MLOAD DUP1 SWAP2 SUB SWAP1 REVERT JUMPDEST PUSH0 PUSH2 0x2382 PUSH2 0x28D4 JUMP JUMPDEST SWAP1 POP SWAP1 JUMP JUMPDEST PUSH0 DUP1 DUP1 PUSH32 0x7FFFFFFFFFFFFFFFFFFFFFFFFFFFFFFF5D576E7357A4501DDFE92F46681B20A0 DUP5 GT ISZERO PUSH2 0x23C0 JUMPI POP PUSH0 SWAP2 POP PUSH1 0x3 SWAP1 POP DUP3 PUSH2 0x2445 JUMP JUMPDEST PUSH1 0x40 DUP1 MLOAD PUSH0 DUP1 DUP3 MSTORE PUSH1 0x20 DUP3 ADD DUP1 DUP5 MSTORE DUP11 SWAP1 MSTORE PUSH1 0xFF DUP10 AND SWAP3 DUP3 ADD SWAP3 SWAP1 SWAP3 MSTORE PUSH1 0x60 DUP2 ADD DUP8 SWAP1 MSTORE PUSH1 0x80 DUP2 ADD DUP7 SWAP1 MSTORE PUSH1 0x1 SWAP1 PUSH1 0xA0 ADD PUSH1 0x20 PUSH1 0x40 MLOAD PUSH1 0x20 DUP2 SUB SWAP1 DUP1 DUP5 SUB SWAP1 DUP6 GAS STATICCALL ISZERO DUP1 ISZERO PUSH2 0x2411 JUMPI RETURNDATASIZE PUSH0 DUP1 RETURNDATACOPY RETURNDATASIZE PUSH0 REVERT JUMPDEST POP POP PUSH1 0x40 MLOAD PUSH1 0x1F NOT ADD MLOAD SWAP2 POP POP PUSH1 0x1 PUSH1 0x1 PUSH1 0xA0 SHL SUB DUP2 AND PUSH2 0x243C JUMPI POP PUSH0 SWAP3 POP PUSH1 0x1 SWAP2 POP DUP3 SWAP1 POP PUSH2 0x2445 JUMP JUMPDEST SWAP3 POP PUSH0 SWAP2 POP DUP2 SWAP1 POP JUMPDEST SWAP5 POP SWAP5 POP SWAP5 SWAP2 POP POP JUMP JUMPDEST PUSH0 DUP3 PUSH1 0x3 DUP2 GT ISZERO PUSH2 0x2462 JUMPI PUSH2 0x2462 PUSH2 0x3946 JUMP JUMPDEST SUB PUSH2 0x246B JUMPI POP POP JUMP JUMPDEST PUSH1 0x1 DUP3 PUSH1 0x3 DUP2 GT ISZERO PUSH2 0x247F JUMPI PUSH2 0x247F PUSH2 0x3946 JUMP JUMPDEST SUB PUSH2 0x249D JUMPI PUSH1 0x40 MLOAD PUSH4 0xF645EEDF PUSH1 0xE0 SHL DUP2 MSTORE PUSH1 0x4 ADD PUSH1 0x40 MLOAD DUP1 SWAP2 SUB SWAP1 REVERT JUMPDEST PUSH1 0x2 DUP3 PUSH1 0x3 DUP2 GT ISZERO PUSH2 0x24B1 JUMPI PUSH2 0x24B1 PUSH2 0x3946 JUMP JUMPDEST SUB PUSH2 0x24D2 JUMPI PUSH1 0x40 MLOAD PUSH4 0xFCE698F7 PUSH1 0xE0 SHL DUP2 MSTORE PUSH1 0x4 DUP2 ADD DUP3 SWAP1 MSTORE PUSH1 0x24 ADD PUSH2 0x93C JUMP JUMPDEST PUSH1 0x3 DUP3 PUSH1 0x3 DUP2 GT ISZERO PUSH2 0x24E6 JUMPI PUSH2 0x24E6 PUSH2 0x3946 JUMP JUMPDEST SUB PUSH2 0x913 JUMPI PUSH1 0x40 MLOAD PUSH4 0x35E2F383 PUSH1 0xE2 SHL DUP2 MSTORE PUSH1 0x4 DUP2 ADD DUP3 SWAP1 MSTORE PUSH1 0x24 ADD PUSH2 0x93C JUMP JUMPDEST PUSH1 0x60 PUSH2 0x2512 DUP3 PUSH2 0x12C0 JUMP JUMPDEST POP PUSH0 PUSH2 0x254E PUSH1 0x40 DUP1 MLOAD DUP1 DUP3 ADD SWAP1 SWAP2 MSTORE PUSH1 0x20 DUP1 DUP3 MSTORE PUSH32 0x68747470733A2F2F796F75725F626173655F75726C2E636F6D2F746F6B656E73 SWAP1 DUP3 ADD MSTORE SWAP1 JUMP JUMPDEST SWAP1 POP PUSH0 DUP2 MLOAD GT PUSH2 0x256C JUMPI PUSH1 0x40 MLOAD DUP1 PUSH1 0x20 ADD PUSH1 0x40 MSTORE DUP1 PUSH0 DUP2 MSTORE POP PUSH2 0x134C JUMP JUMPDEST DUP1 PUSH2 0x2576 DUP5 PUSH2 0x2947 JUMP JUMPDEST PUSH1 0x40 MLOAD PUSH1 0x20 ADD PUSH2 0x2587 SWAP3 SWAP2 SWAP1 PUSH2 0x381F JUMP JUMPDEST PUSH1 0x40 MLOAD PUSH1 0x20 DUP2 DUP4 SUB SUB DUP2 MSTORE SWAP1 PUSH1 0x40 MSTORE SWAP4 SWAP3 POP POP POP JUMP JUMPDEST PUSH2 0x25A7 DUP4 DUP4 PUSH2 0x29D7 JUMP JUMPDEST PUSH2 0xA85 CALLER PUSH0 DUP6 DUP6 DUP6 PUSH2 0x19C2 JUMP JUMPDEST PUSH32 0xF0C57E16840DF040F15088DC2F81FE391C3923BEC73E23A9662EFC9C229C6A00 SLOAD PUSH1 0x1 PUSH1 0x40 SHL SWAP1 DIV PUSH1 0xFF AND PUSH2 0x1660 JUMPI PUSH1 0x40 MLOAD PUSH4 0x1AFCD79F PUSH1 0xE3 SHL DUP2 MSTORE PUSH1 0x4 ADD PUSH1 0x40 MLOAD DUP1 SWAP2 SUB SWAP1 REVERT JUMPDEST PUSH2 0x2605 PUSH2 0x25B4 JUMP JUMPDEST PUSH0 DUP1 MLOAD PUSH1 0x20 PUSH2 0x3A17 DUP4 CODECOPY DUP2 MLOAD SWAP2 MSTORE DUP1 PUSH2 0x261E DUP5 DUP3 PUSH2 0x3877 JUMP JUMPDEST POP PUSH1 0x1 DUP2 ADD PUSH2 0x99F DUP4 DUP3 PUSH2 0x3877 JUMP JUMPDEST PUSH2 0x2635 PUSH2 0x25B4 JUMP JUMPDEST PUSH0 DUP1 MLOAD PUSH1 0x20 PUSH2 0x3AD7 DUP4 CODECOPY DUP2 MLOAD SWAP2 MSTORE DUP1 SLOAD PUSH1 0xFF NOT AND SWAP1 SSTORE JUMP JUMPDEST PUSH2 0x2655 PUSH2 0x25B4 JUMP JUMPDEST PUSH0 DUP1 MLOAD PUSH1 0x20 PUSH2 0x3A37 DUP4 CODECOPY DUP2 MLOAD SWAP2 MSTORE PUSH32 0xA16A46D94261C7517CC8FF89F61C0CE93598E3C849801011DEE649A6A557D102 PUSH2 0x268E DUP5 DUP3 PUSH2 0x3877 JUMP JUMPDEST POP PUSH1 0x3 DUP2 ADD PUSH2 0x269D DUP4 DUP3 PUSH2 0x3877 JUMP JUMPDEST POP PUSH0 DUP1 DUP3 SSTORE PUSH1 0x1 SWAP1 SWAP2 ADD SSTORE POP POP JUMP JUMPDEST PUSH0 PUSH1 0x1 PUSH1 0x1 PUSH1 0xE0 SHL SUB NOT DUP3 AND PUSH4 0x780E9D63 PUSH1 0xE0 SHL EQ DUP1 PUSH2 0x84D JUMPI POP PUSH2 0x84D DUP3 PUSH2 0x2A38 JUMP JUMPDEST PUSH0 PUSH2 0x26D9 PUSH2 0x2349 JUMP JUMPDEST PUSH2 0x1349 DUP5 DUP5 DUP5 PUSH2 0x2A87 JUMP JUMPDEST PUSH0 DUP1 MLOAD PUSH1 0x20 PUSH2 0x39D7 DUP4 CODECOPY DUP2 MLOAD SWAP2 MSTORE PUSH1 0x1 PUSH1 0x1 PUSH1 0xA0 SHL SUB DUP5 AND PUSH2 0x2716 JUMPI PUSH2 0x2713 DUP2 PUSH1 0x2 ADD PUSH2 0x28C9 PUSH2 0x223B DUP6 PUSH2 0x2865 JUMP JUMPDEST POP POP JUMPDEST PUSH1 0x1 PUSH1 0x1 PUSH1 0xA0 SHL SUB DUP4 AND PUSH2 0x273A JUMPI PUSH2 0x2737 DUP2 PUSH1 0x2 ADD PUSH2 0x285A PUSH2 0x223B DUP6 PUSH2 0x2865 JUMP JUMPDEST POP POP JUMPDEST PUSH2 0x99F PUSH2 0x2746 DUP6 PUSH2 0xBFF JUMP JUMPDEST PUSH2 0x274F DUP6 PUSH2 0xBFF JUMP JUMPDEST DUP5 PUSH2 0x21D3 JUMP JUMPDEST PUSH0 PUSH2 0x2763 PUSH1 0x2 DUP5 DUP5 XOR PUSH2 0x395A JUMP JUMPDEST PUSH2 0x134C SWAP1 DUP5 DUP5 AND PUSH2 0x3787 JUMP JUMPDEST DUP1 PUSH1 0x1 PUSH1 0x1 PUSH1 0xA0 SHL SUB AND EXTCODESIZE PUSH0 SUB PUSH2 0x27A4 JUMPI PUSH1 0x40 MLOAD PUSH4 0x4C9C8CE3 PUSH1 0xE0 SHL DUP2 MSTORE PUSH1 0x1 PUSH1 0x1 PUSH1 0xA0 SHL SUB DUP3 AND PUSH1 0x4 DUP3 ADD MSTORE PUSH1 0x24 ADD PUSH2 0x93C JUMP JUMPDEST PUSH0 DUP1 MLOAD PUSH1 0x20 PUSH2 0x3A57 DUP4 CODECOPY DUP2 MLOAD SWAP2 MSTORE DUP1 SLOAD PUSH1 0x1 PUSH1 0x1 PUSH1 0xA0 SHL SUB NOT AND PUSH1 0x1 PUSH1 0x1 PUSH1 0xA0 SHL SUB SWAP3 SWAP1 SWAP3 AND SWAP2 SWAP1 SWAP2 OR SWAP1 SSTORE JUMP JUMPDEST PUSH1 0x60 PUSH0 DUP1 DUP5 PUSH1 0x1 PUSH1 0x1 PUSH1 0xA0 SHL SUB AND DUP5 PUSH1 0x40 MLOAD PUSH2 0x27EE SWAP2 SWAP1 PUSH2 0x3979 JUMP JUMPDEST PUSH0 PUSH1 0x40 MLOAD DUP1 DUP4 SUB DUP2 DUP6 GAS DELEGATECALL SWAP2 POP POP RETURNDATASIZE DUP1 PUSH0 DUP2 EQ PUSH2 0x2826 JUMPI PUSH1 0x40 MLOAD SWAP2 POP PUSH1 0x1F NOT PUSH1 0x3F RETURNDATASIZE ADD AND DUP3 ADD PUSH1 0x40 MSTORE RETURNDATASIZE DUP3 MSTORE RETURNDATASIZE PUSH0 PUSH1 0x20 DUP5 ADD RETURNDATACOPY PUSH2 0x282B JUMP JUMPDEST PUSH1 0x60 SWAP2 POP JUMPDEST POP SWAP2 POP SWAP2 POP PUSH2 0x1CFF DUP6 DUP4 DUP4 PUSH2 0x2B7D JUMP JUMPDEST CALLVALUE ISZERO PUSH2 0x1660 JUMPI PUSH1 0x40 MLOAD PUSH4 0xB398979F PUSH1 0xE0 SHL DUP2 MSTORE PUSH1 0x4 ADD PUSH1 0x40 MLOAD DUP1 SWAP2 SUB SWAP1 REVERT JUMPDEST PUSH0 PUSH2 0x134C DUP3 DUP5 PUSH2 0x3984 JUMP JUMPDEST PUSH0 PUSH1 0x1 PUSH1 0x1 PUSH1 0xD0 SHL SUB DUP3 GT ISZERO PUSH2 0x14A9 JUMPI PUSH1 0x40 MLOAD PUSH4 0x6DFCC65 PUSH1 0xE4 SHL DUP2 MSTORE PUSH1 0xD0 PUSH1 0x4 DUP3 ADD MSTORE PUSH1 0x24 DUP2 ADD DUP4 SWAP1 MSTORE PUSH1 0x44 ADD PUSH2 0x93C JUMP JUMPDEST PUSH0 DUP1 PUSH2 0x28BC TIMESTAMP PUSH2 0x28B4 PUSH2 0x28AA DUP9 PUSH2 0x18DC JUMP JUMPDEST DUP7 DUP9 PUSH4 0xFFFFFFFF AND JUMP JUMPDEST DUP8 SWAP2 SWAP1 PUSH2 0x2BD9 JUMP JUMPDEST SWAP2 POP SWAP2 POP JUMPDEST SWAP4 POP SWAP4 SWAP2 POP POP JUMP JUMPDEST PUSH0 PUSH2 0x134C DUP3 DUP5 PUSH2 0x39A3 JUMP JUMPDEST PUSH0 PUSH32 0x8B73C3C69BB8FE3D512ECC4CF759CC79239F7B179B0FFACAA9A75D522B39400F PUSH2 0x28FE PUSH2 0x2BE6 JUMP JUMPDEST PUSH2 0x2906 PUSH2 0x2C4E JUMP JUMPDEST PUSH1 0x40 DUP1 MLOAD PUSH1 0x20 DUP2 ADD SWAP5 SWAP1 SWAP5 MSTORE DUP4 ADD SWAP2 SWAP1 SWAP2 MSTORE PUSH1 0x60 DUP3 ADD MSTORE CHAINID PUSH1 0x80 DUP3 ADD MSTORE ADDRESS PUSH1 0xA0 DUP3 ADD MSTORE PUSH1 0xC0 ADD PUSH1 0x40 MLOAD PUSH1 0x20 DUP2 DUP4 SUB SUB DUP2 MSTORE SWAP1 PUSH1 0x40 MSTORE DUP1 MLOAD SWAP1 PUSH1 0x20 ADD KECCAK256 SWAP1 POP SWAP1 JUMP JUMPDEST PUSH1 0x60 PUSH0 PUSH2 0x2953 DUP4 PUSH2 0x2C90 JUMP JUMPDEST PUSH1 0x1 ADD SWAP1 POP PUSH0 DUP2 PUSH8 0xFFFFFFFFFFFFFFFF DUP2 GT ISZERO PUSH2 0x2972 JUMPI PUSH2 0x2972 PUSH2 0x3394 JUMP JUMPDEST PUSH1 0x40 MLOAD SWAP1 DUP1 DUP3 MSTORE DUP1 PUSH1 0x1F ADD PUSH1 0x1F NOT AND PUSH1 0x20 ADD DUP3 ADD PUSH1 0x40 MSTORE DUP1 ISZERO PUSH2 0x299C JUMPI PUSH1 0x20 DUP3 ADD DUP2 DUP1 CALLDATASIZE DUP4 CALLDATACOPY ADD SWAP1 POP JUMPDEST POP SWAP1 POP DUP2 DUP2 ADD PUSH1 0x20 ADD JUMPDEST PUSH0 NOT ADD PUSH16 0x181899199A1A9B1B9C1CB0B131B232B3 PUSH1 0x81 SHL PUSH1 0xA DUP7 MOD BYTE DUP2 MSTORE8 PUSH1 0xA DUP6 DIV SWAP5 POP DUP5 PUSH2 0x29A6 JUMPI POP SWAP4 SWAP3 POP POP POP JUMP JUMPDEST PUSH1 0x1 PUSH1 0x1 PUSH1 0xA0 SHL SUB DUP3 AND PUSH2 0x2A00 JUMPI PUSH1 0x40 MLOAD PUSH4 0x32505749 PUSH1 0xE1 SHL DUP2 MSTORE PUSH0 PUSH1 0x4 DUP3 ADD MSTORE PUSH1 0x24 ADD PUSH2 0x93C JUMP JUMPDEST PUSH0 PUSH2 0x2A0C DUP4 DUP4 PUSH0 PUSH2 0x133D JUMP JUMPDEST SWAP1 POP PUSH1 0x1 PUSH1 0x1 PUSH1 0xA0 SHL SUB DUP2 AND ISZERO PUSH2 0xA85 JUMPI PUSH1 0x40 MLOAD PUSH4 0x39E35637 PUSH1 0xE1 SHL DUP2 MSTORE PUSH0 PUSH1 0x4 DUP3 ADD MSTORE PUSH1 0x24 ADD PUSH2 0x93C JUMP JUMPDEST PUSH0 PUSH1 0x1 PUSH1 0x1 PUSH1 0xE0 SHL SUB NOT DUP3 AND PUSH4 0x80AC58CD PUSH1 0xE0 SHL EQ DUP1 PUSH2 0x2A68 JUMPI POP PUSH1 0x1 PUSH1 0x1 PUSH1 0xE0 SHL SUB NOT DUP3 AND PUSH4 0x5B5E139F PUSH1 0xE0 SHL EQ JUMPDEST DUP1 PUSH2 0x84D JUMPI POP PUSH4 0x1FFC9A7 PUSH1 0xE0 SHL PUSH1 0x1 PUSH1 0x1 PUSH1 0xE0 SHL SUB NOT DUP4 AND EQ PUSH2 0x84D JUMP JUMPDEST PUSH0 DUP1 PUSH2 0x2A94 DUP6 DUP6 DUP6 PUSH2 0x2D67 JUMP JUMPDEST SWAP1 POP PUSH1 0x1 PUSH1 0x1 PUSH1 0xA0 SHL SUB DUP2 AND PUSH2 0x2B1B JUMPI PUSH2 0x2B16 DUP5 PUSH0 DUP1 MLOAD PUSH1 0x20 PUSH2 0x3A97 DUP4 CODECOPY DUP2 MLOAD SWAP2 MSTORE DUP1 SLOAD PUSH0 DUP4 DUP2 MSTORE PUSH32 0x645E039705490088DAAD89BAE25049A34F4A9072D398537B1AB2425F24CBED03 PUSH1 0x20 MSTORE PUSH1 0x40 DUP2 KECCAK256 DUP3 SWAP1 SSTORE PUSH1 0x1 DUP3 ADD DUP4 SSTORE SWAP2 SWAP1 SWAP2 MSTORE PUSH32 0xA42F15E5D656F8155FD7419D740A6073999F19CD6E061449CE4A257150545BF2 ADD SSTORE JUMP JUMPDEST PUSH2 0x2B3E JUMP JUMPDEST DUP5 PUSH1 0x1 PUSH1 0x1 PUSH1 0xA0 SHL SUB AND DUP2 PUSH1 0x1 PUSH1 0x1 PUSH1 0xA0 SHL SUB AND EQ PUSH2 0x2B3E JUMPI PUSH2 0x2B3E DUP2 DUP6 PUSH2 0x2E69 JUMP JUMPDEST PUSH1 0x1 PUSH1 0x1 PUSH1 0xA0 SHL SUB DUP6 AND PUSH2 0x2B5A JUMPI PUSH2 0x2B55 DUP5 PUSH2 0x2F00 JUMP JUMPDEST PUSH2 0x1349 JUMP JUMPDEST DUP5 PUSH1 0x1 PUSH1 0x1 PUSH1 0xA0 SHL SUB AND DUP2 PUSH1 0x1 PUSH1 0x1 PUSH1 0xA0 SHL SUB AND EQ PUSH2 0x1349 JUMPI PUSH2 0x1349 DUP6 DUP6 PUSH2 0x2FCD JUMP JUMPDEST PUSH1 0x60 DUP3 PUSH2 0x2B92 JUMPI PUSH2 0x2B8D DUP3 PUSH2 0x3025 JUMP JUMPDEST PUSH2 0x134C JUMP JUMPDEST DUP2 MLOAD ISZERO DUP1 ISZERO PUSH2 0x2BA9 JUMPI POP PUSH1 0x1 PUSH1 0x1 PUSH1 0xA0 SHL SUB DUP5 AND EXTCODESIZE ISZERO JUMPDEST ISZERO PUSH2 0x2BD2 JUMPI PUSH1 0x40 MLOAD PUSH4 0x9996B315 PUSH1 0xE0 SHL DUP2 MSTORE PUSH1 0x1 PUSH1 0x1 PUSH1 0xA0 SHL SUB DUP6 AND PUSH1 0x4 DUP3 ADD MSTORE PUSH1 0x24 ADD PUSH2 0x93C JUMP JUMPDEST POP DUP1 PUSH2 0x134C JUMP JUMPDEST PUSH0 DUP1 PUSH2 0x28BC DUP6 DUP6 DUP6 PUSH2 0x304E JUMP JUMPDEST PUSH0 PUSH0 DUP1 MLOAD PUSH1 0x20 PUSH2 0x3A37 DUP4 CODECOPY DUP2 MLOAD SWAP2 MSTORE DUP2 PUSH2 0x2BFE PUSH2 0x1860 JUMP JUMPDEST DUP1 MLOAD SWAP1 SWAP2 POP ISZERO PUSH2 0x2C16 JUMPI DUP1 MLOAD PUSH1 0x20 SWAP1 SWAP2 ADD KECCAK256 SWAP3 SWAP2 POP POP JUMP JUMPDEST DUP2 SLOAD DUP1 ISZERO PUSH2 0x2C25 JUMPI SWAP4 SWAP3 POP POP POP JUMP JUMPDEST PUSH32 0xC5D2460186F7233C927E7DB2DCC703C0E500B653CA82273B7BFAD8045D85A470 SWAP4 POP POP POP POP SWAP1 JUMP JUMPDEST PUSH0 PUSH0 DUP1 MLOAD PUSH1 0x20 PUSH2 0x3A37 DUP4 CODECOPY DUP2 MLOAD SWAP2 MSTORE DUP2 PUSH2 0x2C66 PUSH2 0x189E JUMP JUMPDEST DUP1 MLOAD SWAP1 SWAP2 POP ISZERO PUSH2 0x2C7E JUMPI DUP1 MLOAD PUSH1 0x20 SWAP1 SWAP2 ADD KECCAK256 SWAP3 SWAP2 POP POP JUMP JUMPDEST PUSH1 0x1 DUP3 ADD SLOAD DUP1 ISZERO PUSH2 0x2C25 JUMPI SWAP4 SWAP3 POP POP POP JUMP JUMPDEST PUSH0 DUP1 PUSH19 0x184F03E93FF9F4DAA797ED6E38ED64BF6A1F01 PUSH1 0x40 SHL DUP4 LT PUSH2 0x2CCE JUMPI PUSH19 0x184F03E93FF9F4DAA797ED6E38ED64BF6A1F01 PUSH1 0x40 SHL DUP4 DIV SWAP3 POP PUSH1 0x40 ADD JUMPDEST PUSH14 0x4EE2D6D415B85ACEF8100000000 DUP4 LT PUSH2 0x2CFA JUMPI PUSH14 0x4EE2D6D415B85ACEF8100000000 DUP4 DIV SWAP3 POP PUSH1 0x20 ADD JUMPDEST PUSH7 0x2386F26FC10000 DUP4 LT PUSH2 0x2D18 JUMPI PUSH7 0x2386F26FC10000 DUP4 DIV SWAP3 POP PUSH1 0x10 ADD JUMPDEST PUSH4 0x5F5E100 DUP4 LT PUSH2 0x2D30 JUMPI PUSH4 0x5F5E100 DUP4 DIV SWAP3 POP PUSH1 0x8 ADD JUMPDEST PUSH2 0x2710 DUP4 LT PUSH2 0x2D44 JUMPI PUSH2 0x2710 DUP4 DIV SWAP3 POP PUSH1 0x4 ADD JUMPDEST PUSH1 0x64 DUP4 LT PUSH2 0x2D56 JUMPI PUSH1 0x64 DUP4 DIV SWAP3 POP PUSH1 0x2 ADD JUMPDEST PUSH1 0xA DUP4 LT PUSH2 0x84D JUMPI PUSH1 0x1 ADD SWAP3 SWAP2 POP POP JUMP JUMPDEST PUSH0 PUSH0 DUP1 MLOAD PUSH1 0x20 PUSH2 0x3A17 DUP4 CODECOPY DUP2 MLOAD SWAP2 MSTORE DUP2 PUSH2 0x2D80 DUP6 PUSH2 0x1DF3 JUMP JUMPDEST SWAP1 POP PUSH1 0x1 PUSH1 0x1 PUSH1 0xA0 SHL SUB DUP5 AND ISZERO PUSH2 0x2D9C JUMPI PUSH2 0x2D9C DUP2 DUP6 DUP8 PUSH2 0x319E JUMP JUMPDEST PUSH1 0x1 PUSH1 0x1 PUSH1 0xA0 SHL SUB DUP2 AND ISZERO PUSH2 0x2DD8 JUMPI PUSH2 0x2DB7 PUSH0 DUP7 PUSH0 DUP1 PUSH2 0x1E2C JUMP JUMPDEST PUSH1 0x1 PUSH1 0x1 PUSH1 0xA0 SHL SUB DUP2 AND PUSH0 SWAP1 DUP2 MSTORE PUSH1 0x3 DUP4 ADD PUSH1 0x20 MSTORE PUSH1 0x40 SWAP1 KECCAK256 DUP1 SLOAD PUSH0 NOT ADD SWAP1 SSTORE JUMPDEST PUSH1 0x1 PUSH1 0x1 PUSH1 0xA0 SHL SUB DUP7 AND ISZERO PUSH2 0x2E08 JUMPI PUSH1 0x1 PUSH1 0x1 PUSH1 0xA0 SHL SUB DUP7 AND PUSH0 SWAP1 DUP2 MSTORE PUSH1 0x3 DUP4 ADD PUSH1 0x20 MSTORE PUSH1 0x40 SWAP1 KECCAK256 DUP1 SLOAD PUSH1 0x1 ADD SWAP1 SSTORE JUMPDEST PUSH0 DUP6 DUP2 MSTORE PUSH1 0x2 DUP4 ADD PUSH1 0x20 MSTORE PUSH1 0x40 DUP1 DUP3 KECCAK256 DUP1 SLOAD PUSH1 0x1 PUSH1 0x1 PUSH1 0xA0 SHL SUB NOT AND PUSH1 0x1 PUSH1 0x1 PUSH1 0xA0 SHL SUB DUP11 DUP2 AND SWAP2 DUP3 OR SWAP1 SWAP3 SSTORE SWAP2 MLOAD DUP9 SWAP4 SWAP2 DUP6 AND SWAP2 PUSH32 0xDDF252AD1BE2C89B69C2B068FC378DAA952BA7F163C4A11628F55A4DF523B3EF SWAP2 LOG4 SWAP6 SWAP5 POP POP POP POP POP JUMP JUMPDEST PUSH0 DUP1 MLOAD PUSH1 0x20 PUSH2 0x39F7 DUP4 CODECOPY DUP2 MLOAD SWAP2 MSTORE PUSH0 PUSH2 0x2E81 DUP5 PUSH2 0xC3D JUMP JUMPDEST PUSH0 DUP5 DUP2 MSTORE PUSH1 0x1 DUP5 ADD PUSH1 0x20 SWAP1 DUP2 MSTORE PUSH1 0x40 DUP1 DUP4 KECCAK256 SLOAD PUSH1 0x1 PUSH1 0x1 PUSH1 0xA0 SHL SUB DUP10 AND DUP5 MSTORE SWAP2 DUP7 SWAP1 MSTORE SWAP1 SWAP2 KECCAK256 SWAP2 SWAP3 POP SWAP1 DUP2 DUP4 EQ PUSH2 0x2ED9 JUMPI PUSH0 DUP4 DUP2 MSTORE PUSH1 0x20 DUP3 DUP2 MSTORE PUSH1 0x40 DUP1 DUP4 KECCAK256 SLOAD DUP6 DUP5 MSTORE DUP2 DUP5 KECCAK256 DUP2 SWAP1 SSTORE DUP4 MSTORE PUSH1 0x1 DUP8 ADD SWAP1 SWAP2 MSTORE SWAP1 KECCAK256 DUP3 SWAP1 SSTORE JUMPDEST PUSH0 SWAP5 DUP6 MSTORE PUSH1 0x1 SWAP1 SWAP4 ADD PUSH1 0x20 SWAP1 DUP2 MSTORE PUSH1 0x40 DUP1 DUP7 KECCAK256 DUP7 SWAP1 SSTORE SWAP3 DUP6 MSTORE SWAP3 SWAP1 SWAP3 MSTORE DUP3 KECCAK256 SWAP2 SWAP1 SWAP2 SSTORE POP POP JUMP JUMPDEST PUSH0 DUP1 MLOAD PUSH1 0x20 PUSH2 0x3A97 DUP4 CODECOPY DUP2 MLOAD SWAP2 MSTORE SLOAD PUSH0 DUP1 MLOAD PUSH1 0x20 PUSH2 0x39F7 DUP4 CODECOPY DUP2 MLOAD SWAP2 MSTORE SWAP1 PUSH0 SWAP1 PUSH2 0x2F2C SWAP1 PUSH1 0x1 SWAP1 PUSH2 0x3774 JUMP JUMPDEST PUSH0 DUP5 DUP2 MSTORE PUSH1 0x3 DUP5 ADD PUSH1 0x20 MSTORE PUSH1 0x40 DUP2 KECCAK256 SLOAD PUSH1 0x2 DUP6 ADD DUP1 SLOAD SWAP4 SWAP5 POP SWAP1 SWAP3 DUP5 SWAP1 DUP2 LT PUSH2 0x2F57 JUMPI PUSH2 0x2F57 PUSH2 0x3734 JUMP JUMPDEST SWAP1 PUSH0 MSTORE PUSH1 0x20 PUSH0 KECCAK256 ADD SLOAD SWAP1 POP DUP1 DUP5 PUSH1 0x2 ADD DUP4 DUP2 SLOAD DUP2 LT PUSH2 0x2F78 JUMPI PUSH2 0x2F78 PUSH2 0x3734 JUMP JUMPDEST PUSH0 SWAP2 DUP3 MSTORE PUSH1 0x20 DUP1 DUP4 KECCAK256 SWAP1 SWAP2 ADD SWAP3 SWAP1 SWAP3 SSTORE DUP3 DUP2 MSTORE PUSH1 0x3 DUP7 ADD SWAP1 SWAP2 MSTORE PUSH1 0x40 DUP1 DUP3 KECCAK256 DUP5 SWAP1 SSTORE DUP7 DUP3 MSTORE DUP2 KECCAK256 SSTORE PUSH1 0x2 DUP5 ADD DUP1 SLOAD DUP1 PUSH2 0x2FB3 JUMPI PUSH2 0x2FB3 PUSH2 0x39C2 JUMP JUMPDEST PUSH1 0x1 SWAP1 SUB DUP2 DUP2 SWAP1 PUSH0 MSTORE PUSH1 0x20 PUSH0 KECCAK256 ADD PUSH0 SWAP1 SSTORE SWAP1 SSTORE POP POP POP POP POP JUMP JUMPDEST PUSH0 DUP1 MLOAD PUSH1 0x20 PUSH2 0x39F7 DUP4 CODECOPY DUP2 MLOAD SWAP2 MSTORE PUSH0 PUSH1 0x1 PUSH2 0x2FE7 DUP6 PUSH2 0xC3D JUMP JUMPDEST PUSH2 0x2FF1 SWAP2 SWAP1 PUSH2 0x3774 JUMP JUMPDEST PUSH1 0x1 PUSH1 0x1 PUSH1 0xA0 SHL SUB SWAP1 SWAP5 AND PUSH0 SWAP1 DUP2 MSTORE PUSH1 0x20 DUP4 DUP2 MSTORE PUSH1 0x40 DUP1 DUP4 KECCAK256 DUP8 DUP5 MSTORE DUP3 MSTORE DUP1 DUP4 KECCAK256 DUP7 SWAP1 SSTORE SWAP5 DUP3 MSTORE PUSH1 0x1 SWAP1 SWAP4 ADD SWAP1 SWAP3 MSTORE POP KECCAK256 SSTORE JUMP JUMPDEST DUP1 MLOAD ISZERO PUSH2 0x3035 JUMPI DUP1 MLOAD DUP1 DUP3 PUSH1 0x20 ADD REVERT JUMPDEST PUSH1 0x40 MLOAD PUSH4 0xD6BDA275 PUSH1 0xE0 SHL DUP2 MSTORE PUSH1 0x4 ADD PUSH1 0x40 MLOAD DUP1 SWAP2 SUB SWAP1 REVERT JUMPDEST DUP3 SLOAD PUSH0 SWAP1 DUP2 SWAP1 DUP1 ISZERO PUSH2 0x3144 JUMPI PUSH0 PUSH2 0x306A DUP8 PUSH2 0x152D PUSH1 0x1 DUP6 PUSH2 0x3774 JUMP JUMPDEST DUP1 SLOAD SWAP1 SWAP2 POP PUSH6 0xFFFFFFFFFFFF DUP1 DUP3 AND SWAP2 PUSH1 0x1 PUSH1 0x30 SHL SWAP1 DIV PUSH1 0x1 PUSH1 0x1 PUSH1 0xD0 SHL SUB AND SWAP1 DUP9 AND DUP3 GT ISZERO PUSH2 0x30AD JUMPI PUSH1 0x40 MLOAD PUSH4 0x2520601D PUSH1 0xE0 SHL DUP2 MSTORE PUSH1 0x4 ADD PUSH1 0x40 MLOAD DUP1 SWAP2 SUB SWAP1 REVERT JUMPDEST DUP8 PUSH6 0xFFFFFFFFFFFF AND DUP3 PUSH6 0xFFFFFFFFFFFF AND SUB PUSH2 0x30E6 JUMPI DUP3 SLOAD PUSH6 0xFFFFFFFFFFFF AND PUSH1 0x1 PUSH1 0x30 SHL PUSH1 0x1 PUSH1 0x1 PUSH1 0xD0 SHL SUB DUP10 AND MUL OR DUP4 SSTORE PUSH2 0x3136 JUMP JUMPDEST PUSH1 0x40 DUP1 MLOAD DUP1 DUP3 ADD SWAP1 SWAP2 MSTORE PUSH6 0xFFFFFFFFFFFF DUP1 DUP11 AND DUP3 MSTORE PUSH1 0x1 PUSH1 0x1 PUSH1 0xD0 SHL SUB DUP1 DUP11 AND PUSH1 0x20 DUP1 DUP6 ADD SWAP2 DUP3 MSTORE DUP14 SLOAD PUSH1 0x1 DUP2 ADD DUP16 SSTORE PUSH0 DUP16 DUP2 MSTORE SWAP2 SWAP1 SWAP2 KECCAK256 SWAP5 MLOAD SWAP2 MLOAD SWAP1 SWAP3 AND PUSH1 0x1 PUSH1 0x30 SHL MUL SWAP3 AND SWAP2 SWAP1 SWAP2 OR SWAP2 ADD SSTORE JUMPDEST SWAP5 POP DUP6 SWAP4 POP PUSH2 0x28C1 SWAP3 POP POP POP JUMP JUMPDEST POP POP PUSH1 0x40 DUP1 MLOAD DUP1 DUP3 ADD SWAP1 SWAP2 MSTORE PUSH6 0xFFFFFFFFFFFF DUP1 DUP6 AND DUP3 MSTORE PUSH1 0x1 PUSH1 0x1 PUSH1 0xD0 SHL SUB DUP1 DUP6 AND PUSH1 0x20 DUP1 DUP6 ADD SWAP2 DUP3 MSTORE DUP9 SLOAD PUSH1 0x1 DUP2 ADD DUP11 SSTORE PUSH0 DUP11 DUP2 MSTORE SWAP2 DUP3 KECCAK256 SWAP6 MLOAD SWAP3 MLOAD SWAP1 SWAP4 AND PUSH1 0x1 PUSH1 0x30 SHL MUL SWAP2 SWAP1 SWAP4 AND OR SWAP3 ADD SWAP2 SWAP1 SWAP2 SSTORE SWAP1 POP DUP2 PUSH2 0x28C1 JUMP JUMPDEST PUSH2 0x31A9 DUP4 DUP4 DUP4 PUSH2 0x3202 JUMP JUMPDEST PUSH2 0xA85 JUMPI PUSH1 0x1 PUSH1 0x1 PUSH1 0xA0 SHL SUB DUP4 AND PUSH2 0x31D7 JUMPI PUSH1 0x40 MLOAD PUSH4 0x7E273289 PUSH1 0xE0 SHL DUP2 MSTORE PUSH1 0x4 DUP2 ADD DUP3 SWAP1 MSTORE PUSH1 0x24 ADD PUSH2 0x93C JUMP JUMPDEST PUSH1 0x40 MLOAD PUSH4 0x177E802F PUSH1 0xE0 SHL DUP2 MSTORE PUSH1 0x1 PUSH1 0x1 PUSH1 0xA0 SHL SUB DUP4 AND PUSH1 0x4 DUP3 ADD MSTORE PUSH1 0x24 DUP2 ADD DUP3 SWAP1 MSTORE PUSH1 0x44 ADD PUSH2 0x93C JUMP JUMPDEST PUSH0 PUSH1 0x1 PUSH1 0x1 PUSH1 0xA0 SHL SUB DUP4 AND ISZERO DUP1 ISZERO SWAP1 PUSH2 0x1349 JUMPI POP DUP3 PUSH1 0x1 PUSH1 0x1 PUSH1 0xA0 SHL SUB AND DUP5 PUSH1 0x1 PUSH1 0x1 PUSH1 0xA0 SHL SUB AND EQ DUP1 PUSH2 0x323B JUMPI POP PUSH2 0x323B DUP5 DUP5 PUSH2 0xFF7 JUMP JUMPDEST DUP1 PUSH2 0x1349 JUMPI POP DUP3 PUSH1 0x1 PUSH1 0x1 PUSH1 0xA0 SHL SUB AND PUSH2 0x3254 DUP4 PUSH2 0x12F7 JUMP JUMPDEST PUSH1 0x1 PUSH1 0x1 PUSH1 0xA0 SHL SUB AND EQ SWAP5 SWAP4 POP POP POP POP JUMP JUMPDEST PUSH1 0x1 PUSH1 0x1 PUSH1 0xE0 SHL SUB NOT DUP2 AND DUP2 EQ PUSH2 0xB2F JUMPI PUSH0 DUP1 REVERT JUMPDEST PUSH0 PUSH1 0x20 DUP3 DUP5 SUB SLT ISZERO PUSH2 0x328B JUMPI PUSH0 DUP1 REVERT JUMPDEST DUP2 CALLDATALOAD PUSH2 0x134C DUP2 PUSH2 0x3266 JUMP JUMPDEST PUSH0 DUP2 MLOAD DUP1 DUP5 MSTORE DUP1 PUSH1 0x20 DUP5 ADD PUSH1 0x20 DUP7 ADD MCOPY PUSH0 PUSH1 0x20 DUP3 DUP7 ADD ADD MSTORE PUSH1 0x20 PUSH1 0x1F NOT PUSH1 0x1F DUP4 ADD AND DUP6 ADD ADD SWAP2 POP POP SWAP3 SWAP2 POP POP JUMP JUMPDEST PUSH1 0x20 DUP2 MSTORE PUSH0 PUSH2 0x134C PUSH1 0x20 DUP4 ADD DUP5 PUSH2 0x3296 JUMP JUMPDEST PUSH0 PUSH1 0x20 DUP3 DUP5 SUB SLT ISZERO PUSH2 0x32E6 JUMPI PUSH0 DUP1 REVERT JUMPDEST POP CALLDATALOAD SWAP2 SWAP1 POP JUMP JUMPDEST DUP1 CALLDATALOAD PUSH1 0x1 PUSH1 0x1 PUSH1 0xA0 SHL SUB DUP2 AND DUP2 EQ PUSH2 0x3303 JUMPI PUSH0 DUP1 REVERT JUMPDEST SWAP2 SWAP1 POP JUMP JUMPDEST PUSH0 DUP1 PUSH1 0x40 DUP4 DUP6 SUB SLT ISZERO PUSH2 0x3319 JUMPI PUSH0 DUP1 REVERT JUMPDEST PUSH2 0x3322 DUP4 PUSH2 0x32ED JUMP JUMPDEST SWAP5 PUSH1 0x20 SWAP4 SWAP1 SWAP4 ADD CALLDATALOAD SWAP4 POP POP POP JUMP JUMPDEST PUSH0 DUP1 PUSH0 PUSH1 0x60 DUP5 DUP7 SUB SLT ISZERO PUSH2 0x3342 JUMPI PUSH0 DUP1 REVERT JUMPDEST PUSH2 0x334B DUP5 PUSH2 0x32ED JUMP JUMPDEST SWAP3 POP PUSH2 0x3359 PUSH1 0x20 DUP6 ADD PUSH2 0x32ED JUMP JUMPDEST SWAP3 SWAP6 SWAP3 SWAP5 POP POP POP PUSH1 0x40 SWAP2 SWAP1 SWAP2 ADD CALLDATALOAD SWAP1 JUMP JUMPDEST PUSH0 DUP1 PUSH1 0x40 DUP4 DUP6 SUB SLT ISZERO PUSH2 0x337B JUMPI PUSH0 DUP1 REVERT JUMPDEST DUP3 CALLDATALOAD SWAP2 POP PUSH2 0x338B PUSH1 0x20 DUP5 ADD PUSH2 0x32ED JUMP JUMPDEST SWAP1 POP SWAP3 POP SWAP3 SWAP1 POP JUMP JUMPDEST PUSH4 0x4E487B71 PUSH1 0xE0 SHL PUSH0 MSTORE PUSH1 0x41 PUSH1 0x4 MSTORE PUSH1 0x24 PUSH0 REVERT JUMPDEST PUSH0 DUP1 PUSH8 0xFFFFFFFFFFFFFFFF DUP5 GT ISZERO PUSH2 0x33C2 JUMPI PUSH2 0x33C2 PUSH2 0x3394 JUMP JUMPDEST POP PUSH1 0x40 MLOAD PUSH1 0x1F NOT PUSH1 0x1F DUP6 ADD DUP2 AND PUSH1 0x3F ADD AND DUP2 ADD DUP2 DUP2 LT PUSH8 0xFFFFFFFFFFFFFFFF DUP3 GT OR ISZERO PUSH2 0x33F1 JUMPI PUSH2 0x33F1 PUSH2 0x3394 JUMP JUMPDEST PUSH1 0x40 MSTORE DUP4 DUP2 MSTORE SWAP1 POP DUP1 DUP3 DUP5 ADD DUP6 LT ISZERO PUSH2 0x3408 JUMPI PUSH0 DUP1 REVERT JUMPDEST DUP4 DUP4 PUSH1 0x20 DUP4 ADD CALLDATACOPY PUSH0 PUSH1 0x20 DUP6 DUP4 ADD ADD MSTORE POP SWAP4 SWAP3 POP POP POP JUMP JUMPDEST PUSH0 DUP3 PUSH1 0x1F DUP4 ADD SLT PUSH2 0x342E JUMPI PUSH0 DUP1 REVERT JUMPDEST PUSH2 0x134C DUP4 DUP4 CALLDATALOAD PUSH1 0x20 DUP6 ADD PUSH2 0x33A8 JUMP JUMPDEST PUSH0 DUP1 PUSH1 0x40 DUP4 DUP6 SUB SLT ISZERO PUSH2 0x344E JUMPI PUSH0 DUP1 REVERT JUMPDEST PUSH2 0x3457 DUP4 PUSH2 0x32ED JUMP JUMPDEST SWAP2 POP PUSH1 0x20 DUP4 ADD CALLDATALOAD PUSH8 0xFFFFFFFFFFFFFFFF DUP2 GT ISZERO PUSH2 0x3472 JUMPI PUSH0 DUP1 REVERT JUMPDEST PUSH2 0x347E DUP6 DUP3 DUP7 ADD PUSH2 0x341F JUMP JUMPDEST SWAP2 POP POP SWAP3 POP SWAP3 SWAP1 POP JUMP JUMPDEST PUSH0 PUSH1 0x20 DUP3 DUP5 SUB SLT ISZERO PUSH2 0x3498 JUMPI PUSH0 DUP1 REVERT JUMPDEST PUSH2 0x134C DUP3 PUSH2 0x32ED JUMP JUMPDEST PUSH1 0xFF PUSH1 0xF8 SHL DUP9 AND DUP2 MSTORE PUSH1 0xE0 PUSH1 0x20 DUP3 ADD MSTORE PUSH0 PUSH2 0x34BF PUSH1 0xE0 DUP4 ADD DUP10 PUSH2 0x3296 JUMP JUMPDEST DUP3 DUP2 SUB PUSH1 0x40 DUP5 ADD MSTORE PUSH2 0x34D1 DUP2 DUP10 PUSH2 0x3296 JUMP JUMPDEST PUSH1 0x60 DUP5 ADD DUP9 SWAP1 MSTORE PUSH1 0x1 PUSH1 0x1 PUSH1 0xA0 SHL SUB DUP8 AND PUSH1 0x80 DUP6 ADD MSTORE PUSH1 0xA0 DUP5 ADD DUP7 SWAP1 MSTORE DUP4 DUP2 SUB PUSH1 0xC0 DUP6 ADD MSTORE DUP5 MLOAD DUP1 DUP3 MSTORE PUSH1 0x20 DUP1 DUP8 ADD SWAP4 POP SWAP1 SWAP2 ADD SWAP1 PUSH0 JUMPDEST DUP2 DUP2 LT ISZERO PUSH2 0x3526 JUMPI DUP4 MLOAD DUP4 MSTORE PUSH1 0x20 SWAP4 DUP5 ADD SWAP4 SWAP1 SWAP3 ADD SWAP2 PUSH1 0x1 ADD PUSH2 0x3508 JUMP JUMPDEST POP SWAP1 SWAP12 SWAP11 POP POP POP POP POP POP POP POP POP POP POP JUMP JUMPDEST PUSH0 DUP1 PUSH1 0x40 DUP4 DUP6 SUB SLT ISZERO PUSH2 0x3548 JUMPI PUSH0 DUP1 REVERT JUMPDEST PUSH2 0x3551 DUP4 PUSH2 0x32ED JUMP JUMPDEST SWAP2 POP PUSH1 0x20 DUP4 ADD CALLDATALOAD DUP1 ISZERO ISZERO DUP2 EQ PUSH2 0x3565 JUMPI PUSH0 DUP1 REVERT JUMPDEST DUP1 SWAP2 POP POP SWAP3 POP SWAP3 SWAP1 POP JUMP JUMPDEST PUSH0 DUP1 PUSH0 DUP1 PUSH1 0x80 DUP6 DUP8 SUB SLT ISZERO PUSH2 0x3583 JUMPI PUSH0 DUP1 REVERT JUMPDEST PUSH2 0x358C DUP6 PUSH2 0x32ED JUMP JUMPDEST SWAP4 POP PUSH2 0x359A PUSH1 0x20 DUP7 ADD PUSH2 0x32ED JUMP JUMPDEST SWAP3 POP PUSH1 0x40 DUP6 ADD CALLDATALOAD SWAP2 POP PUSH1 0x60 DUP6 ADD CALLDATALOAD PUSH8 0xFFFFFFFFFFFFFFFF DUP2 GT ISZERO PUSH2 0x35BC JUMPI PUSH0 DUP1 REVERT JUMPDEST PUSH2 0x35C8 DUP8 DUP3 DUP9 ADD PUSH2 0x341F JUMP JUMPDEST SWAP2 POP POP SWAP3 SWAP6 SWAP2 SWAP5 POP SWAP3 POP JUMP JUMPDEST PUSH0 DUP1 PUSH0 DUP1 PUSH0 DUP1 PUSH1 0xC0 DUP8 DUP10 SUB SLT ISZERO PUSH2 0x35E9 JUMPI PUSH0 DUP1 REVERT JUMPDEST PUSH2 0x35F2 DUP8 PUSH2 0x32ED JUMP JUMPDEST SWAP6 POP PUSH1 0x20 DUP8 ADD CALLDATALOAD SWAP5 POP PUSH1 0x40 DUP8 ADD CALLDATALOAD SWAP4 POP PUSH1 0x60 DUP8 ADD CALLDATALOAD PUSH1 0xFF DUP2 AND DUP2 EQ PUSH2 0x3615 JUMPI PUSH0 DUP1 REVERT JUMPDEST SWAP6 SWAP9 SWAP5 SWAP8 POP SWAP3 SWAP6 PUSH1 0x80 DUP2 ADD CALLDATALOAD SWAP5 PUSH1 0xA0 SWAP1 SWAP2 ADD CALLDATALOAD SWAP4 POP SWAP2 POP POP JUMP JUMPDEST PUSH0 DUP1 PUSH1 0x40 DUP4 DUP6 SUB SLT ISZERO PUSH2 0x3640 JUMPI PUSH0 DUP1 REVERT JUMPDEST PUSH2 0x3649 DUP4 PUSH2 0x32ED JUMP JUMPDEST SWAP2 POP PUSH1 0x20 DUP4 ADD CALLDATALOAD PUSH8 0xFFFFFFFFFFFFFFFF DUP2 GT ISZERO PUSH2 0x3664 JUMPI PUSH0 DUP1 REVERT JUMPDEST DUP4 ADD PUSH1 0x1F DUP2 ADD DUP6 SGT PUSH2 0x3674 JUMPI PUSH0 DUP1 REVERT JUMPDEST PUSH2 0x347E DUP6 DUP3 CALLDATALOAD PUSH1 0x20 DUP5 ADD PUSH2 0x33A8 JUMP JUMPDEST PUSH0 DUP1 PUSH1 0x40 DUP4 DUP6 SUB SLT ISZERO PUSH2 0x3694 JUMPI PUSH0 DUP1 REVERT JUMPDEST PUSH2 0x369D DUP4 PUSH2 0x32ED JUMP JUMPDEST SWAP2 POP PUSH2 0x338B PUSH1 0x20 DUP5 ADD PUSH2 0x32ED JUMP JUMPDEST PUSH0 DUP1 PUSH0 DUP1 PUSH1 0x80 DUP6 DUP8 SUB SLT ISZERO PUSH2 0x36BE JUMPI PUSH0 DUP1 REVERT JUMPDEST PUSH2 0x36C7 DUP6 PUSH2 0x32ED JUMP JUMPDEST SWAP4 POP PUSH2 0x36D5 PUSH1 0x20 DUP7 ADD PUSH2 0x32ED JUMP JUMPDEST SWAP3 POP PUSH2 0x36E3 PUSH1 0x40 DUP7 ADD PUSH2 0x32ED JUMP JUMPDEST SWAP2 POP PUSH2 0x36F1 PUSH1 0x60 DUP7 ADD PUSH2 0x32ED JUMP JUMPDEST SWAP1 POP SWAP3 SWAP6 SWAP2 SWAP5 POP SWAP3 POP JUMP JUMPDEST PUSH1 0x1 DUP2 DUP2 SHR SWAP1 DUP3 AND DUP1 PUSH2 0x3710 JUMPI PUSH1 0x7F DUP3 AND SWAP2 POP JUMPDEST PUSH1 0x20 DUP3 LT DUP2 SUB PUSH2 0x372E JUMPI PUSH4 0x4E487B71 PUSH1 0xE0 SHL PUSH0 MSTORE PUSH1 0x22 PUSH1 0x4 MSTORE PUSH1 0x24 PUSH0 REVERT JUMPDEST POP SWAP2 SWAP1 POP JUMP JUMPDEST PUSH4 0x4E487B71 PUSH1 0xE0 SHL PUSH0 MSTORE PUSH1 0x32 PUSH1 0x4 MSTORE PUSH1 0x24 PUSH0 REVERT JUMPDEST PUSH4 0x4E487B71 PUSH1 0xE0 SHL PUSH0 MSTORE PUSH1 0x11 PUSH1 0x4 MSTORE PUSH1 0x24 PUSH0 REVERT JUMPDEST PUSH0 PUSH1 0x1 DUP3 ADD PUSH2 0x376D JUMPI PUSH2 0x376D PUSH2 0x3748 JUMP JUMPDEST POP PUSH1 0x1 ADD SWAP1 JUMP JUMPDEST DUP2 DUP2 SUB DUP2 DUP2 GT ISZERO PUSH2 0x84D JUMPI PUSH2 0x84D PUSH2 0x3748 JUMP JUMPDEST DUP1 DUP3 ADD DUP1 DUP3 GT ISZERO PUSH2 0x84D JUMPI PUSH2 0x84D PUSH2 0x3748 JUMP JUMPDEST PUSH0 PUSH1 0x20 DUP3 DUP5 SUB SLT ISZERO PUSH2 0x37AA JUMPI PUSH0 DUP1 REVERT JUMPDEST POP MLOAD SWAP2 SWAP1 POP JUMP JUMPDEST PUSH1 0x1 PUSH1 0x1 PUSH1 0xA0 SHL SUB DUP6 DUP2 AND DUP3 MSTORE DUP5 AND PUSH1 0x20 DUP3 ADD MSTORE PUSH1 0x40 DUP2 ADD DUP4 SWAP1 MSTORE PUSH1 0x80 PUSH1 0x60 DUP3 ADD DUP2 SWAP1 MSTORE PUSH0 SWAP1 PUSH2 0x37E3 SWAP1 DUP4 ADD DUP5 PUSH2 0x3296 JUMP JUMPDEST SWAP7 SWAP6 POP POP POP POP POP POP JUMP JUMPDEST PUSH0 PUSH1 0x20 DUP3 DUP5 SUB SLT ISZERO PUSH2 0x37FD JUMPI PUSH0 DUP1 REVERT JUMPDEST DUP2 MLOAD PUSH2 0x134C DUP2 PUSH2 0x3266 JUMP JUMPDEST PUSH0 DUP2 MLOAD DUP1 PUSH1 0x20 DUP5 ADD DUP6 MCOPY PUSH0 SWAP4 ADD SWAP3 DUP4 MSTORE POP SWAP1 SWAP2 SWAP1 POP JUMP JUMPDEST PUSH0 PUSH2 0x1349 PUSH2 0x382D DUP4 DUP7 PUSH2 0x3808 JUMP JUMPDEST DUP5 PUSH2 0x3808 JUMP JUMPDEST PUSH1 0x1F DUP3 GT ISZERO PUSH2 0xA85 JUMPI DUP1 PUSH0 MSTORE PUSH1 0x20 PUSH0 KECCAK256 PUSH1 0x1F DUP5 ADD PUSH1 0x5 SHR DUP2 ADD PUSH1 0x20 DUP6 LT ISZERO PUSH2 0x3858 JUMPI POP DUP1 JUMPDEST PUSH1 0x1F DUP5 ADD PUSH1 0x5 SHR DUP3 ADD SWAP2 POP JUMPDEST DUP2 DUP2 LT ISZERO PUSH2 0x1AE3 JUMPI PUSH0 DUP2 SSTORE PUSH1 0x1 ADD PUSH2 0x3864 JUMP JUMPDEST DUP2 MLOAD PUSH8 0xFFFFFFFFFFFFFFFF DUP2 GT ISZERO PUSH2 0x3891 JUMPI PUSH2 0x3891 PUSH2 0x3394 JUMP JUMPDEST PUSH2 0x38A5 DUP2 PUSH2 0x389F DUP5 SLOAD PUSH2 0x36FC JUMP JUMPDEST DUP5 PUSH2 0x3833 JUMP JUMPDEST PUSH1 0x20 PUSH1 0x1F DUP3 GT PUSH1 0x1 DUP2 EQ PUSH2 0x38D7 JUMPI PUSH0 DUP4 ISZERO PUSH2 0x38C0 JUMPI POP DUP5 DUP3 ADD MLOAD JUMPDEST PUSH0 NOT PUSH1 0x3 DUP6 SWAP1 SHL SHR NOT AND PUSH1 0x1 DUP5 SWAP1 SHL OR DUP5 SSTORE PUSH2 0x1AE3 JUMP JUMPDEST PUSH0 DUP5 DUP2 MSTORE PUSH1 0x20 DUP2 KECCAK256 PUSH1 0x1F NOT DUP6 AND SWAP2 JUMPDEST DUP3 DUP2 LT ISZERO PUSH2 0x3906 JUMPI DUP8 DUP6 ADD MLOAD DUP3 SSTORE PUSH1 0x20 SWAP5 DUP6 ADD SWAP5 PUSH1 0x1 SWAP1 SWAP3 ADD SWAP2 ADD PUSH2 0x38E6 JUMP JUMPDEST POP DUP5 DUP3 LT ISZERO PUSH2 0x3923 JUMPI DUP7 DUP5 ADD MLOAD PUSH0 NOT PUSH1 0x3 DUP8 SWAP1 SHL PUSH1 0xF8 AND SHR NOT AND DUP2 SSTORE JUMPDEST POP POP POP POP PUSH1 0x1 SWAP1 DUP2 SHL ADD SWAP1 SSTORE POP JUMP JUMPDEST PUSH4 0x4E487B71 PUSH1 0xE0 SHL PUSH0 MSTORE PUSH1 0x12 PUSH1 0x4 MSTORE PUSH1 0x24 PUSH0 REVERT JUMPDEST PUSH4 0x4E487B71 PUSH1 0xE0 SHL PUSH0 MSTORE PUSH1 0x21 PUSH1 0x4 MSTORE PUSH1 0x24 PUSH0 REVERT JUMPDEST PUSH0 DUP3 PUSH2 0x3974 JUMPI PUSH4 0x4E487B71 PUSH1 0xE0 SHL PUSH0 MSTORE PUSH1 0x12 PUSH1 0x4 MSTORE PUSH1 0x24 PUSH0 REVERT JUMPDEST POP DIV SWAP1 JUMP JUMPDEST PUSH0 PUSH2 0x134C DUP3 DUP5 PUSH2 0x3808 JUMP JUMPDEST PUSH1 0x1 PUSH1 0x1 PUSH1 0xD0 SHL SUB DUP3 DUP2 AND DUP3 DUP3 AND SUB SWAP1 DUP2 GT ISZERO PUSH2 0x84D JUMPI PUSH2 0x84D PUSH2 0x3748 JUMP JUMPDEST PUSH1 0x1 PUSH1 0x1 PUSH1 0xD0 SHL SUB DUP2 DUP2 AND DUP4 DUP3 AND ADD SWAP1 DUP2 GT ISZERO PUSH2 0x84D JUMPI PUSH2 0x84D PUSH2 0x3748 JUMP JUMPDEST PUSH4 0x4E487B71 PUSH1 0xE0 SHL PUSH0 MSTORE PUSH1 0x31 PUSH1 0x4 MSTORE PUSH1 0x24 PUSH0 REVERT INVALID 0xE8 0xB2 PUSH13 0x30FAD74198956032A3533D9033 DUP6 0xD5 PUSH14 0xD795AF560196F9C78D4AF40D0064 MCOPY SUB SWAP8 SDIV BLOBHASH STOP DUP9 0xDA 0xAD DUP10 0xBA 0xE2 POP BLOBHASH LOG3 0x4F BLOBBASEFEE SWAP1 PUSH19 0xD398537B1AB2425F24CBED0080BB2B638CC20B 0xC4 0xD0 0xA6 0xD PUSH7 0x940F3AB4A00C1D PUSH28 0x313497CA82FB0B4AB0079300A16A46D94261C7517CC8FF89F61C0CE9 CALLDATALOAD SWAP9 0xE3 0xC8 BLOBHASH DUP1 LT GT 0xDE 0xE6 BLOBHASH 0xA6 0xA5 JUMPI 0xD1 STOP CALLDATASIZE ADDMOD SWAP5 LOG1 EXTCODESIZE LOG1 LOG3 0x21 MOD PUSH8 0xC828492DB98DCA3E KECCAK256 PUSH23 0xCC3735A920A3CA505D382BBC65D7A28E3265B37A647492 SWAP16 CALLER PUSH6 0x21B332C1681B SWAP4 EXTCODEHASH PUSH13 0xB9F3376673440D862A645E0397 SDIV BLOBHASH STOP DUP9 0xDA 0xAD DUP10 0xBA 0xE2 POP BLOBHASH LOG3 0x4F BLOBBASEFEE SWAP1 PUSH19 0xD398537B1AB2425F24CBED0202DD7BC7DEC4DC 0xEE 0xDD 0xA7 PUSH22 0xE58DD541E08A116C6C53815C0BD028192F7B626800CD MCOPY 0xD1 TLOAD PUSH15 0x187E77E9AEE88184C21F4F2182AB58 0x27 0xCB EXTCODESIZE PUSH31 0x7FBEDCD63F03300A2646970667358221220501E84DED827276D1F47068604 0x2C DUP13 0xBC MCOPY MSIZE PUSH14 0x80957FF95A906FE0AAEE5F19ED64 PUSH20 0x6F6C634300081A00330000000000000000000000 "
		},
		"gasEstimates": {
			"creation": {
				"codeDepositCost": "3029600",
				"executionCost": "infinite",
				"totalCost": "infinite"
			},
			"external": {
				"CLOCK_MODE()": "infinite",
				"DEFAULT_ADMIN_ROLE()": "326",
				"MINTER_ROLE()": "238",
				"PAUSER_ROLE()": "infinite",
				"UPGRADER_ROLE()": "326",
				"UPGRADE_INTERFACE_VERSION()": "infinite",
				"approve(address,uint256)": "infinite",
				"balanceOf(address)": "infinite",
				"burn(uint256)": "infinite",
				"clock()": "248",
				"delegate(address)": "infinite",
				"delegateBySig(address,uint256,uint256,uint8,bytes32,bytes32)": "infinite",
				"delegates(address)": "infinite",
				"eip712Domain()": "infinite",
				"getApproved(uint256)": "infinite",
				"getPastTotalSupply(uint256)": "infinite",
				"getPastVotes(address,uint256)": "infinite",
				"getRoleAdmin(bytes32)": "infinite",
				"getVotes(address)": "infinite",
				"grantRole(bytes32,address)": "infinite",
				"hasRole(bytes32,address)": "infinite",
				"initialize(address,address,address,address)": "infinite",
				"isApprovedForAll(address,address)": "infinite",
				"name()": "infinite",
				"nonces(address)": "2602",
				"ownerOf(uint256)": "infinite",
				"pause()": "infinite",
				"paused()": "infinite",
				"proxiableUUID()": "infinite",
				"renounceRole(bytes32,address)": "29227",
				"revokeRole(bytes32,address)": "infinite",
				"safeMint(address,string)": "infinite",
				"safeTransferFrom(address,address,uint256)": "infinite",
				"safeTransferFrom(address,address,uint256,bytes)": "infinite",
				"setApprovalForAll(address,bool)": "infinite",
				"supportsInterface(bytes4)": "infinite",
				"symbol()": "infinite",
				"tokenByIndex(uint256)": "infinite",
				"tokenOfOwnerByIndex(address,uint256)": "infinite",
				"tokenURI(uint256)": "infinite",
				"totalSupply()": "infinite",
				"transferFrom(address,address,uint256)": "infinite",
				"unpause()": "infinite",
				"upgradeToAndCall(address,bytes)": "infinite"
			},
			"internal": {
				"_authorizeUpgrade(address)": "infinite",
				"_baseURI()": "infinite",
				"_increaseBalance(address,uint128)": "infinite",
				"_update(address,uint256,address)": "infinite"
			}
		},
		"methodIdentifiers": {
			"CLOCK_MODE()": "4bf5d7e9",
			"DEFAULT_ADMIN_ROLE()": "a217fddf",
			"MINTER_ROLE()": "d5391393",
			"PAUSER_ROLE()": "e63ab1e9",
			"UPGRADER_ROLE()": "f72c0d8b",
			"UPGRADE_INTERFACE_VERSION()": "ad3cb1cc",
			"approve(address,uint256)": "095ea7b3",
			"balanceOf(address)": "70a08231",
			"burn(uint256)": "42966c68",
			"clock()": "91ddadf4",
			"delegate(address)": "5c19a95c",
			"delegateBySig(address,uint256,uint256,uint8,bytes32,bytes32)": "c3cda520",
			"delegates(address)": "587cde1e",
			"eip712Domain()": "84b0196e",
			"getApproved(uint256)": "081812fc",
			"getPastTotalSupply(uint256)": "8e539e8c",
			"getPastVotes(address,uint256)": "3a46b1a8",
			"getRoleAdmin(bytes32)": "248a9ca3",
			"getVotes(address)": "9ab24eb0",
			"grantRole(bytes32,address)": "2f2ff15d",
			"hasRole(bytes32,address)": "91d14854",
			"initialize(address,address,address,address)": "f8c8765e",
			"isApprovedForAll(address,address)": "e985e9c5",
			"name()": "06fdde03",
			"nonces(address)": "7ecebe00",
			"ownerOf(uint256)": "6352211e",
			"pause()": "8456cb59",
			"paused()": "5c975abb",
			"proxiableUUID()": "52d1902d",
			"renounceRole(bytes32,address)": "36568abe",
			"revokeRole(bytes32,address)": "d547741f",
			"safeMint(address,string)": "d204c45e",
			"safeTransferFrom(address,address,uint256)": "42842e0e",
			"safeTransferFrom(address,address,uint256,bytes)": "b88d4fde",
			"setApprovalForAll(address,bool)": "a22cb465",
			"supportsInterface(bytes4)": "01ffc9a7",
			"symbol()": "95d89b41",
			"tokenByIndex(uint256)": "4f6ccce7",
			"tokenOfOwnerByIndex(address,uint256)": "2f745c59",
			"tokenURI(uint256)": "c87b56dd",
			"totalSupply()": "18160ddd",
			"transferFrom(address,address,uint256)": "23b872dd",
			"unpause()": "3f4ba83a",
			"upgradeToAndCall(address,bytes)": "4f1ef286"
		}
	},
	"abi": [
		{
			"inputs": [],
			"stateMutability": "nonpayable",
			"type": "constructor"
		},
		{
			"inputs": [],
			"name": "AccessControlBadConfirmation",
			"type": "error"
		},
		{
			"inputs": [
				{
					"internalType": "address",
					"name": "account",
					"type": "address"
				},
				{
					"internalType": "bytes32",
					"name": "neededRole",
					"type": "bytes32"
				}
			],
			"name": "AccessControlUnauthorizedAccount",
			"type": "error"
		},
		{
			"inputs": [
				{
					"internalType": "address",
					"name": "target",
					"type": "address"
				}
			],
			"name": "AddressEmptyCode",
			"type": "error"
		},
		{
			"inputs": [],
			"name": "CheckpointUnorderedInsertion",
			"type": "error"
		},
		{
			"inputs": [],
			"name": "ECDSAInvalidSignature",
			"type": "error"
		},
		{
			"inputs": [
				{
					"internalType": "uint256",
					"name": "length",
					"type": "uint256"
				}
			],
			"name": "ECDSAInvalidSignatureLength",
			"type": "error"
		},
		{
			"inputs": [
				{
					"internalType": "bytes32",
					"name": "s",
					"type": "bytes32"
				}
			],
			"name": "ECDSAInvalidSignatureS",
			"type": "error"
		},
		{
			"inputs": [
				{
					"internalType": "address",
					"name": "implementation",
					"type": "address"
				}
			],
			"name": "ERC1967InvalidImplementation",
			"type": "error"
		},
		{
			"inputs": [],
			"name": "ERC1967NonPayable",
			"type": "error"
		},
		{
			"inputs": [
				{
					"internalType": "uint256",
					"name": "timepoint",
					"type": "uint256"
				},
				{
					"internalType": "uint48",
					"name": "clock",
					"type": "uint48"
				}
			],
			"name": "ERC5805FutureLookup",
			"type": "error"
		},
		{
			"inputs": [],
			"name": "ERC6372InconsistentClock",
			"type": "error"
		},
		{
			"inputs": [],
			"name": "ERC721EnumerableForbiddenBatchMint",
			"type": "error"
		},
		{
			"inputs": [
				{
					"internalType": "address",
					"name": "sender",
					"type": "address"
				},
				{
					"internalType": "uint256",
					"name": "tokenId",
					"type": "uint256"
				},
				{
					"internalType": "address",
					"name": "owner",
					"type": "address"
				}
			],
			"name": "ERC721IncorrectOwner",
			"type": "error"
		},
		{
			"inputs": [
				{
					"internalType": "address",
					"name": "operator",
					"type": "address"
				},
				{
					"internalType": "uint256",
					"name": "tokenId",
					"type": "uint256"
				}
			],
			"name": "ERC721InsufficientApproval",
			"type": "error"
		},
		{
			"inputs": [
				{
					"internalType": "address",
					"name": "approver",
					"type": "address"
				}
			],
			"name": "ERC721InvalidApprover",
			"type": "error"
		},
		{
			"inputs": [
				{
					"internalType": "address",
					"name": "operator",
					"type": "address"
				}
			],
			"name": "ERC721InvalidOperator",
			"type": "error"
		},
		{
			"inputs": [
				{
					"internalType": "address",
					"name": "owner",
					"type": "address"
				}
			],
			"name": "ERC721InvalidOwner",
			"type": "error"
		},
		{
			"inputs": [
				{
					"internalType": "address",
					"name": "receiver",
					"type": "address"
				}
			],
			"name": "ERC721InvalidReceiver",
			"type": "error"
		},
		{
			"inputs": [
				{
					"internalType": "address",
					"name": "sender",
					"type": "address"
				}
			],
			"name": "ERC721InvalidSender",
			"type": "error"
		},
		{
			"inputs": [
				{
					"internalType": "uint256",
					"name": "tokenId",
					"type": "uint256"
				}
			],
			"name": "ERC721NonexistentToken",
			"type": "error"
		},
		{
			"inputs": [
				{
					"internalType": "address",
					"name": "owner",
					"type": "address"
				},
				{
					"internalType": "uint256",
					"name": "index",
					"type": "uint256"
				}
			],
			"name": "ERC721OutOfBoundsIndex",
			"type": "error"
		},
		{
			"inputs": [],
			"name": "EnforcedPause",
			"type": "error"
		},
		{
			"inputs": [],
			"name": "ExpectedPause",
			"type": "error"
		},
		{
			"inputs": [],
			"name": "FailedCall",
			"type": "error"
		},
		{
			"inputs": [
				{
					"internalType": "address",
					"name": "account",
					"type": "address"
				},
				{
					"internalType": "uint256",
					"name": "currentNonce",
					"type": "uint256"
				}
			],
			"name": "InvalidAccountNonce",
			"type": "error"
		},
		{
			"inputs": [],
			"name": "InvalidInitialization",
			"type": "error"
		},
		{
			"inputs": [],
			"name": "NotInitializing",
			"type": "error"
		},
		{
			"inputs": [
				{
					"internalType": "uint8",
					"name": "bits",
					"type": "uint8"
				},
				{
					"internalType": "uint256",
					"name": "value",
					"type": "uint256"
				}
			],
			"name": "SafeCastOverflowedUintDowncast",
			"type": "error"
		},
		{
			"inputs": [],
			"name": "UUPSUnauthorizedCallContext",
			"type": "error"
		},
		{
			"inputs": [
				{
					"internalType": "bytes32",
					"name": "slot",
					"type": "bytes32"
				}
			],
			"name": "UUPSUnsupportedProxiableUUID",
			"type": "error"
		},
		{
			"inputs": [
				{
					"internalType": "uint256",
					"name": "expiry",
					"type": "uint256"
				}
			],
			"name": "VotesExpiredSignature",
			"type": "error"
		},
		{
			"anonymous": false,
			"inputs": [
				{
					"indexed": true,
					"internalType": "address",
					"name": "owner",
					"type": "address"
				},
				{
					"indexed": true,
					"internalType": "address",
					"name": "approved",
					"type": "address"
				},
				{
					"indexed": true,
					"internalType": "uint256",
					"name": "tokenId",
					"type": "uint256"
				}
			],
			"name": "Approval",
			"type": "event"
		},
		{
			"anonymous": false,
			"inputs": [
				{
					"indexed": true,
					"internalType": "address",
					"name": "owner",
					"type": "address"
				},
				{
					"indexed": true,
					"internalType": "address",
					"name": "operator",
					"type": "address"
				},
				{
					"indexed": false,
					"internalType": "bool",
					"name": "approved",
					"type": "bool"
				}
			],
			"name": "ApprovalForAll",
			"type": "event"
		},
		{
			"anonymous": false,
			"inputs": [
				{
					"indexed": false,
					"internalType": "uint256",
					"name": "_fromTokenId",
					"type": "uint256"
				},
				{
					"indexed": false,
					"internalType": "uint256",
					"name": "_toTokenId",
					"type": "uint256"
				}
			],
			"name": "BatchMetadataUpdate",
			"type": "event"
		},
		{
			"anonymous": false,
			"inputs": [
				{
					"indexed": true,
					"internalType": "address",
					"name": "delegator",
					"type": "address"
				},
				{
					"indexed": true,
					"internalType": "address",
					"name": "fromDelegate",
					"type": "address"
				},
				{
					"indexed": true,
					"internalType": "address",
					"name": "toDelegate",
					"type": "address"
				}
			],
			"name": "DelegateChanged",
			"type": "event"
		},
		{
			"anonymous": false,
			"inputs": [
				{
					"indexed": true,
					"internalType": "address",
					"name": "delegate",
					"type": "address"
				},
				{
					"indexed": false,
					"internalType": "uint256",
					"name": "previousVotes",
					"type": "uint256"
				},
				{
					"indexed": false,
					"internalType": "uint256",
					"name": "newVotes",
					"type": "uint256"
				}
			],
			"name": "DelegateVotesChanged",
			"type": "event"
		},
		{
			"anonymous": false,
			"inputs": [],
			"name": "EIP712DomainChanged",
			"type": "event"
		},
		{
			"anonymous": false,
			"inputs": [
				{
					"indexed": false,
					"internalType": "uint64",
					"name": "version",
					"type": "uint64"
				}
			],
			"name": "Initialized",
			"type": "event"
		},
		{
			"anonymous": false,
			"inputs": [
				{
					"indexed": false,
					"internalType": "uint256",
					"name": "_tokenId",
					"type": "uint256"
				}
			],
			"name": "MetadataUpdate",
			"type": "event"
		},
		{
			"anonymous": false,
			"inputs": [
				{
					"indexed": false,
					"internalType": "address",
					"name": "account",
					"type": "address"
				}
			],
			"name": "Paused",
			"type": "event"
		},
		{
			"anonymous": false,
			"inputs": [
				{
					"indexed": true,
					"internalType": "bytes32",
					"name": "role",
					"type": "bytes32"
				},
				{
					"indexed": true,
					"internalType": "bytes32",
					"name": "previousAdminRole",
					"type": "bytes32"
				},
				{
					"indexed": true,
					"internalType": "bytes32",
					"name": "newAdminRole",
					"type": "bytes32"
				}
			],
			"name": "RoleAdminChanged",
			"type": "event"
		},
		{
			"anonymous": false,
			"inputs": [
				{
					"indexed": true,
					"internalType": "bytes32",
					"name": "role",
					"type": "bytes32"
				},
				{
					"indexed": true,
					"internalType": "address",
					"name": "account",
					"type": "address"
				},
				{
					"indexed": true,
					"internalType": "address",
					"name": "sender",
					"type": "address"
				}
			],
			"name": "RoleGranted",
			"type": "event"
		},
		{
			"anonymous": false,
			"inputs": [
				{
					"indexed": true,
					"internalType": "bytes32",
					"name": "role",
					"type": "bytes32"
				},
				{
					"indexed": true,
					"internalType": "address",
					"name": "account",
					"type": "address"
				},
				{
					"indexed": true,
					"internalType": "address",
					"name": "sender",
					"type": "address"
				}
			],
			"name": "RoleRevoked",
			"type": "event"
		},
		{
			"anonymous": false,
			"inputs": [
				{
					"indexed": true,
					"internalType": "address",
					"name": "from",
					"type": "address"
				},
				{
					"indexed": true,
					"internalType": "address",
					"name": "to",
					"type": "address"
				},
				{
					"indexed": true,
					"internalType": "uint256",
					"name": "tokenId",
					"type": "uint256"
				}
			],
			"name": "Transfer",
			"type": "event"
		},
		{
			"anonymous": false,
			"inputs": [
				{
					"indexed": false,
					"internalType": "address",
					"name": "account",
					"type": "address"
				}
			],
			"name": "Unpaused",
			"type": "event"
		},
		{
			"anonymous": false,
			"inputs": [
				{
					"indexed": true,
					"internalType": "address",
					"name": "implementation",
					"type": "address"
				}
			],
			"name": "Upgraded",
			"type": "event"
		},
		{
			"inputs": [],
			"name": "CLOCK_MODE",
			"outputs": [
				{
					"internalType": "string",
					"name": "",
					"type": "string"
				}
			],
			"stateMutability": "pure",
			"type": "function"
		},
		{
			"inputs": [],
			"name": "DEFAULT_ADMIN_ROLE",
			"outputs": [
				{
					"internalType": "bytes32",
					"name": "",
					"type": "bytes32"
				}
			],
			"stateMutability": "view",
			"type": "function"
		},
		{
			"inputs": [],
			"name": "MINTER_ROLE",
			"outputs": [
				{
					"internalType": "bytes32",
					"name": "",
					"type": "bytes32"
				}
			],
			"stateMutability": "view",
			"type": "function"
		},
		{
			"inputs": [],
			"name": "PAUSER_ROLE",
			"outputs": [
				{
					"internalType": "bytes32",
					"name": "",
					"type": "bytes32"
				}
			],
			"stateMutability": "view",
			"type": "function"
		},
		{
			"inputs": [],
			"name": "UPGRADER_ROLE",
			"outputs": [
				{
					"internalType": "bytes32",
					"name": "",
					"type": "bytes32"
				}
			],
			"stateMutability": "view",
			"type": "function"
		},
		{
			"inputs": [],
			"name": "UPGRADE_INTERFACE_VERSION",
			"outputs": [
				{
					"internalType": "string",
					"name": "",
					"type": "string"
				}
			],
			"stateMutability": "view",
			"type": "function"
		},
		{
			"inputs": [
				{
					"internalType": "address",
					"name": "to",
					"type": "address"
				},
				{
					"internalType": "uint256",
					"name": "tokenId",
					"type": "uint256"
				}
			],
			"name": "approve",
			"outputs": [],
			"stateMutability": "nonpayable",
			"type": "function"
		},
		{
			"inputs": [
				{
					"internalType": "address",
					"name": "owner",
					"type": "address"
				}
			],
			"name": "balanceOf",
			"outputs": [
				{
					"internalType": "uint256",
					"name": "",
					"type": "uint256"
				}
			],
			"stateMutability": "view",
			"type": "function"
		},
		{
			"inputs": [
				{
					"internalType": "uint256",
					"name": "tokenId",
					"type": "uint256"
				}
			],
			"name": "burn",
			"outputs": [],
			"stateMutability": "nonpayable",
			"type": "function"
		},
		{
			"inputs": [],
			"name": "clock",
			"outputs": [
				{
					"internalType": "uint48",
					"name": "",
					"type": "uint48"
				}
			],
			"stateMutability": "view",
			"type": "function"
		},
		{
			"inputs": [
				{
					"internalType": "address",
					"name": "delegatee",
					"type": "address"
				}
			],
			"name": "delegate",
			"outputs": [],
			"stateMutability": "nonpayable",
			"type": "function"
		},
		{
			"inputs": [
				{
					"internalType": "address",
					"name": "delegatee",
					"type": "address"
				},
				{
					"internalType": "uint256",
					"name": "nonce",
					"type": "uint256"
				},
				{
					"internalType": "uint256",
					"name": "expiry",
					"type": "uint256"
				},
				{
					"internalType": "uint8",
					"name": "v",
					"type": "uint8"
				},
				{
					"internalType": "bytes32",
					"name": "r",
					"type": "bytes32"
				},
				{
					"internalType": "bytes32",
					"name": "s",
					"type": "bytes32"
				}
			],
			"name": "delegateBySig",
			"outputs": [],
			"stateMutability": "nonpayable",
			"type": "function"
		},
		{
			"inputs": [
				{
					"internalType": "address",
					"name": "account",
					"type": "address"
				}
			],
			"name": "delegates",
			"outputs": [
				{
					"internalType": "address",
					"name": "",
					"type": "address"
				}
			],
			"stateMutability": "view",
			"type": "function"
		},
		{
			"inputs": [],
			"name": "eip712Domain",
			"outputs": [
				{
					"internalType": "bytes1",
					"name": "fields",
					"type": "bytes1"
				},
				{
					"internalType": "string",
					"name": "name",
					"type": "string"
				},
				{
					"internalType": "string",
					"name": "version",
					"type": "string"
				},
				{
					"internalType": "uint256",
					"name": "chainId",
					"type": "uint256"
				},
				{
					"internalType": "address",
					"name": "verifyingContract",
					"type": "address"
				},
				{
					"internalType": "bytes32",
					"name": "salt",
					"type": "bytes32"
				},
				{
					"internalType": "uint256[]",
					"name": "extensions",
					"type": "uint256[]"
				}
			],
			"stateMutability": "view",
			"type": "function"
		},
		{
			"inputs": [
				{
					"internalType": "uint256",
					"name": "tokenId",
					"type": "uint256"
				}
			],
			"name": "getApproved",
			"outputs": [
				{
					"internalType": "address",
					"name": "",
					"type": "address"
				}
			],
			"stateMutability": "view",
			"type": "function"
		},
		{
			"inputs": [
				{
					"internalType": "uint256",
					"name": "timepoint",
					"type": "uint256"
				}
			],
			"name": "getPastTotalSupply",
			"outputs": [
				{
					"internalType": "uint256",
					"name": "",
					"type": "uint256"
				}
			],
			"stateMutability": "view",
			"type": "function"
		},
		{
			"inputs": [
				{
					"internalType": "address",
					"name": "account",
					"type": "address"
				},
				{
					"internalType": "uint256",
					"name": "timepoint",
					"type": "uint256"
				}
			],
			"name": "getPastVotes",
			"outputs": [
				{
					"internalType": "uint256",
					"name": "",
					"type": "uint256"
				}
			],
			"stateMutability": "view",
			"type": "function"
		},
		{
			"inputs": [
				{
					"internalType": "bytes32",
					"name": "role",
					"type": "bytes32"
				}
			],
			"name": "getRoleAdmin",
			"outputs": [
				{
					"internalType": "bytes32",
					"name": "",
					"type": "bytes32"
				}
			],
			"stateMutability": "view",
			"type": "function"
		},
		{
			"inputs": [
				{
					"internalType": "address",
					"name": "account",
					"type": "address"
				}
			],
			"name": "getVotes",
			"outputs": [
				{
					"internalType": "uint256",
					"name": "",
					"type": "uint256"
				}
			],
			"stateMutability": "view",
			"type": "function"
		},
		{
			"inputs": [
				{
					"internalType": "bytes32",
					"name": "role",
					"type": "bytes32"
				},
				{
					"internalType": "address",
					"name": "account",
					"type": "address"
				}
			],
			"name": "grantRole",
			"outputs": [],
			"stateMutability": "nonpayable",
			"type": "function"
		},
		{
			"inputs": [
				{
					"internalType": "bytes32",
					"name": "role",
					"type": "bytes32"
				},
				{
					"internalType": "address",
					"name": "account",
					"type": "address"
				}
			],
			"name": "hasRole",
			"outputs": [
				{
					"internalType": "bool",
					"name": "",
					"type": "bool"
				}
			],
			"stateMutability": "view",
			"type": "function"
		},
		{
			"inputs": [
				{
					"internalType": "address",
					"name": "defaultAdmin",
					"type": "address"
				},
				{
					"internalType": "address",
					"name": "pauser",
					"type": "address"
				},
				{
					"internalType": "address",
					"name": "minter",
					"type": "address"
				},
				{
					"internalType": "address",
					"name": "upgrader",
					"type": "address"
				}
			],
			"name": "initialize",
			"outputs": [],
			"stateMutability": "nonpayable",
			"type": "function"
		},
		{
			"inputs": [
				{
					"internalType": "address",
					"name": "owner",
					"type": "address"
				},
				{
					"internalType": "address",
					"name": "operator",
					"type": "address"
				}
			],
			"name": "isApprovedForAll",
			"outputs": [
				{
					"internalType": "bool",
					"name": "",
					"type": "bool"
				}
			],
			"stateMutability": "view",
			"type": "function"
		},
		{
			"inputs": [],
			"name": "name",
			"outputs": [
				{
					"internalType": "string",
					"name": "",
					"type": "string"
				}
			],
			"stateMutability": "view",
			"type": "function"
		},
		{
			"inputs": [
				{
					"internalType": "address",
					"name": "owner",
					"type": "address"
				}
			],
			"name": "nonces",
			"outputs": [
				{
					"internalType": "uint256",
					"name": "",
					"type": "uint256"
				}
			],
			"stateMutability": "view",
			"type": "function"
		},
		{
			"inputs": [
				{
					"internalType": "uint256",
					"name": "tokenId",
					"type": "uint256"
				}
			],
			"name": "ownerOf",
			"outputs": [
				{
					"internalType": "address",
					"name": "",
					"type": "address"
				}
			],
			"stateMutability": "view",
			"type": "function"
		},
		{
			"inputs": [],
			"name": "pause",
			"outputs": [],
			"stateMutability": "nonpayable",
			"type": "function"
		},
		{
			"inputs": [],
			"name": "paused",
			"outputs": [
				{
					"internalType": "bool",
					"name": "",
					"type": "bool"
				}
			],
			"stateMutability": "view",
			"type": "function"
		},
		{
			"inputs": [],
			"name": "proxiableUUID",
			"outputs": [
				{
					"internalType": "bytes32",
					"name": "",
					"type": "bytes32"
				}
			],
			"stateMutability": "view",
			"type": "function"
		},
		{
			"inputs": [
				{
					"internalType": "bytes32",
					"name": "role",
					"type": "bytes32"
				},
				{
					"internalType": "address",
					"name": "callerConfirmation",
					"type": "address"
				}
			],
			"name": "renounceRole",
			"outputs": [],
			"stateMutability": "nonpayable",
			"type": "function"
		},
		{
			"inputs": [
				{
					"internalType": "bytes32",
					"name": "role",
					"type": "bytes32"
				},
				{
					"internalType": "address",
					"name": "account",
					"type": "address"
				}
			],
			"name": "revokeRole",
			"outputs": [],
			"stateMutability": "nonpayable",
			"type": "function"
		},
		{
			"inputs": [
				{
					"internalType": "address",
					"name": "to",
					"type": "address"
				},
				{
					"internalType": "string",
					"name": "uri",
					"type": "string"
				}
			],
			"name": "safeMint",
			"outputs": [],
			"stateMutability": "nonpayable",
			"type": "function"
		},
		{
			"inputs": [
				{
					"internalType": "address",
					"name": "from",
					"type": "address"
				},
				{
					"internalType": "address",
					"name": "to",
					"type": "address"
				},
				{
					"internalType": "uint256",
					"name": "tokenId",
					"type": "uint256"
				}
			],
			"name": "safeTransferFrom",
			"outputs": [],
			"stateMutability": "nonpayable",
			"type": "function"
		},
		{
			"inputs": [
				{
					"internalType": "address",
					"name": "from",
					"type": "address"
				},
				{
					"internalType": "address",
					"name": "to",
					"type": "address"
				},
				{
					"internalType": "uint256",
					"name": "tokenId",
					"type": "uint256"
				},
				{
					"internalType": "bytes",
					"name": "data",
					"type": "bytes"
				}
			],
			"name": "safeTransferFrom",
			"outputs": [],
			"stateMutability": "nonpayable",
			"type": "function"
		},
		{
			"inputs": [
				{
					"internalType": "address",
					"name": "operator",
					"type": "address"
				},
				{
					"internalType": "bool",
					"name": "approved",
					"type": "bool"
				}
			],
			"name": "setApprovalForAll",
			"outputs": [],
			"stateMutability": "nonpayable",
			"type": "function"
		},
		{
			"inputs": [
				{
					"internalType": "bytes4",
					"name": "interfaceId",
					"type": "bytes4"
				}
			],
			"name": "supportsInterface",
			"outputs": [
				{
					"internalType": "bool",
					"name": "",
					"type": "bool"
				}
			],
			"stateMutability": "view",
			"type": "function"
		},
		{
			"inputs": [],
			"name": "symbol",
			"outputs": [
				{
					"internalType": "string",
					"name": "",
					"type": "string"
				}
			],
			"stateMutability": "view",
			"type": "function"
		},
		{
			"inputs": [
				{
					"internalType": "uint256",
					"name": "index",
					"type": "uint256"
				}
			],
			"name": "tokenByIndex",
			"outputs": [
				{
					"internalType": "uint256",
					"name": "",
					"type": "uint256"
				}
			],
			"stateMutability": "view",
			"type": "function"
		},
		{
			"inputs": [
				{
					"internalType": "address",
					"name": "owner",
					"type": "address"
				},
				{
					"internalType": "uint256",
					"name": "index",
					"type": "uint256"
				}
			],
			"name": "tokenOfOwnerByIndex",
			"outputs": [
				{
					"internalType": "uint256",
					"name": "",
					"type": "uint256"
				}
			],
			"stateMutability": "view",
			"type": "function"
		},
		{
			"inputs": [
				{
					"internalType": "uint256",
					"name": "tokenId",
					"type": "uint256"
				}
			],
			"name": "tokenURI",
			"outputs": [
				{
					"internalType": "string",
					"name": "",
					"type": "string"
				}
			],
			"stateMutability": "view",
			"type": "function"
		},
		{
			"inputs": [],
			"name": "totalSupply",
			"outputs": [
				{
					"internalType": "uint256",
					"name": "",
					"type": "uint256"
				}
			],
			"stateMutability": "view",
			"type": "function"
		},
		{
			"inputs": [
				{
					"internalType": "address",
					"name": "from",
					"type": "address"
				},
				{
					"internalType": "address",
					"name": "to",
					"type": "address"
				},
				{
					"internalType": "uint256",
					"name": "tokenId",
					"type": "uint256"
				}
			],
			"name": "transferFrom",
			"outputs": [],
			"stateMutability": "nonpayable",
			"type": "function"
		},
		{
			"inputs": [],
			"name": "unpause",
			"outputs": [],
			"stateMutability": "nonpayable",
			"type": "function"
		},
		{
			"inputs": [
				{
					"internalType": "address",
					"name": "newImplementation",
					"type": "address"
				},
				{
					"internalType": "bytes",
					"name": "data",
					"type": "bytes"
				}
			],
			"name": "upgradeToAndCall",
			"outputs": [],
			"stateMutability": "payable",
			"type": "function"
		}
	]
}