{
	"data": {
		"bytecode": {
			"linkReferences": {},
			"object": "60806040525f6003555f6004555f600555348015601a575f5ffd5b5061060c806100285f395ff3fe608060405234801561000f575f5ffd5b5060043610610090575f3560e01c80632ad51b96116100635780632ad51b96146101635780633f301ae5146101ee5780634f6e1b271461026f578063a990586a146102d1578063b986f17914610351575f5ffd5b806307ec40431461009457806316c1076f146100ba5780631aeb6c98146100cd5780631d59a3aa14610150575b5f5ffd5b6100a76100a236600461045a565b6103c3565b6040519081526020015b60405180910390f35b6100a76100c836600461051e565b6103e2565b61014e6100db36600461054f565b604080516060810182526001600160a01b03948516815292151560208085019182529215158483019081525f9687526001909352942091518254945191511515600160a81b0260ff60a81b19921515600160a01b026001600160a81b031990961691909416179390931792909216179055565b005b6100a761015e36600461045a565b610400565b6101c761017136600461059b565b5f81815260026020908152604091829020825160608101845290546001600160a01b03811680835260ff600160a01b830481161515948401859052600160a81b9092049091161515919093018190529193909250565b604080516001600160a01b03909416845291151560208401521515908201526060016100b1565b61014e6101fc36600461054f565b604080516060810182526001600160a01b03948516815292151560208085019182529215158483019081525f9687526002909352942091518254945191511515600160a81b0260ff60a81b19921515600160a01b026001600160a81b031990961691909416179390931792909216179055565b6101c761027d36600461059b565b5f8181526020818152604091829020825160608101845290546001600160a01b03811680835260ff600160a01b830481161515948401859052600160a81b9092049091161515919093018190529193909250565b61014e6102df36600461054f565b604080516060810182526001600160a01b03948516815292151560208085019182529215158483019081525f96875292869052942091518254945191511515600160a81b0260ff60a81b19921515600160a01b026001600160a81b031990961691909416179390931792909216179055565b6103ac61035f36600461059b565b5f90815260016020908152604091829020825160608101845290546001600160a01b038116825260ff600160a01b820481161515938301849052600160a81b909104161515920182905291565b6040805192151583529015156020830152016100b1565b600480545f91826103d3836105b2565b90915550506004549392505050565b600580545f91826103f2836105b2565b909155505060055492915050565b600380545f9182610410836105b2565b90915550506003549392505050565b634e487b7160e01b5f52604160045260245ffd5b6001600160a01b0381168114610447575f5ffd5b50565b803561045581610433565b919050565b5f5f6040838503121561046b575f5ffd5b823567ffffffffffffffff811115610481575f5ffd5b8301601f81018513610491575f5ffd5b803567ffffffffffffffff8111156104ab576104ab61041f565b604051601f8201601f19908116603f0116810167ffffffffffffffff811182821017156104da576104da61041f565b6040528181528282016020018710156104f1575f5ffd5b816020840160208301375f602083830101528094505050506105156020840161044a565b90509250929050565b5f6020828403121561052e575f5ffd5b813561053981610433565b9392505050565b80358015158114610455575f5ffd5b5f5f5f5f60808587031215610562575f5ffd5b84359350602085013561057481610433565b925061058260408601610540565b915061059060608601610540565b905092959194509250565b5f602082840312156105ab575f5ffd5b5035919050565b5f600182016105cf57634e487b7160e01b5f52601160045260245ffd5b506001019056fea2646970667358221220fa3b59124afbf112f0c74a55b47e9a005fd084566290659025da745585ea967a64736f6c634300081c0033",
			"opcodes": "PUSH1 0x80 PUSH1 0x40 MSTORE PUSH0 PUSH1 0x3 SSTORE PUSH0 PUSH1 0x4 SSTORE PUSH0 PUSH1 0x5 SSTORE CALLVALUE DUP1 ISZERO PUSH1 0x1A JUMPI PUSH0 PUSH0 REVERT JUMPDEST POP PUSH2 0x60C DUP1 PUSH2 0x28 PUSH0 CODECOPY PUSH0 RETURN INVALID PUSH1 0x80 PUSH1 0x40 MSTORE CALLVALUE DUP1 ISZERO PUSH2 0xF JUMPI PUSH0 PUSH0 REVERT JUMPDEST POP PUSH1 0x4 CALLDATASIZE LT PUSH2 0x90 JUMPI PUSH0 CALLDATALOAD PUSH1 0xE0 SHR DUP1 PUSH4 0x2AD51B96 GT PUSH2 0x63 JUMPI DUP1 PUSH4 0x2AD51B96 EQ PUSH2 0x163 JUMPI DUP1 PUSH4 0x3F301AE5 EQ PUSH2 0x1EE JUMPI DUP1 PUSH4 0x4F6E1B27 EQ PUSH2 0x26F JUMPI DUP1 PUSH4 0xA990586A EQ PUSH2 0x2D1 JUMPI DUP1 PUSH4 0xB986F179 EQ PUSH2 0x351 JUMPI PUSH0 PUSH0 REVERT JUMPDEST DUP1 PUSH4 0x7EC4043 EQ PUSH2 0x94 JUMPI DUP1 PUSH4 0x16C1076F EQ PUSH2 0xBA JUMPI DUP1 PUSH4 0x1AEB6C98 EQ PUSH2 0xCD JUMPI DUP1 PUSH4 0x1D59A3AA EQ PUSH2 0x150 JUMPI JUMPDEST PUSH0 PUSH0 REVERT JUMPDEST PUSH2 0xA7 PUSH2 0xA2 CALLDATASIZE PUSH1 0x4 PUSH2 0x45A JUMP JUMPDEST PUSH2 0x3C3 JUMP JUMPDEST PUSH1 0x40 MLOAD SWAP1 DUP2 MSTORE PUSH1 0x20 ADD JUMPDEST PUSH1 0x40 MLOAD DUP1 SWAP2 SUB SWAP1 RETURN JUMPDEST PUSH2 0xA7 PUSH2 0xC8 CALLDATASIZE PUSH1 0x4 PUSH2 0x51E JUMP JUMPDEST PUSH2 0x3E2 JUMP JUMPDEST PUSH2 0x14E PUSH2 0xDB CALLDATASIZE PUSH1 0x4 PUSH2 0x54F JUMP JUMPDEST PUSH1 0x40 DUP1 MLOAD PUSH1 0x60 DUP2 ADD DUP3 MSTORE PUSH1 0x1 PUSH1 0x1 PUSH1 0xA0 SHL SUB SWAP5 DUP6 AND DUP2 MSTORE SWAP3 ISZERO ISZERO PUSH1 0x20 DUP1 DUP6 ADD SWAP2 DUP3 MSTORE SWAP3 ISZERO ISZERO DUP5 DUP4 ADD SWAP1 DUP2 MSTORE PUSH0 SWAP7 DUP8 MSTORE PUSH1 0x1 SWAP1 SWAP4 MSTORE SWAP5 KECCAK256 SWAP2 MLOAD DUP3 SLOAD SWAP5 MLOAD SWAP2 MLOAD ISZERO ISZERO PUSH1 0x1 PUSH1 0xA8 SHL MUL PUSH1 0xFF PUSH1 0xA8 SHL NOT SWAP3 ISZERO ISZERO PUSH1 0x1 PUSH1 0xA0 SHL MUL PUSH1 0x1 PUSH1 0x1 PUSH1 0xA8 SHL SUB NOT SWAP1 SWAP7 AND SWAP2 SWAP1 SWAP5 AND OR SWAP4 SWAP1 SWAP4 OR SWAP3 SWAP1 SWAP3 AND OR SWAP1 SSTORE JUMP JUMPDEST STOP JUMPDEST PUSH2 0xA7 PUSH2 0x15E CALLDATASIZE PUSH1 0x4 PUSH2 0x45A JUMP JUMPDEST PUSH2 0x400 JUMP JUMPDEST PUSH2 0x1C7 PUSH2 0x171 CALLDATASIZE PUSH1 0x4 PUSH2 0x59B JUMP JUMPDEST PUSH0 DUP2 DUP2 MSTORE PUSH1 0x2 PUSH1 0x20 SWAP1 DUP2 MSTORE PUSH1 0x40 SWAP2 DUP3 SWAP1 KECCAK256 DUP3 MLOAD PUSH1 0x60 DUP2 ADD DUP5 MSTORE SWAP1 SLOAD PUSH1 0x1 PUSH1 0x1 PUSH1 0xA0 SHL SUB DUP2 AND DUP1 DUP4 MSTORE PUSH1 0xFF PUSH1 0x1 PUSH1 0xA0 SHL DUP4 DIV DUP2 AND ISZERO ISZERO SWAP5 DUP5 ADD DUP6 SWAP1 MSTORE PUSH1 0x1 PUSH1 0xA8 SHL SWAP1 SWAP3 DIV SWAP1 SWAP2 AND ISZERO ISZERO SWAP2 SWAP1 SWAP4 ADD DUP2 SWAP1 MSTORE SWAP2 SWAP4 SWAP1 SWAP3 POP JUMP JUMPDEST PUSH1 0x40 DUP1 MLOAD PUSH1 0x1 PUSH1 0x1 PUSH1 0xA0 SHL SUB SWAP1 SWAP5 AND DUP5 MSTORE SWAP2 ISZERO ISZERO PUSH1 0x20 DUP5 ADD MSTORE ISZERO ISZERO SWAP1 DUP3 ADD MSTORE PUSH1 0x60 ADD PUSH2 0xB1 JUMP JUMPDEST PUSH2 0x14E PUSH2 0x1FC CALLDATASIZE PUSH1 0x4 PUSH2 0x54F JUMP JUMPDEST PUSH1 0x40 DUP1 MLOAD PUSH1 0x60 DUP2 ADD DUP3 MSTORE PUSH1 0x1 PUSH1 0x1 PUSH1 0xA0 SHL SUB SWAP5 DUP6 AND DUP2 MSTORE SWAP3 ISZERO ISZERO PUSH1 0x20 DUP1 DUP6 ADD SWAP2 DUP3 MSTORE SWAP3 ISZERO ISZERO DUP5 DUP4 ADD SWAP1 DUP2 MSTORE PUSH0 SWAP7 DUP8 MSTORE PUSH1 0x2 SWAP1 SWAP4 MSTORE SWAP5 KECCAK256 SWAP2 MLOAD DUP3 SLOAD SWAP5 MLOAD SWAP2 MLOAD ISZERO ISZERO PUSH1 0x1 PUSH1 0xA8 SHL MUL PUSH1 0xFF PUSH1 0xA8 SHL NOT SWAP3 ISZERO ISZERO PUSH1 0x1 PUSH1 0xA0 SHL MUL PUSH1 0x1 PUSH1 0x1 PUSH1 0xA8 SHL SUB NOT SWAP1 SWAP7 AND SWAP2 SWAP1 SWAP5 AND OR SWAP4 SWAP1 SWAP4 OR SWAP3 SWAP1 SWAP3 AND OR SWAP1 SSTORE JUMP JUMPDEST PUSH2 0x1C7 PUSH2 0x27D CALLDATASIZE PUSH1 0x4 PUSH2 0x59B JUMP JUMPDEST PUSH0 DUP2 DUP2 MSTORE PUSH1 0x20 DUP2 DUP2 MSTORE PUSH1 0x40 SWAP2 DUP3 SWAP1 KECCAK256 DUP3 MLOAD PUSH1 0x60 DUP2 ADD DUP5 MSTORE SWAP1 SLOAD PUSH1 0x1 PUSH1 0x1 PUSH1 0xA0 SHL SUB DUP2 AND DUP1 DUP4 MSTORE PUSH1 0xFF PUSH1 0x1 PUSH1 0xA0 SHL DUP4 DIV DUP2 AND ISZERO ISZERO SWAP5 DUP5 ADD DUP6 SWAP1 MSTORE PUSH1 0x1 PUSH1 0xA8 SHL SWAP1 SWAP3 DIV SWAP1 SWAP2 AND ISZERO ISZERO SWAP2 SWAP1 SWAP4 ADD DUP2 SWAP1 MSTORE SWAP2 SWAP4 SWAP1 SWAP3 POP JUMP JUMPDEST PUSH2 0x14E PUSH2 0x2DF CALLDATASIZE PUSH1 0x4 PUSH2 0x54F JUMP JUMPDEST PUSH1 0x40 DUP1 MLOAD PUSH1 0x60 DUP2 ADD DUP3 MSTORE PUSH1 0x1 PUSH1 0x1 PUSH1 0xA0 SHL SUB SWAP5 DUP6 AND DUP2 MSTORE SWAP3 ISZERO ISZERO PUSH1 0x20 DUP1 DUP6 ADD SWAP2 DUP3 MSTORE SWAP3 ISZERO ISZERO DUP5 DUP4 ADD SWAP1 DUP2 MSTORE PUSH0 SWAP7 DUP8 MSTORE SWAP3 DUP7 SWAP1 MSTORE SWAP5 KECCAK256 SWAP2 MLOAD DUP3 SLOAD SWAP5 MLOAD SWAP2 MLOAD ISZERO ISZERO PUSH1 0x1 PUSH1 0xA8 SHL MUL PUSH1 0xFF PUSH1 0xA8 SHL NOT SWAP3 ISZERO ISZERO PUSH1 0x1 PUSH1 0xA0 SHL MUL PUSH1 0x1 PUSH1 0x1 PUSH1 0xA8 SHL SUB NOT SWAP1 SWAP7 AND SWAP2 SWAP1 SWAP5 AND OR SWAP4 SWAP1 SWAP4 OR SWAP3 SWAP1 SWAP3 AND OR SWAP1 SSTORE JUMP JUMPDEST PUSH2 0x3AC PUSH2 0x35F CALLDATASIZE PUSH1 0x4 PUSH2 0x59B JUMP JUMPDEST PUSH0 SWAP1 DUP2 MSTORE PUSH1 0x1 PUSH1 0x20 SWAP1 DUP2 MSTORE PUSH1 0x40 SWAP2 DUP3 SWAP1 KECCAK256 DUP3 MLOAD PUSH1 0x60 DUP2 ADD DUP5 MSTORE SWAP1 SLOAD PUSH1 0x1 PUSH1 0x1 PUSH1 0xA0 SHL SUB DUP2 AND DUP3 MSTORE PUSH1 0xFF PUSH1 0x1 PUSH1 0xA0 SHL DUP3 DIV DUP2 AND ISZERO ISZERO SWAP4 DUP4 ADD DUP5 SWAP1 MSTORE PUSH1 0x1 PUSH1 0xA8 SHL SWAP1 SWAP2 DIV AND ISZERO ISZERO SWAP3 ADD DUP3 SWAP1 MSTORE SWAP2 JUMP JUMPDEST PUSH1 0x40 DUP1 MLOAD SWAP3 ISZERO ISZERO DUP4 MSTORE SWAP1 ISZERO ISZERO PUSH1 0x20 DUP4 ADD MSTORE ADD PUSH2 0xB1 JUMP JUMPDEST PUSH1 0x4 DUP1 SLOAD PUSH0 SWAP2 DUP3 PUSH2 0x3D3 DUP4 PUSH2 0x5B2 JUMP JUMPDEST SWAP1 SWAP2 SSTORE POP POP PUSH1 0x4 SLOAD SWAP4 SWAP3 POP POP POP JUMP JUMPDEST PUSH1 0x5 DUP1 SLOAD PUSH0 SWAP2 DUP3 PUSH2 0x3F2 DUP4 PUSH2 0x5B2 JUMP JUMPDEST SWAP1 SWAP2 SSTORE POP POP PUSH1 0x5 SLOAD SWAP3 SWAP2 POP POP JUMP JUMPDEST PUSH1 0x3 DUP1 SLOAD PUSH0 SWAP2 DUP3 PUSH2 0x410 DUP4 PUSH2 0x5B2 JUMP JUMPDEST SWAP1 SWAP2 SSTORE POP POP PUSH1 0x3 SLOAD SWAP4 SWAP3 POP POP POP JUMP JUMPDEST PUSH4 0x4E487B71 PUSH1 0xE0 SHL PUSH0 MSTORE PUSH1 0x41 PUSH1 0x4 MSTORE PUSH1 0x24 PUSH0 REVERT JUMPDEST PUSH1 0x1 PUSH1 0x1 PUSH1 0xA0 SHL SUB DUP2 AND DUP2 EQ PUSH2 0x447 JUMPI PUSH0 PUSH0 REVERT JUMPDEST POP JUMP JUMPDEST DUP1 CALLDATALOAD PUSH2 0x455 DUP2 PUSH2 0x433 JUMP JUMPDEST SWAP2 SWAP1 POP JUMP JUMPDEST PUSH0 PUSH0 PUSH1 0x40 DUP4 DUP6 SUB SLT ISZERO PUSH2 0x46B JUMPI PUSH0 PUSH0 REVERT JUMPDEST DUP3 CALLDATALOAD PUSH8 0xFFFFFFFFFFFFFFFF DUP2 GT ISZERO PUSH2 0x481 JUMPI PUSH0 PUSH0 REVERT JUMPDEST DUP4 ADD PUSH1 0x1F DUP2 ADD DUP6 SGT PUSH2 0x491 JUMPI PUSH0 PUSH0 REVERT JUMPDEST DUP1 CALLDATALOAD PUSH8 0xFFFFFFFFFFFFFFFF DUP2 GT ISZERO PUSH2 0x4AB JUMPI PUSH2 0x4AB PUSH2 0x41F JUMP JUMPDEST PUSH1 0x40 MLOAD PUSH1 0x1F DUP3 ADD PUSH1 0x1F NOT SWAP1 DUP2 AND PUSH1 0x3F ADD AND DUP2 ADD PUSH8 0xFFFFFFFFFFFFFFFF DUP2 GT DUP3 DUP3 LT OR ISZERO PUSH2 0x4DA JUMPI PUSH2 0x4DA PUSH2 0x41F JUMP JUMPDEST PUSH1 0x40 MSTORE DUP2 DUP2 MSTORE DUP3 DUP3 ADD PUSH1 0x20 ADD DUP8 LT ISZERO PUSH2 0x4F1 JUMPI PUSH0 PUSH0 REVERT JUMPDEST DUP2 PUSH1 0x20 DUP5 ADD PUSH1 0x20 DUP4 ADD CALLDATACOPY PUSH0 PUSH1 0x20 DUP4 DUP4 ADD ADD MSTORE DUP1 SWAP5 POP POP POP POP PUSH2 0x515 PUSH1 0x20 DUP5 ADD PUSH2 0x44A JUMP JUMPDEST SWAP1 POP SWAP3 POP SWAP3 SWAP1 POP JUMP JUMPDEST PUSH0 PUSH1 0x20 DUP3 DUP5 SUB SLT ISZERO PUSH2 0x52E JUMPI PUSH0 PUSH0 REVERT JUMPDEST DUP2 CALLDATALOAD PUSH2 0x539 DUP2 PUSH2 0x433 JUMP JUMPDEST SWAP4 SWAP3 POP POP POP JUMP JUMPDEST DUP1 CALLDATALOAD DUP1 ISZERO ISZERO DUP2 EQ PUSH2 0x455 JUMPI PUSH0 PUSH0 REVERT JUMPDEST PUSH0 PUSH0 PUSH0 PUSH0 PUSH1 0x80 DUP6 DUP8 SUB SLT ISZERO PUSH2 0x562 JUMPI PUSH0 PUSH0 REVERT JUMPDEST DUP5 CALLDATALOAD SWAP4 POP PUSH1 0x20 DUP6 ADD CALLDATALOAD PUSH2 0x574 DUP2 PUSH2 0x433 JUMP JUMPDEST SWAP3 POP PUSH2 0x582 PUSH1 0x40 DUP7 ADD PUSH2 0x540 JUMP JUMPDEST SWAP2 POP PUSH2 0x590 PUSH1 0x60 DUP7 ADD PUSH2 0x540 JUMP JUMPDEST SWAP1 POP SWAP3 SWAP6 SWAP2 SWAP5 POP SWAP3 POP JUMP JUMPDEST PUSH0 PUSH1 0x20 DUP3 DUP5 SUB SLT ISZERO PUSH2 0x5AB JUMPI PUSH0 PUSH0 REVERT JUMPDEST POP CALLDATALOAD SWAP2 SWAP1 POP JUMP JUMPDEST PUSH0 PUSH1 0x1 DUP3 ADD PUSH2 0x5CF JUMPI PUSH4 0x4E487B71 PUSH1 0xE0 SHL PUSH0 MSTORE PUSH1 0x11 PUSH1 0x4 MSTORE PUSH1 0x24 PUSH0 REVERT JUMPDEST POP PUSH1 0x1 ADD SWAP1 JUMP INVALID LOG2 PUSH5 0x6970667358 0x22 SLT KECCAK256 STATICCALL EXTCODESIZE MSIZE SLT BLOBBASEFEE 0xFB CALL SLT CREATE 0xC7 BLOBBASEFEE SSTORE 0xB4 PUSH31 0x9A005FD084566290659025DA745585EA967A64736F6C634300081C00330000 "
		},
		"gasEstimates": {
			"creation": {
				"codeDepositCost": "309600",
				"executionCost": "15362",
				"totalCost": "324962"
			},
			"external": {
				"isRequestAdditionPositive(uint256)": "2737",
				"isRequestRemovalPositive(uint256)": "2719",
				"isRequestUpgradePositive(uint256)": "2696",
				"requestAddition(string,address)": "infinite",
				"requestRemoval(string,address)": "infinite",
				"requestUpgradeDependencyRequester(address)": "26763",
				"setAdditionOutcome(uint256,address,bool,bool)": "infinite",
				"setRemovalOutcome(uint256,address,bool,bool)": "infinite",
				"setUpgradeOutcome(uint256,address,bool,bool)": "infinite"
			}
		},
		"methodIdentifiers": {
			"isRequestAdditionPositive(uint256)": "4f6e1b27",
			"isRequestRemovalPositive(uint256)": "b986f179",
			"isRequestUpgradePositive(uint256)": "2ad51b96",
			"requestAddition(string,address)": "1d59a3aa",
			"requestRemoval(string,address)": "07ec4043",
			"requestUpgradeDependencyRequester(address)": "16c1076f",
			"setAdditionOutcome(uint256,address,bool,bool)": "a990586a",
			"setRemovalOutcome(uint256,address,bool,bool)": "1aeb6c98",
			"setUpgradeOutcome(uint256,address,bool,bool)": "3f301ae5"
		}
	},
	"abi": [
		{
			"inputs": [
				{
					"internalType": "uint256",
					"name": "identifier",
					"type": "uint256"
				}
			],
			"name": "isRequestAdditionPositive",
			"outputs": [
				{
					"internalType": "address",
					"name": "",
					"type": "address"
				},
				{
					"internalType": "bool",
					"name": "",
					"type": "bool"
				},
				{
					"internalType": "bool",
					"name": "",
					"type": "bool"
				}
			],
			"stateMutability": "view",
			"type": "function"
		},
		{
			"inputs": [
				{
					"internalType": "uint256",
					"name": "identifier",
					"type": "uint256"
				}
			],
			"name": "isRequestRemovalPositive",
			"outputs": [
				{
					"internalType": "bool",
					"name": "",
					"type": "bool"
				},
				{
					"internalType": "bool",
					"name": "",
					"type": "bool"
				}
			],
			"stateMutability": "view",
			"type": "function"
		},
		{
			"inputs": [
				{
					"internalType": "uint256",
					"name": "identifier",
					"type": "uint256"
				}
			],
			"name": "isRequestUpgradePositive",
			"outputs": [
				{
					"internalType": "contract IDependencyRequester",
					"name": "",
					"type": "address"
				},
				{
					"internalType": "bool",
					"name": "",
					"type": "bool"
				},
				{
					"internalType": "bool",
					"name": "",
					"type": "bool"
				}
			],
			"stateMutability": "view",
			"type": "function"
		},
		{
			"inputs": [
				{
					"internalType": "string",
					"name": "",
					"type": "string"
				},
				{
					"internalType": "address",
					"name": "",
					"type": "address"
				}
			],
			"name": "requestAddition",
			"outputs": [
				{
					"internalType": "uint256",
					"name": "",
					"type": "uint256"
				}
			],
			"stateMutability": "nonpayable",
			"type": "function"
		},
		{
			"inputs": [
				{
					"internalType": "string",
					"name": "",
					"type": "string"
				},
				{
					"internalType": "address",
					"name": "",
					"type": "address"
				}
			],
			"name": "requestRemoval",
			"outputs": [
				{
					"internalType": "uint256",
					"name": "",
					"type": "uint256"
				}
			],
			"stateMutability": "nonpayable",
			"type": "function"
		},
		{
			"inputs": [
				{
					"internalType": "contract IDependencyRequester",
					"name": "",
					"type": "address"
				}
			],
			"name": "requestUpgradeDependencyRequester",
			"outputs": [
				{
					"internalType": "uint256",
					"name": "",
					"type": "uint256"
				}
			],
			"stateMutability": "nonpayable",
			"type": "function"
		},
		{
			"inputs": [
				{
					"internalType": "uint256",
					"name": "identifier",
					"type": "uint256"
				},
				{
					"internalType": "address",
					"name": "addr",
					"type": "address"
				},
				{
					"internalType": "bool",
					"name": "isVoteFinished",
					"type": "bool"
				},
				{
					"internalType": "bool",
					"name": "isApproved",
					"type": "bool"
				}
			],
			"name": "setAdditionOutcome",
			"outputs": [],
			"stateMutability": "nonpayable",
			"type": "function"
		},
		{
			"inputs": [
				{
					"internalType": "uint256",
					"name": "identifier",
					"type": "uint256"
				},
				{
					"internalType": "address",
					"name": "addr",
					"type": "address"
				},
				{
					"internalType": "bool",
					"name": "isVoteFinished",
					"type": "bool"
				},
				{
					"internalType": "bool",
					"name": "isApproved",
					"type": "bool"
				}
			],
			"name": "setRemovalOutcome",
			"outputs": [],
			"stateMutability": "nonpayable",
			"type": "function"
		},
		{
			"inputs": [
				{
					"internalType": "uint256",
					"name": "identifier",
					"type": "uint256"
				},
				{
					"internalType": "address",
					"name": "addr",
					"type": "address"
				},
				{
					"internalType": "bool",
					"name": "isVoteFinished",
					"type": "bool"
				},
				{
					"internalType": "bool",
					"name": "isApproved",
					"type": "bool"
				}
			],
			"name": "setUpgradeOutcome",
			"outputs": [],
			"stateMutability": "nonpayable",
			"type": "function"
		}
	]
}