{
  "_format": "hh-sol-artifact-1",
  "contractName": "LegitDAOCurrency",
  "sourceName": "contracts/erc-20/LegitDAOCurrency.sol",
  "abi": [
    {
      "inputs": [
        {
          "internalType": "uint256",
          "name": "_initialPricePerBNB",
          "type": "uint256"
        },
        {
          "internalType": "uint256",
          "name": "_priceIncrement",
          "type": "uint256"
        },
        {
          "internalType": "uint256",
          "name": "_buyTaxPercentage",
          "type": "uint256"
        },
        {
          "internalType": "uint256",
          "name": "_sellTaxPercentage",
          "type": "uint256"
        }
      ],
      "stateMutability": "nonpayable",
      "type": "constructor"
    },
    {
      "inputs": [],
      "name": "ECDSAInvalidSignature",
      "type": "error"
    },
    {
      "inputs": [
        {
          "internalType": "uint256",
          "name": "length",
          "type": "uint256"
        }
      ],
      "name": "ECDSAInvalidSignatureLength",
      "type": "error"
    },
    {
      "inputs": [
        {
          "internalType": "bytes32",
          "name": "s",
          "type": "bytes32"
        }
      ],
      "name": "ECDSAInvalidSignatureS",
      "type": "error"
    },
    {
      "inputs": [
        {
          "internalType": "address",
          "name": "spender",
          "type": "address"
        },
        {
          "internalType": "uint256",
          "name": "allowance",
          "type": "uint256"
        },
        {
          "internalType": "uint256",
          "name": "needed",
          "type": "uint256"
        }
      ],
      "name": "ERC20InsufficientAllowance",
      "type": "error"
    },
    {
      "inputs": [
        {
          "internalType": "address",
          "name": "sender",
          "type": "address"
        },
        {
          "internalType": "uint256",
          "name": "balance",
          "type": "uint256"
        },
        {
          "internalType": "uint256",
          "name": "needed",
          "type": "uint256"
        }
      ],
      "name": "ERC20InsufficientBalance",
      "type": "error"
    },
    {
      "inputs": [
        {
          "internalType": "address",
          "name": "approver",
          "type": "address"
        }
      ],
      "name": "ERC20InvalidApprover",
      "type": "error"
    },
    {
      "inputs": [
        {
          "internalType": "address",
          "name": "receiver",
          "type": "address"
        }
      ],
      "name": "ERC20InvalidReceiver",
      "type": "error"
    },
    {
      "inputs": [
        {
          "internalType": "address",
          "name": "sender",
          "type": "address"
        }
      ],
      "name": "ERC20InvalidSender",
      "type": "error"
    },
    {
      "inputs": [
        {
          "internalType": "address",
          "name": "spender",
          "type": "address"
        }
      ],
      "name": "ERC20InvalidSpender",
      "type": "error"
    },
    {
      "inputs": [
        {
          "internalType": "uint256",
          "name": "deadline",
          "type": "uint256"
        }
      ],
      "name": "ERC2612ExpiredSignature",
      "type": "error"
    },
    {
      "inputs": [
        {
          "internalType": "address",
          "name": "signer",
          "type": "address"
        },
        {
          "internalType": "address",
          "name": "owner",
          "type": "address"
        }
      ],
      "name": "ERC2612InvalidSigner",
      "type": "error"
    },
    {
      "inputs": [
        {
          "internalType": "address",
          "name": "account",
          "type": "address"
        },
        {
          "internalType": "uint256",
          "name": "currentNonce",
          "type": "uint256"
        }
      ],
      "name": "InvalidAccountNonce",
      "type": "error"
    },
    {
      "inputs": [],
      "name": "InvalidShortString",
      "type": "error"
    },
    {
      "inputs": [],
      "name": "ReentrancyGuardReentrantCall",
      "type": "error"
    },
    {
      "inputs": [
        {
          "internalType": "string",
          "name": "str",
          "type": "string"
        }
      ],
      "name": "StringTooLong",
      "type": "error"
    },
    {
      "anonymous": false,
      "inputs": [
        {
          "indexed": true,
          "internalType": "address",
          "name": "owner",
          "type": "address"
        },
        {
          "indexed": true,
          "internalType": "address",
          "name": "spender",
          "type": "address"
        },
        {
          "indexed": false,
          "internalType": "uint256",
          "name": "value",
          "type": "uint256"
        }
      ],
      "name": "Approval",
      "type": "event"
    },
    {
      "anonymous": false,
      "inputs": [],
      "name": "EIP712DomainChanged",
      "type": "event"
    },
    {
      "anonymous": false,
      "inputs": [
        {
          "indexed": true,
          "internalType": "address",
          "name": "from",
          "type": "address"
        },
        {
          "indexed": true,
          "internalType": "address",
          "name": "to",
          "type": "address"
        },
        {
          "indexed": false,
          "internalType": "uint256",
          "name": "value",
          "type": "uint256"
        }
      ],
      "name": "Transfer",
      "type": "event"
    },
    {
      "inputs": [],
      "name": "DOMAIN_SEPARATOR",
      "outputs": [
        {
          "internalType": "bytes32",
          "name": "",
          "type": "bytes32"
        }
      ],
      "stateMutability": "view",
      "type": "function"
    },
    {
      "inputs": [
        {
          "internalType": "address",
          "name": "owner",
          "type": "address"
        },
        {
          "internalType": "address",
          "name": "spender",
          "type": "address"
        }
      ],
      "name": "allowance",
      "outputs": [
        {
          "internalType": "uint256",
          "name": "",
          "type": "uint256"
        }
      ],
      "stateMutability": "view",
      "type": "function"
    },
    {
      "inputs": [
        {
          "internalType": "address",
          "name": "spender",
          "type": "address"
        },
        {
          "internalType": "uint256",
          "name": "value",
          "type": "uint256"
        }
      ],
      "name": "approve",
      "outputs": [
        {
          "internalType": "bool",
          "name": "",
          "type": "bool"
        }
      ],
      "stateMutability": "nonpayable",
      "type": "function"
    },
    {
      "inputs": [
        {
          "internalType": "address",
          "name": "account",
          "type": "address"
        }
      ],
      "name": "balanceOf",
      "outputs": [
        {
          "internalType": "uint256",
          "name": "",
          "type": "uint256"
        }
      ],
      "stateMutability": "view",
      "type": "function"
    },
    {
      "inputs": [
        {
          "internalType": "uint256",
          "name": "value",
          "type": "uint256"
        }
      ],
      "name": "burn",
      "outputs": [],
      "stateMutability": "nonpayable",
      "type": "function"
    },
    {
      "inputs": [
        {
          "internalType": "address",
          "name": "account",
          "type": "address"
        },
        {
          "internalType": "uint256",
          "name": "value",
          "type": "uint256"
        }
      ],
      "name": "burnFrom",
      "outputs": [],
      "stateMutability": "nonpayable",
      "type": "function"
    },
    {
      "inputs": [],
      "name": "buyTaxPercentage",
      "outputs": [
        {
          "internalType": "uint256",
          "name": "",
          "type": "uint256"
        }
      ],
      "stateMutability": "view",
      "type": "function"
    },
    {
      "inputs": [],
      "name": "decimals",
      "outputs": [
        {
          "internalType": "uint8",
          "name": "",
          "type": "uint8"
        }
      ],
      "stateMutability": "view",
      "type": "function"
    },
    {
      "inputs": [],
      "name": "eip712Domain",
      "outputs": [
        {
          "internalType": "bytes1",
          "name": "fields",
          "type": "bytes1"
        },
        {
          "internalType": "string",
          "name": "name",
          "type": "string"
        },
        {
          "internalType": "string",
          "name": "version",
          "type": "string"
        },
        {
          "internalType": "uint256",
          "name": "chainId",
          "type": "uint256"
        },
        {
          "internalType": "address",
          "name": "verifyingContract",
          "type": "address"
        },
        {
          "internalType": "bytes32",
          "name": "salt",
          "type": "bytes32"
        },
        {
          "internalType": "uint256[]",
          "name": "extensions",
          "type": "uint256[]"
        }
      ],
      "stateMutability": "view",
      "type": "function"
    },
    {
      "inputs": [],
      "name": "initialPricePerBNB",
      "outputs": [
        {
          "internalType": "uint256",
          "name": "",
          "type": "uint256"
        }
      ],
      "stateMutability": "view",
      "type": "function"
    },
    {
      "inputs": [],
      "name": "name",
      "outputs": [
        {
          "internalType": "string",
          "name": "",
          "type": "string"
        }
      ],
      "stateMutability": "view",
      "type": "function"
    },
    {
      "inputs": [
        {
          "internalType": "address",
          "name": "owner",
          "type": "address"
        }
      ],
      "name": "nonces",
      "outputs": [
        {
          "internalType": "uint256",
          "name": "",
          "type": "uint256"
        }
      ],
      "stateMutability": "view",
      "type": "function"
    },
    {
      "inputs": [
        {
          "internalType": "address",
          "name": "owner",
          "type": "address"
        },
        {
          "internalType": "address",
          "name": "spender",
          "type": "address"
        },
        {
          "internalType": "uint256",
          "name": "value",
          "type": "uint256"
        },
        {
          "internalType": "uint256",
          "name": "deadline",
          "type": "uint256"
        },
        {
          "internalType": "uint8",
          "name": "v",
          "type": "uint8"
        },
        {
          "internalType": "bytes32",
          "name": "r",
          "type": "bytes32"
        },
        {
          "internalType": "bytes32",
          "name": "s",
          "type": "bytes32"
        }
      ],
      "name": "permit",
      "outputs": [],
      "stateMutability": "nonpayable",
      "type": "function"
    },
    {
      "inputs": [],
      "name": "priceIncrement",
      "outputs": [
        {
          "internalType": "uint256",
          "name": "",
          "type": "uint256"
        }
      ],
      "stateMutability": "view",
      "type": "function"
    },
    {
      "inputs": [],
      "name": "sellTaxPercentage",
      "outputs": [
        {
          "internalType": "uint256",
          "name": "",
          "type": "uint256"
        }
      ],
      "stateMutability": "view",
      "type": "function"
    },
    {
      "inputs": [],
      "name": "symbol",
      "outputs": [
        {
          "internalType": "string",
          "name": "",
          "type": "string"
        }
      ],
      "stateMutability": "view",
      "type": "function"
    },
    {
      "inputs": [],
      "name": "totalBNBReceived",
      "outputs": [
        {
          "internalType": "uint256",
          "name": "",
          "type": "uint256"
        }
      ],
      "stateMutability": "view",
      "type": "function"
    },
    {
      "inputs": [],
      "name": "totalSupply",
      "outputs": [
        {
          "internalType": "uint256",
          "name": "",
          "type": "uint256"
        }
      ],
      "stateMutability": "view",
      "type": "function"
    },
    {
      "inputs": [
        {
          "internalType": "address",
          "name": "to",
          "type": "address"
        },
        {
          "internalType": "uint256",
          "name": "value",
          "type": "uint256"
        }
      ],
      "name": "transfer",
      "outputs": [
        {
          "internalType": "bool",
          "name": "",
          "type": "bool"
        }
      ],
      "stateMutability": "nonpayable",
      "type": "function"
    },
    {
      "inputs": [
        {
          "internalType": "address",
          "name": "from",
          "type": "address"
        },
        {
          "internalType": "address",
          "name": "to",
          "type": "address"
        },
        {
          "internalType": "uint256",
          "name": "value",
          "type": "uint256"
        }
      ],
      "name": "transferFrom",
      "outputs": [
        {
          "internalType": "bool",
          "name": "",
          "type": "bool"
        }
      ],
      "stateMutability": "nonpayable",
      "type": "function"
    },
    {
      "stateMutability": "payable",
      "type": "receive"
    }
  ],
  "bytecode": "0x6101606040527fffffffffffffffffffffffffffffffffffffffffffffffffffffffffffffffff600e5534801561003557600080fd5b50604051612ec3380380612ec3833981810160405281019061005791906106ae565b6040518060400160405280601181526020017f4c6567697444414f2043757272656e6379000000000000000000000000000000815250806040518060400160405280600181526020017f31000000000000000000000000000000000000000000000000000000000000008152506040518060400160405280601181526020017f4c6567697444414f2043757272656e63790000000000000000000000000000008152506040518060400160405280600981526020017f4c454749542d4355520000000000000000000000000000000000000000000000815250816003908161013f919061095b565b50806004908161014f919061095b565b5050506101666005836102a060201b90919060201c565b61012081815250506101826006826102a060201b90919060201c565b6101408181525050818051906020012060e08181525050808051906020012061010081815250504660a081815250506101bf6102f060201b60201c565b608081815250503073ffffffffffffffffffffffffffffffffffffffff1660c08173ffffffffffffffffffffffffffffffffffffffff1681525050505050600160088190555061023c3361021761034b60201b60201c565b600a6102239190610b9c565b629896806102319190610be7565b61035460201b60201c565b6102733061024e61034b60201b60201c565b600a61025a9190610b9c565b628954406102689190610be7565b61035460201b60201c565b83600a8190555082600b81905550600060098190555081600c8190555080600d8190555050505050610ec4565b60006020835110156102c2576102bb836103dc60201b60201c565b90506102ea565b826102d28361044460201b60201c565b60000190816102e1919061095b565b5060ff60001b90505b92915050565b60007f8b73c3c69bb8fe3d512ecc4cf759cc79239f7b179b0ffacaa9a75d522b39400f60e051610100514630604051602001610330959493929190610c92565b60405160208183030381529060405280519060200120905090565b60006012905090565b600073ffffffffffffffffffffffffffffffffffffffff168273ffffffffffffffffffffffffffffffffffffffff16036103c65760006040517fec442f050000000000000000000000000000000000000000000000000000000081526004016103bd9190610ce5565b60405180910390fd5b6103d86000838361044e60201b60201c565b5050565b600080829050601f8151111561042957826040517f305a27a90000000000000000000000000000000000000000000000000000000081526004016104209190610d85565b60405180910390fd5b80518161043590610dd7565b60001c1760001b915050919050565b6000819050919050565b600073ffffffffffffffffffffffffffffffffffffffff168373ffffffffffffffffffffffffffffffffffffffff16036104a05780600260008282546104949190610e3e565b92505081905550610573565b60008060008573ffffffffffffffffffffffffffffffffffffffff1673ffffffffffffffffffffffffffffffffffffffff1681526020019081526020016000205490508181101561052c578381836040517fe450d38c00000000000000000000000000000000000000000000000000000000815260040161052393929190610e72565b60405180910390fd5b8181036000808673ffffffffffffffffffffffffffffffffffffffff1673ffffffffffffffffffffffffffffffffffffffff16815260200190815260200160002081905550505b600073ffffffffffffffffffffffffffffffffffffffff168273ffffffffffffffffffffffffffffffffffffffff16036105bc5780600260008282540392505081905550610609565b806000808473ffffffffffffffffffffffffffffffffffffffff1673ffffffffffffffffffffffffffffffffffffffff168152602001908152602001600020600082825401925050819055505b8173ffffffffffffffffffffffffffffffffffffffff168373ffffffffffffffffffffffffffffffffffffffff167fddf252ad1be2c89b69c2b068fc378daa952ba7f163c4a11628f55a4df523b3ef836040516106669190610ea9565b60405180910390a3505050565b600080fd5b6000819050919050565b61068b81610678565b811461069657600080fd5b50565b6000815190506106a881610682565b92915050565b600080600080608085870312156106c8576106c7610673565b5b60006106d687828801610699565b94505060206106e787828801610699565b93505060406106f887828801610699565b925050606061070987828801610699565b91505092959194509250565b600081519050919050565b7f4e487b7100000000000000000000000000000000000000000000000000000000600052604160045260246000fd5b7f4e487b7100000000000000000000000000000000000000000000000000000000600052602260045260246000fd5b6000600282049050600182168061079657607f821691505b6020821081036107a9576107a861074f565b5b50919050565b60008190508160005260206000209050919050565b60006020601f8301049050919050565b600082821b905092915050565b6000600883026108117fffffffffffffffffffffffffffffffffffffffffffffffffffffffffffffffff826107d4565b61081b86836107d4565b95508019841693508086168417925050509392505050565b6000819050919050565b600061085861085361084e84610678565b610833565b610678565b9050919050565b6000819050919050565b6108728361083d565b61088661087e8261085f565b8484546107e1565b825550505050565b600090565b61089b61088e565b6108a6818484610869565b505050565b5b818110156108ca576108bf600082610893565b6001810190506108ac565b5050565b601f82111561090f576108e0816107af565b6108e9846107c4565b810160208510156108f8578190505b61090c610904856107c4565b8301826108ab565b50505b505050565b600082821c905092915050565b600061093260001984600802610914565b1980831691505092915050565b600061094b8383610921565b9150826002028217905092915050565b61096482610715565b67ffffffffffffffff81111561097d5761097c610720565b5b610987825461077e565b6109928282856108ce565b600060209050601f8311600181146109c557600084156109b3578287015190505b6109bd858261093f565b865550610a25565b601f1984166109d3866107af565b60005b828110156109fb578489015182556001820191506020850194506020810190506109d6565b86831015610a185784890151610a14601f891682610921565b8355505b6001600288020188555050505b505050505050565b7f4e487b7100000000000000000000000000000000000000000000000000000000600052601160045260246000fd5b60008160011c9050919050565b6000808291508390505b6001851115610ab357808604811115610a8f57610a8e610a2d565b5b6001851615610a9e5780820291505b8081029050610aac85610a5c565b9450610a73565b94509492505050565b600082610acc5760019050610b88565b81610ada5760009050610b88565b8160018114610af05760028114610afa57610b29565b6001915050610b88565b60ff841115610b0c57610b0b610a2d565b5b8360020a915084821115610b2357610b22610a2d565b5b50610b88565b5060208310610133831016604e8410600b8410161715610b5e5782820a905083811115610b5957610b58610a2d565b5b610b88565b610b6b8484846001610a69565b92509050818404811115610b8257610b81610a2d565b5b81810290505b9392505050565b600060ff82169050919050565b6000610ba782610678565b9150610bb283610b8f565b9250610bdf7fffffffffffffffffffffffffffffffffffffffffffffffffffffffffffffffff8484610abc565b905092915050565b6000610bf282610678565b9150610bfd83610678565b9250828202610c0b81610678565b91508282048414831517610c2257610c21610a2d565b5b5092915050565b6000819050919050565b610c3c81610c29565b82525050565b610c4b81610678565b82525050565b600073ffffffffffffffffffffffffffffffffffffffff82169050919050565b6000610c7c82610c51565b9050919050565b610c8c81610c71565b82525050565b600060a082019050610ca76000830188610c33565b610cb46020830187610c33565b610cc16040830186610c33565b610cce6060830185610c42565b610cdb6080830184610c83565b9695505050505050565b6000602082019050610cfa6000830184610c83565b92915050565b600082825260208201905092915050565b60005b83811015610d2f578082015181840152602081019050610d14565b60008484015250505050565b6000601f19601f8301169050919050565b6000610d5782610715565b610d618185610d00565b9350610d71818560208601610d11565b610d7a81610d3b565b840191505092915050565b60006020820190508181036000830152610d9f8184610d4c565b905092915050565b600081519050919050565b6000819050602082019050919050565b6000610dce8251610c29565b80915050919050565b6000610de282610da7565b82610dec84610db2565b9050610df781610dc2565b92506020821015610e3757610e327fffffffffffffffffffffffffffffffffffffffffffffffffffffffffffffffff836020036008026107d4565b831692505b5050919050565b6000610e4982610678565b9150610e5483610678565b9250828201905080821115610e6c57610e6b610a2d565b5b92915050565b6000606082019050610e876000830186610c83565b610e946020830185610c42565b610ea16040830184610c42565b949350505050565b6000602082019050610ebe6000830184610c42565b92915050565b60805160a05160c05160e051610100516101205161014051611fa5610f1e6000396000610d9f01526000610d64015260006112b40152600061129301526000610bdd01526000610c3301526000610c5c0152611fa56000f3fe6080604052600436106101235760003560e01c806370a08231116100a057806395d89b411161006457806395d89b411461040e5780639e7d8d1d14610439578063a9059cbb14610464578063d505accf146104a1578063dd62ed3e146104ca5761013a565b806370a082311461030f578063760bf1861461034c57806379cc6790146103775780637ecebe00146103a057806384b0196e146103dd5761013a565b8063280d62ac116100e7578063280d62ac1461023a578063287294c814610265578063313ce567146102905780633644e515146102bb57806342966c68146102e65761013a565b806306fdde031461013f578063095ea7b31461016a5780630e3f7c00146101a757806318160ddd146101d257806323b872dd146101fd5761013a565b3661013a57610130610507565b61013861054d565b005b600080fd5b34801561014b57600080fd5b50610154610557565b60405161016191906117a1565b60405180910390f35b34801561017657600080fd5b50610191600480360381019061018c919061185c565b6105e9565b60405161019e91906118b7565b60405180910390f35b3480156101b357600080fd5b506101bc61060c565b6040516101c991906118e1565b60405180910390f35b3480156101de57600080fd5b506101e7610612565b6040516101f491906118e1565b60405180910390f35b34801561020957600080fd5b50610224600480360381019061021f91906118fc565b61061c565b60405161023191906118b7565b60405180910390f35b34801561024657600080fd5b5061024f61064b565b60405161025c91906118e1565b60405180910390f35b34801561027157600080fd5b5061027a610651565b60405161028791906118e1565b60405180910390f35b34801561029c57600080fd5b506102a5610657565b6040516102b2919061196b565b60405180910390f35b3480156102c757600080fd5b506102d0610660565b6040516102dd919061199f565b60405180910390f35b3480156102f257600080fd5b5061030d600480360381019061030891906119ba565b61066f565b005b34801561031b57600080fd5b50610336600480360381019061033191906119e7565b610683565b60405161034391906118e1565b60405180910390f35b34801561035857600080fd5b506103616106cb565b60405161036e91906118e1565b60405180910390f35b34801561038357600080fd5b5061039e6004803603810190610399919061185c565b6106d1565b005b3480156103ac57600080fd5b506103c760048036038101906103c291906119e7565b6106f1565b6040516103d491906118e1565b60405180910390f35b3480156103e957600080fd5b506103f2610703565b6040516104059796959493929190611b1c565b60405180910390f35b34801561041a57600080fd5b506104236107ad565b60405161043091906117a1565b60405180910390f35b34801561044557600080fd5b5061044e61083f565b60405161045b91906118e1565b60405180910390f35b34801561047057600080fd5b5061048b6004803603810190610486919061185c565b610845565b60405161049891906118b7565b60405180910390f35b3480156104ad57600080fd5b506104c860048036038101906104c39190611bf8565b610868565b005b3480156104d657600080fd5b506104f160048036038101906104ec9190611c9a565b6109b0565b6040516104fe91906118e1565b60405180910390f35b600260085403610543576040517f3ee5aeb500000000000000000000000000000000000000000000000000000000815260040160405180910390fd5b6002600881905550565b6001600881905550565b60606003805461056690611d09565b80601f016020809104026020016040519081016040528092919081815260200182805461059290611d09565b80156105df5780601f106105b4576101008083540402835291602001916105df565b820191906000526020600020905b8154815290600101906020018083116105c257829003601f168201915b5050505050905090565b6000806105f4610a37565b9050610601818585610a3f565b600191505092915050565b600a5481565b6000600254905090565b600080610627610a37565b9050610634858285610a51565b61063f858585610ae5565b60019150509392505050565b600b5481565b60095481565b60006012905090565b600061066a610bd9565b905090565b61068061067a610a37565b82610c90565b50565b60008060008373ffffffffffffffffffffffffffffffffffffffff1673ffffffffffffffffffffffffffffffffffffffff168152602001908152602001600020549050919050565b600c5481565b6106e3826106dd610a37565b83610a51565b6106ed8282610c90565b5050565b60006106fc82610d12565b9050919050565b600060608060008060006060610717610d5b565b61071f610d96565b46306000801b600067ffffffffffffffff8111156107405761073f611d3a565b5b60405190808252806020026020018201604052801561076e5781602001602082028036833780820191505090505b507f0f00000000000000000000000000000000000000000000000000000000000000959493929190965096509650965096509650965090919293949596565b6060600480546107bc90611d09565b80601f01602080910402602001604051908101604052809291908181526020018280546107e890611d09565b80156108355780601f1061080a57610100808354040283529160200191610835565b820191906000526020600020905b81548152906001019060200180831161081857829003601f168201915b5050505050905090565b600d5481565b600080610850610a37565b905061085d818585610ae5565b600191505092915050565b834211156108ad57836040517f627913020000000000000000000000000000000000000000000000000000000081526004016108a491906118e1565b60405180910390fd5b60007f6e71edae12b1b97f4d1f60370fef10105fa2faae0126114a169c64845d6126c98888886108dc8c610dd1565b896040516020016108f296959493929190611d69565b604051602081830303815290604052805190602001209050600061091582610e28565b9050600061092582878787610e42565b90508973ffffffffffffffffffffffffffffffffffffffff168173ffffffffffffffffffffffffffffffffffffffff161461099957808a6040517f4b800e46000000000000000000000000000000000000000000000000000000008152600401610990929190611dca565b60405180910390fd5b6109a48a8a8a610a3f565b50505050505050505050565b6000600160008473ffffffffffffffffffffffffffffffffffffffff1673ffffffffffffffffffffffffffffffffffffffff16815260200190815260200160002060008373ffffffffffffffffffffffffffffffffffffffff1673ffffffffffffffffffffffffffffffffffffffff16815260200190815260200160002054905092915050565b600033905090565b610a4c8383836001610e72565b505050565b6000610a5d84846109b0565b90507fffffffffffffffffffffffffffffffffffffffffffffffffffffffffffffffff8114610adf5781811015610acf578281836040517ffb8f41b2000000000000000000000000000000000000000000000000000000008152600401610ac693929190611df3565b60405180910390fd5b610ade84848484036000610e72565b5b50505050565b600073ffffffffffffffffffffffffffffffffffffffff168373ffffffffffffffffffffffffffffffffffffffff1603610b575760006040517f96c6fd1e000000000000000000000000000000000000000000000000000000008152600401610b4e9190611e2a565b60405180910390fd5b600073ffffffffffffffffffffffffffffffffffffffff168273ffffffffffffffffffffffffffffffffffffffff1603610bc95760006040517fec442f05000000000000000000000000000000000000000000000000000000008152600401610bc09190611e2a565b60405180910390fd5b610bd4838383611049565b505050565b60007f000000000000000000000000000000000000000000000000000000000000000073ffffffffffffffffffffffffffffffffffffffff163073ffffffffffffffffffffffffffffffffffffffff16148015610c5557507f000000000000000000000000000000000000000000000000000000000000000046145b15610c82577f00000000000000000000000000000000000000000000000000000000000000009050610c8d565b610c8a61126e565b90505b90565b600073ffffffffffffffffffffffffffffffffffffffff168273ffffffffffffffffffffffffffffffffffffffff1603610d025760006040517f96c6fd1e000000000000000000000000000000000000000000000000000000008152600401610cf99190611e2a565b60405180910390fd5b610d0e82600083611049565b5050565b6000600760008373ffffffffffffffffffffffffffffffffffffffff1673ffffffffffffffffffffffffffffffffffffffff168152602001908152602001600020549050919050565b6060610d9160057f000000000000000000000000000000000000000000000000000000000000000061130490919063ffffffff16565b905090565b6060610dcc60067f000000000000000000000000000000000000000000000000000000000000000061130490919063ffffffff16565b905090565b6000600760008373ffffffffffffffffffffffffffffffffffffffff1673ffffffffffffffffffffffffffffffffffffffff1681526020019081526020016000206000815480929190600101919050559050919050565b6000610e3b610e35610bd9565b836113b4565b9050919050565b600080600080610e54888888886113f5565b925092509250610e6482826114e9565b829350505050949350505050565b600073ffffffffffffffffffffffffffffffffffffffff168473ffffffffffffffffffffffffffffffffffffffff1603610ee45760006040517fe602df05000000000000000000000000000000000000000000000000000000008152600401610edb9190611e2a565b60405180910390fd5b600073ffffffffffffffffffffffffffffffffffffffff168373ffffffffffffffffffffffffffffffffffffffff1603610f565760006040517f94280d62000000000000000000000000000000000000000000000000000000008152600401610f4d9190611e2a565b60405180910390fd5b81600160008673ffffffffffffffffffffffffffffffffffffffff1673ffffffffffffffffffffffffffffffffffffffff16815260200190815260200160002060008573ffffffffffffffffffffffffffffffffffffffff1673ffffffffffffffffffffffffffffffffffffffff168152602001908152602001600020819055508015611043578273ffffffffffffffffffffffffffffffffffffffff168473ffffffffffffffffffffffffffffffffffffffff167f8c5be1e5ebec7d5bd14f71427d1e84f3dd0314c0f7b2291e5b200ac8c7c3b9258460405161103a91906118e1565b60405180910390a35b50505050565b600073ffffffffffffffffffffffffffffffffffffffff168373ffffffffffffffffffffffffffffffffffffffff160361109b57806002600082825461108f9190611e74565b9250508190555061116e565b60008060008573ffffffffffffffffffffffffffffffffffffffff1673ffffffffffffffffffffffffffffffffffffffff16815260200190815260200160002054905081811015611127578381836040517fe450d38c00000000000000000000000000000000000000000000000000000000815260040161111e93929190611df3565b60405180910390fd5b8181036000808673ffffffffffffffffffffffffffffffffffffffff1673ffffffffffffffffffffffffffffffffffffffff16815260200190815260200160002081905550505b600073ffffffffffffffffffffffffffffffffffffffff168273ffffffffffffffffffffffffffffffffffffffff16036111b75780600260008282540392505081905550611204565b806000808473ffffffffffffffffffffffffffffffffffffffff1673ffffffffffffffffffffffffffffffffffffffff168152602001908152602001600020600082825401925050819055505b8173ffffffffffffffffffffffffffffffffffffffff168373ffffffffffffffffffffffffffffffffffffffff167fddf252ad1be2c89b69c2b068fc378daa952ba7f163c4a11628f55a4df523b3ef8360405161126191906118e1565b60405180910390a3505050565b60007f8b73c3c69bb8fe3d512ecc4cf759cc79239f7b179b0ffacaa9a75d522b39400f7f00000000000000000000000000000000000000000000000000000000000000007f000000000000000000000000000000000000000000000000000000000000000046306040516020016112e9959493929190611ea8565b60405160208183030381529060405280519060200120905090565b606060ff60001b83146113215761131a8361164d565b90506113ae565b81805461132d90611d09565b80601f016020809104026020016040519081016040528092919081815260200182805461135990611d09565b80156113a65780601f1061137b576101008083540402835291602001916113a6565b820191906000526020600020905b81548152906001019060200180831161138957829003601f168201915b505050505090505b92915050565b60006040517f190100000000000000000000000000000000000000000000000000000000000081528360028201528260228201526042812091505092915050565b60008060007f7fffffffffffffffffffffffffffffff5d576e7357a4501ddfe92f46681b20a08460001c11156114355760006003859250925092506114df565b60006001888888886040516000815260200160405260405161145a9493929190611efb565b6020604051602081039080840390855afa15801561147c573d6000803e3d6000fd5b505050602060405103519050600073ffffffffffffffffffffffffffffffffffffffff168173ffffffffffffffffffffffffffffffffffffffff16036114d057600060016000801b935093509350506114df565b8060008060001b935093509350505b9450945094915050565b600060038111156114fd576114fc611f40565b5b8260038111156115105761150f611f40565b5b0315611649576001600381111561152a57611529611f40565b5b82600381111561153d5761153c611f40565b5b03611574576040517ff645eedf00000000000000000000000000000000000000000000000000000000815260040160405180910390fd5b6002600381111561158857611587611f40565b5b82600381111561159b5761159a611f40565b5b036115e0578060001c6040517ffce698f70000000000000000000000000000000000000000000000000000000081526004016115d791906118e1565b60405180910390fd5b6003808111156115f3576115f2611f40565b5b82600381111561160657611605611f40565b5b0361164857806040517fd78bce0c00000000000000000000000000000000000000000000000000000000815260040161163f919061199f565b60405180910390fd5b5b5050565b6060600061165a836116c1565b90506000602067ffffffffffffffff81111561167957611678611d3a565b5b6040519080825280601f01601f1916602001820160405280156116ab5781602001600182028036833780820191505090505b5090508181528360208201528092505050919050565b60008060ff8360001c169050601f811115611708576040517fb3512b0c00000000000000000000000000000000000000000000000000000000815260040160405180910390fd5b80915050919050565b600081519050919050565b600082825260208201905092915050565b60005b8381101561174b578082015181840152602081019050611730565b60008484015250505050565b6000601f19601f8301169050919050565b600061177382611711565b61177d818561171c565b935061178d81856020860161172d565b61179681611757565b840191505092915050565b600060208201905081810360008301526117bb8184611768565b905092915050565b600080fd5b600073ffffffffffffffffffffffffffffffffffffffff82169050919050565b60006117f3826117c8565b9050919050565b611803816117e8565b811461180e57600080fd5b50565b600081359050611820816117fa565b92915050565b6000819050919050565b61183981611826565b811461184457600080fd5b50565b60008135905061185681611830565b92915050565b60008060408385031215611873576118726117c3565b5b600061188185828601611811565b925050602061189285828601611847565b9150509250929050565b60008115159050919050565b6118b18161189c565b82525050565b60006020820190506118cc60008301846118a8565b92915050565b6118db81611826565b82525050565b60006020820190506118f660008301846118d2565b92915050565b600080600060608486031215611915576119146117c3565b5b600061192386828701611811565b935050602061193486828701611811565b925050604061194586828701611847565b9150509250925092565b600060ff82169050919050565b6119658161194f565b82525050565b6000602082019050611980600083018461195c565b92915050565b6000819050919050565b61199981611986565b82525050565b60006020820190506119b46000830184611990565b92915050565b6000602082840312156119d0576119cf6117c3565b5b60006119de84828501611847565b91505092915050565b6000602082840312156119fd576119fc6117c3565b5b6000611a0b84828501611811565b91505092915050565b60007fff0000000000000000000000000000000000000000000000000000000000000082169050919050565b611a4981611a14565b82525050565b611a58816117e8565b82525050565b600081519050919050565b600082825260208201905092915050565b6000819050602082019050919050565b611a9381611826565b82525050565b6000611aa58383611a8a565b60208301905092915050565b6000602082019050919050565b6000611ac982611a5e565b611ad38185611a69565b9350611ade83611a7a565b8060005b83811015611b0f578151611af68882611a99565b9750611b0183611ab1565b925050600181019050611ae2565b5085935050505092915050565b600060e082019050611b31600083018a611a40565b8181036020830152611b438189611768565b90508181036040830152611b578188611768565b9050611b6660608301876118d2565b611b736080830186611a4f565b611b8060a0830185611990565b81810360c0830152611b928184611abe565b905098975050505050505050565b611ba98161194f565b8114611bb457600080fd5b50565b600081359050611bc681611ba0565b92915050565b611bd581611986565b8114611be057600080fd5b50565b600081359050611bf281611bcc565b92915050565b600080600080600080600060e0888a031215611c1757611c166117c3565b5b6000611c258a828b01611811565b9750506020611c368a828b01611811565b9650506040611c478a828b01611847565b9550506060611c588a828b01611847565b9450506080611c698a828b01611bb7565b93505060a0611c7a8a828b01611be3565b92505060c0611c8b8a828b01611be3565b91505092959891949750929550565b60008060408385031215611cb157611cb06117c3565b5b6000611cbf85828601611811565b9250506020611cd085828601611811565b9150509250929050565b7f4e487b7100000000000000000000000000000000000000000000000000000000600052602260045260246000fd5b60006002820490506001821680611d2157607f821691505b602082108103611d3457611d33611cda565b5b50919050565b7f4e487b7100000000000000000000000000000000000000000000000000000000600052604160045260246000fd5b600060c082019050611d7e6000830189611990565b611d8b6020830188611a4f565b611d986040830187611a4f565b611da560608301866118d2565b611db260808301856118d2565b611dbf60a08301846118d2565b979650505050505050565b6000604082019050611ddf6000830185611a4f565b611dec6020830184611a4f565b9392505050565b6000606082019050611e086000830186611a4f565b611e1560208301856118d2565b611e2260408301846118d2565b949350505050565b6000602082019050611e3f6000830184611a4f565b92915050565b7f4e487b7100000000000000000000000000000000000000000000000000000000600052601160045260246000fd5b6000611e7f82611826565b9150611e8a83611826565b9250828201905080821115611ea257611ea1611e45565b5b92915050565b600060a082019050611ebd6000830188611990565b611eca6020830187611990565b611ed76040830186611990565b611ee460608301856118d2565b611ef16080830184611a4f565b9695505050505050565b6000608082019050611f106000830187611990565b611f1d602083018661195c565b611f2a6040830185611990565b611f376060830184611990565b95945050505050565b7f4e487b7100000000000000000000000000000000000000000000000000000000600052602160045260246000fdfea2646970667358221220ee3060290d5cc8a52a37d893926b53b32dbfdee7a5794d50c9d2475941a6347564736f6c634300081a0033",
  "linkReferences": {},
  "deployedLinkReferences": {}
}