{
  "_format": "hh-sol-artifact-1",
  "contractName": "TimelockControllerUpgradeable",
  "sourceName": "contracts/.deps/npm/@openzeppelin/contracts-upgradeable/governance/TimelockControllerUpgradeable.sol",
  "abi": [
    {
      "inputs": [],
      "name": "AccessControlBadConfirmation",
      "type": "error"
    },
    {
      "inputs": [
        {
          "internalType": "address",
          "name": "account",
          "type": "address"
        },
        {
          "internalType": "bytes32",
          "name": "neededRole",
          "type": "bytes32"
        }
      ],
      "name": "AccessControlUnauthorizedAccount",
      "type": "error"
    },
    {
      "inputs": [],
      "name": "FailedCall",
      "type": "error"
    },
    {
      "inputs": [],
      "name": "InvalidInitialization",
      "type": "error"
    },
    {
      "inputs": [],
      "name": "NotInitializing",
      "type": "error"
    },
    {
      "inputs": [
        {
          "internalType": "uint256",
          "name": "delay",
          "type": "uint256"
        },
        {
          "internalType": "uint256",
          "name": "minDelay",
          "type": "uint256"
        }
      ],
      "name": "TimelockInsufficientDelay",
      "type": "error"
    },
    {
      "inputs": [
        {
          "internalType": "uint256",
          "name": "targets",
          "type": "uint256"
        },
        {
          "internalType": "uint256",
          "name": "payloads",
          "type": "uint256"
        },
        {
          "internalType": "uint256",
          "name": "values",
          "type": "uint256"
        }
      ],
      "name": "TimelockInvalidOperationLength",
      "type": "error"
    },
    {
      "inputs": [
        {
          "internalType": "address",
          "name": "caller",
          "type": "address"
        }
      ],
      "name": "TimelockUnauthorizedCaller",
      "type": "error"
    },
    {
      "inputs": [
        {
          "internalType": "bytes32",
          "name": "predecessorId",
          "type": "bytes32"
        }
      ],
      "name": "TimelockUnexecutedPredecessor",
      "type": "error"
    },
    {
      "inputs": [
        {
          "internalType": "bytes32",
          "name": "operationId",
          "type": "bytes32"
        },
        {
          "internalType": "bytes32",
          "name": "expectedStates",
          "type": "bytes32"
        }
      ],
      "name": "TimelockUnexpectedOperationState",
      "type": "error"
    },
    {
      "anonymous": false,
      "inputs": [
        {
          "indexed": true,
          "internalType": "bytes32",
          "name": "id",
          "type": "bytes32"
        },
        {
          "indexed": true,
          "internalType": "uint256",
          "name": "index",
          "type": "uint256"
        },
        {
          "indexed": false,
          "internalType": "address",
          "name": "target",
          "type": "address"
        },
        {
          "indexed": false,
          "internalType": "uint256",
          "name": "value",
          "type": "uint256"
        },
        {
          "indexed": false,
          "internalType": "bytes",
          "name": "data",
          "type": "bytes"
        }
      ],
      "name": "CallExecuted",
      "type": "event"
    },
    {
      "anonymous": false,
      "inputs": [
        {
          "indexed": true,
          "internalType": "bytes32",
          "name": "id",
          "type": "bytes32"
        },
        {
          "indexed": false,
          "internalType": "bytes32",
          "name": "salt",
          "type": "bytes32"
        }
      ],
      "name": "CallSalt",
      "type": "event"
    },
    {
      "anonymous": false,
      "inputs": [
        {
          "indexed": true,
          "internalType": "bytes32",
          "name": "id",
          "type": "bytes32"
        },
        {
          "indexed": true,
          "internalType": "uint256",
          "name": "index",
          "type": "uint256"
        },
        {
          "indexed": false,
          "internalType": "address",
          "name": "target",
          "type": "address"
        },
        {
          "indexed": false,
          "internalType": "uint256",
          "name": "value",
          "type": "uint256"
        },
        {
          "indexed": false,
          "internalType": "bytes",
          "name": "data",
          "type": "bytes"
        },
        {
          "indexed": false,
          "internalType": "bytes32",
          "name": "predecessor",
          "type": "bytes32"
        },
        {
          "indexed": false,
          "internalType": "uint256",
          "name": "delay",
          "type": "uint256"
        }
      ],
      "name": "CallScheduled",
      "type": "event"
    },
    {
      "anonymous": false,
      "inputs": [
        {
          "indexed": true,
          "internalType": "bytes32",
          "name": "id",
          "type": "bytes32"
        }
      ],
      "name": "Cancelled",
      "type": "event"
    },
    {
      "anonymous": false,
      "inputs": [
        {
          "indexed": false,
          "internalType": "uint64",
          "name": "version",
          "type": "uint64"
        }
      ],
      "name": "Initialized",
      "type": "event"
    },
    {
      "anonymous": false,
      "inputs": [
        {
          "indexed": false,
          "internalType": "uint256",
          "name": "oldDuration",
          "type": "uint256"
        },
        {
          "indexed": false,
          "internalType": "uint256",
          "name": "newDuration",
          "type": "uint256"
        }
      ],
      "name": "MinDelayChange",
      "type": "event"
    },
    {
      "anonymous": false,
      "inputs": [
        {
          "indexed": true,
          "internalType": "bytes32",
          "name": "role",
          "type": "bytes32"
        },
        {
          "indexed": true,
          "internalType": "bytes32",
          "name": "previousAdminRole",
          "type": "bytes32"
        },
        {
          "indexed": true,
          "internalType": "bytes32",
          "name": "newAdminRole",
          "type": "bytes32"
        }
      ],
      "name": "RoleAdminChanged",
      "type": "event"
    },
    {
      "anonymous": false,
      "inputs": [
        {
          "indexed": true,
          "internalType": "bytes32",
          "name": "role",
          "type": "bytes32"
        },
        {
          "indexed": true,
          "internalType": "address",
          "name": "account",
          "type": "address"
        },
        {
          "indexed": true,
          "internalType": "address",
          "name": "sender",
          "type": "address"
        }
      ],
      "name": "RoleGranted",
      "type": "event"
    },
    {
      "anonymous": false,
      "inputs": [
        {
          "indexed": true,
          "internalType": "bytes32",
          "name": "role",
          "type": "bytes32"
        },
        {
          "indexed": true,
          "internalType": "address",
          "name": "account",
          "type": "address"
        },
        {
          "indexed": true,
          "internalType": "address",
          "name": "sender",
          "type": "address"
        }
      ],
      "name": "RoleRevoked",
      "type": "event"
    },
    {
      "inputs": [],
      "name": "CANCELLER_ROLE",
      "outputs": [
        {
          "internalType": "bytes32",
          "name": "",
          "type": "bytes32"
        }
      ],
      "stateMutability": "view",
      "type": "function"
    },
    {
      "inputs": [],
      "name": "DEFAULT_ADMIN_ROLE",
      "outputs": [
        {
          "internalType": "bytes32",
          "name": "",
          "type": "bytes32"
        }
      ],
      "stateMutability": "view",
      "type": "function"
    },
    {
      "inputs": [],
      "name": "EXECUTOR_ROLE",
      "outputs": [
        {
          "internalType": "bytes32",
          "name": "",
          "type": "bytes32"
        }
      ],
      "stateMutability": "view",
      "type": "function"
    },
    {
      "inputs": [],
      "name": "PROPOSER_ROLE",
      "outputs": [
        {
          "internalType": "bytes32",
          "name": "",
          "type": "bytes32"
        }
      ],
      "stateMutability": "view",
      "type": "function"
    },
    {
      "inputs": [
        {
          "internalType": "bytes32",
          "name": "id",
          "type": "bytes32"
        }
      ],
      "name": "cancel",
      "outputs": [],
      "stateMutability": "nonpayable",
      "type": "function"
    },
    {
      "inputs": [
        {
          "internalType": "address",
          "name": "target",
          "type": "address"
        },
        {
          "internalType": "uint256",
          "name": "value",
          "type": "uint256"
        },
        {
          "internalType": "bytes",
          "name": "payload",
          "type": "bytes"
        },
        {
          "internalType": "bytes32",
          "name": "predecessor",
          "type": "bytes32"
        },
        {
          "internalType": "bytes32",
          "name": "salt",
          "type": "bytes32"
        }
      ],
      "name": "execute",
      "outputs": [],
      "stateMutability": "payable",
      "type": "function"
    },
    {
      "inputs": [
        {
          "internalType": "address[]",
          "name": "targets",
          "type": "address[]"
        },
        {
          "internalType": "uint256[]",
          "name": "values",
          "type": "uint256[]"
        },
        {
          "internalType": "bytes[]",
          "name": "payloads",
          "type": "bytes[]"
        },
        {
          "internalType": "bytes32",
          "name": "predecessor",
          "type": "bytes32"
        },
        {
          "internalType": "bytes32",
          "name": "salt",
          "type": "bytes32"
        }
      ],
      "name": "executeBatch",
      "outputs": [],
      "stateMutability": "payable",
      "type": "function"
    },
    {
      "inputs": [],
      "name": "getMinDelay",
      "outputs": [
        {
          "internalType": "uint256",
          "name": "",
          "type": "uint256"
        }
      ],
      "stateMutability": "view",
      "type": "function"
    },
    {
      "inputs": [
        {
          "internalType": "bytes32",
          "name": "id",
          "type": "bytes32"
        }
      ],
      "name": "getOperationState",
      "outputs": [
        {
          "internalType": "enum TimelockControllerUpgradeable.OperationState",
          "name": "",
          "type": "uint8"
        }
      ],
      "stateMutability": "view",
      "type": "function"
    },
    {
      "inputs": [
        {
          "internalType": "bytes32",
          "name": "role",
          "type": "bytes32"
        }
      ],
      "name": "getRoleAdmin",
      "outputs": [
        {
          "internalType": "bytes32",
          "name": "",
          "type": "bytes32"
        }
      ],
      "stateMutability": "view",
      "type": "function"
    },
    {
      "inputs": [
        {
          "internalType": "bytes32",
          "name": "id",
          "type": "bytes32"
        }
      ],
      "name": "getTimestamp",
      "outputs": [
        {
          "internalType": "uint256",
          "name": "",
          "type": "uint256"
        }
      ],
      "stateMutability": "view",
      "type": "function"
    },
    {
      "inputs": [
        {
          "internalType": "bytes32",
          "name": "role",
          "type": "bytes32"
        },
        {
          "internalType": "address",
          "name": "account",
          "type": "address"
        }
      ],
      "name": "grantRole",
      "outputs": [],
      "stateMutability": "nonpayable",
      "type": "function"
    },
    {
      "inputs": [
        {
          "internalType": "bytes32",
          "name": "role",
          "type": "bytes32"
        },
        {
          "internalType": "address",
          "name": "account",
          "type": "address"
        }
      ],
      "name": "hasRole",
      "outputs": [
        {
          "internalType": "bool",
          "name": "",
          "type": "bool"
        }
      ],
      "stateMutability": "view",
      "type": "function"
    },
    {
      "inputs": [
        {
          "internalType": "address",
          "name": "target",
          "type": "address"
        },
        {
          "internalType": "uint256",
          "name": "value",
          "type": "uint256"
        },
        {
          "internalType": "bytes",
          "name": "data",
          "type": "bytes"
        },
        {
          "internalType": "bytes32",
          "name": "predecessor",
          "type": "bytes32"
        },
        {
          "internalType": "bytes32",
          "name": "salt",
          "type": "bytes32"
        }
      ],
      "name": "hashOperation",
      "outputs": [
        {
          "internalType": "bytes32",
          "name": "",
          "type": "bytes32"
        }
      ],
      "stateMutability": "pure",
      "type": "function"
    },
    {
      "inputs": [
        {
          "internalType": "address[]",
          "name": "targets",
          "type": "address[]"
        },
        {
          "internalType": "uint256[]",
          "name": "values",
          "type": "uint256[]"
        },
        {
          "internalType": "bytes[]",
          "name": "payloads",
          "type": "bytes[]"
        },
        {
          "internalType": "bytes32",
          "name": "predecessor",
          "type": "bytes32"
        },
        {
          "internalType": "bytes32",
          "name": "salt",
          "type": "bytes32"
        }
      ],
      "name": "hashOperationBatch",
      "outputs": [
        {
          "internalType": "bytes32",
          "name": "",
          "type": "bytes32"
        }
      ],
      "stateMutability": "pure",
      "type": "function"
    },
    {
      "inputs": [
        {
          "internalType": "uint256",
          "name": "minDelay",
          "type": "uint256"
        },
        {
          "internalType": "address[]",
          "name": "proposers",
          "type": "address[]"
        },
        {
          "internalType": "address[]",
          "name": "executors",
          "type": "address[]"
        },
        {
          "internalType": "address",
          "name": "admin",
          "type": "address"
        }
      ],
      "name": "initialize",
      "outputs": [],
      "stateMutability": "nonpayable",
      "type": "function"
    },
    {
      "inputs": [
        {
          "internalType": "bytes32",
          "name": "id",
          "type": "bytes32"
        }
      ],
      "name": "isOperation",
      "outputs": [
        {
          "internalType": "bool",
          "name": "",
          "type": "bool"
        }
      ],
      "stateMutability": "view",
      "type": "function"
    },
    {
      "inputs": [
        {
          "internalType": "bytes32",
          "name": "id",
          "type": "bytes32"
        }
      ],
      "name": "isOperationDone",
      "outputs": [
        {
          "internalType": "bool",
          "name": "",
          "type": "bool"
        }
      ],
      "stateMutability": "view",
      "type": "function"
    },
    {
      "inputs": [
        {
          "internalType": "bytes32",
          "name": "id",
          "type": "bytes32"
        }
      ],
      "name": "isOperationPending",
      "outputs": [
        {
          "internalType": "bool",
          "name": "",
          "type": "bool"
        }
      ],
      "stateMutability": "view",
      "type": "function"
    },
    {
      "inputs": [
        {
          "internalType": "bytes32",
          "name": "id",
          "type": "bytes32"
        }
      ],
      "name": "isOperationReady",
      "outputs": [
        {
          "internalType": "bool",
          "name": "",
          "type": "bool"
        }
      ],
      "stateMutability": "view",
      "type": "function"
    },
    {
      "inputs": [
        {
          "internalType": "address",
          "name": "",
          "type": "address"
        },
        {
          "internalType": "address",
          "name": "",
          "type": "address"
        },
        {
          "internalType": "uint256[]",
          "name": "",
          "type": "uint256[]"
        },
        {
          "internalType": "uint256[]",
          "name": "",
          "type": "uint256[]"
        },
        {
          "internalType": "bytes",
          "name": "",
          "type": "bytes"
        }
      ],
      "name": "onERC1155BatchReceived",
      "outputs": [
        {
          "internalType": "bytes4",
          "name": "",
          "type": "bytes4"
        }
      ],
      "stateMutability": "nonpayable",
      "type": "function"
    },
    {
      "inputs": [
        {
          "internalType": "address",
          "name": "",
          "type": "address"
        },
        {
          "internalType": "address",
          "name": "",
          "type": "address"
        },
        {
          "internalType": "uint256",
          "name": "",
          "type": "uint256"
        },
        {
          "internalType": "uint256",
          "name": "",
          "type": "uint256"
        },
        {
          "internalType": "bytes",
          "name": "",
          "type": "bytes"
        }
      ],
      "name": "onERC1155Received",
      "outputs": [
        {
          "internalType": "bytes4",
          "name": "",
          "type": "bytes4"
        }
      ],
      "stateMutability": "nonpayable",
      "type": "function"
    },
    {
      "inputs": [
        {
          "internalType": "address",
          "name": "",
          "type": "address"
        },
        {
          "internalType": "address",
          "name": "",
          "type": "address"
        },
        {
          "internalType": "uint256",
          "name": "",
          "type": "uint256"
        },
        {
          "internalType": "bytes",
          "name": "",
          "type": "bytes"
        }
      ],
      "name": "onERC721Received",
      "outputs": [
        {
          "internalType": "bytes4",
          "name": "",
          "type": "bytes4"
        }
      ],
      "stateMutability": "nonpayable",
      "type": "function"
    },
    {
      "inputs": [
        {
          "internalType": "bytes32",
          "name": "role",
          "type": "bytes32"
        },
        {
          "internalType": "address",
          "name": "callerConfirmation",
          "type": "address"
        }
      ],
      "name": "renounceRole",
      "outputs": [],
      "stateMutability": "nonpayable",
      "type": "function"
    },
    {
      "inputs": [
        {
          "internalType": "bytes32",
          "name": "role",
          "type": "bytes32"
        },
        {
          "internalType": "address",
          "name": "account",
          "type": "address"
        }
      ],
      "name": "revokeRole",
      "outputs": [],
      "stateMutability": "nonpayable",
      "type": "function"
    },
    {
      "inputs": [
        {
          "internalType": "address",
          "name": "target",
          "type": "address"
        },
        {
          "internalType": "uint256",
          "name": "value",
          "type": "uint256"
        },
        {
          "internalType": "bytes",
          "name": "data",
          "type": "bytes"
        },
        {
          "internalType": "bytes32",
          "name": "predecessor",
          "type": "bytes32"
        },
        {
          "internalType": "bytes32",
          "name": "salt",
          "type": "bytes32"
        },
        {
          "internalType": "uint256",
          "name": "delay",
          "type": "uint256"
        }
      ],
      "name": "schedule",
      "outputs": [],
      "stateMutability": "nonpayable",
      "type": "function"
    },
    {
      "inputs": [
        {
          "internalType": "address[]",
          "name": "targets",
          "type": "address[]"
        },
        {
          "internalType": "uint256[]",
          "name": "values",
          "type": "uint256[]"
        },
        {
          "internalType": "bytes[]",
          "name": "payloads",
          "type": "bytes[]"
        },
        {
          "internalType": "bytes32",
          "name": "predecessor",
          "type": "bytes32"
        },
        {
          "internalType": "bytes32",
          "name": "salt",
          "type": "bytes32"
        },
        {
          "internalType": "uint256",
          "name": "delay",
          "type": "uint256"
        }
      ],
      "name": "scheduleBatch",
      "outputs": [],
      "stateMutability": "nonpayable",
      "type": "function"
    },
    {
      "inputs": [
        {
          "internalType": "bytes4",
          "name": "interfaceId",
          "type": "bytes4"
        }
      ],
      "name": "supportsInterface",
      "outputs": [
        {
          "internalType": "bool",
          "name": "",
          "type": "bool"
        }
      ],
      "stateMutability": "view",
      "type": "function"
    },
    {
      "inputs": [
        {
          "internalType": "uint256",
          "name": "newDelay",
          "type": "uint256"
        }
      ],
      "name": "updateDelay",
      "outputs": [],
      "stateMutability": "nonpayable",
      "type": "function"
    },
    {
      "stateMutability": "payable",
      "type": "receive"
    }
  ],
  "bytecode": "0x6080604052348015600f57600080fd5b506132808061001f6000396000f3fe6080604052600436106101c65760003560e01c80638065657f116100f7578063bc197c8111610095578063d547741f11610064578063d547741f146106d2578063e38335e5146106fb578063f23a6e6114610717578063f27a0c9214610754576101cd565b8063bc197c8114610606578063c4c4c7b314610643578063c4d252f51461066c578063d45c443514610695576101cd565b806391d14854116100d157806391d1485414610536578063a217fddf14610573578063b08e51c01461059e578063b1c5f427146105c9576101cd565b80638065657f146104a55780638f2a0bb0146104e25780638f61f4f51461050b576101cd565b80632ab0f5291161016457806336568abe1161013e57806336568abe146103d9578063584b153e1461040257806364d623531461043f5780637958004c14610468576101cd565b80632ab0f529146103365780632f2ff15d1461037357806331d507501461039c576101cd565b8063134008d3116101a0578063134008d31461026357806313bc9f201461027f578063150b7a02146102bc578063248a9ca3146102f9576101cd565b806301d5062a146101d257806301ffc9a7146101fb57806307bd026514610238576101cd565b366101cd57005b600080fd5b3480156101de57600080fd5b506101f960048036038101906101f49190611f0c565b61077f565b005b34801561020757600080fd5b50610222600480360381019061021d9190612013565b610857565b60405161022f919061205b565b60405180910390f35b34801561024457600080fd5b5061024d610869565b60405161025a9190612085565b60405180910390f35b61027d600480360381019061027891906120a0565b61088d565b005b34801561028b57600080fd5b506102a660048036038101906102a1919061213a565b61094a565b6040516102b3919061205b565b60405180910390f35b3480156102c857600080fd5b506102e360048036038101906102de91906122a8565b610983565b6040516102f0919061233a565b60405180910390f35b34801561030557600080fd5b50610320600480360381019061031b919061213a565b610997565b60405161032d9190612085565b60405180910390f35b34801561034257600080fd5b5061035d6004803603810190610358919061213a565b6109c5565b60405161036a919061205b565b60405180910390f35b34801561037f57600080fd5b5061039a60048036038101906103959190612355565b6109fd565b005b3480156103a857600080fd5b506103c360048036038101906103be919061213a565b610a1f565b6040516103d0919061205b565b60405180910390f35b3480156103e557600080fd5b5061040060048036038101906103fb9190612355565b610a58565b005b34801561040e57600080fd5b506104296004803603810190610424919061213a565b610ad3565b604051610436919061205b565b60405180910390f35b34801561044b57600080fd5b5061046660048036038101906104619190612395565b610b40565b005b34801561047457600080fd5b5061048f600480360381019061048a919061213a565b610c13565b60405161049c9190612439565b60405180910390f35b3480156104b157600080fd5b506104cc60048036038101906104c791906120a0565b610c62565b6040516104d99190612085565b60405180910390f35b3480156104ee57600080fd5b5061050960048036038101906105049190612556565b610ca1565b005b34801561051757600080fd5b50610520610e63565b60405161052d9190612085565b60405180910390f35b34801561054257600080fd5b5061055d60048036038101906105589190612355565b610e87565b60405161056a919061205b565b60405180910390f35b34801561057f57600080fd5b50610588610f00565b6040516105959190612085565b60405180910390f35b3480156105aa57600080fd5b506105b3610f07565b6040516105c09190612085565b60405180910390f35b3480156105d557600080fd5b506105f060048036038101906105eb9190612645565b610f2b565b6040516105fd9190612085565b60405180910390f35b34801561061257600080fd5b5061062d600480360381019061062891906127e4565b610f70565b60405161063a919061233a565b60405180910390f35b34801561064f57600080fd5b5061066a60048036038101906106659190612976565b610f85565b005b34801561067857600080fd5b50610693600480360381019061068e919061213a565b61111a565b005b3480156106a157600080fd5b506106bc60048036038101906106b7919061213a565b6111fb565b6040516106c99190612a24565b60405180910390f35b3480156106de57600080fd5b506106f960048036038101906106f49190612355565b611226565b005b61071560048036038101906107109190612645565b611248565b005b34801561072357600080fd5b5061073e60048036038101906107399190612a3f565b611406565b60405161074b919061233a565b60405180910390f35b34801561076057600080fd5b5061076961141b565b6040516107769190612a24565b60405180910390f35b7fb09aa5aeb3702cfd50b6b62bc4532604938f21248a27a1d5ca736082b6819cc16107a981611433565b60006107b9898989898989610c62565b90506107c58184611447565b6000817f4cf4410cc57040e44862ef0f45f3dd5a5e02db8eb8add648d4b0e236f1d07dca8b8b8b8b8b8a60405161080196959493929190612b23565b60405180910390a36000801b841461084c57807f20fda5fd27a1ea7bf5b9567f143ac5470bb059374a27e8f67cb44f946f6d0387856040516108439190612085565b60405180910390a25b505050505050505050565b600061086282611527565b9050919050565b7fd8aa0f3194971a2a116679f7c2090f6939c8d4e01a2a8d7e41d55e5351469e6381565b7fd8aa0f3194971a2a116679f7c2090f6939c8d4e01a2a8d7e41d55e5351469e636108b9816000610e87565b6108cf576108ce816108c96115a1565b6115a9565b5b60006108df888888888888610c62565b90506108eb81856115fa565b6108f7888888886116ae565b6000817fc2617efa69bab66782fa219543714338489c4e9e178271560a91b82c3f612b588a8a8a8a60405161092f9493929190612b7f565b60405180910390a361094081611733565b5050505050505050565b6000600260038111156109605761095f6123c2565b5b61096983610c13565b600381111561097b5761097a6123c2565b5b149050919050565b600063150b7a0260e01b9050949350505050565b6000806109a26117b3565b905080600001600084815260200190815260200160002060010154915050919050565b60006003808111156109da576109d96123c2565b5b6109e383610c13565b60038111156109f5576109f46123c2565b5b149050919050565b610a0682610997565b610a0f81611433565b610a1983836117db565b50505050565b6000806003811115610a3457610a336123c2565b5b610a3d83610c13565b6003811115610a4f57610a4e6123c2565b5b14159050919050565b610a606115a1565b73ffffffffffffffffffffffffffffffffffffffff168173ffffffffffffffffffffffffffffffffffffffff1614610ac4576040517f6697b23200000000000000000000000000000000000000000000000000000000815260040160405180910390fd5b610ace82826118dc565b505050565b600080610adf83610c13565b905060016003811115610af557610af46123c2565b5b816003811115610b0857610b076123c2565b5b1480610b38575060026003811115610b2357610b226123c2565b5b816003811115610b3657610b356123c2565b5b145b915050919050565b6000610b4a6119de565b90506000610b566115a1565b90503073ffffffffffffffffffffffffffffffffffffffff168173ffffffffffffffffffffffffffffffffffffffff1614610bc857806040517fe2850c59000000000000000000000000000000000000000000000000000000008152600401610bbf9190612bbf565b60405180910390fd5b7f11c24f4ead16507c69ac467fbd5e4eed5fb5c699626d2cc6d66421df253886d5826001015484604051610bfd929190612bda565b60405180910390a1828260010181905550505050565b600080610c1f836111fb565b905060008103610c33576000915050610c5d565b60018103610c45576003915050610c5d565b42811115610c57576001915050610c5d565b60029150505b919050565b6000868686868686604051602001610c7f96959493929190612c03565b6040516020818303038152906040528051906020012090509695505050505050565b7fb09aa5aeb3702cfd50b6b62bc4532604938f21248a27a1d5ca736082b6819cc1610ccb81611433565b878790508a8a9050141580610ce65750858590508a8a905014155b15610d35578989905086869050898990506040517fffb03211000000000000000000000000000000000000000000000000000000008152600401610d2c93929190612c5f565b60405180910390fd5b6000610d478b8b8b8b8b8b8b8b610f2b565b9050610d538184611447565b60005b8b8b9050811015610e125780827f4cf4410cc57040e44862ef0f45f3dd5a5e02db8eb8add648d4b0e236f1d07dca8e8e85818110610d9757610d96612c96565b5b9050602002016020810190610dac9190612cc5565b8d8d86818110610dbf57610dbe612c96565b5b905060200201358c8c87818110610dd957610dd8612c96565b5b9050602002810190610deb9190612d01565b8c8b604051610dff96959493929190612b23565b60405180910390a3806001019050610d56565b506000801b8414610e5657807f20fda5fd27a1ea7bf5b9567f143ac5470bb059374a27e8f67cb44f946f6d038785604051610e4d9190612085565b60405180910390a25b5050505050505050505050565b7fb09aa5aeb3702cfd50b6b62bc4532604938f21248a27a1d5ca736082b6819cc181565b600080610e926117b3565b905080600001600085815260200190815260200160002060000160008473ffffffffffffffffffffffffffffffffffffffff1673ffffffffffffffffffffffffffffffffffffffff16815260200190815260200160002060009054906101000a900460ff1691505092915050565b6000801b81565b7ffd643c72710c63c0180259aba6b2d05451e3591a24e58b62239378085726f78381565b60008888888888888888604051602001610f4c989796959493929190613006565b60405160208183030381529060405280519060200120905098975050505050505050565b600063bc197c8160e01b905095945050505050565b6000610f8f611a06565b905060008160000160089054906101000a900460ff1615905060008260000160009054906101000a900467ffffffffffffffff1690506000808267ffffffffffffffff16148015610fdd5750825b9050600060018367ffffffffffffffff16148015611012575060003073ffffffffffffffffffffffffffffffffffffffff163b145b905081158015611020575080155b15611057576040517ff92ee8a900000000000000000000000000000000000000000000000000000000815260040160405180910390fd5b60018560000160006101000a81548167ffffffffffffffff021916908367ffffffffffffffff16021790555083156110a75760018560000160086101000a81548160ff0219169083151502179055505b6110b389898989611a2e565b831561110f5760008560000160086101000a81548160ff0219169083151502179055507fc7f505b2f371ae2175ee4913f4499e1f2633a7b5936321eed1cdaeb6115181d2600160405161110691906130cd565b60405180910390a15b505050505050505050565b7ffd643c72710c63c0180259aba6b2d05451e3591a24e58b62239378085726f78361114481611433565b600061114e6119de565b905061115983610ad3565b6111b057826111686002611a48565b6111726001611a48565b176040517f5ead8eb50000000000000000000000000000000000000000000000000000000081526004016111a79291906130e8565b60405180910390fd5b80600001600084815260200190815260200160002060009055827fbaa1eb22f2a492ba1a5fea61b8df4d27c6c8b5f3971e63bb58fa14ff72eedb7060405160405180910390a2505050565b6000806112066119de565b905080600001600084815260200190815260200160002054915050919050565b61122f82610997565b61123881611433565b61124283836118dc565b50505050565b7fd8aa0f3194971a2a116679f7c2090f6939c8d4e01a2a8d7e41d55e5351469e63611274816000610e87565b61128a57611289816112846115a1565b6115a9565b5b86869050898990501415806112a55750848490508989905014155b156112f4578888905085859050888890506040517fffb032110000000000000000000000000000000000000000000000000000000081526004016112eb93929190612c5f565b60405180910390fd5b60006113068a8a8a8a8a8a8a8a610f2b565b905061131281856115fa565b60005b8a8a90508110156113f05760008b8b8381811061133557611334612c96565b5b905060200201602081019061134a9190612cc5565b905060008a8a8481811061136157611360612c96565b5b9050602002013590503660008a8a868181106113805761137f612c96565b5b90506020028101906113929190612d01565b915091506113a2848484846116ae565b84867fc2617efa69bab66782fa219543714338489c4e9e178271560a91b82c3f612b58868686866040516113d99493929190612b7f565b60405180910390a350505050806001019050611315565b506113fa81611733565b50505050505050505050565b600063f23a6e6160e01b905095945050505050565b6000806114266119de565b9050806001015491505090565b6114448161143f6115a1565b6115a9565b50565b60006114516119de565b905061145c83610a1f565b156114a9578261146c6000611a48565b6040517f5ead8eb50000000000000000000000000000000000000000000000000000000081526004016114a09291906130e8565b60405180910390fd5b60006114b361141b565b9050808310156114fc5782816040517f543366090000000000000000000000000000000000000000000000000000000081526004016114f3929190612bda565b60405180910390fd5b82426115089190613140565b8260000160008681526020019081526020016000208190555050505050565b60007f4e2312e0000000000000000000000000000000000000000000000000000000007bffffffffffffffffffffffffffffffffffffffffffffffffffffffff1916827bffffffffffffffffffffffffffffffffffffffffffffffffffffffff1916148061159a575061159982611a6e565b5b9050919050565b600033905090565b6115b38282610e87565b6115f65780826040517fe2517d3f0000000000000000000000000000000000000000000000000000000081526004016115ed929190613174565b60405180910390fd5b5050565b6116038261094a565b61164f57816116126002611a48565b6040517f5ead8eb50000000000000000000000000000000000000000000000000000000081526004016116469291906130e8565b60405180910390fd5b6000801b81141580156116685750611666816109c5565b155b156116aa57806040517f90a9a6180000000000000000000000000000000000000000000000000000000081526004016116a19190612085565b60405180910390fd5b5050565b6000808573ffffffffffffffffffffffffffffffffffffffff168585856040516116d99291906131cd565b60006040518083038185875af1925050503d8060008114611716576040519150601f19603f3d011682016040523d82523d6000602084013e61171b565b606091505b509150915061172a8282611ae8565b50505050505050565b600061173d6119de565b90506117488261094a565b61179457816117576002611a48565b6040517f5ead8eb500000000000000000000000000000000000000000000000000000000815260040161178b9291906130e8565b60405180910390fd5b6001816000016000848152602001908152602001600020819055505050565b60007f02dd7bc7dec4dceedda775e58dd541e08a116c6c53815c0bd028192f7b626800905090565b6000806117e66117b3565b90506117f28484610e87565b6118d057600181600001600086815260200190815260200160002060000160008573ffffffffffffffffffffffffffffffffffffffff1673ffffffffffffffffffffffffffffffffffffffff16815260200190815260200160002060006101000a81548160ff02191690831515021790555061186c6115a1565b73ffffffffffffffffffffffffffffffffffffffff168373ffffffffffffffffffffffffffffffffffffffff16857f2f8788117e7eff1d82e926ec794901d17c78024a50270940304540a733656f0d60405160405180910390a460019150506118d6565b60009150505b92915050565b6000806118e76117b3565b90506118f38484610e87565b156119d257600081600001600086815260200190815260200160002060000160008573ffffffffffffffffffffffffffffffffffffffff1673ffffffffffffffffffffffffffffffffffffffff16815260200190815260200160002060006101000a81548160ff02191690831515021790555061196e6115a1565b73ffffffffffffffffffffffffffffffffffffffff168373ffffffffffffffffffffffffffffffffffffffff16857ff6391f5c32d9c69d2a47ea670b442974b53935d1edc7fd64eb21e047a839171b60405160405180910390a460019150506119d8565b60009150505b92915050565b60007f9a37c2aa9d186a0969ff8a8267bf4e07e864c2f2768f5040949e28a624fb3600905090565b60007ff0c57e16840df040f15088dc2f81fe391c3923bec73e23a9662efc9c229c6a00905090565b611a36611b0c565b611a4284848484611b4c565b50505050565b6000816003811115611a5d57611a5c6123c2565b5b60ff166001901b60001b9050919050565b60007f7965db0b000000000000000000000000000000000000000000000000000000007bffffffffffffffffffffffffffffffffffffffffffffffffffffffff1916827bffffffffffffffffffffffffffffffffffffffffffffffffffffffff19161480611ae15750611ae082611cfa565b5b9050919050565b606082611afd57611af882611d64565b611b05565b819050611b06565b5b92915050565b611b14611da9565b611b4a576040517fd7e6bcf800000000000000000000000000000000000000000000000000000000815260040160405180910390fd5b565b611b54611b0c565b6000611b5e6119de565b9050611b6d6000801b306117db565b50600073ffffffffffffffffffffffffffffffffffffffff168273ffffffffffffffffffffffffffffffffffffffff1614611bb157611baf6000801b836117db565b505b60005b8451811015611c5257611c017fb09aa5aeb3702cfd50b6b62bc4532604938f21248a27a1d5ca736082b6819cc1868381518110611bf457611bf3612c96565b5b60200260200101516117db565b50611c467ffd643c72710c63c0180259aba6b2d05451e3591a24e58b62239378085726f783868381518110611c3957611c38612c96565b5b60200260200101516117db565b50806001019050611bb4565b5060005b8351811015611caf57611ca37fd8aa0f3194971a2a116679f7c2090f6939c8d4e01a2a8d7e41d55e5351469e63858381518110611c9657611c95612c96565b5b60200260200101516117db565b50806001019050611c56565b508481600101819055507f11c24f4ead16507c69ac467fbd5e4eed5fb5c699626d2cc6d66421df253886d5600086604051611ceb929190613221565b60405180910390a15050505050565b60007f01ffc9a7000000000000000000000000000000000000000000000000000000007bffffffffffffffffffffffffffffffffffffffffffffffffffffffff1916827bffffffffffffffffffffffffffffffffffffffffffffffffffffffff1916149050919050565b600081511115611d775780518082602001fd5b6040517fd6bda27500000000000000000000000000000000000000000000000000000000815260040160405180910390fd5b6000611db3611a06565b60000160089054906101000a900460ff16905090565b6000604051905090565b600080fd5b600080fd5b600073ffffffffffffffffffffffffffffffffffffffff82169050919050565b6000611e0882611ddd565b9050919050565b611e1881611dfd565b8114611e2357600080fd5b50565b600081359050611e3581611e0f565b92915050565b6000819050919050565b611e4e81611e3b565b8114611e5957600080fd5b50565b600081359050611e6b81611e45565b92915050565b600080fd5b600080fd5b600080fd5b60008083601f840112611e9657611e95611e71565b5b8235905067ffffffffffffffff811115611eb357611eb2611e76565b5b602083019150836001820283011115611ecf57611ece611e7b565b5b9250929050565b6000819050919050565b611ee981611ed6565b8114611ef457600080fd5b50565b600081359050611f0681611ee0565b92915050565b600080600080600080600060c0888a031215611f2b57611f2a611dd3565b5b6000611f398a828b01611e26565b9750506020611f4a8a828b01611e5c565b965050604088013567ffffffffffffffff811115611f6b57611f6a611dd8565b5b611f778a828b01611e80565b95509550506060611f8a8a828b01611ef7565b9350506080611f9b8a828b01611ef7565b92505060a0611fac8a828b01611e5c565b91505092959891949750929550565b60007fffffffff0000000000000000000000000000000000000000000000000000000082169050919050565b611ff081611fbb565b8114611ffb57600080fd5b50565b60008135905061200d81611fe7565b92915050565b60006020828403121561202957612028611dd3565b5b600061203784828501611ffe565b91505092915050565b60008115159050919050565b61205581612040565b82525050565b6000602082019050612070600083018461204c565b92915050565b61207f81611ed6565b82525050565b600060208201905061209a6000830184612076565b92915050565b60008060008060008060a087890312156120bd576120bc611dd3565b5b60006120cb89828a01611e26565b96505060206120dc89828a01611e5c565b955050604087013567ffffffffffffffff8111156120fd576120fc611dd8565b5b61210989828a01611e80565b9450945050606061211c89828a01611ef7565b925050608061212d89828a01611ef7565b9150509295509295509295565b6000602082840312156121505761214f611dd3565b5b600061215e84828501611ef7565b91505092915050565b600080fd5b6000601f19601f8301169050919050565b7f4e487b7100000000000000000000000000000000000000000000000000000000600052604160045260246000fd5b6121b58261216c565b810181811067ffffffffffffffff821117156121d4576121d361217d565b5b80604052505050565b60006121e7611dc9565b90506121f382826121ac565b919050565b600067ffffffffffffffff8211156122135761221261217d565b5b61221c8261216c565b9050602081019050919050565b82818337600083830152505050565b600061224b612246846121f8565b6121dd565b90508281526020810184848401111561226757612266612167565b5b612272848285612229565b509392505050565b600082601f83011261228f5761228e611e71565b5b813561229f848260208601612238565b91505092915050565b600080600080608085870312156122c2576122c1611dd3565b5b60006122d087828801611e26565b94505060206122e187828801611e26565b93505060406122f287828801611e5c565b925050606085013567ffffffffffffffff81111561231357612312611dd8565b5b61231f8782880161227a565b91505092959194509250565b61233481611fbb565b82525050565b600060208201905061234f600083018461232b565b92915050565b6000806040838503121561236c5761236b611dd3565b5b600061237a85828601611ef7565b925050602061238b85828601611e26565b9150509250929050565b6000602082840312156123ab576123aa611dd3565b5b60006123b984828501611e5c565b91505092915050565b7f4e487b7100000000000000000000000000000000000000000000000000000000600052602160045260246000fd5b60048110612402576124016123c2565b5b50565b6000819050612413826123f1565b919050565b600061242382612405565b9050919050565b61243381612418565b82525050565b600060208201905061244e600083018461242a565b92915050565b60008083601f84011261246a57612469611e71565b5b8235905067ffffffffffffffff81111561248757612486611e76565b5b6020830191508360208202830111156124a3576124a2611e7b565b5b9250929050565b60008083601f8401126124c0576124bf611e71565b5b8235905067ffffffffffffffff8111156124dd576124dc611e76565b5b6020830191508360208202830111156124f9576124f8611e7b565b5b9250929050565b60008083601f84011261251657612515611e71565b5b8235905067ffffffffffffffff81111561253357612532611e76565b5b60208301915083602082028301111561254f5761254e611e7b565b5b9250929050565b600080600080600080600080600060c08a8c03121561257857612577611dd3565b5b60008a013567ffffffffffffffff81111561259657612595611dd8565b5b6125a28c828d01612454565b995099505060208a013567ffffffffffffffff8111156125c5576125c4611dd8565b5b6125d18c828d016124aa565b975097505060408a013567ffffffffffffffff8111156125f4576125f3611dd8565b5b6126008c828d01612500565b955095505060606126138c828d01611ef7565b93505060806126248c828d01611ef7565b92505060a06126358c828d01611e5c565b9150509295985092959850929598565b60008060008060008060008060a0898b03121561266557612664611dd3565b5b600089013567ffffffffffffffff81111561268357612682611dd8565b5b61268f8b828c01612454565b9850985050602089013567ffffffffffffffff8111156126b2576126b1611dd8565b5b6126be8b828c016124aa565b9650965050604089013567ffffffffffffffff8111156126e1576126e0611dd8565b5b6126ed8b828c01612500565b945094505060606127008b828c01611ef7565b92505060806127118b828c01611ef7565b9150509295985092959890939650565b600067ffffffffffffffff82111561273c5761273b61217d565b5b602082029050602081019050919050565b600061276061275b84612721565b6121dd565b9050808382526020820190506020840283018581111561278357612782611e7b565b5b835b818110156127ac57806127988882611e5c565b845260208401935050602081019050612785565b5050509392505050565b600082601f8301126127cb576127ca611e71565b5b81356127db84826020860161274d565b91505092915050565b600080600080600060a08688031215612800576127ff611dd3565b5b600061280e88828901611e26565b955050602061281f88828901611e26565b945050604086013567ffffffffffffffff8111156128405761283f611dd8565b5b61284c888289016127b6565b935050606086013567ffffffffffffffff81111561286d5761286c611dd8565b5b612879888289016127b6565b925050608086013567ffffffffffffffff81111561289a57612899611dd8565b5b6128a68882890161227a565b9150509295509295909350565b600067ffffffffffffffff8211156128ce576128cd61217d565b5b602082029050602081019050919050565b60006128f26128ed846128b3565b6121dd565b9050808382526020820190506020840283018581111561291557612914611e7b565b5b835b8181101561293e578061292a8882611e26565b845260208401935050602081019050612917565b5050509392505050565b600082601f83011261295d5761295c611e71565b5b813561296d8482602086016128df565b91505092915050565b600080600080608085870312156129905761298f611dd3565b5b600061299e87828801611e5c565b945050602085013567ffffffffffffffff8111156129bf576129be611dd8565b5b6129cb87828801612948565b935050604085013567ffffffffffffffff8111156129ec576129eb611dd8565b5b6129f887828801612948565b9250506060612a0987828801611e26565b91505092959194509250565b612a1e81611e3b565b82525050565b6000602082019050612a396000830184612a15565b92915050565b600080600080600060a08688031215612a5b57612a5a611dd3565b5b6000612a6988828901611e26565b9550506020612a7a88828901611e26565b9450506040612a8b88828901611e5c565b9350506060612a9c88828901611e5c565b925050608086013567ffffffffffffffff811115612abd57612abc611dd8565b5b612ac98882890161227a565b9150509295509295909350565b612adf81611dfd565b82525050565b600082825260208201905092915050565b6000612b028385612ae5565b9350612b0f838584612229565b612b188361216c565b840190509392505050565b600060a082019050612b386000830189612ad6565b612b456020830188612a15565b8181036040830152612b58818688612af6565b9050612b676060830185612076565b612b746080830184612a15565b979650505050505050565b6000606082019050612b946000830187612ad6565b612ba16020830186612a15565b8181036040830152612bb4818486612af6565b905095945050505050565b6000602082019050612bd46000830184612ad6565b92915050565b6000604082019050612bef6000830185612a15565b612bfc6020830184612a15565b9392505050565b600060a082019050612c186000830189612ad6565b612c256020830188612a15565b8181036040830152612c38818688612af6565b9050612c476060830185612076565b612c546080830184612076565b979650505050505050565b6000606082019050612c746000830186612a15565b612c816020830185612a15565b612c8e6040830184612a15565b949350505050565b7f4e487b7100000000000000000000000000000000000000000000000000000000600052603260045260246000fd5b600060208284031215612cdb57612cda611dd3565b5b6000612ce984828501611e26565b91505092915050565b600080fd5b600080fd5b600080fd5b60008083356001602003843603038112612d1e57612d1d612cf2565b5b80840192508235915067ffffffffffffffff821115612d4057612d3f612cf7565b5b602083019250600182023603831315612d5c57612d5b612cfc565b5b509250929050565b600082825260208201905092915050565b6000819050919050565b612d8881611dfd565b82525050565b6000612d9a8383612d7f565b60208301905092915050565b6000612db56020840184611e26565b905092915050565b6000602082019050919050565b6000612dd68385612d64565b9350612de182612d75565b8060005b85811015612e1a57612df78284612da6565b612e018882612d8e565b9750612e0c83612dbd565b925050600181019050612de5565b5085925050509392505050565b600082825260208201905092915050565b600080fd5b82818337505050565b6000612e528385612e27565b93507f07ffffffffffffffffffffffffffffffffffffffffffffffffffffffffffffff831115612e8557612e84612e38565b5b602083029250612e96838584612e3d565b82840190509392505050565b600082825260208201905092915050565b6000819050919050565b600082825260208201905092915050565b6000612eda8385612ebd565b9350612ee7838584612229565b612ef08361216c565b840190509392505050565b6000612f08848484612ece565b90509392505050565b600080fd5b600080fd5b600080fd5b60008083356001602003843603038112612f3d57612f3c612f1b565b5b83810192508235915060208301925067ffffffffffffffff821115612f6557612f64612f11565b5b600182023603831315612f7b57612f7a612f16565b5b509250929050565b6000602082019050919050565b6000612f9c8385612ea2565b935083602084028501612fae84612eb3565b8060005b87811015612ff4578484038952612fc98284612f20565b612fd4868284612efb565b9550612fdf84612f83565b935060208b019a505050600181019050612fb2565b50829750879450505050509392505050565b600060a0820190508181036000830152613021818a8c612dca565b9050818103602083015261303681888a612e46565b9050818103604083015261304b818688612f90565b905061305a6060830185612076565b6130676080830184612076565b9998505050505050505050565b6000819050919050565b600067ffffffffffffffff82169050919050565b6000819050919050565b60006130b76130b26130ad84613074565b613092565b61307e565b9050919050565b6130c78161309c565b82525050565b60006020820190506130e260008301846130be565b92915050565b60006040820190506130fd6000830185612076565b61310a6020830184612076565b9392505050565b7f4e487b7100000000000000000000000000000000000000000000000000000000600052601160045260246000fd5b600061314b82611e3b565b915061315683611e3b565b925082820190508082111561316e5761316d613111565b5b92915050565b60006040820190506131896000830185612ad6565b6131966020830184612076565b9392505050565b600081905092915050565b60006131b4838561319d565b93506131c1838584612229565b82840190509392505050565b60006131da8284866131a8565b91508190509392505050565b6000819050919050565b600061320b613206613201846131e6565b613092565b611e3b565b9050919050565b61321b816131f0565b82525050565b60006040820190506132366000830185613212565b6132436020830184612a15565b939250505056fea26469706673582212208591e083add592bc3968bba5d45c228fa65227a25b0accfb1b85b895ed762fe164736f6c634300081a0033",
  "linkReferences": {},
  "deployedLinkReferences": {}
}